:100000000C9431260C9459260C9459260C9459269C
:100010000C9459260C9459260C9459260C94592664
:100020000C9459260C9459260C94822C0C94F12C87
:100030000C9459260C9459260C9459260C94592644
:100040000C9459260C9459260C9459260C94592634
:100050000C9459260C9459260C9459260C94232F51
:100060000C9459260C9459260C9459260C94592614
:100070000C9459260C9459260C9459260C94592604
:100080000C9459260C9459260C9459260C945926F4
:100090000C9459260C9459260C9459260C945926E4
:1000A0000C9459260C9459260C94592600000000F3
:1000B00017000300031F0A1F161F0A1904130A154D
:1000C000120003000E1B11111B0E0A040A040E0479
:1000D0000018000404040010001804031F111F126C
:1000E0001F1019151215150A03041F17150D1E15DB
:1000F0001D0119071F151F07150F000A00001A0020
:10010000040A110A0A0A110A040115021F1F1F1E00
:10011000051E1F151A0E11111F110E1F15111F0597
:10012000010E111D1F041F111F1109111F1F041B98
:100130001F10101F031F1F011E0E110E1F05020EA0
:1001400019161F051A16150D011F010F101F07188C
:10015000071F181F1B041B031C03191513000000A5
:1001600000007E0909097E7F494949363E414141E7
:10017000227F4141221C7F494949417F09090901E8
:100180003E4141493A7F0808087F00417F410030E5
:100190004041413F7F08041A617F404040407F0258
:1001A0000C027F7F0204087F3E4141413E7F0909E6
:1001B00009063E4151215E7F0919294626494949D0
:1001C0003201017F01013F4040403F0F3040300F7E
:1001D0003F4038403F63140814630304780403610C
:1001E0005149454300000246003400001DB0000C98
:1001F000F700244A0038EF0A48C00009B70614C7C0
:10020000004C880650030254BB0858990D5E00004C
:1002100051BD051C00003D00002FEB0330C10D2433
:10022000DB031200003D4A005800004DF70024C0D7
:10023000002D8B0E32A80514000067900904000001
:100240004DC000113708188D0B20F20D24CB085437
:10025000930A3690093CF70C6866080CF40B10B54D
:100260000318DD031CDB03205B09301B05346A0522
:10027000394C0E4838034D680653930A1ABD055C85
:1002800000064ABD0540C00033C0002D000654EAF8
:100290000A5000004D90093EB80654000009A1051F
:1002A00014CE0724E00534E00748FB0A5800004D4F
:1002B000930A52CF0B08000007C10D24AD031E376F
:1002C000083000001700002517062CC0001C5F0D29
:1002D0000885010C2C03189309306503353E02395B
:1002E000B5093CF40741310448050B4E00002500D8
:1002F000003DCE0616B0000C960B08EA0334DC0372
:100300001C1601246F042C790638E2034AE00D0420
:100310009C0B14D80A24B8063405023C1108541664
:100320000266EC023000004D4A000E4A002C2C07F9
:100330001CE207106203306807340F0E38B8024021
:100340007D0A485C0852000049A50516DF09328283
:100350000C54990016820C1A4A0005C00016C00001
:100360001590090400005D46001CC0003C8D0B6820
:10037000460010E00535370708900E0CF60024C43F
:10038000012CA507394F0C484A00590000214600AE
:1003900032C00055C0000500063C59053A00004136
:1003A000C0002E00001DDB03348C065AA80554C083
:1003B000004A930A2FBD051C5905060000150000D0
:1003C00035930A4A000005FB002EA505266A0B544A
:1003D0004A00226F0704F70814F70524AF0330FC26
:1003E000023C6708565D06384A001E28014200009C
:1003F00021A80650F10A2EDB0348FC031E080D1647
:100400009A0B0D4A004894003C160D54E0055C4AD6
:10041000006AE0051CCE0707590514310A24A10023
:100420003E7D005400004F00002100001590090699
:100430000000054A0026C000147D004F0000654AF8
:100440000016000051930A48C90A104600159F057E
:100450005900002500000D000043BD052C6A08046A
:100460007F0B3F00002559051400000D250912E0FF
:10047000055C530C04D20B08480C0CF00010820BE6
:10048000141E0E18F1031C7D0B24180A281D0030C1
:100490001701342D0338A70140C50C48A3044C9024
:1004A0000650720A60760A66000049930A32940088
:1004B0000CB8083AC0002100004DFB0010CC03141A
:1004C000820C24C0045646004800001BC00015C022
:1004D000001FCC080400003F00003900002F00007E
:1004E0005100004DBD054A6008153E0C3EFB000C56
:1004F0000000050000158D0B3EE3012E00004D6D40
:100500000304A80556C10D24A80517A805149009D1
:100510003EBD0534BD0540F90D06500114370D26CA
:10052000A5050CFC034E860D32C0003DAA0815B887
:10053000032400004DE005360006384A002CB00CBC
:10054000086908107A0918330D30D80135B7094009
:100550003A0B48F80A4CEC0B52BD05384A0024CE41
:100560000616000035C0002159053CA5050CCE0734
:1005700004C000103D0C147E0E300705394A0049B6
:1005800054044DB20351C0005500006700002144DF
:100590000D055F0314AB0C244E0A3D4C0148C50207
:1005A0005600003DA80652B60B305F0708E2050C66
:1005B000E00814BD0C1C790E3C1B034090084968F0
:1005C0000A506A0E544C045E910A27A906519900FC
:1005D000046C0B1D2A0432270C34BD051E46002C6A
:1005E000BD053ABD0534C10D2400003300001100E3
:1005F000005100004B00003D990D32000021850E96
:1006000004B70A244A001017066825080DB30535FB
:10061000990638070E4950074D4305511C0359A947
:100620000566270904F10714B60D264A0014D802FE
:100630003E00003DB8065600004D930A48A8051537
:100640006F041EC00051540A28C0004200001573F8
:100650000E36E00522000039A80514C10D24FC0364
:100660000C8106302A0340990D52000021590514CF
:1006700000004F000025C000157C0E2E930A304A62
:10068000005600003D00002DBD053846000C7004EA
:1006900026E2063E000624E00558CE073290090403
:1006A000E0051CCE0724E00540C0000D5C0D085C91
:1006B0000130B809353708381A013D440C4CD909C6
:1006C00050E308548C0958D70D5E000015590524D5
:1006D000840C3E000015890146AA0C142B0420C08E
:1006E000003E000011CE07306B0039850441CD0675
:1006F0004A94000C7701364E04267B0B05E0051C5E
:1007000036013000004D46003490023CFB00484A60
:100710000054A8051490092600004DCE0705C0001E
:1007200065990D334A00389900144A002E930A0443
:1007300046001A000051000049000067990D2CFB8B
:10074000000C00001100003B00004D860451C00069
:1007500011A50D156E0409C0001960041CB90530FF
:10076000E10934AB05383A0041D9024AE005346B5F
:100770000454E0050A00000515013CFB004E000092
:100780004DBD0510F10A2CF10A30AA0C5A59051476
:100790006A0B56000051A8051400004D840D30006E
:1007A000003DDB03125905144A00508F0A188E02CF
:1007B0000420050819050CD60B10980C1CFB002012
:1007C000A70524710A2C9F0D31180B347A06387B4B
:1007D000013C8B0340FA06491B094D8808548008E8
:1007E00058B00C5C7C006123056B00001D000035D7
:1007F00000002F00004D140208170635A805041745
:100800000614A0041CC10B2C5A0C306C0539A2062E
:100810003D390B40850248000011000067CE0714E7
:10082000820C0A8D00064A0050C10D2481044359F0
:100830000514930A326D013200003D0000050000EE
:100840006500004F000065C0004AEE0204310B0C49
:100850006C0814380120010824DB082CFD063075D3
:100860000C34710338F3043CBF08404F0244BF0D01
:10087000485104501F04546A015C68046600003D3E
:100880004A0017000025840408990D3600003D76C3
:100890000014000041AA0C4E000015E0052E0000D7
:1008A0004DBD052CE0053A59054B0000514A000E9C
:1008B000C10D24FC030C860716000065930A14F191
:1008C0000A38FB001CC00D242D0A2C0000059009DD
:1008D0003ED60C56820C24FB001C630E3A7A015063
:1008E000BC0268BF0C39E20A42430C16300B040EFE
:1008F0000A14530224820E3C550D54550D6A000013
:10090000650000554A002CE00558DB033200001951
:1009100000001D0000096F045A00004DC000065978
:100920000514820C0A86053A170664AD0D04520DB3
:100930001495002463023E820C50E40333C3051473
:10094000910A24030D3E590514C0002600004D9362
:100950000A50900914C0000987050DD60D10BB0779
:10096000186D031DAA032CE50131B00C35040D38B8
:10097000930A4B00000500002D80064ACE0714BDE7
:100980000510EE031E000065A5050CAC00107D00EF
:1009900062BD052C00003900001FDF07300E0D3A44
:1009A000F7001817062CF70C687F0E30C2080802F3
:1009B0000C0CBC03345D0948810E5000004DE0056D
:1009C0001200004D000061C00065890405D90408CB
:1009D0008C0610E00518FD0C1C4E0924460B388EC1
:1009E000033CA200406A0B49DE03564A0050000057
:1009F0003D9009248C063AC0003D00004DBD0556CF
:100A0000C0000D6D033B00005146003A00003DBDA3
:100A1000054000004DFB0012820C6B000039000005
:100A200031930A4888053700004D0B0416910A3CA3
:100A30006D0326F90A0E4A0034160D3AC000154A15
:100A40000008A8050417066894060DAA05101506E7
:100A500018EB051D1B02301A0C357B0838FD0349C5
:100A600067034D7305603F0D6600004100005F00A5
:100A70000039E0051190093DFC0353F0035EB9080D
:100A80003EFB0020B80634C802043B071478022459
:100A900029053C25005440096600001588011E0008
:100AA000001900004D270C525905146A0B3E000036
:100AB00015000039AA0560C0000D930A1C3B034CC9
:100AC0005D0809B20C31AE0D346E0E484E07553B31
:100AD0000E5A000015130A06C0001517065C000028
:100AE00061BF001DDD0D30500D488803527D005858
:100AF000A80556C10D24BD0534990D08990D2CB9D2
:100B0000084C7C0E52000005000019A5050CAC0035
:100B1000108A0814A805248706306A0B34060539A4
:100B20008D0B41C30848BA0D5200000500004DFC72
:100B3000030CC0002F950C405905174A002CC0002B
:100B400019C10D0484070898090C8904108B071437
:100B50005B0130160538A90B41FC0049020A4D3EE5
:100B60000E52590514000053E0051B00004D000013
:100B70001DE3093CEF0A48F70056430B052C0B1404
:100B8000700924DB013E590514DA0C2400003D00F5
:100B9000004FEE034D7D0022510E04350914500A1A
:100BA00020FE0C24C60830EB013C1106481C015401
:100BB0001D0C664A0014E00536A80514E00542C085
:100BC0000005600815DB0D1CCD07252C072C460001
:100BD0003890093C46004CD70352170658FB0004D6
:100BE000D1060896051CD306386B025059054A00F9
:100BF000001D4A001159051400006700003DB806A9
:100C000057C000059F0048C0005F000055CC03049A
:100C100046005ABD0540BD050AC00005890144C013
:100C20000014930A2061064E43004C00001FE005AB
:100C300064C70214090B26140104570914880924F7
:100C4000AF0D3E000015990D084A0038B90C36D892
:100C5000023C4A00240006160000050000354A0048
:100C600012000011BD055C930A409300141D084E4C
:100C70005A093CE30A4200004DEF0330700626009B
:100C80000021BD0552900914BD05405A093E7D0062
:100C90004C990D10890E1A000065FC030C4A0010D7
:100CA000000069800505FE001552011CA80520936F
:100CB0000B2DB40B407D004DA300505905551C026F
:100CC000597D0061FB003A460050E00534E00540E4
:100CD000E00558E00530590510B8064A4A0024C618
:100CE0000116000015C10D261B00325905144A00DB
:100CF000328D0B1600004900004F000015590524E5
:100D0000F40752E8091A00002D8901460000490045
:100D1000000FBD0534F10A40DB030A0000656A0BD1
:100D20003E5B082EF70018A90C083C020CD50D10EC
:100D3000E106146B0B1CE60530560C386D033D10B4
:100D40000048A5014DD00450460036720B1000003B
:100D500069170640D9080CDC051C120030B70934AD
:100D6000B904381F0E4D380D52000025000005460D
:100D7000004A990D38930A32A80514F10A1F7D0024
:100D80001EA80514E0051C860558000031BD054A63
:100D9000000065C60116000005000025000017A828
:100DA0000514F10A3600006558011600064C0B04C4
:100DB00016C00014D8023EC00024F3050410061427
:100DC0001F091E000614160D38B9084FA805140097
:100DD00000050000135B0350000023000005000025
:100DE0000D890144980C4AC00051E005344A003096
:100DF000C0001D320A05D80D2421054800004D937E
:100E00000A0A00004900001100004F4A003059054D
:100E1000176D0348CE072600002117062C4A00351F
:100E2000020A4D10000C880410CA0531F607380F6D
:100E30000D3C840340980948B60C50920954DD02D9
:100E40005F590510880509FF09142C071CC7042DDC
:100E5000210C34F60C385D0841C00045F80348C148
:100E6000024FC0003200000559053E550614270CFC
:100E7000344A006900004F000049590515C0003B85
:100E800000001DE00538BB00129E0416F10A1CFB91
:100E9000004C000005000053A8054990095E820837
:100EA00048E0053200005100004D00004117065C8B
:100EB000C0001D140208FC073979053CE5074A43C8
:100EC000024A00001D460057C10D24CE080800004C
:100ED0001500003B5F0A2F000614DE083C34005664
:100EE00089010C58044F00005100003D0B0417000D
:100EF0000049D8023C000041FC030C3207300000DE
:100F000021C00007000005AD031EEB09048A04148C
:100F10004A072490013C7A0454C00066000039FB63
:100F20000008AA0C0C8D0B32590515BD056A0D0180
:100F300008A8051700004D6D033A00004DBD051CC3
:100F4000820C12970C5200000500003D00004DB7C6
:100F50000A260000099400384A0040AC0012000044
:100F60003DE00532C0003100003DC10D2646005075
:100F7000460026990D4000001500004F860A24BD4A
:100F8000051200002D590515160D381D084EAB0D24
:100F90003A00002100003500000D00002D17061C4E
:100FA000CE07304A0E38C10448B3094D1C0350C760
:100FB0000254CE075C2D0E660006148D0B1C00003B
:100FC00051000067BD051F00003134094EC00051BB
:100FD000C00014E0052C4A004CAA0C3A36081AA2AC
:100FE0000C142405245E023C6C0356000025F0031B
:100FF0003200000500001100001D00003100061441
:10100000EC05094A002D460044C30D4ABD051300F6
:10101000003D000065C10D24E0052CF00338F10A05
:101020000EC0005900060E000005A8051400004B74
:1010300094000C9A003AC00031C0002100004F001B
:101040000039E407409A0B0DB20056000039C00089
:10105000517D004EC10D24FD0D0C4509530000517A
:1010600000003900004D170610170634130B4A0014
:10107000003D820C0A0000416707089B0D520000EA
:101080006500001DC10D244A000C840D3A10045067
:10109000EE034FFA004A8205166D033E90090400E4
:1010A0000065B80654C000118E0B14AF08306107FC
:1010B0003980063C870848DD014CCE0C52C0002127
:1010C00000004D4A002CA5053C000061880535460E
:1010D0000008890410A0000DC90A28BA0231DB03F8
:1010E00038F10848B1005700004DBD0540C0002D43
:1010F000CE0615D00B32000051D80D3AC10D240098
:101100000009BA0514B70C184A00349F004A4A0077
:10111000384A004DC0001BE0052F1B071076041550
:10112000FB0024C40032000005000015DB031C0096
:10113000003DBD052E820C08E00540E005370000AB
:1011400051CE0716F4070A000005C000266F0426DA
:1011500000001D2A0430E407408C065AF40713C02F
:101160000005010A4D4A002C17065C960B08FB008F
:101170006807010D8D0B1152011D040320CE0725B8
:10118000BC01317801349D0539770E3C16064027A5
:101190000649D408518506568E000600003D910987
:1011A00014900A24C80A48EE0C54B50966000025BC
:1011B00000004F000039FC0352C10D24980C50E090
:1011C000053A000021FB0030A5050C0804096C0657
:1011D0001068081C8205240401356D0B385D0D3D37
:1011E0003C0E4817064D5B065000065EFB004800AB
:1011F000001300000500003DA805168F0404A30A93
:10120000148A0B18FF0520C4092418063011043C69
:101210006C0248AC0654240E66C00015460038BD6A
:101220000512000025FD0D0EC10D2433060C8D0B9B
:101230001D5C092E000031FC034EA80514C10D27CA
:1012400000001900004D930A30000051590517A8FD
:101250000514C10D24E00518FC034C7C0E10740A23
:1012600032440B4200004D930A58000049000033FD
:101270004A005000001D930A16510C2D0000050075
:10128000004FC00011FC0340D80D4C670752840684
:10129000045903147C0324690B3C840556000005A3
:1012A000C10D24CE0615020B1E000019C0005117F7
:1012B0000668DF0730830121990D4A4A0050FB0080
:1012C0001C00003D0000674A005000001D4A000657
:1012D000B00C3000002F86071790091C00004BD57A
:1012E0000C3C270C3600002DFB006A0000494C0B1B
:1012F000044E0414BC0724A7093DC602560000058D
:10130000DB0316DB032600000500001D1C033A7CEE
:101310000E300000110000539A0D245905160000EC
:101320003D900924FB0048000041CC08566A0B168A
:10133000D40C048809142E0C24690D3C080556A809
:10134000032E59051400004DBD0530C000679009FB
:101350002400006500004D00000917062C83040CD2
:10136000DC0C14EA051DAE0430100C38E509480504
:101370000B502D0C54170662900904000620AF0B89
:101380001E860D24A80516F60D1600000500003D6A
:101390004A00258B062E00002D7903320000158CA3
:1013A000062E900924EC051C00063E5B0004050790
:1013B000145203247B073C600D56000049000011C5
:1013C000000033000025930A3F4A005800004DC03A
:1013D0000011480B1D2009397D0048CD0868100612
:1013E00016F4083D000053C00005A8051400004F86
:1013F0000000254A002A00004D7C0E50990D10BDBA
:10140000053200004DC90A120000154A00370000DD
:1014100039C10D24C0004BFC0A047F0314B4003C06
:10142000F5035784041A5B0840C10D26CC043C1711
:101430000664420D24AF0156C00014E005487F0E3B
:101440003052011C1706088E0E0C490911100518A0
:101450004409359C043900005B0000050000510080
:10146000003900004DFB004A0000156D033A0000F2
:10147000159A0B0D1D084CAB0D3E000015FB00220C
:10148000000031FD0D0CBD0534990D38E005481FF5
:101490000E5786052E00003D010B0A820C2C000021
:1014A0001500003FBD055C710B04080109D2000C5A
:1014B0007501148C0B19860A1C1C0D241C032C743A
:1014C0000531010134640B38170D419D0048BF0DF3
:1014D0004C570250460059810E61C0006700004D14
:1014E000510D64B8061690093CC00006C000548631
:1014F0000A14F70A66000005B80656F205166A0BCC
:101500003CC00056CE073C000005000017A805149B
:101510004A0008270C35890144FA094AC10D249074
:10152000093CEC00140D0152000025BD0510CE074A
:1015300006A5050C4A005A000015FC030CC0001E4D
:10154000ED0326000021860A524A001459053EDBAD
:10155000031E4A005033060C33021CB40225F10A64
:101560003BBD052C5905264A0024000065930A322C
:10157000930A12C00015980C52B80624E0055300D7
:10158000005100001B6A0B5400061600001590095C
:101590003C590526460038B70A24E00523000021FF
:1015A0008E0056000051410D360000517D004E0066
:1015B000001D00002DE0053A000005000051CE0797
:1015C00064000055590515E00532FC030CBD0550BB
:1015D000980D10F10A18F5082EFB0A50B70A2600DC
:1015E000002100004DC0005317062C3B0D509809F8
:1015F0000C490711A80418FC0C1C010531B80C3467
:10160000490D38DF0349C6004E000041000037C0D5
:10161000001D11050C720411690234210E383E04BC
:1016200048270A4C6C0468C0000B0000512A0430A3
:10163000E40740A5054ABD05104A0005BD055290C6
:101640000E05320D08830C149A0A26FC0350000084
:101650001100004B28012EE00509A8051700004DD8
:1016600000002D820C1E00001594000C4A00485901
:101670000D1CC000384C075F000021F70018000067
:101680004D6D033843051D000049590532590514B5
:1016900000002F7B0904BB0914320320CD03244032
:1016A000043C6E0348970D54FE0D662A0B09B000EA
:1016B0000C730410620C18E70A1C820520F30B302F
:1016C000280E34C80138AF04493A034CB50C506DAC
:1016D000046AB3005000001900004FEE0004FA0B3A
:1016E000144C0924F8003CD00C56BD050C19021E00
:1016F000B1011E90093C0000550B0415B60B30B02B
:1017000002387F06480B0D52A909040B03146C071D
:10171000201D0324350830870B38B80A3C73024873
:10172000750354490066C10D24930A1486043300DE
:101730000005CE061600004D0000150000670000F1
:101740004DFB0048E0052CBD0538930A30820C1C87
:10175000A40108E7040C850E10F50A184D0224BFF9
:101760000D50900E5602062DC00023000005C0004B
:101770003D0000170000257C0E1200001100002D16
:10178000F10A326B045404033E00004DC1063C00D4
:101790000015BD050A00002100001DC00035DA0358
:1017A00004020E11560914680C31730B384B0C3CB3
:1017B0004C0C48FB0D4DED0A5056015F000065458D
:1017C0000B12000009E4074200004DC0003A00007F
:1017D0003157063AC000157D004E000015FD0D0E74
:1017E000F70018140208F30B0C530810D80814C0A3
:1017F0000C1CE10B408D0B4C8D06504A0060AD0D6A
:101800006A00003DBD050A000614CF00249F005069
:10181000460057280A1B000065930A0A00004DD8AD
:101820000D08BD05358201430000254D0704130A4C
:1018300016C0005500004D00000D00005DA80524F5
:101840008D0B1C000059400C30840A343404381CC1
:1018500003402F0A4BDA0108C0004C96051C3A06DB
:101860000CBA0724F40C2CAA0C303B0D504F0D562B
:10187000000015000E0AC90A06000051BD0530B867
:10188000063E4A005800001900004B00004D7F0B37
:10189000165D0104910314990924760E3041013C30
:1018A0001C0654AF035EC00015000067F10A407DBE
:1018B0000058BD052CF10A305B034AC10D24BD055B
:1018C000424A0004490E144D0124D6063C6D0354CF
:1018D0007A006600000500003D00004D96070E00EE
:1018E0000015900926000039A5053E100604DA010E
:1018F000083D060CE901114904151C0318170331B2
:101900008A013858033C0B0E40450548B60A4CBCCA
:10191000026B000A4EBD051B00003900003D0000AF
:101920004DA906530000654600343406040D0D0C25
:101930009C0A107709149B001C8603315F09390249
:101940000248D90C4DD10B500E0E5ABB0834000082
:10195000330A04160000113B06088F0A18810C1C7C
:10196000F50B301A0B34DE043805033C4803403ACB
:101970000448B6034D1E0550E80B5417065CFB00E7
:1019800064CC0826610804C00026A60D3F0000654F
:10199000930A42E00534BD0512070B048B0214289C
:1019A0000C242E063C1E085600001DFC0350DB03D1
:1019B00034E307400000692A04304A001200006541
:1019C000A805144A003200001500004DBD0510980E
:1019D0000C5032060C670B1E00004D980C53000093
:1019E0001934094DA5053A00003517061059053080
:1019F000E00558F70C687D004D3E0C09990B0D036E
:101A000003144A0B1DAA0C2CFC0338170640F60AD7
:101A100048680E50FE0562000041E70A1C7A09186A
:101A2000DA0D1050040C7F0E30BA03341A093971E4
:101A30000248BC0C4E00004DC00016930A4EB70C75
:101A4000184A00349F0048590515C0000924083879
:101A5000930A2E00004DA806520000219009240090
:101A60000055960B08C000651706608D0B0C720BB5
:101A700010E50A1C8605300A063906063D770C4833
:101A8000C0004EC50226CE06149009265C0A4E0000
:101A9000002D980C320000618C0630A10304BE08B2
:101AA0000937000D630C10DE0115860E191B081D89
:101AB000FE0725C40228B90935AD02380F043CBE23
:101AC0000541C20D44260C48460C4D8A0951190C9B
:101AD0005859085C7D006B00003DAD0340000025B7
:101AE000590517A8065300004DE00521640E4A90E1
:101AF0000904900924BA0516000005C0001500006D
:101B00004F41020600004D00063AA80514FC030CE4
:101B10004A0048F40752020B2EF40330C0001FB0F5
:101B20000B1200003900001BC00040C0005900002B
:101B300069C20D448D070D850A10350014B1021DD0
:101B40000E05254E0D31810834670539710149FCB8
:101B5000034C1F0E5200003D46001C460038B602E2
:101B600004D80352B50226860417590514D8023E3C
:101B70004D073E00003900000FFB0C36500E1C4A8A
:101B80000042000051BD0530AA0C5AF10A1C0403A2
:101B90003C9B0D22000065CE07046E0616C00014A3
:101BA0005F0B085E040CEF0C10C301187A0A1C3698
:101BB0000320A40524AD082C1205300106346E0C58
:101BC0003897053CD509400104485E0C4CA70650E7
:101BD0008A0554790058BA0C5C800E6200001572B8
:101BE0000E32A805145905386D034A1B091759010F
:101BF000160000110000515B03305905260000114A
:101C0000000039E005586707081D084E00002DC088
:101C10000052990D100000250000175E06306A0B77
:101C20003EAA0C048E0414AA0C56E9090A000019F5
:101C30004A003900000B6F06048C0A141E0D24CCD8
:101C4000043CC404566108144A0052580306930A1F
:101C50003EBD05105B03320000056F0414B30D2672
:101C600000004D7006240006145D0A537D000E002E
:101C70000021AE082E4A001400080470053E000042
:101C800051C00009C0004E000051000035FD0D1E7E
:101C9000DD0C04190A143D05202E0E241B0B3CA953
:101CA00004482A0954D1085C140A6600000590090A
:101CB00024460009980C36000025C00005C0003BF2
:101CC000FB003BA805146A0B56050B50DB030448C8
:101CD0000E1446001DF90330C60638380448140BAC
:101CE0006200004D040E05460009EF0A10B70D14FE
:101CF00046001837081C890624770630610634D858
:101D0000023CC00051B806564A0030E00558270C86
:101D100050E0055CC00011C70254AD0B1C880525BE
:101D2000000029450334560D38470340BC0548BC24
:101D30000268E0052C00002100004F00004D370430
:101D400030A8050600000500003D46000E00004DCD
:101D5000C10D2400000559051657094A0000499491
:101D6000000EC00051000041C00025E70A1C6D03B1
:101D700039F00A08BF030C000E30350737990014FC
:101D80008D0B224A0050CE0724020A0472051087E8
:101D900007317E0C38EE0C3C4A0041560448E404FE
:101DA0004CBB000E460038FC035080063CC0000FC0
:101DB00000000500004D900916900924920A400089
:101DC000001500003D00004FE4074094000C73062E
:101DD0003A000015000049E00536E00540590D1CA9
:101DE000160D542A045E740A2CC000130000518D95
:101DF0000B68000656E10530110216000031C000E4
:101E00001300001500004DBD0510830D38FB005276
:101E1000870A2F870D04E80414BD0D20CC01248E01
:101E20000530EF0B389F023C360C48030A5413016F
:101E30005CE30B6600005100004900001DE4074010
:101E4000660E3BFC030C930A3AF10A407D0058E011
:101E50000568BD051A0000150000418E0A18170616
:101E60002C1706581706603C0C0C30071047001C56
:101E7000F90D24A80830470539CE075D0000510050
:101E8000000B000015AC073EC10D249900169C0004
:101E90003EBD053400003B00005D43023A00006592
:101EA0004A000CF10A327D003EA80514E0052E0020
:101EB000004DFC030C17062CC00009C10D04890459
:101EC000108A0714270C1C980A308C0C34290A3904
:101ED000470940E60348920B5200003DDB03320005
:101EE000001500004D4A00349009483C0509EA02FB
:101EF000196A0824610638C90A40460053C0001513
:101F00004A004F8D0B36F10A58BD0542FB00149074
:101F1000090400004F46002C0006483B0D50A80560
:101F2000243F0C048802100E0B14CF0830B8043A7A
:101F3000C10D2490093C900905000055900948F115
:101F40000A2CF70C68890350E8050D4907107B003F
:101F50001804071C8A0A307F0534470238940C4065
:101F6000FB004F0000050B041500004DC10D2600BD
:101F700000254A0050000031800B3FC00416930A30
:101F80001500006500004F000041990D360000313A
:101F900000005F00003D490E24C40D4A590514900D
:101FA00009244A0032000065590D1E0000210E0C64
:101FB0000413020893060C5101108E0A1851011CDB
:101FC000390831C00035D50038630648010A4DA6EE
:101FD0000552000015D8023EC00051000041C0006B
:101FE00013000049C000538901447D004EF90D04DF
:101FF000F70C68C00059AA0C105805241D0931EAD5
:102000000334AB0038AC00483B034CD80C52900969
:102010002400002D000041BB0238960948460012FA
:10202000900924A805154A00383E064ABB0226F747
:10203000001875060D9D02115501144A041D030177
:1020400031120C38460040370D48560851BD055D29
:10205000810E6090092400004FEE034C4A001600E8
:10206000006500004D930A2C1D021D00003D930ADF
:102070001600004DC000567D004C0000116D033A63
:102080006B0D04D90B083C030CB70B10D900148559
:102090000C1865091C630020510B24ED05280C0762
:1020A0002C8F0730DF0234400E3893083C5D05402A
:1020B000C10C44550A4822024CE408506D0054A556
:1020C0000058E5065C760260610A6458026A000006
:1020D0001DF40A3F330014C20624C9043C060B5405
:1020E000930A060C09043B0814580620CA0A2493D4
:1020F000013CC20B548F0066670406000015C00047
:102100003C00004D4A0032DC0604590414AA0124A4
:10211000550630990C3C140D54E1075E0000050093
:1021200000254A005000003F270C34000031000019
:1021300009C0002D930A3B000065590514C10D2606
:10214000A80514930A324A0038C00A040E0614E89F
:102150000A4A4A0014E00530B80606E0051C4600AD
:102160004C000009B70A24C00054C00011460014F6
:10217000BD0543AA0C1CB806560000654A00241190
:102180000216000065C10D27A50514700606820C15
:102190001B37081BCE0749CE0732F80D1400006725
:1021A0000000150000654A002437080A00003DC001
:1021B00000534A0048C0003B000055590504BD05C6
:1021C00012000015000065BD051C4A002600002114
:1021D00090092452011C8F0204AE000DD90D1098F5
:1021E0000714A9072C090D305002383F0140CA00DE
:1021F00048FB0A4DA80D50280A5EBD0534820C101C
:10220000990D095F061A7D002000000FFB0030CEFB
:102210000714FB0050370D24380309AA0D3CFC03BA
:1022200041860449C0004FF20A05AA0C085905145A
:10223000DD0928C0003D4A006500004F8B0B2400DB
:1022400000574A0050CE0714A5050C720B10C000B1
:1022500019AA0C580E0C058D081C160730AA0B3451
:10226000840639CD0C3C0A0E4033094EBD05100BD7
:102270000415C9050D3F0430C00034F80C39AD0019
:1022800040CD044C7A0150460066FA0A424A0030BA
:10229000580116000065AA0C24F10A1EC000154A58
:1022A0000026A8053F000015AC0006000021820CA6
:1022B00050CE073E4A0004CE0616640E0C46002C93
:1022C000FC034F080D2446004A7D0036EE034CC047
:1022D000002FCE0614C0003F4A002CCE070467072B
:1022E00008590D1C75093A9009244A0030CE06168B
:1022F000000035BD0552C0001C94000C94003A59F2
:102300000514A5050EFC034D00003590093E0000A4
:102310004900004D000031E00540F10A100000398D
:10232000000051C10D26850E04460052000041DB1D
:1023300003141C030A930A08020E1152011D100017
:102340000C650718740E240B012C9C0630360D38D2
:10235000040B3C510840FB0B4997064CAF0C5075E1
:10236000045600003D4A000A0000519F0048430205
:1023700038900917E20B42490E14910A04980C2474
:10238000A80C3CC80048FC0956F305160000515B38
:102390000342000019C10D24000614E005300006B8
:1023A0004C860558000039000049FC030E24003714
:1023B0005905141C0732F70024FB006A00000504CD
:1023C000033C00004D2A0426000015000065FC03B4
:1023D0000CE00558E0055F980C2C7A0150860B0440
:1023E0002B070C530610FB0618790B1CAC0330D3DB
:1023F0000B341E073892023CBC0048190D4C5F0894
:102400006AC00015CE073CC000050006258C062AD0
:10241000000025C00015BD055200003D4A00166DA4
:10242000031C000043990D1C0006220000054A0011
:102430000CC000250006164A0058E0051200003DB9
:10244000BD05106F0152000005270C34C10D268315
:10245000011DC90A324A00504A005A8F081C980CC4
:102460002C4A001200004DC0004A00005D00002D03
:10247000D80214B5054A3E0C36280904DB043C108A
:1024800006568D0B5400061A420204000027000075
:102490001100004DBD052CE0056B00004D0000153E
:1024A000000057000055BD050A00003DA8051700B3
:1024B000001500004DC0002EC000210006384A0063
:1024C00034FC0351B609040C0E0C9C0D107F0E1445
:1024D000A104247E0430480341BD0248F30C5A8213
:1024E0000D42000065F10A34CE0617000025930A5C
:1024F0001FCE06140000651C0732C10D24E005380C
:10250000000051A80516BD0533030C044006146AEB
:102510000D20C60D24370828210D3C6204484B00CD
:102520005412015CC00166110217930A30100614A0
:102530003907080D0E0C280510850D18BA001CFC73
:10254000032C360734A80638280A407A014CFB03CE
:1025500052FC0306C50116C20104AB073EB80604CF
:10256000A00324370B42820C10850814320026ED9C
:102570000904C00714C00324C40530D0073CAD05CE
:1025800048ED0654ED0C66000005F10A42000041DA
:10259000990D38BB084AC10D241102169B0D3890C5
:1025A00009484A004C980C528206148C0630820C62
:1025B000523C0406000015020B52A50514BD052E61
:1025C000F4071200000500001500003D000031195D
:1025D0000212C0005E000025C0003D000065000042
:1025E0000DFB004DCB0C494A005346002200002150
:1025F00000002D000041960B08FB0010FB001D0F92
:102600000134020739970948E3065CF70C680000BB
:102610004D000033000015F10A3A90093CBD051049
:10262000000614FC030CE005504A001C970B3A907E
:102630000E1600004D4A0024560636980C506006CF
:10264000347A014055084E000025BD0534C00043D2
:10265000000015C40D326D0324900906000051E4FA
:1026600007409A0B0DC0004972063A67023B000012
:10267000394A00506C0B1EC000551B0905E00514BB
:10268000190E25CE0766000049B308043C0D14EC72
:10269000072452093C0C06561C032F4A0068000010
:1026A0000B000031BD055A00000DB8065400064E5F
:1026B000000015E005260000214A0016C0003D7705
:1026C0000520C90A48C00057A80514000031FA0CBB
:1026D0003400000D00002F0000654A003200005554
:1026E000BD0548BD055AC000158D0B10000624BD60
:1026F000053A00003DC10D240000415A0532C000DA
:102700001546004CA80504E0052683011A930A48E3
:10271000590515590524E005113E0C56BD0510B7A5
:102720000A24F0033300004D8D0B38980C4AC0008A
:102730003D00004D8C060C8E09320000057D002006
:10274000820C2E000624C40C3E000005BD0510E0DE
:10275000052C4A003480060B00002DCC034A4A00A9
:102760004CCC083C5D0352AD031C4A0032B9084C06
:1027700090094ACE05042A0114AD0724E707302743
:10278000083C9F0748B90656E005345F0608DB039E
:1027900042000005C10D244A0014CE073C17063B39
:1027A000BD054000006500061659051490093E005D
:1027B0000035590539FC031CA5050CC00009FC03B4
:1027C00011800B544A005DBD052F00003500001933
:1027D000000065CA0114000051160D3A4D074AE089
:1027E0000509C00017C000512A043000064C7609C4
:1027F0003AE00550A80514C10D2600003100004D37
:10280000CE07064A0030AD0352C0001ABD0540D8BD
:102810000D360000512C0626BD052290090400004B
:1028200065000015E0051EC00024620E04C90656AE
:1028300000063200001500004DC0001D860439B4AA
:10284000093CBF045600004D59052646002A0000E9
:1028500005E005520000099F0048770134590D102A
:10286000000015F7001A3E0C043E0C26190752AA68
:1028700006160000056D033A6E060E46002C000099
:102880003500003D90092400005DB70940C0004DAF
:10289000000029950B08C1000CCE0715AD0430537C
:1028A00001384E0448F00B51760B6200004DCE0704
:1028B0004A00000500004DCE0764410C2446001676
:1028C000000065200216BD053B820C6A00004D9396
:1028D0000A3A900904900916000021820C1EB405E2
:1028E0000CC0001DAA0C384A00485A0D4D9B0A3EE8
:1028F0004A0005E0050C0B0B25F0033800006300CF
:1029000000198C0634000015BD0552980C2F4309A0
:1029100026000011000039C10D24000021BD054230
:1029200000002D4A0030FC030E00004DCC0856007C
:102930000035460008AF034E00003190091E00002C
:10294000514A003471063A00002100064C940A08EE
:10295000F30B0DDA0D104605149F0A1C6A0031179F
:102960000635B60538B20A3C4F0949890350E108DB
:102970005427015DFB0C64C50D68000A2600003574
:10298000000614E40A320000654A003AFD0D0C59B5
:1029900005151C0720F10A52C00015FB001CE005BC
:1029A0006600004D540A109009070000156C0B1EBC
:1029B000000065C0002194000C940038240036000B
:1029C000000500001DFD0D0CE0052CBD053A0000C2
:1029D0004DAA0C32B30052CE07335905156A0B3C91
:1029E000E0056400006B0000254A000CE0052C9314
:1029F0000A1E000051FB000EBA010A990D2CE005D9
:102A00003A36080A00004D4A00084A0040720B108E
:102A1000FD0C1C0B0D50140234D0063974064A9379
:102A20000A5E7C0C06160B0C2D0410E50414F7004E
:102A300018B2011CC60404C10A08230920D30424C7
:102A4000080E28280A2CFF0830310C344903383886
:102A500002403C004838084C950650B200542D07FF
:102A6000588F0C5CAA0560250A66F90D16C0002572
:102A70000006170D041BA8053ECE073CFC030C66A0
:102A80000708040611A50D1593051CBD0830ED08B7
:102A900035E702399D07406B0C49440251400B5405
:102AA000EB0A58F30B5C170668020A4EFB003C4A1F
:102AB00000266D0338930A52A80514820C10CF0724
:102AC0001E59051400006500004DDB0310BD0332E4
:102AD00000003500001100003900004FA80514580F
:102AE0000052990D2FC00012F00348B80606570691
:102AF0000A00001DA5053C6707089B0D52A8051498
:102B00004A000C160D5178004A000015000019000B
:102B1000000F000005820C50CE073FAA0C14580984
:102B200004C0002790093C6D033A37085600006541
:102B3000D8023FF40D26E70A1C14020864090C4869
:102B40000710560114F70019E60B2CD00830E903E2
:102B5000340E0038380B40360048E3044D860451EB
:102B6000DE025AC10D25FB0C12900904CE0716C0D7
:102B70000014820C12000005FB00320000154A0010
:102B800050CC085600003DC0002100005D4A002CDA
:102B9000A80504170668FD0C1C3B034CF20B0CA4A3
:102BA0000D15240C30FA0234F90A38B70941AC0D7E
:102BB00048A60C54DF05581706641C0312B90822F6
:102BC000A805146D033A00005100006500001100D3
:102BD000003900004BC00005EE034C930A22FC03B1
:102BE0000C9009390000154A003200004D820C1289
:102BF00000001500004959053B0000390000254A36
:102C00000016D50C3C820C42A80650820C2F3600D0
:102C10001600004DC000254A00108C0634A20108A1
:102C2000F5050C8F01185B0830FB0C40C3024A000D
:102C300000050000154A000C46001C4A003B170620
:102C40001800005100004F00004DF10A2CE6043A34
:102C50000000050000158508248408320000198250
:102C60000C08F10A34BD0542F30740D50C3E90092B
:102C70000400004D000061000069B30C0D1300104A
:102C8000F30D1CD709316808382C0E4080044862C7
:102C9000085090096698003E000025000037C10DDD
:102CA00024BD0552FC03507E0004010014B10A1C2F
:102CB0005407244A053C940254150266C00041465C
:102CC000003A5905141C033A00000500002D59056F
:102CD00015DE094BC0002217065C720C0CBA0810F6
:102CE0003F0914E9021917061CCA012417062C15FE
:102CF0000031350234B20B38120D406C0A484500E1
:102D00004C520750CE07541706583C050AA8051523
:102D1000000005000027A80514930A3A000021C10D
:102D20000D26000051000041FC031CDF094B000090
:102D30002500002DC00011C0003ED7023CC0000796
:102D40000000514A0032A00306C10D2483015299AC
:102D50000D2C930A08C000195905144A0026370D96
:102D600024BD0532B00314E00552B70A24A10C3883
:102D70008F093C8D0B4A00005100004D930A4A59BF
:102D80000514C0005600004DD8023CC000070000EA
:102D9000157C0E2C4A004A340A020000000283050A
:102DA0003811021CBD044C0A0053000031000041E0
:102DB0005904143D000EE0005100004D00001700C2
:102DC000000973050CF60241F70904BA06107C03EA
:102DD00030240835C203381F043D9E08485F054C67
:102DE000910750A80754BE065827095F00006500E8
:102DF000005100005D9505309D010C000061F0055B
:102E000011AA0718F0031C5505245E082C30013464
:102E1000F30139F600419C08483C004C980656489E
:102E2000005100004D5904164800145C054E000086
:102E3000218701529D014C000065480017130504CD
:102E4000AE0014E8072486003C5A0455AD0167D74C
:102E5000024D0000234800399806249308234005BA
:102E600004430814B5042422063CF00254D4096734
:102E700036021500004F000035F602110000314700
:102E8000054B9D01481802240000174800653D00CD
:102E90004C5F0914400130730539000035000053C0
:102EA0009D011D00001500002F0000511C0814D7C3
:102EB000054A830538000033000025000017590437
:102EC0001400004D9D012600001D00003573053AD9
:102ED0001B0004A909143409240C003C750954BCD6
:102EE00005663D000C9D0158E6074919064C59033B
:102EF00053A608046801142702241D063CD2095475
:102F00005B096728036A00006500005D0000414816
:102F1000003511020CD2074A000065CF05060000FB
:102F2000650000410F081600003D9D013200005D64
:102F300048004C73050C59043CC5074300001100C0
:102F4000003148002D00001B0000155C0548A50855
:102F50001E00006500003D990214970826630115C4
:102F60009D014800004148004C480065980624E354
:102F700001180F085D3E041C2708300A0035CD03F8
:102F8000392B053D470051480256000041480011C9
:102F90003B022F00001100003900002D0000199D98
:102FA00001580F084A00005D000061C806150000C6
:102FB00011000007B409114800179D012C98065C08
:102FC000CF0557CF05049806326C0211310114BDAC
:102FD000053C4204488108520000490000157C0766
:102FE0001A1802241C081600001100003D480017A2
:102FF0000000519D014E59030EDA0732A506240048
:10300000004D00001F48004C510105480009D8053B
:103010000C2503105D00242406304D04340C0238C6
:1030200072083D4307482D0451F303543E055DAD3E
:10303000016148006500001D0000430F083CCF05FA
:10304000170000119D0158CD0809D3010C9D0118EE
:103050005C051CF6022C0303309D0135D60639F6BB
:1030600002410A00496F054C9B085107035447076A
:103070005D2F0567F6021C21062448003B470742E6
:103080004009114F061400003FAD016158030929A2
:1030900001147E091DC40330990339BF0349890611
:1030A0004C69045300004D000051480011480033A2
:1030B00049011600001D00005D48005173050CBD5C
:1030C000043A00002D3D000C5C054B00004D000053
:1030D0002D000049000053000065000031F5040A8E
:1030E00000005183053E0000510000618301059DF1
:1030F000051512021C840430D907387B0748A40345
:10310000582D005F00001D00003900000B48005DD5
:103110009D010981054E00001959043A48002DE32C
:103120000721480041E2084FA506264800053E0455
:1031300036000051980604590311830526400943BF
:103140003C071C6F091759041400001159043A4830
:103150000014BD04244707084800570000413D0003
:103160000C4705335C052DCE0117CF051500005126
:103170009D011E2C003B00004DBD044A00001100C3
:103180000039000019280350E1010ABD043900008C
:103190004D00004B00001D48001548002F4F030450
:1031A000DD09146F0124B5073E00003500002D3DF8
:1031B000000C98062600004D0000332D002FE10181
:1031C0001D00005100001100004FDC0804500115E3
:1031D00098062600005D48004C7305041E05149DEA
:1031E0000142CF0504BD04560000359D0130480062
:1031F000150000059D01089D0138590340B4004C9D
:103200002A081CAD012C8701629D014C00001100B1
:1032100000490000510000433D000C5903500000DC
:103220004DCF051700004D480031480037BD04243C
:103230000F08163B072F000011000051480041D82D
:10324000050C48006500006148005DA80154AB030F
:103250001D8502307C04348F093880054C2B085AB8
:1032600000001D9D010E180224000005BD043E2C27
:10327000073C000017D003045A0014230124CD0694
:103280003C06065600001100004D590414000019B8
:103290005C05333E043A00004D9D011E31014AA2F7
:1032A00003401802262F01528305384800410000D0
:1032B0001D00005300001D00005DB2070D0000510D
:1032C00000000B000051240615DA0626000011004C
:1032D0000039480015980604E3010842084A000036
:1032E0004D00001D73050CBC033700001D73050C59
:1032F0005304092B0834A408384B014AD409148616
:1033000002265C05480000110000670000499D018D
:103310001C9D01179D0120F0035200003500005153
:1033200000004173050C00001183053A0000159D53
:103330000152CF0514A508359D016AE10110000076
:103340003FA2080400005790073E000049480011C2
:103350002D003500004D590343F70204EC07149289
:103360000020FD04244E043C2605485F0956000059
:10337000119D011E000065E1011C5C05304800053F
:1033800059033800004D000015CF053E0000515C88
:10339000054A00001500001948005300004148008C
:1033A000519D016873050C4A0710BD04180E0314E3
:1033B0003E001C7D0530150939AB0349D702634730
:1033C0000711E1011C59041500002F0F083CBD0432
:1033D000229D0156950804950724A1083CF4055642
:1033E000D8050C83053A00006500004148001D9D8A
:1033F000012C48005D61030C5C05116F092459051F
:103400003859044893084CDB01503E0458F60268D2
:103410009D013400000B00004D000009CF05155C34
:10342000085800005100003300004D4800161C08E9
:103430003C00004D000043000041ED02150000116A
:10344000000037C30348C303580000155C0532036E
:103450000A048106143E09240E033C640054C20091
:103460006700004D00003900005D3D000494073006
:10347000F003530000490000513D001E0000110000
:10348000004D1802240000310000410000490000F6
:103490003900002D9D015A00004D59031ECB09141F
:1034A0002503320F03041407141909209E042496DF
:1034B000003C410048C5015422095CAC0166590337
:1034C00020C20417480004480015AF052445053103
:1034D00012093C000041E10152480015D70223EFD8
:1034E000023C00004DC304167E0704140414460871
:1034F0002493043C0D0654130A660F082448004127
:103500004800519D01589D0110530504CB0609C088
:10351000060CD7071D860638F4093D580548700685
:103520004C580454B3095F2B003E48001548005323
:1035300000005DD8050E0000110000659D01509D42
:1035400001300000099D010C9D0168BD0418D509DA
:10355000359701380E024848005F9D01480000156C
:103560009D0135CF052400006500003B00004900A7
:10357000001900001100003100003BCF0504E202F9
:1035800018E10148000053D6024F3D0814B800244A
:10359000B6063D59036700004D590415000065004B
:1035A000002D3D000E00006559041600003D3E044C
:1035B00014C30266000015C3032E3D000C00004D2D
:1035C0000000230F0814980604470751E40926F069
:1035D0000304630115DB0420D901244A07389D0147
:1035E000480000519D01363A0104D609144C0424C8
:1035F00026013C4209568901048B090C1901143338
:1036000007200002241B062C4809301302387306D9
:103610003C200840AF0650AD0454CD095E66060458
:10362000480016850804260614EF0320C904245A0E
:103630000330F9063CBE0548F0034CAD0354E509E0
:103640006681091686024C48001DBD0418C104306D
:10365000A90704C30234540239980348B0055AE15B
:10366000014800003727081500005F5904159D0127
:103670000CBD044E2A01140F083E8701505904174F
:1036800000004D000065CB0611F6022C000061C160
:103690000430F60258F6021D4C033886094B000030
:1036A0004D0F083E00003500003148001B00002D82
:1036B00011021E000051D305240A0031EF023E0022
:1036C000001D9B08399D015A00001100001D0000DB
:1036D0000959035073050CF602419D012C980624EC
:1036E000940530EA0639FB0149910655F003630061
:1036F000004D00005100004159041461002D590390
:1037000033000011480051BC063100006559041710
:103710009D01489D01320000310000419D0158008B
:1037200000110000490000370000110000390000BE
:10373000414800199D014F00000900004D9D0132D4
:10374000000011000051000041980630BD04187CB3
:1037500007145C053559043B000011000041480086
:10376000099D012C44010C620115F1031DC10430B7
:103770003A0235CA063945014899015AE1011C004F
:10378000001500005100002F0F08246304309D0134
:103790003B00005D00001973051482084A000019FF
:1037A00073054A9D0148CF05160000657B0414404F
:1037B000092462063CC1015600006585052400000D
:1037C0001548002F9D010C590338CD01150000113B
:1037D00000001D00002F00001D0000519806300061
:1037E00000094D0434F6022C480039BA0310C80011
:1037F0004A180224480017CF051548002D48003B01
:103800007A0104520314A10625EA073C3805560044
:103810000015470711480053A20532000049000077
:1038200031000041470711B1055A00006500005101
:10383000D8050C660904340309F706113F0418483B
:10384000001DCE07249D012CA50330670434A90276
:10385000391C033DF6064174034844095414015FC2
:103860005C054847053300001100004D5904153D23
:10387000000C2F072600005100002D00001D3D0008
:103880000E180224000043910816000011000015D4
:10389000000051CF053C00000700002100004D480A
:1038A000001700004D00001D4800410000097C0782
:1038B000189D012C61030CBA0430610434AB023949
:1038C000D00148BD045178006A4800159D011E00D2
:1038D000004D000015000043180224000015BD042F
:1038E0004FC3032D5C051618022400001548003153
:1038F0003D0052E5062211021C590438000049001F
:10390000003300004D00001D00001700006500009E
:103910001D0000490000359D011098062437050957
:10392000DD040E0000510B0331B4073EBC020CF75E
:103930000010A0021848071C1A0520490024390766
:10394000082A092C630230FB09347A0838500640F3
:10395000B205482B014C9C01500603545306587283
:10396000075C720360B40066AB010400002700002E
:103970004DBD042600005198013A00001148004C4A
:1039800060010C0E0830660339F5025383053800D8
:10399000001D9D0150000009480065F60241F7092D
:1039A000240F09319906344D04482F004D57045413
:1039B00073055E3B0243890204F208143F0324BCF2
:1039C000083C3C0248E70954CF095CCB08664A072B
:1039D0001EE202289D013E00004D000065570410C4
:1039E0008003048308141C08248B043032023598A9
:1039F000013976074922045F0000110000490000E8
:103A00005100004D000039590416C104160000652C
:103A10000000315C0548CF053E87011018022400E4
:103A2000001700004D280352480004350309CB0657
:103A30001155021DDD052C5D0530610139FB04487F
:103A40007F015328030C0F08060000510B0348CFD9
:103A500005179D0714000007DA051A05061C59040E
:103A60004AB9003EDE0004BB0114AF01248F043EBE
:103A7000000015E101509D010C5C0530DA0826BDFF
:103A8000043800000B00001500005D7C0730A30126
:103A90003D57054A00004D00001500000700003D9D
:103AA0009D011E5C084C00001300004D7C0718733C
:103AB000053A0000053D000C2F0120DC08560000EF
:103AC000054800430000159D0158C303320000392A
:103AD00000001500000B00004D47075200004D008C
:103AE000001D00005148001559033A00001D480010
:103AF0004C240638BD0418A800040D011448002504
:103B0000260934FC085125045859045C5704130055
:103B100000153E040A9D014C00003500002D0B03EA
:103B200008590310D7025848003100001BEF023C2F
:103B30000C0305610514D00524ED0556000011475E
:103B40000741E101313C0737F70638ED023F00003D
:103B50004DF4020A00005100000948001D5E015D9D
:103B6000B6090CC304155B0830430138D8093CF78B
:103B70000641AD06569D01480000417C0718C3046C
:103B800015DD040C2B04345C081010021C5F002CA3
:103B900096093000063935035300004DED02142913
:103BA000080EBD0424900939C1060C4800104706D0
:103BB0001573053079073538024A00003D9D0150E4
:103BC0009806309D01089D0143470731480043B1E5
:103BD00001540000536F09155903420000254800A5
:103BE0003300004D00001100004B5C051A00006519
:103BF00018022400001779080C48001D9D012C5C58
:103C00000551C30415290530950734C50639D40775
:103C10004300006500004159031C59033900004965
:103C20005C05321802245C052CF5003C630115008C
:103C300000673C072F330604030914FA00243600FA
:103C40003066073CA50248A4055600001500002375
:103C500000006500001D7C07183D060888010CA9BE
:103C60000111CA0024D40530E801359E0339D2047D
:103C70004888064D0900510E09685C053E9D010803
:103C800059034300004D0000350000390000113D8C
:103C9000005200001D79080CF602409507343701E8
:103CA00010C90914220330630339F606486A024C2E
:103CB000B50251A0066AFB03048A0714840220E3BC
:103CC0000224C40230E201381D073CDD08485000E0
:103CD00054EC026600006500005D48002D000009FC
:103CE00073050C90093973054E000025ED0216008E
:103CF000001559033100001100002F47052F18024D
:103D0000244D0404620514B3013CBF005600006555
:103D1000F305140100265904150B0333000031008C
:103D2000002D0000394800533904360000350000EA
:103D300019480051BD044C62002F4707120000656E
:103D400059030A00001D0000090F084800003573E0
:103D5000050C73053A000031980616000065000056
:103D60003569083A62021CBD04265C0514A2083CB1
:103D700000004D000067480031480051480009002C
:103D800000613D001C59080C980114480035CC080E
:103D9000384B074300001100001900003500003BBC
:103DA0000000350000390000110000170F08040062
:103DB000006700001547073300004D3B0253DF0149
:103DC0001400001100005FFC08504207103B021C69
:103DD000C900303705345F0838F30240F30048610A
:103DE000024E48002D3D000E4800150000214800FD
:103DF0002F28031C00002F00001D0F08240F0804AB
:103E00009D01405E015F000049000051000031004B
:103E1000002F00005148002D4800330000215C05B0
:103E20004F47071100001F480014980606E2021BC6
:103E3000480015950530D8050C9D01409D01115C89
:103E4000054C2C030429090930053CF801514902AD
:103E5000546202586D025F00000D0000150000332F
:103E600019020470041499092475023C6A08544D1F
:103E7000006600004D0000490000394800112D0087
:103E80003500004100002F9D01349806140E09688A
:103E900050080C570410210330A60739260449D8CE
:103EA000064C8009520000390F081E1802240F0822
:103EB000170000512B0808B6020D3E0415480019E2
:103EC000F4021CB1002448002D2B08350B034AAE28
:103ED000014EF0032E590365ED0204810014DD014B
:103EE00024F6043DDB0856630115180224480041FE
:103EF0004800117C0718F602092D023029024932C8
:103F0000024C80015395075400004B9D0108730536
:103F10000C11021D7C071700002D0000093C07331F
:103F2000C3034C48002FB900249D011600004D5CCE
:103F3000081C180224CF0517000015F402269D0165
:103F4000484800659D01689E0339F6022C48005DD3
:103F5000B1055881011D9D01415F030C9D02248222
:103F600000359D015300005185051B000015ED0231
:103F70000648002E00003973050E0000499806140B
:103F800048001D9D01389D014048005D9D01115C68
:103F9000054C75033CDF05510F085600004D00002D
:103FA000510000650000159D011EBD04234800510D
:103FB000F6022C48001DBD044C1104103601347269
:103FC000053A6301150000510000217C07184800E4
:103FD00009BD044881011D7B05302B09356D05386D
:103FE000C1064ED702240000654800174800052F7F
:103FF000022700005D48004C73050C73053C9D01D1
:104000003A9806309D015800001100005300001D31
:1040100000005D0F083C48001173050C1001054BB2
:104020000215BD0430890939BF04415A01494405CC
:1040300053E30812980630000061B8010C9D01118D
:104040001B0824CC00399D0149F60251A801542EC9
:10405000095828030A00004D00006500003D0000DB
:10406000174800150F083C00002D4800263C072E7D
:1040700000004D9D01130000395C054A00006500F9
:10408000001DE50714E00138BD0442630115180264
:1040900024000053CF05145904260000359D01303B
:1040A000BD043C0E0950910409E5040CDB0511FD2B
:1040B0000118BB071D660338BE0441CC084C1A0822
:1040C0005A00001100005100005D000041480067E7
:1040D0000000650B034A2803044B0614390420F53D
:1040E0000324070A30130838F0033E00005148004B
:1040F00015E3074F0000119D01344800414800516D
:10410000480009D8050C4800651C0804C40030CBE1
:1041100000392D053C3A0448CB03540F085F0000DA
:104120001D00005D48004CC3040669083B00001DEB
:10413000CF051763011400005100002348001598B3
:104140000630C800044A0710C40634BD043A000013
:104150005111021ECB015600001900005148004BBE
:10416000730538000033180224AA070A4A025700D0
:104170000005E1011C2D00494F06564104060000D0
:104180004D00003900004198063000000F00004D3E
:104190005C051E5D0904560314170224080A3C300E
:1041A00007563B024B67093E00006547071471093B
:1041B0002469083C6E014827075695070600001D34
:1041C00000003573050C0F085E980615C50426EF30
:1041D000023C9D01260000151209269806040000E5
:1041E0002148002F00002DA9071659041548001D6D
:1041F0005C052D00004D0000533E061D00004D598A
:10420000041700006500001D000009480051A707C1
:104210000C470515850620480124CC082E59030CAF
:10422000AE023863011500004F830538980606007A
:10423000005100005D0F083C73050C5904487C01D7
:10424000041208154A02260000115C0553000011F3
:10425000000015A8010440093800004D00001D00B1
:10426000002F00001D4800113608046B09150803D3
:10427000302406383C074886024CCA0953000065C2
:10428000180224590417000011000051E1011C48D4
:10429000002595073446060C550014A5082CDF07A9
:1042A000300B0A3805003D0A004158004833004CE5
:1042B000BD045600006500001D00000518060879C1
:1042C000080C510911F7062C950530E606396604ED
:1042D00049AA034C470753980630790505F8041599
:1042E00075073424063954064055054851074CBD1E
:1042F00004621802240F085C3D004C26080451019A
:10430000141709382F033D02064831005146015465
:1043100000001100000B9D01485C0539510114009B
:1043200000359806329806483D004E5904150000A5
:104330000973050E6301155903653B05042907241C
:1043400087023C0F0856C70054DC01049D0130BDB4
:10435000041648001598060400000948000D5B0586
:104360001C5903120000390B0348CF051795075459
:1043700059041600003D18022463011700004D285F
:10438000034211021C3D000C9801384800494707C0
:10439000530F083C6D0004C407084305109703142D
:1043A00086051840081C0703244A072C7E04303C6D
:1043B0000134BA00382F01409C0648A4024C5D0429
:1043C00050650158B4005C07016049076648001554
:1043D000980604000061590438A6061D1008300430
:1043E000013C4E0949C9035498065C000041000095
:1043F0000B590415170804480033840043000011CA
:104400000000150E095000004D00003F4006580006
:10441000001B83053B00001100001D000051D80562
:104420000C480065B00558CF0524E1073020093558
:104430008205383402483D004FCF050400003500A6
:104440000051000031730515AB0738ED024AE10158
:1044500050980615F402260B0331000043B40064A3
:10446000E10504AE0814B0022055062487053CE49B
:104470000856BD044B000065000009980624A706F5
:104480001D2B04349D014167064885055A00001123
:104490005C052F9D014CBD043A3E04269D01489DBC
:1044A000012400001500005300006500005DD107E5
:1044B0001600004D48002F5C053B00005DBD043038
:1044C00012021CDA0724440534DD055200004DCFEA
:1044D000053CBD0420590426F6026A000065000070
:1044E0003D00001500004148000B5C054208070430
:1044F000ED06142F0424210530CE003C860448E745
:1045000004549D016600003100001948003B000082
:104510005100001100003B00004D180224C3041795
:1045200000004D0F0826B4004C4800139D014C00BC
:1045300000659D011C00000B00001595076400003C
:104540003D0000330000654800165903410000316A
:1045500000003B83053811021C00004173050E9DCD
:1045600001480000510000099B0839A901115002BF
:1045700004A50015400424040132DB0304C6070827
:104580002D080C090410520714DE041809051C6FCD
:104590000220D208249E012869062C970530670066
:1045A00034530938B8093CD802409306449607486A
:1045B000C9024C580250640554560158EA015C6522
:1045C000086443046A40093100003B48002D0B0396
:1045D000302D0013BD0424F40504EE0214B6013E90
:1045E000DA074A000049CF05569506160000314803
:1045F000004B00004900000948003B0000650F081F
:104600002448000539011600004DA9071600005185
:104610000000110000335C0523980624CF053E57A7
:104620000306E200048B0614770320D00924A806B1
:104630003085033C720048C40554380466000049C4
:1046400000003500005100003900002D3D000C47EE
:1046500007130000519B0838DF01173C07482D0065
:104660001D48003F00001500002DBD040600003568
:10467000480051DD052C73050CC507412A0411972C
:104680000930F1013872034848004F47072EE10115
:1046900050AE060825090CBD0610E101189B011C4F
:1046A000AE022DB4093B00002DD604170B033000D9
:1046B0000065000017CE0517E10150BD0424B506C2
:1046C0000CD0081047071880094E790004420214E4
:1046D000B5003C8209565C053A9D01509806300EA3
:1046E0000248F6020820050CCB061DBB0434570017
:1046F0003A0000490000350000395904140000094F
:10470000480051BD044D47072F0000110000659877
:104710000604EF021482081CCB0651480056CF0550
:10472000145C054A000031480013000051000031BC
:104730000F082400005D590341F6020C350511F6FF
:10474000021CCE03392F094CF602583206659D0132
:104750004B00003100004D480053F2050CE3011AF4
:104760000000415C08385C0852E101483D000E0041
:10477000005159032D0000150B034A0000410000B1
:104780000900005100005F3F0538CF051700001DEC
:10479000000035000009D8050C9D013A00001D9865
:1047A000063098064A5C05302903046D0108790734
:1047B000118B0014E40118AE05242C0834320138A2
:1047C0003F05403807489A085048005926090E000E
:1047D000001DCB06519D015873050C56041041096C
:1047E00030F60234B30239ED023CF60240ED0248E5
:1047F000F6024D4A02540F085C3801681802245131
:10480000011700004D9806045C050A00003DCF0525
:1048100016D8040C5602107E0530080434510838AE
:1048200042064828034CAA0450F5003E9D01389DDD
:104830000112FD0804AF071437032474053C4D042E
:10484000564800145C050663011500001D48005120
:10485000360509A508107D0724D607303102356BCF
:104860000439EE084E0000154705510000210000F4
:104870002F48005D9B0204BC0408C3060CE501152B
:10488000170118C004300E0A343009399B01405911
:1048900003520F082448004C0000094800659D01A0
:1048A0005869083A000011AF052400005D120104A8
:1048B00084050C030115D803305904384906483ED5
:1048C0000450DA075400006B00004D00001501038E
:1048D0003383053800001724061600004D9D010C97
:1048E00000001548001F000065480024BD04049521
:1048F00002159B063CD9054883055600004DF90971
:104900003600003D140914AB0826000021CF0556DF
:10491000000039CF05160000150F082600004128B9
:10492000030859033418083ED7024E000065000002
:1049300051ED02249D014F0000119D0150AD016118
:10494000F60234B3020CC8031C1C0530600938F6AB
:104950000248E5064E000041C10430C304167F0042
:10496000315904150000530000413D000C3D001C6E
:10497000E5063A000065620514080104D50124A08B
:10498000083C68095600001148002D590335000005
:10499000159D011E9E0704DC0614490524F5053CFF
:1049A00069035600004D180224590416180224CF3A
:1049B000051600003500005D48004E180224000076
:1049C0005100002D4707119D010CC3041700003151
:1049D00000006300001D00004932023700004D0056
:1049E000004100001948005100004900003B8305C8
:1049F000380000499806305C053600001D4800115B
:104A00009505307C0718320235F0080CA00338F603
:104A1000024CAD075200004DBD0420E60956BD040E
:104A20000E00003500004173050C86024A00003577
:104A300000001500003900004D4800131D08042136
:104A40000614AD003C7F035600001500004D000029
:104A50002F00004D00003900001100005700001524
:104A6000000051480033CF05040000410F083C11FD
:104A7000021C4800115C053061030C3F05089209D7
:104A800015AD0718D6072CC007344B0338DB094C8B
:104A90002E04512B045AEF023CF602519D0204BB36
:104AA00002104D0314E406304006349409398F0097
:104AB00048B6024E5C053000004DCF051648005444
:104AC00048002F940604120408BB080CB30010EE33
:104AD000051827031CED022097062486013447049D
:104AE00038BF073CB802403D0748FC08504D07540A
:104AF0003D0458100A5C59043259035000004D001F
:104B00000007AD003C2E0724B900169B0838C604E8
:104B1000524D0434980614BD044E000041000015A7
:104B200000003B47072D4707110000190000510006
:104B30000043980604240638000061010A15E607C0
:104B400024DB0748E10153ED0256F402309D014A8F
:104B500000001D48003D000021980630480009F67D
:104B6000022CF602404D030CAB031192081570079E
:104B7000345301384D034E00004D00004146072DCF
:104B800000005100003B000065CF05165F09040FCF
:104B9000081442083418023C470741C80056000078
:104BA0004D48004B00001D9D012C48005D3E043720
:104BB000D80526000051000041D8050C0000110066
:104BC000006500001F00003DCF055659041547053C
:104BD0003158093B0F0834A50842F5070200D5F00B
:104BE0008D14A1C881CFD9F1AF2000080B000202BB
:104BF0000200000904000001020200000524001068
:104C00000105240101010424020605240600010710
:104C100005810310004009040100020A000000079A
:104C2000050202400000070583024000000403095A
:104C30000412010002EF020140412336800001010D
:104C400002030141726475696E6F204C4C43004150
:104C5000726475696E6F204C656F6E6172646F006F
:104C60006D2F11241FBECFEFDAE0DEBFCDBF11E004
:104C7000A0E0B1E0EEE8FEE602C005900D92A23F92
:104C8000B107D9F727E0A2EFB1E001C01D92A03B28
:104C9000B207E1F716E2C1E3D6E204C02197FE01B4
:104CA0000E942F37C033D107C9F70E94C62F0C943A
:104CB00045370C940000EF92FF920F931F93CF9310
:104CC000DF93DB0173E0B595A7957A95E1F7B6958B
:104CD000BA2FAA27B795A795A80FB91F6770FC012F
:104CE000E00FF11DE038F10514F000E8081B862FF5
:104CF00002C0220F331F6A95E2F7722FF22EF09452
:104D0000632FE32EE094AF5EBD4F30E010E0E32F61
:104D1000032E000CFF0BE017F107DCF4E40FF51F86
:104D2000E491F0E0082E02C0EE0FFF1F0A94E2F7B4
:104D30002D91ED0121972F21E7232E2B2883C05899
:104D4000DF4F28812E21E62FEF232E2B28833F5F74
:104D5000DECFDF91CF911F910F91FF90EF900895DB
:104D600080E0E1E1F2E081118FEF002481938193F3
:104D7000819381930394D1F708959091AB07982381
:104D800029F49091AA07982381E009F480E008951E
:104D9000FC0180911002882311F13FB7F89482E062
:104DA0008093E9002091F200822F90E018161906F6
:104DB00014F481E090E0882339F0289844E6409389
:104DC0000F024091F1004083222339F02091F2003C
:104DD000211103C02BE62093E8003FBF08958FEF19
:104DE0009FEF08952FB7F89483E08093E9009091A6
:104DF000E800892F807295FF04C09091F20080E452
:104E0000891B2FBF08958091070281110DC082E098
:104E10008093030284E080930402109206021092B1
:104E2000050281E08093070283E092E00895CF932A
:104E3000DF931F92CDB7DEB76983DC01ED91FC9162
:104E40000280F381E02D41E050E0BE016F5F7F4FB3
:104E500009950F90DF91CF91089583E08093E90049
:104E60008091F200882319F08AE38093E800089586
:104E70000E94F22690E00895CF93DF931F92CDB762
:104E8000DEB7FC018485958597FD08C02FEF3FEFC5
:104E9000358724870F90DF91CF910895CE01019639
:104EA0000E94C826019719F4898190E0F3CF8FEF13
:104EB0009FEFF0CF0F931F93CF93DF931F92CDB748
:104EC000DEB78C01FC018485958597FF0BC0CE0170
:104ED00001960E94C826019771F4898190E0F8013B
:104EE00095878487F801848595850F90DF91CF9110
:104EF0001F910F9108958FEF9FEFF1CFFC018485F3
:104F0000958597FD0BC09FB7F89482E08093E900E8
:104F10008091F2009FBF90E0019608959FB7F894AA
:104F200082E08093E9008091F2009FBF90E00895B5
:104F30004091FD015091FE012091FB013091FC0157
:104F400042175307B4F49091E8009570E1F3909103
:104F5000E80092FD19C08093F1008091FD019091CD
:104F6000FE0101968F739927892B19F48EEF809398
:104F7000E8008091FD019091FE0101969093FE0161
:104F80008093FD0181E0089580E00895EF92FF9203
:104F90000F931F93CF93DF93F82E192FE62E042F34
:104FA00081E0860F880F0E94982783E00E9498274F
:104FB000CF2DD12FEC0EFD2EF11CCE15DF05B9F053
:104FC00007FF13C0FE0184910E949827182F80E0EC
:104FD0000E949827812321968111EFCFDF91CF91F5
:104FE0001F910F91FF90EF9008958881EDCF81E0A0
:104FF000F5CFDF92EF92FF920F931F93CF93DF9342
:10500000D82E8A01EB017B01E40EF51ECE15DF05DB
:1050100059F0D7FE12C0FE0184910E949827219674
:105020008111F4CF0FEF1FEFC801DF91CF911F91D6
:105030000F91FF90EF90DF9008958881EECF0F934E
:105040001F93CF93DF931F92CDB7DEB782E08983A2
:1050500042E450E06BEE7BE480E80E94F9270E9476
:105060000327DC0112960D911C910115110589F0A1
:10507000D801ED91FC910280F381E02DBE016F5FBC
:105080007F4FC801099597FD04C0F801008511857F
:10509000ECCF89810F90DF91CF911F910F910895EF
:1050A000615030F02091F100FC0120830196F8CF8F
:1050B000289884E680930F0208953FB7F894809172
:1050C000F3019091F401A091F501B091F60126B59C
:1050D000A89B05C02F3F19F00196A11DB11D3FBF30
:1050E000BA2FA92F982F8827BC01CD01620F711DFF
:1050F000811D911D42E0660F771F881F991F4A95F9
:10510000D1F708958F929F92AF92BF92CF92DF9284
:10511000EF92FF926B017C010E945D284B015C01C4
:10512000C114D104E104F104B9F00E945D286819AA
:1051300079098A099B09683E73408105910580F3CE
:1051400021E0C21AD108E108F10888EE880E83E058
:10515000981EA11CB11CE4CFFF90EF90DF90CF9080
:10516000BF90AF909F908F90089565E070E080E0D1
:1051700090E00C9482288F929F92AF92BF92CF9230
:10518000DF92EF92FF920F931F93CF93DF936C0107
:105190007B018A0180910B01882309F45CC0809116
:1051A0001002882309F457C08091020280FF05C0D5
:1051B0008091E00082608093E000E801B12C8AEFEA
:1051C000A82E93E0892E2AE3922E209711F4BB207B
:1051D000D9F10E94F22681110AC0AA94AA20D9F11D
:1051E00061E070E080E090E00E948228EECF8C17B2
:1051F0001D0611F00CF08C2F9FB7F8948092E900F7
:105200002091E80025FD02C09FBFDFCF282F30E0AE
:10521000C21BD30BF701815020F041914093F10064
:10522000FACFE20EF31EBB2021F09092E800B12CE1
:10523000EBCF8091E80085FDE7CF9092E800BB249A
:10524000B394209709F3F3CF5D9884E6809301022D
:10525000101611063CF081E090E0F6019383828302
:1052600010E000E0C801DF91CF911F910F91FF90F6
:10527000EF90DF90CF90BF90AF909F908F90089568
:1052800080389105B8F460347105A0F420E191E014
:1052900061FD94E060FD990F62FD9295687F269F05
:1052A000D0011124A80FAF5EBD4F8C91442319F09B
:1052B000892B8C93089590958923FBCF0895EF92C5
:1052C000FF920F931F93CF93DF93FC01CB0177FFE6
:1052D00006C09195819591092DE22083319620E0B9
:1052E0000AE010E0422F50E0EF01C40FD51F0097F5
:1052F000E9F48A011595079580E0282F30E0201702
:105300003107E4F4BF01620F731FDB019C91DA01E6
:10531000A21BB30B11977D01EE0EFF1ED7012C913E
:10532000DB012C93D7019C938F5FE7CFB8010E94DC
:105330001B37805D88832F5FCB01D4CF1882CF01CC
:10534000DF91CF911F910F91FF90EF900895AF9251
:10535000BF92CF92DF92EF92FF920F931F93CF9362
:10536000DF937B015A016801E90115E085E0C80E71
:10537000D11C4991442381F04F714102A0011124B5
:10538000435A5E4F05E02FEF30E0B501C7010E94A0
:105390005B26EC0CFD1CEDCFDF91CF911F910F919F
:1053A000FF90EF90DF90CF90BF90AF900895CF9295
:1053B000DF92EF92FF920F931F93CF93DF93EB0156
:1053C0006A01790113E0F70141917F01442379F0EB
:1053D00040524102A001112444555F4F03E02FE3E6
:1053E00030E0B601CE010E945B262496ECCFDF911F
:1053F000CF911F910F91FF90EF90DF90CF90089584
:105400002F923F924F925F926F927F928F929F92D4
:10541000AF92BF92CF92DF92EF92FF920F931F93C2
:10542000CF93DF9300D000D000D0CDB7DEB78C0192
:105430007E836D8349015A01CB018E56994F1C0121
:10544000DC01AE5FBE4FBA83A983CB0101969C837A
:105450008B83E091A307F091A407E00FF11F459023
:10546000559065907490E62DE595E595E05CA981F1
:10547000BA81EC93F0E0E851FF4FA081B0E0A501C4
:1054800094010E94C3366B017C0160FE28C08091AC
:105490009C0790919D07019709F050C08D819E81D6
:1054A0000597E9F480919E0790919F07A091A0072E
:1054B000B091A1070197A109B10980939E0790932C
:1054C0009F07A093A007B093A107892B8A2B8B2B52
:1054D00031F464E977E082E996E00E943E37C20148
:1054E000009759F0F201EE0FFF1FA70196016B81A3
:1054F0007C818E0F9F1F0E94002A0D5F1F4F61FE4F
:10550000A8CFF101EE5FFE4F108226960FB6F894F9
:10551000DEBF0FBECDBFDF91CF911F910F91FF90E6
:10552000EF90DF90CF90BF90AF909F908F907F9043
:105530006F905F904F903F902F90089560919E07DD
:1055400070919F078091A0079091A107A7019601F4
:105550000E94D636672B682B692B09F6809192073B
:10556000909193079C012F5F3F4F309393072093B7
:10557000920733E0880F991F3A95E1F764E977E0E5
:105580008E56994FAACF8F929F92AF92BF92CF9291
:10559000DF92EF92FF92CF93DF93CBE0D0E086E0F3
:1055A000C82ED12CE12CF12C0E943636A701960191
:1055B0000E94A4364B010E943636A70196010E9434
:1055C000A436D401A358B94F2C91FB01E358F94FED
:1055D00080818C932083219739F7DF91CF91FF90C1
:1055E000EF90DF90CF90BF90AF909F908F900895F5
:1055F000CF92DF92EF92FF920F931F93CF93DF939F
:10560000809164008E7F8093640080917A00806432
:1056100080937A0080917A0086FDFCCFC09178005B
:10562000D09179000E945D28AB01BC01CE01B0E0B1
:10563000A0E0DC01992788278C019D01040F151F2C
:10564000261F371FC901B8012091640021602093F3
:105650006400611571058105910511F00E94853680
:1056600081E090E090939D0780939C0710929407AF
:10567000109295071092960710929707109298072C
:105680001092990710929A0710929B071092930715
:10569000109292078091A207882309F44FC00E94BC
:1056A00036362BEE30E040E050E00E94A4366F5FCB
:1056B0007F4F8F4F9F4F60939E0770939F078093FC
:1056C000A0079093A1078BE99DE29093A407809394
:1056D000A30721E030E040E050E070E060E08FEDB3
:1056E00097E10E94002A8091A207811110C084EEE8
:1056F00091E09093A4078093A30721E030E040E07D
:1057000050E070E060E08CE99EE10E94002AC2E96E
:10571000D6E0C12CD12C7601C394E991EE23A9F0F7
:105720000E2E000CFF0BE851FF4FA081B0E0A70147
:1057300096010E94C3366B017C01EFCF0E94363682
:1057400024E335E040E050E0B0CF62E976E08DE759
:1057500096E00E943E3710928F0610928E061092AD
:105760008D06109285060E94C32A82E090E09093F5
:105770009D0780939C0710929407109295071092B2
:105780009607109297071092980710929907109217
:105790009A0710929B071092930710929207C0925B
:1057A0009E07D0929F07E092A007F092A1078BE995
:1057B0009DE29093A4078093A30721E030E040E0AE
:1057C00050E070E060E08FED97E10E94002A809148
:1057D000A207811110C084EE91E09093A4078093FA
:1057E000A30721E030E040E050E070E060E08CE9A9
:1057F0009EE10E94002AF0909207FA941FEFF116A2
:1058000071F1C2E9D6E0E12CEF14BCF78E01085F1C
:105810001F4FFE0101900020E9F731978E2F8C1B5E
:10582000F80101900020E9F73197E01BE8175CF4DC
:10583000DE015096F801CE17DF0771F082919E913C
:1058400090838C93F8CF8E1307C0B801CE010E94CD
:1058500035371816190664F3E394E801D5CF109292
:1058600072061092710610927406109273061092CE
:105870007506109276068FE097E2909378068093F3
:105880007706DF91CF911F910F91FF90EF90DF90FE
:10589000CF900895FF920F931F93CF93DF93EC0166
:1058A0008B01FB01F0800E948E36F81621F06F2DDF
:1058B000CE010E949636F801F1802196CE010E9419
:1058C0008E36F81621F06F2DCE010E949636C80153
:1058D000DF91CF911F910F91FF9008950F931F9328
:1058E000CF93DF938C01EB010E948E368883C80131
:1058F00001960E948E368983CE01DF91CF911F9150
:105900000F9108951F920F920FB60F9211248F934B
:105910009F938091E1009091E100937F9093E1004B
:1059200083FF0FC01092E90091E09093EB0010927A
:10593000EC0092E39093ED001092100298E09093A7
:10594000F00082FF22C093E09093E9009091F20072
:10595000992319F09AE39093E8009091010299231A
:1059600041F090910102915090930102911101C078
:105970005D9A90910F02992341F090910F029150FE
:1059800090930F02911101C0289A84FF18C0809152
:10599000E2008E7E81608093E2008091E1008F7E44
:1059A0008093E100809102028E7E806180930202EA
:1059B0009F918F910F900FBE0F901F90189580FFB1
:1059C000F7CF8091E2008E7E80618093E20080912B
:1059D000E1008E7E8093E100809102028E7E8160E4
:1059E000E5CF1F920F920FB60F921124CF92DF9244
:1059F000EF92FF920F931F932F933F934F935F93D9
:105A00006F937F938F939F93AF93BF93EF93FF9386
:105A1000CF93DF93CDB7DEB76C97DEBFCDBF1092CB
:105A2000E9008091E80083FF25C068E0CE0145963B
:105A30000E94502882EF8093E8008D8987FF39C04B
:105A40009091E80090FFFCCF982F907609F034C138
:105A50009E894F89588D2F89F88C911131C08038DB
:105A600061F5809100028093F1001092F1008EEFB9
:105A70008093E8006C960FB6F894DEBF0FBECDBFE2
:105A8000DF91CF91FF91EF91BF91AF919F918F9156
:105A90007F916F915F914F913F912F911F910F9146
:105AA000FF90EF90DF90CF900F900FBE0F901F9060
:105AB00018959EEF9093E800C7CF1092F100D5CFD4
:105AC000913059F48111D3CF4130510581F6809145
:105AD00000028D7F80930002CACF933049F4811178
