:100000000C940D260C9435260C9435260C9435262C
:100010000C9435260C9435260C9435260C943526F4
:100020000C9435260C9435260C942D2C0C949C2C79
:100030000C9435260C9435260C9435260C943526D4
:100040000C9435260C9435260C9435260C943526C4
:100050000C9435260C9435260C9435260C94CE2E13
:100060000C9435260C9435260C9435260C943526A4
:100070000C9435260C9435260C9435260C94352694
:100080000C9435260C9435260C9435260C94352684
:100090000C9435260C9435260C9435260C94352674
:1000A0000C9435260C9435260C943526000000005F
:1000B00000002D00B40100005B065C0300001AA2E2
:1000C00000208457610300009D01007000E0E810EB
:1000D000E603AE01BB030000D90600004F05120382
:1000E00054003AE000A0001000D03AB0DA2471E0E9
:1000F00000A0621700002600E80071A0F331CA00DA
:1001000071E043A20010008000E0710066111E71D2
:1001100031317126AE31EB41A74006400C505110F1
:100120001771E001E731E820E80000E026903A107E
:100130003534AA874F75000000000000DC4671D0FE
:100140003A402DD04DC12875260026009800771022
:1001500071707100EE5600F076106207AE01E80093
:100160007100DD0100000E6106F69C302C67D6861A
:100170005A15FF911323BA2774322BA5CB401C616B
:10018000E900804600004F0500000090AE1171406C
:10019000002000602670417478D083474E01A1058D
:1001A00000007100B80162070070AEE1E711940031
:1001B000000000007AB0E840DF211E6041233B03CD
:1001C0000000AE01000000F000402A554FB5764017
:1001D00022756FA4A5E25B33BFB32FB0703500A1C9
:1001E000AA257D56AE017A00F70700B021817C1464
:1001F000E7F1F834F50110A76C31AE011AE2E8A07E
:1002000000116904EB05001000A0E7813B1397641F
:1002100023200000002000600C70DCF623E4713025
:10022000E2128191E860003042460030E88055E7F4
:1002300026003B93915000501E22E3D3A144FE863A
:1002400064E02300AE2100B0AE110000E800000021
:1002500041D35125B8077E713BF000703AC2CC13F0
:100260002D2020C2AE414F350060412348073A009F
:1002700000000000AE912A7500004034DB56740087
:10028000000000005505CC036E051D054FE5E6A4F2
:10029000E810006000005F461B71E8309B34E8E026
:1002A0003AA0001098016297CC53416323202A059D
:1002B0009C0562977B02F4E605C2512304F65F7643
:1002C00021702A25852100400020E8D00061E870D7
:1002D00049F26F152310E8702121C9A744616F020C
:1002E00019A22B3105002F002A05FD057AA0003048
:1002F0000000EB254F95AB07DE01710051050604A8
:100300004F73080373C6E66143334C91F0B26257F2
:10031000E80000B0D52000400040AE610000AE0112
:10032000020100F000D0E71100E0264000408F02FB
:10033000E20300002400DE00000000C03A100020AC
:1003400000D0F54141433A502E608D7342B3BC3525
:10035000E2369580CA333A23AE01AE01E8000030A0
:1003600041230000E8E000A0EB150000EB850060F1
:100370002A1583C7293100B0AE310030E8802DE066
:10038000830700002D00C003E70100002F006287F3
:1003900010E1E810007000E00010000000702F5025
:1003A000EBB5AE31B83783B700A0007042C2F62477
:1003B000BE536E07E701000023B00CE300500010AD
:1003C00056B041639C8354D1F65657B07A43AD661C
:1003D000A4A7283141030060BD82262041A329F44F
:1003E00018633B0507050000AEE135A500101CC2EF
:1003F00071D0AE64F0710A5006649E5500C0E8509A
:100400004887AEE126000000E800EB054F056003D9
:10041000E80000E00060006004823BE3E800E8F0F0
:10042000004071502216D57572063E8638E0F20300
:10043000C7366F23AE01000071007A0000D000B013
:10044000C3575346E850CA41CB813AE24F05765034
:1004500000506E567E9600E02D501C527660854707
:10046000210176002A05737004C75F162F8000E013
:10047000000000000000E6043AB00050E860BB0154
:100480001001E8009CD52D9000104F6500D0A40508
:10049000528393E60E42E5E67D702456C3301F7307
:1004A000113314F6AE2171600AF009F2C00748F169
:1004B000C24042534F059F07100100F04F45A65020
:1004C000CCF32640E85071B0EB351C32398329E576
:1004D00095004F85AEE1E7017F963A4285570010BF
:1004E0003A403B333A4226D0AE114E8400E0000041
:1004F0004F156247EB350674FC758577D1049286FB
:100500007160EB550030007011A01A3200000080BD
:1005100000400070000062070301E800AE015D02C8
:1005200000F09C45AE514F1511E60A40B19766B4F4
:100530001D27D2154F757170E8A04F25004000802F
:10054000E8E0001038922D30E8401AA0C433BB23F5
:10055000000000000000E82044B20644D9A2C715FC
:10056000046127F37047B650228100E0710000A0BB
:100570002D302D00D171CCE7EC120F016904000081
:1005800000003A002905003000809B744C8500E093
:10059000E8000080F7E7EF0600000000EB05E80048
:1005A0003B03410323407B844C62C2B24234EA37AE
:1005B000AE35C025000000103A50AE513AD00020B0
:1005C0000000E8B0E88062571AF2A3410050EB0542
:1005D0000000250500F000D0EB75ADC0C503414615
:1005E0008D55123300500040BC435A36D8818132B9
:1005F0003D616A017B010000E8C02A151A241A0235
:100600002F003A0026E0E741EA4282B7003000308E
:10061000ED157005470500C0262095401E1336C60F
:1006200000213AE7DE04D8345C80C5E54E05007051
:10063000B627E850E050DBE4B830B745EAE50020E3
:10064000E38096E00000008000E0E800F511007013
:10065000AE01F0C400D0621750D5E5444F350060BC
:100660002D20000000400010E85030F48EB01E37FE
:1006700029672325F801E82062670070763060461C
:10068000E85011D1ED2000000000E800E800E7F09C
:100690004B747516000000000000E8808EE4E8004E
:1006A000E82000701703E903D9B6C8418AB1333591
:1006B000903468012D003A00005023C00050E8C07B
:1006C000E81000203BE37BA084122A050000E8002C
:1006D000E8005D02000000D0002026003A00AE01D4
:1006E0009D0100102640E830E9D3DF90717000A032
:1006F00000306207000062070000E20300001C02F5
:1007000083B74DE101513B3310614F7562F762C70A
:100710009C05E4A1B6576A331D04AE0169064DB4C9
:10072000AEE1005004E7D6C6CD57008000E02600B9
:10073000AE6191706207D5F26A56B5373F812C21C0
:100740003E7050F4DF400050AEB13AE00050E86037
:1007500000000040292371401A158985FBE1E5005E
:100760003BB38537CD32E890EBB5F3320396EB45DA
:10077000B865A0916B403C137646266023601E87C7
:10078000AEE1000000A0EB35E40200000000E6044A
:1007900035E200A08317001000D0E70136D52A25E6
:1007A00005040A5081364B22AF8726E03C021875BB
:1007B0006DE2001000C076900050623700503B435D
:1007C00061D6EAA1BB10AE615AB0C453E8B00030A4
:1007D000E83035A526B2B9323B66E532513607041A
:1007E00000002F00E8F02A454F55008000E0E800A7
:1007F0002FA0AC27E7510080E8E000001A128077B4
:1008000000004F053B030000E83097207906007098
:1008100000E0261023B000E000500040AE214B0560
:100820000090E800260022607AD23714F18469E350
:100830002501DD06CF04F9053887E7F1C256A8D1B6
:1008400066C75A5757E7059795739B830020E85072
:10085000EB056003000049624123AE010000E8009F
:100860002D00E8E026A02610E61400302D50009060
:100870009C6500403A80D1E1D10171002A05AB07A7
:100880002D0000003B010060AE014F45D025F76709
:10089000007000003A005E02008000E0E80000B056
:1008A000CCE349531001000000003A601C22000014
:1008B000938487E262074F25FD711B3015B52C30FC
:1008C0009C311E0740E6DC63AE62AE220000E8D039
:1008D000E721410371F02640E85062B7E967B27240
:1008E0003A226DC64E5423A69A904B327600747706
:1008F0000D109C041FD73B62C3032805E70100309D
:10090000AED100003A80004000704F053A041B044D
:1009100048B74FE51C4200007A003B030684E8E03C
:100920000000C034EF6109255B83ACE0000041A307
:10093000E8C0001072E7D2117D31DC048501C303E9
:1009400022F4DD431051CEE500A05D175C0288055E
:100950000000AE31E850B11256C5AF11A551BAC072
:10096000C7372D00E7010000FB0100D000A00050B8
:1009700000002680266000F03B534275F621C665D4
:100980009464A2748EE3C417C90026001B013A20A8
:10099000006000703EA70BC4FC31B4A7E810062429
:1009A000E8B02620781069E600F0E800E810E8409A
:1009B0002D300000AE010000E8303A203C022E2429
:1009C000F262157443A60030000071F799E13050CF
:1009D000CA067107000099043B043D06E8D0CE45E5
:1009E000E810EEE057C13231CF6721B2AB330007D8
:1009F0000000800700A00316002026A0AE210010F2
:100A00004F7500404D3106D44F2500007190F5B16F
:100A10000020E860E820000053F5D0803A00E9E1CA
:100A200086336727E10026003900000000003B0301
:100A3000E800E800E8002DE02DA0B9124E035D07A4
:100A400000002600560000000060F5010040CD03C4
:100A50004F05000085070000AE01483728D25656E2
:100A6000CC9527E009572106E8004103CC832AE50D
:100A70000000E87000107150F4119CF5AE21E240C6
:100A8000D116C016108100E028056473E033A2007F
:100A9000A1D73725D76231936A84D7264672C332ED
:100AA000BA2277147D92405300D02D400010EC55AF
:100AB00068F69152B3020000260071F02B541C22FC
:100AC0005D56CF750A02CE75D12561770000000012
:100AD0000000AE01AE012204AE619D210000483746
:100AE0004125140471004E049D0141A3AE11E8207C
:100AF0006CF600D0E81000600020000000F0804696
:100B000062574EC3F7E2866757047105BC61E8502F
:100B10007320F5012AF538128D5400907190003041
:100B2000F106D20006041A023A0000002640AE5137
:100B3000EB65E80000000000AE01BB03000000F020
:100B40002D40625726601A519110CCF306A47726E7
:100B50003966A84666661E872DE08006E81048774D
:100B60004F05006097552A05907200B090720060A2
:100B70004A22D6443063CBB3D61671000000000081
:100B800000603A200000000062070000E7F14F45D6
:100B900071504F052D00F50100300020F501008057
:100BA000E8E00030F0E626C7E2540A030000000047
:100BB0006287DDE33A0021242D50AE413AB29DE533
:100BC00000503A002F002A0500704FE54D1100003B
:100BD00026000000707600B039120000E2037005B4
:100BE000000000004F05000000F01B3200600020F4
:100BF0002600E8A0621700201AA24167D2562C03F3
:100C0000BD20FD561DC29A65207132765111EC341B
:100C1000B8829460380100011C02300500F0AE413A
:100C2000F5510060007047771BC1E7118E2200006C
:100C30000000EB05E8E04FA500102F0039074F0535
:100C4000EBD5AED1BE42D0E17DA79012001000706E
:100C5000710000003A022A0541E300D0C93600C005
:100C6000009000503AC071B041333A40CDF4304169
:100C7000E3320AE7F511130084015B0000C000C0F5
:100C80009C352D301C022D0160033A020000CCF28D
:100C90001C123C677BA706B2D3566D7449E741131B
:100CA0009602000000000000630200009E02098816
:100CB00000208006FB07D900CC01008000204851AD
:100CC00000E05F300B000000000000E00090020038
:100CD0005F105F60EB7564355A454E13FE01B80036
:100CE0005F0000000080672200A002F000006002A8
:100CF00006805F20E381FC2302200B2080C20E3897
:100D00000000000000000070FD6164240000350454
:100D1000BB0400F044006B773491A2C23023A801D9
:100D200066D6A90285673CE51B63855191317C2419
:100D30002106EE06200600A080C2E670B00600A0E4
:100D4000002062550010BB04E55176126B077ED27D
:100D5000C762D7054A7168D34C535EF22C561B010B
:100D600075F2B48157677CD166607D402F026405BF
:100D70006B0700006A055F0044C000206B275F50CE
:100D800060F21C24A35581A2834730975F50D7633C
:100D900046070000020044F0E35100005F90B0D02D
:100DA0000826366003530436962665B0E0256405B0
:100DB00000000C0080420060005000000080002015
:100DC00012B363B01278E9378051DB234057AF1478
:100DD000CB0344D00B000A7000B0FCF35F203583D6
:100DE00000609F7265000080002064F4005076026D
:100DF00080023606A605E807490000006B270B00B5
:100E00000200C9919C109E02E2A1AFD76673B18621
:100E10007F72FA13BB2603502A52BFB3C3B44740B4
:100E20009EB20000F231BB74806200200A5375D577
:100E30009256E8457445F201BBC11096EA70B97547
:100E4000174704117297BF458F5002005F00F201EF
:100E50000000F281CD274301BB045907002011484F
:100E6000B34523674A92F2613084B0505C652348F1
:100E700030C636104300650200005E02000000002C
:100E8000800200A080226B0780820B208A70BBC486
:100E9000BB0400F000505F00F27180628022F2E13A
:100EA000F7946B305696EBD38631EE63DF650070B6
:100EB00064C5D8232E702623F206537369330E437C
:100EC000A3116DD661E63457E6016774DF20D7C4FD
:100ED000A967B6750AB86B67F57400B0BB04E31177
:100EE00000707060CA2780420B805F1002006C06A1
:100EF00000000200BD06C50746D136F65F10640546
:100F000000A05F400B08F20119010000808215204B
:100F1000E505CE0202003702EC07000080A20020A7
:100F2000F271435300C0005083F5CE91BD00C75409
:100F30001C100B032F020000020000E0C3940020ED
:100F40000010C4E18D5700505F10E6004400970682
:100F5000000000B00B609E72007000700010BEF7C1
:100F600062F481168366E6D44647F5078F837E22B6
:100F70006B4701D1FC244C020C08800200309AC758
:100F80000040656000702F42C3946BD7F543023078
:100F900060C200402F020EB75F2068A29EB2A0641C
:100FA00000B02F0264059393C247BD24A7B42483E5
:100FB0000D104FA598B71D455A2669F247155FC019
:100FC00065648E227915D180A3730AC1ECF3AD70EC
:100FD000C246C95099503F07E8000000E2B45D677F
:100FE000D94000E0009000200000000023080070BD
:100FF000008010028FB38FB37E43001000500B307F
:101000005FF0015469008032C3F48E675B076B3276
:1010100080224616D25500404E0567026105440005
:10102000B5825F2044E0007087702A186C06A132F8
:1010300086B2006000705F0000006B0700008A004D
:10104000550336360BC086423B06200600009E0242
:101050000B001F04153076E2801200009E820220F1
:1010600076E2E6C000200000E58100209403BB0189
:10107000C30480022F82BB2400000000C20334F0AE
:101080000BF08F139325C3E3C001A2311196D377E0
:1010900046B5C087003000F05F505F00F7D26F7236
:1010A0003656C32480F20B114903BB040000000034
:1010B00000002301F50487F00030FB7380C27F3706
:1010C000F4F4000000202F5200D0CA013E001008A6
:1010D000D602806200B00060E301560580020090F5
:1010E00000400010000080028002F20100606B27C7
:1010F0000000FC83802200D015B00B112A085E0787
:10110000F604CA5796165C06FB84FA241625430596
:101110001606B806000000002F02366087D0155072
:1011200000A02FB2151080020000D6056FD2807289
:101130003666A677369602109E0280120030002096
:101140000000000000F05F501801000080026305FD
:10115000005045B345635EE2779244200060007022
:101160000020D440F2110848E5A5806200005F60CD
:10117000007054231A612FE28002007068A3F516F4
:10118000ADC55E55AD1400C000F0803220B6380405
:10119000F2017107000000005FB000606475FCE3BD
:1011A00000500B40A205BB040000A1956B27F25133
:1011B0000AD396F6FA067501B297517280A2B391DE
:1011C00000706B070000FC030B80002000206A62A7
:1011D0002FE29503F823B706214400600030026037
:1011E0007D850CD000500000008000204460936397
:1011F000A8745F271A05BB041E046B0700000B00D0
:101200009EC2007002703BD50464811424C72B2554
:1012100071F0B1558D074901BB04350600E08052DD
:101220000B20C434771127620BA14FD2505360C0FA
:1012300070D4FB7616105F950C6328F52520652386
:10124000800200006B54F001CA070000A235F2C111
:101250006B47D10700000B0080022F82802208E636
:10126000AE36E67566F2485515005F705F70001087
:1012700059A36AF7B371C27480E233770B0000B0F0
:10128000B67694B3E7600270BB54E032BB44000012
:101290000000430100E0E27455252CE246936425EA
:1012A000D940009080325F005F000B0000D0B79102
:1012B000AD2647255EF24735CF045F00CE0799B1D2
:1012C000E2055705600600000D03C3440260205488
:1012D0000BF100505F00020015000000001067F2E3
:1012E0008417152041F5D615E3E13BB1B961000043
:1012F0008002E40164F580529A07802264A5873059
:1013000053565F409D00E567BB34C36400B05F4047
:10131000981639846530E73212076505A607E36140
:10132000F2915D3195B54DA74A100D2146C41202C8
:101330001608800518016405E600000000D00030A2
:101340005F70E301F984A1230BE05F502F2280122C
:1013500037F0C157E0076B07800280F25F50CE0282
:101360005FB05F60607260E2BB548022F5445F1240
:1013700001058C961DD67005CF02890689000000F4
:101380009E8290212F52B511A9016ED25045265050
:101390000BF0AE522600000000605D675E029E0208
:1013A00080020000E505000002F07652010077B1EE
:1013B000A214DA0044C112D36012760239019103FB
:1013C000640536060000000000009003E351F211AE
:1013D0002640FE92D8D0FD03020000002F020BB180
:1013E000E3B10040CE02F902760200005F00000087
:1013F0006B071A009E000906FF01F20100006A0552
:1014000000005F00BB04E4050020806238005FC07C
:1014100060F2792434B6E361A2756B47E361F3525D
:1014200000E067B21A7615605F80B02664A50756A3
:101430007E161493A521A667FF410B463A405E70C5
:10144000AA441002DBC15FF000300000F707000083
:1014500000000000E5055F000200860280B2000087
:101460008012D3F21520FC232EC23FB7333120C6A1
:10147000B5D0C8220613EB33407328F86F27102627
:1014800000D05F506B678EB365B06B37E35136E0C9
:101490003851373200B08002BE64D6D58032004069
:1014A000158000706B070000BB0409D86772E55116
:1014B00000006B076B07006000D09E520B3000F0FD
:1014C0008022000020060200D6B55F602F725F40C8
:1014D000F2611052E5B500000000802273225F2007
:1014E00015505F6000008FF28F54520600B000006C
:1014F0005F00C3F4805267023643F5D680426A66C5
:101500000080642715E000723F02EF44DD21A563EF
:101510005A036500E202360600008F0315707BC592
:10152000AD76C953C193C5735F405FE07C15B0369B
:1015300000C0B8105FF0D4904735AF3660B24F248A
:1015400000000000A607DA846DE57832D6075F0058
:101550009E0244C000504521CBF749918D10BC0438
:101560003406C3040050D9E00010000080020000DF
:101570000B806B15BB1480322FE2CE120B5044301F
:101580002F42805200E0021069660080292060B27C
:10159000006080725CA64D44B1705EB290319526B9
:1015A000BC45C9479F63C4C70060FC630000368622
:1015B00038206B079E022C0202000B0000000E4731
:1015C0005F40E301D3B59E619E727DA6FA120000D2
:1015D000F02100E0B94780D2FC13474782E217347C
:1015E0005F10D74200408002006000302F6200B0E0
:1015F0000BB000455F0063028002A84726D06B074E
:1016000000002F820020C49100A06A15E301BF07EB
:10161000B50280D25F509125E2F7BED15F44C0048D
:101620000800FC035FB06B6700702710E3510040B7
:10163000762215A0D9500BF0C3545F506BE787B2E8
:10164000237100655F7000200BB000B02548F940A1
:10165000C6C1BB140E6642B19F645F006580002066
:101660005F502F120000D9000000E60000009E022B
:101670005F0044E000C00020052336F6F2110003AD
:10168000E10700008022F352FC235FF000F0151008
:10169000FD24AE57EC2500E0B425BF363714C8232F
:1016A0001588D847926335304340C344E906442047
:1016B00000D044400B5100E0000000000000E906AB
:1016C00000005E021801ECD7BB64A2258CE30090F9
:1016D00000206D60F2F13C76EB648A90186323354C
:1016E000A6E261423304B0068D03BBF441E60C77F9
:1016F000F846E493E4373716BD12EA26AB86AD46CA
:101700006072DF075F00C304009080628072CC00CB
:10171000ED07680565E064B5004026006B076405C9
:10172000156036369E622BF0F2210020A7478C42CE
:101730006B077A06BB84F323D8022F02800264C5AC
:1017400064F580326C06010401065FF0AF57B20108
:101750008ED1EFC39F4587B62263A07436A13C505B
:10176000BA20B6020D830020343030C72F42BBF4BC
:101770000050CE025FC0BBF30D18F6B67AB5AC4789
:101780004640D763005068832F726E303201963620
:101790000B7000C00BF0003080426DD30335F37541
:1017A000C4A1C55625011006E1035F0000200060BA
:1017B0007E058002C3040040006076528002000073
:1017C0000000C3545F106B07000044807A250B01B2
:1017D000440000005F80F4D72F226BA72F726E3475
:1017E0005965D6D564550CD16BA36F628042004019
:1017F0005F005F20C401E1041F56E3110000760280
:101800002C00D8020B40008080720000A80200006B
:10181000BBF44450000085C03862AB62B0058480E0
:101820006520803280C2FC43000000000000000000
:101830000000000000209EF2CB123600F201800270
:10184000CA375FC05F40BB646570002000000000C5
:101850000000944300400200CDB7F2B10040E5051E
:1018600000000B0000000080002015D09475D655B4
:101870004460512464255F60D9300060A44400C0F6
:101880005F10B90400205F40B6065F0080020B5075
:101890006465B606370200009E0200401520E6305F
:1018A00000202F0264056BC748C32422A0037612D0
:1018B0008B2000036F82F627CC2480F200100A737D
:1018C000E66000208437652080433CE247F6C5414E
:1018D000F301BA82DB70BC010080BB21152000003F
:1018E0000B000020C354D84200A08DABAABB330527
:1018F000900C410600000000A90CAA0B000000009B
:101900000000000000000000FB036F0700C0002083
:101910005A006F375E5716803A39007000103365F1
:10192000B02200609F0AAA5B0090005000F0E237EE
:10193000A5642CC00F122C305A502CAC3B9973AAC2
:1019400000C05494CCAA31C3E60000507144B25395
:1019500003530080AA2B6FE775771F02260B17072A
:1019600000F000D02C3000309F7A9F1AAA0BA504FB
:1019700000005A2012F50EA96929CA719EA2F9C267
:10198000052B200000902CA02CC000008C023103FD
:101990005A006BB3F48C748B2A368594223A00007B
:1019A000339546A0584800508DD609CA46C000E07D
:1019B00000502C708300000000000070C2A90030AD
:1019C0008BB9E24750546187320A0C611FA700505F
:1019D000260000A000502C5044782DA500906B04E8
:1019E000303C8834F0CB002000000030F902E8855C
:1019F00014E690E7E6B300006F0787052606465019
:101A00002C802C600020E26700C04620000087D4B4
:101A1000A9B0AA4B6CA8321C6DA28E48D408EECA9D
:101A20009166F82B476600005A05AA0B91700AF1DF
:101A3000C047ED041FC2438900005E07A90C0000E7
:101A40000000260600A02CA0AABB16D085F13651B6
:101A50004CFAD4B733344C79FD82697C5954A06C6C
:101A60005F4AFF005E0BF80B00F00010002008C773
:101A70002C20B20359E0435C00702CE01B58717BB2
:101A800091EB4FA4D6AC2683730420B200A0AAAB7E
:101A900005BB2CC02E568CA26E20B2B337238AFB16
:101AA000A3B7C612A98C2CD0A16269E3E93A9609C2
:101AB0006053A1E86DCA87D4BC81C8B330E4065036
:101AC000A37400D00090DA5A666CC727006058A84B
:101AD00000A0A9BCAAAB73C1A91C680026062607F2
:101AE0002C0016000000DE08260600006F9700A0FC
:101AF0005AC02CC071CB6CBA2ECCE6C5748436C5E6
:101B0000E0A01213CCF42C504A3546803158054AD7
:101B1000AFA251495E5700808D1BAE72002032E3A8
:101B2000057B00E03058617400702C0000103AC64C
:101B30000020000000C02C205A05F551650ABD1791
:101B4000A98B8D473463006046200060BD072D05DA
:101B50002E066F805D50008000002C00F80B000006
:101B6000000000004AC55828000000002C409F9A41
:101B7000BD0C5858008000600040BD071D325AF06F
:101B80002626940100001600DE0258084A0500F0DF
:101B900058E82C503209A90CAA0B00B058A86CB90F
:101BA00034BB1FE513C91A9D9370B2C4EBE1D4A2F4
:101BB000E30AF406C7707B50ED30A9195736DBF401
:101BC0003E610D77AAEBB0C21670C36204A3718A9E
:101BD000EEAA9F4A0050430C35040000000018078D
:101BE000800100002C00680600002C00DB030000D0
:101BF0005808B20303A3BD772F152D06FB0B460033
:101C00002CF000002C2000600020580835CC9F2AC2
:101C1000E207A16400201660A5046007BD0700006C
:101C20000000580800002C005A005AF02524D879EA
:101C3000AAEB5EF733072643E3803475FACB5DAB3E
:101C400044822765E1BA23B60000430C000000A0DF
:101C50000040005000600020E26700702E36E2670E
:101C6000008000F000B0A70500002C002CA0A351BC
:101C70008A56472D32EBD696255ADA9652A3888C8F
:101C8000C457918000205AE0007026C62C20000125
:101C9000AA9BD115F674128CCB88CB212E062C0072
:101CA0000000001026F699602BE5772A5461A7E51D
:101CB000618300B000C05A203204DFE32C20008092
:101CC000E390B192714BF7146077DEB302005F03CB
:101CD000E3095A05A90C00005A05000000000000A5
:101CE0000000000079041407AA0BBDC7A3615AA025
:101CF0006F078E0000002CA05AA5AABB3A7669FB9C
:101D000067CAA97A1264E737FA95F5AC00C00000FB
:101D10001D02680AE2E726A73613A01A19BC681448
:101D20009613AC909003B0F61A235861C005400B8F
:101D3000CD04000050085A1000002C00AA0B2CD033
:101D400029B0EA014B47C78AFD0B2E0B470900005B
:101D50005A055A05C80B5AA000808A2C0000050BB2
:101D60000000009050F3E74C97C400202C00E8F4EA
:101D70000849AA08CA04F7048C02AACB262626061C
:101D8000D7AA91300807F169316DD90900C0182729
:101D90002C00467023A807703A1642B932492666CD
:101DA000C623E267580800006F078704138D2318C5
:101DB000FC93AAAB00C029025A00170400300000AF
:101DC00000008D669F2AE26700009F0A000026E659
:101DD00000504A755808000000006C6B39290060FB
:101DE000AA8C6F1000706F07B20300002C0041F640
:101DF00047B64680B25200802C0000001807000051
:101E0000000000004A950000E2AA2C602CA0CB271D
:101E1000BEE500505E77006000202E761DCCB72016
:101E20002C00BAAC0080DF332D02B9BBF049400072
:101E300000002C00586831430000E2070000000059
:101E400026C69F2A550300A0AA5B0000B0520100DD
:101E500044BDF9492CB02C50E84614483F7B4F0153
:101E60004002000000E021C039B305C557201F0221
:101E70008D1BAD240020000000000000BDC7002025
:101E8000AA0BBD07E00250092EA9A8A5FF132E8AB0
:101E90002CF0AA2B00C02C202C005E570050600CA8
:101EA00034D69D070C87EFEAB2090BA53EADA358C7
:101EB000710673C187240F026F072C00E5030BE046
:101EC00087240060F7C400202C006057612BC543B5
:101ED000E2575A0090BC0000000000002E2600B01F
:101EE000C0302E06AA0B46000000870447062C903F
:101EF0002E2668B8AFF4F204560C2A67481746003D
:101F000000006F0700001DAC16A026B64F5C6103F1
:101F100060B6F3532566AA0BAACB84217A00FCA0F5
:101F2000AAAB00B000C00020000000105AC5878492
:101F3000900CBD0742020F052C00000000000000BD
:101F400000005808A008750700A000A000B0731199
:101F500034B735563C0623078E095AA018ADAD7527
:101F600000A00040F05B00D0AABB5E7B538C005009
:101F700007824B64B48AEBC400009F0AFA02166021
:101F80006426000000007004160000A0AAAB00B098
:101F90006F6700506FC746006F07AA0B6B560000B3
:101FA000AABBE2D71F1261269A544445C6780F0493
:101FB000AB0C2B0268A344A000B06F170E48E3736C
:101FC0007C27D3E0287CA97C00805A409F88A554B8
:101FD0000080938CF15B6B86E79C00E00040F00B87
:101FE0005A000000550358080000502800E0462021
:101FF000E600BDF7CB362B99629A583A373C8F7C76
:102000006AB0650600000000A98C00001F928C5287
:10201000F7140302AAFB1F625A759FCA0080E26789
:1020200000000000B20200B05A25EC66003000A0AB
:10203000006042E4D4FB7D9A17AA0A43005075F76A
:102040001B9C00A0F58C00D0009085030000AA1B0B
:10205000798618570080002000E0187726C600E037
:1020600033654D5D2CA04D410000E20726062C6033
:1020700000202E66000000000000000000004A055D
:10208000BDC7B32A0000BC0C4209000026064A0561
:102090005204EA6C5A705EB729E14956D2054C0BDE
:1020A000B303E2052E06C9015607F87B2CA02C507D
:1020B00000A06F57DE022E067000000000002C000A
:1020C0005A00A96CD829A96C5757E227584800F044
:1020D00058682F73F7036C0B000000E0E6F49304DC
:1020E00062FB36E436B9F985F6F1B2B891005808CA
:1020F0002C004A45A95C8703A3D16114D220C19A60
:102100005042F45589680010580800A02E4600502F
:10211000A7E5937658C9D99CB4A29BC392849F4AE1
:102120008D76000000505A8000402CC02FA7180167
:102130004600AA0B00000000260600B000101D8219
:1021400071FB5B4B50941F185877F2B529C08D284E
:1021500000004AC5002000004A05E60C6103C8C122
:10216000C329000000A000500050070100002C000F
:102170009F8A0050658000005008AA0B0060001084
:102180001807C600DFF300B0A9CC00202C00AA2B52
:10219000AA3B0D70F833F72AB42064231142BDDA4C
:1021A0003A06C88100105FE3AA5B5A7A4D631FA20A
:1021B00082A9478D1F624231A93C4EA2E217160048
:1021C000AA07000034B7719B3F09AACB18233A062F
:1021D0002EC6A92C000000A000A0AABBA9AC6CFBD5
:1021E000E2A70355007067B09EE16A2ABC571CF253
:1021F0004700F82B00C0052B00004640B005B2AAEE
:10220000A597E8599A552CC000202C004AC5B4F96E
:1022100086B4E3E55C5A00705A00AA0B0500BE05BF
:10222000F00B00006F07AA0761035AE01DBC0070A5
:1022300000800050F88B850500001F0200F02CD0B4
:102240002E36E25700F0A5C44A052E062C002CC0FD
:102250004A254A05E0A300A0BDB7094A2C70D8ACB6
:102260004957D049B6508A346426ED8657A9A564EB
:10227000034BC7793F40AE7324970090929000E0E3
:1022800000D0802100702EF637360080265646801A
:10229000536C5828A96C2E067361AA7B07A1F0AB7A
:1022A000A9BCB7109F9A0701AA1B3D97C408775194
:1022B000B1FC9C1C58248270006000E0645673716D
:1022C000CEC80520AA0B4AF50B152C208936CAABBF
:1022D0001024A5944D7C6304950494045F0B461070
:1022E000F999F70473D1B7905E4C8C7324F84A4582
:1022F0002606AA0B2C0000D0AA8B2C80CB7B0231A7
:102300002B606D2B8BB22E37460D35840010C30227
:102310000000F00B00C09F2A2C0000F0003000905D
:10232000000000000000005052AC004000005201CC
:102330000000E2872656008016040701F80B73F1AF
:10234000469000A06FE7162000605A1026E6007045
:1023500007812C10F87B42664B0D157534099E2AB7
:1023600080B16B7B1E26147AFC1723B8443A499A35
:1023700026962C906F673766C1B05028C9AA9AA1DB
:1023800085890060003000F000602C7026E79FAA6D
:1023900000C0DF9300A000C0B042AA9B6FA726E652
:1023A00037230060A9AC40A9F8BB87A444A800B0BB
:1023B00000002C00260658E800200060AACBE72C7D
:1023C000A7094A43006032C9DE6800405A65E0B39D
:1023D000001000801660461000000721BDE746A0EF
:1023E000D2ACE644957356C99324AA0B00C0E227E9
:1023F0002C00A765384900000040001000203C1365
:102400008AE86739B887454789200000E00838091D
:10241000F4442EA9829734882CC000101F020000BB
:102420002C0000000000000000E05AD5F08B0000F6
:1024300058082C002C4096015B0018040000000096
:1024400000A02EA6AABB2C2007099CC4CF888F5BB6
:10245000A98C007000F01F52450846004609F80B91
:10246000000000004A6526200070EC7848B03DC3AB
:10247000D1F867FB16C5401DC461B7BB001058C832
:102480005E0700802C40355400C00030A574000069
:10249000E2072E0600C0872407016103A90C000093
:1024A00069652849CC042C6087447A01DFB346B9BA
:1024B000B73A565ABF6A65AA1902AA0BF00B4A0529
:1024C000000000000000E103AA0BAA3B2C40BD87DE
:1024D0008D080000E0082C10D86940BDCC93F29123
:1024E000AAA42C0000D016C03208C20256002676DC
:1024F0000080A94CDF834963E03930072D050000D7
:10250000009000C02CB0F08B0050E2875008F50C12
:10251000A70500000000E50C0060001000000000AE
:10252000000000002C8000705E77F82BD3E700706D
:102530000C03000000006FA703431D5CAA6B074B50
:10254000C506C4F1E614152ABB0A600414055AA096
:102550001BA800C00060202A0060589800A050C945
:1025600000212CB0DD38E2572C00AA7B2636D3940C
:10257000C230D3697446B70BAAAB00A14AB59F6AB3
:10258000A412500D00000000000000505F53600CCA
:10259000AFF539E41598FBC1A86C64547CC00060A9
:1025A000F8AB00C02E262703AA8B3407B05CD0D628
:1025B00081ACCBC454080000A7051F02B2032C0055
:1025C000C7FA5EA7BC1B27C29FC4E76CF3EBDB42D4
:1025D0008DD366C4F127AC0C8D0600006F07005048
:1025E0003EDB46002557D9F400C0DFC33829A504D7
:1025F000B2332C40DFC32CE060BC273D7C25C6F302
:10260000A54BC12007A121781B7C00C02C30000005
:102610002C00000000001600470DE207000100003A
:10262000E22700904660B77B8BE54B1CEAE008DAB6
:1026300000816AA1BD5C4600AA0B00000000335572
:10264000E0E8940C65E35F47643B00203BE10070E9
:102650006CAB005000502CE0E33728305E3A01D3D9
:10266000AA6BE1094203575CFFBBE214FF517806F5
:102670000304890458A800A058B8AA0B5808000001
:10268000AA9B2CA0B2C3653062C8D180A08708B1D4
:1026900007AADF10B675B9008DE62978880029AC45
:1026A000A7757F1300205E376C8AE50C470D00008C
:1026B000E70CAA0B000000203AF600C0AA0B0000AD
:1026C0006F0700E05A55907C800108076F075A0099
:1026D000A1072C00E2A74A656F6740766A01D51012
:1026E000A90C000000009F6A5E17430C5A200721C6
:1026F00045BC4169D34C30563BB5E26340AA9AC70A
:102700007221860258D800B10070827519842A9A05
:1027100078A1ED3A969C934C6C733D352D10C136E3
:102720008A0AF5E25108553C3888A75500805E0BAF
:10273000F704A80A6F27C3EA5E7700802CF000B088
:10274000F8BB6097C9ACB40145E10080F08B005044
:102750006F8758A8A715267440179C900A0B000095
:1027600000008E0700207CA805048DB51A61031DAA
:10277000A3059050508800009F0A00004AC33936D4
:10278000FA5C74C1F11183CC22082D0500002E667D
:102790000941730106C09F4C303557D8C85CD378C7
:1027A00000005A0050088734AA7B5A152CD0A12764
:1027B000385946109E94E2050B2300E058785509DD
:1027C0000050004000200090530C58D800809969B8
:1027D00058182E960701E163A4729B49C3019F0A12
:1027E00000005A55245700001D7267C29A2C6F478B
:1027F00000C058A8AA0BAA0B00005A05120000003E
:1028000016809E1C1670F70400006500DC135B93B5
:1028100091C025A3DA0811A75AA0625433056F1797
:1028200058C85E07263600D05078A1070000F00B8C
:102830001D7C10CC00A087E444E8AA8BFDCC318934
:102840001A22BDE100505AB000002EF616B04A859B
:10285000DE58E0882CA02666432CEEA204FBAA9248
:1028600059E346D81680BDC7E12300002CA02CA058
:1028700000B000100CF3925C22F2492D1E2592C389
:1028800000202C0000F0002065702EA600A080B172
:1028900058185AE5E237000000000000AA6B2C50DF
:1028A00058C81610AA2BE7AC09D705F761444B109E
:1028B000F7B400850F8BFD090070100BB2532C90FC
:1028C0001D872C104878460000009F0A1F02000058
:1028D000500800A03FA4AABB00C0A524000063F6D6
:1028E000DC9200A058C8002046000080B953008048
:1028F00058A81654580800705AA0E75C2C00C15024
:10290000F88BE202A5045004AAFB00202C308B2394
:1029100000E050746F5700405A5000603AC62E369F
:102920005D6CE686E8BC64D0D328C2590000AA0BCF
:1029300000002C00DE0840040090AADB46B0C992DB
:10294000D60030D23D8400F02CB0160080012C005F
:102950000000C1000000730100013503A90CA90C9F
:1029600000002C00DF02050B2E66E21726001D0C6E
:10297000000000000030000000301DAC8744EA5B1E
:1029800000000000000052905FF38B98601CE5D7B8
:10299000F764A66462C37BB387E4C7226F67F1055F
:1029A000C4025A00002000E0007058A831430050D3
:1029B00000002F03F00B93EB0A82C36C8DB4F17807
:1029C00059487705FB0AA91CAA3B4AB5F7844A086F
:1029D00068D93440286A0040AE0C00002E062C0056
:1029E0002E5633673BA417BD929B6570831B1FC295
:1029F000090950185EEB5A3000B09F3A0070352339
:102A0000AAEB2C704A6500402C00A9AC00A000B0D5
:102A1000507C00A0E25761A309AAAABB0040003085
:102A2000AA7B46E0A613972A60072C00600B2C00B7
:102A3000F80B00006F07AA0700000000AA0BD804DB
:102A400050092C002C0000A0EAA684B2CF68565092
:102A500000354C12FE1A2703B41C327583B76B3253
:102A600000D026B7EB2BB21300B0B458E452702755
:102A7000A903CD032E07372621E700706F670040BA
:102A8000D307C1400030607C2C40AA0BD115D2691D
:102A90004D285A6000005A003A0600E02C206F676B
:102AA000AADB8714DE2800C00060457041A000A0AA
:102AB00091B045D53C81C2861E980E60B0B2AFD8A9
:102AC0001770E4354A0508072E06006026274A00DD
:102AD00000000000DF0A0080E2F74AB5002026E689
:102AE00000A0A70500004D016FC76B262C00000059
:102AF00000B0615BED39BE2C714B79C8A5510BB9A3
:102B000000002C00000026A62C50580879A6585822
:102B1000180700C05A200000C43177B2431CA9BC7A
:102B2000FD3A3D6BF09B2E4609BA00000300000001
:102B300000F000B00070993540D4F7735EE726C00E
:102B400036CC171430CBE50C9909B001E207000030
:102B5000000000000000AA0B160047C50020A90CC9
:102B6000A90C6F0700006F076E0726060060E227BA
:102B70005868F86B1620E267588800500080F0EB28
:102B80002E26AA6B69C10020AA0B2EC62C205A053E
:102B9000E1E3B223E7D08005273656C132C8BD7BBA
:102BA0008C1C1E2C3BB800305C0700005A00AA0B9E
:102BB0006C0A000000E0DF280060E123FDB07D30FA
:102BC0002C90B2A3AACB00C02C20F7049180425CC9
:102BD0000080007000E000C04680B5DC2CA087D4E7
:102BE000613CB0AC9FEA00202C601807DE080000B2
:102BF0000080005000802C0000002C0026C6E02839
:102C000000002C0046004F08E5191DEC5888BFBC99
:102C1000B4932B27DDA3A9AC00B035F32C60007072
:102C2000A5040000500900601620E207276BC2A926
:102C3000D15CC51A79776CB6623C4FE0B35BFC059A
:102C400046004D012CB06C7A5A60B689AC779E294B
:102C500035F0CE6A0070260700000001A9CC1620CE
:102C600000009F0A00002C0000B0E2874650E3F607
:102C7000EA573587BDEC615BB331AF759FC77667A7
:102C80000D05240D700BAA0BAA0B1D0500902C201E
:102C90008D320EAB4C37E7785BF59179F31726064A
:102CA00000002C00008058584A85170416000000C8
:102CB0006406AA0B050BAA1BAA9BAA0B1620BD979C
:102CC00057B481916CFB052B00F0DF63E2770000C5
:102CD0005A00A40426464AC509A1AAAB2CA000B0FC
:102CE00000002C00CE01021533113216312D522D69
:102CF0004D07424D083543655665250D3D4D4953F9
:102D0000324D152E112D3252102742353B481D2CC5
:102D1000384E581315324124152D113856041A1403
:102D20006712315F2A050D111D20252C3134393CE5
:102D300040494D5154606A2D52366514061424568C
:102D400038524151250D1015485B150C50220424B2
:102D5000163D04381C523C071C564A4C17513A3851
:102D60005F2127040C142048242C3034383C404484
:102D700050545C6624124D1211172116260A115365
:102D800004160414243C48564D051424663D655031
:102D9000101E0E2149413C05140C30520C391532DD
:102DA00065493B4D102C305A06041424303C566AB9
:102DB0001E14243C562E143E3221075204142024A3
:102DC000343C54661C3A2E144F0C1C1453544F08B8
:102DD000400C39323D245D354015080C2C30384804
:102DE0004D5159602B5016263C060C1069181C30AA
:102DF00034384D523B05266524161554274D14537F
:102E00002C26041625563C26140C1E050C25633A68
:102E10002416124D1527041E3D14244854664D15E2
:102E20003E053A3C426534175407156524560E1486
:102E3000444C0522651426244A3718561A241814BF
:102E40000D111D31343840484D515D624D2E4D53AA
:102E50004C520D383C62042548080C102030344098
:102E60004F4C52324A4D3E153952145204143C56BE
:102E700017210411141D31383C484D505D68374D01
:102E800018424D4309634D2436493F054C3E150415
:102E9000651C3E30171D403949531563310E0D54E2
:102EA0004E2630080C1014181C2C404C503A384D4B
:102EB0001B4D6514511E510B14263D17152610503D
:102EC000151C4D0E314E1530523D2517503F3A21FD
:102ED0001E4D053167064D05251241371A3E14482F
:102EE000500E0E4D0B0414243C563A0C15053E337F
:102EF000491405324C0414182024303C48546624EC
:102F000016412F16041C220414243C5619495A1049
:102F1000612C3C080D2831353848554D235026305A
:102F200026054D1714311C5A5E49113B4D152407D7
:102F30006523155D1C3504080C10242C393C4048D1
:102F4000596821323F654131060C1114183539405A
:102F50004859634D163C5615243E2404143C4856EB
:102F60001B215214243C5621113B112714653219A0
:102F70005121304842251A15613C646B3034383C8D
:102F80004044484C5054585C60646A5850111D309D
:102F900039484D681635422632191D09405A240613
:102FA00015244C060C4C6A485E513430101D050C3B
:102FB00024484D0A0C14403C1C38524D332D320429
:102FC00024483008101438502E24174D651D2C3815
:102FD0003D164D3D0526213E0A4D2030564D211807
:102FE0003040581C252934384850545C6468112EF0
:102FF00005484D563D24521426243C485656196522
:1030000051354D140A041420243C48546664264D5E
:1030100038431115244856101524303E2515076AEB
:103020005023050D444A24534B573D154254673DE8
:103030001427354F064D264204141C243C50546678
:10304000251665143231164D211615053C252A1614
:1030500005421431340D2F3D56041424303C545E87
:1030600021105D0C3135383C40484D524D052D4006
:103070001525322F14053C1C2C386741511C4B4A36
:103080003F0621245C04080D10142C303840484DB4
:103090005251411C25080C183035394A0514261A9E
:1030A0003D533D2F151F543D162226113039414AFC
:1030B000223D1F064D04616931080D101438404847
:1030C00050661406653E2124071832544D264933B4
:1030D00015611D30523005274D3D050E59400D69D3
:1030E0004410141D25313439494C5214324D150405
:1030F00057420954350C111C395D2F25112D3E0600
:10310000114D4B153C24522456211506514C143AAE
:103110003E06391F3C314D06152536153A1D3A53EA
:1031200032144C1018324932180C101C404C5060AC
:103130006A15545265161422322F4D051619501077
:103140001458050C1C3034393C404E3E252C0C1EC6
:103150004D1407253704151D303848506211404C76
:10316000521615040D181D242C303538494D505475
:103170006064680A65174D151C4A052516150E4D25
:1031800053564D3D10083042421009141C2D34385E
:103190004145484F052E4D3215185D09040C101C91
:1031A000243034394153044D090C10141C30343987
:1031B0004048524D126526132C0C3D67055F24389C
:1031C0001E523113191536071D103A50114B2404A5
:1031D00056223D41244A524D3D1451320C424D0974
:1031E000140D10181D2C3135384049506A1D4E08F9
:1031F0000C141C303C404950545E2605172E1448D0
:1032000011071214323F4D164A3D33041604166559
:103210001656151809123E0426153812264D143D6F
:103220002665552C5830430615565105484D3B052B
:10323000262E153A5016404D1749323E51154A1662
:10324000041D58090D142C30353840484D50606A23
:103250004D3C2D50562436040D1C24083035383D85
:103260004050545E1C102C3034384048505A421C98
:103270004C0553302D0E363D65245004160524525E
:10328000384D1B061C2D4A51411324303C545C66BA
:10329000514C400B4D180810303448500E1D160E7E
:1032A0002C3A1B152C4A04362531503F1E05142498
:1032B0003C661640170642053A11674D153E553CCF
:1032C000052461500D10181C2C303438404D684ACC
:1032D0001C4B154D6730394048506A1D34584E1408
:1032E000546A0E1911060555383E051615390D1C80
:1032F000092C313448556205251F680414243C56B6
:103300004151393C484D1F483B1E041420243C4881
:10331000545C6605174D15263D38245221502E2544
:103320000E08403619044A16053654164D3C163020
:1033300037111C3138494E24404D153F3F25053B80
:10334000654D1614103A0E10652705104D3F5506B1
:103350002D223E344D136A314A3126266A14320535
:10336000081426354A113A104953091D340C142407
:1033700038484C5054585E155214080C10181C2034
:10338000242C3034383C40484C5054585C6205156D
:103390002D404B0414243E2104610D10243038408C
:1033A000484D50545C64352F3D0520252E0542269E
:1033B000053C240C384816513E05140C270C304DA2
:1033C0003F14574D65272126051C4A041420243C30
:1033D00054665416223E5A08143B1D5751043D664C
:1033E000401D5A484D532438154A4A3D052552265A
:1033F0000551551564323C0C10181C2030343948E6
:103400004D516314265411241C4C091443103E25BD
:103410003C4221051424303D48545E4D65074D5211
:10342000152625064D150E34503058104A390F0513
:10343000561C5D55592430343840494D0F650416EB
:1034400008192C1426101E403314321333051D2C7A
:103450000E144D06151F486B08565558064D395128
:103460004049331D3E484D23243E3D1661583004EB
:10347000090D1015191D20252835383C4144484DAB
:10348000515C6B5608153B140432150524283C4A40
:10349000343A05251725433425166B201E65143252
:1034A0000414243C54663D050E42052C4065162547
:1034B000303F4D15671808144C0C38111D242C3062
:1034C0003C404950564D21491838300C1D545E0A75
:1034D0004D21090C101D2435383D48505C32020244
:1034E00014674D0C16113208523813324D3D5824D2
:1034F000612D32304B4D3519650A3A1D090C1134D6
:1035000038484C6A0516253F49162465324D050892
:10351000143D654A2416221426153E510B4D3D39A3
:1035200030533C3B42480527075C04080C10141834
:103530001C24283034384044484C506066544F4175
:103540000816406037390D565112141C12091752D3
:10355000090C10181C20303438494C523E041424F5
:103560003C48564E2C694D130C53053E153A0459F0
:10357000101424313438485235084E064D3A21246F
:103580000C554C6508101C30393D48620424400A33
:1035900065103D26053D1015333950360414243C82
:1035A000560414243C56495E14243E3924490E2600
:1035B0004D24641615395A511F1E1538083651040A
:1035C000361D2D3A14325A046A0C0811151C303578
:1035D0003940494C515458643E0C2C4F35143042FC
:1035E000581D0E0414243C5466043E525C041420FE
:1035F0002430383C48546606590E051D14092D40E8
:103600004448113304080C181C252C3035393C4132
:103610004A3A1B3C0A15511A050F19390B480D5C23
:103620006A3C164E50260619631A213808340C4C91
:103630000410243041485158663D042E04080C10F3
:1036400014181C2024282C30343840484C5054582E
:103650005C60646A34540A4D10384A5138404A3428
:103660001509382E563139481437250836053C1EC1
:10367000151D393C4D56514B48140835461A3D240A
:103680004A39251625062F194D53041424303C4879
:103690005608173649584D333D050E15320C3E4D30
:1036A0000516142626150D1B4B0C5D156715080411
:1036B0000C111831383C40484C6B24520414243C03
:1036C00056282765164D6454090C14243448585262
:1036D00058531450244D093C414954053268170889
:1036E0000C1014192431343840484C5054661527B6
:1036F0001604080C10181C2C3034383C484C505818
:103700006A516714243E2C053F350C394B083F3D68
:10371000510C152624213A11512432250416155036
:10372000241031383C41484C0E4D3E0C3956491E50
:103730004C2F503C551530384A0C5E0E491B09176A
:103740001534654B16482F2F31124A262615571C63
:10375000304A4D1650323E1D50401030346B1C170D
:1037600036412C1C3806050C101C39154B3621042B
:10377000542410080D3538494D51596654233E4D97
:103780002E3D55204A091A56102E14245705654D12
:103790003F164D0A160914243614243E4D1538528E
:1037A000490414243D563D0A5D2D164804563D310A
:1037B000492F3E5138364D16651C261D240C3865A0
:1037C00016500C1C344E4D401408041C2C30353956
:1037D0003D481167114A513C171456510E14384A8E
:1037E00065564D126608202850121650424D485119
:1037F0003B65164D5128424D0C324D1D18303C543E
:103800005A3D51113B4D1014242830346B150621BC
:103810004D14245412680B411C300C3439484E05A9
:10382000513A24140624163E250D43314B483224C8
:1038300065161B38360509342E3808101418303533
:10384000484C502E2605151E05244D1621411014F6
:103850001D24313439485C4D2F3010181E4D164D43
:10386000156534480919243840530E2626490F148B
:10387000064D061E36041424303C4854664C33244E
:103880004A2E4D1B50141804080C101C242C3134E3
:10389000383C40494D54585C61692230651E101611
:1038A000400B4D52245832422D174D500C084010F9
:1038B00034394A0466140731214F080C1C2C384A4D
:1038C0002C1438064D3C071C3C584224301630114D
:1038D0005332391F04243E0434424C3A15481C5DCF
:1038E0003A142F2104080C10181C24313538414893
:1038F0004D50560615431114404C5E3A110F064EBA
:10390000140B05190C1014243034394148506665E5
:103910000C324D3824162D0E10150D303439404C14
:1039200066042C2517041424343C54662D52516827
:103930005604080C1014181C2024282C324A052C7C
:103940001C153F214D53040C4C5630161E68265052
:103950000C101C253B501D0615440E5114382C4FDD
:10396000340C18040810141C30383D484D52656959
:103970000C1C10380515202D404D50555963054D30
:10398000173C56324C1E194D5215354A50334C08CF
:103990000C1C20242C3050562608075210251739AD
:1039A0002F4833500C620414243C562F2D6A2D30BE
:1039B0005205260C4F4205153F115158083B4D4208
:1039C000103A35511E3D2D240C3A1565241E0C1D50
:1039D00038484D3E3253584A06171F5D163C540670
:1039E0002512105C04090C15191C242C31343841A3
:1039F000484C5961673D2441320521573134092D26
:103A0000394205141D382A401426200811181C2498
:103A10003034383C40484D505458664D3D3415269E
:103A200024530C1D2E3C36064108384A5422385186
:103A3000161506224D0A5115262C104D3A2C4D23F1
:103A4000491E3C166524163D0622653E151C66156A
:103A500024103A0E651D14132D231614563D5704D9
:103A60001426213965553C04350C101430494D534A
:103A7000150A263E04142024303C48545C66413626
:103A800015264D0432360414243C54665434423610
:103A90004D4A0A55171424361404273D512F490462
:103AA00014243C56214D6524090C141D303848500F
:103AB0005607390F1C432E493A4D6514306A1211CE
:103AC0003A444E14060C2E501D162F1E3D14414E26
:103AD0003D1734080C1014191C2C303840484D5335
:103AE0004D243F4D1052581205164D3015511B26CE
:103AF000154E3C14260C18102E4108522D3214522B
:103B00002404160414243C57310C1E11390C2E05C4
:103B10001508493B14264D24305212154865240AD5
:103B2000310C570C504F4D2C190814303438414982
:103B300050062554323D323616151E0A1448503AA6
:103B4000645505142704141C261550264D0509102C
:103B500014181C2430343C51566514553E4D5406FF
:103B60003D124D050C2F4D3E211546141C22485A7E
:103B70002605351214260E213D04100C151C24298F
:103B80002C303438414854585D66043C160A0416FB
:103B900005240936315F1E052F4A21533E5E15303C
:103BA0005E10303A210D50104C08141C2431353869
:103BB0003C49545D646A6534040C10141C202431A3
:103BC00039484D505A1420243E641D2D37380414B2
:103BD0004A4A513C32313658681A3914500C2C304C
:103BE000424D4805141C2430343C562F2C3A55487D
:103BF0005A50243C34434D111509191C30343841B6
:103C000048531B0414243C54664D32041448645237
:103C10002D464A050C151C252C3C4C503A05261CFB
:103C200004083850584A0E053E31243A0414202422
:103C3000283C48545C665D353D673C504E3C05175A
:103C40004D101E3017391B334F1D164D24064C5096
:103C50004A4D6165050810181C383C404B33161658
:103C60001D32381E4D3104111824345422251650AB
:103C700014324D17094012211A114B5004651115C9
:103C800030393C484C56505A14243C053B35114DB4
:103C90003B3949190C304C58142651400D4B2632F3
:103CA0003E052E154D07651E5142241C3E0D106425
:103CB00025164D2557153714263C32143C42320D3B
:103CC0003B3D320639531762150D4E3F15265504FC
:103CD0001014263A3952053D161E164D4838302C20
:103CE000080C10181C245056063F4F3A304D3A3DF0
:103CF00032650C10060414202430383C48545866B1
:103D0000513A301615394B51143A0202561C6A5179
:103D10003E3E112D1948395A1911353B11154D43A5
:103D20000516154D6530053C1C38521E111D3951C4
:103D30005A651609304F3C4F512415422D214D43F1
:103D40000414243D675124303B4A3C164138522E1E
:103D5000485316481642240C1538111D2F1524659A
:103D60000A3E38532467392E3F0414243C54674DCF
:103D70001732354D33153C2D2618571A0C111438AF
:103D80003C484C521526562452050C205627065105
:103D90004D111F4E15114D3D524D3E40263204141B
:103DA000243C54664D1E1E1D5D4C0C413E650415A1
:103DB000243C485611412F214F0414243C54661DC5
:103DC000171D4D17241408574D24174D165D4C042C
:103DD000144204142024303C484C54660B3A150914
:103DE0000E5011610C303438484C1E2D1C15513BBF
:103DF000113A113D17085843040C1420242C303478
:103E0000383C4050545C66164C2F65114B6532337C
:103E1000154C534833154A1D1534090C30383C41B4
:103E200048545D514E154865244C41181C303539B5
:103E30003D51545F5D04080C14181C303439404C5B
:103E40005204143C48560E152304143C564D15528A
:103E50001D24584054043C5F143E4D1538511F1C1E
:103E600038314B0441303C1158080C15181C2C34C7
:103E700038444C5349520C18091D34384A480E51E5
:103E8000243C333D041526091D3B483715052456AF
:103E900051116561410C5D541D243034384C5A4930
:103EA0004E1114303A0439084A39412D11354D4B21
:103EB00051652D0C3A095D415310262611571E51AC
:103EC00011301814353943164D22490C511E3D4D01
:103ED000521406163C5A65055204080C1014181C9E
:103EE0002024282C3034383C4044484C5054585CF2
:103EF000646A1468372E14202430383C06410C3391
:103F00003A1135414817514D110E4D65310A151DB5
:103F100038121D1832041030343A651651154F31DD
:103F20004941115A682417581B2D174B14324D392B
:103F3000412D5137140649325414264828090C41A2
:103F400004103035383D4C5054585F1551212F51D5
:103F500011490C4D3924164D172417113941194FA9
:103F60001D65414C05090C10243034383D4851542E
:103F70005D631119314D24164C151D2C0C3034394C
:103F800041532F0415416109381D303C49545E20CE
:103F9000524D16651606514F65091D2431343841BE
:103FA000484D50545C6A090C481D353A4919113185
:103FB0003B4D65143E483530143B381731154F15CD
:103FC0000C4011643004093C4C5154585F65065153
:103FD0001A154D263C041014303439484C515E04F7
:103FE0001424303C5466154D4223144D53303F0485
:103FF000090C111D2C303948531D5D0C38374D42CA
:10400000153C524D1651114B04243C5631391B0CB2
:104010001130393C514E4D30161531043A560414C6
:10402000243C56654A254C185104141D3438585CFC
:10403000132415423104351438514A2416492621D7
:104040004F391133115D16502E241505124D65158B
:104050002D0C103A41514B5A3151170C1A3948174F
:104060003A31351B2456384C53212F31274809113A
:10407000153B511E2D143E041524313C414C521168
:104080006504141C51561524214F040C142440526D
:104090005137311153350E2415512F15520614097D
:1040A0003615481E34431518511D09102430353972
:1040B0004E1539430514243C561C39261407164D59
:1040C00039410D324D263924232E651404243C56E3
:1040D000151E3F4935390B3A651D080C111824305F
:1040E0003539484D51683E390E4C16544B0619046B
:1040F0004A51302C091D393468104A242C3C15676C
:10410000114D6304212F6630581A35410C38115374
:10411000300515343940484C5062504D1715650430
:1041200026142626040C15202434384851564131D3
:104130004E65345D41612D090C4C3B485E0E652592
:1041400007313D1B4D49512F4C5251113B514839BC
:104150000904111524324934303A301567384E15A8
:104160005832243E650414243C48562D1E16154230
:104170003A4D52153D0A15654839352665174A20CE
:10418000164C0950651E15240911183041494C532D
:104190003E152F572E511C170414243C563E24174D
:1041A00015520C181F51331E33523164153F3238EB
:1041B00032151D04114D2D3A394B430416080C10CD
:1041C0001C3034383C484C52516531245D0C114C44
:1041D0001C3941495A4E145215244A152D1F1D35BC
:1041E0000C093A15510B041420243C4856410C1C70
:1041F0003A4D1E2F412F14562D0C152438511321E2
:104200000B3124175D51093E513111652417514B73
:104210005D243E513D2F512D1D0E4130354D16264A
:104220000E114D150C26650E483E0414243C4854CE
:104230005C6621152452513113114E3D160C521556
:1042400026653D410917391E041424343C41564D5E
:10425000423C1426502351111D580C24303538404F
:10426000484D656A212F114C5C0409141C24303818
:104270003D48515639314335242D0E640414202411
:104280003C5604080C38424D49194139530428540E
:1042900014324D653D176537411815340C101C2C30
:1042A000303948510A512D0E4D5D390430533D14BB
:1042B00026211765355D0C381D534D124D1C1265B6
:1042C0000A4C352D1908103C5A153A2461415158B1
:1042D0001004090C1D383D484C545D662F1D480CD8
:1042E0005810283034393C404D51545C6824172D07
:1042F00048155309340C1D41485865264A4D51153F
:10430000651E30264224171651050C151C303848FE
:10431000585D63511521094810181D3035384E314C
:104320006151351C090C1438431550300C261526E4
:10433000381351154A2E153A14330611192D332FFF
:104340002D58493B14063224412D134C32192D4966
:10435000530C1F3E11302C3C090C151D35394148BA
:104360004C5A50101C30343840484E3E4D121D0FF0
:104370004D140E152616164D24201C3E6B241614C3
:104380003811344E383E3451084C61110C242C3015
:104390003949545A0A4D0A1526380452304A654C98
:1043A000395D2C080C1D243035414851586A65246C
:1043B000182C6150111D3038494D5A4834654161FF
:1043C0002C5D090C111D24384C50586A56150436C2
:1043D0004D3A4D4108572611651D0E0D1533150533
:1043E0003C511351564939241409352D4D532D385C
:1043F00004150A15124D040A1505243E2D11320428
:10440000080C10181C202434383C40485054585C88
:104410003215113E151C3E1B0414243E114154510B
:104420005D67143E435D15611107344230161C4A26
:10443000155F041424534C0C4315525156154D0A64
:10444000511130583E0457165115261C410C3A3C68
:104450004D431522244D1E4C301804081D34394894
:104460005A303F1524315336483F380B4D61040C08
:104470001014243035495D653B384B0414243C56F8
:104480002315331215511B5111651D410E381E1590
:104490001153650514243C4A154D2F491440385DCD
:1044A000111C3C4C5156410B4D1E1B1C26163951FC
:1044B000312F2D0C4B653E04090C141D3039494C2D
:1044C00051616A114131371933363A152D113331A3
:1044D000241635410C4A04081E651D14385042410B
:1044E0000C10186104141C303949516A103A610CDF
:1044F0005133154D3E503D083530415A513A3565DE
:10450000144C6804303953150910040D1C26514809
:104510005D3C0C58041524623211655D414C353BFD
:1045200039242D413158114D4B1C15274D0552157D
:104530004D353913051C3C49564D241E154D0715A4
:1045400018494E3015264C511D102C34384A15424E
:1045500017390E653E4D151E4D1E24162D1C4A277B
:10456000394B3C160414243C54674C0C170C581C53
:10457000494C535131492F5D0C1D08110515303937
:104580003C4149530541361124411D2C09390C3059
:1045900049505563511E151E2625612C1C0C111403
:1045A0003034383D41484C51545E1A523D56154DF9
:1045B000532404143E39334D4453053615232F112B
:1045C0001D040C15243038484C515A224D2F2231ED
:1045D0004B51110931584D24171565264D2056654C
:1045E0000414243D56141C3A5422500E11494151D2
:1045F000384E0414243C56514E15241251650C1D9E
:1046000004091118242C3034393D4148545F0414F6
:10461000243E15122D531C154B1D092C5D373C2CC7
:1046200004080C1014181C2430343840484C5058DE
:104630005C60663D103A142432115D161C51135112
:104640001B4D365665061D350C5E225650564D5193
:104650001A324D240C155204243E203E11391950B3
:104660000A3112304C04080C111418243438404814
:10467000505B1133144132080C10181C2024282CD4
:104680003034384044484C5054585C606615382EDD
:10469000383F5104184A24413F5111335404142423
:1046A0003E51043E4D161151560414243C55671DCD
:1046B000090D515F041420243C48545C6641344D7C
:1046C0000A115D040C15243034384850546B1D30E9
:1046D000485224480C101418304C521530365D0CDA
:1046E000383C544E341C243048505F13150B2417AB
:1046F000492D4E4D413C0836152F5853044C61143A
:10470000243848531A155D0E061508303D485F15CC
:104710004D1E1A38124D1D0C3765411C30394B6A3D
:104720003D1E651426650414243C564B2F24481660
:10473000111C38152F1114343F381D4937352C0CF6
:104740004158113038484D5315305A510411260C38
:104750001C38514B15313B0415243C4854671C3020
:10476000063D51312F3D1E4D421A3C14263038561D
:104770004D1749113756541665244D5326241651AA
:10478000114F151C2D11083718340C10141D303919
:1047900040484C516A51080D15191C242D354A23E7
:1047A0004D521D0E4D52655D164832512F511D3828
:1047B00043491037354C51192F412D51111B43419D
:1047C000383C5A3D481F410A114E4D0C151F241606
:1047D0004D1C24171D384315121410303439494C20
:1047E000506A4A4D13652D350C485D434C3A04140C
:1047F000243C54664911354314272D09331D5D3877
:10480000044E4D243F114D4B3B154D0424380E48AA
:10481000114F114D334D18483A3E0C4D2365050894
:104820000C11181D242C3039494C53383304143CD6
:10483000564811674D3924354011523D263833040E
:10484000142024303C485466173C17504C080C1D6B
:104850003034384A4D394B1D043D2130090C1115B7
:10486000182C3438404E2F532D163C156A492E4CC7
:10487000095F24501533241615110E511526325692
:1048800016503011650C0918353848545D6A1D15ED
:104890002F65313C4A154D1D3A4A15262D56116596
:1048A000090C181C282C30353941494C5154585F9B
:1048B000513C24330817041424303C4854664D15E9
:1048C000423924164D344A2E651D095D100C2435DD
:1048D0004B50164D362465152F0430080C1D1765F6
:1048E0003D0414265D6168410C11181C242C3034E1
:1048F00039484C516556154D3E36111F4D3E3149D4
:10490000240C414D164D160E15331115502D3B1D1F
:104910000968100C182C30343948514D43514D154D
:104920001D382D26113053394A6509510C151D20AB
:10493000242C564A240417511711554D3B25143E7B
:10494000173E14502D080C10181C30394E244D679A
:10495000113149355843651841161E3C16394956E0
:104960001426514D2441142D3324151E3D4D363847
:10497000062C5C5711344124510C09041830393C81
:1049800048545D670414243C563D1466514A110C8A
:104990003A110B513A3532144853503B67142615DF
:1049A000371131354B391115376506240C10153088
:1049B00035394A403B2E335E1C514F2D4D1D3A1563
:1049C000212F19384A4D0F144E1B1914485F041437
:1049D000253C563E2409584C672156334D0A4D3D1F
:1049E00012242D1750090C11181D303538414C5820
:1049F0003E314311382F041424303C485665163C90
:104A00004D1615240A4D110851331535244F041441
:104A1000243C5467681D0C11183035384C52154829
:104A200024534D31530414202430383C4854661527
:104A30002153512D110C35394B4D1D263015350C98
:104A400008382C40051C484C62144C512324144D4A
:104A5000322465174C4A283E42514C65170200002B
:104A6000000017000300031F0A1F161F0A19041372
:104A70000A15120003000E1B11111B0E0A040A0472
:104A80000E040018000404040010001804031F1191
:104A90001F121F1019151215150A03041F17150DE3
:104AA0001E151D0119071F151F07150F000A00000D
:104AB0001A00040A110A0A0A110A040115021F1F2A
:104AC0001F1E051E1F151A0E11111F110E1F151185
:104AD0001F05010E111D1F041F111F1109111F1F9A
:104AE000041B1F10101F031F1F011E0E110E1F0598
:104AF000020E19161F051A16150D011F010F101FA2
:104B00000718071F181F1B041B031C03191513008C
:104B1000000000007E0909097E7F494949363E416F
:104B20004141227F4141221C7F494949417F090976
:104B300009013E4141493A7F0808087F00417F4111
:104B400000304041413F7F08041A617F40404040AF
:104B50007F020C027F7F0204087F3E4141413E7F7D
:104B6000090909063E4151215E7F09192946264956
:104B700049493201017F01013F4040403F0F304031
:104B8000300F3F4038403F63140814630304780437
:104B9000036151494543D5F08D14A1C881CFD9F1A6
:104BA000AF2000080B00020202000009040000010F
:104BB0000202000005240010010524010101042463
:104BC00002060524060001070581031000400904C0
:104BD0000100020A0000000705020240000007056C
:104BE00083024000000403090412010002EF0201E5
:104BF000404123368000010102030141726475695E
:104C00006E6F204C4C430041726475696E6F204C8E
:104C1000656F6E6172646F00182F11241FBECFEF95
:104C2000DAE0DEBFCDBF11E0A0E0B1E0EAEBFBE6E9
:104C300002C005900D92AA3FB107D9F727E0AAEF6D
:104C4000B1E001C01D92A73CB207E1F716E2CDE04A
:104C5000D6E204C02197FE010E94C535CC30D107B1
:104C6000C9F70E947C2F0C94DB350C940000CF9385
:104C7000DF93DB0133E0B595A7953A95E1F7B6955B
:104C8000BA2FAA27B795A795A20FB11DA80FB91FD4
:104C9000AF5DBD4F67707727215011972F3FA9F067
:104CA000FA01E20FF11DE491F0E0062E02C0EE0FD2
:104CB000FF1F0A94E2F78C918E2B8C93ED01C05864
:104CC000DF4F88818F2B8883E7CFDF91CF910895C5
:104CD00090E121E061FD24E060FD220F62FD22955C
:104CE000687F969FD0011124A80FAF5DBD4F8C91B6
:104CF000822B8C93089580E0E1E2F2E081118FEF46
:104D0000002481938193819381930394D1F7089533
:104D10009091C207982329F49091C107982381E0CC
:104D200009F480E00895FC0180912002882311F1AC
:104D30003FB7F89482E08093E9002091F200822F3F
:104D400090E01816190614F481E090E0882339F0F9
:104D5000289844E640931F024091F10040832223AB
:104D600039F02091F200211103C02BE62093E800D6
:104D70003FBF08958FEF9FEF08952FB7F89483E01A
:104D80008093E9009091E800892F807295FF04C01C
:104D90009091F20080E4891B2FBF08958091170243
:104DA00081110DC082E08093130284E0809314028D
:104DB000109216021092150281E08093170283E18F
:104DC00092E00895CF93DF931F92CDB7DEB769834A
:104DD000DC01ED91FC910280F381E02D41E050E097
:104DE000BE016F5F7F4F09950F90DF91CF910895BE
:104DF00083E08093E9008091F200882319F08AE330
:104E00008093E80008950E94BD2690E00895CF9316
:104E1000DF931F92CDB7DEB7FC018485958597FDA2
:104E200008C02FEF3FEF358724870F90DF91CF9198
:104E30000895CE0101960E949326019719F4898165
:104E400090E0F3CF8FEF9FEFF0CF0F931F93CF93AF
:104E5000DF931F92CDB7DEB78C01FC018485958569
:104E600097FF0BC0CE0101960E949326019771F423
:104E7000898190E0F80195878487F801848595857C
:104E80000F90DF91CF911F910F9108958FEF9FEFBA
:104E9000F1CFFC018485958597FD0BC09FB7F894F1
:104EA00082E08093E9008091F2009FBF90E001963C
:104EB00008959FB7F89482E08093E9008091F20012
:104EC0009FBF90E0089540910D0250910E022091F5
:104ED0000B0230910C0242175307B4F49091E80092
:104EE0009570E1F39091E80092FD19C08093F10074
:104EF00080910D0290910E0201968F739927892B54
:104F000019F48EEF8093E80080910D0290910E02CB
:104F1000019690930E0280930D0281E0089580E047
:104F20000895EF92FF920F931F93CF93DF93F82E84
:104F3000192FE62E042F81E0860F880F0E94632729
:104F400083E00E946327CF2DD12FEC0EFD2EF11CA4
:104F5000CE15DF05B9F007FF13C0FE0184910E9452
:104F60006327182F80E00E946327812321968111F7
:104F7000EFCFDF91CF911F910F91FF90EF900895A8
:104F80008881EDCF81E0F5CFDF92EF92FF920F9312
:104F90001F93CF93DF93D82E8A01EB017B01E40EA0
:104FA000F51ECE15DF0559F0D7FE12C0FE01849123
:104FB0000E94632721968111F4CF0FEF1FEFC801E4
:104FC000DF91CF911F910F91FF90EF90DF900895A7
:104FD0008881EECF0F931F93CF93DF931F92CDB7AE
:104FE000DEB782E0898342E450E063EA7BE480E854
:104FF0000E94C4270E94CE26DC0112960D911C91BE
:105000000115110589F0D801ED91FC910280F38121
:10501000E02DBE016F5F7F4FC801099597FD04C069
:10502000F80100851185ECCF89810F90DF91CF9138
:105030001F910F910895615030F02091F100FC0113
:1050400020830196F8CF289884E680931F02089564
:105050003FB7F8948091030290910402A091050259
:10506000B091060226B5A89B05C02F3F19F0019606
:10507000A11DB11D3FBFBA2FA92F982F8827BC01B2
:10508000CD01620F711D811D911D42E0660F771FDA
:10509000881F991F4A95D1F708958F929F92AF92DA
:1050A000BF92CF92DF92EF92FF926B017C010E9440
:1050B00028284B015C01C114D104E104F104B9F0CA
:1050C0000E942828681979098A099B09683E73405B
:1050D0008105910580F321E0C21AD108E108F108A9
:1050E00088EE880E83E0981EA11CB11CE4CFFF90CF
:1050F000EF90DF90CF90BF90AF909F908F900895EA
:1051000065E070E080E090E00C944D288F929F92D3
:10511000AF92BF92CF92DF92EF92FF920F931F93C5
:10512000CF93DF936C017B018A0180910B0188236F
:1051300009F45CC080912002882309F457C0809153
:10514000120280FF05C08091E00082608093E00041
:10515000E801B12C8AEFA82E93E0892E2AE3922E43
:10516000209711F4BB20D9F10E94BD2681110AC0FD
:10517000AA94AA20D9F161E070E080E090E00E945A
:105180004D28EECF8C171D0611F00CF08C2F9FB719
:10519000F8948092E9002091E80025FD02C09FBFAD
:1051A000DFCF282F30E0C21BD30BF701815020F056
:1051B00041914093F100FACFE20EF31EBB2021F0A3
:1051C0009092E800B12CEBCF8091E80085FDE7CF0D
:1051D0009092E800BB24B394209709F3F3CF5D9835
:1051E00084E680931102101611063CF081E090E0F5
:1051F000F6019383828310E000E0C801DF91CF9134
:105200001F910F91FF90EF90DF90CF90BF90AF90E4
:105210009F908F9008950895CF93DF9326E0CAE082
:10522000D0E0E22FF0E0E650FE4FBE010E94B13523
:10523000805D8083CB012150009799F7822F90E009
:1052400085509E4FDF91CF910895CF92DF92EF92DC
:10525000FF920F931F93CF93DF937B016A01E901C4
:105260000B5F1F4F4991442379F04F7185E048024D
:10527000A0011124415F544B25E0B601C7010E94F3
:105280003726E00EF11EEECFDF91CF911F910F91E7
:10529000FF90EF90DF90CF900895EF92FF920F93E1
:1052A0001F93CF93DF93EB018A017901F7014191BD
:1052B0007F01442371F04052F3E04F02A00111241A
:1052C000425A554B23E0B801CE010E94372624965E
:1052D000EDCFDF91CF911F910F91FF90EF90089547
:1052E0002F923F924F925F926F927F928F929F92F6
:1052F000AF92BF92CF92DF92EF92FF920F931F93E4
:10530000CF93DF9300D01F92CDB7DEB78C013B0166
:1053100049015A01CB018755994F2C01DC01AE5F41
:10532000BE4FBA83A9831B01BFEF2B1A3B0AE09142
:10533000B907F091BA07EE0FFF1FE95BFE4F01902E
:10534000F081E02DE00FF11F24912B83E22FE595F2
:10535000E595E05CA981BA81EC93F0E0E451FF4F60
:10536000A081B0E0A50194010E9459356B017C0138
:10537000BB81B0FF28C08091B3079091B40701971B
:1053800009F078C0E5E06E167104E9F48091B50784
:105390009091B607A091B707B091B8070197A109FE
:1053A000B1098093B5079093B607A093B707B09360
:1053B000B807892B8A2B8B2B31F46BEA77E089EACB
:1053C00096E00E94D435A091B907B091BA07AA0F10
:1053D000BB1FA95DBE4FC801969587959695879589
:1053E00026E0289FF001299FF00D11248D919C91BA
:1053F0008E0F9F1FF801E370FF27E330F10509F0DE
:105400005FC0FC0131963491329644910596FC01BF
:10541000849132953F70407F342BF0E18F9FC00123
:10542000112488279F70832B009729F0A7019601EC
:10543000B1010E9470290F5F1F4F2B8121FF77CF91
:10544000F201EE5FFE4F10820F900F900F90DF91F0
:10545000CF911F910F91FF90EF90DF90CF90BF9071
:10546000AF909F908F907F906F905F904F903F9004
:105470002F9008956091B5077091B6078091B70796
:105480009091B807A70196010E946C35672B682B95
:10549000692B09F098CF8091A9079091AA079C01E8
:1054A0002F5F3F4F3093AA072093A90753E0880F3F
:1054B000991F5A95E1F76BEA77E08755994F81CFAD
:1054C000EE0FFF1FE80FF91F859194919F70ACCFED
:1054D0009093B4078093B3071092AB071092AC0778
:1054E0001092AD071092AE071092AF071092B0075E
:1054F0001092B1071092B2071092AA071092A90752
:10550000019709F052C08091BB07882309F446C077
:105510000E94CC3421E633E040E050E00E943A356E
:105520006F5F7F4F8F4F9F4F6093B5077093B607A4
:105530008093B7079093B8071092BA071092B907F3
:1055400021E030E040E050E070E060E08EEC91E07F
:105550000E9470298091BB07811130C081E090E0EA
:105560009093BA078093B90721E030E040E050E023
:1055700070E060E082E594E00E94702982E090E0B3
:105580009093BA078093B90721E030E040E050E003
:1055900070E060E086E992E00C9470290E94CC34BF
:1055A0002EE936E040E050E0B9CF4093B507509384
:1055B000B6076093B7077093B807BECF08958F9270
:1055C0009F92AF92BF92CF92DF92EF92FF92CF93D2
:1055D000DF93CBE0D0E086E0C82ED12CE12CF12C7B
:1055E0000E94CC34A70196010E943A354B010E94DB
:1055F000CC34A70196010E943A35D401A357B94F84
:105600002C91FB01E357F94F80818C9320832197E4
:1056100039F7DF91CF91FF90EF90DF90CF90BF905F
:10562000AF909F908F900895DF92EF92FF920F932B
:105630001F93CF93DF9300D000D0CDB7DEB780E0CB
:1056400091E00E942435898381E091E00E94243515
:105650008A8382E091E00E9424358B8383E091E08D
:105660000E9424358C8389819A81853C904931F050
:1056700085EC90E99A8389831C821B82809189063C
:1056800090918A062B813C812817390710F49C835E
:105690008B83CE0101967C0100E011E0F701D190EF
:1056A0007F01C8010E942435D81621F06D2DC80154
:1056B0000E942C350F5F1F4F0430F1E01F0771F778
:1056C0008B819C8190938C0680938B060F900F901A
:1056D0000F900F90DF91CF911F910F91FF90EF905E
:1056E000DF900895CF92DF92EF92FF920F931F9376
:1056F000CF93DF93809164008E7F809364008091CC
:105700007A00806480937A0080917A0086FDFCCFD5
:10571000C0917800D09179000E942828AB01BC018B
:10572000CE01B0E0A0E0DC01992788278C019D0123
:10573000040F151F261F371FC901B80120916400EF
:10574000216020936400611571058105910511F0B8
:105750000E941B3540E050E0BA0181E090E00E94D9
:10576000682AC9EAD6E0C12CD12C7601C394E9910C
:10577000EE2371F00E2E000CFF0BE451FF4FA081C1
:10578000B0E0A70196010E9459356B017C01EFCF73
:1057900069EA76E08DE896E00E94D4351092A6067C
:1057A0001092A5061092950610929D060E94DF2A7F
:1057B000B701A60182E090E00E94682AF090A90754
:1057C000FA941FEFF11671F1C9EAD6E0E12CEF145B
:1057D000BCF78E01085F1F4FFE0101900020E9F722
:1057E00031978E2F8C1BF80101900020E9F731973B
:1057F000E01BE8175CF4DE015096F801EC17FD079A
:1058000071F082919E9190838C93F8CF8E1307C094
:10581000B801CE010E94CB351816190664F3E39443
:10582000E801D5CF1092820610928106109284066C
:105830001092830610928506109286068FE097E2FA
:105840009093880680938706DF91CF911F910F91E7
:10585000FF90EF90DF90CF9008951F920F920FB6B8
:105860000F9211248F939F938091E1009091E1001A
:10587000937F9093E10083FF0FC01092E90091E0C5
:105880009093EB001092EC0092E39093ED00109255
:10589000200298E09093F00082FF22C093E0909362
:1058A000E9009091F200992319F09AE39093E800AF
:1058B00090911102992341F090911102915090938F
:1058C0001102911101C05D9A90911F02992341F03C
:1058D00090911F02915090931F02911101C0289A3C
:1058E00084FF18C08091E2008E7E81608093E20088
:1058F0008091E1008F7E8093E100809112028E7E84
:105900008061809312029F918F910F900FBE0F9034
:105910001F90189580FFF7CF8091E2008E7E806106
:105920008093E2008091E1008E7E8093E10080917F
:1059300012028E7E8160E5CF1F920F920FB60F92FA
:105940001124CF92DF92EF92FF920F931F932F9328
:105950003F934F935F936F937F938F939F93AF93F7
:10596000BF93EF93FF93CF93DF93CDB7DEB76C97E1
:10597000DEBFCDBF1092E9008091E80083FF25C013
:1059800068E0CE0145960E941B2882EF8093E800D4
:105990008D8987FF39C09091E80090FFFCCF982F48
:1059A000907609F034C19E894F89588D2F89F88CE3
:1059B000911131C0803861F5809110028093F1001F
:1059C0001092F1008EEF8093E8006C960FB6F89479
:1059D000DEBF0FBECDBFDF91CF91FF91EF91BF91A1
:1059E000AF919F918F917F916F915F914F913F9177
:1059F0002F911F910F91FF90EF90DF90CF900F901C
:105A00000FBE0F901F9018959EEF9093E800C7CFA0
:105A10001092F100D5CF913059F48111D3CF41309C
:105A2000510581F6809110028D7F80931002CACFBC
:105A3000933049F48111C6CF4130510519F6809158
:105A400010028260F2CF953041F48091E80080FF2F
:105A5000FCCF20682093E300B5CF963009F0A9C0B1
:105A60000B8D1C8D22E01092E90010920E02109214
:105A70000D02F2122EC010920C0210920B020E9424
:105A8000EA271F8299E09983FA8291E09E8390EA47
:105A900098879AEF998720910D0230910E02275F27
:105AA0003F4F3C832B838D831092E90010920E02AE
:105AB00010920D0210930C0200930B0249E050E08B
:105AC000BE016F5F7F4F80E00E94C4270E94EA27DB
:105AD00079CF10930C0200930B020E94CE26DC01BA
