:100000000C94CC250C94F4250C94F4250C94F42534
:100010000C94F4250C94F4250C94F4250C94F425FC
:100020000C94F4250C94F4250C94662C0C94D52C8B
:100030000C94F4250C94F4250C94F4250C94F425DC
:100040000C94F4250C94F4250C94F4250C94F425CC
:100050000C94F4250C94F4250C94F4250C94072F9F
:100060000C94F4250C94F4250C94F4250C94F425AC
:100070000C94F4250C94F4250C94F4250C94F4259C
:100080000C94F4250C94F4250C94F4250C94F4258C
:100090000C94F4250C94F4250C94F4250C94F4257C
:1000A0000C94F4250C94F4250C94F425024D0C309A
:1000B0003F1E10612C3C080D2831353848554D2322
:1000C00038161B21090C101C2435383D484D505C56
:1000D000324211271507514125080C181C303539BB
:1000E0004A250E6414261D38123937261504230CB0
:1000F0003326104D2C305A103D5215243E244F1AF1
:10010000384D1B503E4B320414243C546A052E5685
:1001100049322E2416151F6A4A1C4C0553651536A4
:10012000050814243E14262C403048585E3B3D04FC
:10013000381C520C32041424303C545E04400D1C14
:1001400024083035383D4C5054585E1432144F1545
:10015000654F3E21165E484D531C4B1C2615510B16
:1001600054146624421448500E3A05140C27051402
:10017000262C4D18306808103448500E12051639D8
:100180001D2E4D32041424303C563D0A05485F3C78
:10019000421530522F5214676514266104090D1060
:1001A00015191D2025283035383C4144484D5158FB
:1001B0005C6B653A04142024343C546665250D3D7F
:1001C0004D49531054055224045665140630123418
:1001D000114F054D165026102736153C2626143E85
:1001E000142622380714546A0524140C383C4A504B
:1001F000114B1E1C565141101C4B1E16243E213C17
:10020000525506654D14511E19495A0E14243C5678
:10021000493F1009141C2D34384145484F04141C23
:10022000243C50546624543E2C2324381E4D3E0D4D
:10023000383C625219516821304842543225053BFE
:100240000458573D173D050E144214223E301F40FE
:100250003E653234251625112D3E3D50264D4A4D22
:10026000320514243C6635400A1554272606052617
:1002700011404C523D052552041C22143E160556D1
:1002800048532C3A510B080C1114181C30353940C6
:10029000485963064033191534505A2537054C2206
:1002A000152215330C5233514F4D16126516112D70
:1002B00032510548394F24162440153D4F05251766
:1002C0000516546722640414243E3E3D4D050E4D30
:1002D00052364A194D3A69400C10181C3034384DCA
:1002E00052054A15613C646B513430101D05244899
:1002F0004D0A1D3F5604141D3038485062053A51CE
:100300003E24553C0561680D10181C2C30343840D3
:10031000484D5204163E09140D10181D2C31353865
:1003200040494D506A05080D111D20252C313439E6
:100330003C40494D51545C606A4D163C561C3E3E53
:100340001619655135384D161C17140E24303C54BF
:100350005C662556493818301D545C4D23150465DC
:100360001C3E403424333B10161A1049533D144DA3
:10037000511032050C2538632A10261E04162E2C27
:10038000210C103135383C40484D50545F24412DEC
:10039000103848564C4A0C3915320414243C560C7B
:1003A0003A314D0615244811565D3A3016143C5624
:1003B000191D095A2614243265251215390D1C09F8
:1003C0002C3134484C555862513848172534431461
:1003D000324C174D534D56543D162417244D12548C
:1003E00011241C4C0914433F14103A313A243C4A5E
:1003F000054065163C12054D173D2F544D3F244ACC
:100400005E2516143E1B3E18080C10141C404C5060
:10041000606A22210411141D3135383C484D505D6D
:100420006A40080C3932224D211830112C581C25F5
:10043000293438404850545C646A08140C11181D63
:10044000242C30383C40494C50561A08143B143E7A
:100450002C154F2551410D1015485B56655149111A
:100460003B151834094812251A544F513A65320584
:10047000254D2D4015322152650C3438235A3A3D12
:10048000245D352C15080C303840484D5159602BEF
:100490000834424D145126061426302D0E10152412
:1004A000303E51143D6614264D3E142604210D6144
:1004B000101C24303840484D50545C64352F124D88
:1004C000243665165514261B4448050F055551154D
:1004D00064324D1567043058090D10141D2C353841
:1004E00040484D50606A4E544A1D34584E1D48389D
:1004F0004E1526044D6169080D101C3138404850D6
:1005000066103650101C3D67563C06154D303E14A3
:100510004405204E6549533E3D25161B0C3842527A
:10052000263D4D10400A0A15040D10181D243035C3
:1005300038494D50546064680A3A4D33361D0934C9
:100540000C142438484C5054585E1205245249214A
:10055000413C05140C322D054F18302412354354FC
:100560001A262404143C485616251F25303F3832DD
:1005700015615C1D30485224180D11141D3138408E
:10058000484D515D62154D083E243D331132211E08
:10059000243D65382C0E3A3005273F11494F25314F
:1005A000503F3D6524500416243E3D533A116705E3
:1005B000152D4B150E15044D570436040C1420242C
:1005C0002C3034383C40444850545C660E551F3340
:1005D00008192C142610141E053C4D2624503A32BE
:1005E000314E491153223D4025176517054D2464AE
:1005F00016543F172406243E0C524D4224144C102E
:1006000018320E382E390F144D07104D500C151E90
:10061000315A155215254F154D1E485F100C143CCC
:10062000501C3A144D653214080C10181C20242C50
:100630003034383C40484C5054585C621624164DB7
:1006400032141107264D0E11041B491D51403B0663
:10065000150524303E21523042354A2E30123C3AA4
:10066000141C2C303439404850094D0C12301A3FBC
:1006700050370414243C54661D3A152616154D2691
:10068000041420243C4854664C0E65552C583043C5
:10069000154D420D544E415F654131064D214A537F
:1006A00006143F4069440D10141D25313439494C5E
:1006B000505B652708301721502E05173D2441480F
:1006C000565141132C131117224D2E1431340D2F76
:1006D0002438154A253C423E40172D481E14053C3F
:1006E0001C242C3867550A413A5409350C111C3921
:1006F0005D2F422152141C3A1C102C3034384048D3
:10070000505A06651D2C4D3D160642143F15053CFA
:10071000252A152C09040C10181C24303439415199
:10072000585D623D1424485466323C072614562412
:10073000211C5C040D10142C303840484D522D52B1
:10074000491405323224363C354F1D162D224C52A9
:100750001563153A243C1452302F6331423D245026
:100760003A36412F34403058104852153250241632
:100770003254161D050C382E3714243C54662405BB
:10078000360523124D26483B1A31131525363C6B8E
:100790000A1F21271605264D120A4D0B3E06052578
:1007A0004D12041E0426054C3E58564214674C0454
:1007B00014182024303C4854662408153B10243378
:1007C0000C360414243C563034383C4044484C50D9
:1007D00054585C60646A0856140C1C514A19480647
:1007E000143D4D26303940506A21052615244C060B
:1007F00040153F4D083543314A4D151C4A4A226584
:10080000143214063A514C400B14561A0424164D57
:100810000531670A3813514E1C245D555930343860
:1008200040494D0F3F1532343B14044F04161C074A
:1008300021144F1D5830423C0538572406156524B5
:10084000561D083C5238524D16154D3E30080C10BE
:1008500014181C2C34404C503A5611394024230EA5
:1008600014303A151F306516041420243C546604D5
:100870001420243C48545C66584D50111D303948B2
:10088000681650163D054D262C26264933041A2C91
:100890000C11181C313438494C5213170425080C1C
:1008A00010141820303440484F144F241453152C82
:1008B000560414243C561A2431162605103D4F4D7B
:1008C0003C2D5056161304142624312D52080C14B6
:1008D0001C303C404950545E155452053E515C0852
:1008E0001D393C484D4351322515074932653E15A7
:1008F0002C4A5126250C2C1E65261E654D271432C8
:10090000203C1E06504E244D51314010493B150CE1
:10091000205219501458050C101C3034393C404EEC
:10092000442D4C52146A650416155D1C3C350408B0
:100930000C10242C394048596821323D05252E25BC
:1009400056344216421D4E2F3C0C10181C203034D9
:1009500039484D51616A113039414A315F261025BD
:10096000061E0C15053E140432514C14303A301654
:1009700021051424303D48545E0414243C48566537
:10098000054F14311C485A05422408502C041014F9
:1009900030384A10153A14324D1524070202113925
:1009A00058084E2D384C174D22103850154F153A17
:1009B000651D1413061615654D3448091924384071
:1009C000532D464D3A4813041450485466153F3190
:1009D000243A3C36091748405A55041014262D5223
:1009E00015054F04142630171638536516102517B1
:1009F0005114303E36152615245251142C4C3A48C9
:100A00004D05141C2430343C5619390B21240C5547
:100A1000086560101C30393D484E341E4D3C074E71
:100A20004D101E3814504A311C4A390F2605163213
:100A30000521570C08341C242C384A1E4D2406511D
:100A40004E384C504A323134092D3B3D2441322F2F
:100A50000524151E3D14414E4C4B4D64163D55204A
:100A60004A050814283D654F15511A1450244D09A4
:100A70003C414954053225664108384A214D142429
:100A80005412154865240A4E080C100414181C2032
:100A900024282C30343840484C5054585C60646AE8
:100AA000325D140665241E4D5010321424505751E7
:100AB000394D10344A3D1E3A14323D321D090C1195
:100AC0003438484C6A52304A305651400D493A3D0C
:100AD000394D30531F05165E0535124D5611384EEF
:100AE000064D2405166504111430393C484C505607
:100AF000143E650C320D3C545C684A0414243C5688
:100B00004805274C165E040C4C563D121D2D3A51DB
:100B10003A4D1D18303C485651114B0414243C5694
:100B2000392F6534040C10141C243139484D505AA7
:100B30001430525168564C162D230414243C563957
:100B400014240C3040522416051508493B17501444
:100B50001804080C101C242C3134383C40494D54E6
:100B6000585C61692216510B0C381E3804144A581F
:100B7000121420243E2F680B0C3A1537240C530412
:100B800014243C5466240C1D2E051C3E14260552CC
:100B90003D2D0C243A052D4A19083442163016060C
:100BA0004D16150D4C3E15395A153A2C3E070414B6
:100BB0002024303C48545C663B14264D243F1524C9
:100BC000103A4D1408041C2C3035393D404811674B
:100BD00004080C1014181C2024282C32200811188A
:100BE0001C3034383C40484D50545C642624041476
:100BF0003C5736304D3A262827052409360C1D3837
:100C0000484D3E493A50333D0A65690C1038051588
:100C10001C202D404D50555963315F5112301153F6
:100C200031214F590E1C4B1467162104080C101863
:100C30001C2431353841484D5056054D0C2F141C9D
:100C400012110F351430425D2D144A420651343AC8
:100C5000491E214D2D410810141D24313439485CA2
:100C60006A164D300614564D0840101C5034394A4F
:100C70006455051427484D2C38301C080C101824D6
:100C800050561E24213A6521553C04350C14303948
:100C9000494D51123C3B3C56041424303C485611FB
:100CA00051243205533E490E4A3D0A2C214F166B02
:100CB000544F2432103C1426143E14363D5117650F
:100CC000103D26143E511C37160414202430383CA5
:100CD0004854586665560816142436501C423A315A
:100CE0004B4D05091014181C2430343C5156140780
:100CF000151C664D2E4136150838364D1625164DF5
:100D00000C3250121557150614485E4C33064D61CF
:100D100065050810181C24383C404956350C394BE1
:100D2000053D101533194D520A495F10150D303429
:100D300039404C5066160C5062142E343A621B50E7
:100D4000081C34404E39400D56151E043C563C16C6
:100D50004F1A30163E245306513D1C2F150C1E26EB
:100D6000044A55485A4D3A4251422416151E214C08
:100D7000080D10141C243135383C4950545D646A08
:100D8000152654044A5C080C1014191C24282C3114
:100D9000343840484C50545A08173C5515303848A0
:100DA00052303A510E52303E41500A2C26050C1555
:100DB0001C252C3C4C503A4004361C080C101419CD
:100DC0002C30343840484D515A041614272D3052D7
:100DD00039514E381E060E354D1950650A4D1038E2
:100DE0002E490414243D56123D06145626141F3273
:100DF0003511394F6524163D320D3B155726504F9E
:100E0000510E16050F4C2F043E254D57145206095E
:100E1000175A2416050C101C39154B041424303CA9
:100E2000485466644D54090C1424344858521C54D8
:100E30003C585C423C32246516245832113214244A
:100E40003E04080C11151831383C40484C6B4D528B
:100E5000053E164D2D1E4D111509191C3034384113
:100E6000485351305A214D533C163D2104104C0C2F
:100E7000151C242C303438414854585D646A514D57
:100E80004A142F0D1064251638521D321B653E047E
:100E9000243E530A0C2C4F4916176A0414202428A8
:100EA0003C48545C662E19630A050C503F16651EBB
:100EB000150D1B2152650C601006053E495E490464
:100EC00014243C561034091A4014260414243C56A9
:100ED0002F14403E156A1626395235084E05202E2D
:100EE0002515523215650C585F042C38162E2C1C13
:100EF00004080C18253035393C41484E244A392520
:100F000016051D283A3924490E24340820282C4C73
:100F10005012380E14092E304F041E053D26513054
:100F200038404A640414243C566516251406513989
:100F300026250D43490F246532200F04142726046B
:100F400014243C54664D652124092C0C141D3038A2
:100F500048505462400B18514F15480C1C385F4DD7
:100F6000384A24164D24323D4D5824612D32251522
:100F70002C063A05653D4F3E302F16105C04090CD7
:100F800014191C242C31343841484C505961675293
:100F900021045424080D3538494D51596468124DC7
:100FA000240C1634540A24425423161C434D3A1D73
:100FB00050103034406B046A364D16400A5804080D
:100FC0001C38504A21401A3C0C0811151C30353988
:100FD00040494C5154585C646A501D164D58314B71
:100FE000391B310C34384857540834421C304A3DC0
:100FF000655D52152E05190C101424303439414802
:101000005066651030684D16046859101424313448
:1010100038484C5215394B314F51043651041D326A
:1010200024385116241C3E21154649113325064A01
:10103000253F14243E04142442383210142428304E
:10104000344D6B36501D06245214384F0804244288
:10105000060A2634330E153E444E3D0A113A153425
:10106000654B49114F2407155230104C181E502F54
:101070001A5624164058681A3D244A411C18100C70
:10108000303439484E5205102C0936395616500C5A
:10109000101C253B090C10181C20303438494C50CA
:1010A0006A4D4A2230162D0E202E24500A4D540629
:1010B00014053F263D312F3404080C1014181C3041
:1010C000383D484D522F581D0E42140835444A0CE5
:1010D0002C113B0E240651143A4D38241615324D6E
:1010E0004250322212664D1B614A384E22142604A9
:1010F00014202430383C48545C6665143C574D2C11
:101100003A0C5010182E30651E115C40144E0E3EE5
:10111000050A320466264D06041424343C54661A2B
:10112000243E051424393E1C2C1239140C24304C56
:1011300058491B654238363E150A31394814371C68
:101140004E1B4F3D32262C043F3205153F14064CF2
:101150003A651625083605111D14092D3140444AFB
:1011600030174B261834481509382E114D2C6B506A
:1011700024041031383C41484C0E24301651670489
:101180003E39501C36360414243C4856391F153E4F
:101190003C051704081C382E241C15671526151C41
:1011A000053D2E3E153D2E505A654A3E0516140A41
:1011B00030562404141E2F2F143E2C1904080C1032
:1011C000143034383C41494D52284053120C1E3DD6
:1011D000573E3341140A2056333F682636511615C0
:1011E0001D393C4D56653231412E0A0C4F4A1424AC
:1011F0003E1D2D3739113D53310C1E5C04080C1077
:1012000014181C242830343840484C5060664D1265
:10121000150E26225004080C10181C2C3034383CB3
:10122000484C586A4D3E15354A3A141C2222651620
:101230003C504E52164932382C08101418303540A4
:10124000484C5231120938401250262D4A0C3E6546
:101250001D240C3A35400C3A1B143A063014263D36
:101260004D341526154E26044D1118243454224DA4
:101270003015511B2D6A3209141824344A213808BC
:10128000345C040C1014243041485158644E07500B
:10129000243C34432C3A4E1027653F1506143E3C3F
:1012A0002416244A0516084C1C0C242C5054326673
:1012B00026251702024C1138495143115130583E2E
:1012C0002D21414F1A4D1E2416504D073143240441
:1012D000143E3D512F6518411608415A051C4956C8
:1012E000514D1748411815080C34101C2C30395337
:1012F0003A155223115061340C1C3038484E410CC1
:10130000101804141C30394951616A4D3911575D68
:10131000243E34424D2D49533D1E3D56650514244F
:101320003E514111192F14074A485815323C535069
:10133000304C48080C1D343A514A224D1E390E32A9
:10134000324C13103A4D1D170D311750174C0C1716
:101350000414243C546635512C0C41113038484F4C
:101360000414243C54661D17655D162D093365254C
:101370000711344151090C24041830393C48545D9C
:101380006715244A3E34511D5D090C1530383C4127
:101390005604166509240C1D3441485A3D14664D07
:1013A000311558510B4D3137115D040C1524303473
:1013B000384850546B2F1406491C175611391950D0
:1013C0000A150B20174C1330080C1D174D0C151F58
:1013D0003541510C113A04143C56040C15202438A4
:1013E000485136381D5009656841243134484D5400
:1013F0005E05165C4A0E1D5D110C051530393C4129
:1014000049531D1130180C3538484C52380B193AD5
:1014100015240A314D53650414243C5634144E10DF
:101420001526410C33154A151E40261523503B3D09
:1014300050300841355A410C381E3949563149411E
:10144000115A480E52242C3C1567304C04081114D4
:1014500018243438404850590E3215090E115809D5
:101460000C181C2C30353941494C51545D675124BE
:101470002D110C17514D1635410C4A3D160E2E38C4
:101480003322240C10153035394A04142024303806
:101490003C4854664F3B0C3815111D2F4A1D2458EB
:1014A00004403C5F3E1141092C0C151D3035393C80
:1014B000485A384B04081E38121D0E3005153439B1
:1014C00040484C622D11320415090D1C1221244D87
:1014D000174138526530051C384D153E513A4D5173
:1014E00041142D333E1D304A11515D41676504158D
:1014F000243C48560C06083D171C38314B3151240A
:101500005D0C111C3941494C5867313A3011655016
:10151000090C6818353848545F3C4D162F51410C62
:1015200011651F1523155F113541174D65152D0CDC
:10153000125D4C0C3C3A1114343F650414243C56A3
:101540001149510C4D39160415261511531C15510E
:101550002F57241654222D0C4B11244C5C040914D3
:1015600030383D4851561E4B5D0E64041420243C17
:1015700056041524384851634930343A354C5119D2
:101580002F54164C413365510C040911181D242C9D
:101590003034393D4148545F42483214304F144A88
:1015A0002F65154D3F15260414243C561115510581
:1015B0003E4915184E1C4A4D183A38170414202479
:1015C0003C48545C663104513515384A0C4D23486B
:1015D000152435653B31134D241604243C56313512
:1015E0001B090C481D353A3C4D432D1E1604143C76
:1015F00056540414243E56114D150C26246517111B
:101600004D530514243C561D51580C1028303439C4
:101610003C40484D545C682417041424343C415623
:101620004D353911520843103F2404143C562E48BE
:10163000160432490C511E4C1D1830043439485AD6
:1016400049141D38405D114C3C5156142432394A1E
:10165000483741153B1165355D414C3B243E1D0C1F
:1016600018403410143039484C516A152F14061C98
:1016700026581B11392D19584A41112F2465170876
:10168000174D15073C162D1723214F3511314B4DA2
:1016900015381D534C0C1D2C15303439415321176E
:1016A00015263D152665161B381C410E04080C1026
:1016B00014181C2024282C3034383C4044484C500A
:1016C00054585C646A112D35151E2416084F4D3E82
:1016D0002465152F041424303C4856500E152D1F38
:1016E0001C4D5315244111180930494C530414243E
:1016F0003C565124303B1D390B5506241408571D08
:101700005D4C0C3C430414243C54671114383C4891
:101710004C52144E3E0414253C5624040C144052E2
:10172000111F38653724165D094E4D3641300D4D79
:101730003B5D19144A0C581C494C5304080C1018F2
:101740001C202434383C40485054585C32321151EB
:1017500061410C655D541D243034384C5A3E244C94
:101760000965583A51381715300C40114C04093CA2
:101770005154585F4D173941112D354D4B49113793
:101780000414243C48545C661533364D3E540626FA
:10179000164D65310A14113A4D51111F4911354D3D
:1017A000431526424D3A41313B4D040A391E651618
:1017B00051080D15191C242D354A485139110409B9
:1017C00015243204142453114D1419334D26243991
:1017D000233C1714115F24173D50114D1750080C6E
:1017E00010181C2D394E65063B484C65392C5D5848
:1017F0001D410C243568530C1A2651154A495214C0
:101800004D32040C1420242C3034383C4050545CAD
:10181000661911353B11312D1B4D520911153B4DE8
:1018200052201614202430383C06113141584937D3
:1018300015300410343A383F06610C3153043852E5
:101840002D562D1615481E04164A484E3224614165
:1018500051581004090C1D383D484C545F115D1659
:10186000041524313C414C520409111D2C303948D7
:1018700053394817515619044A041561381D303C34
:1018800049545C410B38171531112F6551244F28ED
:101890003E51144A3C041014303439484C5315312D
:1018A00053513C24336514264D4114303726111D05
:1018B000510C5824303538484D675D611511074D7E
:1018C000243C2211511E3D142651113B1D301A2477
:1018D0003E114C0C30393C532417655D412D0C4CA6
:1018E00039340B205222171D1512345D301C24523E
:1018F00050101C30343840484E1D043D2130090C36
:101900001115182C3438404E111504384D1D2F1167
:101910001D395A1506492E12651526050C2056301C
:101920004A04212F4D5165151E2F514A4D656110F6
:10193000041424303539495F316151091C0C1435C8
:101940003843153C1351313E11413137352D0C26AA
:101950001A43164D115133651D51090C1520242EC3
:1019600024500C1018304E511B3E153E15512118B5
:1019700009481D3035384E3414680C103039494C44
:101980005261114F345161304C0C11243949545873
:101990000A4D161351411D3A4D4157485D0C5804EC
:1019A000152460513E15212F493539142D09514F09
:1019B0003148653E4D52655D350C48412F565130DA
:1019C00009342C1D39104A4914410C4D33495665D0
:1019D0003D41091742115141301814353B364D0F26
:1019E000244D1F04273C1C1756425105151C303846
:1019F00048585D6304142024303C4854661505247F
:101A00003E2E1165155133143C4D671526230414E1
:101A1000243C54662417540430164D1D0C372533CE
:101A2000413016483914353215484C416524181C8C
:101A30003035393D51545F2D1656301535050C089B
:101A400038401C2C4C623A0C504D17650414243C51
:101A50004856350E650414243D5615263065171575
:101A60004D2F48334C352D08103C58311B303C501D
:101A700035090C11181D38414C5A143215511B14DC
:101A800051234D243F512D1D0E355165144C390401
:101A9000321D4D174D15331D0F51154F2D1C4A2466
:101AA0004D15374D39412D51371D080C11242C305F
:101AB00039494C516507355D0C3A541153203E129B
:101AC0004C651C0952152431522E0414243C5466D2
:101AD0004D394B0414243D672D4815531564313F8F
:101AE00025173A14261433160B4D161533512415A9
:101AF000426506111C152F4C2F384C511E505D04A9
:101B0000080C15181C303439404E2417264D241764
:101B1000153C2D26486715313B4D344A4D140E2196
:101B2000560414243C54670414243C5567674D1133
:101B30004B651D143842392E1D5D044E4811673C1B
:101B40002C04081014181C2430343840484C5058C9
:101B50005C6066114D24314149392D5A413C3A4C63
:101B6000512C1D10343A11530414243C56391C26B0
:101B7000163C2624413F1D092C5D37095D41535118
:101B80001526152D060524173942304D0B053665EF
:101B9000512D0E4D205649093B2D4E381D493721F8
:101BA0004F5D4C04144204142024303C484C5466CD
:101BB0004D13510C381C4B5D61300C6811181C24FE
:101BC0002C343941484C51655656481524534365C9
:101BD000411C39493250233151174D51151D2F6584
:101BE0000A1427112F1C6A38410E1D35090C3A19A9
:101BF0002D49530441303C11080C15181C2C343865
:101C0000444C515A06113941194D1E1115353B519D
:101C10001133116504141C51564951312F6A1D5D51
:101C2000510C3A153106041424303C485466303FB8
:101C300014683765163806561125611C340C142CAF
:101C400030383D41484C51563C2611152D3B16521B
:101C5000491911313B15110E4D53652461112C307A
:101C60004D581D3849524D1D4109182C0C3034393E
:101C700048516A1615511D0910243035394E1D0D75
:101C800009515F394B313B4C3A4D4B49352D0C11C5
:101C9000513B5156060414243C54674C52651D3583
:101CA000245D1049090E4D4108343E514B4D1E3103
:101CB0002D39534D1535391304184853651D18082F
:101CC0000C1124303539484D51683E1558320914ED
:101CD0001D3039494C51630C1D180934384A3D51A7
:101CE000312F4D424D2F15511E48152E4D1C2417D6
:101CF000502115264D411951493B1550300C2631C4
:101D0000193B254C381804141D3451585C133916EE
:101D1000512D0E65154C534D15430414243E0C10E3
:101D2000181C082024282C3034384044484C505487
:101D3000585C60664D154214243E041420243C482F
:101D4000563B5024411D2C390C30495561110B482C
:101D5000653441612C5D090C111D24384C50586AC2
:101D60005414260451112614560543154C534D5353
:101D7000144D26090C412804103035383D484C508C
:101D800054585F0414243E653E2C5C571D11041505
:101D9000243038484C53080C101C3034383C484C24
:101DA0005214264D5D3904305311043915084A1573
:101DB0006504243C48561D152F113D17155D303D17
:101DC0004A481D3F4C05090C10243034383D485119
:101DD000545D61651D436A355C1D0E1551212F311F
:101DE0004B653D041426040C38154F4D51110E025D
:101DF000006000A04703A200A200B1059D12B766D3
:101E000029009631F2C6AB4491212EA60000D000E5
:101E1000440090014422B7A6B218DF67B7D8BE10BD
:101E2000EF51B0D0D211460523030000AF020000ED
:101E3000A200A29067F2661056E8EC927961AD704C
:101E400000D0F37152729ED20070836700700070F0
:101E500000D07CA700600000FF0468006882686210
:101E6000260300902B630070E922B3A500009DA219
:101E70009D92A27058E7A2403F50E1B238373C2112
:101E80003B0200304665449044906277693700C059
:101E9000005069076802460500800060442141A4A3
:101EA00045D0E862D282AE607C0768C268B2002783
:101EB000A8F02CB1003029F029A03552FFA4A8A227
:101EC000A28490F53DF6EE337C77D7D7A27044D04C
:101ED000ED767D76FB2323F14845B51891058057B3
:101EE000D1B122E100000000000033079D02580339
:101EF000EB000020DD570080B30500000000A23099
:101F000048B125526247AE509D727D51D5D1001027
:101F10009DF2A22000302CD7B09000507A4579383D
:101F20002A176727DD56A174A20000004401002093
:101F300068A000006C674952CC37C484A1610000DE
:101F4000A2705017A280C2D8A2F069472D062C01BA
:101F5000B20300009D02CC06B88654F2132846C096
:101F6000AAB09B4727E24A754773B1D652A31076B1
:101F70008F07A7D09D5760D7BC9200207BA46763D2
:101F80004625C53579829C18002000A000004685B2
:101F9000D8669D02A2209DA26800E4C674700070FD
:101FA000EB70D7D09D720000000000007CE7601647
:101FB0005A1500C02C71007069C7A2716977AE20F4
:101FC0009D22C55500107CD73C2600705AE529108B
:101FD00045D67B772C11006000209A36C53500C0AD
:101FE00000407D81A4604347224565400000900188
:101FF0000000C50500C0D5210010007000A09D02A2
:1020000095928797DE8500B000A06947BE02D02375
:102010001230BA524B93A250FD017D8891045B535C
:1020200017C07D010DE569F77963971800109021BD
:10203000462500A0EB05EF8899E6F0660050A280E7
:10204000B07098E53581A2809D2200A0A2009A067A
:1020500029000000AE9000200000AE10D7C73C045D
:10206000B7064E91A210BC7300D09D7200209DA2B5
:10207000000000A0A220001000050000A20044E023
:10208000AD951C53FA769ED4D77790010000A2003C
:102090001E24EBA50000A2507D41152000D0009029
:1020A00000207CE7B9A7D5017C57B0C30050B170C0
:1020B00000D03571A2300040B0800E72A2F05660A0
:1020C0007AB526F15731D747A22026036820A2A06F
:1020D0000000470368002A0100B0A2E0FE010000F2
:1020E000460500007D2168A0BD030040005024711A
:1020F00000003605000068620040EB5000400060C0
:10210000B3157C07EA00000000E000A0000000001A
:102110009D02A2009376B03055213D0404033B0498
:102120000000A2003E05EB00BC0244006603B7B607
:1021300000007CC148C31818ADB496A8E4046298A6
:10214000006029700000B204D707A260D7479D52F3
:10215000A22068C7A21300D0EB9000609D92C32418
:102160003B06968517F16D10FF7700D0BC70B2C4A6
:10217000B37500707C2700007988D7165FD7CF022F
:102180000646254031367CD74695A92544C13D7089
:10219000A270AAC42BC16F54CE75C1C20A22A2C0BC
:1021A0004F489E8339D1A2103A66A6B2F7464575CC
:1021B0009D726357DF461D48B7700582E793E5209F
:1021C000B000460500A0EA14E6C892B2D521A406E4
:1021D000000000000030BCB0A230CE7100B06967D2
:1021E000B4A5EBD3211856435F210000009022656F
:1021F0009D756805E0040D08000000007C0716844A
:10220000BB63A800B30500906810A200FA03680041
:10221000A2000000AE0000D0C3944725D7079B065C
:1022200058032900688048617C077CB75805007016
:102230004D73CD5244375EE5AE07CBE658F8A22683
:10224000A9007C0700002960F546931293C67C77AD
:102250007D7100409D52F33270F4B7A7B55392469A
:1022600000400000697769D7EB70D9D100909A25BA
:1022700044013C94AC17007000D0D77757D86997C9
:102280007C2700000000270500B0A240EB302CA105
:10229000F5A27A141C463FD31E6200C09A7550778F
:1022A00000906860A27027049D02A200FD5400C047
:1022B000BC5200E09DA2B3052C2100A09001A29089
:1022C0005A25D70700809F046820690790072D06CC
:1022D0005E44F3758740005068D000105403D70760
:1022E000A200A2E000F000100020A2204450A2D0E2
:1022F00000902C21EBD5BF96E154BC61D5503C55E4
:102300006DE5DB2855139D0256012C01C2F43023E4
:10231000188611E7FC834B701F86F1B15221B3F789
:102320007DE1467507052C01D70700209DA59D027C
:10233000D7B7D7A7BD447FC6A7914818677090D775
:1023400052722990E226EB004D6331F31B643A6828
:102350002E032014C4A53A651071C1064CC5B514EE
:102360008C04789744105003000000000060009037
:1023700000102970EBB05A6400000000000000E07B
:1023800000809D15000050074B089D05A20000002D
:1023900029000000EB0000800060A200EF044F0164
:1023A000007000F0AFA59054A200D102ED037C971D
:1023B0000020000044B039E64040572596A80F079A
:1023C00066050000D2061602D707C304D5015F04D4
:1023D0005E51D501CB029D02D5662644D857E92629
:1023E0004BD800309FC33375447100200EA8690795
:1023F0007C0700000000F1C6B0E0B7563C535D26F4
:1024000094362D4651A2AF1600000000EB009DE26D
:102410005DA40000008035A5B4044802FD0400005E
:102420000090006000704400D7070000007044D0A6
:102430006977EED6A4F3B0602ED50E763818B010BA
:1024400036B25677D5E778A85908A270A240C334AF
:10245000A20000809D1243C700707C7700800000BE
:102460000030F612AF541802A29128B6DD047CD7D2
:102470006890D727460546050000F8067C07A200AD
:1024800000209DA2A20048D2A230EB8000A000E074
:102490000040008000604401AFF505F0AC35E96014
:1024A00000400050682058A35E04AEC08FD1D466AF
:1024B0009132AE10984682B01C6463047C0707B664
:1024C0000F089D0269000000EB900020A2000DD6CD
:1024D000B1949D254208FE175342BD013501EF0816
:1024E0005A05D70700000050EB35A250D003020276
:1024F000A501003004B80052C3C400200010D5610B
:10250000D521B73614605720313143070000EB0066
:10251000B1B841E83501A2900020B0302CC88771D5
:10252000EA739D6547B6EB262145B61870250781ED
:102530007364F005A184006000005C27B3A500006F
:10254000000069970010B38500500030D7176882EB
:10255000A21000000000AE000000000000009D027C
:10256000B10100005A05D7F75A407C277CA700002C
:1025700046050000000069070000A30012000000EB
:102580002C0100F08D089838CD98F725C4480568CF
:10259000EEC241530610B6C45C04165766711A3871
:1025A000568629600000EB90A26035719DE268F0CC
:1025B00044100070FED60000B345FD24D70700008C
:1025C0007D0100000020AB54A280002069A700001C
:1025D00000400040E7052950AED00010D7B750F7B3
:1025E0002235F3C132D10080B375AE207D51D7873B
:1025F000EA68BC0229E000A000000000A200680018
:10260000FDC4F421BD3000F068F00020000000009F
:1026100000000060D7D7EA0468C07D71D571D797F4
:102620009D6297710020A2A0680061163DE7407589
:10263000BA883427AC06F1835B850110EC983C2204
:102640004017C46101F34648C505B3053C042603A1
:10265000AE0000002E2800A09D02E3030000000051
:1026600000E0AC85498600B000605945DDB700E068
:102670006800EB2090A45300002768207C575CE1A1
:1026800090F7B040E4C357360C8209D5A270001011
:10269000B1D5D770531068900010DC65D8D19597EC
:1026A0004E280030FDB40050D4210090002066A6D2
:1026B000DD28B52131A837E03A247D01B7060000B6
:1026C0009DF2D7F7C364000000003501C505D501B0
:1026D000000000E0005000600030D7F7EC146C20E0
:1026E00044A1A2000070AD47A110E8314F935450AF
:1026F000EFD7E7784D17FB318DB2005068009D028F
:1027000044002A2168A2000000607C4700502E2867
:10271000A2A00000EA08A2000000BCE200A081061E
:102720000000D00200007C579D42AE7000B0BCE3B8
:102730005307463369C700407DC1EB70007046A562
:10274000B2B55B76FC2400A068002900A200A200BC
:10275000B7667D21E6069D026800F50548B1AEE04A
:102760009D02D0433B9326134737F03775344A0315
:102770004405D501D308EB000000EB40AF48290029
:10278000A240A240A2006F0047B3000000C07D013C
:10279000E8301690AF7060789DF230C57404B000D8
:1027A0004400B000FD62642018242D2135A1EA0503
:1027B0000FC76977B2740030F7D6A8000B56BB423A
:1027C0007B40EA717EA1AE316026D6A700000000F2
:1027D000AE20001057C369772970A2E07D510070C8
:1027E0000020C354EB800020EB200050B3F57CC7E1
:1027F0003F18C206A200C506C1D100907C2747033E
:10280000AC05A400D777D7D7D7776997C565297066
:102810009DE2D7A7B305A400A200A2000070F3D1E7
:102820006870A230AE669C021407B000B3059047F2
:1028300000200030002069A79D02DE070000A200F2
:1028400000007F963C14A31568820000CB020000B4
:102850009D02D707790000009A06AF0300000080B0
:1028600046659D02D961D94100503565BC42AE50E4
:1028700069070000D5418356B354F623CD36D3E221
:102880001972A405B3052B06008068505A35AFF5C0
:102890008EF1C145B40759A7E628082171017B755F
:1028A0001B31BCC70F754CE6D8F0D43589D05BD04E
:1028B0000A53AEC09DB24B08C49600602970697778
:1028C0000030001044A06B754636E3060020A2508D
:1028D000A2E0D7A729006902000000005F06680097
:1028E00084079DF20020AE30EB009B052900AE402E
:1028F0009D42A200A45000D0A210A200D591B21413
:102900007C077C073705443035C1A24022C500B0A2
:1029100000202C21AEA0000000A065353A032D0652
:10292000BD0300007C8700607E06000046057C0732
:102930007C474440D7070000690700004753D7D0C1
:10294000AB15A2206927A2507C7700000010C36459
:1029500000B045629A072205EB00A20000A000101B
:10296000EBE008E69B7859D0597382177BA1A8C089
:102970007A332A21FBA300006870B3550070A220AF
:1029800093A69306A240274400107B63EF60B480B7
:102990009030A0D78B37CBE47786473460412A202C
:1029A000C2609D1200D029502CC5FAB19921F4E5DE
:1029B00059A06C0400A000500050FF0269072900D4
:1029C0000000EBB02900CB26D7E6BD42C36395D803
:1029D000C786FD5765A854372CF1A2B04E4091F739
:1029E000D1835A236207EC53D1129432A2B0BC5265
:1029F000AE7000400030445029B21A66343529B018
:102A00000953A5C3EB70AE702001000000007C5795
:102A1000A2D0EE14C113682051173007B30500008F
:102A20008507DE408F48B1C2232524657AD8C801C6
:102A3000497100002E089D0236C100B0B010A250AE
:102A40002753504500D000900020000000000000F7
:102A5000EB000000440027659DA2006000B09DE2ED
:102A6000D7070000A200C30400D07C9769279A67AB
:102A7000FEF668125402BC02B30500800060D7273E
:102A8000003000F0691727D46892A220440026A3E2
:102A90008E64491354780B0812E4CC92A311482297
:102AA000A2A0BC025940904100005797A22000000C
:102AB000A290D7D7DB464C2729E031771FD2299047
:102AC00022262C010000290000309DB25D170590E0
:102AD000156068403905009023127CA7DC07FF8150
:102AE000E5A6C3B49F10358003A51168B0407948AE
:102AF00000009905E40543010000B20468004400A9
:102B0000F301460500502CC19D52D797A2E0D51184
:102B1000D7604B369D5200D0CCB3E080FC324642A9
:102B2000930829D065F03C466E05EC0015060000C0
:102B30000000AE00D70768000D086852AE603A8604
:102B400029A064552985B0851968D501A2B029E06E
:102B5000AE0000D024718D141B070000000000A0FF
:102B600000A000103F64F9780050F90829109A81FC
:102B7000B2031409310000000000010200C02980E6
:102B80004A800F06000000004A90F8827033439696
:102B9000F4C7936000402C11003031B000A0E7630F
:102BA000C97631B059624A3000B000704AA0CDA059
:102BB000B1171413AA01B22300D02970B2232A033B
:102BC0005704520100C00060F325B3B6FD78001031
:102BD00076C500700010AD08000000008B28B2130D
:102BE0002A9314934A200000B5A314A314134A0097
:102BF000380031000A887CF4AA215DA7C946EF0796
:102C000000004A000000F8F25B1200601473F0014B
:102C1000D311C69571E80A611403B107B2037D02AE
:102C2000550457034597B283292000B8F067004048
:102C3000B25300A000200C068103530800F00010DE
:102C400043641EC350F44635D0068A008B02F80256
:102C50000C16008090844AF06B2414030000B10726
:102C600014338BB2007000001307AA01B3077C0174
:102C70000002FA44D465384014A30020353814F318
:102C800014532043F75438609F4414034A00000053
:102C900000104436B706F8881423D8750C060F00C8
:102CA00050083100B70614034A4024135130007015
:102CB000988745273100000031004A40C1C83100E3
:102CC0002AB09E068332EF2462104411623567D128
:102CD00044231094B76086147C564F86AD773B939F
:102CE0009FC03C680000DC050B0838C001120020C2
:102CF000AD48B2934D508B08C90600000010F0910A
:102D0000F05100904527CD018B420010AD381413CF
:102D1000B210838040742931665114B3AA812623EE
:102D20004A60005097371403C00300000020D8B059
:102D3000C83400009D06430100404A10003000B036
:102D4000F08710280090B327000000E0F8C2147349
:102D500002830EE10F74EAF0F1C12A3329E000404A
:102D60004A0056A357A376154A904AC0CB10E49761
:102D700068C1DA6800A000409A0137E319B45B82A9
:102D8000600500009D0600A0AA31003000800030E0
:102D900038777C028907440600800010B7582D015F
:102DA0000502C70700500040C9661AC83C70D756D4
:102DB0009E40C7550C802BA3E2979853CCB445573F
:102DC00000204D304D00C626140329B70421EE968D
:102DD000DB810020B3070C469985AD08B703890253
:102DE0002940C712C93631424AA0297099734D183B
:102DF00003386B54886299643648F136A2513AA47C
:102E00000F333E532B150F38B50641760050003076
:102E1000573314B34A3068A558A04A103840B31449
:102E200092308B724A504938D83100B04A7090883D
:102E30001CE64A207FF6BC45F057B367C7D15B62FA
:102E4000006007F7D840B3070000AA010000C9B628
:102E5000C873000000000F0445D70182B2634A0026
:102E60007C012606899200F05683F6A200400000FD
:102E70000050F097C685F892E8E3D27760029D5142
:102E8000B1219A982A73A27329304AB000700F04B6
:102E900014A34D50B2230010F08189E237A1B00194
:102EA0007EC5E8C16437F8B100E000007EE411524D
:102EB000FE84FB7252777B872E152C3346000C93D1
:102EC0007568A47783C33868B25896940633247023
:102ED000A400F07131401483F6576C17AC069306CA
:102EE0004A004D0090044A0000B0F862C94639B16A
:102EF0001483386063A4AF41000045A791480000E7
:102F000000A000400C0631D03F76E15489025E14E7
:102F1000858639082910D685009000C000603E479C
:102F20000010003014D300401403F80200000C0815
:102F3000C59600307A360BD67D70A103756730E4F4
:102F4000144300302DE7BB3629C000000060145345
:102F500089428C7200D0144300004B00C906000067
:102F60007DF24F14455700004A00BF030C060000D5
:102F7000000000701FA6148731A057109D4630D85E
:102F800077F5E4445B920080DD2529A0144300001E
:102F90004AA0D3C119618B7350B5C86614730F73FF
:102FA000AA41312000B0AA318B1245570688E503AB
:102FB0005FA51D555DE110589D35C94600101433BD
:102FC00029C0B7D64A50D9A1154373014EC85AD06B
:102FD000145300800FA61453E9F2A4647E01E201A9
:102FE0001F01000029009A040000A6B600405743C4
:102FF0000000BF08AA0100000A7545470050F848C4
:10300000B273F8428D1082377D028902010200906E
:10301000C646008000D04A702920009090C8004029
:1030200019D058169E85A817AEA3CE405A03B504F2
:1030300040070F664537B7066F632C040C764A00CD
:103040006B04140300907786C9761355C9D6C188DE
:103050005341F4177D322A43891214333140AA11A7
:10306000003000D0ADA814834A603F68002000A063
:1030700014430000B1036701B203149300F07F8290
:103080004D40B213D13803410010003065A3BDA6F6
:10309000CC1418C11AC13D68E4030F06E5020C0602
:1030A0000000000000001B01000000900000B1477C
:1030B000006000C0B2630805131814632C9733C472
:1030C00076686F034D105B82DC65B2734A50C94865
:1030D00045376B843B57F3F77648004097B7562344
:1030E00000B02B010943BC400F16293069964A8075
:1030F00089222A03AA015F040000B20352010CA630
:103100001423BC381C2300B0B2330000F007E904DC
:103110009A044A00C3064A5000E04D000CB7A3F2DF
:103120003C752E486263F0512785C12616353CA7B1
:103130002DB4C233DCB54A500B25F0017053400565
:10314000DC478833F0710E68F0B1CA758336277694
:10315000A9707308A608F0918962F8C200603BA8C4
:103160003BC70E644FA28F40000018064A001403AC
:1031700090943F24B2031473C7D15602B6969CC1F3
:10318000F86263115283B233751409411208225355
:1031900032D0446605B31DC3BB336F2361744370E3
:1031A000F832F8B2897200006B045B0214A3104875
:1031B000FF010F066904000000B011830020001019
:1031C0001408C821002047350912A6079E034301B1
:1031D00070D489920F66890201020F00000000007E
:1031E00000004AA031A200101403F00700009C0662
:1031F00016079A013100870200009A8114F34D20CE
:103200000080005000204A90E882AA218B024D00E5
:1032100029004AA03140C906005000808D121A478B
:103220005E413F42F7060407B7062A7300A03160EB
:10323000B7F61BA8F2748B429E7076458BF2A800FD
:10324000AA61F992B32700004D00AA01B7064A50BF
:1032500018609E24BBD008660718923609F09D12AC
:1032600026C6AE923B551203000000082900F20565
:103270000000454700501443FB031483EC215873AE
:10328000D75887880F800030B203008000F01423E5
:103290004D900080142309300B509C431991334505
:1032A0006703693309C7CA334C50A9C11453F021CD
:1032B00000B00030296000400010B10700F0297014
:1032C000B25369065F9400400F16583218460068E2
:1032D0003110C9C60CD60050C1E845D7B552761793
:1032E0001DD4C13886C551455057CD9300C00060EC
:1032F00000700CB64567A80000009E00002000B0DA
:1033000000300070DC3510482A930080F822F83233
:103310000050013012569144DD71B2A3ADD814585B
:1033200089D2B3F7963020E60939CA12F892B2234F
:103330009801B2038E065D040C4614C352230000AC
:10334000100845071403B203B70300A00CA6AA1186
:1033500029D04A00FC843E77F0A11473B4D6D1453D
:10336000BB0855511E566127B5B3AB41EC74C9A6D5
:1033700000400000009000006B0400A0B3371483ED
:10338000B347B283AD7852C1AD1828218B928B829E
:103390000C260000AA014A002900B2030000B387EE
:1033A0000000A8409717DC1514530680B7A59C842D
:1033B00000808B321403963100B0007000000000D2
:1033C000000000B04A80002010E80070272014336D
:1033D000E41074053B110E763C760C8600F0142345
:1033E0000080F0B1AA6687B6D9D81160EC741B9240
:1033F000F07100003707000000E04A90570314B353
:10340000265000206B04B3078B020B081B0300003F
:103410004A40091500307FC000101423B706C605C6
:103420000000002000000A950020E0B7D435D2C18A
:103430001027A987909652015B08D238B9164335F8
:103440008948A065F016AC0814037605E783297057
:103450009D75B11438616F51C7586C3409006034E0
:1034600009B000700CC6BAA3AA71AA31B307B2138F
:1034700000009004F00700C08B0200604A60529484
:103480009D760080C5B702520020F8B2B233F061D9
:1034900031B07204B604D5052900B2C3D406B766AC
:1034A0003E345AB2540497945C02AC63C2F5A270E5
:1034B0000236FEF80CE70D164A0000008B028B0264
:1034C00000000000002000B09038AD48AA11BA35C5
:1034D0009DC6C8024E6029007A07000000A090A493
:1034E000001000700030DC45C5F48902B86372C179
:1034F0005B026C503A0100F09D46C91600802930ED
:10350000FD14144338302860C5321E43A2070B0057
:10351000E80629008B0200000080A0C310420D388D
:103520008FB8A870518300F0892289064D000000F1
:103530002C0100000000000006040A07007029F0BA
:1035400040813607A412EB54F0F78BB245074D10BB
:10355000E4B2177000A04A40310000904AC0C9662A
:103560004D2076B528312A83BFC63935C008FC0303
:103570005100D4C55722B81560A30040450731005B
:103580000000AA01000000000000992100B00030F6
:103590008B82ADC810289D4600184537B716B30773
:1035A00031221008AA01B203E892FD080010DA6681
:1035B000A31219384BB60E03687207A900A0B21304
:1035C0000F34FFB7DC25F0684A50460730A05C6432
:1035D000012243948400B41342234334FB71B9871E
:1035E0000A30445700A0B7461403292014B34A30C8
:1035F000B223B317B27300908982F0270000000055
:10360000B70600C000A0C97637805696FA884416DF
:103610008D28DB25F0F717D78A16ADC84AD00050A1
:103620003E1789B24A702CD1F1A73180003000B02A
:10363000AB760AC700C0B74600C0B2734A1000009C
:10364000C198000007F74AB014074A0000000000C4
:103650002A03AA912E488286F8482A168EF5B9A424
:10366000A225711321556B76DB1000304A0014A39C
:1036700000A0B2130C16B20383274D744A000070E9
:1036800000A0B2438B82F908B1072801A11067712D
:10369000AE48D4D500C01443E0588E232A23DEA6BA
:1036A000F2488B02313000B04A70F0B1B7664F4734
:1036B0004AC000004D600C6297C84D5000B00080B9
:1036C00000200008C9064406C3B7008000209AC73E
:1036D00044004A60C1D84A90746539C4B2834376C5
:1036E0005B42001000302900F8F20C76006089C2BD
:1036F0000070AD08000000004D8089364A4067A187
:10370000C946FC08003029D0C9664A408B182930C8
:10371000CD078B020000B273AAB14A60A3302E9489
:10372000538005274A601F43F198C9C6B4670070EB
:1037300000F0FA2700C04A808F582D1452866B5330
:10374000A8030803CB01007000B07D6200F00030D8
:10375000B7469EA075454A001C02000000009D056A
:1037600000009D060000B203A70000A045474A00E4
:1037700000601483453714A329A0451714C314B35C
:103780008E06C7927A85CB248B384AB014739B4738
:10379000579666731D21B088010842D78301A37034
:1037A000438114431483B2A31B21003089D0B79600
:1037B000006009204AB00F363CA531304436004045
:1037C000291000300F60A5874D200000FD07000084
:1037D0001413B5232C310A0458F295780000000028
:1037E0004A00AA01F8020C064A50F8C2AA31E3A71F
:1037F000C0A0DF20B91515A88A57CA48C2D87411CD
:1038000042885D90E662CE0100005F049068B2736A
:10381000AA811BD613B99B0149D7EDD46A74AF5660
:10382000D89204643D0575081906F8B2008000209E
:1038300029D04847AD088B020070C34632C84A8081
:10384000013200A029404D002CA52FD8F061A6D24E
:1038500006860A76684493D12950007057334A404F
:10386000AA914A900070D108C0060000B3074A0030
:10387000150997A757A3571389A2F047D9007C01D0
:10388000F8021403AA418610973560036604F80213
:1038900014B3C18801266FB45B82002029000000A8
:1038A000000031101C830020D3B6B2874A8014A3D5
:1038B0004D404A00F01139A0D12616636E935A4448
:1038C0009DA78442DF474D30B7B64A700F142730AA
:1038D0001E024A808BC22D3400707D32004089A2C6
:1038E000F8427D024D004C0743017C6108B6140389
:1038F0000E624D978A8211793840317014034D0061
:1039000033020060CC0300200000000000000090A3
:103910003218CC0319247F0919149F020090610802
:10392000FF016E050000D4AA00807A007102EF004A
:103930000000000000009509D2C9CCC36E3500100C
:103940007483C1811DC500C000300050BE437A5849
:1039500001916C01A9872C88EAE5702674A3007098
:10396000CC030080CC93760135AACDB1D3159880D5
:10397000A4B9193461777A2098051AB52A1A182142
:103980001B0294052205000000000000322812D11D
:10399000D25900000000000000F0CCF3001000201D
:1039A0001984E184EFE600C000200000CE021E086A
:1039B0009F028F058F0561C86DC40030328822993F
:1039C0004108EC92DE27B64A000061086108CC731A
:1039D0000000B873EBC3EBC319346D0400000000A2
:1039E00000700010004012B17A70CC839B9A4E9AFE
:1039F0003F597B90CD1000403ABAB8633517A19675
:103A00000F162245FA1578D6A200B8F65EF000101F
:103A1000000000001506004065F7005019940010E2
:103A2000CC431924193444882CCB7320057BFDB971
:103A300046754742166000A09070C797CC130040AF
:103A400017B774738C85A827D2D36D80B3025B013E
:103A500032080020321831066CA1CCB36038000067
:103A600073002E010000FF01A90700900010194407
:103A7000009000B062309F56F9749156A2E99A8383
:103A8000730000106567198400C0CCB3CC030060DC
:103A900000E0002074E3006000507A28A93700801D
:103AA000CCE3B8B3A1320090CC130040008000B04A
:103AB000193400106D84E2283F018B603047CE1628
:103AC00094612071CCD30967CC430090CC130040A3
:103AD000CC0398E0DC795C1159315E94B823003056
:103AE000FF81D2096006000019F4B89360807A2043
:103AF000378BD4A89896BC1300409540BEE3296B41
:103B0000D367EF2477817A20001000100000900026
:103B1000450500A0196400901F751CE1C788597104
:103B200032187A4000209020009055970010D44A17
:103B3000CC23BF189010000073001904CCC332C806
:103B4000CC33192445250090B30822090000FF0159
:103B500000000000FA24572874936EA59070611835
:103B6000CE9600B061A87615D964EF5294F9F8A406
:103B700050A9DE90011B8E416C0830021201B8532F
:103B800000F0CC432F86CC9361082A832596320B14
:103B90002685F1462784CE02D694000000B0CE726E
:103BA000CC831904000012010000B803B90AFFD148
:103BB0006E65CE4200E0B3687A6019F4FCE8B82381
:103BC000581675102F31A95483433944A5C23D932B
:103BD000D53793E56168CC538808000000008EC09B
:103BE00000C0D239D279CC132770C39200100040A4
:103BF000CC83D3134B536B477700DD27320A490739
:103C0000150919C430C7D239CC230030CC8365796B
:103C10006C031A8930A85F7512051924C131D48A42
:103C20001924003016506E0500002A07199400A0D0
:103C3000A9770040617819346EF500F0001000009B
:103C40000602000000E01261BC5A74230030328882
:103C500000000000000019B40010CD397BD49D6233
:103C60009E42E602D2096E050000A1021201002068
:103C700000D0009000809890630633663DD1CC332D
:103C800098800BB81934CCC300C0003000A0CC73AE
:103C9000CC039E930552411819B472720080C14141
:103CA0000040008000000000000000005C090000EF
:103CB000000000009D03002012210090748300B0DA
:103CC0001934B813CC836E87BC9300700080596A96
:103CD0006E67347200200020009000400000122126
:103CE0001CE832C8002019047403000000C085C11C
:103CF000C7376A217A200090612800209090D279FD
:103D00005BC96148BE231A71516921D9334A615791
:103D100000504438EB539631E8B0B947C03932F817
:103D2000D54906080C08740300E087D56138000007
:103D30007A001904BDCA19C012311904CE0200005C
:103D4000441885D5D68810C019C44B3AF8A20D2165
:103D50007722C8D396D982412229CC13CC13CC1315
:103D60000060FF81550700000000009000E0D2993C
:103D7000DDB542A4A38600000000000086E100B08B
:103D8000FF3122093F001201BE03B8036D048EFA11
:103D9000072239027427E119236A75010000FF0127
:103DA00000D0B893163922C900C000300000FF01CE
:103DB000CC03000000001904909012114305CC09B7
:103DC000250B0000192400D0B89300C00020B8B320
:103DD000006000E00020CF5902D7EFAAC34159B1DB
:103DE000AA042107E901ED0A0070129122599405F5
:103DF00000001904009000A05B5613015B0042050F
:103E0000DE47CC63B8037463233998A07A85C993DD
:103E10009D038501D2993307C7248718D2190F6BE8
:103E200090E0CE82000000000000224974736E37DB
:103E3000000090205951CAC9FDC26537FF01FF013A
:103E40003208229900B022A919447AD06B972E61CA
:103E5000F959AF8700C032C81934CC131964CC8328
:103E60009869EC13D2094C17C963008074030000F1
:103E7000000000000000000000D00060194432186B
:103E8000FF710000CC139830197098844EC7E2314E
:103E9000EAF31813E0990000191432187A0043026B
:103EA000000000C000C00030D2D90040195490304A
:103EB00000701201000000000000D2995B8161884F
:103EC00019040000940598001904550719046E059B
:103ED000000019C471C019347B68D4241990599812
:103EE0000018944500E00AC8006090F000B0FF910F
:103EF0006D84A1B200306ACA72C940478BC820A441
:103F0000D601E2CAF3926F0516285AF787844283D6
:103F1000B6024E353C96CF3A863A66EA00601954AE
:103F20000020CCD37A900A2800D00090BA930010D9
:103F30000040D036F4701A8AC5151F68C38622D98E
:103F400000200000A1E200C0006090E019B4193424
:103F500098408735EB309487E2549F13732424D91B
:103F60000090170ACC03000000A01974CD091904B1
:103F70006E07190400201914B81335D73629ED68D7
:103F80007D5268611320DA0883D915081519EA6291
:103F90001984028301707D44F6E32D937A70AC1A84
:103FA00065D8DD30FA040000AA08009090102C4B70
:103FB000CC13ECF80030000032080000005000E0A4
:103FC0000080EB6222E9CC23F3B449336E95DB35F4
:103FD000A4B18E66E5629D135642463A221B0F2518
:103FE0009021FE68728012018E000000009019146A
:103FF000444819B42E681B72B7BACBE3AB87A993B8
:104000001419D24900A019A4CC8300902814324975
:1040100095C044C8CC33A987C9C4F1222562816305
:1040200010210000CA04000019040000C1010000B2
:104030001904000058324958F1316D384566BC38D2
:104040001201D40A41020AA87A60FF11F799001000
:104050000040162A121100100040007019340000B0
:104060001904C1016E651984B90A00006D046E055A
:104070000010006032880020D21900100030A973AF
:10408000190319940A180946FE06D40ACC03281409
:104090008740A418C5230133A086D2098507C10132
:1040A00000101261008000907A1032486091D2199D
:1040B000FF0100900010904000000001000000B0DF
:1040C0007463F081BEA874F34C47DD26DBD4009006
:1040D000AA98CC132249D1779850198495E7CC93AC
:1040E0001C9423D02642CC735AF073F00010D3FAFC
:1040F00019F42219002061289A1436A7FBBA4A0045
:1041000062D11BB6260368309787CEA192070000C4
:104110000000009000100040000000006108000056
:1041200000000000E6D27A70FF8141A21D165808F7
:104130002E09E60200000000CC03000019143268CA
:10414000E67884D77A90D23819000000220900401E
:1041500074632864191419648F8500806138D2252E
:104160001924DA2832981994D219004019D4CC5362
:10417000CC53DE276DB6CE07EF176815E5174B2534
:1041800000300090193419540072064300707433E3
:1041900019A4E8F2DE973AFA3768E43493F700F0AE
:1041A000D41A0020DED30090B8033208190412019B
:1041B00011A010621104450232080000DE00FF0168
:1041C0006E050000000000F09DB3CC93CC3300409E
:1041D0002C8B72F29E19F905B2084292595019932C
:1041E000981000401974001072122D500040898000
:1041F00000B00060197419008507000000104468C1
:1042000056682A3876746C242209C10100002D04F6
:10421000000000001201FF017A0000E0CC93006072
:1042200031020000000000A03248BE538A800060C6
:104230001924D179E59155089C06320800000080C8
:1042400019B4B833ACC7CCC30030300774031907B6
:1042500000007300BC037AA015398EA0909118C29B
:104260004D152C99ACB6D0830F910010324800F058
:10427000321819041B125F618D75CFF5021B98006F
:1042800000E000602E78000000000000000028041C
:10429000CC039DE300C05A2000000000900022A93A
:1042A000A7070482CC9332180040000019040000D4
:1042B000CCE364B7003000500060000089412193D6
:1042C0002C6B34030692242519940010194422996A
:1042D000B713064264F32EFA1914DD1600E0D41A5F
:1042E0000050CE62747300200030228961084C05B2
:1042F00007081904000019040000193419945547DF
:1043000034658D3A7A7074C38415CE021C06E108B8
:10431000BA237A710070CEE600B0003019747A606A
:104320009597F2C95CCA6E3632580061CA012F52A5
:104330002F39FCB6E10800000000CC23DE370080F6
:10434000B9BACB28CCB32D67EDF72E98E67200E012
:10435000FF21003019E419740020001019140040E6
:10436000B8039405DF068501DE09D29919140040CF
:10437000002000100010CEA20070190400F061F8B7
:1043800000100000CE0200001904A1021606002051
:10439000BA33008000905911984019047301E6085F
:1043A0001201190422090000000019000010006029
:1043B0001984CE920010004032187A60BE831291A8
:1043C000E4120040E457009000500040724265A79C
:1043D000A91361F80000C2D41589B707BDF338737B
:1043E000C191A9917C856154B4F8D222514440F224
:1043F000128100007A001904000012111964BD88AE
:10440000CD0900000000067361E8DF6084968C230C
:104410000A77F0E4CE36610ACC037A000000B89344
:10442000631A004000C06BC77B386128C734008026
:10443000CE96CC131944193432785A005CB92DF059
:104440009190C0047F03D209D4E99DC3CC6300C01E
:1044500000C0CC33CC636E75A813ED241724E49709
:104460006E050000FF011886CEA2C482B3AA997A15
:1044700000006EC56F742190254003E20070D30ADE
:1044800000000000005000506178CC4300D000A034
:104490006E95F11894450000CC037A1019841834F5
:1044A0006FA2C8070B86E5A16423DC34598100E0C4
:1044B00019C40060002000D00090D2090000000064
:1044C00022990010194487C8CC37AC076E21ED1231
:1044D0000010009000101A4400F0007019941904A4
:1044E000A09273007A000000000000000000CD02DE
:1044F00000100070480314548795D20854E667C52D
:104500001922000000000000B803B803EB030030DC
:104510007A00D219CC030000CC03339800109040ED
:10452000220930E703594070BFEA4E9100102D6414
:104530007A80B0E47D63235B6E05D30A000000003F
:104540001900000000E000F07310123132C80020A2
:10455000C1010000D409CED200C090604DE500C07A
:10456000FF2174F31281005019D46D247A00A1C286
:104570006E951994C0958377E80474706AD7665075
:104580004C27B8D3909044B8007090801994D219F9
:104590000040D45A0050127123A30070810800001B
:1045A0009D035907FFC1C268847827603023716476
:1045B0000636F4034B34760173000000002000F04F
:1045C000004073137A600080009000107B486128DF
:1045D00000D0009061B781B43438AE87F3430D8BBF
:1045E000B07747A457742830E0916726EB03660440
:1045F000EF0300009000190400C000C0003000A0CC
:1046000019706108192498B0192471133663008059
:10461000A193C2653329A61119849820C607729206
:10462000CC03000019040000CC0319047300190422
:10463000000019040708810900007A20001090107A
:104640000000E602CC030000190473000000000023
:1046500022097A906C16004019D40060CC43000007
:1046600000003403618800B01934D525CC434912C9
:104670002F47E0838692A0B72E69B2690020CC2331
:10468000CE920602A102190400C095C0CC335FE6A9
:1046900045552C583206D92820722498D5A32239A2
:1046A0003208CC03CC03CC0330027A0900006E053B
:1046B0006E0561D81734008000001201000012015D
:1046C000190461086E959D13194461D8CC63CC43DD
:1046D00000004408000000904418CC4300F019F496
:1046E000221900906118D249DE601E2457806D9512
:1046F0009B901B2734C7C9686C15C40500000000D7
:104700001904CC03E60200000000000000000000D5
:10471000000032E872D2EB721904000000000000C1
:10472000E60200001924B8137A101984E8D1F5A71D
:10473000B4E57543103B080ACC03CC03FF01CC035E
:10474000D20519046D3432780040197400301920F4
:104750007AD3F35728D86C2213079AA25F7A65059B
:1047600017F3C3F20010197419A46B77000000004E
:10477000000000C000C0003000A06178000000B060
:10478000DE67987022A998909820FF0928040000FD
:1047900019C400C0BE331EB4CFD2B58A04F17A90DA
:1047A0006979CEB619241994D235A7339B30DB032F
:1047B000273B00A0000000000000CCC366C2003010
:1047C0007A000000190400E000C0222900900010C7
:1047D000004002B36E74CE1807B099906A91D4036A
:1047E0000000000032981914CC432C09010100008C
:1047F000E6026E058701190400006E050000000046
:104800001904009000100040FF01BF09740300C0AC
:1048100000D0BE63757687B09904EBB4D1C71B791D
:104820002C0000016108CCA38F557B13DFB811E881
:104830004373CC8700B7133019947AA0CD33D19548
:1048400008110040196419E4002000001904FF0158
:10485000CCF37483005000F0A9F7901074A300000B
:1048600032880090001061480040007000306108FC
:10487000CC03B50619941914194407287AA0BF234C
:10488000BAA36C98909112F165F000100000190421
:1048900022091904CC030000005000F020ABE026F0
:1048A0008285262104DAEE236297D7C3DAA4F25276
:1048B00065735E093918FC840CE0B6762FB86FE991
:1048C0006037007044CA6E7596654001A6592D1B6D
:1048D000AAF3085B8728C0316E8598801954CC6391
:1048E0001EC0942084403027001000100000CC032C
:1048F0000000CCD3191445456118D7A4449A60919F
:104900003DC07330E62887383E8000706E856D8428
:104910007A900010194473D019440050129100107D
:10492000CC4344C898D0749324E6968235588CC200
:104930007131BAAAD3E957375A4ABD0286073606FB
:104940007292CC43325800001944D7A96550ED65E6
:104950000778B91A15905F1897D3A5912C6A29C5C5
:1049600079815C0868086A01B90A00801914220973
:1049700030070000320819E45AC00F6B6E4502B8C8
:104980006F273F92D2190040199400100040003068
:104990001914BE5357996517C1411944C744198466
:1049A000C993CB5107183FB8F466BD55289231180A
:1049B0007641000000009800D2090000B8035507B6
:1049C000000000001964007000601FE31D6232588F
:1049D000FA04CE060000008019F4953200000000B1
:1049E00017000300031F0A1F161F0A1904130A15D4
:1049F000120003000E1B11111B0E0A040A040E0400
:104A00000018000404040010001804031F111F12F2
:104A10001F1019151215150A03041F17150D1E1561
:104A20001D0119071F151F07150F000A00001A00A6
:104A3000040A110A0A0A110A040115021F1F1F1E87
:104A4000051E1F151A0E11111F110E1F15111F051E
:104A5000010E111D1F041F111F1109111F1F041B1F
:104A60001F10101F031F1F011E0E110E1F05020E27
:104A700019161F051A16150D011F010F101F071813
:104A8000071F181F1B041B031C031915130000002C
:104A900000007E0909097E7F494949363E4141416E
:104AA000227F4141221C7F494949417F090909016F
:104AB0003E4141493A7F0808087F00417F4100306C
:104AC0004041413F7F08041A617F404040407F02DF
:104AD0000C027F7F0204087F3E4141413E7F09096D
:104AE00009063E4151215E7F091929462649494957
:104AF0003201017F01013F4040403F0F3040300F05
:104B00003F4038403F631408146303047804036192
:104B100051494543D5F08D14A1C881CFD9F1AF20BB
:104B200000080B000202020000090400000102025A
:104B300000000524001001052401010104240206DF
:104B40000524060001070581031000400904010047
:104B5000020A000000070502024000000705830268
:104B60004000000403090412010002EF0201404169
:104B700023368000010102030141726475696E6F82
:104B8000204C4C430041726475696E6F204C656F18
:104B90006E6172646F00512F11241FBECFEFDAE0F7
:104BA000DEBFCDBF11E0A0E0B1E0E6E5FEE602C069
:104BB00005900D92A23FB107D9F727E0A2EFB1E02F
:104BC00001C01D92A23BB207E1F715E2CCECD5E2A1
:104BD00004C02197FE010E941337CB3CD107C9F7CF
:104BE0000E94AA2F0C9429370C940000EF92FF9298
:104BF0000F931F93CF93DF93DB0173E0B595A795D8
:104C00007A95E1F7B695BA2FAA27B795A795A80F79
:104C1000B91F6770FC01E00FF11DE038F10514F0D9
:104C200000E8081B862F02C0220F331F6A95E2F7A7
:104C3000722FF22EF094632FE32EE094AF5EBD4FFF
:104C400030E010E0E32F032E000CFF0BE017F1071C
:104C5000DCF4E40FF51FE491F0E0082E02C0EE0F43
:104C6000FF1F0A94E2F72D91ED0121972F21E723F1
:104C70002E2B2883C058DF4F28812E21E62FEF23CB
:104C80002E2B28833F5FDECFDF91CF911F910F91B5
:104C9000FF90EF90089580E0E1E1F2E081118FEF65
:104CA000002481938193819381930394D1F7089594
:104CB0009091AD07982329F49091AC07982381E057
:104CC00009F480E00895FC0180911002882311F11D
:104CD0003FB7F89482E08093E9002091F200822FA0
:104CE00090E01816190614F481E090E0882339F05A
:104CF000289844E640930F024091F100408322231C
:104D000039F02091F200211103C02BE62093E80036
:104D10003FBF08958FEF9FEF08952FB7F89483E07A
:104D20008093E9009091E800892F807295FF04C07C
:104D30009091F20080E4891B2FBF089580910702B3
:104D400081110DC082E08093030284E0809304020D
:104D5000109206021092050281E08093070283E020
:104D600092E00895CF93DF931F92CDB7DEB76983AA
:104D7000DC01ED91FC910280F381E02D41E050E0F7
:104D8000BE016F5F7F4F09950F90DF91CF9108951E
:104D900083E08093E9008091F200882319F08AE390
:104DA0008093E80008950E948D2690E00895CF93A7
:104DB000DF931F92CDB7DEB7FC018485958597FD03
:104DC00008C02FEF3FEF358724870F90DF91CF91F9
:104DD0000895CE0101960E946326019719F48981F6
:104DE00090E0F3CF8FEF9FEFF0CF0F931F93CF9310
:104DF000DF931F92CDB7DEB78C01FC0184859585CA
:104E000097FF0BC0CE0101960E946326019771F4B3
:104E1000898190E0F80195878487F80184859585DC
:104E20000F90DF91CF911F910F9108958FEF9FEF1A
:104E3000F1CFFC018485958597FD0BC09FB7F89451
:104E400082E08093E9008091F2009FBF90E001969C
:104E500008959FB7F89482E08093E9008091F20072
:104E60009FBF90E008954091FD015091FE01209177
:104E7000FB013091FC0142175307B4F49091E80014
:104E80009570E1F39091E80092FD19C08093F100D4
:104E90008091FD019091FE0101968F739927892BD6
:104EA00019F48EEF8093E8008091FD019091FE014E
:104EB00001969093FE018093FD0181E0089580E0CA
:104EC0000895EF92FF920F931F93CF93DF93F82EE5
:104ED000192FE62E042F81E0860F880F0E943327BA
:104EE00083E00E943327CF2DD12FEC0EFD2EF11C35
:104EF000CE15DF05B9F007FF13C0FE0184910E94B3
:104F00003327182F80E00E943327812321968111B7
:104F1000EFCFDF91CF911F910F91FF90EF90089508
:104F20008881EDCF81E0F5CFDF92EF92FF920F9372
:104F30001F93CF93DF93D82E8A01EB017B01E40E00
:104F4000F51ECE15DF0559F0D7FE12C0FE01849183
:104F50000E94332721968111F4CF0FEF1FEFC80174
:104F6000DF91CF911F910F91FF90EF90DF90089507
:104F70008881EECF0F931F93CF93DF931F92CDB70E
:104F8000DEB782E0898342E450E061E27BE480E8BE
:104F90000E9494270E949E26DC0112960D911C917E
:104FA0000115110589F0D801ED91FC910280F38182
:104FB000E02DBE016F5F7F4FC801099597FD04C0CA
:104FC000F80100851185ECCF89810F90DF91CF9199
:104FD0001F910F910895615030F02091F100FC0174
:104FE00020830196F8CF289884E680930F020895D5
:104FF0003FB7F8948091F3019091F401A091F501ED
:10500000B091F60126B5A89B05C02F3F19F0019677
:10501000A11DB11D3FBFBA2FA92F982F8827BC0112
:10502000CD01620F711D811D911D42E0660F771F3A
:10503000881F991F4A95D1F708958F929F92AF923A
:10504000BF92CF92DF92EF92FF926B017C010E94A0
:10505000F8274B015C01C114D104E104F104B9F05B
:105060000E94F827681979098A099B09683E7340EC
:105070008105910580F321E0C21AD108E108F10809
:1050800088EE880E83E0981EA11CB11CE4CFFF902F
:10509000EF90DF90CF90BF90AF909F908F9008954A
:1050A00065E070E080E090E00C941D288F929F9264
:1050B000AF92BF92CF92DF92EF92FF920F931F9326
:1050C000CF93DF936C017B018A0180910B018823D0
:1050D00009F45CC080911002882309F457C08091C4
:1050E000020280FF05C08091E00082608093E000B2
:1050F000E801B12C8AEFA82E93E0892E2AE3922EA4
:10510000209711F4BB20D9F10E948D2681110AC08D
:10511000AA94AA20D9F161E070E080E090E00E94BA
:105120001D28EECF8C171D0611F00CF08C2F9FB7A9
:10513000F8948092E9002091E80025FD02C09FBF0D
:10514000DFCF282F30E0C21BD30BF701815020F0B6
:1051500041914093F100FACFE20EF31EBB2021F003
:105160009092E800B12CEBCF8091E80085FDE7CF6D
:105170009092E800BB24B394209709F3F3CF5D9895
:1051800084E680930102101611063CF081E090E065
:10519000F6019383828310E000E0C801DF91CF9194
:1051A0001F910F91FF90EF90DF90CF90BF90AF9045
:1051B0009F908F90089580389105B8F46034710500
:1051C000A0F420E191E061FD94E060FD990F62FDA3
:1051D0009295687F269FD0011124A80FAF5EBD4F26
:1051E0008C91442319F0892B8C93089590958923F1
:1051F000FBCF0895EF92FF920F931F93CF93DF930E
:10520000FC01CB0177FF06C09195819591092DE2B4
:105210002083319620E00AE010E0422F50E0EF01B9
:10522000C40FD51F0097E9F48A011595079580E012
:10523000282F30E020173107E4F4BF01620F731FFD
:10524000DB019C91DA01A21BB30B11977D01EE0EDD
:10525000FF1ED7012C91DB012C93D7019C938F5F0C
:10526000E7CFB8010E94FF36805D88832F5FCB01B6
:10527000D4CF1882CF01DF91CF911F910F91FF9072
:10528000EF900895AF92BF92CF92DF92EF92FF928C
:105290000F931F93CF93DF937B015A016801E901BC
:1052A00015E085E0C80ED11C4991442381F04F716F
:1052B0004102A00111244357554B05E02FEF30E088
:1052C000B501C7010E94F625EC0CFD1CEDCFDF9166
:1052D000CF911F910F91FF90EF90DF90CF90BF90F3
:1052E000AF900895CF92DF92EF92FF920F931F93AA
:1052F000CF93DF93EB016A01790113E0F70141914C
:105300007F01442379F040524102A001112444520C
:10531000564B03E02FE330E0B601CE010E94F625A4
:105320002496ECCFDF91CF911F910F91FF90EF90DA
:10533000DF90CF9008952F923F924F925F926F929D
:105340007F928F929F92AF92BF92CF92DF92EF9215
:10535000FF920F931F93CF93DF93CDB7DEB72A97BA
:105360000FB6F894DEBF0FBECDBF7C016B012901E3
:105370003A0106E09B012E56394F1901C9018E5F93
:105380009E4F9E838D83DB011196B887AF83F70113
:10539000E370FF27B701769567957695679520911D
:1053A000A3073091A407E330F10509F0A5C0069FDB
:1053B000C001079F900D1124F901E80FF91F4591D5
:1053C0005491FC013296E20FF31F65917491FC0138
:1053D0003496E20FF31FA591B49179831A82298143
:1053E0003A81207F332714E0B695A7951A95E1F707
:1053F000AA27BF702A2B3B2B3A872987352F329556
:105400003F703B831C8289859A85AB81BC818A2B46
:105410009B2B9A878987E091A507F091A607EE0D4F
:10542000FF1D1491E12FE595E595E05CAD81BE810E
:10543000EC93F0E0E851FF4FA081B0E0A3019201AE
:105440000E94A7364B015C0110FF28C080919C0789
:1054500090919D07019709F060C0B5E0CB16D1048B
:10546000E9F480919E0790919F07A091A007B091C9
:10547000A1070197A109B10980939E0790939F0707
:10548000A093A007B093A107892B8A2B8B2B31F413
:1054900064E977E082E996E00E94223729853A851F
:1054A000232B41F0A50194016F81788589859A8528
:1054B0000E949B293FEFE31AF30A11FF68CFF10125
:1054C000EE5FFE4F10822A960FB6F894DEBF0FBE35
:1054D000CDBFDF91CF911F910F91FF90EF90DF90A3
:1054E000CF90BF90AF909F908F907F906F905F9084
:1054F0004F903F902F900895AB01440F551F460FDA
:10550000571FE40FF51FEE0FFF1FE20FF31F25914A
:1055100034913F703A8729877ECF60919E077091C2
:105520009F078091A0079091A107A50194010E9477
:10553000BA36672B682B692B09F0B0CF80919207A0
:10554000909193079C012F5F3F4F309393072093D7
:10555000920723E0880F991F2A95E1F764E977E025
:105560008E56994F99CF90939D0780939C071092E8
:105570009407109295071092960710929707109231
:1055800098071092990710929A0710929B07109211
:10559000930710929207019709F066C08091A207C5
:1055A000882309F45AC00E941A3621E131E040E014
:1055B00050E00E9488366F5F7F4F8F4F9F4F609300
:1055C0009E0770939F078093A0079093A10782E0A6
:1055D00099E39093A4078093A30784EB92E19093BF
:1055E000A6078093A50721E030E040E050E070E09E
:1055F00060E088EF93E00E949B298091A2078111CF
:105600003CC08EE59BE29093A4078093A3078DE9AD
:1056100099E09093A6078093A50721E030E040E051
:1056200050E070E060E083E392E00E949B2980EF0D
:105630009DE19093A4078093A3078CEA90E0909358
:10564000A6078093A50721E030E040E050E070E03D
:1056500060E08BE197E00C949B290E941A3624E4C9
:1056600036E040E050E0A5CF40939E0750939F075F
:105670006093A0077093A107AACF08958F929F927D
:10568000AF92BF92CF92DF92EF92FF92CF93DF93D0
:10569000CBE0D0E086E0C82ED12CE12CF12C0E948A
:1056A0001A36A70196010E9488364B010E941A36CD
:1056B000A70196010E948836D401A358B94F2C91B6
:1056C000FB01E358F94F80818C932083219739F7B0
:1056D000DF91CF91FF90EF90DF90CF90BF90AF9090
:1056E0009F908F900895CF92DF92EF92FF920F9349
:1056F0001F93CF93DF93809164008E7F809364002B
:1057000080917A00806480937A0080917A0086FD8F
:10571000FCCFC0917800D09179000E94F827AB01AE
:10572000BC01CE01B0E0A0E0DC01992788278C0104
:105730009D01040F151F261F371FC901B8012091B5
:105740006400216020936400611571058105910555
:1057500011F00E94693640E050E0BA0181E090E02B
:105760000E94B32AC2E9D6E0C12CD12C7601C394A1
:10577000E991EE2371F00E2E000CFF0BE851FF4F64
:10578000A081B0E0A70196010E94A7366B017C01C1
:10579000EFCF62E976E08DE796E00E942237109223
:1057A0008F0610928E0610928D06109285060E942A
:1057B0003E2BB701A60182E090E00E94B32AF09050
:1057C0009207FA941FEFF11671F1C2E9D6E0E12CCD
:1057D000EF14BCF78E01085F1F4FFE0101900020FF
:1057E000E9F731978E2F8C1BF80101900020E9F723
:1057F0003197E01BE8175CF4DE015096F801EC17D6
:10580000FD0771F082919E9190838C93F8CF8E1357
:1058100007C0B801CE010E9419371816190664F3A3
:10582000E394E801D5CF109272061092710610929F
:1058300074061092730610927506109276068FE029
:1058400097E29093780680937706DF91CF911F912E
:105850000F91FF90EF90DF90CF900895FF920F93FC
:105860001F93CF93DF93EC018B01FB01F0800E942B
:105870007236F81621F06F2DCE010E947A36F801AB
:10588000F1802196CE010E947236F81621F06F2D1C
:10589000CE010E947A36C801DF91CF911F910F91FE
:1058A000FF9008950F931F93CF93DF938C01EB012B
:1058B0000E9472368883C80101960E9472368983DD
:1058C000CE01DF91CF911F910F9108951F920F92FA
:1058D0000FB60F9211248F939F938091E1009091C6
:1058E000E100937F9093E10083FF0FC01092E900E5
:1058F00091E09093EB001092EC0092E39093ED0016
:105900001092100298E09093F00082FF22C093E082
:105910009093E9009091F200992319F09AE3909303
:10592000E80090910102992341F090910102915079
:1059300090930102911101C05D9A90910F029923F9
:1059400041F090910F02915090930F02911101C07C
:10595000289A84FF18C08091E2008E7E8160809337
:10596000E2008091E1008F7E8093E100809102024D
:105970008E7E8061809302029F918F910F900FBE67
:105980000F901F90189580FFF7CF8091E2008E7ED8
:1059900080618093E2008091E1008E7E8093E1003F
:1059A000809102028E7E8160E5CF1F920F920FB62A
:1059B0000F921124CF92DF92EF92FF920F931F93D9
:1059C0002F933F934F935F936F937F938F939F9307
:1059D000AF93BF93EF93FF93CF93DF93CDB7DEB732
:1059E0006C97DEBFCDBF1092E9008091E80083FF85
:1059F00025C068E0CE0145960E94EB2782EF809398
:105A0000E8008D8987FF39C09091E80090FFFCCFB6
:105A1000982F907609F034C19E894F89588D2F892F
:105A2000F88C911131C0803861F58091000280932B
:105A3000F1001092F1008EEF8093E8006C960FB6A3
:105A4000F894DEBF0FBECDBFDF91CF91FF91EF91F4
:105A5000BF91AF919F918F917F916F915F914F9186
:105A60003F912F911F910F91FF90EF90DF90CF907A
:105A70000F900FBE0F901F9018959EEF9093E80027
:105A8000C7CF1092F100D5CF913059F48111D3CF07
:105A90004130510581F6809100028D7F8093000294
:105AA000CACF933049F48111C6CF4130510519F660
:105AB000809100028260F2CF953041F48091E8003D
:105AC00080FFFCCF20682093E300B5CF963009F02B
:105AD000A9C00B8D1C8D22E01092E9001092FE01EE
