:100000000C949E250C94C6250C94C6250C94C625EC
:100010000C94C6250C94C6250C94C6250C94C625B4
:100020000C94C6250C94C6250C94F72B0C94662CC6
:100030000C94C6250C94C6250C94C6250C94C62594
:100040000C94C6250C94C6250C94C6250C94C62584
:100050000C94C6250C94C6250C94C6250C94982E99
:100060000C94C6250C94C6250C94C6250C94C62564
:100070000C94C6250C94C6250C94C6250C94C62554
:100080000C94C6250C94C6250C94C6250C94C62544
:100090000C94C6250C94C6250C94C6250C94C62534
:1000A0000C94C6250C94C6250C94C62500000000AF
:1000B00017000300031F0A1F161F0A1904130A154D
:1000C000120003000E1B11111B0E0A040A040E0479
:1000D0000018000404040010001804031F111F126C
:1000E0001F1019151215150A03041F17150D1E15DB
:1000F0001D0119071F151F07150F000A00001A0020
:10010000040A110A0A0A110A040115021F1F1F1E00
:10011000051E1F151A0E11111F110E1F15111F0597
:10012000010E111D1F041F111F1109111F1F041B98
:100130001F10101F031F1F011E0E110E1F05020EA0
:1001400019161F051A16150D011F010F101F07188C
:10015000071F181F1B041B031C03191513000000A5
:1001600000007E0909097E7F494949363E414141E7
:10017000227F4141221C7F494949417F09090901E8
:100180003E4141493A7F0808087F00417F410030E5
:100190004041413F7F08041A617F404040407F0258
:1001A0000C027F7F0204087F3E4141413E7F0909E6
:1001B00009063E4151215E7F0919294626494949D0
:1001C0003201017F01013F4040403F0F3040300F7E
:1001D0003F4038403F63140814630304780403610C
:1001E000514945430000020A04365F0010380632C8
:1001F000CA0B1C970714B90C260000116300049465
:10020000040804020C1408144C071C19072CA30D35
:10021000300A06342A0D384B033C8B0D402D084A1A
:10022000B90C24300216000015000019FF0C51FC17
:100230000D369505559505142D0A3C95050597072E
:100240003A320D33320D34E40B08A9010C700B1057
:1002500065031431091899041CEA0C302E0B388EF2
:10026000003C2F01485E0B4C44005200003100005E
:100270005D0A042E060C4821030C7A08100A064079
:10028000340434660314DF091C030830200738DD0A
:10029000014C24025243021C000031140B14FF0CC9
:1002A00049900D5A00004D0000090A043898084A88
:1002B0006300143B020C950553000065430234AA09
:1002C0000C084109420000190000095F003A630070
:1002D00014000009770842000065630014B90C247B
:1002E0000000339505140B071C9A0C08260A0C55C0
:1002F0000B24AD072CE50B30D50151EC0D56D80D74
:1003000030000017B90C24B8003621035000004B10
:1003100000000500002D97071595054B760C4F0042
:100320000015FF0C107E020CF8041C00004D98080C
:100330005230021400002D7F022408043E00000504
:100340005F0024FB0D2E000039D70B0ECF032300D6
:100350000005B90C24000039950531640B3C4A02B4
:100360001600004D950549320D3895054300002DC6
:1003700095055300001D00004977084043023906E7
:100380000C535202145908100004260809400000BA
:100390001F640B3C21030CF908090904112F0215F5
:1003A0005B051CF70130F505344D0738B7024040B6
:1003B0000048CA034CF709515101544C0958F90C33
:1003C0005EC80A4000000500004FC60334DF050C7C
:1003D000B901117F0C18F2071CEB0A2C1804317EAE
:1003E0000D383B00486E044D9608529401160300E8
:1003F000144D002600004D71041200004D640B6482
:10040000430210A00014000E2600004D52020652B6
:10041000021C00004900001B520204520224740511
:1004200016000065B90C27910352280D52B305142C
:1004300095055200004D0000198D063000005197BF
:1004400007178E003863001600001D2103505F005F
:10045000100000692D0A18C803344F0942A604157C
:10046000630054BF0A3E56082C95053A000049D750
:100470000B0E700714000065D9083297074B000077
:100480004DCA0B500000155F0032C60256430222CF
:100490007404048B04145D0A2481073C1F0A56FF70
:1004A0000C38060C30CF0348270908FD070C2D0C2B
:1004B00010C40918BB021CCC0924050E2C0C0950D1
:1004C000D70556E002244302675F0034A3083A00D0
:1004D0000011DC05323B043C8E0026060C305F0028
:1004E0005669012600004DFF0C34350C08B4024358
:1004F000640B24BB0B4C5F002C0A04103D0108CF99
:100500000368250B05F4050C73041D3C0B207B0AC6
:1005100030140634590238740A3C6C0740540148C0
:10052000F20A5032025428075F98083000002F97D3
:100530000714B90C245F002C980A08940511CE0208
:1005400018E10B30980C34750740FA0448290A4C1E
:100550008C0D5200092FF80C4CFF0C488A0D5A598B
:10056000082FF10A3C00005D21030CC702300A0489
:100570005200003D00002F00005195050995054EE1
:10058000000005430252C30310CE0A35FA0D49009C
:10059000001500000931091A000015FF0C0AAD030F
:1005A00056D80004AD001494023C0506560009100C
:1005B000000025000017EA0D06B90C245F00384B37
:1005C0000904270714FF084A00003952023C060CB0
:1005D0003043021121035321030C00003900004B6A
:1005E000CF034800003900004F520224C6040CE13A
:1005F0000714DA021D0A062CEB0C30F20538B40B96
:10060000489508506602560000195F002400092C26
:10061000970714060C0A00004D5F0008C80B500035
:10062000001500003B270E3200005DF10A14F001B6
:10063000488D0632840D16B905047D0814A50824DA
:1006400007003C400354AE0966970714F90724D409
:10065000083C10075600004D000065950516E300A4
:1006600050560904860D0CED0D107C0D1C990730B9
:10067000070E34E90038D50C3C6F00480A034C964D
:10068000066898082E00005100002D21030C9B05E0
:100690004B00002500003D000017B90C24FF0C356D
:1006A000000011000033390104980D148E0524EC6C
:1006B0000C3C300C566300149505315F001EF10AA6
:1006C0003C9505075F002C79081070043000013458
:1006D0007D0338120740140248B20850880D1E00EE
:1006E000001543022E1F061E430234FF0C1295050F
:1006F0005500005D0000590A041C630024280830DE
:10070000340434A109388A0D40AA0C4A00003D4146
:10071000091200000597073E5F0058E50B4C310DAC
:100720001D2B0238F80C488D056804061600005190
:10073000EE071C97071400004D00002F9505145F6D
:10074000000758082E95052DFF0C2200004D0000D3
:1007500015FF0C5200001500004DFF0C10860B38E1
:10076000CF035200004DC80A5200001D6300040070
:10077000002D970715BE094CA4083A00005100004F
:100780004D95051663000437093C2D0A5663001485
:1007900000004D00001995052E000051000019952C
:1007A000054A000031010E24FF0C11060C52000016
:1007B0004D520226000065410926770840E7090CE2
:1007C0007F053A00003195051337093CDD02328D73
:1007D0000004DB0B14D70C24F50A3CD30854D308CF
:1007E0006A00002D2D0A1544011C0000510000670D
:1007F00095055495052F060C4FED0304F00D145D7F
:10080000072455003C160656000011FF0C5CD90861
:100810004006024C18010695055497071400004F36
:1008200043021C320D4C9505540000099505110139
:100830000E24950538FF0C43520224640B1400006B
:1008400041D90254CF034A00000500003D00004F8B
:100850009707153B020CC80A50D9082208074A120C
:10086000025100003700000500003D320D0E00006F
:100870003500003900001100004F95051598085209
:10088000D902060000515F004C00004121031C8D7D
:10089000064B950540060C22C7041A01051485096C
:1008A0002471053CFC0954AF0D661C03246300163B
:1008B0000000250000155F005000003100004D953C
:1008C000053F00001100001700001500004D9505C0
:1008D0002ECA002463001718013C00003BE50B08FA
:1008E000740514F8082800003D5F00656E050600D9
:1008F0000065CF031E000051640B16000005590867
:100900002E97050A2D0A180A045600000500002536
:1009100000003D5F00521C093B00001D320D5700D6
:10092000002152022452023C73041C9F0904D60782
:100930000D280510010914180A2C16003061093819
:100940000D0440B90348C10050780C5EB90604ADEF
:100950000414DA0A2404013C650954990864CF039D
:1009600022F80C4C0000118E003A00001D310918CD
:1009700005002C4302105B0930430468AA0609896C
:10098000090CB80334F50148350152000909AA0CD5
:100990001A5F000450020C8B0524280E38000063F7
:1009A000000041A80C08ED015297071400004DFF0C
:1009B0000C304C0A662908045C0914F70024670A05
:1009C0003C1C0A56A70C085D020C430110F10614EA
:1009D000B8081806081C97072405002C660830A1E3
:1009E0000534970A38B50240FB0B48D60B4C0A0673
:1009F0005805005D640B560D074E0000655F00163C
:100A000000004D000021970716FF0C40970717972D
:100A1000071415004F5F00302D0A3E6106043F08A1
:100A200014A90C2099032427063C0805541A0066D3
:100A3000E50B0CCF03080A0432000011430230001A
:100A4000002D000043950550C80A40F80C58FF0CD3
:100A50001A3E0814B800345F006B060C2F010330F7
:100A60000000519707163B013CCC0B42A704145FD2
:100A700000525202242D0A3CBC021E00004D950576
:100A80005437093E9707148E003895055018010E0B
:100A90000000397708407D090D44075600002537CE
:100AA0000904060C3F95051D9505090D06119304D3
:100AB000347209381A03487E0C4C890D6AC4070544
:100AC0009404083E010C650A1042091872041C17B0
:100AD00001309505345F0D38270B48BB0B4C8A0D50
:100AE00052000031FF0C4A97071437093EF10A3CC7
:100AF00095051695053C950554C8002071044A716A
:100B00000406320D08C5094E1B0A0443021C0000EE
:100B10004DBC0C30320D349F093C5F00546300140F
:100B2000520226000065D4021474032431013CC132
:100B30000A5643023130084863003E5F0014820ABF
:100B4000049B073E43021C00002352023C21030C7D
:100B50005F001C430250330D3A58092F520207CF51
:100B60000D098F0D0C0B041053001473041C18078F
:100B70002CBD0A30410934C301387608409B014836
:100B80007D0C4C270C50A70D5A0000155F00380053
:100B90000908C603362C0C049707149B0520B90CD2
:100BA0002415003A300214000041CE02185B0930CF
:100BB00027030CCC0A10AF051CB60334050538AA70
:100BC0000D48CB014E21030C980510C80A19DE0907
:100BD0002CFF0C5300006500004300003D00004D59
:100BE000060C2C8C061C000065060C16000051FF3C
:100BF0000C30E50B5A00004DCF035095052D450CE8
:100C00005600004D00005D95053431091800004183
:100C1000E4071D000049970732730B0440061410C7
:100C2000022029032495032821043C950948D10674
:100C300054AE005C76036600001500004D6F0C0496
:100C4000060C36320D2A5F0038B309169505248A42
:100C50000C0480065695052D2D0A4F950524FF0C92
:100C6000185F0010FC0D34C90A08E8020CBE003001
:100C7000720640FB004A3B013C520116950504A652
:100C80000415320D1C010024EC032C320D4C270DF1
:100C900052E50B1C2A025600002500003D70071685
:100CA0005F003052022600004DFF0C1C970717957D
:100CB0000504640B14250E10270C190A081CEA0AF7
:100CC000301D0734000D3875033C86034077034C14
:100CD00013065AC70A0800003D00004FE7090C95AB
:100CE0000520E70938740336000021320D32000078
:100CF0004DEF0B14B90C270000155F0050D90256B8
:100D0000A80C0843025AFF0C34C80A4041090A00E3
:100D1000005100002D00000D000041710410320D43
:100D20001525075B5F00385F0012000005060C1EEA
:100D30008A0D084109165C02365F00240000650632
:100D40000C327C014EE50B14BA012095053E410999
:100D50003000003F0A044800004D430223CF0350F7
:100D6000640B144D0024CF0330A6030925013C2158
:100D70000341270C4BC80A1CCF034E96085041096B
:100D8000047F00153D0D30F50C38DB03482D0A6358
:100D9000AC0D2E000051FA0D4852021795050406BD
:100DA0000C20F80C4E00004D95052343022CD8076B
:100DB0000CE20C343D010986041C840624490938E0
:100DC000FF024A000011060C300000056300160007
:100DD000003D2A025695053C430234950554FB0814
:100DE00015200E26060C1A97071400006552023CC7
:100DF000CF031C430238B80C24000005CF032E5F3C
:100E000000280000270000659B0B1200003D0B0C22
:100E100052F10A143A04247B0D5401006600004D7F
:100E20000009100009526B0A14260D3300004D957D
:100E3000052D700715400430120242B90C244302FC
:100E40005000004D700716FF0C408A0D50CE050C67
:100E50002D0A54D70808AB0410620014C40A1CD32E
:100E600002300500342609388D023C130B48D402A9
:100E70004C590D5C7206644F026860062695053178
:100E8000FF0C43000005950515640B3C2D0A24FC5E
:100E90000D2A640B49640B32320D1A000011CF0386
:100EA0004A5F0030450C16FB0C168D063359086A54
:100EB0005F0030CA0B1E72063600004965070469E0
:100EC0000114660124CE033C0B06565F03042A017D
:100ED000148B08243E0830E90B3C9008546B075EE5
:100EE000970714B90C2400004900004DFF0C340092
:100EF000090800092CDD0552780C1B00004100098F
:100F0000388F014A5202045F005800005D430234EA
:100F1000320D309505145F00403C0108D7050CC226
:100F2000031C3009243C042C840A3800084A950527
:100F300014F80C4F320D58000057B80034FF0C1E47
:100F40000000650000094D0239D70B0C95052F32C2
:100F50000D2C52022400005D640B142D0A543D0137
:100F600008EB0C3095054CCE0660D20B0CE60A3827
:100F70006901483A0E5263001443021F0000050045
:100F800000352D0A3A95051418010C7C0C10F80C4C
:100F900062520224630015CF0348370942970715B0
:100FA00059080A00003DFF0C38320D0CA806260037
:100FB000091C2D0A225F00240000656B0A16960AA0
:100FC00018060C0663001421030C5F0048CD0B5279
:100FD00063001495053F00004D2D0A3A00004D9521
:100FE0000520FB0C2600003D590812000021CC0A08
:100FF00010400904070714EA0130CF0C38BD0C3C3F
:10100000670D48E8034CE1055053005F520224315C
:1010100009189505102D0A046D050C92011467023C
:101020001DA10D30220338E70C40640748D003515E
:10103000FF0C5D350162320D50320D260000056453
:101040000B3F000065C3031E950514E7010435043A
:10105000089F010CB200109E04181B0B1CEE0C2004
:10106000CD0824BC0D2CB60B301B0934CD03387FC2
:10107000093C740C40350748AF084C0A0C50E9098C
:10108000545A0C583A095C3F0E6212021A31091880
:101090008E0404570908CE050C8A0010F5091CCFF0
:1010A0000320B9002458052C990530C40334EE09F7
:1010B0003858063C3D0940E3014834064CA8015429
:1010C000580D5851005CC8016057066A00003D5F2A
:1010D000001621030C450C144302302D0A4D560313
:1010E0005800003900001B000051000035000019B5
:1010F00016071600002143022C21030EB90C245FB1
:101100000008060C3029010C3E0610030614F10BF2
:1011100018950A1C21032C4C0A34EE0538BA084CE9
:10112000BD0D530000110000390000255F001600BE
:10113000006500004D050E1CE50B2600004D120257
:101140002C43023A8A0904280914780A2030002422
:101150006D083CF50048B10254070C6600004D953F
:101160000514590812B90C245202045202485F00B7
:101170000C000055C80A2C4304680C0410540D18C8
:10118000B8061CBF0030560C34010438FA0640CFB4
:10119000034DCB0D5097071452023EF80C0E52022D
:1011A0003C95051826010497080805030C3E071016
:1011B0006C0114100A1C8A0124800A28760C2C9BCE
:1011C0000C30FB0334D20538CB03405A0848700C6E
:1011D0004CA80950F70C5898075C15006047016649
:1011E0005F000C5F003800002DCF031C9707140030
:1011F0000065B90C26000005B90C24700714CD0B4E
:101200001E450C170000210A0448640B240A041030
:1012100018010C920509EC071DA10D34370B38D6C7
:10122000003D06084C2F0D50250B5E9003522C0BF1
:101230000C320D2C21034F0000554109305002584B
:10124000000011000053F30204DB08142000249670
:101250000130300A3C4704480D09547A0D663109C3
:101260002495051E00004D5F001474053E59084288
:10127000600404070D1477021CBE0C2460053C8238
:1012800002540B0A6600003552023E630706000056
:10129000395F005200001921031E00004D060C0AA0
:1012A000DB001000004F95055D950506CF033E1A43
:1012B000073000004D97071400006700002DD50B84
:1012C0001E00004D950513000025C70408000936CF
:1012D000C40D046902146002184309202B05247709
:1012E0000130470C3CB70A48A20054810B665908EC
:1012F00010630014C80A1E9505409F042800004D85
:1013000095055300001D050604FB0C30190B530016
:10131000003D63000495052100005D5F002C75070A
:10132000405E090C2E0215F3071D7B093071033452
:101330003D0848430C4CDC01544202580A06640A3A
:1013400006688A0D12E50B04E50B56FF0404FF0C3A
:101350002E320D4800004D95051600004D590B101A
:101360002D003C310956DC052C5F004AAF0D1600FC
:10137000001D060C145F005300004D9707145F001A
:1013800026000015FD082E970715590850640B3EDE
:10139000800C04090E14E30C200D0C241E0B303FAE
:1013A0000138D3033C480B48370354550666000008
:1013B0005100001D950514010E26000015C80A3ABB
:1013C000FE0C2E000005520224320D0B520104E5E2
:1013D0000B103D0424490A31E20C347A0C387C0CA1
:1013E00048E90C4CC2005000005943046A00001147
:1013F00000004D95054B95050D8E003B320D1641B5
:101400000910B90C260000515F0036FF0C1C0000CB
:101410004D59081200002500000D000043250B1750
:101420000000159705365F00085F00408A0D2C7A92
:101430000810F3071C940434D80738E10648CD019E
:1014400053970714060C32DD070E950550950514C9
:101450002D0A4CFB0C30F9063A520204640B249519
:10146000051495050C2D0A54FE0D089306307B03D8
:101470003CB1084C44025014005833065EE60B168B
:1014800000002100004FB90C2400004D95053243A7
:10149000021C00004D000019060C48630017630091
:1014A00014CD0B131A0A04550D08CD050CB1051403
:1014B000FA071890031C9F0A248A0D2CC50030D30C
:1014C00000341F0B385F09405807486B074CD8059C
:1014D00050320D5812025C95056700004D00006502
:1014E000630016000015950332500226B90C240043
:1014F000004D70071421030CC70330D402400009CB
:10150000530000499505530000215F00304302401D
:10151000430258C80A2CB80050950510DC01540647
:101520000C0C130D1CA000247B0834B406380500F5
:101530004808086895055E52020452021695051582
:10154000CF031C430266970715970724430211BF78
:101550000A56B90C2400004D70071400091043020C
:1015600019600B32D70504320408C00B14090A268F
:101570001C0332B90B04F40714880424B50C3CD9BD
:101580000556000005FF0C1E000005000065000068
:101590004F000025950515DD052E00003D000932A0
:1015A000000055970706DD00068E0054AE0104DDED
:1015B0000314BC0124C509306D0A3E00003500004B
:1015C0004F000051E50B1E5F00384D020D43025CD9
:1015D0005F006A00001D5F00505F00068E0038004B
:1015E000004F94030A9A0814460B04B20248FF09FC
:1015F00056E70704700614F20124910D3C3601569B
:101600000000255F000C43022C060C1EFF001E6329
:10161000000400005D5F00089505140A06600A06D4
:10162000682A0224CE06103C0218D00A1C6B013036
:10163000540835D60938FC0C4850074C010D663F5C
:101640000442180126000065F10A3F3B013CB80046
:101650003663001452023E95053C05002C95051C8E
:10166000FD0D088F060C950511C40014AE0A18274D
:101670000A303D01351D0538F807409E0848960898
:101680004E00004D5F000EAE0D2600002500002D1F
:101690009505130000058E003A5F0050640B2495F9
:1016A0000514630A10360C30D507387B0D3C5F00FB
:1016B00040F00748BA024C960A0E430230320D50F1
:1016C0004302359707102A024850025A21030C069C
:1016D0000C3A74051400006500004DFF0C427904BB
:1016E00004B804140F0420EB0824C6073C3D02484C
:1016F000AB0C54160B5C8F0466610B2C9505130024
:10170000004D95053B58081E950515F80C4F000037
:1017100039FF0C36E7090CCE0A3600003DFF0C40BD
:1017200034071600004900001100003BB90C246B7F
:101730000A1700006537093E70012F00006543025B
:1017400034630017B90C2443022C6B0A14280E389A
:10175000F9070C00003D000067950549B90C24000D
:10176000003B00001D630014410935FC0D5A0000C8
:101770003100002D3B020CFF0C349505560000197A
:1017800097073A4302345F0030950514950551954B
:10179000050C060C088002045C0224390B4A430243
:1017A0001C9505215908246E0C54CF031241094899
:1017B00021031EC10B040C0214A1063C540954431E
:1017C000026600004DCD0B12FF0C1F000015FD003E
:1017D0001ECA0B1B060C20FE00449505149505053A
:1017E0009C084E0000515F000E5F001700001500BE
:1017F000003795053100003DB90C260A06589505BD
:1018000038CF03042209090B071C790D5097074AAA
:101810005F003B00001D00005D43025800001521E1
:10182000030EA70404950526BE0040B90C249707B3
:101830001718011400001100004B95051421030E28
:10184000F90758FF0C4200004D0202162D0A2443EE
:101850000258640B32000011970714B90C240000E1
:1018600039FF0C4021030E0000154D020DBE094E3C
:101870000000115F00509F0924FC0D3A00002195E3
:10188000050C95051C5F00102D0C04C60B24C50328
:1018900034B609381505480C074C3C0C508A0D59D4
:1018A000CD06646D076A5C0238000013400D179581
:1018B000052D53063200003121034E950521950573
:1018C000409505349505515F002C950564AD0110D8
:1018D00095050807040C710428D0053041093883A8
:1018E000003C940C4843075452025E000065B20964
:1018F00016FF0C33000065F80C4E8F0004490D14E0
:101900000909204B0B24850630B00D38A10A3C751F
:101910000948F80554AF005C5D0466000005640BDF
:1019200064970715000055000051430232060C5819
:1019300000004D0000339707142F010CEB0A2C0E0A
:1019400006105C04188A061D2C0A24BD07302902E3
:101950003C600D40390C48BA0B4C1D0450BD095673
:101960009505155F004E0000210B0C50C80A2E0093
:101970000035520248E7090C95051F060C23520258
:101980003C00004D970726D70D0E970714DD051074
:1019900000002500004F34024A00001D00005D9544
:1019A0000551E7090CBC083A00004D95051F0000E1
:1019B0006500004D00003D97071700002159081EE3
:1019C00000006500001D9707155F00135F00307071
:1019D00007170000250000515507048E003E000047
:1019E0004963001700006500002D00000F950550A9
:1019F000970715590C30000065B90C2600001559E1
:101A0000086BC80A1CED01203E0C3E00003D590841
:101A10000A9505195F004F9707149505268703421D
:101A2000000011B90C2400004B00005100001D18EB
:101A3000013CA80C0B74033795054095050C210B50
:101A4000087B011C5C0D305F0234E20648420C4CFE
:101A50000C0858CE0662000039000031FF0C5A5FB6
:101A6000005818010EBF0A04BF0A26000005000036
:101A70002DC3094A970714F10A3E0A044843022C71
:101A800021030CAD0110950D14B8001C6006304701
:101A90000034520338160A40CB08522A02042A02A4
:101AA00016FC0D30000069F20604E001085B030C2F
:101AB000760610920A14F90D18F80C1C810A24FC01
:101AC0000028B70034840738BA0C3C1C0240FF0DD4
:101AD000443C0E48770C4C680750950558BC005E96
:101AE00095050497053400004D5F00267007145FCC
:101AF000003295051D950548270C396C0C560000E1
:101B00002DFE004600001D630014420448A4085343
:101B10005F003097071700003D5F005800004D310F
:101B2000092495052D9E013095051A0000510000ED
:101B30001D00004D9404080A065C0000416D003849
:101B40007A063CAC014A000051060C42FF0C6A5573
:101B5000013D4302124302346901162D0A38480A36
:101B6000409505202103507407045E020CAE051059
:101B70005A0914630B24CF0330270C343D0B48085B
:101B80000658B10D5F000011640B30950541DF066A
:101B900038FA094A00002D5F00307C0B0C60064AC1
:101BA000B90C24970714FF0C5295050952023E9573
:101BB000050C320D3A640B3C0000050000170000D4
:101BC0004997071595053BB40D3C2D0A2695051C34
:101BD00021030EFF0C1043022C3002151C070DC10F
:101BE0000730770D381A0940A40C4CE30050320D31
:101BF0006695051563000443022600000500004DAC
:101C000095051600001500004321030600004DB89D
:101C1000005200001543022095055000002FFF0CD4
:101C2000180506049A0C09F20C0CB80111330715BB
:101C30007C093095043863073C8305405501480111
:101C40000E4C09086B00004D00005700002DD30A10
:101C50003018013A37093C43026416071500006B3F
:101C60000000110000419505675F002495030800FE
:101C70000015000067000065320D342E07048A014C
:101C80000C940610CB021495061CD70A30D00138EC
:101C9000CF0B48C3004D38095041045A280336FF82
:101CA0000C3B1B0A2652020498081C5F002C950569
:101CB0000C0000690000610906103606308B0B38F5
:101CC000D602405A0748A004505202666E0C160015
:101CD0000065060C0A9707388E0048630014000060
:101CE0004F9505145F002600001100003900004DDB
:101CF000FF0C2C430230E50B589B0548C80A42E50F
:101D00000B14020E04B0023C950527FE0B09D80700
:101D10000CCB0A10E20418B0051C640B20CE053071
:101D2000E00C349B0938350D48B9024CDE00507880
:101D3000086A050E4263001400004D950506000078
:101D4000050000155F000C5F003A430209630017AD
:101D500097071400001D8A0D3AC00B3E320D2C2D42
:101D60000A48260804BF0910410A14C20A30290C87
:101D700038D60152320D4800001B00004D870B3051
:101D8000000051630016000035000043C50B0451EC
:101D9000023E0000515F0024060C32970714FF0C2E
:101DA00040E2013E000938060C3259081B00005180
:101DB00052023E00000500003D000015FF0C2D41C1
:101DC000091E00002195054F7C0C0621030C95058A
:101DD0001F000065060C4200004D00002DCF036A75
:101DE0002D0A14C4004DBF0A36CD0B0800004D5F0C
:101DF0000032950510FF0C321B0A0400001918016F
:101E00001600004DD90256CF031C95051159082420
:101E10002B0B3A52023C430468CA010C4A07104F8C
:101E20000718620A1C410920160430CD0D34210622
:101E300039640048EF0C4C560B5300004DC80A2C77
:101E400043023A000049B40304730614CC0024BFD3
:101E50000D3CE80A56CC063221030C00004D9505D6
:101E60002F000019950551400A306D0768120220B5
:101E700000094A00001D5F0050FB0C30D10D4232BA
:101E80000D22000015310918000009FF0C2CB109C2
:101E90000CE2071104001D5201245E0030B4093821
:101EA000640B5FCA0404D701144E002478073CF683
:101EB0000D5495056600001100005100092CCF0358
:101EC0000C00001D00003B00001500001D430238FF
:101ED000960A12FF0C40FF0C3452010621030C013C
:101EE0000E24320D38C1035630021400004FB90CD5
:101EF000245F00505B07438A0D2F00006595054A5B
:101F000000001598085000002D43023A060C3E00D0
:101F1000004D38063077084018014A3B0552060C40
:101F20004E00004DFF0C1C640B1612022C97072666
:101F30009302260A04162802040200142B0C2628F9
:101F40000E5E000015E0000A00000552023E880700
:101F500004DA0D14320824460130160D3C150E54D7
:101F6000C5095C840B6600003D000015320D383257
:101F70000D50240B062A02244302535F0020370928
:101F800056DA001E0000055F0034FF0C1043022CDF
:101F900000000B00001195053195052ECA0B5295D6
:101FA00005112103405C024C64015295031B970705
:101FB0001400006500002DFF0C3878000C57071C3A
:101FC00006062700004D52023EB90C2421030C09DD
:101FD000031600001121035297071400001DED01A4
:101FE0004E950551000041950511C902325F00046C
:101FF0009A0814B505248B0C3C8E00547703665F59
:10200000004895053BAC030600001500004D950502
:102010003C5F003295053C950524940104050614A7
:10202000620D1CFC0D4A00003D050C4000001552DD
:1020300002264302105F005A970714D70B0CD202F6
:102040003A00004D5F0034970715FA0D48D2023868
:102050009505096C0818060C2E5F000CC80A32950D
:10206000052D00004115004F5F00310000530000B6
:10207000352A0206A50308D70B0C8A0D10ED0918A6
:1020800044041C410B30FF0B3454053854043C48C5
:102090000A403409485E084C5B0250D80B540A06CB
:1020A0005CCF0364D90226000051B90C240000392A
:1020B00000004900004D000031C80A10430242638D
:1020C000000421030C76073000004D000043950505
:1020D00015FF0C10320D3A320D083002105F061455
:1020E000EC031CEB032D180130DB0C34E90838211C
:1020F0000B40950545F50348AC094E0000517708A3
:102100004095050D9505494D093AC80A1FB90C259A
:102110003F0D17000015B8003600001D00004144B7
:1021200007540000510000110000679505150000DC
:102130001D0A065CC30A24B10330A20834EA08521F
:10214000970714B90C2400004D1202521B0805E534
:10215000031485002600004D950551640B05950577
:102160006500093342072600001900004D18013AA6
:1021700000004DE50B0E9505215F004818010C6429
:102180000B0497073CBE0A145B09309607386800B9
:102190004DE50C519F055500006BFF0C10C80A302F
:1021A0001F042F43021C640B07530638B90C24701C
:1021B0000716000039000041000910110219F80C3F
:1021C0004F00003152021E63001400004D9505655A
:1021D000F60C040D0809FC0D10F401247E05389A54
:1021E0000A3CCA06405003499F065400006143025E
:1021F0001A000021430264A8030496051422062451
:10220000A20C3C4A0B487600562E0A04D008142A29
:102210000724B5033CC00354D30A679A05325F0014
:102220006800000BFF0C5C2D0A4A9B0530950512D7
:10223000000015FF0C1C5F002652022470071600D8
:1022400000159707268A0D1C590812520214000027
:102250004D9505420000252D0A3CBC021EB90C24F8
:1022600063001600004DCD034200004DA80D24036D
:102270000332060C505202140A062C8E001C9505DF
:1022800008E4030C720B100C0C18320930980A3554
:102290008F0238D9084A320D2C00004F0000155F1C
:1022A0000037270C31000015B90C2600003D000056
:1022B0004D010E2600004100005F00004D2D0A1563
:1022C0000C0A520A0448010E24F90C380E073E9DF0
:1022D0000B047605086C0D0C6703103E0514B50D54
:1022E00018B2071C7101207E0124070228E4052C86
:1022F000CE0930780234840538CC043CA4054078FB
:102300000344BD0248290E4CFE0650A00154970616
:102310005820055C1108604D0464F9016A430234D9
:1023200000001500004B0000055F05146008260042
:1023300000210000535F00142A0204500232770487
:1023400026000025FF0C5095051500004FFC0D2EB2
:10235000320D3800005100004F6300145F0008B8D0
:102360000035FE00466300150000050000279505B6
:10237000150000510A04102D0A24FF0C3A00003DFC
:1023800097071400004DFF0C0A5F000C2D0A140083
:102390000005950526F80C5863005600003900002A
:1023A00031060C48A0003700000500003DFF0C106E
:1023B000000015000033000009640B32D30D14A097
:1023C0000D3C3B0426270C502F0215950510570C89
:1023D0000945041CF90030A30534510938F50941B9
:1023E0004C014860064E52023C650D14CF06526304
:1023F0000014F10A3E0000519707249B05320000AB
:1024000015FE0046000065630014060C32A10C4C5A
:10241000000033A5061498081C640B2495052C4372
:1024200002346A0748060C502A0254A50458950540
:102430001BAD0306B90C259707157206125F000C39
:10244000CF031C5F00683D0108CF0310A50934AB22
:102450000138430248C5015D00002100002F000043
:102460005100005D63004B000005C60B24A00D3039
:102470000000155F004A9505252D0A171006243225
:102480000D57640B33000015270C1E00002152026B
:1024900024000055000041640B043D0108950565CA
:1024A0000A040C19051CB0003913043CE009480A61
:1024B0000662970714D90832ED0C263B030CCF02B5
:1024C00010E60714630D180C031CFA0C04530208E1
:1024D000AE0320BF0B24170528780C2CF20B3042DA
:1024E0000D34880338D20C40650B483A024CE8089A
:1024F000509D0554A4045879005C600060EE0166AC
:102500009A0824CC064A320D30ED0A14CF03240673
:102510000C12000051F80C4E00003D0000150000A8
:102520004F00003152024A640B04A80C08C3031D7B
:10253000F806385F002E00003900000F00002195DA
:1025400005529707145F00320000656300145F00B6
:10255000322D0A1400003500002F00002100001564
:102560005202062D0A23B7080895052F5202485F2C
:10257000004C98085252022400002D0000414207EE
:1025800038710408320D130000352D0A14590C332C
:10259000430209950517000011000049000033951A
:1025A000055418010C950509FF0C2D970739440BAC
:1025B0005D00001100003764081A140B04E30510D5
:1025C000260C1495031C3109248005305F0034F17A
:1025D0000A3C950552B8003495052D060C3B0000C9
:1025E0003D5F000A750D04080714990D2417083C77
:1025F0002A08561507140000670000395F003021D3
:10260000030ECD0350010E26FF0C1B00004D950557
:10261000195F002CB90C04CA0908AD0110BA0014E6
:10262000920630450938130840520249940852F87E
:102630000C4C430258430468BF0A094C020C3B0B84
:1026400014A8041CE50B2CE509300A0640CF054808
:102650000A0650C2016200001900001500004F2157
:10266000030CFF0C136F014A0000250A044A000006
:1026700015000057740514B90C245F0034000009DC
:10268000FA0D4AE70B16000051FF0C302A023E9566
:10269000053C00000DDF07495F005000004F0000BF
:1026A0004963005600002D70071600004DF80C22FB
:1026B00000001100005100004B0000219505242D61
:1026C0000A540A062CAD01102F010C970230B508F0
:1026D000346900387B073CC90640AA0148B0074C62
:1026E000E80950C9095E9A0B42630015CF060A44F7
:1026F0000C1600000559085695054012025C0000B2
:1027000069FF0D44A60D0C8F031033041448021CFE
:102710000F0824EB0D30D40D344E0A383906482109
:10272000034C2D0A50FD085B2D0A409505592D0AD2
:102730000E320D12E50B4C95051443022CE50B3AB5
:10274000000005B90C243002170000215F00162B91
:10275000085600002D3306385F001EBB0C501500D4
:102760004EC70A1A00001500004D5202485F00349F
:102770005F0030320D386F0B09B80819FF0424715F
:1027800004426F0B0A000015D70B0C5F0048C3030F
:102790001C95053809075F000011FF0C2C43026BE4
:1027A000000005000025000039630016430234C60E
:1027B000025443020A950530950511950318CA0580
:1027C00024060C34D802540A042200001D70053F70
:1027D000000039950550F80C4F1F0004060C0A2F15
:1027E0000D14950556000039950550950525B00541
:1027F0001C000041970748C80A08230B0CE0003072
:10280000E200370000090000418E001E52023C8E9B
:10281000003A8E0048640B260000659505570000BD
:1028200035310918950530CE050CCF0D08600D1017
:102830003D051420031C400E389F00400A044CDE66
:1028400007502F0A6AB90C24000039060C30B80969
:102850000A00003DFF0C11F90352B90C246F071454
:10286000E50B4E400A309C0B3A870439D50A40E309
:10287000005109086A0000259505439808509B08F7
:1028800034E3004200004D000019C80A36D70004A6
:102890006F0C16000015CD0B50000005970726F8A9
:1028A0000C2300002D280E32060C5C95050EE50663
:1028B0002400003D97071400004F00003D00001564
:1028C00059082E5F0005FF0C13C10304950516FF80
:1028D0000C2F950521950533FE004498084A3709C9
:1028E00054970716060C139F0412060C04C00A1412
:1028F000B90924E4023CD907565F00585F0038BB91
:102900000B4CD8070C9505093709043609149005B6
:1029100024E30548DC0950D00B5400095E00002573
:10292000630014060C1F520224BE094C4302385F98
:1029300000102A0204AF0730330B0873000C330178
:1029400014D9081C61013C220E41D50D4962025088
:10295000350254CB0C5E6A0A16320D48000005970A
:102960000716970714B90C247E020C0A041C9C0459
:102970002F0000052A02563C0B3C00000700003DDA
:1029800063001700001D00002D2D0A14BC0209066B
:102990000C31000041320D44CB0648000005000018
:1029A0001300001100004900004F4A0904430214BB
:1029B0001E0924CD0334FF0C40100855640B66003B
:1029C00000655202042A0254950510910C145B0B09
:1029D00030880B38C3093C460448DC034C340152B0
:1029E00059081A00004D8E00046300560706267031
:1029F00007145F0024FF0C3A00004D000031640B07
:102A00000600000D000025970717970714630006BE
:102A1000000065000049060C32630014000031001C
:102A2000002D00000D710636A00204E70614020D09
:102A3000209B0D249B0230E3043C450748190154B8
:102A4000DD0C6621034C71041A00004D060C3A900F
:102A50000D3A00004D640B4A12021C710432000052
:102A60000500006500001D3B020C43022CFF0C3AE0
:102A700000006500004B95051452062D950522FFB8
:102A80000C699707179B0542640D14FC0D3059081B
:102A9000529B042C060C16950515000009000041F8
:102AA00095051F0000495F005800001B0000110041
:102AB000005100000B95051DC5030C7207385F001F
:102AC000482D0A4C0A0A3E0000050A043EB90C24AF
:102AD000000041F70332C1031660063E0000155F97
:102AE000005A5908505306330000655F0032300227
:102AF000142D0A4E7E0B0697071400003900004F74
:102B00002D0A32570104860A14BE0824E400308DD1
:102B10000B3C030A48EB025634061700004D9B0598
:102B200052520204520224C3031D500240A408560C
:102B3000FF0C1C640B30DC0154240938FE0748D418
:102B4000074C640B5C000021FF0C5243023543022A
:102B50004100004D59080A000015060C42370916BD
:102B6000270C17000065000039640B06950504F07A
:102B70000A3E950524F80C4C21030CF80C605F000C
:102B800010000069C307048B01146300202E0C2D74
:102B90003C0B34340940DD09509707542102589703
:102BA000075CCF033A00004DE50B329B05309D06D4
:102BB000148A0B6652023C030615AF0730870738AC
:102BC000C20948CE01520000095F0040E7093A00FF
:102BD0000051060C4A3709542D0A1600004D130304
:102BE0000A9503562D0A4C00000F0000512D0A547F
:102BF0000A046A000065700716EA0D24AD00420061
:102C0000000500001D00001918010C7C0C10580371
:102C100014630024DB09304207380A04414B0048A2
:102C2000C804525F0050950514AF0730050008D660
:102C3000050CBC0B116E0B1896031CCD0A35FF0159
:102C400038400C4A00004900000F00004D9707155E
:102C5000060C4200004D060C1E5F0014F10A3E1CDB
:102C60000804AB060C5C0C14AF0A20190C241D03DD
:102C70002CAF0630A10834000C389D073CCB054032
:102C8000790C446B0748150350510A54C6095CC4BB
:102C900002666300145808525202048E0024520245
:102CA00056430250400D16F90A02000000026F025E
:102CB0000848072600001100005100004142086545
:102CC00097030C8D0324EA0230F109357305384D62
:102CD0000548E9004D3F0858220156A904080000A4
:102CE0006700001511002F11004C0000130407307D
:102CF000000049CF053A420815000065960311000F
:102D0000005551061D0000612201182309515F0082
:102D100005840338DA065900002542084F380114AB
:102D200048062428043CE00156F70048000059CF2B
:102D30000539F7000812000C00001D900036000055
:102D40001100004DE9000CC9062415001500002FE4
:102D50007D0425000007420815000035220138F7E0
:102D600000092201304208416500492109513D0313
:102D70001A42081142083100005100004FAE03060C
:102D8000420815F7004E000051CB01112201160038
:102D9000001100004900004F150015CB0142F7005B
:102DA0003800001D620943040705380114E3061CBE
:102DB000F90825380038CB063C2901514208540057
:102DC0000011000067CB010B00001100001900008A
:102DD0003900002DF70058CB064B00004948072466
:102DE000000009F7005800005100001500003304EE
:102DF0000730F7000E480724AA04172A0804BD0765
:102E0000148B0320520624FC083CBC0448AA085436
:102E10003F095C4506660E04510407240407043884
:102E2000001DC901384B094A000051000011000083
:102E30003B00005100003D04070435041229084CF2
:102E4000D101049D04148903208E0624A407306D4B
:102E5000013CF00248A101566704310000434807D5
:102E60002400004D000015E9000C0804523B060C3C
:102E7000A402103B0318F1051C3800200D09244260
:102E80000804D70208A1082CAF0530B2033454005F
:102E9000389909403D0748CC004CAB0950CB075846
:102EA0005E085CAE0660AE0666B102150407260039
:102EB000001535044200005100002DCB011106041D
:102EC000150000054807279A0616220142350441DD
:102ED000000039000033000039000041FF042D35A7
:102EE00004330000656B01157E0426C10256000004
:102EF0005138013C050824F70533F7004800001558
:102F0000F700358D0324000065E6043B1500320010
:102F100000417E042142082DA5034F6B04048C015F
:102F200014E50720E603242104307A083C230148F5
:102F30003900549B0166110048000035E9000C047B
:102F40000727F3034A000051000035E9000CCB01CC
:102F50001108063935044900005700004D42082F7A
:102F600056023E04040C00002311004200001DF72D
:102F7000002C38003542085F00003DF700320000A9
:102F80004900006535041CF7002C35043B0804306B
:102F90000000175C081553081E42030C22013A1169
:102FA000002300004DE40648000011000007000067
:102FB0004DFC000CFE0416000011480724420814C2
:102FC000E9004C60040538071C2F04386B073D43AB
:102FD0000348B70351CB065E4F01384D020E000087
:102FE0004D00000911003000006142081DED05048C
:102FF00050040D1207116E03151F041922052546F2
:1030000000358200380E0441F70351D4095B1100EA
:1030100039000053C0060437011474062436063CF8
:103020007C095502006700004D00001500002700D4
:1030300000250E04507E0908EE0810E802188801E9
:103040004F00004142080900003D000017E2022F36
:103050008E051400005F000031040716CF0538000C
:103060000065000021000035A3090C80004A020021
:1030700061FE01081C0414F7001886011D60073169
:10308000310039620749CC084C59075300004D0004
:103090000015CB014288032C00001D000017000022
:1030A0001588034888035A0000194208330000318C
:1030B00042083B42081500001D00000942084C0070
:1030C0000061850010680430150038C7013D6206B4
:1030D00049EB035404075E00004D15003B00003D22
:1030E00000000511000E00001500000900004D0051
:1030F000003300001100005100005D0000250000B9
:10310000350E041C3E030CCC0214A6092CE9023136
:1031100034083876083D4B0141BD084847004F0050
:10312000003D00002504070400002142082F000094
:103130005D42033842034E00001538000A00004D7E
:10314000220120FF015600004DEE07448F07530077
:103150000015000041F00704F0093422013843064D
:10316000480407330E043AFE053B000015E0023325
:10317000F7004853051706041400004FCB06042A35
:10318000050CA4094E000065BA0939F7005A000081
:103190001D00000942030C3D0318420841680668FF
:1031A0004505108F0030EA0834A805394303496B00
:1031B000035300005DF7000802044E0000110000F8
:1031C000510000358D03049E0715150031BA0539ED
:1031D000FE044A00004DCB0614040704CB01530241
:1031E00000658101049F02140F042439083C41004A
:1031F000574807241500150000650000214E073EC2
:10320000420811CB0131CB0153900054150016C276
:10321000041CF7001200002D000009530833CB06F0
:103220002400005D00003100002D000035F7005142
:103230003504411E040DF80111FF091CF70039384F
:10324000004906034D1E04589B0367000049000017
:1032500015F1031A00002D28095200004D380034E2
:10326000EB091600005188033200003D000041F7D1
:10327000000A35045000004D000007CB0624420828
:1032800065F7005802044C69063900001100000B74
:10329000000015CB01120000152A0552CB013800A1
:1032A000001D00002F8D0314F7004A0000053800B0
:1032B00036000005F70030F70008350440F0081C20
:1032C00002002C00003900004D00001500003542BE
:1032D0000813000011150014F3033A1500149E01A1
:1032E0000501082438013D29035600004D00000562
:1032F0000000150E041C42083CCB014B42030CBAE3
:10330000093B00001D38013C0906043907114B0731
:1033100014FA07312B0935EF023917034890074D8E
:10332000E9005300005100004DF7001C020061F756
:103330000010220139FF092C090318B707300802D1
:103340004972095800006500004336010CF800106E
:10335000A2091D7F03306204391E0440720948CB64
:10336000084DB8095100086B00005100001D000015
:103370005D380034CB063C42030C42084C5805042F
:103380004A051515004A08064200004942083B005C
:10339000003D42082F000051F60615BA093A150003
:1033A0002400005D2201309305484E045000006364
:1033B00000002D000049000033CF05380000170041
:1033C000001500006B000015FC000E00005DF7000A
:1033D00035F70040FE04498D0324F701112A013816
:1033E00034063C020551CB065400004D040716007C
:1033F000003900003100002F38002652082F040742
:103400001427080CBC0030050739980649C7034C3F
:1034100088015096031200005100004D0000150075
:10342000006500003500000942081D990330ED04D5
:103430003925083D72094127045404075F8D051E94
:103440000000110000510000050000158D033E72C0
:103450000938FE043FCB063C42081172092CA3092F
:103460001C4208411700046A02090D070C5E03158F
:10347000AC0918230830320134490739CC0748B465
:10348000044DF90151FF095A0000050000612201B5
:103490001500001100005FA90411B5001400003DE3
:1034A00000004FDC063301024A00000D0000410419
:1034B000073000005100003BF7002CC709570000FF
:1034C0004922013B00005100004D00006500004111
:1034D0000000218D0324F90504E3010CF907100A0B
:1034E0000614FC0730900035E6043929094B00002A
:1034F00005860914D105260000190000392A055057
:103500000E040A000011CF053800004142030C00F0
:103510000051000037000015570352030004B302A6
:1035200014800624FE043479023CCC0654EB076672
:1035300048005400004D000005F70032000065000F
:10354000002100003542030C42033AF700248403B3
:103550001683031600003D4208334208150000059B
:10356000000023CB003E00006500003D0000150078
:103570000033F70014BE0324000057330214F5068D
:103580002465093F42081500001142086542084CB5
:10359000CB065D110008EF02180A0630F705350169
:1035A00006396C023DE307411F08490C06515705D7
:1035B000561600240F0048F501560000217E044FE6
:1035C0004807240000072A051A00005100001D00CA
:1035D0000065000021000035BD00083B070C960384
:1035E0001172092C400431FC063914084909044FB2
:1035F000000015A6091E00004D000015000021F76F
:10360000000C42081F00001500002100002F40069A
:1036100004E305148D0420A70324C1083824003EC8
:10362000F70038000041F700520E040E0000153577
:10363000041C4D020D99034CF70011A609404004EB
:1036400030AE0554050404FC09096E0935A108389B
:1036500054083D790851D906586E095F0E04480098
:10366000005100001B53082E4C001535042237086A
:103670001500002F000015F7001E00001D0000655A
:10368000000021040724380010FF0935660139FBCA
:103690000648EB05592908680000150000410000A4
:1036A0000B15000400005D42084E000005220124B5
:1036B000CB06160000659708044A0614EA0124ABFD
:1036C000063C44045600001100003900004D000083
:1036D0005738003AF70038F70048480724020042FC
:1036E000E9000C000055B7004999034C3504532AF2
:1036F0000508A90443000011000031AE065800007F
:103700001900004F00004D22012401021498011EEF
:10371000000039000015000043000065CB060600DC
:10372000003900004DE900520606310000518F07B4
:10373000130000390000490000110000530000652B
:1037400038013C11001600002593013DA9020690A6
:10375000005400004B000065420824220104C5000B
:1037600015F7063DED0248CF0556340158F7001E07
:10377000FF052F480724000015000067C40610410C
:10378000003E000051E80324DD063300004900003C
:103790003100001100001900003B420814D7070651
:1037A00000001100004104050CCA0630F407390678
:1037B000034CCE025142034ACB015000004D0000A1
:1037C00023000005000041CB06145505250E0436E4
:1037D0000000215703520F061C15004B150014481A
:1037E000072400004F22011804073200004142085C
:1037F000092201247F010C1107359E073951014828
:1038000053051500004F000011F7004800004D005F
:10381000005D420865F7002CF70051900035F70570
:103820001D0C070C090625000029A60539AC00412E
:1038300040085A00003D42080400004D420811F0C3
:103840000409C7061D4E042C950130520539B609EE
:1038500048910053000015F700110806322A034D65
:10386000980350F7003A000005270923000049009B
:103870000031A3091C15003A000015FE0406420899
:103880001B00004142081300003900001504070422
:103890000E044A420811DE000442030C2B051551A8
:1038A000061DC10031840339CF054822014CED01CA
:1038B0005311004F4208498D035600003500001196
:1038C00000004B5C081642081500004D000021EE78
:1038D000074660086400003F000041A3091C4D0238
:1038E0000E42081500001D00002FFE04346305047D
:1038F0001D02146A06247F043C7706544F0866E6CE
:10390000044ADD063115001700004DB7013E530390
:1039100004AE03140F012410013C160856F30332C1
:103920008F074B00001D00005D4D020D000051008F
:10393000000B00001115003A00001D0000150E04D8
:103940006ACB063CF7005A1100488D031600001D93
:10395000AB0426000051000055BF084A000039E8BA
:1039600003243800141E041E0E040C000015000071
:1039700033CB0624F70016000015F7000C44004E68
:1039800042081D22014D7603106D033437073BF7C3
:10399000001C3504104807248D0317F10850CB068E
:1039A0003E00004D00004100003500006142030D63
:1039B000F70068F405103304144D071D4B07301948
:1039C0000339F70049B0035300004D0000510000D7
:1039D0003300001100001D00002D350438E40617E7
:1039E0005C001642082DCB0111DD0632000011CB20
:1039F0000624F70058F7002C420809DF070CF700EF
:103A000019540131F700354908394C014169014920
:103A1000E5024C5E0251490654B80767000009F7F9
:103A2000001200004D420816000041000009420348
:103A30000D460711BD0931E5013525053982033DE4
:103A40001F074989014DE70951EA0954060858350D
:103A5000045C000025CB0606110033F70038000097
:103A600009F7005141030CE604144E0841000031EF
:103A7000000063CB06142D04047B0424AD013C1E1E
:103A8000045600001100001D00005D42030C4208B6
:103A9000390D05050B0815AD0041D9004991054DBB
:103AA0000D065300003D06041600001100000F0033
:103AB000003D00004D000015110030F7000C0E0411
:103AC00050C60126CA012D000051000043220139D1
:103AD0003D03300A063D6A084800001500005F02F9
:103AE0000065EB0004520314B9062433043C32078A
:103AF00056F3042200004D00000500006538001C4C
:103B00008D033C110030350438740752040730002F
:103B1000003700005100003D7D093A00004D51047E
:103B20000A42030C78033500001D00004F000049D5
:103B300000001D000065000041000009110011F7A0
:103B4000002CF7005142085D8D03240D070DCC07B2
:103B500035F30738D1054D38005A110050F7000EE3
:103B600000006500000942084C28050C9401244718
:103B7000062C00001D11001738001400004DF7003E
:103B800032000021110053F70048000051000039B5
:103B9000000009790904F90711F20315B90324A9F2
:103BA0000732F7003000003700004D150014F70011
:103BB0002600001551042699012F0A0304F8031466
:103BC000D8032426003033053C100248BF0554F7C3
:103BD000006600004900005100004DCB012F440059
:103BE0004BEB0904440019EE011D600430D7063484
:103BF000C70639E3024802005800001100005100D6
:103C0000004F000051E9000CA3091C420849E604DA
:103C10003A000039CB061E53082F00003DF7005034
:103C200011001488032F8D0314F70032000049009F
:103C3000005100001900003900004D000043000051
:103C4000498D035600001D0000414208658D0305A3
:103C50004F07091100114707248003305E0034BB71
:103C6000093881093DF8064842084D6A0951A00902
:103C70005439015D020063CB01352A051200001D95
:103C8000010214310648340450FF05130000519519
:103C90000756000011000015DD0648000041000035
:103CA000370E041D00001100004F00003938001EBF
:103CB000E9001C00004900005300001100005115EC
:103CC00000390000410000353D0314550132000069
:103CD000218D035600005100001D000015CB062465
:103CE000500041F7000DEF03116F021820092C401E
:103CF0000430000234C304391D074905034D290867
:103D00006141086700001D42082DCB0113000049E6
:103D100000006500003551061DF7002CF700100467
:103D200007249E060824050E00001100004D000027
:103D30005D000041CB063C0000094D020D00006112
:103D4000F70031CC073536043920074858025500B2
:103D500000658D030600001100004142082F420853
:103D60003FEF0043E206528D0304040724080808CD
:103D7000E8000CF607103C0318FF011CFE0420E3CA
:103D80000330550334AC0438E9003CB80140BF09A6
:103D9000484F06501D0554FB085870095E0000513D
:103DA00000001D00002DE9000E010753000041E94D
:103DB000000CF30438E9001E00004D6401053800D2
:103DC00009AB041538001823052486033138003464
:103DD00048073C0000410E0453F70048F700242236
:103DE0000115E40653CB010A00001D0000654208DE
:103DF000114F070870020C3D0318260424CE013031
:103E00006C0335420339F1004942064DAA05515D64
:103E1000026811003E1E040C00001FA6034D42085C
:103E20005300001900005D420314E4064A760504BD
:103E3000380414EC0924E7043C47045600004D0004
:103E4000002DE7000861050C080610730718DB0851
:103E5000390E0452220140000065B600149000346F
:103E6000CD04396B0950CB064ACF05380407063616
:103E7000071600001100004900003135044300001E
:103E80003D0E044829030553051548072651043102
:103E900000004D000017000049000041000031CB38
:103EA000011157035A42085100004D150016F70042
:103EB0003800001D00004D0000150000670000657F
:103EC00038013CF70026000039000011000033FEE5
:103ED00004178D0314220126220123CB0141000087
:103EE0000B04070500003522013C8803303C031811
:103EF000D004091E030C4C0411E0071DFC01399588
:103F0000084147064C5C0250CE075A000065C900C4
:103F10001427032438003FF7004800004D000041FB
:103F20003D031824050D9903109F061C29082C69D0
:103F30000031FF0934930739F00451060417920148
:103F40003E000015E2065000003900002FF700483F
:103F500000005D42030C4D023CBA0956420815AE02
:103F60000620150024F70034F70048F70038380021
:103F7000537E0421000051420816480724F7002C04
:103F80004D0017CF0538A3091E000015000065007D
:103F9000002DBA0938220106EE0852000015CB01A7
:103FA0001E00001100005104073042084DF7003593
:103FB00035000C1A05153D0319C5061D5F0939505A
:103FC0000041AC094807035A4208150000517E041D
:103FD0004F00001542082DE2070835043500001196
:103FE000F7001E2A056A11003A000011000049F787
:103FF0000050020061F7002CB9070DC2041DBA0879
:1040000031AE0038F3044DF7003400000BA1081A5C
:1040100000001100001D000035F7004D1F030C7655
:104020000618F60030290838AC095200003542085D
:1040300051550130FE0911FF092C6606394902412C
:10404000FF094822014F000051150015EA0526001E
:10405000001538013E0000058D0315F7002C1100F6
:104060005142081D900034F4060D1D04309A0739A2
:104070004E044300006511004A22010EFE04564220
:10408000030C4D023A35040AD1052200004D02000E
:1040900061F700512A050989060CF70011C60924A9
:1040A000D40439340149620354BF06580000650442
:1040B0000732F7001C420817EA073E00004DAB0428
:1040C00026A00604D10814410124BC013058013C4B
:1040D000CD08487102560000411500145501320008
:1040E00000412A050835043431053EF70038000048
:1040F000350000094D020E11000600004D2201247A
:1041000035041E040748E9004EA9043100003B00B5
:1041100000510000150000213D0318420809E90084
:104120004CF7051D6D0230BC0635E50039E8014A43
:10413000F70034000043C709170000655501161544
:10414000001438013E00004D0000153504390E04FE
:104150001E5602160E043011004A2E090497070C51
:104160008D091487092029084852042437002C613E
:1041700008306708387F053C080740020350C00339
:10418000543D095CCB0666E1022FA60934F7006AAC
:10419000AE0557000039000005000015DD064A0095
:1041A000001D00002D620304A00711A9043ACB06EC
:1041B0003C8D03170B073800003300001111002D50
:1041C0007D093ACB06240000650D0214420807EB76
:1041D000052400001542082F1B02145D0726CB01A1
:1041E0003400003D00004F5109044009148E0320A3
:1041F000240624F3023C58034818085424095C633D
:10420000036600000D35042D00000500005100007C
:1042100015DD064AE900504503043F0214900424CA
:1042200060023CA2085600001900003100002D0079
:104230000035CB0604F7004DDD06083504107E047A
:104240005A96031042033800001D00003722014A2D
:1042500000002D2A051E00004D9B0626000021CBE4
:10426000012F00005100004DF10809B0030D380086
:1042700015FF002400002DF10835DD064A0407175C
:10428000000031CF053A0000150E041D000051005A
:10429000002FD1052142083B2A050ADD0804B001A0
:1042A00014120524980430EF023804013CD8074862
:1042B000D20754FE0466CB015200004D4208314241
:1042C000083722014CA3091CF700530000054208DF
:1042D00031480724000015E9005200004D00001588
:1042E00035043A000049000051000041F7004C003D
:1042F000001300003900004DCB062400000D4208D9
:1043000049AC073200003D38004A96000405050814
:10431000D0000C700010D50914B2061850071CD03C
:104320000220130924D6052821032C430830150444
:104330003423073894053C860040C00044C4084834
:10434000E5064C140750AE09547409586E085C9D7C
:104350000864F5086A000021110032000005000021
:1043600021CB014F00004D00006500005100001FEF
:104370005104244A0204E80316000051CB013842DC
:10438000081D00001500004D00002F00000515005D
:104390001615001535042F0000654906247802140F
:1043A0009D093CD20456000051CB01114208330054
:1043B0000015F70058880332000049000051000042
:1043C0003900004D000041000021B00305A8023271
:1043D000EE01337B033600004D0000050000158818
:1043E000032F00001900005D0E0434350450A003B3
:1043F000044B0509EE090C100815280831A70939E6
:1044000066084129084C000059230963150024005F
:104410000005000017C7091600002111004E030413
:104420003E0000390000355403148F043023095135
:10443000420867F00104DC07145A052411065600EF
:10444000006500005D7F0016AE062200004D2201CF
:104450002015002600003DCB0142680704D2051458
:10446000AA022590003C9C065642033ECB0634A689
:104470000942B0063BF70056420811AE064E000056
:1044800051B4001B00001500001100001F000005C2
:10449000000015420813AE061E000051DD06320072
:1044A0000011CB0141EE08315308374802060000E5
:1044B0003D42030CA3091D4400513D0316000015A5
:1044C0005A0226000025B40028F7003E00004948A3
:1044D000072400004100002DCB01330000494208B1
:1044E00011FF05353504430000398C0648000015DE
:1044F00000000B00005100001DF705093C070CBF30
:104500000634A50938C4024A000051000015000015
:10451000250E044C00003D0000670000410005111D
:10452000A9042F000031000027F7005000004D00C3
:104530000041000009220118F70031770335CE054C
:1045400039A2074868066800001100001D000067D6
:1045500000004911003200005D42030C42084C1576
:10456000003CEA0043CD050A480724CB0617CB06DA
:104570000500004FD604041900148E0224C8093C1B
:104580002A005402006642081500005100004DCB7D
:10459000013835040E2A054200000DE90050E401FF
:1045A0004EF7003022011600001900003542085174
:1045B00008062E00004D00002D420811FF053500B1
:1045C000004900003B000015DD0006AE0636000085
:1045D00065FA0004A20214C802242F005422013EEE
:1045E00038013C100104900026000039000035001D
:1045F0000011000017F70064280204F404142006D8
:1046000020350224B6043C0F074A860232000041DE
:10461000000031000023C7093E00001D00004D00CE
:104620000065150014F7002C0000699604040000D2
:10463000611106094C020C6E0011B90818560124CC
:104640008702314F0334DE0639B9003D9803413209
:104650000649F70051AB05543E085F00004D2201AA
:1046600024CB010800003D00005700001529054239
:1046700000006500003569063A000015CB063C4293
:1046800008263B0104AF0714AF023C500554CB068B
:104690002600005100004D040730F7002C42083975
:1046A000AD061011063448004A00003D00001D0010
:1046B00000410000250000213D0318F7002CBE0535
:1046C000094B070CAE06105F0415EC0830100634D9
:1046D0001204394B074E42041A00003D8F07113572
:1046E000043100001500002F00002D88034E220128
:1046F00024BA04142B043EF70064C9030411011406
:104700000D04201206242B033CF209560000157EEE
:1047100004234E021449062434073D350467000083
:104720003900006500005D0000354208115805049D
:10473000EB050C4200159D03307F094B00004D8DA9
:104740000316000049F70050420865F7005850066C
:104750001DAD0224F60531010035CF0539020041B7
:104760007E044D96035402006A000005FF054300D5
:10477000006500003300003D8D03160407248D03FF
:104780003E000015F7000C8C0533900004F4031470
:104790005100248C023EF70034000033110516420C
:1047A000081548072400001D000021F70058F700F5
:1047B0003542030D960310F208314E013944053C91
:1047C000F70040FE0449F7004DAF0351CB065D579B
:1047D000036A000051720911020035000039BC0360
:1047E0004900004F550130C2010CEF04107103184D
:1047F000CF051C630934DB0538ED073C9A0848FDFA
:10480000044C0101524208154208538C0317000062
:104810004D00001535045200003DCB01146C0026FC
:104820008D0314AB04260000115D025000003D0012
:10483000004D00001700001100005100001500009D
:10484000414208650000094D020D00006142085D0B
:10485000F7001D1E09318401349D0739CF074C0331
:104860000757C80624E9053CBF0316000011FE04E3
:1048700048740750570205E9000D7C03153F0431C9
:10488000920534490039C9014D220162F7004C00FC
:104890000051000005000065F7001C00000B00003F
:1048A0001100004D00003500000942030CF7002CF8
:1048B000F70051400430000029FB01394F0041222C
:1048C0000149490655B2006100003D00001D00008D
:1048D00017A80442FE04048F074300001900001DBE
:1048E000F70058F7000935044300004D2A0552CB64
:1048F000062435041C00004DCB0606000031BB0326
:10490000394807241500176D0704790014020224A2
:1049100051023C75085600004900002DF7005A224C
:10492000014C040716E9053E00003911004A000059
:1049300039000035CB012D000009420851D1054E48
:10494000000065DB0205FD001521012410013D2951
:10495000084A00001D00005D42085154013100006A
:10496000615A070542080D580815E80325EF073975
:10497000950349D4095A42081500005100003D0032
:10498000004300005100005DAE0556000051E504F3
:104990003ACB06042201222809537D09388D0317DA
:1049A000F7004C000051000065FE0426CB043C00DB
:1049B0000051000017FE04348E071C4D08302C01F6
:1049C000384208403B04483F034C22095200001182
:1049D000E9005200004D000021E9000E00001D53C7
:1049E0000838000015CB011300004D000015000031
:1049F0000D0407050000093504107A031F0000317B
:104A000042084B420851F700584F0138F70009A2FD
:104A100003047C010C6C091DB3043D6C08485F065F
:104A20004C140054A6095FFF0116670304AF060883
:104A300093080C7303106D0214F10718010A1CCCC3
:104A4000012429073090083446053828094015020A
:104A500048D0054CE90350AA0058EC056097016660
:104A60000E0451040714320426F7004C22013A00C8
:104A7000001D38073B00002DCD013DEB0916350424
:104A80003600001DE900503D0318F7001010000922
:104A9000300630D10735650739430440F2044C0035
:104AA0000015CB0626570310480724000017000006
:104AB0003D42081F75070200D5F08D14A1C881CFB3
:104AC000D9F1AF2000080B00020202000009040027
:104AD000000102020000052400100105240101016B
:104AE0000424020605240600010705810310004086
:104AF00009040100020A000000070502024000004C
:104B0000070583024000000403090412010002EFBC
:104B10000201404123368000010102030141726419
:104B200075696E6F204C4C430041726475696E6FFD
:104B3000204C656F6E6172646F00E22E11241FBEFF
:104B4000CFEFDAE0DEBFCDBF11E0A0E0B1E0E8E7F3
:104B5000FDE602C005900D92A23FB107D9F727E00C
:104B6000A2EFB1E001C01D92A03BB207E1F715E250
:104B7000CEE9D5E204C02197FE010E94A436CD39CA
:104B8000D107C9F70E943B2F0C94BA360C94000051
:104B9000EF92FF920F931F93CF93DF93DB0173E0AC
:104BA000B595A7957A95E1F7B695BA2FAA27B79547
:104BB000A795A80FB91F6770FC01E00FF11DE03841
:104BC000F10514F000E8081B862F02C0220F331FE6
:104BD0006A95E2F7722FF22EF094632FE32EE094A1
:104BE000AF5EBD4F30E010E0E32F032E000CFF0B53
:104BF000E017F107DCF4E40FF51FE491F0E0082E74
:104C000002C0EE0FFF1F0A94E2F72D91ED012197EC
:104C10002F21E7232E2B2883C058DF4F28812E21F8
:104C2000E62FEF232E2B28833F5FDECFDF91CF913E
:104C30001F910F91FF90EF90089580E0E1E1F2E085
:104C400081118FEF00248193819381938193039449
:104C5000D1F708959091AB07982329F49091AA0772
:104C6000982381E009F480E00895FC01809110020E
:104C7000882311F13FB7F89482E08093E9002091F6
:104C8000F200822F90E01816190614F481E090E0EB
:104C9000882339F0289844E640930F024091F100B0
:104CA0004083222339F02091F200211103C02BE62A
:104CB0002093E8003FBF08958FEF9FEF08952FB72F
:104CC000F89483E08093E9009091E800892F807246
:104CD00095FF04C09091F20080E4891B2FBF0895D6
:104CE0008091070281110DC082E08093030284E06D
:104CF00080930402109206021092050281E08093D4
:104D0000070283E092E00895CF93DF931F92CDB71F
:104D1000DEB76983DC01ED91FC910280F381E02D27
:104D200041E050E0BE016F5F7F4F09950F90DF912A
:104D3000CF91089583E08093E9008091F200882369
:104D400019F08AE38093E80008950E945F2690E0BE
:104D50000895CF93DF931F92CDB7DEB7FC01848512
:104D6000958597FD08C02FEF3FEF358724870F907B
:104D7000DF91CF910895CE0101960E9435260197CB
:104D800019F4898190E0F3CF8FEF9FEFF0CF0F936D
:104D90001F93CF93DF931F92CDB7DEB78C01FC0139
:104DA0008485958597FF0BC0CE0101960E9435261C
:104DB000019771F4898190E0F80195878487F80163
:104DC000848595850F90DF91CF911F910F91089564
:104DD0008FEF9FEFF1CFFC018485958597FD0BC088
:104DE0009FB7F89482E08093E9008091F2009FBF22
:104DF00090E0019608959FB7F89482E08093E900CF
:104E00008091F2009FBF90E008954091FD01509184
:104E1000FE012091FB013091FC0142175307B4F4CD
:104E20009091E8009570E1F39091E80092FD19C02F
:104E30008093F1008091FD019091FE0101968F73A6
:104E40009927892B19F48EEF8093E8008091FD015A
:104E50009091FE0101969093FE018093FD0181E007
:104E6000089580E00895EF92FF920F931F93CF93E0
:104E7000DF93F82E192FE62E042F81E0860F880F7E
:104E80000E94052783E00E940527CF2DD12FEC0E2D
:104E9000FD2EF11CCE15DF05B9F007FF13C0FE0192
:104EA00084910E940527182F80E00E940527812306
:104EB00021968111EFCFDF91CF911F910F91FF903C
:104EC000EF9008958881EDCF81E0F5CFDF92EF92EA
:104ED000FF920F931F93CF93DF93D82E8A01EB019C
:104EE0007B01E40EF51ECE15DF0559F0D7FE12C08A
:104EF000FE0184910E94052721968111F4CF0FEFC6
:104F00001FEFC801DF91CF911F910F91FF90EF909C
:104F1000DF9008958881EECF0F931F93CF93DF9397
:104F20001F92CDB7DEB782E0898342E450E065ECA2
:104F30007AE480E80E9466270E947026DC011296BF
:104F40000D911C910115110589F0D801ED91FC918D
:104F50000280F381E02DBE016F5F7F4FC80109958C
:104F600097FD04C0F80100851185ECCF89810F9071
:104F7000DF91CF911F910F910895615030F02091F2
:104F8000F100FC0120830196F8CF289884E68093F5
:104F90000F0208953FB7F8948091F3019091F401C6
:104FA000A091F501B091F60126B5A89B05C02F3F51
:104FB00019F00196A11DB11D3FBFBA2FA92F982F3F
:104FC0008827BC01CD01620F711D811D911D42E03A
:104FD000660F771F881F991F4A95D1F708958F9202
:104FE0009F92AF92BF92CF92DF92EF92FF926B01AE
:104FF0007C010E94CA274B015C01C114D104E10469
:10500000F104B9F00E94CA27681979098A099B0935
:10501000683E73408105910580F321E0C21AD108F2
:10502000E108F10888EE880E83E0981EA11CB11CEF
:10503000E4CFFF90EF90DF90CF90BF90AF909F9024
:105040008F90089565E070E080E090E00C94EF2789
:105050008F929F92AF92BF92CF92DF92EF92FF9288
:105060000F931F93CF93DF936C017B018A01809193
:105070000B01882309F45CC080911002882309F495
:1050800057C08091020280FF05C08091E0008260DD
:105090008093E000E801B12C8AEFA82E93E0892EDE
:1050A0002AE3922E209711F4BB20D9F10E945F26AB
:1050B00081110AC0AA94AA20D9F161E070E080E0D1
:1050C00090E00E94EF27EECF8C171D0611F00CF038
:1050D0008C2F9FB7F8948092E9002091E80025FD7D
:1050E00002C09FBFDFCF282F30E0C21BD30BF701D8
:1050F000815020F041914093F100FACFE20EF31E6F
:10510000BB2021F09092E800B12CEBCF8091E80019
:1051100085FDE7CF9092E800BB24B394209709F374
:10512000F3CF5D9884E680930102101611063CF0DF
:1051300081E090E0F6019383828310E000E0C801F3
:10514000DF91CF911F910F91FF90EF90DF90CF9063
:10515000BF90AF909F908F90089580389105B8F4DC
:1051600060347105A0F420E191E061FD94E060FD00
:10517000990F62FD9295687F269FD0011124A80F98
:10518000AF5EBD4F8C91442319F0892B8C93089509
:1051900090958923FBCF0895EF92FF920F931F9371
:1051A000CF93DF93FC01CB0177FF06C091958195EA
:1051B00091092DE22083319620E00AE010E0422F91
:1051C00050E0EF01C40FD51F0097E9F48A0115954F
:1051D000079580E0282F30E020173107E4F4BF0165
:1051E000620F731FDB019C91DA01A21BB30B1197B5
:1051F0007D01EE0EFF1ED7012C91DB012C93D70110
:105200009C938F5FE7CFB8010E949036805D8883C2
:105210002F5FCB01D4CF1882CF01DF91CF911F91A7
:105220000F91FF90EF900895AF92BF92CF92DF92CF
:10523000EF92FF920F931F93CF93DF937B015A015D
:105240006801E90115E085E0C80ED11C49914423AD
:1052500081F04F714102A0011124435A5E4F05E0D5
:105260002FEF30E0B501C7010E94C825EC0CFD1CF2
:10527000EDCFDF91CF911F910F91FF90EF90DF90D5
:10528000CF90BF90AF900895CF92DF92EF92FF92B0
:105290000F931F93CF93DF93EB016A01790113E022
:1052A000F70141917F01442379F040524102A0016E
:1052B000112444555F4F03E02FE330E0B601CE01E7
:1052C0000E94C8252496ECCFDF91CF911F910F91BA
:1052D000FF90EF90DF90CF9008952F923F924F92E2
:1052E0005F926F927F928F929F92AF92BF92CF9276
:1052F000DF92EF92FF920F931F93CF93DF9300D033
:1053000000D000D0CDB7DEB78C017E836D8349011C
:105310005A01CB018E56994F1C01DC01AE5FBE4F86
:10532000BA83A983CB0101969C838B83E091A30769
:10533000F091A407E00FF11F45905590659074908F
:10534000E62DE595E595E05CA981BA81EC93F0E066
:10535000E851FF4FA081B0E0A50194010E943836CA
:105360006B017C0160FE28C080919C0790919D0795
:10537000019709F050C08D819E810597E9F48091D5
:105380009E0790919F07A091A007B091A107019758
:10539000A109B10980939E0790939F07A093A0074E
:1053A000B093A107892B8A2B8B2B31F464E977E02A
:1053B00082E996E00E94B336C201009759F0F201EB
:1053C000EE0FFF1FA70196016B817C818E0F9F1F3F
:1053D0000E946D290D5F1F4F61FEA8CFF101EE5FA6
:1053E000FE4F108226960FB6F894DEBF0FBECDBFDB
:1053F000DF91CF911F910F91FF90EF90DF90CF90B1
:10540000BF90AF909F908F907F906F905F904F90E4
:105410003F902F90089560919E0770919F07809113
:10542000A0079091A107A70196010E944B36672B18
:10543000682B692B09F680919207909193079C0144
:105440002F5F3F4F309393072093920733E0880FED
:10545000991F3A95E1F764E977E08E56994FAACF04
:105460008F929F92AF92BF92CF92DF92EF92FF9274
:10547000CF93DF93CBE0D0E086E0C82ED12CE12C97
:10548000F12C0E94AB35A70196010E9419364B0101
:105490000E94AB35A70196010E941936D401A3588A
:1054A000B94F2C91FB01E358F94F80818C932083F5
:1054B000219739F7DF91CF91FF90EF90DF90CF9058
:1054C000BF90AF909F908F900895CF92DF92EF9210
:1054D000FF920F931F93CF93DF93809164008E7F91
:1054E0008093640080917A00806480937A00809138
:1054F0007A0086FDFCCFC0917800D09179000E949F
:10550000CA27AB01BC01CE01B0E0A0E0DC019927C5
:1055100088278C019D01040F151F261F371FC90105
:10552000B801209164002160209364006115710529
:105530008105910511F00E94FA3581E090E0909389
:105540009D0780939C0710929E0710929F071092D0
:10555000A0071092A107109294071092950710923D
:105560009607109297071092980710929907109239
:105570009A0710929B0710929307109292078091BE
:10558000A207882309F44FC00E94AB3526E831E01A
:1055900040E050E00E9419366F5F7F4F8F4F9F4F62
:1055A00060939E0770939F078093A0079093A10735
:1055B0008BEA9CE29093A4078093A30721E030E05C
:1055C00040E050E070E060E08FE596E10E946D29D8
:1055D0008091A207811110C084EE91E09093A407FE
:1055E0008093A30721E030E040E050E070E060E00D
:1055F0008BEE90E20E946D29C2E9D6E0C12CD12C3D
:105600007601C394E991EE23A9F00E2E000CFF0B56
:10561000E851FF4FA081B0E0A70196010E94383603
:105620006B017C01EFCF0E94AB352FEE34E040E000
:1056300050E0B0CF62E976E08DE796E00E94B336A5
:1056400010928F0610928E0610928D06109285068B
:105650000E94302A82E090E090939D0780939C07FF
:10566000C0929E07D0929F07E092A007F092A107F8
:105670001092940710929507109296071092970730
:10568000109298071092990710929A0710929B0710
:1056900010929307109292078BEA9CE29093A407D2
:1056A0008093A30721E030E040E050E070E060E04C
:1056B0008FE596E10E946D298091A207811110C0AB
:1056C00084EE91E09093A4078093A30721E030E05B
:1056D00040E050E070E060E08BEE90E20E946D29C7
:1056E000F0909207FA941FEFF11671F1C2E9D6E03B
:1056F000E12CEF14BCF78E01085F1F4FFE010190F3
:105700000020E9F731978E2F8C1BF80101900020C3
:10571000E9F73197E01BE8175CF4DE015096F801D9
:10572000CE17DF0771F082919E9190838C93F8CF12
:105730008E1307C0B801CE010E94AA3618161906AA
:1057400064F3E394E801D5CF1092720610927106CB
:1057500010927406109273061092750610927606D7
:105760008FE097E29093780680937706DF91CF9150
:105770001F910F91FF90EF90DF90CF900895FF92CF
:105780000F931F93CF93DF93EC018B01FB01F0800C
:105790000E940336F81621F06F2DCE010E940B36C1
:1057A000F801F1802196CE010E940336F81621F00F
:1057B0006F2DCE010E940B36C801DF91CF911F9152
:1057C0000F91FF9008950F931F93CF93DF938C0158
:1057D000EB010E9403368883C80101960E940336BC
:1057E0008983CE01DF91CF911F910F9108951F9270
:1057F0000F920FB60F9211248F939F938091E10027
:105800009091E100937F9093E10083FF0FC010928D
:10581000E90091E09093EB001092EC0092E39093FA
:10582000ED001092100298E09093F00082FF22C0E9
:1058300093E09093E9009091F200992319F09AE394
:105840009093E80090910102992341F09091010218
:10585000915090930102911101C05D9A90910F02B5
:10586000992341F090910F02915090930F02911162
:1058700001C0289A84FF18C08091E2008E7E81606A
:105880008093E2008091E1008F7E8093E10080911F
:1058900002028E7E8061809302029F918F910F9011
:1058A0000FBE0F901F90189580FFF7CF8091E200F8
:1058B0008E7E80618093E2008091E1008E7E8093F5
:1058C000E100809102028E7E8160E5CF1F920F92EF
:1058D0000FB60F921124CF92DF92EF92FF920F93A7
:1058E0001F932F933F934F935F936F937F938F9368
:1058F0009F93AF93BF93EF93FF93CF93DF93CDB776
:10590000DEB76C97DEBFCDBF1092E9008091E80052
:1059100083FF25C068E0CE0145960E94BD2782EF37
:105920008093E8008D8987FF39C09091E80090FF4F
:10593000FCCF982F907609F034C19E894F89588DFD
:105940002F89F88C911131C0803861F58091000267
:105950008093F1001092F1008EEF8093E8006C9636
:105960000FB6F894DEBF0FBECDBFDF91CF91FF9190
:10597000EF91BF91AF919F918F917F916F915F91C7
:105980004F913F912F911F910F91FF90EF90DF90DA
:10599000CF900F900FBE0F901F9018959EEF909391
:1059A000E800C7CF1092F100D5CF913059F48111A2
:1059B000D3CF4130510581F6809100028D7F8093D5
:1059C0000002CACF933049F48111C6CF413051054E
:1059D00019F6809100028260F2CF953041F48091F7
:1059E000E80080FFFCCF20682093E300B5CF96301D
:1059F00009F0A9C00B8D1C8D22E01092E9001092D5
:105A0000FE011092FD01F2122EC01092FC011092C4
:105A1000FB010E948C271F8299E09983FA8291E012
:105A20009E8390EA98879AEF99872091FD013091A3
:105A3000FE01275F3F4F3C832B838D831092E9004B
:105A40001092FE011092FD011093FC010093FB01E6
:105A500049E050E0BE016F5F7F4F80E00E94662703
:105A60000E948C2779CF1093FC010093FB010E94C8
:105A70007026DC0112960D911C910115110509F497
:105A800051C1D801ED91FC910480F581E02DBE015A
:105A90006B5E7F4FC8010995009709F03EC1F80180
:105AA00000851185EACFF3E0FF120EC08F898823AD
:105AB00009F440C0823061F440E860E189E29BE48F
:105AC0000E943327811148CF81E28093EB0047CFBA
:105AD000813029F440E86BE08DE19BE4F1CF833025
