:100000000C94E6280C940E290C940E290C940E29BD
:100010000C940E290C940E290C940E290C940E2984
:100020000C940E290C940E290C94852E0C94F42E0D
:100030000C940E290C940E290C940E290C940E2964
:100040000C940E290C940E290C940E290C940E2954
:100050000C940E290C940E290C940E290C94263124
:100060000C940E290C940E290C940E290C940E2934
:100070000C940E290C940E290C940E290C940E2924
:100080000C940E290C940E290C940E290C940E2914
:100090000C940E290C940E290C940E290C940E2904
:1000A0000C940E290C940E290C940E29006000F07B
:1000B000A614CE62F4F1B214DDB386E51B1600007F
:1000C000130100009ED1E504004000102795A140D7
:1000D000000000006F04F4419EF0F611F6D10E9579
:1000E000F8117543A1F0821300507EB24A68D235F0
:1000F0002926CF634ED571C16E3471946A41F621C1
:10010000B2445804F6618A11B5772234F4210FD431
:1001100029077E752057B5417326CAB2A644F60159
:10012000C5021905A654008022785944B223E6710D
:10013000858188B14E53FEA6E8E0E1338FE126A425
:10014000B7264F074B25F460F6119E511B56000051
:100150000000BA0593F08042382172E467921311CF
:10016000CA23DF9335028F05F4010000007001758A
:100170004A08B801B607CB0400F0B2B473586585DD
:100180009C014421B8019E01C106F64164F5CE13DD
:1001900055E7BA71F6212268F6F10D14000000004F
:1001A000150100108012F43100A0CEA238019B810D
:1001B00073788A17E965F0F0C612F62171243C863F
:1001C0000060F6F10010150100000000B28415A7D0
:1001D0009D7037A2D26227660D070E20B2610050D3
:1001E000BA812E56CC0375080000F431B2B4B214B3
:1001F0000D040000BA05180800000000CE6200F0EF
:100200000010E52720B6CE420D04000026057144FB
:10021000A355A27053368B9100000D040D04E8061F
:10022000005000900463EAA77F421D8355C4B03399
:100230002A42F661E3F532180050B3666167F66151
:10024000CB045F73F601F601E504F601F40100004A
:1002500007C6CEB2035300000D04F601008020470C
:10026000714412A0A644C75234D1F6414434E70485
:100270000000A604006000D0F671002000B0134119
:1002800000E07DC0CE2200B00DA4132100000000CC
:100290008B01525780023821F401CE02840600E01F
:1002A0000DD40D3400D09EA1E56622D5F603096871
:1002B000A5D47B030047B204B1028B0180E2A6946F
:1002C0000010EA34A110F611F4E1719400502E11DF
:1002D000F6F1E356110300008E06005001E20070B3
:1002E0006F548B11FF366F183DE8AB40F6B02128F4
:1002F000E947E334001000100000F6016405000037
:100300006502CB0400000D04B204CC930005EF237A
:10031000DEB65EC1F641F103F10000008F459AF3AD
:100320003F157E220020F48100600DA40746F2856F
:100330008D258B218E06F401F807006000C0136143
:1003400000700090B2642850B26497223A305B7417
:100350008A847568EDC7B22420468AF39A11A6B440
:10036000E0E47775D5F4E917066334E68BB84F659A
:100370000D0400000000F6A189433A333F1411B187
:100380009F4187050D840020800213013602F6D1BB
:1003900000A0D67700B08012008000D0E3E60030E5
:1003A000004000F0001036500B16B113CED20D04F1
:1003B0000D4490B4CB84CB14CC0377007700F64186
:1003C000A664F626BA55F4E1CE0315500914DF16DB
:1003D000A6A4F631F4417164EFE63971037866F250
:1003E0007F36F3065392FD013CB8A6C4A644864569
:1003F0000DF49E11901727B586734035F671008075
:10040000F6E100C0A624836636A572435F0133532C
:1004100068224CB33781F4110060A6F400108A08FA
:10042000F601F60100F000803E51F621A6B400402E
:10043000776073F8F61138620B62343256259EF1FC
:10044000C83700300010A31000A00040F621004083
:10045000CBF4F6110D04F305000000607EA2B34456
:10046000E5A5AC823A56AF271361138100E071C451
:10047000F6210FB5CCB4237432F6A0309E416161F1
:100480009DD5D014D6A150E0F1435AD2FA01934839
:10049000F6A169282F4687B348F374744831F6E112
:1004A0006864F967DEF4DB15F481F436F611F64181
:1004B000F4F100108B6775D80020F401F41100707E
:1004C00073381C91D812D8E17904A5558E43EDF10B
:1004D000761650003700F6010000EA86F621EA049D
:1004E000CF028E068E6600F01311E44715F18012DC
:1004F0000DC4BA25717439242A38E5232B728BF682
:10050000F873F7D173081D48007040352246D5B303
:1005100020D63372D6B4C351CC608AA8CDF2CB3486
:10052000E7C206420915B0762905482712759BC413
:10053000B675000093000000A6F400600040CE52A3
:100540000060002071640DA40040CEB200108072E3
:10055000650100800020F2300070F68100008E06F8
:10056000F6010030E646A67381060000F6010000A1
:10057000F6815C23A664FBA01341F631A674F681D4
:1005800071141371004000F00D448D36413554282C
:1005900064376306F1065A0700E0DE73DE230000CD
:1005A000F401BA07BAA5710400600C36F5F32814FB
:1005B000F4011CD6F0709E615EF70010BDF7992023
:1005C000C070D227A221BA65842383270468A8407B
:1005D000D1F73418D46400A0F441F6010020806201
:1005E0001630F611001000200DA4B2342705E904DE
:1005F000000073089F009E01EA64B0F40010CBE491
:10060000F691F61104F8F6A1976059625C77EB1445
:10061000FCE6B0850060F431005000504D372218E0
:1006200000100060F6F10010EA040000CB0400D0D6
:1006300000000040F6D1F6010040F6B1F4C1B2442A
:10064000131166D120054FE5D3970E18219640452A
:10065000E6802E6600A04F40A6F4A6349E713801B5
:100660000000710407E600C0072686E500C00020F0
:10067000E84700D0004013F100509330F6D100005D
:100680002248F4012208B20400308B917104130156
:100690000000000071C471D4485200307518D710A2
:1006A0006901F4010D040080A6343F11C916A5A00C
:1006B0007E48E2062876184652320070008000001C
:1006C0000000A10071041561F631BB615CF2922754
:1006D0004C9054B6EF2496084DF63F73DDE7AA859B
:1006E0000060000000008605009000907348CEF284
:1006F00000F0006000B000B0F65138012208730825
:10070000006000F0CE1200E0F6D18032BE551371C9
:10071000138100B09810548200F00010F431388139
:10072000A6447C4705B8EBB77D42496600F0F61158
:10073000F6D1A1000746E7353A940B047E726CC8E7
:100740003A61D1F61E373C43006000F071164C351B
:10075000BE10F611390800800020000000008E064F
:10076000F461BAA51341CB4413E1D445B43777946F
:10077000D54765C281178F861D46B082F6512F136B
:100780004C760040550700001301001000708042B5
:10079000CE0200001301008006E60757B2040000F5
:1007A0008E063E0172080000F41100001301C6B16C
:1007B000B9F70000C306F6010000A654F671A38144
:1007C000000000003801F661F6F1001000A0E2E43C
:1007D0004C4580C20040A150CE0200009100005064
:1007E00000F0E15500E0DEC3F4216562D9F70010A6
:1007F000486422F80010F49149E20D7450A00010F2
:10080000A67458070000000011D30D340D540010D9
:100810008092F651911266B5593881E2CDA6040551
:1008200078004954F756C791FC3021576F6200F0A9
:10083000F6117A0894102318D96000D0D656950086
:10084000CE02F601004071F44B3330C409E34D652C
:10085000E3B0A714237582760020F451F46175C8C3
:1008600075280000380180028E7600F000001FF32A
:10087000749312572B7308770C334204BA050000A7
:100880008D63B2749E51B3058B416552F4B171C44E
:100890008E46DB631B76DD00ADB045C4A644F46133
:1008A00062F7F611D70600001301000000000000F7
:1008B0000C9038218E34E1F0E7F36C1224B44FC869
:1008C000C342B2E4BF95F611F661F6210040DA8525
:1008D0005FA3E125F5C1758534737903F601A300A3
:1008E00000E0F687F661CE027F0700007523000066
:1008F0002D349EE1F4810D64F4019B039E0171A4EB
:1009000073B80050DA6600F0001013813C348B316C
:100910008513B870B143E8A4F6E171447308AA03E3
:100920003F06F4410FA1FC174166BA76F286EA252C
:100930008CF8A86100000000E8055504E003000001
:100940003801C607000000100000F4510040BAF55D
:100950000010CEC2CEE2EA34EB5717161D853EE4F6
:1009600008C61926A6E4F2C6F6210090F6A12E6666
:10097000D8504568E3262922F4214D82EAE0008020
:10098000F66167B20090003080D2C6020040F68166
:100990000000A684E706AC066405270413010000E6
:1009A00035565EC3FD6612832856D7474864A9B3FF
:1009B00000400000E50700000D6400F02816D66234
:1009C00000F00010F6E107C6F621D18375F3A614F6
:1009D00000108A75F641CEE2EA446357F60113012E
:1009E0007E029E313E06F471800200003E058506BF
:1009F0008A0807063C61D8A60040E8050000870188
:100A00000D2487B19840000000006502F44100F019
:100A10000010CE027E023800F6E19E71002055B231
:100A2000F6C57512D2B707811111C0955110A622D3
:100A30006F07B803F307008000400040A6E413C12D
:100A40006F2645913CF80B36C413757800409E051F
:100A5000CE02CE02000000000000CB44A3F00D1433
:100A60000C184713D9868A08140118085567CEF266
:100A70002816F6019E010000F60100001301F401A2
:100A80001301000000C0B2E4EC44F46100F0001077
:100A90008E46DAE41863F6078E4677411BB0C563CD
:100AA000C044CAC40D148B713F84F4F10010CB24F0
:100AB00090258685DD052405790820D600008B4128
:100AC0009390F1830060E6064007000000000000FC
:100AD00013010000730801056F04000000001822D4
:100AE0007A688616A604000080026F647B3855225F
:100AF000360200000000000000007104F66100F002
:100B0000F4110250005071240010000000508E06B5
:100B1000CE02670200607EA70040003000E09860CF
:100B20001A3646E8FF663831739886050000860558
:100B30007308CB54F4511321B76374F807160040BF
:100B400000F000100040006000506E4700F0001000
:100B5000F4D1E50700400D043E01000022985D330A
:100B600026060030CE72CE82E3B600100080006010
:100B700000F0DB15B2D272A2AA322C6886F5CE1232
:100B8000E30600000000CE321115CE1200E0F48121
:100B900028689E711541CE820D93C4349A708002EC
:100BA0000000A1000080AA3000109E31001000104B
:100BB00000D0F4019E410060F4F100102D4163F774
:100BC00000103A749E11000003D2BC66366479D3DB
:100BD00041080C44F641CED27134BCC0E7208645B2
:100BE00027052F1118300000B2041B06A6040000D0
:100BF000F60180E2CEC2A624CE4280F265120060E9
:100C00008ED6137100308EB6F6016D2164D8324352
:100C100019A30D75AA662013DF85835803807A65B2
:100C20002D0666B6F910161100700D2400508EE5E1
:100C3000F4811868006000308022F401730800001D
:100C4000CE0200008E06F6413AA8113300007F78EC
:100C50009D23BDB040A18B3100F0AAC22206B0D1C5
:100C6000B8124786298200208B61A702DE038E0618
:100C700073030000F6010DB46CE07E001EA81EF0A8
:100C8000B572F4E1A170002007060D04B30700E07F
:100C900000800060F661AEF40316F6A180F2CB741A
:100CA00013C100D0F6610000000000007EA2F681B2
:100CB0007166CE0200000000B2540050007000E0E7
:100CC00000C07124AC0600000000064600F0CE1201
:100CD000136100F0F6118E06CE02650200E04BE1D2
:100CE000CB44DC530000DC73006000A00040000037
:100CF0000000CB04F6D18B210040F4E10D8480622A
:100D0000130101050000F44100F0F9137E82809286
:100D10006F04DAE6938006671301B107F6018908CC
:100D20007308F001652200B00040CF6437562528D3
:100D30009298001002850C11EAB12B36B884A6B443
:100D40004814001000708C41A67400500070F461CB
:100D50001FA8D7410E048B851321CBF4F42100404A
:100D60003B011201380100001301D9030A07CE022A
:100D70007E02F65175131E16ECC47144F67171446F
:100D800051684C12E660B7F484150030F6614A8869
:100D9000E39646744B1887800F663B84130400006B
:100DA0000000002000D093716AD39311000069F213
:100DB0000070FC1100301CC3FA22E9852D317A4500
:100DC000CE640BD53270FFA600100030932109D7F6
:100DD000E440AB4638E0380056E3E4F04D78D733D2
:100DE000ED93561300505A410070CAA4FC617B3445
:100DF00056A3E27017460050002000200090389063
:100E0000D21041238BF8852574F000A0F3265603F9
:100E100000006A00C2369391641400801CC39301E1
:100E20007B04C7089301EC7600806A0088C8ED5304
:100E30000010C7A8E460003093F17BF4E16100800A
:100E4000056200201783E632D7052DD8D7B56F7815
:100E50003800380002723CD7676829707A0793011E
:100E600000002FA87F639301380086007B049FB8A1
:100E7000937100400030AD97381038F0ECA67C0735
:100E8000CC07A701DB056A000000C2066A0000006B
:100E9000EC06ED039301D50400109331930156C382
:100EA0000000218293C100F07B14933100307F83D6
:100EB00083A376625E36D3727DA0108290B8270439
:100EC0006338B5C4E2F1BE28EFD771209F880030A7
:100ED0007B94001023343890381000A09361383090
:100EE0000030FC1100705E3865558516DB011B086B
:100EF000800493613850BC383880003000000030E6
:100F0000CB95EC16F64367B6C372F1F735F5CF58BB
:100F10007906790436079381EC3300000F112142E2
:100F2000C67021C27C659672FF01E60088085603F0
:100F3000E4000502C7006B086B076A007B04000031
:100F400038506AE33850387017D8ED5371020000FA
:100F5000FC0100F056933880937176783C438346C9
:100F600000B2BD22D1C4EDB3008056A3060826729C
:100F7000ED225EC61A2151932434F952B262D3474E
:100F80007B22E1E64E361205B6218E97FB043B2507
:100F90005AC793617612F9279B256A609351AD3247
:100FA00000000000000044A75663930100C0FEE764
:100FB0007B64DFA1DA68ED336A90AF53FD770030D0
:100FC00000900010FC013C02D1352387E13321025F
:100FD00000803830FC017CC56E757B541B007E00A0
:100FE0007302003000701C236AC373E289600080C2
:100FF0001C331C036A307E90CD12FC01BC08D40463
:101000007F80EA328D0738003800000038306A905F
:101010009F18FEF738300D329381B0327452E1914F
:1010200038A0F570118570C02908E400CB030000DA
:10103000FE67B8B3FA0782D71E30AD267AC805C45A
:101040001F33BA34009000105001AC020000008041
:1010500038300000E40338009F082304C4039301E0
:101060009311FFE6931100003800FF060C885E37ED
:10107000EC063607930100001AC3CCB2688054B264
:1010800026277B089126CD644B60CB1728823D3400
:10109000EBC5FA17BC0800E067F6FF7600807D31EB
:1010A000BF0400500080716245270030B3633AC22C
:1010B0007FF8FC1156039301FF0600A000F000101A
:1010C0005E85C4B80C22ECA6C3D250256AC29378C0
:1010D0003142E1610050003087687B44C84500D050
:1010E00000A093519760F2E56557388093311C0357
:1010F0000010F0E4C3129100BC0823044F116706EE
:1011000033660A01AC00A7001CA38D94392809C6D8
:10111000D616E78129D53ED7F374387000D0CB843A
:10112000002031B2A018B6D326E0EB327F836834BA
:10113000220234188128422600509381046421F24F
:10114000FC5100406404560300000030D594AD17F4
:101150000040E1B16A406AD06AA3FE86B93673677F
:101160006E44AF07F84399601CF76DA7FA50283317
:101170005EA02787063063817F461807EC07770259
:101180007B046A0000000010212200206018ACB52A
:101190005970DE5267432304E8D79A786B535CF6A4
:1011A000E4300C4338F0E57573328F1181307E7076
:1011B000AFB2007000400030D4940010FCA1007069
:1011C0000030DF217FC31960C7B700709F484DC84A
:1011D0006DA6ED23006021520030000000000000E9
:1011E0007BE47E700B0100306494FE169BC75FB8F1
:1011F0006A80BC089301E101FAA23800382045A7B3
:1012000000F0002036380090C21600201C00B144C7
:10121000FBC7CAF09915EC6600307B7400006A03C6
:1012200000000060005088380080003000000BD2C1
:10123000FEE2593800006A000000EC369D906D1700
:101240006D072102C90400C01AF3EC1600009406D1
:101250003800628357C56270CCA8B96821328864AF
:1012600090115680091050228624B8E8ACF800701E
:10127000BA238898648483C32257864600D000E04E
:1012800088385E6600E03825542161147B171C768F
:10129000D227E2527A03680000006AD03C777B14C0
:1012A00038802A381C038A417062934193111C33A1
:1012B00093018F019F0800005603D44235387117FF
:1012C0004F810050EC061E037E0000005E072102E5
:1012D00005821C3300006DC6008000100300ED0382
:1012E000560300F000409F8873327B748B0100E04E
:1012F000005000604507F7014E026AA393113810B1
:10130000BCC8F6154A38E9C288411E836A009505B3
:101310001E037F31BC982112000000000000938161
:1013200000308406B0830030C4040040E6C01132AF
:101330001C335693001093015C06930131B000708A
:1013400000403800C7089F086A03000099027362D2
:1013500050519331FEC23860E4200EF15B55435288
:10136000B903040077076AD300E0ED330040EA02D6
:10137000EC362102000000007BC4FCF1C266F2C41E
:10138000CA1400000B816A306A03F5875D70FC8126
:10139000942503C21C630040BCA8F23656136D2886
:1013A000DF20B53893C11C33938100300000AB605F
:1013B000BC584F38BC6865F884630BA10070BF3619
:1013C0006AE07B2755006AB3D8111F7189684647C8
:1013D00049501CB3AB782B48000000004604FC01C8
:1013E000A900640493C138D0C2865DF67555FD71BD
:1013F00068C594B8488500000000C2065EA40010CD
:101400008F8100F000006A5021020000880800402F
:10141000DAB5ED46C1312DC8F72068A66947AA871D
:1014200005B639009F20D7840080C604880868006C
:1014300000001C0300F0FF26FC01A1000000722246
:101440001CC3FC611C208F300070E0815CB4EC7622
:10145000FBC231109301010893017B040010D725D2
:101460006A20383056935613C2069F08000000A029
:101470000BF200200BC282B86A805E366C033875AE
:10148000F2B364341B734014D3813916EE454D0614
:10149000D062C457B3F4B9341D03C402170300501B
:1014A0006DE46D045E0640070030ED330090E815F2
:1014B0006AE3007021026434459600100CC77FB1C6
:1014C00093815C76D622688700109321F125EA0289
:1014D0000000380021028706350800E09F780000F0
:1014E000EC66005000306D070000000000C03810AE
:1014F00000307B375D710F6200F600607036C513F7
:101500008E100972EB0655533B824587213200004D
:10151000BC38387093219721C054F315D1D64FF2BF
:101520005954DCE6F702D2769C678CA36065A8105C
:1015300026977B137E002F0838000B9135D8563341
:101540000CF19451336249686C405A63749122A83B
:10155000A724199652082180FA05E50353056AA3CA
:1015600070D51C515DB5A918E7105E764C350E0399
:10157000D65100D0562356833860C316C4665B0824
:101580002B24D5550DF8C144891683358B0312974A
:101590005D77002000300070BC28003093917012FD
:1015A00073817436D3059301BC085603BC18387098
:1015B0007B256A006900E00200E0FC91EC0600A0D7
:1015C000BFF75D24FEB77C75EC7600F000903880A4
:1015D00093010000730238C08F111930FCB19FF8DD
:1015E000D2110000000038007CE50070FC0100C052
:1015F0003840386058C707D12E38C7835681C38218
:101600007B0400000000000000005E01C2067602BC
:101610001C035EA6C6611E577218C3E70E1538B0CC
:101620008F8138104FF80090238438606E529A37BB
:101630009F73C758ED737373AE34CA614634BA9260
:101640007B27785777B5EA23DF81B938CA030000D2
:10165000930119000030FE7231200080003031000B
:1016600093C19618E6321C037102E1019331BC98D4
:10167000931158F7B0D7C56125A77AB3003093D13D
:1016800099B779776444FCD1FC41ED037B04FA02FD
:1016900000B07372004000600060BC2872F600A0C9
:1016A00000203830009000100000000000000B51B6
:1016B00021D25E26E30093710773964751025F21A2
:1016C000D9D430A82C780BE176728F01001000205D
:1016D000382007C8E181EC063830EC969311EC36DF
:1016E0008154D835CEE2CBA74786C704F70700065A
:1016F00000006A009301EC3656939656FA44BB58A4
:1017000044160080373800003800050239020040D6
:101710007BD4A075ED534FB84A57667130417C4574
:101720002BB213D2FA2700F0ED952F889F08000006
:1017300000000080E6C07302E2B0467473420030DD
:101740009391001064747BC46A8038F05C64C403B5
:1017500000F0C246388018A6E181D4044F089301F6
:10176000000038F0199330800000000045078556CE
:10177000B3D37E103880E4A080542ED100E0003036
:1017800000C00030CF2420027ED12C513907A6237F
:10179000C148C127BB934A156EC647A538808A0643
:1017A00000007B04D50200103820C657386018416D
:1017B000F4757038B677004200E0250301E0307719
:1017C0009301BCF86A93058200A000B0FE3706B70B
:1017D0001C030213EC2648C78438D9583B432142E6
:1017E000503075688853528015E7B1589BC0EAB2F3
:1017F000E483A11097A622518B7656F28E64EA40BC
:1018000088C8363300000000BC0893317C959311E2
:1018100000E0C8C4FE17C5E23840C88877B70B722D
:101820006A400000E101ED0300605A510030E430ED
:101830006E77000000E093B1ED43A61488280522DE
:1018400021723D002364E7020A02540300F09381F1
:101850003810EC0604049F0800F00090ED8388F82F
:10186000B5C7BC0856A3E4C17B4400C09F18DF3253
:1018700005C245F76A106A2300C0006000406A9004
:1018800000607E000000000000007A0300000000FD
:1018900000000000CF346F06BC88FFE609937A523F
:1018A000FF370090001056F30C881134EE0339070F
:1018B000E6000000ED038004FF66EC5638309F68B8
:1018C00073E28B016A009301000000F06AB07E6051
:1018D0007717BC289F2857A0F365ED03387559C1C9
:1018E000B47363C79EF8211200D0887838304ED385
:1018F000DEF37662F444F124DD645B5288D80C6038
:10190000DF374A71B028EC869331EC0600D0BCE892
:1019100004347B84561358868DB167621D01DF0144
:10192000E101000056E300D0006071627B541E3379
:10193000EDC375F3001004A456631C3356A3006076
:101940000030FE720030614300C0FC11E9302364B6
:1019500052537B34A958BC58B9775A06C3026A005F
:101960000000000000000060D257173880A500700A
:101970001C3300A0A9A83F8357036DB2214600C0C5
:1019800000B0DE810000FC015002BA9300E0EC06DA
:10199000214200E0053200003800E10280A5F16438
:1019A0000000000000C0886800C000F0E1116AF08B
:1019B0007AD3AD1321129FE8BC2838A02568AE3237
:1019C00000C2CBB200801AD379E405320080BBD7C5
:1019D000A370F831B8335673790300803840CDC511
:1019E000CDF21C1325B23870CA4400D000E08F310C
:1019F00000007B047B0400B00050F8656973CE459D
:101A00005E56D8C4D772388000405CF31A666A000C
:101A10006B0400000BC193E10060C2867B340000C0
:101A2000FAC700E2BD689080EC366A00F8C7987289
:101A3000C758000025024A088F01BC085E067102E3
:101A400056038B0100B60070004000C0BC38000097
:101A5000D8C30C18003000C000706954BC082102C3
:101A600031006A00A100000000009301000000A006
:101A700038807E403223E38276030B418B017B85E5
:101A8000004000D000206F08F9079F080000930174
:101A9000780293110030FE377E0072076802D5C4C9
:101AA00056136432380038003800931100C0666461
:101AB00093E10060003021320090001000A093619B
:101AC0000030C8340070142700F0389073829331CE
:101AD0003C9056130000D402A90600806A336106C8
:101AE000EC36E1912F18EC06E403000000007D06BF
:101AF0003E0100C00050E9C122E9D5B19BA9D551F2
:101B000026D1F7150C2D3EF6F261801DA2711C073F
:101B1000948C2C4E508700000000FF024D012701DD
:101B2000B805D50199050000CD0AA908760D002059
:101B30000010128822750070CDDABE042275891C4F
:101B4000D5710A89DD404BC1E0FDBD123C915ECDEF
:101B50000F9527A04DB493C5D4B400104D51C90DB5
:101B6000D501D501260400000000005012D806154A
:101B7000934C99371D37962A6A1305857E597A82C8
:101B80001228AA000000D501D501CB061D07D5718A
:101B9000B12C2E120EE526E489122F5B00D04D11D8
:101BA000124812580020005000D022154C9C9ADA9E
:101BB000175E7CD534B7949702FE9A1491A700C0A3
:101BC00000A0CD6A1A69FF7000D0280A000000004A
:101BD0000000000000000050D5D10010CD4AD551C2
:101BE000E5D0D443D480115858FAC89600503B052C
:101BF0000000210A00A00090CD4A0070D5C1500716
:101C0000899C00601288CFF7C956D4B8DED7CC596A
:101C10002BA554CD30B5FB66835750D1A518004095
:101C2000A569FF69220A6C022B04948600001CA49B
:101C3000D5A1D52122590CEBBA36E3B9EBAC004063
:101C4000769D486600202644B8B5ACC454D23427EB
:101C5000EA9714D452867DD929DDCB0DD501000039
:101C6000004006556AD85CCBE7020FACCB4DBE5B9B
:101C7000B62C7EC900000050D55150D798161208D6
:101C800000007C060050001026340001DB0DA50C7E
:101C9000DD5076DD261400601208BE7386A2670050
:101CA000EA75830454024D01990579025E0C00E047
:101CB000002000C05195511CBF47AF172351C0D71A
:101CC0002AA0BE9B394B458812C8CB7D22058704CC
:101CD00000000705080A5E0600200625D5511C54A1
:101CE00041DAAD17EB1C00E000300000CB0D1E0404
:101CF000ACE2D521D5C133075D0AE8010000000040
:101D0000BE0B00B076DD06D522C5967A766D9BF6C1
:101D10003B6550229C9C4B0D94A300100060CFA902
:101D20007436EBE6CA1C9416003016681853A1935B
:101D30005ED3C05526B48D302B25A94D4D3900E01A
:101D40001CB922B5008000B026540060E47496DA15
:101D500000501CD4D511A005030EA80ADD50DDD01B
:101D6000BD15B8254D11918DDD00CEE77945D9B16E
:101D70009B3548EC5BD133C2E56157A6EFD1F34503
:101D800022897B75547D5600089CA1184C8AF70A5D
:101D90008559967134BC2FAEF5DB01F05383DBF32C
:101DA000DBD452A0E19300704D21CB9D26949E512F
:101DB0009B090000A4031C84CB4D036200C0D52105
:101DC000FB899D6B527553D853984B81EBCC06D54C
:101DD0004D41761D00001C048E0DA88A45580060F8
:101DE000DB1B22E52235002000200050005000D0EF
:101DF0000010B8C500100040D551CD4A1288E31B31
:101E00008C310C759FF94D1C0056F4D394A6B73154
:101E1000EDDD539C3264F6A3581D5414E61DBEC27A
:101E2000350377DA71ACF263C454686C5B77AE9AB1
:101E30005C15495800909BB9D8C4890C22098207C7
:101E4000760D0605220500D0614600101C04000036
:101E5000760D4CC3F675006000003B050000D5010F
:101E60009905990500C000105442005022759E0744
:101E70000000D5014B010050D5D1001000000A2907
:101E800050971258BF8BBAC2CE5856D2A41C4D01DF
:101E9000CA08000078032403AD0A22055007000099
:101EA000545D4FD20010EC07CB0D26040050545265
:101EB0002FD4B6A4D591D541AC044598000027D9BC
:101EC00093F6C70BAA49D551D52193074B70348798
:101ED00045088EC6B402060554029E07E7E6BEB466
:101EE00000B00040005054A2B785FD8B21452F2241
:101EF000292DDC500000D501DB0B087A00D05010F2
:101F0000000000000000D55148D6001048D69E8140
:101F100073287CB3861840DBCD5800D00010462DC6
:101F200027117780007000F00050B80508014B01C0
:101F30000020001012884D910030547D00200020B8
:101F4000765D910D0000BE0BCD0AAC027609995565
:101F5000D5D11218CBDDD5C1D5A1D5215328EF9607
:101F6000299C8D54DE555103510D00000060000086
:101F70008E56545D50D7C31B9F8380E9048AD43B9F
:101F80001218001025CE1E7460698ADAB5BA35566B
:101F9000106B5222004026040070591AD5015402D9
:101FA0002205509712680588D55100D0001077039C
:101FB000950000000000410354020080220560B833
:101FC000DF971708C235A301FE0B500800A0843428
:101FD000D962540254021B05261400E0D53100904A
:101FE00000E048161C0400000000005000D0001063
:101FF000AD17D5E18F370050D5D1761D0000D50142
:10200000000054CD54123B4506652879ACD41C041D
:102010007B05960A125800D01218540D1F09380B70
:102020000040B8550B2D00B0D59100904D610020B7
:102030001C44D531196479D2102A6BA721C1873B82
:10204000DD644B03B6D418477A12CB2D44220050DE
:10205000B8B500C04DD19AF4530899D7F501B1082D
:10206000B00C124800900000D55100D0761DBE5B28
:1020700027D100101618E6597B70543516663F4775
:10208000F7B885E924C9E9625472C55B99C7014B69
:1020900000C0D5C1CFA71238A354D3D07A1350377C
:1020A00092F14B31266A9A348A6D82C5D423D4C307
:1020B0000020D511D58100D0BEDB12085422D521D5
:1020C000769300B0D5C100D0944D26541C24D56120
:1020D000B45413A806B500A0D5314856DBDDDB1C8F
:1020E000762D8D3D03D43036D59AD7A01ECB7CB14A
:1020F000C85B385D4DD1A81C00208E80E0C418C498
:10210000B4A01E244A8119047480DE40005069285E
:1021100000A04806007024C90070766D0060F77555
:1021200006D500C09B190040700248060000000060
:102130000000D80D0000D5014B0122E5B8752694AA
:10214000FF3477266999B52CE11C4D35CAB2B2D758
:10215000E6DBE08760B51493B426E1937A1D6D0742
:10216000B132E3B2BE050000D50112780010BD35D2
:10217000D4556783401C38A68A7CFF5CD70C0B0AB9
:10218000A608F7554DD17E194C9CF00A2519C34D70
:10219000E0A5FB44D6D91C83C1A8BF094D080000A7
:1021A000D5010000000000D0D54126140000000039
:1021B00020050000D501910D00000B089606DF5D9B
:1021C00000D0D511D5018207000099874E8A4B8532
:1021D0007C24229026049E15372BD5A11C244D214A
:1021E00000506098C0E42215088A084A006000C0C8
:1021F00061F672B2D5F1E64006850020002000505D
:102200001BE54D11484600C01C1400509A07000001
:102210001C0406D51258008097A095396B99C743C6
:10222000A8B4F554C5CAEAD2DCB1C82001338A2269
:10223000F7A50070764D00601C04CB5D4C6100205A
:10224000DD4000D000400010004026546A270010F6
:10225000B8F5ED14A1011B05D501D501BE0BD405C0
:1022600012280000AB80DD0B61009A0200E002BE84
:10227000BBBC127848660F9DB8259E170080263497
:1022800000609E6700000000080A00600000765DA4
:10229000BE5B99D51218932C1228D5916908CD0AE6
:1022A000DD00BEEB899A0675BE0B00000000B86524
:1022B000090A00509C2500200050CF971E1A1A478B
:1022C00012683D3721E4D501CB0D3E010000CB0D56
:1022D000D501CB4DCED7AF3872F4371BAB027C069D
:1022E00092037E093497D591025E00B0480673D000
:1022F00084C8D13BC2AC499600004DA125C30DD97D
:1023000039D1771000B0DD5099D541B3005012D8C3
:1023100008D8F3043D5B7C06A99C5F0A7C26385EE6
:1023200026B4A54A762D3C5E99D52219B0B500C0D9
:1023300000D0125887D41218000000000000CB060D
:1023400038090000760D06052205BF049A04990598
:102350006008760D22051C24002006550060D591EA
:1023600000A0D5511DD7261400000020CD9AE962A7
:10237000E103005000E0BE9B23B512587CD600104C
:10238000B7DCC9A71DA54D0100205452DDD000C007
:1023900006A500F087A46146BC62D1CC68962BD616
:1023A000C99AA69099078509000000101CE4993588
:1023B000D591008076CD54E200B000B01C5408DA0C
:1023C0000010E982D5B1D551E1A751FD1653001097
:1023D00000B054C226C9BD7757634101C40C6A09D5
:1023E000761D4D614D6100801E45086500E0CBBD46
:1023F00000B00060009053A80010D551D551A2A4A0
:1024000072DD6E9628269A14CC8A5A2A54921208A3
:10241000D75726D4D51100D04BC25AAB5F7A195783
:1024200003897AF652598A45487350F6746A002037
:10243000D521BE5B006069980060286800B0CBCDF4
:1024400069586AD60010D5A1D54100A070112F0C93
:102450000020000000000000CB2D0010018E12D8DB
:102460004DB10B48BE5BCBE6029E00003807000072
:1024700000204D11098A5462190A0050390750078B
:102480001208B0D400D0380B00001CB473042285AD
:10249000F7D51CB4000099050000005000D0481684
:1024A00092900090545D768D00B0225506451C54E4
:1024B00000D01228DBDBD581B4E2E724D170702292
:1024C00087CD82977051E9D14D114B5112D8261406
:1024D000001092600665D501000000008C76660A47
:1024E000CCED18C53108F080E790BE3B777322052C
:1024F000D501CB0D1C34E1D32C6A2C4B9F4B0472BD
:10250000CBADDB4B8C5B000045085402D55100D0AD
:10251000D511BE7BA6544F3777C58D1900405208A0
:1025200000007C0600A000E0CB6D16C500104D41F8
:102530009AD4D8878E637333004A0034ECE86288FB
:1025400078726708140A00000000D5011C04D52128
:102550000214268450077B090B0D005015D600107D
:102560009905B8050000766D1E0407590000265431
:102570009A744B01E22641594933B25526847805B5
:102580001E03D50100C026740060D62856121E8492
:102590009DCD46781268D5211C041CE4D5010000AD
:1025A000000000F02F43F013E8B253488CDCD80849
:1025B00027045F010605760DE20A065500D0CB1808
:1025C0001218007022251C0412080000892C00003B
:1025D000F7B517F92A7D819996FADBD1D591A071CB
:1025E000AB9673474A8DFEB15F4C0030D5E1AE7CAF
:1025F0002BE7E9240A697E3CE192637C1E8089CC4A
:10260000E490A2A2813100B9CD5AE56397D3B60315
:10261000D30800000000D501000000E00090C7765C
:1026200000B00070CD5AEC976DA2B1954F5454D2C2
:1026300012182209CB080000CB5D12D8121822997B
:102640002D45D90DF75620D42614388500B00050FA
:1026500000706136A820CA47765D9E270C05600889
:1026600000003B85B63B19B41B573A879AB95AE329
:1026700065AB19C413230010D581E25927D1541238
:10268000080AD50100001B0522050000087A000099
:102690007EA900E000B000B0220500000000D501D6
:1026A000BE0B760DD5210625005000D00070D561F7
:1026B00000502215916D0000000000001268B8055E
:1026C0009952868989BCE95100200020765D064533
:1026D00099B5B81512080000D501002006255452FE
:1026E00058CBCBDD4F23553ABCA9AEA4D301A50CE2
:1026F000540212087902000087640020D541225557
:1027000000D0D5111C4453724279E4012209000023
:1027100012083C0E860C126870F299D7512438AB1F
:1027200084ABA1A15C237F97259559E9BE1BCB4DB6
:10273000DD9000A000001C040000CB2D115DBBBA91
:10274000A305180E99074C0CF05A7955AC58B0CB2C
:10275000632125D4471CFC359E17CB3D4D21B9E59F
:1027600022445998F92622150080F15318D74D11AB
:1027700000000000570B893C0080CB4D1D0900E094
:10278000544200B006C500D0B8D59ED7E8062E0347
:10279000BE6B00801D6769F8DD600060BE0B60588D
:1027A0001208D50100001228D56138DB1B042C5219
:1027B000CBA655E2F65822A9008000A066C392007D
:1027C0007703C9075492DB911E74BEAB69482FC7CB
:1027D0006BE6261075440020D5114D81A1A1A939C1
:1027E0001CC4E18300A04D91DDD08DB300501C09C5
:1027F00000000000000000000000229512C800D078
:10280000085500D0121892C0D5A112381D14E0A0AE
:1028100043C1788000B00050530AB8053802D50192
:10282000AD07210A4D51DADD761D76DD60C84D53C6
:1028300000007E09220500001208000026A91521CB
:102840007985401648FD9D67E19D2E94997500207D
:10285000002000505D060000000021BA5057399753
:1028600000201618BE8B00000000000000900050F1
:10287000306D7CE6D591AD7A00200020485600D01E
:102880007041761D915600D00010BE0B86041D07C6
:1028900012081208A80D00C0D81300401C047602CC
:1028A00058061CC44D3200B054827D4700600000C1
:1028B0001C04000000D01C44D511DDD0B8E5DF8336
:1028C0002D707DCB5BCA12584D91F8ABC06AD21AFD
:1028D000B34CB845275A77D3530800000000024E86
:1028E0004826DD305D5AECD7001081D7CAD92205C1
:1028F000025E06D50010AA0300004B01D56100203E
:1029000000400020001022859200410AF705D50101
:1029100098040A0D162AAD624642532D45E33AC586
:102920009955ACD7BE1B00007C06E40B769D9F65D5
:10293000968A12680000CB5D00504DD1541D96065A
:10294000890C0605760D0000280ADDE01C9412B8FB
:10295000A85C89B42C150E6BF62B9A44CD0A06059B
:10296000480654E2D5410080484600500BD8382D27
:1029700077107884002012180080D5B1CF07541248
:1029800042427B46ACC200B0BEDBDBBD00000000B3
:102990002205000096040605758D9AD40020B8859E
:1029A000000000A000009905990500201228D5918B
:1029B000760D540200000000BE0B0000580B8C0680
:1029C00022050090085A91A0430AD5010000EDBAF3
:1029D00007D878194C8CA0121E04B627098B57B95A
:1029E000000099050000770300000000CD9A54ED27
:1029F000E922002000209955006000202245921015
:102A000000E06136775306D500100000000000009A
:102A10000000E604D501D501610C00000030D1F6BC
:102A2000DD301CC91C140040C9028704E10312D820
:102A30000615E173D551BEDBD6197C56AD94473AE5
:102A40000E6D894C5DC9A930944116C1000000008B
:102A5000850500009E072604CB5DCBDDD5119BD9F3
:102A600045480010BD25D521EB9C00000000120850
:102A700087545E460080E5061C540C7C20691208D1
:102A8000885C00900060008092F0592A1278489685
:102A90009A2412E80E9A99E7868DF699E590997A2C
:102AA00000E076EDCB4D9D88FEB267624736BD658E
:102AB000ECB68F19B7E4D05193D7A53621C914C607
:102AC000061500402499008096CA9FF500304BA15E
:102AD000D501BE040000540D580B000022F5BE4B7A
:102AE0002285B80500000000006076CDCBB600005E
:102AF0009E070000005012B88B083BA311BBBB4DD2
:102B00001B0C760DD501760DA60C890CD7084B0150
:102B1000000000B0546D4B721C241FB1980C871438
:102B200000A01C142205D5010000260401040000A9
:102B3000CD4A9A54542D5896BA1B2619E8241D10D4
:102B40001581246D0905005000600000005000D080
:102B500000D0BE0B2205D5014B0148768810041128
:102B60001FE3C41DF445D5019907FE0ABE0B2701DA
:102B70000000760D8E060000061569A8211A950042
:102B8000F705B805009000B061C61C0312188764F1
:102B90004D76898A27993DD21E248A495BEC2EBE48
:102BA00000B026B4D447EF2A2789E29B3B85CEE5C7
:102BB000684BBD1B00B02249A915000000000000B1
:102BC0000050CDDAD5112269086AB885B66B840940
:102BD0000050265400D0D51112D812C8A17A4486CC
:102BE000E1F03A120BABC7E8321045782878003094
:102BF000CD0A76093C0200604DE100C0D5619975AF
:102C0000F7D50040895C9426268400B0D551000099
:102C1000000012080020AA162A8AF776FB558A2996
:102C20002EA8A11D35A2C29B201AC34C270C000060
:102C300000000060540D1C542D0E0000000000C068
:102C40000010D5410000F909540212D8D5D1B60BB5
:102C5000360B6FD1F6869E2434C25AD1254D215AA7
:102C60007B25D88DB90BE093ED57F00719A4FAD85E
:102C70008735776500A0BE6B18670080760D22A5AA
:102C80009406E1030000000000009B091C041506E7
:102C90000000760D1506D501D541C95DACD224934F
:102CA0000020D581FBFABAA7912A2E9C00900060E3
:102CB00000C01C3400E000202A131288375100D0D5
:102CC000001050571CD47719008000E0F4C1803701
:102CD0006CB86610EBFC9B3400A0D302EE96BBD51B
:102CE0008E84ACE4D551006000C0CD6ACDEA1506F3
:102CF0002E5CB24450F50C897056D8D9EC43080AC2
:102D00004103240900000000000012E8D5A1994504
:102D1000B8F578C1D608F96864571E2454520838AB
:102D2000507DC85A994ACD918364007000D00655F1
:102D300000D00010760DD5014806D521002006559B
:102D400024732614065522255D1A768D4D610625BD
:102D500027C1513D2D5E8A89008048B60050006031
:102D6000587606D522E500B00040B8B500A0CB9853
:102D70000B207E7666153CE5A7BA76B5000000000C
:102D80001C04270100000000765DBE6B4D0139FD7B
:102D9000F597EE7BAA9D1F7E1C1C98C70B1737E882
:102DA000B7B890F434D04D0A2901AF050000EF0602
:102DB0000000D501DD000000DF0C120800009EC7F6
:102DC0001CE46E1200D022D59E01029E00E0382D38
:102DD0000020BD25125800F0219AAC16008000B0EA
:102DE00000505F2A0090760D0000B805000000201A
:102DF000002000503C2E48160080009000B022C5F4
:102E000077E93BB727B1C706CB0D390700A047C309
:102E100092D1497C99749E3700604826E9410000B0
:102E2000CD0A0000CD0A54621D657B6C0000895CF0
:102E3000765D00D04816262400E05632C80D130EE9
:102E4000EB070C21A919D6831268B8052654002077
:102E500092106186D5519AD4CD1A9E02AD4CD31CE6
:102E6000099812785468E65AE4478A09D471AC8B01
:102E7000D0871B104F9840C32DBE25CC028E5345E2
:102E8000C254D5210000000000000000000012081C
:102E900000000000D501CD2A50175883BE1B1E34F8
:102EA000C9C25152B157019100000000000054B254
:102EB000B0354D5112285017778300D0CB4D0010FC
:102EC000003050971379BD550030CB2DD58112E8D5
:102ED000CF87C557FAB24D4DF8B978C600D000007B
:102EE000E204520800C00010004000000000000092
:102EF000D5910070DD20DAF81E875CB20306EA0483
:102F0000000000001E0A0000D5011208960A12985F
:102F100012981278B875543D98BA8122152600503F
:102F20004D0112089E0700B0704176902C436481D9
:102F3000BE10000039079E07AD0AC40AF705124803
:102F40004D51D5D15A5200D00010F89D1278D5219C
:102F50001C240010268412B869E82664172A002071
:102F6000005022B900C096DA76FD2654B8851C249C
:102F7000DD10968AD5B1CBED56C28D0982B42249B7
:102F80000BA5AA7A6C96885126D4D611F05A3B9597
:102F9000515BF4897B0989ACCB2D6918AC829A040A
:102FA000A80CBE0400500040BBACB7C244E383DDB4
:102FB000FF97BBEB922700200885007000000050AF
:102FC0009A74020E00000000F775BD157B3215DC07
:102FD0009C49CDAC48366B3BBD9C6D1848F4ECACBD
:102FE00065010E010000CB4D12F854526A32CEEA50
:102FF0009AC8DA0B000054020080B5F87F543B7C7D
:10300000A4295AD6A5F3AA85D565B10CF4052B02DF
:103010000FB69A940C9500000B58BE7400A0E96698
:10302000622611146C137D65D499008000C0FE44A3
:103030000040868C2B055402DF0761E6BE14009326
:103040002FB7D5C100D000C0063522E51C041202FE
:103050000000021526513430101D050C24484D0A7D
:1030600041511C4B150423513E1615411E4D24366B
:103070005448090C111C2D35395F21040C11141D05
:1030800031383C484D505D683706421A050D111D18
:1030900020252C3134393C40494D5154606A240478
:1030A00056513A613004090D1015191D2025283597
:1030B000383C4144484D51585C6B11404C52494D8D
:1030C000182138300C1D545E304E0414243C5466D4
:1030D0004941213C0C140530523D4D104008182048
:1030E0003052173F3C1F5E30520416061D34584EB6
:1030F0003C064D4340154F14381205423E3C5613D2
:1031000004243C485605153C252A25112D3E322520
:103110001507080C141C303C404950545C623D2497
:10312000520856133D6550101E263F1518091239D6
:103130004D5140493314204F2214044F3E11303971
:10314000414A263B053A0424163D2F5126260910F4
:10315000141C2D34384145484F15611D3052514CD7
:10316000143A151F406705263D65245004163D247A
:10317000595D354015080C2C3038484D5154602BA2
:103180006A0525313D521539520D2F163542651409
:103190000606154D045726140C1E050C2563553CD8
:1031A000052461500D10181C2C30343840484D6AED
:1031B0003619044A314E0E0654083017150C5605C0
:1031C0002124520D14312D361D16530448080C10BD
:1031D00020253034404D5E4D514A4D1654270D5434
:1031E0004E3D41244A3D041424485466354A262560
:1031F00023253C420C4E401D385A053C24140C3803
:103200004856142608153B510548394F3A041420F6
:1032100024343C54661024381E14243C5658500C58
:10322000111D303439484D681616044D6169310856
:103230000D101438404850661115244856052605CF
:1032400014264D14233017304F484D23651426148F
:10325000222C3A0416041C2218562614571D093431
:103260000C142438484C5054585E42195010140520
:10327000080C1C3034393C404C5A06223B14403C6C
:103280000C1C385242485E510B33155D1C35040846
:103290000C10242C393C404859682132651742549F
:1032A00016154D27103E3936054C3E52515F041419
:1032B0001C243C505466413731163D4D050E051413
:1032C000250E2440153D4F04151D30384850624CE2
:1032D000323C13041D58090D142C30353840484D2C
:1032E00050606A1404243C485614090D10181D2C13
:1032F00031353840494D506A1456384D1B565407E5
:103300002116266A152C4A302D0E32041420243C36
:10331000484C545C6604160853052532153052504B
:10332000163D142708192C3814262418140D111DC5
:1033300031343840484D515D6224215C08040D1041
:10334000142C303840484D524C0414182024303C82
:10335000485054663A32153A3D050E051D0C2E3D77
:10336000550614061D103A15243E0E3D4D142649EF
:1033700051124D1407415118393C484D1F11213944
:103380000A243442041A153850123C314D064D3C83
:1033900016041420243C4854663D15262412054288
:1033A0001615185D090C101C243034394151064A99
:1033B000493324303C545C6618080C101C34404CD3
:1033C00050606A314A3E654D164C52514F14053CCF
:1033D0001C2C386711272E0A161D3A26514C400B1B
:1033E000514C1C25080C18303539414A6514324DB2
:1033F000651D2C383D163D534D2D534D3A4D0F4D07
:10340000051641274D3C2D0C505630080C10141851
:103410001C2C34404C503A3D04381C524C680E2150
:103420003E31260524520A4D212C52315F0E4211A5
:103430003A30133D382452380C15053E244A1D05F8
:10344000273D49320436211E1E120C3A0421610D1B
:103450001024303840484D50545C64352F1A353BA9
:10346000264D0531673034383C4044484C50545860
:103470005C60646A3D5625375611493B1B16344D36
:1034800013524D052D15253042391F4D12054D178C
:10349000142630374C521552045857612C103C08F2
:1034A0000D2831353848554D232D523C163C0C1013
:1034B000181C20303439484D51634D652714444C55
:1034C0000522403311323D4D1451321808144C3846
:1034D0000C111D242C303C40495054620D383C6284
:1034E00025061465320551551564321563150524FA
:1034F000283C4A49140532400725481D2C30384ED7
:10350000113A06313F4D38433E6B51310E250511BE
:10351000093B0D05444A15613C58646B6853154DD1
:103520002E37212614300633191504364D20305617
:103530001468564D0E3E104D670536243E544D26F8
:103540002E040C142048242C3034383C4044505471
:103550005C66385F21670414243C5651043D663094
:103560002F4D0966111C313840494E050814262597
:103570001436202F1A26153A066516215D0C1031D7
:1035800035383C40484D5056154D3E08400C3932B8
:103590002221160424480810143038502E145604E2
:1035A000574B56050A4D65074D21090C101D243552
:1035B000383D4850585C3232594C400D6944101423
:1035C0001D2531343949522517154D261504244E31
:1035D000312D524D15240730261448500E653E2FCC
:1035E000251A3215390D1C092C31344850556214F6
:1035F000065010151C4D0E0414243C566804142467
:103600003C56492D1E150C3E151F384D1B11494FB8
:10361000143E4D18213040580C1C25293438485090
:10362000545C6468112E3D2F081439531C5642090E
:10363000630C304D3F144805132C26324124152DC0
:103640001138560E066516360D5D1C243034384090
:10365000494D50555B324D2E390F043F2F4A1065AE
:1036600027541124091C14414E07053A0D163852EF
:10367000265016300A3D4C52124017053E1D3F5051
:103680002625104A115A0E250651154A1C4C055381
:10369000543D1665552C58304331131C2D4A3E04B9
:1036A0001424303C5652041420243C54660D4151DD
:1036B000251015485B64262614243C566504162CF8
:1036C0000C3D6739134D14532438154A1015243016
:1036D0003E651536483B354F1511434D52051630A2
:1036E0004B65254D3D49510D0715040D10181D243E
:1036F0002C303538494D50546064680A051706105F
:103700001E2E1424564D564D2604243E1D4E1832AE
:103710004939672D431533433F250E654131060472
:10372000143C5605152D404B4A04264D1567493F5C
:103730004A1554274C171A15561E51134D3E141C8A
:10374000584D33486B2A15372E04143C4854265ADA
:103750003C26052C4065161C3A063C422554673D24
:10376000255005233D15423D0520252E394A0510DB
:103770003D4F420414264D2C30105A1525364D214C
:1037800052140C111835394048596319051D094068
:103790005A6A652416144C1018320414243E4A65E3
:1037A00056154D3E513A5049131465320C391532B5
:1037B000191106541552100C69181C3034384D522A
:1037C0003E040D1C24083035383D4050545E052E13
:1037D0006A0526213D251734503058104A3B4D15B7
:1037E000481E3D1714080C10181C20242C303438A7
:1037F0003C40484C5054585C60661504651C3E0CB7
:103800001C145365164A041E112D324D060517145B
:103810001C304D343940485222264D18340810309F
:1038200048500E2516193E241705484D56152604F6
:103830001424303C545E24562D222416544D070582
:1038400025172414660555383E523E65261619651F
:103850005135084D16201E4D052512052516491710
:10386000051C4A3D4D0526252C0C1E395D071452BA
:1038700016651324160C421D403949531D574D65DA
:103880001451051E4D16483C2415520619495A6517
:10389000241556150C50223E3E143250234D083547
:1038A000430556154D0E0514243C6621051424309D
:1038B0003D48545E2E3F4D052464164D052F2414BB
:1038C0003225303F301614324D1842343A4D6517C8
:1038D0000639083442194021304853143F06303924
:1038E0004048506A125141131C102C303438404863
:1038F000505A02021132064C1E510436313C364DEC
:10390000044014081C2C3035393D485011671452BE
:10391000621404275114382C4F0C39564832306544
:103920001E4D524C06140C18102E084F35511E4DCA
:103930002E041424303C48564D2430524D171D247B
:103940000C0838651650343B26304D3A5504142483
:10395000123D14414E1D50104030346B3813160484
:10396000141C264E1016321D090C113438484C6AAE
:103970002827513C17341509382E5D3324653265EC
:10398000162D0E590E0414243C562D1705244D16E1
:103990004D3E4D382416153958120E2205263A5040
:1039A0001D163C50551530384A180C0811151C309E
:1039B000353940494C515458643E16651615481C1B
:1039C000385F501D06214D6524090C141D30384800
:1039D00050566514553E0917315F314B16382C0887
:1039E0001014183035484C523C564D0C324D510590
:1039F000091014181C2430343C56651C261C43083E
:103A00003E1B15394B4D053D0C2D36053C1E082E31
:103A1000053E1D2D3A1524501031383C41484C0EBE
:103A20001F510E34080C1014191C2C303840484D0E
:103A30005304080C1014181C2024282C3250243C49
:103A400034413214263638153F0509342E301649D4
:103A500016432410153A1C304A04664D1565344847
:103A60000919243840534F4D3104111824343C5463
:103A7000221025173914500C2C3042511614564B75
:103A80004804563C221C17204868553F213965558B
:103A90003C04350C101430494D5308544C0C1C2078
:103AA00024282C30521D5D143E5C04142024303830
:103AB0003C4854661565241E0A3D655D374D512806
:103AC0004204411C382E41081630524D05163D2443
:103AD0004A15271432215304243E200811181C30A3
:103AE00034383C40484D50545864264D3D323C3BA0
:103AF0000C3E054D172F3E401F0424564204161B52
:103B0000680B35114D3B04080C181C252C30353939
:103B10003C414A2C07253056222D5205513A0414B7
:103B2000243C54663016214D141C245412124D06A8
:103B30000414243C54664D0432041424303C48548C
:103B400066262D232D08323D0A0414243C561015F8
:103B50000D303439404C664D3222244A074D3A3AF2
:103B60002C4D23651614261550263F14061E0408F6
:103B70000C1014181C2024282C30343840484C5089
:103B800054585C60646A4D3015511B511265340401
:103B90000C10141C20243139484D505A1420243E56
:103BA0000B2F160C4F0C504F15354A4D3E310C1E45
:103BB0003D51240C171426261114400C4C5E4A4D1E
:103BC0000A3D324D3519650A3216502D320A2C1431
:103BD0003806262C3A4251400D4B343A1557343AA8
:103BE00031243A3D060414243C563C065142063525
:103BF0000C394B391B2453250D432512043442053F
:103C00003E4D0514091D2D4044481133543A1C4BB8
:103C10000516490414243C560C2C4F050C151C2584
:103C20002C3C4C503A650C1006500C1C344E124D76
:103C3000513C32321508040C111831383C40484CC4
:103C40006B115124325A4C332416543442102E48EE
:103C50001408354656115158083B04165423160CC7
:103C600060521535305E4D0456150D4E490F046AED
:103C70002C694D1351143A1030181E15511D1A108D
:103C8000303A690C10651C380515202D404D5055F3
:103C90005963050C101C39154B4D3D5861242D32CC
:103CA0004D16064D3C0752141F513836381E31341C
:103CB0004909392D423D050E15064D105224520476
:103CC00059101418243134384852491E55485A4D59
:103CD00012142457052157063C240414424D563C27
:103CE000160C0904123C14264014264D4805141CD9
:103CF0002430343C5614384A4D6165050810181CB0
:103D0000383C404B2104245410080D2C3538494DC3
:103D10005159661438531E3D512F052409364D2C38
:103D200019040814303438414952363D5124413287
:103D30002D46324D6514306A0556210D1008141CAD
:103D4000243135383C494C50545D646A4D24641626
:103D500052053D163D12483E3011532E495E241443
:103D6000064D041014242830346B3C504E3C67053B
:103D70000815493B584A14243C053B4D1E3540620A
:103D80001614201804080C101C242C3134383C4024
:103D900044494D5054585C616B164D1D18303C54CD
:103DA0005A3D042E154340524D10384A26410838DA
:103DB0004A113A3614243E493A3E1606653F653F9D
:103DC0000A24053F07516856114B2632313D492FD1
:103DD000213D04100C151C24292C30343841485442
:103DE000585D663836110F4E15380810360604082F
:103DF0000C10181C2C3034383C484C50586A0C1DA0
:103E00002E1E653E3A5C04080C1014181C24283041
:103E100034384044484C505460663952090C1018EC
:103E20001C20303438494C524D34540A313A041471
:103E3000202430383C485458663C360852050A1154
:103E4000390C2E650C323804144A15081C66114AC8
:103E50001A0A3614243E510B243C1E4D4238404869
:103E60005338124D3D55040A3D3225151E171426B0
:103E700014043E214D53153221240C55654C081075
:103E80001C30393D48623E1A4D053D671D364D24B4
:103E90003F140B3E0414243C48546615440C4A2F2E
:103EA000651E645505081427105C04090C15191CBF
:103EB000242C31343841484C596167652416514BE4
:103EC000173412194D5215263C5406141C124D502D
:103ED0000C0840102434394A27091042083A4C5043
:103EE0004A143C420E400B413649584D33480C3A77
:103EF0004D1B4C2F0535124D2167655634180408AB
:103F00000C10141C30383D484D52145656444E3D4A
:103F10002D240C3A504C33213808344C04102430F2
:103F200041485158640E651D14132506390C1018AC
:103F30001C25524D4839530D3B2631394814350A5A
:103F40005604142024283C48545C66653E3A5516B5
:103F5000491B5D2D16081C2028501205141D3828F9
:103F60004E31125517561E392449300E503C14322A
:103F70003017153D05264A196353156616160C1D94
:103F8000383C484F053D10153322080C10141924F5
:103F900031343840484C50546635084E15424D0A6D
:103FA0004D111509191C3034384148534D0508147A
:103FB0003D654A664C3A1205190C10142430343908
:103FC0004148506626241432660414243C54661D6D
:103FD000324A0C2E04142024303C48545C6638537A
:103FE000154865240A505A5115260414243C570CD0
:103FF0003614324D101E053D2E51385A2665103D9F
:1040000026082440060650260C1C5E14342639254A
:10401000163544485A3C051705266454090C1434D7
:104020004850584D261E1448503A3D51113B2465C6
:10403000164D4A3E150D1B152621554D27214110C1
:10404000141D24313439485C4D2F581206041426AF
:10405000163F053D2C24151E244C5832091A063CE7
:1040600016050F4932060414486452153E681708B5
:104070000C1C2C384A50046554111530393C484EFC
:1040800016041424343C485466141C2230264A4D2D
:10409000485438302C080C10182428501E4D153464
:1040A000654B1B0E4858681A3E4D3E5609170C5D6D
:1040B00015670516211A3E150608171C3C58421CA8
:1040C00004083850584A154D07052F3D0430395122
:1040D0004D1624411C300C3439484E4D1538524D84
:1040E00024061506351430424D3A12513A261D5316
:1040F000482F142F3D5736253F0A04162421543AE1
:104100001450244D093C414954053214243E52496F
:104110000414243D563415244D3F3C3A3E3E3F0C9A
:10412000532416211546334D3A2F513B2104080CD8
:1041300010181C2431353841484D5056194D5354F0
:10414000224D162416151D34393C4D5624162504CF
:10415000160E17310C57151E68264D2C3812393E95
:104160003D3B522D6A390D565A2516390F061B0D47
:104170001064251642516719390B4D37154E04143A
:10418000243C563C323236392F4108505E641D2D96
:10419000374833581D0E040C4C5605151E2F1407B6
:1041A00031214F6609142436391D56480527153F1D
:1041B0004F4D0C1625083625152C06480D5C6A1542
:1041C000083739190C30494C545824165E4D4B159C
:1041D0000A020251080D15191C242D354A5D0408E8
:1041E0000C14181C303439404C52151133215631FF
:1041F000121D152F4D1D0C372415512F1C154B1951
:104200000C14485F114E252C1C34610C11143038ED
:104210003D41484C51545E11153C502D3B114841D5
:104220002D19395A1531043A040C15202434383C20
:10423000485156095D4153162E6509510C151D2034
:10424000242C563D561E1C6A350E650552111D0460
:104250000C1518243038484C515A1D350C093A2693
:104260004D241E65114B51113B51116561410C5D8F
:1042700054241D3034384C5A214F17152665355DAE
:104280000C381D530C181F514839090411152432DC
:10429000043C160414243C54661A650414243C4857
:1042A00056393315303615514E0414243C56483FC8
:1042B0002417434D243F0C3A271410303439494C0D
:1042C000506A0415416109381D24303C49545E4C44
:1042D000481A32152D1F4C04145D424D1E153943EA
:1042E00004080C3842154A24171409360414243CD7
:1042F000560C1A20160541363C4D671D0968100CF6
:10430000182C30343941484D5304162C5C57316415
:10431000153F1A410A4D51151D382D264C16384BA4
:10432000511E51302C09341D3968104A4A51114927
:104330000C4D392416585315240911183041494C95
:10434000533015670414243C54672F3D142604147D
:10435000243C563C304816303856490C511E154DF9
:10436000240A3D0415261552041524313C414C52B3
:10437000564210174A4828090C04103035383D4180
:104380004C5054585F3E2E485E080C10181C2024D8
:10439000282C3034384044484C5054585C606605F2
:1043A000153A04142453504F262D1E15261A650560
:1043B00014243C485624164D4453243E24144D32B4
:1043C0001715263B2D143E1151564D39412D5137AD
:1043D0004D1538511F1A150C4064040911303C4C1E
:1043E0005154585F04080C1014181C2024282C3039
:1043F00034383C4044484C5054585C646A6A4D3EE2
:104400002F3C56663A65241542154D3E1D174E1138
:10441000242D15381D0E511A392D1135414D4B39AA
:104420004B4351334A1553514F31351B4D53352CA6
:104430000C4158113038484D53153C13653754160C
:10444000564D4226394130354D1654164A651D40A9
:104450001438521505245056091D3B3B14243E4C7C
:104460002518510411141D3438585E23381D354B5E
:10447000610C5133240C10141830484C52410B512C
:10448000164D5219044A4D51134D1108513310263F
:10449000041424303C54664D51110E2F144C352D0C
:1044A0001908103C5A15653948352665143B4D39B5
:1044B0002435401152410C343A5131133441241106
:1044C000510C09045D1830393C48546715312D0FE3
:1044D0000E0656300C10152435394A50110C303464
:1044E00038484C611E4E4E3E650624094C586724E0
:1044F000525D0C383C544E652D350C485D434D34AF
:104500004A314941115A3E0414243C5466653D0425
:104510001426484206391E51114E214D525648115B
:1045200067512D314B2D21414F0E4D2F2451153305
:10453000511130181435394336242C3C1567503D41
:10454000083530415A4D3D12542251374D1E044119
:10455000303C1158080C15181C2C3438444C53426C
:104560003C0414562D53504D17044C146124384804
:10457000534D13655D163A15243150374D0F2F04F6
:104580001424303C4854663E341C243048505D6648
:10459000651D5D09100C24354B410C106104141885
:1045A0001C303949516A4D17394B110C6A50382D5E
:1045B0001C4A211765240E24484C511C303B152100
:1045C00051262C52563224170414202430383C48EB
:1045D00054663C142665091D2431343841484D5039
:1045E000545C6A2D3804150A390E081526306731D7
:1045F000152615261D3843403B154D3D50110B1512
:10460000233931433C2C04080C1014181C2430347A
:10461000384044484C50585C60660414243C56654D
:1046200015514E150436080C101C3034383C484CDB
:104630005239481756651D080C1118243035393C7D
:10464000484D516A4D3153154D3539133C161141C2
:1046500054515D671857514A31433E4935390B244F
:104660004D1F650414243C563C173F4C53244816F8
:1046700041512D111B3341344D0A6514255407084F
:1046800026391133212F2614526A4932651426091E
:104690004A4D14263D16040C1420242C3034383C8A
:1046A000404450545C665E15245365163324162D21
:1046B0001C15513B651649264A244D1E04344016EC
:1046C000192D49514E3D1E650414243C562D0933C5
:1046D000160C581C494C53381314264D3A04154FE8
:1046E0001E4D314924140C43303F3E30163A390EEA
:1046F0000E511E3C16384E154D512D4A113A3A15A1
:104700004D12090C1D34414850586526581B1D0494
:104710003D2130090C1115183438404C2E05133D3D
:10472000481F4D1226260414243C5651154A0414E1
:104730003C5614051C3C49561D48580C1028303472
:10474000393C404D51545C6824174C2F503B3E512E
:104750001130583E0C1D154D2F4D1542394924146A
:1047600035092D4D534D52241119314D1611155344
:104770004D1604081E4C1D5D0C413E364D15110CA6
:1047800026304A12515604243E3D16494E574837AA
:10479000150C09363C041014303439484C515E1E57
:1047A00011394114194F261524354F4D490C194123
:1047B000395332150910040D1C26412F4C511D1080
:1047C000242C34384A392416143E514E1C3E3524CC
:1047D0002D0E154D3E1521510910181D3035384844
:1047E0004E222F4C0C1764164C654105090C101D08
:1047F000243034383D4851545D63512D0E11554ECF
:1048000015333E1D304852223D51312F413852164A
:10481000515651313D1B04212F48321518494E1570
:104820001C3E513A4D65313C4A4C3A0619384A4AC9
:10483000303F155F08524934303A11305333395103
:10484000312F4D4108571441320B27150B2D173EC0
:1048500011302C3C090C151D353941484C5A325049
:104860005651233026514D16143E2D11434D12043E
:10487000142428303C48560C1C38514B044D0A6413
:10488000041420243C562404153E511B380B31617E
:1048900051351C090C1438434D363E2D58394B21E7
:1048A0001524524916304C04080C111418243438BD
:1048B0004048505B51494314064D433A3C5A383303
:1048C000484D3B4249113543156526383F485D3C0C
:1048D0004C0C580415245162041448532E5165247D
:1048E0005D0C114C1C313941495A23141E2F3127BC
:1048F0004D6561040C101424303539495F4D15267F
:104900001D4D171533151E4D1C4A500E1565266595
:104910004A0514243C5615185109101D2430353908
:104920004E152F04090C111D2C3039485350101C02
:1049300030343840484E4E0414243C560915534C2C
:1049400011655D41353B1D350C5E04082428541467
:104950003205361D0F491438405D58111C3C4C512E
:104960005614064D0552513C24334026384C531101
:104970001F41181534080C101C2C3039485324657D
:10498000164C314324140857151D04114D2D3A3D82
:104990001E1B51652D0C3A513D2F495224413F15A4
:1049A0004D0A4D65310A3111531E113149355843B5
:1049B0001C4A5631522E4D512441142D332C521580
:1049C000511B4D24201C3E300515343940484C50B5
:1049D00062110C3A115D16392F3C2F31391B04142A
:1049E000243D670817155832165D6841610C11188F
:1049F0001C242C303439484C5165563A492E392EF6
:104A00004D41170414243C55675D1D080C11051514
:104A100030393C41495338061407160414243E6BC0
:104A20004D264C52544B15053C51133904084A4944
:104A30003A3C6516510411264A483C0E4D1E563824
:104A400004522D0C4B48346541612C5D090C111D3D
:104A500024384C50586A210B063E141C3A65241821
:104A60002C614D50111D3038495A151F14683728D4
:104A700014303E5104184A364D140E154D434D3135
:104A800049512F4C095034651E4C151D2C0C3034E7
:104A900039415365411C30394B51154F244D16484F
:104AA0002417242D17324D1C12514D0E51111D5833
:104AB0000C2430353840484D656A2D4D1D3A06119D
:104AC00049415130384E15330C50174D111D2F15DB
:104AD0003C521C392638334910374D1C24171B4DC6
:104AE0005D3904305315482453115D16153A233FA0
:104AF00026154214071C262F4D1E4D42154D6530BC
:104B0000053C1C38520414253C5630160415243C30
:104B1000485467131C300611391948500A1454269A
:104B2000511D3843111C38152F1524214F15374DB1
:104B30004116512D110C15243A6517222651050CEA
:104B4000151C303848585D630C1F151E154D264D39
:104B50001738535D243E6506065131111565264D03
:104B6000421550300C246604143C4856203E26154D
:104B700052354C51192F2E1D183224164A5011301F
:104B8000650C5D0918353848546A050C20564D519E
:104B900013154D531505243E153D0A154D4251116F
:104BA000331D092C5D37244E512D1D0E4D413C08FF
:104BB000364D650A164C095F6505080C11181D2451
:104BC0002C3039494C53391115371C4D53110C30C9
:104BD000381611192D333D4D362416653E321C38DA
:104BE000314B4D1139574D16354D330E4D1141177F
:104BF00022160C5241380C3C5A4D30162052654C4E
:104C0000395D2C080C1D243035414851586A1D0966
:104C10000D515F383E150604162D3C2465171427E8
:104C2000446715110E6506431512214F160C414EAF
:104C30002415671D5D38044E3451084C110C242C8A
:104C400030394954586331241604080C10181C20BC
:104C50002434383C40485054585C60324D511A65F9
:104C600014244C51230457484D13243E512D110C4C
:104C700035394B19113937241716153A154D1D3A88
:104C8000041420243C48562416512415425D156115
:104C90001107353014483B043C542615481E212F7B
:104CA0006541141A155D0E4C301804081D3439483E
:104CB0005A3015264D15653F4D15652D0C103A15CA
:104CC00024650A0414243C54671131354B410C33DC
:104CD0004D652616111D2439515A17480911153BE7
:104CE000143E0618340C10141D303940484C516ADB
:104CF000114C5C0409141C2430383D4851563D14B5
:104D000066325111651D410E2D5626532054173120
:104D1000511724614151581004090C1D383D484C6D
:104D2000545D661A411C0C38363949564D0A2D110E
:104D30003224412D1324164D512415651E11650989
:104D40000C181C282C30353941494C5154585F4DB2
:104D500039410D3250161C1527653D4109174D3953
:104D60004B514C1D15090C3034383C4148545F51AF
:104D70003E3C50090C11181D303538414C5A410C3D
:104D80001C3A39242D4131584D114B4D0A394A50A6
:104D90002315241215212F5214321435650430398D
:104DA0004C516A115D161530195A4D3E3812561184
:104DB00041510C353A4911370C1114383C484C52CA
:104DC000650415243C48565635321D5D0C353A5A5B
:104DD000681D0C11183035384C521114343F5111E4
:104DE0004B151C2D1108370C1130393C514E180C45
:104DF000091D3034384852654D2416113D172415CD
:104E00006A514B4D151E0414243441543E48161566
:104E1000313B1424323C156A15424D1615241E15DB
:104E2000650426152F0414243C48545C660C4D235D
:104E30004B1551212F4D240C1552041420243C48AD
:104E4000545C6604142024303C484C546651095F7D
:104E50004D51111F154D331C51133832344311413C
:104E60002431373D264A65244D535D51093E511189
:104E70000931584D24174D224D1163154D382E0917
:104E80004D323D4D52245648334C483238514B0434
:104E90001030343A381E2D1C2648090C1D353A2492
:104EA00004143E512F15240512153C2D26041424FC
:104EB0003E4D3E1A1608584324164D143C56654C78
:104EC0000C1D04091118242C3034393D414851542B
:104ED0005F080C1014181C2D30394C52144E49190F
:104EE00011393365345D41612D090C4C3B504C0840
:104EF0000C1D3034384A114D334D20560415080C22
:104F00001D3835323104351438514A1124411D2CD5
:104F100009390C304950556315264D363C4D4351E7
:104F20003D4A154D0719333D103A0414243C54668C
:104F300011651D0E65152F3015350C08382C4005F0
:104F40001C484C624D1C17103A492D4E040C142479
:104F5000405251043E51243C33511C173924231133
:104F60004D4B241611382F1D24584054043C5F1516
:104F70001D38124D1504243C0C3A483E1548652452
:104F80004C4441181C3035393D51545D622D083078
:104F9000153D485F4B1B143834114E161433115D08
:104FA000040C15243034384850546B1E15263541F6
:104FB000480E2E113541481714202430383C060481
:104FC000142024303C485466152330581A650414C4
:104FD000243D564D164D65143E04090C141D303900
:104FE000494C51616A110C14532E4D18483A25143E
:104FF0003E0414243C5467152D1133511526143EDC
:105000000611141C383C515465064D15522D1602DC
:105010000000000017000300031F0A1F161F0A19D3
:1050200004130A15120003000E1B11111B0E0A04B3
:105030000A040E04001800040404001000180403FD
:105040001F111F121F1019151215150A03041F171F
:10505000150D1E151D0119071F151F07150F000A35
:1050600000001A00040A110A0A0A110A04011502B2
:105070001F1F1F1E051E1F151A0E11111F110E1FB7
:1050800015111F05010E111D1F041F111F110911FC
:105090001F1F041B1F10101F031F1F011E0E110EC8
:1050A0001F05020E19161F051A16150D011F010FF7
:1050B000101F0718071F181F1B041B031C031915BB
:1050C0001300000000007E0909097E7F4949493626
:1050D0003E414141227F4141221C7F494949417F54
:1050E000090909013E4141493A7F0808087F00410A
:1050F0007F4100304041413F7F08041A617F4040BA
:1051000040407F020C027F7F0204087F3E41414104
:105110003E7F090909063E4151215E7F0919294652
:10512000264949493201017F01013F4040403F0F7C
:105130003040300F3F4038403F631408146303048D
:105140007804036151494543D5F08D14A1C881CF3E
:10515000D9F1AF2000080B00020202000009040090
:1051600000010202000005240010010524010101D4
:1051700004240206052406000107058103100040EF
:1051800009040100020A00000007050202400000B5
:10519000070583024000000403090412010002EF26
:1051A0000201404123368000010102030141726483
:1051B00075696E6F204C4C430041726475696E6F67
:1051C000204C656F6E6172646F00703111241FBED8
:1051D000CFEFDAE0DEBFCDBF11E0A0E0B1E0ECE15F
:1051E000FFE602C005900D92A03EB107D9F727E077
:1051F000A0EEB1E001C01D92A63BB207E1F718E2B4
:10520000C6EED8E204C02197FE010E947637C53E63
:10521000D107C9F70E94CE310C948C370C94000052
:10522000CF93DF93A62FB0E093E0B595A7959A951D
:10523000E1F7B695BA2FAA27B795A795A20FB11D8A
:10524000A80FB11DA95FBD4F6770215011972F3F67
:10525000A9F0FA01E20FF11DE491F0E0062E02C080
:10526000EE0FFF1F0A94E2F78C918E2B8C93ED01C9
:10527000C058DF4F88818F2B8883E7CFDF91CF9194
:10528000089580389105ACF46034710594F490E190
:1052900021E061FD24E060FD220F62FD2295687F20
:1052A000969FD0011124A80FA95FBD4F8C91822B2E
:1052B0008C930895EF92FF920F931F93CF93C42F77
:1052C000E62EF12C082F10E0C15038F0B701C801CC
:1052D0008C0F911D0E944129F7CFCF911F910F9103
:1052E000FF90EF90089580E0E7E0F2E081118FEF0A
:1052F000002481938193819381930394D1F708953E
:105300009091B107982329F49091B007982381E0F8
:1053100009F480E00895FC0180910602882311F1D0
:105320003FB7F89482E08093E9002091F200822F49
:1053300090E01816190614F481E090E0882339F003
:10534000289844E6409305024091F10040832223CF
:1053500039F02091F200211103C02BE62093E800E0
:105360003FBF08958FEF9FEF08952FB7F89483E024
:105370008093E9009091E800892F807295FF04C026
:105380009091F20080E4891B2FBF08958091FD0168
:1053900081110DC082E08093F90184E08093FA01CD
:1053A0001092FC011092FB0181E08093FD0189EFD6
:1053B00091E00895CF93DF931F92CDB7DEB7698355
:1053C000DC01ED91FC910280F381E02D41E050E0A1
:1053D000BE016F5F7F4F09950F90DF91CF910895C8
:1053E00083E08093E9008091F200882319F08AE33A
:1053F0008093E80008950E94B52990E00895CF9326
:10540000DF931F92CDB7DEB7FC018485958597FDAC
:1054100008C02FEF3FEF358724870F90DF91CF91A2
:105420000895CE0101960E948B29019719F4898174
:1054300090E0F3CF8FEF9FEFF0CF0F931F93CF93B9
:10544000DF931F92CDB7DEB78C01FC018485958573
:1054500097FF0BC0CE0101960E948B29019771F432
:10546000898190E0F80195878487F8018485958586
:105470000F90DF91CF911F910F9108958FEF9FEFC4
:10548000F1CFFC018485958597FD0BC09FB7F894FB
:1054900082E08093E9008091F2009FBF90E0019646
:1054A00008959FB7F89482E08093E9008091F2001C
:1054B0009FBF90E008954091F3015091F401209135
:1054C000F1013091F20142175307B4F49091E800D2
:1054D0009570E1F39091E80092FD19C08093F1007E
:1054E0008091F3019091F40101968F739927892B94
:1054F00019F48EEF8093E8008091F3019091F4010C
:1055000001969093F4018093F30181E0089580E087
:105510000895EF92FF920F931F93CF93DF93F82E8E
:10552000192FE62E042F81E0860F880F0E945B2A38
:1055300083E00E945B2ACF2DD12FEC0EFD2EF11CB3
:10554000CE15DF05B9F007FF13C0FE0184910E945C
:105550005B2A182F80E00E945B2A8123219681110B
:10556000EFCFDF91CF911F910F91FF90EF900895B2
:105570008881EDCF81E0F5CFDF92EF92FF920F931C
:105580001F93CF93DF93D82E8A01EB017B01E40EAA
:10559000F51ECE15DF0559F0D7FE12C0FE0184912D
:1055A0000E945B2A21968111F4CF0FEF1FEFC801F3
:1055B000DF91CF911F910F91FF90EF90DF900895B1
:1055C0008881EECF0F931F93CF93DF931F92CDB7B8
:1055D000DEB782E0898342E450E065E571E580E86A
:1055E0000E94BC2A0E94C629DC0112960D911C91D2
:1055F0000115110589F0D801ED91FC910280F3812C
:10560000E02DBE016F5F7F4FC801099597FD04C073
:10561000F80100851185ECCF89810F90DF91CF9142
:105620001F910F910895615030F02091F100FC011D
:1056300020830196F8CF289884E680930502089588
:105640003FB7F8948091E9019091EA01A091EB01B4
:10565000B091EC0126B5A89B05C02F3F19F001962B
:10566000A11DB11D3FBFBA2FA92F982F8827BC01BC
:10567000CD01620F711D811D911D42E0660F771FE4
:10568000881F991F4A95D1F708958F929F92AF92E4
:10569000BF92CF92DF92EF92FF926B017C010E944A
:1056A000202B4B015C01C114D104E104F104B9F0D9
:1056B0000E94202B681979098A099B09683E73406A
:1056C0008105910580F321E0C21AD108E108F108B3
:1056D00088EE880E83E0981EA11CB11CE4CFFF90D9
:1056E000EF90DF90CF90BF90AF909F908F900895F4
:1056F00065E070E080E090E00C94452B8F929F92E3
:10570000AF92BF92CF92DF92EF92FF920F931F93CF
:10571000CF93DF936C017B018A0180910B01882379
:1057200009F45CC080910602882309F457C0809177
:10573000F80180FF05C08091E00082608093E00066
:10574000E801B12C8AEFA82E93E0892E2AE3922E4D
:10575000209711F4BB20D9F10E94B52981110AC00C
:10576000AA94AA20D9F161E070E080E090E00E9464
:10577000452BEECF8C171D0611F00CF08C2F9FB728
:10578000F8948092E9002091E80025FD02C09FBFB7
:10579000DFCF282F30E0C21BD30BF701815020F060
:1057A00041914093F100FACFE20EF31EBB2021F0AD
:1057B0009092E800B12CEBCF8091E80085FDE7CF17
:1057C0009092E800BB24B394209709F3F3CF5D983F
:1057D00084E68093F701101611063CF081E090E01A
:1057E000F6019383828310E000E0C801DF91CF913E
:1057F0001F910F91FF90EF90DF90CF90BF90AF90EF
:105800009F908F9008950895CF93DF9326E0CAE08C
:10581000D0E0E22FF0E0E052FE4FBE010E9462377E
:10582000805D8083CB012150009799F7822F90E013
:105830008F519E4FDF91CF910895FF920F931F9349
:10584000CF93DF93162FF42EE9010B5F4991442388
:1058500071F04F7185E04802A00111244F535F4A57
:1058600025E06F2D812F0E941029100FEFCFDF91BF
:10587000CF911F910F91FF9008950F931F93CF9396
:10588000DF93C62FD42F8901F80141918F01442362
:1058900071F04052F3E04F02A0011124405F5F4AD3
:1058A00023E06D2F8C2F0E941029CC5FEDCFDF916C
:1058B000CF911F910F910895FF920F931F93CF9354
:1058C000DF93EC0160E2F62E06E0E091A807F0E03D
:1058D000EE0FFF1FE35DFE4F0190F081E02DEC0F16
:1058E000FD1F14919091A907E92FF0E0ED56F84FB4
:1058F000812F85958595805C808310FF24C08091E1
:10590000A307813009F06CC09530E9F48091A407B9
:105910009091A507A091A607B091A7070197A109AB
:10592000B1098093A4079093A507A093A607B0930D
:10593000A707892B8A2B8B2B31F463E977E08BE95E
:1059400097E00E948537A091A807B0E0AA0FBB1F7F
:10595000A95DBE4FCE019695879596958795089F30
:10596000F001099FF00D11248D919C918E0F9F1FC6
:10597000FE01E370FF27E330F10509F048C0FC01A8
:1059800031962491329634910596FC018491E22F50
:10599000E295EF70307FE32BF0E18F9FC00111247F
:1059A00088279F708E2B009761F02091A9072F5FA9
:1059B0002093A9070E945C2C8091A90781508093B5
:1059C000A907219611FF81CFE091A907F0E0ED56DC
:1059D000F84F1082DF91CF911F910F91FF900895A2
:1059E0006BE977E087E096E00E948537A3E9B7E0AE
:1059F0009D919923A1F0E7E0F6E09F018191882332
:105A000009F4A1CF9813F9CFF901F082F1CFEE0F8D
:105A1000FF1FE80FF91F859194919F70C4CF80916B
:105A2000920791E0980F9093920728E0829FC0011F
:105A3000112463E977E08E56994F83CF8093A307B3
:105A4000E3E9F7E088E0DF011D928A95E9F710921B
:105A500092078091AA07882391F10E94713628EB62
:105A600033E040E050E00E94DF366F5F7F4F8F4FA2
:105A70009F4F6093A4077093A5078093A607909308
:105A8000A7071092A8071092A90782E192E00E944E
:105A90005C2C8091AA07811119C081E08093A8072E
:105AA0001092A9078EE391E00E945C2C82E0809323
:105AB000A8071092A90783E194E00C945C2C0E9443
:105AC00071362AE637E040E050E0CDCF0895CF921E
:105AD000DF92EF92FF92CF93DF93D0E1C0E086E0B8
