:100000000C94FF220C9427230C9427230C94272371
:100010000C9427230C9427230C9427230C94272338
:100020000C9427230C9427230C94842B0C94F32BEF
:100030000C9427230C9427230C9427230C94272318
:100040000C9427230C9427230C9427230C94272308
:100050000C9427230C9427230C9427230C94252EEF
:100060000C9427230C9427230C9427230C942723E8
:100070000C9427230C9427230C9427230C942723D8
:100080000C9427230C9427230C9427230C942723C8
:100090000C9427230C9427230C9427230C942723B8
:1000A0000C9427230C9427230C9427230000000092
:1000B00017000300031F0A1F161F0A1904130A154D
:1000C000120003000E1B11111B0E0A040A040E0479
:1000D0000018000404040010001804031F111F126C
:1000E0001F1019151215150A03041F17150D1E15DB
:1000F0001D0119071F151F07150F000A00001A0020
:10010000040A110A0A0A110A040115021F1F1F1E00
:10011000051E1F151A0E11111F110E1F15111F0597
:10012000010E111D1F041F111F1109111F1F041B98
:100130001F10101F031F1F011E0E110E1F05020EA0
:1001400019161F051A16150D011F010F101F07188C
:10015000071F181F1B041B031C031915131F1B115A
:10016000030418111B1F02010210101000000000F0
:10017000007E0909097E7F494949363E41414122B5
:100180007F4141221C7F494949417F090909013EBC
:100190004141493A7F0808087F00417F41003040D3
:1001A00041413F7F08041A617F404040407F020C7C
:1001B000027F7F0204087F3E4141413E7F090909D9
:1001C000063E4151215E7F09192946264949493297
:1001D00001017F01013F4040403F0F3040300F3F61
:1001E0004038403F631408146303047804036151EA
:1001F000494543D5F08D14A1C881CFD9F1AF200076
:10020000080B0002020200000904000001020200C3
:100210000005240010010524010101042402060543
:1002200024060001070581031000400904010002B3
:100230000A00000007050202400000070583024093
:1002400000000403090412010002EF0201404123EF
:10025000368000010102030141726475696E6F20EE
:100260004C4C430041726475696E6F204C656F6E33
:100270006172646F00000002B90448B602540000C5
:100280004D0000154B080E861024D71216000011E1
:100290004B080C84021C7E143CA60E5153000489AA
:1002A000003800004D861016BD1224D712178402A4
:1002B00010C40A3AB9040F5B030426111463022424
:1002C000640430E3003C170D48A6115600003DD7EA
:1002D0001254220815000067D70708320326640667
:1002E00004410814750425F80B3C7009568402304B
:1002F00086103884025012002C0000652208115329
:1003000000255304485A134E00002100004D2208D6
:100310003F00004D00005122082D91034B86102014
:10032000E50D2400004D240F1E4D104B00004D0024
:100330000011BD060422082DD71215C30439D908AF
:10034000489F03527D155CB7025400004D00000722
:10035000FB05170000490000154D103966074F00D6
:10036000004D000005240F1C1E08174B0950861075
:100370003A000604C10D14C011246C013FAF1249AC
:1003800022083B57133A000065341404500914CD79
:100390000E241A063C470B5686103800002D2807FD
:1003A0000883011CE50D30741648F4135200002533
:1003B000F0134A7E1436000005000015310F24AA00
:1003C0001548290A63320324BD060784021C000075
:1003D0004900003BA60E15F1062F00003DE50D1467
:1003E000AA0E2400004D000037B90434220853003F
:1003F00000350000412D0A13D712042208254502BA
:1004000056630524220814170306000041E914303E
:1004100000003D000067000021300B0C0F0F24246A
:100420000F40E50D157E143F22083184021C22087E
:1004300051D7121700004DB51130B3122600004DF0
:10044000C5093EE50D4A00006500004D22083397BE
:10045000043200002500005100001100002D250984
:100460000CA60E1F2208247D0004E513549E085E8E
:1004700088114F220851140E0600003D520005B4A9
:1004800014153C0F2600004D0000510000152208F5
:1004900065FB006122080984023422085D000041E6
:1004A00022081D730024BF1211BE0918460F2CBA72
:1004B0000430A11139E00749270C54FB005A000011
:1004C0004D240F0A00004D7E141C00003984025890
:1004D000A60E1B540F3C000005000067000035000D
:1004E0000041840258B90438BA094A0000210000CA
:1004F0001D7E1424B9044D22085D84022C1B0905BD
:100500004D1208BA050DC90311001015C905301E9A
:100510001139440F3CE204412A15497B0153000084
:100520002100001522086500000900001D0000617F
:10053000F0130C000041320504C00924B61130F458
:100540000539CF023DB60D49A9004CB41255BD0680
:100550005EDB0538580948CF0114FB0A3486104D7C
:10056000840213DF0915530B262A023E00005100B6
:100570000009190B0D52023C00001F5A0F04AF1462
:1005800014451024610D3C180956C80A5000004D4E
:10059000D712170000512D080478080C210310A76A
:1005A0000E380B153C6B1458010F64E50D24000048
:1005B0004D5803177D003E22086522082500006182
:1005C000000069B50B052C0411340015120A1DD763
:1005D00012202D022D190C34860438890540E701BC
:1005E0004D380451E50D550D1359E50D5E000051D0
:1005F000000049A60E1300001100004DB5083A0096
:100600000065240F2600002DCF0504A80514BA0E9E
:100610003F4B080CA60E6A22082D540F06E50D1557
:1006200000004D4B080E840238840248F0130D730D
:100630000E3CDB0550DB0556E60B0965140CC303C5
:100640001109081984021C5C09248B082C1B0B312E
:10065000C212350A01398B004162104900005D3534
:10066000154C5F1551550854140458FF1167A60E18
:1006700030B508382208537D155CC20E1200004DBB
:10068000000015000065A60E1E00004DD71215C80B
:100690000A4200001500003D000065C80A388610B7
:1006A00005ED13520000517E143C840248D6121509
:1006B00034013A00004900002D84024FA60E48C0C4
:1006C0000630B9043EE8012100000D2208534A1506
:1006D0001C4B080C86104C8A0D384B0840D70B5128
:1006E000220849220813D71214C3152445065200C4
:1006F000001522085122081300006522083726043D
:100700005486102300005D0000615302056E07153A
:100710000000112208670000152F0C2600004DCEA6
:1007200001146E0E26000065F20504390214490A10
:100730002428133C4E0E56C71208730314B9043B09
:1007400000001D0000354F02325D1414A102264C3A
:10075000043A00000D86104C53025600002500009C
:10076000515302549103336F010A000005220853CC
:1007700000004D931305F00B15C80A1C5809204FB3
:100780000624BD0D307E143DC612480D165458097E
:100790003600004D84022CE80E688B04095F120CB1
:1007A000FE0211E905144B081D870B31610E345E02
:1007B00012396B12411E1249F50653E50D15A60EAE
:1007C000429B125800000553025614052600002DC6
:1007D00000005DA60E48910333320324921306E411
:1007E000064800005100003384023884022C1F08A0
:1007F00015500624E2150C7F0E40D3024AA60E398E
:10080000220849D712560000514F125600005DBD14
:100810000617DE0716530004B50216B40E14B7040B
:100820003C7E15540000657E140639144D220816CE
:1008300032032422082DA60E1E00004D00006586FE
:100840001026000021E50D1600004D91032DBF0577
:100850001F840230FB002C5809500000358402111F
:10086000840258840208C10905D0040CF31215D083
:10087000131D5606394B153C160948B4034F0000AA
:1008800009A50B14000051000013BD064A84021094
:1008900084024A2A02542208411B033C390153A610
:1008A0000E63B90420000067350115C80A5D000019
:1008B0003984025A84025825113200003D840250C6
:1008C000000065B90410A60E14B5112F0000050034
:1008D00000110000150000653203246A0054D8019D
:1008E0003C00004D000051A60E3200004DA313162F
:1008F00084025084024E490F50F0130400004D0052
:10090000001500005784020C000031800D3A0000F1
:1009100049C90A04FC0E14801524B90F3C3616563A
:1009200077161400005F00004DBD063CC006307A0B
:1009300000141501242E04660000050000110000BB
:100940004900003958091EE90D24000067220831CA
:1009500000001522081B4B080CE50D3096133801DA
:100960000F414B091E000051B9040EA60E110000E4
:1009700037840250530B2473160812004300001DE5
:100980007E143C220811820318D910308815355185
:100990000F39110348A8154DB60F51E80E6A9A0099
:1009A0003C000009B904111200582F1204C4120CA3
:1009B000E1151549151DFF02314612394E044970E3
:1009C000014C040A51140C6300004900003100007E
:1009D00041240F1190045A00002500005100001519
:1009E00000002F8B080C00004D00001F00004D0080
:1009F0000051FA0411760D3100003DD712170D0C8D
:100A0000180000170D1624000065220816000005C6
:100A100000001584024066092E0000510000114BB1
:100A2000080C22080900003900003186104DDA0355
:100A3000156F0E19BD12240E11498B085A8C0844EB
:100A4000BE08047104150C043A651617000039003D
:100A500000317E143E7E1424B9041200004D0000C3
:100A60005100003DB90410B30B3A0000650000418D
:100A7000000069A60E61630550C7050C8D091800BA
:100A80000015A50B3E84020CD71214840268810263
:100A90003598133E0502387E144AC3094A00004DBA
:100AA0000000117E142400005D580940A50B342578
:100AB00011185E0C05E6070D6313155A141DEE118F
:100AC00031080039300C48080551861062000011C9
:100AD00053025600004DB81018C7033E2208515863
:100AE000091200004D220811CE1431240F530000CA
:100AF0001553000686100C220859861042EE080C89
:100B0000301652000005000049E50D1586104C22F4
:100B1000083B7F160C251118500624D81209380FEF
:100B200010F41215A3051D360430DC0535EA0D3925
:100B300040164CDF08539D130D15141CB913249E49
:100B40000A30A81239BC0A40580949A7014D2D0F97
:100B50005122085500005FDB05384B084CFB05515E
:100B6000840236000049000009A60E30240F3549E2
:100B70000F1200004D000005000015530B24220841
:100B80003DA60E3560065000003122082F000049B6
:100B9000240F514B081E00004D2208310000250093
:100BA00000154B080C53103F000005E50D15000023
:100BB0002DC80A103016405B0C4B840250000033E5
:100BC000840230220851220843BD060400004D0073
:100BD0000015A60E3277160CE50D26000015000054
:100BE0003D4A151DAF0C537E1456130A246C0B306E
:100BF000F5143C3F0948491654980E64000904FD59
:100C00000B16FB0A5422082700001100000FB5083C
:100C10003C000021D71256A60E058E0B4800004D51
:100C20000000510000170000118402520000310042
:100C30000041580917220814EE0404111108E315A5
:100C40000CFD10107B151841121C770020F40D24A8
:100C5000EC132C160530830934851238780C3CECE3
:100C60000F40BD07483A144C0607507301541F0645
:100C700058C8125C6B1660820966D7121400001106
:100C800000004BA10216220821FB0061000065480C
:100C90000F090B140CC4121166091DC70924B909E8
:100CA00030000B34280E39080D49AC084D1C035197
:100CB000F21354BD0A5A0000157E141C0000650092
:100CC000005D0D164C7300248B08358A0D398402A3
:100CD0000AE50D157E143E2208310000117E140431
:100CE00022082DBF0914F013204C0D249103356503
:100CF000093C84024D2E135470165866091B0000DF
:100D0000497D004D220809CD0514C80A1DC80A39BD
:100D10000000417E140700004D000005530B247EA7
:100D2000143C7F05179B122800004D0000674D10F2
:100D300015000065000035530254220811730004A9
:100D4000050231EB153921033C58095153024A572A
:100D5000135457131600004DC1091608023E4A02EB
:100D6000184B084C00006500001D220851C10930D5
:100D7000150938B00B4B000015ED103609023E0086
:100D8000003D2208255300145D1404FE0548A90502
:100D900056000015D90854220805CC1524800D52A0
:100DA00000001500003500003922081300001D0D59
:100DB000162C8610320000210000318C08460000FD
:100DC0002500001584024A000051220856F0132025
:100DD00000004D2208167D155C320C3E000011000B
:100DE0000015C4121D00005186102613002458035C
:100DF0001722084CE50D1486104200004D220841D0
:100E0000CE143500005100001100004B000011C845
:100E10001541B31224FE12319B123700001100005D
:100E20004900003F000005C80A64ED0614B106261B
:100E300022081500002522085600004D58091D0003
:100E4000002500000500001700004DDF10320000F3
:100E50004D000015D712046F015200004D22080505
:100E600000003D22082F150E04D20014A60A180710
:100E70000A20D30F245B00302B0D3C3110480A0AA6
:100E80004CA60A50B401546B0066000005320324DE
:100E9000C701106812346A0F38580916000035006F
:100EA0000041861054D90809B5081CA40B3C2B0A34
:100EB0004E0000656305242208078B120D00004DCB
:100EC00000002322085186104D84022C84024084A5
:100ED00002086A141047001DBE1324381334550548
:100EE00039CA004ACD143986104EB00B2100004D8E
:100EF00022083B00006500004100001584021EBD71
:100F000006339801049E000C4111342200388508F4
:100F10004C010F5200004D000065D71217C80A504F
:100F2000840222171504AC15145D0620740B246688
:100F3000092867153CCA04487207543C0B66F01335
:100F4000109B121CE50D2584022A010F1E000025AE
:100F50000000512208118D0A48000005D712170021
:100F600000154B0850FA0435000039530B260000D9
:100F70001500002DA60E48140E53E50D1500006552
:100F8000530B264D101500002D2B01244E153E004D
:100F9000004D8B081200004D000005000015F10601
:100FA0002F390A048501144F072409123CA706555E
:100FB000FB00672208248F101426046600004D22CF
:100FC0000815490F040D163600004D0000112208C7
:100FD00049B8101A00004D220851220805F7030DE8
:100FE000D20530B9043B000051530B24E40F087DB7
:100FF000155C00004D00006500003B43110E3807F2
:101000002100004DE50D1700004D000051000011BA
:1010100000003DD3091E320324220032CE090422EF
:1010200008160000617E1417330516BD0604B904C6
:1010300048470011C40F39CC0F412208157E1426F1
:101040002713242D0C3C5300164D1015000035229B
:10105000085184025806080D7E0E1155091CF31321
:1010600028EC112CA201307C0D39600541960A480C
:10107000230C4F00004D00005100001500006524B6
:101080000F2700004D00001500002D22081300005E
:101090000522081442102F000015BD063266071401
:1010A00000003F000015000031C5093A000065222C
:1010B0000805711614491325DF153CF50756D7129C
:1010C0001400005700003DD71204801017220809B1
:1010D000A60E4A9A0D04D20414F2072458133CEFCA
:1010E00007545910675B07504D101700001DE50DA0
:1010F00015D7120400002F00003986104CBD0630B1
:101100002208147D0018AA00482208510000435DFF
:1011100014149D03249A003E39144A00004D5809C6
:101120003022083DC80A420000497E141C000039E4
:1011300000003122081B00003900005177160E22F2
:10114000084986104C00002D220819910353000015
:101150004D000021220851840224361214731136E6
:10116000E50D14A60E3200001532032422085300A8
:1011700000492C0A1CC80A3A000011A60E302208A9
:1011800005D71215C80A19B51148B5115A00002122
:10119000F0134A15073200003D84025000001DD7AD
:1011A0001214BD0630220841840208CB0F0CC7126E
:1011B00058320306EB0F1E681611800D30330F15E1
:1011C000EB013E00003D22085400001722082100D8
:1011D000004DB9041022101C1515245D1456000092
:1011E0004DBD06645302547616045B07097D0A0D53
:1011F000B20D15220819DE121C310A2422082DA76F
:1012000008355F0D48910351BC095A00003122088E
:10121000377E143C000055531015EB1048840251E2
:10122000A0035F00002158091D840268641504E0D2
:10123000080C950011211114C51131340A354C09DF
:1012400039F4023CEA05485E064DF10D51BD065FDA
:101250005D1404A2030C440A11D60914CC121D25F6
:10126000163C380A488C084DFE1350251154A50E23
:1012700058880D6A490F1C5B0724290A2F00004D6E
:1012800000005100004900003900003122084122CD
:101290000811FA042F00004D290A42C0060CA60EC0
:1012A000529B122600000549064800002D84023991
:1012B0007E143CD7121700004D2208154B0930C888
:1012C0001542B5083884025A000051000011000090
:1012D0004900003100004D000039E50D1600001DE9
:1012E00000002D000015A60E3200004DBD06140DA5
:1012F000161E22080D00001100004D00003B861054
:101300001400001D00002D840237840224290A09DC
:10131000000051D712168C15069312042D1314D801
:101320000724920B3E000005000065000019A50B84
:1013300034D7122477160CBE0A14250230A20239C3
:10134000DD104112124848075200004D530B24D7BC
:101350001215C80A10C0061E00005186101A00009F
:101360004DBD060700004DF1120470053E86103891
:101370008610260000214D10157F160C2208092228
:1013800008510000419F141D320A30B81235F10196
:1013900039C91548BA054EA50B54000005D71216D9
:1013A00000000500002100002F000051A60E174C80
:1013B0001511A60E4A0000158C0844E8120CC7034C
:1013C0004A840230000015F0134CA50B26F01333AD
:1013D0000000157E143C9B12302200580000510D75
:1013E0000C06000039000019840212000025BF120B
:1013F0003300001100003522085122081986104DD3
:101400000F112F2208154B080ED9013C00004D008A
:1014100000430000099B123100002FD71204000086
:101420001900004300004D000051C804144A07335E
:10143000D8100A00002D840210E00915C80A0D1208
:10144000001C84023300003DE801240000652208EE
:101450005300004D0D0C130000514D10158B0D3F26
:10146000B20B56D3105000004D0000178610247E9A
:10147000143F000011E50D3A000025E50D15D712C7
:1014800006E40E1457133E00004DE50D15240F52CF
:1014900000004D00003D00006500002DC80A382204
:1014A000081D490611931017000011B50838FA04F9
:1014B0003384005600004DBD060422085700002D5D
:1014C000B3014A00001100006500005D0000410A00
:1014D0000356E90D24BD06055800148F0F56BD06AE
:1014E000159E1025D8105600005184023062053830
:1014F0007E144A2E1354810D0CD30814D20224FDFD
:10150000073C540040E00152240F1D0D0C328402B0
:101510005722083100001122085122082D22083DCF
:1015200058095A0000510000657D0018FF0608EBBD
:10153000011D7F16480F0F4E0000150000650000CA
:101540001D0F020E00006500002500003F571354D8
:101550003A023E00004900003922081D840251CBA6
:101560000F4E00003DB5083B00004D000015A102E4
:101570000600002184021600004D000005E50D154F
:1015800022083F22082D000025000013180606221D
:101590000805A80E4DA60E23E50D1400004D3A02D5
:1015A0003E00005100001184024C00006522082515
:1015B000840241890D38060D4B0000658402110537
:1015C000021500001D00003B0000098610154A02AC
:1015D00018840236151516A60E3C9C0005F3065617
:1015E000000005000065B9043C490F08960915E89C
:1015F000012622083100002500000500000F000030
:101600002170072F22080D22081DA60E4162140525
:10161000F10309230611180C208D13250D162C003B
:101620000731FB073517023971053D3603499D0F18
:101630004D5510514C085411005851045F000005DD
:1016400000005100001B8610384D1015530B24006C
:101650000041220835FB0509C8081184022CB10895
:10166000308C024966114C070153220815220809E3
:10167000840234E8016186106400004DA60E520019
:101680000025E50D15BD060684020C00001D0000B6
:1016900039D712142208517D004E000015BD0604F2
:1016A00000001100006500003B580964000033F69B
:1016B0001336BF05040000150000673C000600005B
:1016C0002D220816F902162208140D164F22083191
:1016D0000000110000397E143D4B085322081519F3
:1016E0000B0DBD0624D90864221304DB1209FB0587
:1016F00011480230DD0535A00238D4053D360440DE
:10170000BF064C0B0351F607543F0B58B80E5F222F
:10171000084C4B080C2208490000390000350D1612
:101720001E00005100001500000B00004184025C07
:10173000000049D7125600003DA9050A00001570A7
:10174000053063053A00004D000065A60E16BD0683
:1017500004000033C80A530000057F160C22080954
:101760003203240D162C0D165A000005A60E3A253C
:10177000113CA60E0A000015000031220851240F6A
:101780001100004D220867320324B9045200002DD5
:101790005B074800000500003B0000097F160C00B5
:1017A000001DBD0604840238C301439E0224BD0609
:1017B0001700003D000065840226080131E8015849
:1017C00000004D00001B0000110000550000190032
:1017D000004D00004900003B8610046B03151710F4
:1017E00024CA143D530E487B0254410B67B602567F
:1017F000000015D71204F9025600004D00000984BC
:1018000002347E143C2208040D0C40F013105809D9
:1018100051800D2C920A388608483C076500001557
:101820007E1426F9001412134A00004D7F16068616
:101830001024CC0E14BD033E00001D840238840227
:1018400015B5112C000005D7123ECE02264B080C10
:10185000490F5000000500003F781614B704249E7D
:10186000013E4A151C190B0DB50838000051000047
:1018700049000043000005E50D15320325580948CD
:10188000A60E4F00005DD7123E000051580F48DCF5
:101890000904030D094A150C7C0511580515FE04B1
:1018A00024F20F3063163958092E00004D22081516
:1018B000E801212208530000150E020536143300FA
:1018C000004984020EE50D14A50B56000025840284
:1018D0001184022C651504C3000976020C950915C4
:1018E00098001DC81430C209358A1539830F3D8A06
:1018F0000841DA0248390B4C000021A60E5222089A
:101900006586104D84022CBB0B040D0C0826080CB8
:10191000C30F116413157D001822081D810824F0DF
:101920001329A01330AB0335140D383A1341E80BDB
:10193000481804518F0A54460F5877165D060E68F2
:1019400000002100003F000015B9042622083100E4
:10195000003900004300006586104C570E040D1638
:1019600010F11324E20531B30135011439BE0848E2
:1019700021085100005B4A151C7E143C960A581F32
:101980000804000A0960120C4210111B0715580FB9
:1019900018FA002CF005305D1334310B396F144107
:1019A000DF0744EE034819034D2B025300004D227C
:1019B0000815000009B90410220851C80A3411069C
:1019C00005D10A0DE5011D9F1024AE0230220B4AFD
:1019D00000004900002D840205D712155B0730B9BD
:1019E0000458000011BD063EF605200D0C484410B9
:1019F0006822085522083F38141B8610274B084CD4
:101A0000DA073822081F00003DBD0614000041B966
:101A1000044A5B07560000650000390000350000ED
:101A2000412208119B144F00004D0F1123771626F9
:101A3000580315530B2600004D000015A60E30006C
:101A4000003B00001D000035BE08120000095803CD
:101A500014120058C109320000510000417E1417D1
:101A6000000039B8101A0000255300170000392271
:101A70000052BF05545D1416C80A39220811490FD7
:101A800050A60E199B1249B4112FA60E48C4125825
:101A900000004D00001500001B0000153A023EE555
:101AA0000D54B000045C0714CA0920D00E24AC0EFB
:101AB0003CBF0F489A086600000500005100006511
:101AC000E50D1500002D580922771614000061005D
:101AD000001100004D00004BB7055000004F000002
:101AE00005A60E14251036771614240F2F000015A6
:101AF000530B24900B05B81018580439000031A678
:101B00000E4A5C0924840210840258E2090470140D
:101B100009DC0E0C5913144316187A131DB4083837
:101B200074093DC20141B706490A0B4C5B0B51C910
:101B30001154EB075DD908667F160C86104C000027
:101B40001900005DA50B048C0844E4141422083528
:101B500005164A74036800002322081584024CD33A
:101B600015322E0C26150914911004DC04246C1077
:101B70003C120B562208314A151C68134E5B075065
:101B800000004D00002F00004D00002D490F1EB138
:101B90000C04200D0C2703083A04103D1414160001
:101BA0001870131C810E20E90E24AC1328830A2C14
:101BB000DE0B30E3103469113840033CFB0340A5D1
:101BC00000449B0E486D0F4C9D0C50E70C548F1534
:101BD000580E085C6A0460AE0964A0126A270C16ED
:101BE00000004D0000258402304B080C7E1404D701
:101BF000121484024884022222084900002D77161C
:101C00000E071356220053000051000039580934C2
:101C1000861006AB1530E50D1784025600005122E0
:101C2000080922083925114BA60E30D712160000DC
:101C30004D8610380000514A151E00001DE50D1597
:101C4000B3010684023000001584025000003BB44A
:101C50000B16000055E50D0600004D0000110000B8
:101C60003DE50D24A60E48781017000065D7121424
:101C7000CE020497133EB60414000021220853003C
:101C80000051580933260426000051000035C80AC7
:101C90005AE0091500001FA30304810114680E24F3
:101CA000F6063C3D0F487A10540C166753025484D4
:101CB000021E000005000035FA0432BE05046C0661
:101CC000146A0D240D043CBC055482046600004DCA
:101CD0004C1512B3123800002500001700002DD754
:101CE000125600000586101584020C2208270000F9
:101CF00011D7023486104800004D22080FA60E505E
:101D0000BD0606000039D71215C80A2F2208310A6D
:101D1000034800004D22082322081522084C8402A3
:101D2000503F100425100C010610C80524E50531AC
:101D30009B0434AF0D3807023C8402415C104A001A
:101D4000001584022200004D22083700006584023D
:101D50003000001700004D1B081081091E150204F9
:101D6000000626861020C80A1E00004DE50D140F3F
:101D70000F04540F3E00002122086500001D960943
:101D80000500004179060883060C840211CF012466
:101D90007F0E2C311631A601354A0F39381249D140
:101DA000124DFE1151E50D54B80F6AA60E11000038
:101DB0001F84024C22081322081433065200001517
:101DC00000000977163A00004D0000510000494B11
:101DD000080C000039000031240F2DF1065A0000D4
:101DE0004DEB0F50000021000017B8044A000065B9
:101DF00000004D0000210000070000094B080CBD49
:101E0000063C8402584304118005154E001D230A28
:101E1000246B07318B1035C40A39FB0041480D494A
:101E2000AE0C4D380151DE0654981265FC136877EC
:101E3000165E0000499B09051102142203248E122C
:101E40003DF602565D141422083D57132453000436
:101E5000480632000049D7120600003D000055B97F
:101E600004508A0D060000057E143C0000618402C7
:101E700009BE0813890523D810320B10240000076F
:101E8000D7126600002525105800001100003B0005
:101E90000015220849000039B9044D3203252208F3
:101EA0003D4B080F8402407E142600004DA60E51C3
:101EB000A50B3E42150CEF13304B1234600E39FC6B
:101EC000104CB9040A00000900001D7E1448E514F6
:101ED0003A00004D00005100003522081970072D0E
:101EE000A60E08A60E41F006391C1616000065D78E
:101EF00012062003068402248610171F081600000D
:101F00004D8610242208057300167E1405791020D2
:101F1000D7123FE90D246F1031720E3ED7121457BD
:101F2000132600004D00001500000989080C070762
:101F30000606122400005100004D00003300003559
:101F400022082D010F4A0000510000154B080CBD5E
:101F50000624DB0539D1136800001D00005F000076
:101F60001D7E143CB90404DF010CC71230DA0538B9
:101F7000C0054850024D570452AF0C4E3C0F22F999
:101F80000D04070E14DE0A24910430F0103C270BD8
:101F9000548F0B5E86103866095000001D8402368F
:101FA000EB0F3300002500001500003DBD0606497B
:101FB0000F1BEB0F5A220839220833240F4100006F
:101FC0000B251118861056320C26000049000031EE
:101FD00086103BA615058213144A0624BF083D222D
:101FE000086700003D0000310000110000494B0867
:101FF00052B70424521216CB0036000041C80A58CA
:10200000131411C7152D7D154A0000390000310049
:10201000002F000011000049A60E32000011000040
:102020001922083B00001122086584023800006173
:10203000861054651505B90409D2091437111CFA24
:1020400004306F093407163DE807402A04491F0F82
:102050004DA20E517E145E00003DD71214220824BA
:1020600065150424141D9B124A00001DA60E4D2464
:102070000F38EE135200004DBD0614A1022458097A
:102080004A240F5000004DA60E323A0214650E0489
:1020900096013D0000512208272208095713060027
:1020A00000510000497E145F7E1424240F1EB714D3
:1020B00004FA0F098B0B11511214FA081DFB002CA6
:1020C000001330CD0339B5093DCF0948D4124D1E58
:1020D0001651840269580936C10930D003480000FE
:1020E0005100003B00004D00001D961322C80A500D
:1020F000840226000021A60E4FAF1223840230E591
:102100000D1600004D000039000011000005000010
:102110003300004D22081576103DC80A0A2E043EF1
:1021200000005100000900006500001D000039009A
:10213000005DC006355B075A000031240F11C80A44
:102140001900004D58031600004DC4093E0D160E2F
:1021500000001100003522085122084177160CDAE0
:10216000073A00004D000011C7031CB30B3A580991
:1021700024B90448F60B0833030C6B1310450918F7
:10218000EE121CFF072890032DD50C30440A39B0FD
:10219000084DAE035099045A00004DEA030E2D0B72
:1021A0004A8402504A021822081484021D22085947
:1021B000840208D40B0C701411EA0F35020F39A2F7
:1021C000154843164C630F63B50838BD0607000079
:1021D00009220851A60E1576000C640E1D4E132020
:1021E0002504245D152C910F48CA026700004D009C
:1021F000003DE50D142E1304C80A212200522C07BD
:1022000004900514341220490C2401123813133C95
:102210004C0748CE12549515668402240000653A96
:10222000023E000051530233CE02090000050000B7
:102230001700004D000021000015530B2684020CEE
:102240000000317E141E4A151C840250000043D742
:10225000123C000015B511320000054B080C32038A
:10226000245809382C0F21F01356220815D71204D0
:1022700000005D8402088B086884020DA91411CA4D
:10228000081D621524C5042C930D302308355F0109
:1022900039BC1041391149C6064D861051321554CA
:1022A0006D0D61870967F0131D000015E9063E00FA
:1022B0000039C80A4122083100005384020CCE05BF
:1022C0001100001500001F150932BC0605D71216B3
:1022D0002208650000097E1424580935D60A202BEF
:1022E0000A4CFC063BD9085400004D0000057E1442
:1022F000266B0B343A0741530206B50D0600004D1C
:102300002C161D00003DE50D17D712147910320070
:102310000011BD0630840241E50C39D1094A4A1545
:102320001CB50838D7121477160C7D004C080153E1
:10233000E8014DBD0604000035000061C80A584A96
:102340000D097D00180D162C420B0D950A1027045F
:102350001D340630E00C39FB0541FB0549940A5158
:10236000710B6AE20F3C22080B00004D780808DC74
:102370000B35EF0143000015FA0424C7033E0000AB
:102380004DE80121000065220851220816D9081DD8
:1023900096132600005196091586024F000015A6D7
:1023A0000E507E143C00004DB9044A00001D771603
:1023B0000E00000522081586103EC80A1CB90468E4
:1023C00000004D22082F00004D00003D231124FA8B
:1023D000043500006100003100001B0000052208E8
:1023E00026000049A60E40861032840230000035D7
:1023F000220841B9050C84022D7D004A771606FAA1
:10240000044284023053023E00004D00003D0000B3
:1024100065000039530254EB0F10B9061591031DE6
:1024200000002DA60E530F001B840238E50D048416
:10243000022C530B24531017CB083600004D00001C
:1024400015A60E2F00004D290A5200004D00001D58
:10245000D9084A000051530B2400004D22083100D6
:102460000017000015000065840226220011B5083F
:102470003A0000355809515809085E0B1300005105
:1024800000004900000F00000500003D84025000DC
:10249000004D000027000065FA0F052A12144816A7
:1024A00020210A246A133CA9054A00004D000011AE
:1024B000220849220853E90D56C50F040302149B54
:1024C0000A24FD003C710656E50D15530B24D71266
:1024D000062208090000195A120475000C1407118D
:1024E000E61515640F1D5E152CF70D307A0535D8ED
:1024F0000A390F143C010D4191004817044D5B0C43
:1025000051D2035A22081507075200000500002D7A
:102510007C0931EC014100004D000025E50D173A22
:10252000023D22082600006590042C15094AB508D2
:1025300038000033161028BF0914F611048A0F085A
:10254000410F0C1A0C10D20B181512256F11307F89
:102550000940E30E48740D4DDF0D507F1454EB1409
:102560005EA60E3500004300001500000D00001BA4
:10257000000051D71204DE0419AD091CB514308FC8
:10258000134AB9040C00004D2208537E1424BD06E2
:102590001663054A0000418C081CA60E5800001165
:1025A00000003900003100004900001B000021221A
:1025B000081522086500005D5809108402092208E8
:1025C0003C58091D59000409020C200B24800D30D1
:1025D000231635401039880241191648D8084C6333
:1025E0000550C41154681659F0136A52123C57131F
:1025F0002600001584024800002F00004DB9041C7D
:10260000A60E08A905187D1530000005E50D1687F2
:102610001404160114AB07248B05302F083C640A00
:10262000540C135CE9116600004DC3093E00001113
:1026300049064800003522082D0000415302045B82
:10264000070853021700004D8402380000110000F3
:1026500049000017A1052600006557133E84024C6F
:1026600000003900004122080F7B0D1700004D8348
:102670000548D01051000065530B24580934570DFC
:102680000475140C9F08111B1415AD0318110A1DB5
:10269000F8082094093116143BF20B1500005780FE
:1026A0000D5600004D000065F2081489013C090236
:1026B00056530B24D71216BD0E14A60E3E3E090427
:1026C000D71256000065A00815E90D3D7A0556227F
:1026D0000831FB00119D012CFB00357B04490000F3
:1026E0004D00003922085384011C000049000033CA
:1026F00022081522085522080515093884022E22C1
:10270000083922080F84020C45074884023B22083E
:102710002100004D220809D712048402390000610B
:102720002208411804510D162CB3040D2D0F11C4AD
:102730001018C109240D0C281812315B0C35F21148
:102740003C4804486A015564055825145D470067F4
:10275000000011D7121422081900004184022CB184
:10276000120C530B047D14301D1039F30D3C7716F9
:1027700049B6144D23095322085400003DC50114E5
:10278000700466E60E5400004D00000500001700BE
:10279000005100004900002F86103822084E00002A
:1027A000117F160C8B082C00001D5809351200589B
:1027B0001E0815981304EB0609870030BB0A39D7A9
:1027C000093D960A41080748580F4D450B51001224
:1027D00054DD095D580967000051A60E1222085108
:1027E000000019240F21220840290A4A0000651719
:1027F0000C0A2208217D004D0000650000411804EC
:10280000517102048402087E160C7E0510321214E7
:10281000260C24DD0330FA0F35C111398513490C1C
:10282000045881055F53023F000049000009A60ECD
:1028300010290A1C7D004DCE1451000039E50D14FD
:10284000000035CE142F000005490F1EA10F04B85B
:102850000214210720CD0D2489113C0514483601AE
:102860004CA10D54E5035CD101644B096A8D080449
:10287000C61514C506200A023CE20148540B56A6B0
:102880000E4C000021000053DD0804041108CA0C9E
:102890000C0D1010010F14A90B18A9011CE50F2035
:1028A0001E0C2481002838142CC113304E0D34D353
:1028B00013383910400E0C44230548A5134C581505
:1028C00050610054AC005828085C3E1160F90F6458
:1028D0003A0F6A680004860F0C4D10155C162052E2
:1028E0000B248402348B0838DA0A48D00A51B91410
:1028F00054BD066600006500060600005122084E21
:1029000014053A58031580093800001D240F11845E
:10291000020C00006700002100001500002DB81017
:102920001822081D00004D84020E0C04580D162CB0
:102930001C1310FA101CF70C30FC0A34950B38FCF1
:102940000C4098154898024C87105200004DD71241
:1029500014580948C8151D4B09567E140422085501
:10296000C80A0C850F38800D5A7E143DB90410D466
:102970000920F50B30060E5C00004D240F42D712E3
:1029800014D60A0E22083100004900001700005139
:1029900000001100003D000031000035F0130CE58F
:1029A0000D0622082D89095030125400004D7E1466
:1029B0003E84020C240F114B091F4E1204650114B2
:1029C000240324CD0F3D080B54EF1067D712048663
:1029D0001054B6023E410104E10814230020A3096B
:1029E00024020130470738D1113CBD10489B0654E2
:1029F00053025C2F0466000021861014220825D79C
:102A0000125400005DB9041CE8016180140C9700A9
:102A100011A3112C420D31A50B3541063827103D6D
:102A20006B0541580F48C0064D9B045300004D4BA9
:102A3000080C5302148C0404C80A2200003DE50D62
:102A400015D71204A210249E0D31A50B67F0133880
:102A5000BE080400004D00000BA9050C771062BDF4
:102A600006644A08059013087E1414410225CD0817
:102A70003C240F41630A50220857000051000031E6
:102A800000003500002D220855240F11290A39C8ED
:102A90000A4B0407049F0D3E0000510000117F16F1
:102AA0000C00006500001D000041A50B34771639AD
:102AB000280156861038000009DB05529D0D2700BD
:102AC000004D000051000011000031490F0984023F
:102AD0006A8F041409025630121758031500006556
:102AE00022082DD9082622084900004D0000510077
:102AF0000013E50D152208072A0254D403142902F5
:102B00002600004D00001122084900003B860566A2
:102B100084021D84020E00004D4D10160000250099
:102B200000510000193B0315A60E316E105600002F
:102B300015320324000031000037840210F0121C0B
:102B4000010F2E22085D84022C2511185809375CCC
:102B50000916B9046422085F2208512208250000E2
:102B60004122081DBA054C1301099A0C0C9806184D
:102B7000C40530BD0A35670F390108485A0361C8DA
:102B80000A662208511B054E8A0D27000005000029
:102B90001D58094058090E0000050000510000159D
:102BA000B90411210309F60F1C12003700006584D7
:102BB0000214B9043C00005786100CE50D3886104D
:102BC0004A0000159B121CA00D3E000015000025B8
:102BD000240F12220855F9023C0E0A0600004D7E11
:102BE000140400006184021000006984022C251185
:102BF000181E0815A60E5897120D000F1C4A0B310F
:102C0000960A34101539F70F41FB11487908517EA7
:102C1000146600003D8C084A00004D2402398610DD
:102C20004B7F0D500000137B1104840D150D1648C9
:102C300084023A00004D220815000051320324009E
:102C4000001DC80A38520E3EE50D150311237F16EC
:102C50004E22082D771638C71210910333240B56D5
:102C600000004D000065B5083800003522082DE54C
:102C70000D30010F4125111881055D4A150CFB052A
:102C80001D6F01217E144B9A000600004D000021AB
:102C900000003900005D0000413A023C771649E02F
:102CA000080C2C1005E01514F11430DD10517716C6
:102CB0005400006B0000217E140400003500002D3C
:102CC0000000618402587E145D16080DC80D11FBCA
:102CD000001C0510249908283D0331970839C70ABC
:102CE00041C90749EC124D451651CE116700004D00
:102CF00000001558091F0000217F160C00001D0060
:102D0000005D84024084024DE80E68B91009C70DC9
:102D100011960914270C24F61330531335CF0838B5
:102D200059003DF0134909155128045600000900C7
:102D3000001D7E143C5809345207047E00152511ED
:102D4000240A05300D1638FF0E40CF0748B00B4C53
:102D5000670951980954E9035887055DC603622243
:102D60000815000009BF0549AC065125111A0000DD
:102D70003D3A0214821024AC0957220849B9040CC8
:102D800000003B000005000051000011000015008C
:102D90000061530B270D0A52000005240F438610D3
:102DA00021C80A1E000051B3014A9B071EB508380E
:102DB000DB0550C10930CA0F0CA60E34DD054B846B
:102DC00002583A02160000151C1148A60E3B0000DE
:102DD0003922082F00002100005100001500003D9D
:102DE00000002D8610247E14067E143C84025AEBCB
:102DF0000F10E50D15530B268307047F0C149C045C
:102E000024530234630C3CAA055403115C5402663B
:102E100086103CBD0614000009840250960905ED99
:102E2000140C9C0511200F1938001D9C143035041A
:102E3000351209395C014112004CFC0B5A00004D5F
:102E400000001584024A6E1204D01414560C208916
:102E50000E24CD063CDF0254290C664B080C2200E0
:102E600021EB0F52C0123C0000677E143C0000654D
:102E7000E50D16000005B5083A00004D00001D00E4
:102E8000003900002D000041251130410A3DB903F1
:102E90004800001522085F861020490F1C00004DD5
:102EA0007E140600004D00006584021200006500DB
:102EB000006300004D000015530B24000065A60EB2
:102EC0000600004D00000500001122085D7D001481
:102ED000441624B30B2CBF0548F70D320000154AE9
:102EE000151E840207BF130CC40D10000514B60E86
:102EF0001D9D1130090639FB004022164867074D19
:102F0000830451D30358060E6B000025530254224C
:102F1000082D22083DEF0507220851B30B4EB508D6
:102F20002600004986100E58093B000015490F6A1B
:102F3000010F2C08150458160C3B02101907183104
:102F4000061C641230D40A34530A3873143C5A04F1
:102F5000488D0F4C3D0D502E0158C2066A0000519D
:102F60002208110000094B084E000065B9041C0539
:102F700002176F0E227D00207E143E00004D0000DF
:102F80000500005100006500002D84021DAF1217DE
:102F90000000114B080C000031000035C80A4153F5
:102FA0000249580952861024BA050C450009C6107A
:102FB00010670B1580161837011C18042D091330E3
:102FC000550F350213392E0B41220845010548C81B
:102FD000034FC7054E00005100001500001B0D0CEB
:102FE00040E50D1600003D0000650000350000556D
:102FF0005809385302047E145EBD066400004D3249
:10300000032600001100004900000D00003B0000F5
:103010004D00000500003D7E1424530256D71215C2
:10302000C80A13A102243D123D7E1406591314B799
:10303000043C5C1424EC0456000025A60E3DA50BB0
:1030400006000039490F42530B247E141722004812
:1030500084023200000DE50D1500002D7C140424BF
:103060000F11C81538D60A5000002500001F0000B7
:103070003122084B00003D240F367F160C00005112
:10308000000017000065000039000035B904480051
:103090000041530226E5071D5B083B6F05241F080E
:1030A0001700004DC80A1C7D002600004D00001DC1
:1030B000B30B38000005530B24D71217551104A881
:1030C0000C0CA31014C81020E90A24BD042C900194
:1030D000303E0734500838330C3C600B40840844C1
:1030E000300348B60850100F548C055C6A0966B569
:1030F000083853025421033E0000490000630000D9
:103100004D460636E50D072A0254610C149A003C20
:103110008C084A000015D71204B6023E800D08350F
:10312000134C8402300000373C0F1200004D0000A9
:1031300009220851BD06302511182208390D161034
:10314000EB0F340D162C4F101D14094AB9044D22F3
:10315000082D8C0844FA045300001500005D220875
:103160003D22081122085922084DA50B35C400093B
:10317000750E0C3A001DC80924000029920A2C7F04
:103180000630FC0939BA1041BA1149F303519308CA
:10319000555F0E638402270000515300064A09065A
:1031A00000005100001D7E14247E1404BE0F3CC09C
:1031B000065A000065A50B04AC1414E30A26E50DBD
:1031C00015D3092600002100001500000900001D8C
:1031D000000037000021A60E2F590922000015001B
:1031E000001D00003584024800005D90046A530B06
:1031F000247E143C0000555809347E14051E081521
:1032000022081DB5100DE3132C281630BA1439E925
:10321000074131004D2809518502630000397F16AE
:103220003EB5080600004D0000052413142C0125AE
:10323000A60E3E0000057E141600004D240F51809E
:103240000515C003057E0F24FC00420000514B0809
:103250004C240F11A60E3386103F00004D22082784
:103260004B080400004D2208172208250E1504857E
:103270000B14B8103E00004D000049530B24000011
:1032800041240F3100001100003900002F99070C74
:1032900000001D00003900000500005300004D67CC
:1032A0000E042F1011D702148610241610287A0E3F
:1032B00034B6023D84026926045600004D4B081CBA
:1032C00000003DBD06307805394F134B0000050066
:1032D000003D00004D00001522081F530B241F085D
:1032E00017FF0514BD06070D0C2E0000114B080C2E
:1032F00000003122084191084900004D00002100E2
:10330000003BE50D14530B26000065250F04A702B2
:1033100014B0022455123F00004D86103800005FA3
:10332000000051530B24D802041C081556093D67B0
:1033300014410D164EC0060C22080500004D000079
:103340003FB301160000514A02188402388C084429
:103350000C0A347F160C000043D1040C00004D0011
:10336000001300004D9B121E580938000041000058
:103370004D22084B00004D000015B904517C0E266B
:10338000540F1400004D530B262208150000510065
:10339000003D320324F0130CD30B5A00004D000003
:1033A0001100004900000900003122082D570315C3
:1033B000B9041C910339D90841000051BD063E846F
:1033C00002620000053A023E22084C00006500003F
:1033D00035FD0638B30156A60E48D7122600001157
:1033E000530216A60E1122080977160CB00B397677
:1033F0000C4A9A122F000049A50B56861018BD06DC
:103400003084025A810931000053C80A500C11154A
:1034100000004D220807000005E50D155709095069
:10342000062600001122004A7F160C25114A0000D2
:1034300065A60E4A00004D22085522083DDC0A0808
:10344000FD1215580B24ED1034F90066A60E50A697
:103450000E1A66091E000055571316A60E0E4B08CD
:103460004C00001D220851000069CE145DE8016186
:10347000220840F00805AF0B0DBD0810B413156C01
:1034800014251707314900347E0139F9054407082E
:103490004927025B000005000015C7142DBD065624
:1034A000770C3E000005E50D15240F420C07044380
:1034B00015142F14243B013CF40055D3095C140C63
:1034C000670000054C155300004D26103E000021FA
:1034D0003A0605C40E15D60424570F3D2F0348EBBA
:1034E0000454C80A67BD0614B30B21C80A50000073
:1034F000057E143E0000057C1424A60E48B9043253
:103500000000158402248609335D14140000250090
:103510000053B5083E000051000035000063B904B7
:1035200020530234A70A043A05143B132485063CB1
:10353000580254781466B5114E00004D000065D74E
:103540001216540F1600001122080984024877163B
:103550000CA50B358D151C84042D5B06391F0855F1
:103560004C0B5F000021A60E3279105200004D0076
:103570000005220815D7123CC80A119F0124BD0678
:1035800066610A05140B080502145B0720840230EB
:1035900000003D2A025422086500004DF0134A7EC7
:1035A000140400004D8402260000052208150B10AB
:1035B0002575062880133E861014FB05517D0030CA
:1035C000831239430B4A320324861014000067002B
:1035D000004DF0133888110C000051220813B90473
:1035E0000C00006100001B22082100001100006592
:1035F00000005D00006922084DCF0104C3060C6E77
:103600000D155300248A09306D04354C1039E50D31
:103610003C700E49E213514D105700003D490F1EFA
:10362000000005000015B6052D8D0A48590953E51F
:103630000D15BD0604930B26000005000015BD0600
:103640003E0000117E1404B30B4A22081112000937
:103650005300048005158610199B0C1DC00A3017F5
:103660000B39120D41C806487C004D030051960AE3
:1036700058BE066A000011000015220865FA0F09FD
:10368000190B0DBD062400005D00006122084158A1
:10369000011D791631830234AF04395A06482A0ACB
:1036A0004C300351300257B9044D00002D3203163F
:1036B0004B0850BD0B043D0E14F015242B0E3C920C
:1036C0000F56D70C14130B3E5809208402143203F2
:1036D0002422083E000051DB053800006500001977
:1036E00000002D5C091522084F421051C9140451E5
:1036F00010152F131D331524C40130CF1538241293
:1037000048E10E4C890563E10D155C123CBD0626AF
:103710004D101500001D2208118C0844A60E080D3E
:10372000162CF9030CFA1218851024F712308F09A1
:1037300035A6123931153DBB10415E094929094CA6
:103740008B08510803544F0860B11367000015FA45
:1037500004110000658C0A3300005100002D0000A8
:1037600015000065530B26000011220809B1120C48
:10377000C1091415061D2114304C12344F0A399B0F
:10378000004912074C750D52000015000035A60EB9
:103790004A00004DA60E1622082DA60E14CE1411B6
:1037A00049063200004D000015000039520E247DFC
:1037B00013513C0F68C0064A00005184020CB51139
:1037C000320C044E00004D000011A60E516206336B
:1037D0004B081C000051FA0411A60E4984024384D0
:1037E00002147D1510520E3EB90420000061AE088F
:1037F000044A0D099C120C8B0311150914D60718E5
:10380000D90C1DE60424AC122C1D0231E212340E38
:1038100016395E143DBF0E413D0049F3044DFA05D3
:10382000514B02542312587D0C5D230F6500006B31
:1038300084024C54060C8B0148220815530B2600B9
:103840000015320324000031F0133E000039220835
:103850005100002F00004D0000250000570000051A
:10386000000051FA041100001500003D000033E58E
:103870000D153C0F36FA044BD71254E70604DD0150
:10388000149508244A103E251117000015CE09068C
:1038900000001522084C190B0D580950861004C35E
:1038A000014179013C2510487E145F0000090000A9
:1038B0001913073B00005159003CBC134F00004D49
:1038C0000000257E143DB90411980105050A170072
:1038D0000015000031A60E505809106305277F041B
:1038E000170000090000658402589D10241A054C39
:1038F000A0105300001122085D150914C1093015EC
:10390000093A51024C00005100004B2208312208B4
:1039100013220825CD021600004D00000F58090C97
:10392000120009D71215F013190C084832032400AD
:10393000003B220050160216840214840248120032
:1039400032000031270C0600004D58090C22083DBA
:10395000FA041526132643110A000015490F0A2FF1
:103960000C3800005100001F000049E50D32190C11
:1039700014BE080600000500001DC80A41DF103013
:10398000D70237000031B9046A8B082C7005320069
:10399000000558092F861024DD102100001522088B
:1039A0002F22082DEC1031561314A71526B50F0A37
:1039B000D7123CD7121600004DBD06249B124200C0
:1039C000002122085D4B084D210008770D0C120DD7
:1039D00011990618EC031D2F0A255809290C0C2CE7
:1039E0007A05309913359F00395D0141B81448C2FA
:1039F000145189106700003D89080C490F0A000026
:103A00004D58095322081584020CB90450B21224EF
:103A100046023057136400004D22085422083F4BE1
:103A2000080C12002C150038DB053D00005FE50D89
:103A30004800000900006500001F0F002D00004D28
:103A4000BD060684023086101600000522082D6689
:103A50000920010F3F7B0204920414A514240704DB
:103A60003C140E54F9026600006584023800004DD3
:103A700000001500001FF90424000065E50D170083
:103A8000081900004D000053C8152F59003C53027F
:103A9000560000494A151C000031E50D3A490F084F
:103AA000E9063CC80A34A60E43861018000015B576
:103AB000083A00004D000025000067000025B90409
:103AC0004100001500003F00003D580926E50D1596
:103AD000530B24910331FB003BBE0804E90D262261
:103AE0000815920A38D40712000021D60824A4151C
:103AF0004D2208158C084684026800004B00004DDA
:103B0000220854220048000015C80A0ADA031600E9
:103B100000212208547E143CB7046600000584028C
:103B200009770C152F0C24FD0535FA044300004DD0
:103B30002208540000058402322208150D164F8613
:103B4000103C840232CE152200003977164AC8157F
:103B50005D00004D00001122084B220831000005D5
:103B600000001500005100005777163E95124800DE
:103B7000004DD71216000015C6143300004D00008A
:103B80001D000039BF0510EB0F2FF80E04FA0E26AA
:103B900000005522082D190C1AF0131600004D00D4
:103BA000000500003D000065050D16AA073FBD0693
:103BB00014B904307E140522084D320009E9152598
:103BC0007F16381804415A0C4BC80A1081053F0073
:103BD000004D840230000015690553220849000099
:103BE000390000110000374B084D8402522208159D
:103BF00000005100000922081DFA045F1B03148411
:103C00000212000005290A1C8402260000655900E2
:103C1000147D004C0D165600004D000019C81541CA
:103C2000490F0AEB0F42FB00612208097E1414843D
:103C3000022C25111860040D560111250A1D7D0264
:103C4000312915355A0E3867164995134DC006525D
:103C500000004D000051530B24220814C10930FD0F
:103C6000063B000031A60E5086104C2208130000BF
:103C700005000015F0133E530254000063BD0630EA
:103C800022084E00004D000021D71206000005005A
:103C9000001500003D22080900006500003B0000FF
:103CA0003100004D00001100003900003700001500
:103CB000BD0606CB0F3EF01348240F143B15245AC3
:103CC000073E58093E2C0904930314FC0F204711AA
:103CD00024C20830CA0D38E5093C330248A0075415
:103CE000CD0066000015C80A1CC4153D00004D003B
:103CF00000657E14062208150000330000518A0D6D
:103D0000399D071700004D00003D000039000031CB
:103D1000A60E48A60E09FE0615470037000031849E
:103D2000024A21030400003D861026BA050C00005B
:103D3000497E142600003DA60E53D71254A60E4B02
:103D40000000257E1414CE020400004300004D53F1
:103D50000004B3125600001500003500001B0000DF
:103D60003984024B22082DF0130C580914A60E2199
:103D70002208418D044DEE135627140434051460B7
:103D80000F24730A3C1A045600004D530B247E1472
:103D90003F00004D00002D220841220811CE1435AD
:103DA00022083100004900003B7E143C5713166383
:103DB0000F0E8A030CDD122F58091C4A0005580902
:103DC00009431110A60B155809189906240F0C3138
:103DD000920A34BC123CD70A41B9044D42105153E7
:103DE00002544B095AD7123C000005BD0626220892
:103DF00054960905010F0C100B11361015D5101C27
:103E0000E013256B14307606380A073CCF0E4C556C
:103E10000751CB0367000031F01336E50D24000095
:103E200005E50D17280005321314161124E40D3E84
:103E3000000015290A1C84022618041500000558E4
:103E4000094A8A03580000278B0811961332130B76
:103E500006190C146A005422083F0000397200044D
:103E6000A90534000015000043530B246F091763A4
:103E70000524D71214A60E4A00004D84021CEB0F35
:103E800034C80A3A7110047511140B052455143CFA
:103E9000821454B301670000512E130405021571FA
:103EA0000A2600003184021066096200004DE50D0B
:103EB000148402267C1427000011000015F013382A
:103EC000B904519A0A2600004D000039000019A6D5
:103ED0000E49000041490F53881118D60A20C80A1C
:103EE00033E50D1400004DD7120600003584021092
:103EF00022085D84022C370A0981140CF20C1D473C
:103F0000044BD712148402418F0B4D000009220884
:103F1000538C08444B093B0000657E143E7E1424FC
:103F2000840216220815D712042200365E1604FAFF
:103F30000A08D1070C1D0510C80114AE1218F609A5
:103F40001C970D249C0128D1042C76033095103445
:103F500049053859003C7111401406445015483D3C
:103F6000154CA10A50270954861158630F5C2A0684
:103F700060E60D66000011000041840258A50B3474
:103F8000C1093000001D00005700004186100E22BC
:103F9000084158031412142DEC103100004D00009C
:103FA0005100003BD10420EA0352840230BD0604D4
:103FB000441216D1041C22080600004D2208198B59
:103FC000086ABB032400004D00001500003FC6092D
:103FD000102D0F3B00002DF90204F9023E4B085052
:103FE00022080D21033C3F124C58093A440A310083
:103FF000003B240F4E00003D9B122F00001DD712E6
:104000001562120CAF124CE00852000021000009AA
:10401000000061BD063000004169000468160D68AB
:104020001611E2151D2F0F24910A35C20A385A09BC
:1040300049B00B4DF511514411545B0C59F9075D12
:10404000460A658B086A3A0206000015FB0533E54F
:104050000D04FA041700004D000021000005BD0604
:10406000142F0B5300005122081D1F10396E0543F9
:104070000000153C0F34860506DB0539DB0550775B
:10408000160E00001D7E1404000019E90148C80A3C
:104090005A8C083A89083E000051E8014FE50D1599
:1040A00063052600004D000005000051000065E595
:1040B0000D15B9041DB9042DDC0B3A00004D7E141A
:1040C00004D71215E501528402240502160000658A
:1040D000A60E330A0357E50D158C1526220851004C
:1040E000004DE50D16000061000069090F041D0D6B
:1040F000090F0D0DA10811391615FF1519FB091D22
:10410000C500250008281B1130A50535BF1538DB73
:104110000741260348AB084D0100518D015966093E
:104120005EC0064C91032F00004DE50D157D09334F
:104130000000653A023F000624430F4A7E14240023
:10414000002DD71215FA042300001100002D0000E5
:10415000416106333012058012097F160CAB121133
:10416000290A1DB90420F81130DA0C38910C3D658C
:10417000054859084DA01451260654CD1258FB008D
:104180006142106500005D000041930B24C30936B5
:10419000000015010F26580930A60E4000003B0014
:1041A000005186105600004D000015000065A60E57
:1041B0003822081D00005186100E00004D0000211D
:1041C00000000984025084020C00006500002D22CA
:1041D000085D000041B90411251118B9041D1D0323
:1041E00031F713357A0239DA0848321454E70E6A87
:1041F000E2031700002500005100000D000035000B
:10420000002D000041580917000035000051000042
:10421000390000330000210000052208150000517C
:10422000D9085422082F000015B9041E8402382230
:104230000851220814C80A2C07124F8402170000E4
:104240001122084C84023422085D060314490F3EF3
:10425000090254861022660933A60E30000067B9A1
:10426000042C22003B00000586104DB9041D5D148E
:1042700015FB05395E043CFC0849D50256000015C3
:10428000A50B048A033453023CCC0153000065A6FD
:104290000E1700004D00001560060E0000490000DA
:1042A00035000039000011000033000021B904106E
:1042B0008402582511184F0B0858080D1F0815E9DE
:1042C000131D530124E61431CB1435410739FA028A
:1042D0003C84024051064938034D060651E0105413
:1042E00075055DEB0F66000051241019A60E06221D
:1042F000080900003700001D861018840211C1094A
:1043000030251114E50D39810753F3080800004DDD
:1043100022085700004D220815B9043A0000057E16
:104320001427EB02047C1114F401240C1330D5156E
:104330003C9901560000158402507F16062208544D
:10434000320324000041220811220839271304B83F
:104350000E09700014E9071C58094EC80A2D810F78
:1043600017000025220816B9043732030700003D64
:10437000C8021700003D57131722086584022CB8A5
:104380000B04DB010930010CD70315DC1019E10423
:104390001C980A248D0D311D0034AA0439FC1541E6
:1043A000B11148F0134C040650B10D59CE145D28DC
:1043B0000A6300003D3A0214C80A116F0624840201
:1043C00053000039861056FB043AA50B54580316C7
:1043D00086104C220851F106337E143C22085346C5
:1043E0001653840205240F51C7033CFA0F540000F2
:1043F000117E142622081500001D000061E8010C42
:10440000480A24290730060034440048620F5053FC
:1044100012660000314B084EDE0C4A010F3E2208A6
:1044200005F80D0C0D16230000510000110000319D
:1044300000004D84023A861015000055FA132486B8
:10444000053C6D0153000009000035251118F013DB
:104450004C9E140CAE0610630E1C9609319C02385B
:104460004700410D0B510D166300004D86103C6353
:10447000055600004D270C145713249E03309D034E
:104480003CBE0854000051A60E4AA60E300000396A
:10449000000019000041490F1EC703302208170011
:1044A000004D00006558091C32032522082D3403F5
:1044B0000C900C101C1615691239B90450160C5AC0
:1044C00049064800002D22080D0000110000674336
:1044D0000F34860951530B24D71217000065530B74
:1044E00024D71217000031F0132C0A0356000015D0
:1044F0000000652C012562063300004D0000150008
:10450000003D000065A60E2200001100001500000D
:10451000356F1308A00833000015000009BE083AE3
:1045200000004D22083100001100001922082DFC66
:1045300012080D165A00002122081500002D9103C3
:10454000534B082FE50D150000210000675A002687
:104550008715097F100CF508113B0B18530F20C667
:104560000A24DF0530361335081039830349030B5D
:104570004D1E13515A106500001DA60E3E22082143
:10458000530B24EC102D4F153C4D10150000670007
:104590000055840258490F1C3315491F004C000078
:1045A000514B080E000049A60E525B074800004D13
:1045B00000001500006700003DC80A50E0041831F3
:1045C00003241505651E0716000015DB055221039F
:1045D0004A1F0805EE133E22000800002FA50B1607
:1045E000220851A60E311509049D023C58094F229C
:1045F000005022082FD30B1A5E0802006F2E1124E0
:104600001FBECFEFDAE0DEBFCDBF11E0A0E0B1E02A
:10461000E4EFFCE602C005900D92A23EB107D9F787
:1046200027E0A2EEB1E001C01D92AE3BB207E1F778
:1046300012E2CFEFD2E204C02197FE010E9462365F
:10464000CE3FD107C9F70E94AD2E0C9478360C945A
:1046500000009F92AF92BF92CF92DF92EF92FF92B3
:104660000F931F93CF93DF93F9017C01E00EF11CB0
:104670001E141F040CF069C0803891050CF065C051
:104680009B01295F3F4F2734310508F05EC0382F6A
:10469000319597FF30E0DB0123E0B595A7952A958A
:1046A000E1F7B695BA2FAA27B795A795A30FB11D25
:1046B00037FDBA95A80FB91FC62FC77020E8E216BC
:1046C000F10414F000E8081B8C2F0C2E02C0EE0F32
:1046D000FF1F0A94E2F7DE2FDE2ED094CF2E9F2EFE
:1046E0009094A85DBD4F10E0E32F032E000CFF0B4C
:1046F000E017F10754F5E40FF51FE491F0E05F01D6
:10470000082E02C0AA0CBB1C0A94E2F760347105A3
:1047100030F4FC90FD20ED2EEA20FE28FC92CC2304
:1047200089F06833710574F47D01E0E8EE0EF11C48
:10473000F7012081E22FE921FB2DFC212E2F2F2BC9
:10474000F70120833F5F1196CFCFDF91CF911F916B
:104750000F91FF90EF90DF90CF90BF90AF909F9020
:10476000089580E0E8E2F2E081118FEF0024819368
:104770008193819381930394D1F708959091B50724
:10478000982329F49091B407982381E009F480E0FC
:104790000895FC0180912302882311F13FB7F8941A
:1047A00082E08093E9002091F200822F90E01816B9
:1047B000190614F481E090E0882339F0289844E643
:1047C000409322024091F1004083222339F020914E
:1047D000F200211103C02BE62093E8003FBF0895AB
:1047E0008FEF9FEF08952FB7F89483E08093E9004F
:1047F0009091E800892F807295FF04C09091F2009B
:1048000080E4891B2FBF089580911A0281110DC089
:1048100082E08093160284E08093170210921902BE
:104820001092180281E080931A0286E192E00895C6
:10483000CF93DF931F92CDB7DEB76983DC01ED9193
:10484000FC910280F381E02D41E050E0BE016F5FFA
:104850007F4F09950F90DF91CF91089583E080936A
:10486000E9008091F200882319F08AE38093E80040
:1048700008950E94F32390E00895CF93DF931F9251
:10488000CDB7DEB7FC018485958597FD08C02FEF75
:104890003FEF358724870F90DF91CF910895CE01A8
:1048A00001960E94C923019719F4898190E0F3CF02
:1048B0008FEF9FEFF0CF0F931F93CF93DF931F9254
:1048C000CDB7DEB78C01FC018485958597FF0BC0C1
:1048D000CE0101960E94C923019771F4898190E06D
:1048E000F80195878487F801848595850F90DF917D
:1048F000CF911F910F9108958FEF9FEFF1CFFC01A2
:104900008485958597FD0BC09FB7F89482E08093CE
:10491000E9008091F2009FBF90E0019608959FB753
:10492000F89482E08093E9008091F2009FBF90E0CC
:104930000895409110025091110220910E02309181
:104940000F0242175307B4F49091E8009570E1F319
:104950009091E80092FD19C08093F10080911002BF
:104960009091110201968F739927892B19F48EEF7C
:104970008093E8008091100290911102019690932B
:1049800011028093100281E0089580E00895EF9273
:10499000FF920F931F93CF93DF93F82E192FE62EDC
:1049A000042F81E0860F880F0E94992483E00E94E3
:1049B0009924CF2DD12FEC0EFD2EF11CCE15DF0545
:1049C000B9F007FF13C0FE0184910E949924182FAB
:1049D00080E00E949924812321968111EFCFDF91FD
:1049E000CF911F910F91FF90EF9008958881EDCFA7
:1049F00081E0F5CFDF92EF92FF920F931F93CF9359
:104A0000DF93D82E8A01EB017B01E40EF51ECE1553
:104A1000DF0559F0D7FE12C0FE0184910E9499244F
:104A200021968111F4CF0FEF1FEFC801DF91CF91D5
:104A30001F910F91FF90EF90DF9008958881EECF46
:104A40000F931F93CF93DF931F92CDB7DEB782E012
:104A5000898342E450E060E072E080E80E94FA243A
:104A60000E940424DC0112960D911C910115110580
:104A700089F0D801ED91FC910280F381E02DBE0117
:104A80006F5F7F4FC801099597FD04C0F80100854D
:104A90001185ECCF89810F90DF91CF911F910F91FC
:104AA0000895615030F02091F100FC0120830196BF
:104AB000F8CF289884E68093220208953FB7F894AF
:104AC0008091E7019091E801A091E901B091EA019C
:104AD00026B5A89B05C02F3F19F00196A11DB11D59
:104AE0003FBFBA2FA92F982F8827BC01CD01620F95
:104AF000711D811D911D42E0660F771F881F991F50
:104B00004A95D1F708958F929F92AF92BF92CF921C
:104B1000DF92EF92FF926B017C010E945E254B01B8
:104B20005C01C114D104E104F104B9F00E945E25D6
:104B3000681979098A099B09683E734081059105C6
:104B400080F321E0C21AD108E108F10888EE880E4E
:104B500083E0981EA11CB11CE4CFFF90EF90DF9082
:104B6000CF90BF90AF909F908F90089565E070E0D8
:104B700080E090E00C9483258F929F92AF92BF9239
:104B8000CF92DF92EF92FF920F931F93CF93DF9319
:104B90006C017B018A0180910B01882309F45CC0C0
:104BA00080912302882309F457C08091150280FF69
:104BB00005C08091E00082608093E000E801B12CA4
:104BC0008AEFA82E93E0892E2AE3922E209711F4E3
:104BD000BB20D9F10E94F32381110AC0AA94AA2014
:104BE000D9F161E070E080E090E00E948325EECF93
:104BF0008C171D0611F00CF08C2F9FB7F894809243
:104C0000E9002091E80025FD02C09FBFDFCF282FDB
:104C100030E0C21BD30BF701815020F0419140934B
:104C2000F100FACFE20EF31EBB2021F09092E800D3
:104C3000B12CEBCF8091E80085FDE7CF9092E800A2
:104C4000BB24B394209709F3F3CF5D9884E6809357
:104C50001402101611063CF081E090E0F6019383F7
:104C6000828310E000E0C801DF91CF911F910F9186
:104C7000FF90EF90DF90CF90BF90AF909F908F907C
:104C8000089580389105B8F460347105A0F420E1EE
:104C900091E061FD94E060FD990F62FD9295687F5F
:104CA000269FD0011124A80FA85DBD4F8C914423ED
:104CB00019F0892B8C93089590958923FBCFCF937E
:104CC000DF93D0E0C0E041E0BE018CE490E00E94C0
:104CD00041262196C432D105B1F7E4EFF2E095E325
:104CE000915059F4E4E7F4E095E3915061F081913B
:104CF000DF01119780618C93F8CF8191DF011197CB
:104D000080628C93EDCFC2E3D0E041E0BE018CE441
:104D100090E00E9441262196C034D105B1F7E4E726
:104D2000F5E095E3915031F08191DF0111978460B6
:104D30008C93F8CFDF91CF91089508958F929F9231
:104D4000AF92BF92FF920F931F93CF93DF93EC012B
:104D500077FF0AC070956095509541955F4F6F4FF2
:104D60007F4F8DE288832196F12C9AE0892E912C39
:104D7000A12CB12CAF2DB0E08E010A0F1B1F4115E5
:104D8000510561057105E9F4BD017595679580E0F0
:104D9000282F30E02617370724F5AE01420F531FA6
:104DA000FA019081FD01E21BF30B31975F01AC0E1C
:104DB000BD1EF5012081FA012083F50190838F5FEC
:104DC000E7CFCB01BA01A50194010E94D735942FFA
:104DD000852F605DF8016083F394A901692F782F16
:104DE000C9CFF8011082CE01DF91CF911F910F91B1
:104DF000FF90BF90AF909F908F900895CF92DF92D9
:104E0000EF92FF920F931F93CF93DF93EC017B01FF
:104E100015E06A0185E0C80ED11CF70141917F01C0
:104E20004423D1F04032B1F040544102A00111249A
:104E300044595E4F6D857E8505E02FEF30E08B8510
:104E40009C850E9429238B859C858C0D9D1D9C87AC
:104E50008B87E3CF40E0E9CFDF91CF911F910F9196
:104E6000FF90EF90DF90CF900895EF92FF920F9315
:104E70001F93CF93DF93EC017B0113E0F701419186
:104E80007F014423A9F040524102A001112444555E
:104E90005F4F6D857E8503E02FE330E08B859C8539
:104EA0000E9429238B859C8504969C878B87E6CF5F
:104EB000DF91CF911F910F91FF90EF9008954F9246
:104EC0005F926F927F928F929F92AF92BF92CF929A
:104ED000DF92EF92FF920F931F93CF93DF93CDB7A3
:104EE000DEB728970FB6F894DEBF0FBECDBF2B01FB
:104EF0003C0149015A0180918C0790918D072EE465
:104F000030E0FC013487238701E010E01687058735
:104F10006EE571E00E943527E0908C07F0908D07D8
:104F200086E690E0F70194878387168705878E01D0
:104F30000F5F1F4F411451046104710409F049C00F
:104F400080E389831A82C801BC01C7010E9435270A
:104F500080918C0790918D072EE430E0FC0134871E
:104F6000238727E0C22ED12CD686C58665E671E060
:104F70000E943527E0908C07F0908D0786E690E040
:104F8000F70194878387D686C58681149104A1048E
:104F9000B10429F580E389831A82C801BC01C701E5
:104FA0000E94352728960FB6F894DEBF0FBECDBFFE
:104FB000DF91CF911F910F91FF90EF90DF90CF90F5
:104FC000BF90AF909F908F907F906F905F904F9029
:104FD0000895B301A201C8010E949E26B5CFB50174
:104FE000A401C8010E949E26D9CF2F923F924F92D2
:104FF0005F926F927F928F929F92AF92BF92CF9269
:10500000DF92EF92FF920F931F93CF93DF9300D025
:1050100000D000D0CDB7DEB75E834D83B02EA12E79
:10502000922E832E9B012B583D4F1901C02ED12E5D
:10503000E92CF82CCA018658984F9A838983DA01A3
:105040001196BC83AB83F1014590559065907490A7
:10505000862D8C77E9F0E62D062C000CFF0BF595DC
:10506000E795F595E795AFEFAE0F0A2E000CBB0B59
:10507000A45DBE4FAC91B0E02B2D3A2D492D582D9B
:105080000E94F6356B017C01E05CA981BA81EC934A
:1050900060FE0AC08091820790918307813091055C
:1050A000A9F0029709F463C0C201892B09F087C0F7
:1050B000F3E02F0E311C61FEC6CF2D813E812658B4
:1050C000384FD9011C9281E090E038C0ED81FE811B
:1050D000359751F7809188079091890701969093B1
:1050E00089078093880740918407509185076091D4
:1050F0008607709187074F3F51056105710561F47F
:1051000020918A0730918B07281739076CF6909306
:105110008B0780938A07C8CF092E000CAA0BBB0B04
:10512000481759076A077B0709F0BECF6AE777E09F
:1051300088E796E00E94713690E080E026960FB6F0
:10514000F894DEBF0FBECDBFDF91CF911F910F91BD
:10515000FF90EF90DF90CF90BF90AF909F908F9097
:105160007F906F905F904F903F902F900895609147
:105170008407709185078091860790918707960133
:10518000A7010E940936672B682B692B09F08CCF89
:1051900080917807909179079C012F5F3F4F309362
:1051A00079072093780733E0880F991F3A95E1F744
:1051B0006AE777E08858994F0E94713675CFB2013F
:1051C000660F771F640D751D90E080E086019701E2
:1051D0004B815C810E94F527009709F069CFAECF23
:1051E0000F931F931092890710928807E8EFF5E458
:1051F00085919491BC01660F771F680F791F90E02D
:1052000080E001E010E020E030E050E040E00E946B
:10521000F5271F910F9108952F923F924F925F9221
:105220006F927F928F929F92AF92BF92CF92DF92B6
:10523000EF92FF920F931F93CF93DF93CDB7DEB71B
:1052400028970FB6F894DEBF0FBECDBF88E0ECE61E
:10525000F1E0DE01119601900D928A95E1F7CC24E0
:10526000C394D12CF12CE12C4AE0442E512C56E071
:10527000352E6FE3262E66246394712CE0918E0701
:10528000F0918F07DF01B3958D919C91E816F90697
:105290000CF07AC0C70123E0880F991F2A95E1F727
:1052A000E80FF91FDF010D900020E9F711978D013C
:1052B0000E1B1F0B20918C0730918D07C701B20187
:1052C0000E943A365C01D9011C96DC92CE921B9763
:1052D0003A9CC0013B9C900D112401961E969C9314
:1052E0008E931D97B0E1EB16F10474F54091240202
:1052F00050912502C3010E2C02C0880F991F0A94F9
:10530000E2F784239523892B69F1BF01C9010E942B
:105310003527E0918E07F0918F07F3958081918179
:10532000F9E0AF16B10461F40197E816F90644F408
:10533000000F111F000F111F0B5F1F4FC00ED11E5A
:105340002FEFE21AF20A9ACFC7014097A30102C0D9
:10535000440F551F8A95E2F7CA01409126025091E9
:105360002702CFCF88248394912C8C0E9D1E800E13
:10537000911ED4011C92BE016F5F7F4FC9010E9434
:105380003527F4012082C5CF28960FB6F894DEBFEA
:105390000FBECDBFDF91CF911F910F91FF90EF9086
:1053A000DF90CF90BF90AF909F908F907F906F9045
:1053B0005F904F903F902F9008958F929F92AF9261
:1053C000BF92CF92DF92EF92FF92CF93DF93CCE028
:1053D000D0E086E0C82ED12CE12CF12C0E9469355A
:1053E000A70196010E94D7354B010E946935A7019C
:1053F00096010E94D735D401A856B84F2C91FB01D5
:10540000E856F84F80818C932083219739F7DF91FC
:10541000CF91FF90EF90DF90CF90BF90AF909F9093
:105420008F9008959F92AF92BF92CF92DF92EF92AA
:10543000FF920F931F93CF93DF935C017B018B014E
:10544000D0E0C0E0F80191908F016501CC0EDD1E27
:10545000C6010E94C135981621F0692DC6010E942F
:10546000C9352196C430D10569F7C701DF91CF91C5
:105470001F910F91FF90EF90DF90CF90BF90AF9072
:105480009F900895CF92DF92EF92FF920F931F9318
:10549000CF93DF93EB017B0124E0E20EF11C8B0143
:1054A0006C01C61AD70AC601800F911F0E94C13530
:1054B000F80181938F01EE15FF05A9F7CE01DF9169
:1054C000CF911F910F91FF90EF90DF90CF900895B3
:1054D000CF92DF92EF92FF920F931F93CF93DF93C0
:1054E000C0908A07D0908B0781E0C81AD1080D2C94
:1054F000000CEE08FF0892E0C916D104E104F104A3
:105500000CF448C00E946935A70196012150310969
:10551000410951090E94D735DC01CB010196A11D3B
:10552000B11D21E030E03093830720938207809300
:10553000840790938507A0938607B09387071092FE
:105540007A0710927B0710927C0710927D071092C9
:105550007E0710927F0710928007109281071092A9
:105560007907109278070E94F028C8E7D6E021E07A
:1055700030E040E050E0E991EE2389F00E2E000C7F
:10558000FF0BE551FF4FA081B0E00E94F6359B0173
:10559000AC01F1CF81E090E0A0E0B0E0C2CF209379
:1055A000E2013093E3014093E4015093E50168E7A1
:1055B00076E088E997E00E9471361092AA0710926F
:1055C000A9071092A8071092A0071092AE07109298
:1055D000AD070E94DD298091E2019091E301A09145
:1055E000E401B091E50122E030E03093830720939D
:1055F00082078093840790938507A0938607B093D2
:10560000870710927A0710927B0710927C071092FE
:105610007D0710927E0710927F07109280071092EC
:10562000810710927907109278070E94F028E09085
:1056300078070E2C000CFF0881E0E81AF10881E0E1
:105640008E0D1816D4F5D12CCD2D0D2C000CDD0BA4
:10565000CE15DF058CF783E0CC0FDD1F8A95E1F7CF
:105660008E010858194FC058D94FF80101900020F9
:10567000E9F731978E2F801BFE0101900020E9F79A
:105680003197EC1BE8174CF08E1315C0BE01C80112
:105690000E9468361816190674F4F801C8010896B5
:1056A00021913991DF0111973C93DE0111972C93E1
:1056B0008E179F07A9F7D394C7CF10922502109297
:1056C000240210922702109226021092F4011092E6
:1056D000F5011092F6011092F7011092F3018FE09C
:1056E00097E2A0E0B0E08093000290930102A093C3
:1056F0000202B0930302DF91CF911F910F91FF90AF
:10570000EF90DF90CF9008951F920F920FB60F92F7
:1057100011248F939F938091E1009091E100937FFA
:105720009093E10083FF0FC01092E90091E0909305
:10573000EB001092EC0092E39093ED0010922302A4
:1057400098E09093F00082FF22C093E09093E900EC
:105750009091F200992319F09AE39093E8009091C8
:105760001402992341F090911402915090931402E5
:10577000911101C05D9A90912202992341F090917C
:105780002202915090932202911101C0289A84FF25
:1057900018C08091E2008E7E81608093E20080914B
:1057A000E1008F7E8093E100809115028E7E806102
:1057B000809315029F918F910F900FBE0F901F90B5
:1057C000189580FFF7CF8091E2008E7E80618093F4
:1057D000E2008091E1008E7E8093E10080911502CD
:1057E0008E7E8160E5CF1F920F920FB60F9211242B
:1057F000CF92DF92EF92FF920F931F932F933F93DD
:105800004F935F936F937F938F939F93AF93BF93C8
:10581000EF93FF93CF93DF93CDB7DEB76C97DEBFE7
:10582000CDBF1092E9008091E80083FF25C068E0B9
:10583000CE0145960E94512582EF8093E8008D8924
:1058400087FF39C09091E80090FFFCCF982F9076A9
:1058500009F034C19E894F89588D2F89F88C911198
:1058600031C0803861F5809113028093F10010926D
:10587000F1008EEF8093E8006C960FB6F894DEBFCF
:105880000FBECDBFDF91CF91FF91EF91BF91AF914F
:105890009F918F917F916F915F914F913F912F9148
:1058A0001F910F91FF90EF90DF90CF900F900FBE60
:1058B0000F901F9018959EEF9093E800C7CF10921D
:1058C000F100D5CF913059F48111D3CF413051053A
:1058D00081F6809113028D7F80931302CACF93309B
:1058E00049F48111C6CF4130510519F68091130258
:1058F0008260F2CF953041F48091E80080FFFCCFC8
:1059000020682093E300B5CF963009F0A9C00B8D35
:105910001C8D22E01092E9001092110210921002E8
:10592000F2122EC010920F0210920E020E94202539
:105930001F8299E09983FA8291E09E8390EA98878A
:105940009AEF99872091100230911102275F3F4F03
:105950003C832B838D831092E900109211021092E8
:10596000100210930F0200930E0249E050E0BE01B6
:105970006F5F7F4F80E00E94FA240E94202579CF3C
:1059800010930F0200930E020E940424DC01129671
:105990000D911C910115110509F451C1D801ED912A
:1059A000FC910480F581E02DBE016B5E7F4FC80144
:1059B0000995009709F03EC1F80100851185EACFED
:1059C000F3E0FF120EC08F89882309F440C08230B3
:1059D00061F440E860E184E692E00E94C72481110E
:1059E00048CF81E28093EB0047CF813029F440E833
:1059F0006BE088E592E0F1CF833099F70E940424B0
:105A0000DC011296ED90FC908E010F5F1F4F680134
:105A1000E114F10479F0D701ED91FC910680F78152
:105A2000E02DB801C7010995080F111DF701E084A9
:105A3000F184EECFD8011C92F60101900020E9F725
:105A40003197BF016C197D0940E0C601C6CF62E401
:105A500072E0FB01449150E080E80E94FA2409CFF3
:105A6000973009F4BECF983021F481E08093F100A3
:105A700000CF993009F0FDCE837009F0B2CFE6E295
:105A8000F1E081E031E096E32191222371F08093EF
:105A9000E9003093EB00DF0111972C912093EC008B
:105AA0009093ED008F5F873079F78EE78093EA005F
:105AB0001092EA008F8980932302DBCE8B8D9C8D20
:105AC0001092E900109211021092100290930F02AE
:105AD00080930E02898D811192C08E899D89913AA1
