:100000000C941C270C9444270C9444270C944427EC
:100010000C9444270C9444270C9444270C944427B4
:100020000C9444270C9444270C94492D0C94B82D1F
:100030000C9444270C9444270C9444270C94442794
:100040000C9444270C9444270C9444270C94442784
:100050000C9444270C9444270C9444270C94EA2FC6
:100060000C9444270C9444270C9444270C94442764
:100070000C9444270C9444270C9444270C94442754
:100080000C9444270C9444270C9444270C94442744
:100090000C9444270C9444270C9444270C94442734
:1000A0000C9444270C9444270C94442700F06E21B0
:1000B000A94500D05604AC7700006E019A00BA053D
:1000C0000000000000E0A965001000C0D6684941AA
:1000D0006CD246475A51386444E6D78078F8118686
:1000E00036575295B5A050519D459D553601D701C3
:1000F000BA070000D13000F0000000B0D1C05A585B
:10010000376697D3EF3848426FF7E62053002F0940
:100110000000ADA20040A9057308F3029D0519A8CF
:10012000C1913706BF8200E0A96500706E71F124AD
:100130004B9095942F27A965EBF1F3245B96F788F4
:100140003A657F112ED8CB053007000000009810CB
:1001500026D000003D31C0E05440FA887A85003056
:10016000A3706E01CE504399B126A392E5E0D3016E
:100170003178A4029B65B857A0A1FDA69B52B81484
:1001800015C189529100F350A91520D300909A50BF
:100190009D654483317000000000500186878E56B3
:1001A000E434E6369D85377600507447DD21A1079B
:1001B000CB051416BA058607C1020090C13230572C
:1001C0004C86B5E700009A3000F009010000EB36DC
:1001D000E4776FE303F155801909D701F30019A8FB
:1001E00082970000A9050000B507E3346E61E314AF
:1001F0000010A9D53706C755EBB090338607230901
:10020000E3066E3187F331006E019F01D1080010C3
:100210000030000054001B089A0094319AC0F66721
:100220007047CDC7D7661DC93C86E2530000450420
:100230009A00A9751BE86B68009003A1005000604C
:100240000080A9751B18CED89D0550C28B012B13B9
:100250008FB8F3106E81549053437748B8F786A255
:10026000433425F7D5C3075302A6E3B4005000B0CA
:1002700000901B58000000009A006E91F3A03150CE
:10028000F33200E05440DD2200303D01B171AAF3A9
:100290000470A9905F16D572E452FEA16F70A83267
:1002A000D9B3263900000000A9056E01CB1572579D
:1002B00002B06E81A337D5079E01D10000A0B39094
:1002C000750800002C09A905009000A06E51AFD45C
:1002D0000D1900600000B300FF05A9051B089D056E
:1002E0000000D100000079059A001B083DE12FF5C0
:1002F000D2287A3545F3DE06D2010000000000E086
:1003000000C000306EA17AF760356EA18896C102F8
:100310003D91B8A7F3507B1443C400200000F300C4
:100320000000D1B05450F0248A18F268F8586EE1F9
:10033000A825006000500090F3405251EFE5921163
:10034000D5303F389F4371482C0245251AB8911487
:100350006E81A98530B760746E017200EC089D054E
:1003600000006E01B5076E019D0554005804710030
:1003700000D00030F31008D100C0DD266ED14A98BD
:100380006E5195B80090FE554A0800009D0554C076
:1003900002906E6100900050D14054509A605430E9
:1003A00050A100901B08BDD55490545000400050FF
:1003B000FB056E6100F0CB4588E80CA6DB066B639D
:1003C00023680022009000A0A8506EB1D1101B88B5
:1003D0008246B5638D5673A129C79900F5021B08A3
:1003E000280100009B0500006EC1C1C26717000014
:1003F00076D62228B910005031100000A90500005F
:1004000000106E313027A9F50090301700006E0102
:100410000000F3E0E5660010002050D1001003B1A9
:100420004593D0526E81A935D190DF362493771150
:100430009E052E05F6080080F3D00C441C6805428A
:100440007B389B94C97731501D969BA5315000A0F5
:10045000F267EC54B5626D87C683D10000000000DE
:100460006DD60090A557005000308687D1C059D571
:1004700063345B08E1071B0800E06E6100109AF529
:100480009E475C28CBF72F42D6110030B3009B1556
:1004900037060000A90549F3FDF1E9300BA30090F0
:1004A000C00000A0C6B200505072F9880020A2001F
:1004B000C102B10300D0319031501BD87E9454500A
:1004C00000C054B00020A935C1027017E3E40060F9
:1004D0000010000003019D05A8F05901005076416D
:1004E0000090C112509100A06E51B320CBD5C462D0
:1004F00040492F9300304702000000004A08A5073A
:100500000000008000C03047CF071401B303003063
:10051000B5F700806E011B58D1100000CE33A975CD
:1005200030B700100080930454009D0500C0F3B064
:100530003027F3A0F3B04654025600B0707700B0F5
:1005400050C20050ACF6A4A3B87822239B30549339
:100550006108000054003100F3009C05009000A0E9
:1005600050519D0377075001620800000000880386
:10057000FA08970000B01B18F48150E19D656E11D8
:100580001B081B08E30400E00060AE169FD1F6379D
:100590002312D7519DF51B286934007052606E01FB
:1005A0001C36DB77015076B1594600106ED1000041
:1005B000319000C000401B084D0054060010001090
:1005C0009D95000087020A0600A0D1906707A93513
:1005D00003F11B086E81B403B4677982A6529C8034
:1005E00004A16EC14242D1E2C968381100909A104C
:1005F0006E810000B8079A003D0100006E010060A6
:100600005081AC76000000300070B5070000940106
:10061000000000001D04CF0300006E01F3E0006045
:1006200031109A709334CE61C152B4B83D713FB964
:10063000FD1598800F15C132D3022205000000007D
:1006400095717DD70010A88031D037761B03BD058A
:10065000000000D06EF151561D0500507518A91507
:1006600059D6C102D701B807F3029411793567034F
:100670006EB10020A9859B05300700000000A5078A
:100680006E016E319DF500003007B9751A16A497FA
:100690006AA20050E75000A09A70AFD876370A11CE
:1006A0006E0131006E01004030571B0800E06E61A2
:1006B000B01100106EC13726DAA2A595A905001069
:1006C000CBC50020EBA433C5B65730E18458A985CB
:1006D0006B441853CB05CB05D15000106E010000C0
:1006E0006E016E3100F08803A91587547E22D00177
:1006F000BB067E03F3007E047E046E2188239A806D
:1007000084E71EC56B1437E9E264001094013D01D3
:100710006E01500100000000943130F70000B3007A
:100720006E01670700306E519A6037E65D68DC1134
:1007300054D0003003110000E1046E0100A0D791F5
:1007400086076E01A9C59A005FA531F037566ED1B4
:100750000060E318BEB256B5CC7509C33905095817
:10076000C102C2020C0350016E01000000005001E2
:1007700000003D5100B0B57700406EC100305066BA
:1007800043E6BE059BD300300010A9459A500000F7
:1007900051E0F245B2402D0500006E01D1506EE1EE
:1007A0001B88B6669A52D13013913B29D030A915D7
:1007B000B5D700005834AFF400009D755061F310B8
:1007C0009DD5D1902652D3D01C9594643755ECC05A
:1007D0000281366295D3727600B000C00C5764C1B6
:1007E0001FA36E619524A483D841B8071B786E714E
:1007F000F1D46932D1104F26F5612A11C29650A169
:10080000455400000000B7070060BDE786076EB1E1
:100810000F556E5100009A00B70400607A680030EE
:100820006E419E44A28897E80C08C132B107BF0010
:100830002D080000B3004C040000A975A90500D0E4
:1008400050913855BCE20060F3100080D1409343D2
:100850007C469A50A90552E16EC13F1900909DA5B2
:1008600000500010BF12B7538FD686959D4468057F
:1008700094014E060000A9056E0100A02CB9A357F3
:1008800050D1F3950050302700E0002000B03170C7
:10089000002035010000000000D0EB90D150F9C2DB
:1008A000F4A8C6358DC5C7028495D4E77F639A1036
:1008B000505100B000305E141B3886071D069D05A0
:1008C00000001B380040A945C0D0E7366E1157859F
:1008D000FA9828203E080030007000E00060B5174C
:1008E00065039D056E010060BA933B434C8203D4BF
:1008F0009138009408C1004083530BB4F270D110BA
:100900006E316E01B53332E1F60780E3F560E31333
:10091000583564B3A90579B70040B38324077AD06A
:10092000CB1433C200100030D33200F0000000803E
:1009300000B0F224B030CBC5DC827FB32CC70536C3
:10094000F3A0F3B0D751F3B59D150080FD0200D0A0
:1009500038755001F3006E0130A785B53651653307
:1009600000F06E0154E0D76100107D266E18F01182
:100970006CF342C74B834D331E547610AA12C2212A
:10098000F082289266589F370000BA05D8035200BB
:100990000F05F30000009A000200001000D06E0066
:1009A000D100BE07B5079D356EF1C904E32450019F
:1009B0006E6111E6BA6500109A000000000020D5B3
:1009C000BD320010A9856E810030549000A00070E7
:1009D000A1D28893005000D000900050196500F615
:1009E000BA86ED83FB62C17252216A28C983000076
:1009F000D701BA05CA004702F300310032067C0273
:100A00000050CC4136366EB16E11C984D1A0009031
:100A10003009A78357367D648E03A90500000000C6
:100A2000E30031009A000000540000E0006034133D
:100A300000A050B1A955000000007207CB1526A2F6
:100A40004F30CBC0F13308407EA12C45293069A539
:100A50003190C000C9A4E7B61B585001E800300728
:100A600000B0CD150280BA476E516E01DE038803D7
:100A700000009DE500F01B18D7414A986E116E41A9
:100A8000C2533D01FBA30665A68729B110F28787F3
:100A90009F7619F11F36D19000A0A95554B0703738
:100AA000AF8289484D92BB253A38B0062E696EC197
:100AB00000300010D1000000F30043042C080000B7
:100AC0009AE04264591600A0CBB5D323C9D5823130
:100AD0009A50B5D76EB13386E7F47261A7550673A5
:100AE000DB81FF650202E8013100C0001B08000045
:100AF00003329AF071076F013D017C02D0020000C1
:100B0000FA0886E7C1A2A965AEE600606E1150F151
:100B100069E13016DFE750E1A430F5D5E002E0618D
:100B2000F3B0E9C58751A945F320A8508536C577AC
:100B3000B558AED296B13472EA250E399A903D017D
:100B40001908000086A7C1B27C5250B1C1122C898D
:100B50003473CB857E01E6A4C0624F347A91F8618C
:100B6000A727759600A00050404250911B18000026
:100B70002D58581600B000909A509BE570C774101D
:100B8000B9D83E34C883B1144530A663E418EF32B7
:100B9000000000B0D11554807BF577C6CB25E12647
:100BA00080873080C172CB55BF470BF05A92B7583F
:100BB000C1E0F934D315D38895861500F67029D491
:100BC0005E327D452655F804D03200F00301A99528
:100BD00000A06D586E1100300000A90536033D01DC
:100BE00000000000000000909B75005000506EB1A6
:100BF0005F73790502009D05121901B5332931276C
:100C0000FFD18933A6A0D043884325342BE0FF824F
:100C1000C9F051A1B1680403940106032C763F3951
:100C20005961F3E0F360A5179401000000003FB59F
:100C3000FC6674786A14AED4EF14B23400B0E304E6
:100C4000F3E03160D110A915A9D500009A00000089
:100C5000540000A052B19A500000C102F300A9A5AF
:100C600000B07A7850E1A9C5763144499860798519
:100C7000000000000000000000E0C9743D01BA055A
:100C8000500100608557D26029C86FB65C04FA93A2
:100C900026337715C7F7B0346E91FEA23FB96E5177
:100CA0000000F300F300B898124686806383036562
:100CB000E845E5038433F37095109AD06E01000087
:100CC000CBC1377603E04A0674657A960D60CB7522
:100CD0003D0130575F1183D1EB35692044A004B248
:100CE000C95400B00010E7869BE500609712001021
:100CF000A8306E01A50700000000A9E50060D11032
:100D00000000AE069D0586A76E913D019B459B9513
:100D1000751852110030F3009DE5E364A91500F049
:100D2000C1026301CAC0CB55CD5115B61DE394284D
:100D3000BA1571C54E209A5009A6BA751B38D1F064
:100D4000F30031D0F3B002762B36E3F41B086E01CA
:100D5000C1726E71A503E3347F74F320310000008B
:100D60003104AD066E01CB053AE36E311307CC08B2
:100D7000000000C079480030C6051B083808000094
:100D8000C3072503E9E1A9250000008000A00000B9
:100D90003AB3F125C778FE537C47CF81A9E5C562F8
:100DA0000010D180E7A17502A9751A63A857420007
:100DB000120002003087009000209D6500F0D18075
:100DC000E3746E414722E89000106734F30061033A
:100DD000C405BA056E01360131F0F3F06F509A0088
:100DE0001B083007C2E33D61A9153C073D07000021
:100DF0006E519DB5E373B632BCB82174BA80EEB8BB
:100E00003076E6006E71377666078571557500108D
:100E10006E310106CA10E6D09A003FA946B26E5163
:100E200006E300606E11BF22F4B0F33052634485D4
:100E300085708D0838437E578981C0B8CB85FAB854
:100E4000A91500808BB862151B881B381B08311050
:100E5000D1906EB1AD722D00003000709A00E7069F
:100E600036056E016E016E016E219D056E0131D059
:100E7000A925E3840000C9041B08F3D06E318D134B
:100E800000000000E00700E06E61E9166EE1866791
:100E900088137C025707000000D000C00208A8D3C6
:100EA0002C01001073D500106F09B003A80338009F
:100EB0002C0126080000003002988E260000A803AE
:100EC000A8030A865DA000305DD05289B7161709C5
:100ED0000F00EF0400F0A60500103910D403E0075E
:100EE0000090B193A8330000C00300000A06020876
:100EF000E40890B000A0EB0284E40058088261632B
:100F000064D0B364FAF3D756550508B10529748047
:100F10002CF9EC65D428DC842945CD438023E311EA
:100F20005738B10400000000A8C3A8A3E1000030B6
:100F3000AB7052599487CEA76D30E1F0A6850010B2
:100F40008D11D5B7C03384D45DC01309881867A943
:100F50000C86B1030208B107D2022501CD00260894
:100F60000D01E8028D01D2020000A8034307000032
:100F700038B30A663B900248AF78AF77F7E53B2776
:100F80003152BEA608145A80C81736102F541200CA
:100F9000C5035D00DE83C0A361305D000040914069
:100FA00026080000E100A6F57C63EB82A8D3C0828E
:100FB000001000300AA600402648A803D7226A0184
:100FC0009A0305003B6000E0A8833810C0E30000EE
:100FD00002085709B10257E928865D606C84E2A3D4
:100FE000F238EBF2950873155D3000C0C3445D50D4
:100FF0000C16CC18FB559F02A38816835F74A3368A
:10100000A8438EC668335DE000F0E862AB50A67579
:10101000153900D0008000106F871DA2B132C0F3D7
:10102000A8D30000A8B3CD30A803A80300005D003A
:10103000002000000A862CD600A0BE77EA32838802
:101040009B81E50642D15D5000E04E611C04E1C089
:101050005D7057195D007907740800F00020CD70AD
:1010600015C419965839264010A7CA334115E1F422
:101070003207DB15429433257588C4E400200D0146
:1010800000000000A20835040500008025A9C03337
:101090006D00C008D300CDF08404C0438A813BA01A
:1010A00003315D40B1533A1507F220793F559EB7A1
:1010B00045495C10DA857CA00030C21131E20000A5
:1010C0000AC60020B1130460262834800060A655AB
:1010D000C0130000A803D30500D0EBC2F605CD80F5
:1010E000F0A0A33700C00228A8130CB200800A06A3
:1010F00073C5E1E08474A515E1E0AB00A8B32BA6AD
:1011000032050000000000005DD0E754A106BB914D
:101110006E89063378019A08590700F084D4CD10FF
:101120006100000000005709E804000000D00050F2
:10113000A803613054450070238302A80030FF18D3
:10114000CBE16D005D9000300020F6050A06EB0251
:101150000288D0A2733572609F959B44F496361432
:10116000AB965918DBE3CD00573938730278E100AC
:101170000208840400D000508E005D50DE91AD1353
:101180004731AE110741F2141EB71E24F30845067D
:101190004F070000A8030000162800003880B12285
:1011A0003B00A8835DE05DE0007026D8B1036013CA
:1011B00039F50A662373C71191E02B01D80554C78E
:1011C00000303014A8B3C0334B9429B00D46D60775
:1011D00026082608A6255D1027580223E1978105D9
:1011E0003A02B102000002B83162E19000D000C0C2
:1011F00000006B096D00C003CDF09B640167DEB297
:10120000AF9440435DD797D39B8422699897CF21B1
:1012100034B9EA983642E707AC265D6049D9848440
:10122000EB420CA1E774710146333888AA063BA44F
:10123000CA471E75C1B6BBA69A0402082303A208BA
:10124000413092C60040B1000000C008BDD06856D1
:10125000180900D000108D2114C0C003A5635CD80C
:101260000D317D03E103000000000080A73700304E
:101270005A68FF217D88FFD82B64000000B05D60B4
:101280000A9600608B20918013E38D365331BF4363
:1012900039222235188438C3D382E402D004910065
:1012A0001DD800B0000002580000AB0002A82AD4EC
:1012B000A008A8D33B506F07730500000000E100B1
:1012C00000006F07A803C3041D0200002C060000E5
:1012D0008404A803A803001000B00010A743E4E7AB
:1012E0009E3438039A01230300E000300070B133CC
:1012F0001D78B156A6053902B306DC460070A0631E
:10130000BD308D915F07C406B765E6581C73DC9548
:10131000F216B10300C0E13073F8AB50736538309A
:10132000262800305D00000000000634CE9102281F
:1013300008D18E02001000F009750010B8C135C642
:10134000AD525D2039B9D1279E88C7A2093500006A
:10135000C606A8030A46EE87AB4000001303000050
:10136000C0030000A803F6058E048A0100D02956A8
:1013700057073BE0CD800F27002000106D00266846
:10138000EBA200502618E8E2A8030D045DB55A113F
:10139000F8C0E8F2FB26AD100EC5C170776589B4C0
:1013A0001309C01771B06E873BB0BA366603CCE143
:1013B00084A426780010E140E822A4543A06D570AF
:1013C0004A1354B2D22155E40AB696687385F6E5FD
:1013D000A823A6050000A8030000A6D592458FA863
:1013E000FB110B063D2200403B00E7E06B23F212AD
:1013F000C1F886E5F47120B2C9A693055D80733506
:101400005D3000E0009057295D00029820155D894D
:10141000B1B2CD00008000A0B1330A260000AB803D
:10142000EB8238A300304206DF020000AB000A0660
:101430000000B11300E05D00008078338731C30302
:10144000A803CD00B183E1E7D725A81300B0A833E6
:101450009B44848400402609C0030500B17300202A
:101460002E332609AB00E1023BB0B93300000090F7
:10147000A8A3C3845D00CF070000EBC2A8B33B70F4
:1014800085A8E581C0039A176FE7B60689B26F3762
:101490000000D1628DA8CD507A8526A83733C0438D
:1014A0000C865D4000000A06E10000A0E608B1637A
:1014B0000010A8E395070268A55579105D20730513
:1014C0002F84C0F8BD030218EA6402371C3765D9BF
:1014D00009512608A8035DC00C3638D3D0577206D0
:1014E000CBD80050B1030534D512CD30CD0000006B
:1014F000260800D06F57A40500D00C56000059F7FD
:1015000006B27325C6A13F440E17A976D615D5435A
:10151000A2061502F5000010E872ED78D4E3E6713A
:101520000951A8330050A8934A41AEB374827FB8E2
:101530004A51B572B5487415AA405DD0C0585D00D7
:1015400000805DA084348D11E16027995D58A83337
:10155000B2875D40CD80C04300F000D0A82300E0FA
:10156000008068167C04000000003AD300500A0690
:101570009150C70175096FE7CDE00278711976B512
:101580000532C324A5363D572475A05300905DA0B5
:10159000A8D384541ED201A28511A85345577515AE
:1015A0000DC1EB622095E180C033EE3745413874C0
:1015B0005D1031B92CB50976C1D48E560000A883D0
:1015C00008D33184B1D302B8232331322343AC7022
:1015D0000A8600A0EB323A079100BC000268B1E233
:1015E0000A01EB22E110953643D900C05D00B40436
:1015F000FE01000000E0008022137315E6B70238F8
:10160000F000A7075D00C023BEC6C662E604FD0663
:101610009D062060BEA0CE757EA14C777215000796
:101620000E049B04CD00000000000010B1930000E8
:10163000BE062E070000E160FD1200703BE3D114EE
:10164000960500B0ABE00020003000209338731501
:10165000B1708B9017D000500000CD8067A900308A
:10166000A6D500505D005DE0CD808E66B153FF08C9
:101670000010000000000000236300A000505D7017
:10168000E6780D31EFB00A36840455575DA08B72B1
:10169000EB02590776033B00000000009B049B040B
:1016A0000B05EEF773650D71001073C5C76001730C
:1016B00073678C9017B89B643E2907856389AF12C6
:1016C0000F079502CE016F67DFA07B52028808A04A
:1016D00000303B405DA0EE570B010F07A8038D7152
:1016E000492559228F969F3183337A3716F5E6665E
:1016F000B2831AA25D50EAE311C3A918ACD30AC69B
:10170000A003009000E00010A6B5A2D573650DF10E
:101710008D31004000F0BAF6E1103C625B25BD66F9
:10172000F8C65E905E192949C5B13C8096916CA1BE
:101730004036395238D5155532E297983F6420D853
:1017400063C00000FE5872D23363A833CE710060CC
:101750000000D9066D00E160C0F30550001038E3C9
:101760006F779B84AE62609903600A477395A836D1
:101770004008B814EEB8E2A1000000008404B102F1
:101780003BC05CC484046C082B050A065D00B903E9
:101790005D0026E8B5C74D0193F4E471A9083B2824
:1017A0007F94E312A7853135003000D09B743B4015
:1017B0007411B6E357010030BDC0C3440FC75D408C
:1017C0005D908B10A8630000A8E368C6C314CDD059
:1017D000A85300009160C0E3A685E1800AA61D30F1
:1017E0003840E1305D600A060000000054B53DE776
:1017F000CE48ED2277E26A060080EAA100309062CE
:101800000090B44801F32781624912D99B56C00663
:10181000EB020000A6059B0425A25E56562773E93D
:1018200036194E079B046B0900000000840400C0B9
:1018300026688E0200005D00B407A803240511018C
:101840006F67AB200080D704D446387471888D62EE
:10185000BE8663261376FF77C5025B080000001082
:10186000A803A67541C3FC30E75126E8CD805D6032
:1018700006602C63A63500205D000080CDB0E1A796
:10188000ED0714F303D90D0162061E08C003CE82D2
:101890000AA6003002280208B183002002C80A46C6
:1018A0008E610020A685DE86E0A00C36A8933AA4BF
:1018B0000D01F6350218E160022802088D818C8145
:1018C00017A0573973D582267C425BA14446C9557F
:1018D000B90279783A7859015D001407B1230050B4
:1018E000E19000800CA60030EB520208BC0204B468
:1018F000082120955DF08ED66A33A7B0D6D51C029C
:10190000C6522550A17400607325168200000000A5
:10191000CD00A6B528E4E12000D0B3560000CD00EC
:101920008215874022809C040000016926A8A655E4
:101930005D90CCA8D5060209B903000000E0CD8077
:101940008E1400300A765D50A8A3A8D39B8429E3A7
:10195000FF326249C6959B05AA2877017707730570
:101960000208020800002368F154F1943902B0041F
:10197000590718D000500000001000E0AB00A8F399
:10198000002000400FD1FF110020B18226A1943623
:10199000B173E1C7D0373B00A80326015DB000302A
:1019A0000000230300000000009000A00060B101CF
:1019B00037023B2091E0A133132181D82B59CE026D
:1019C00000B0E6E80020FC9002B8CC33C0035D0014
:1019D00000005D600E231C95CDC0EA95997811E258
:1019E00070B00C2600203B00CD800A16ABC0B5308D
:1019F000B8F60C27B340E6D70050EB02B10378C726
:101A000000303B0039020000000002089100B18262
:101A100023A35D301456FE8051482E06AB0084048B
:101A2000C0E33843C0983B2000001D882353CD00FD
:101A3000270000000A0600009B1300B0C033EB3201
:101A40002623C3320010F0B00030EB028F013009C2
:101A50005DE000C0E1108EB157370000A813A80365
:101A6000B008EB55DD20588102F8E1B02468C0438E
:101A70002688A84300D08EC4A918A8930000FF119F
:101A8000DFF4A3459195C1522575E712D8748817E4
:101A9000972428B155A9E207AB010C06E1000050DC
:101AA0003B503A900DB41DC6F02010B53090C8548C
:101AB0003B997572D233F3069B043B00A8D30158BF
:101AC000000002680AB6A61500C000C00030E100A0
:101AD000DE00000000D00258CD0060335688534528
:101AE00092150318260879370000E1100000BF089E
:101AF0000D0300B00238980300000208CD00A6953F
:101B00000DA100605D209BB4B0880F649C92BE6103
:101B10005D800060BD605D009607A80373B5DFA01F
:101B20005D000030AE4700308ED63153B9000D81D4
:101B3000A833003000D00050EB0278D33954D704DA
:101B40000A96000091300D1193E60E1172895DA086
:101B5000233367D30050A60600D0E16000000228BE
:101B6000000000800060A8233B80A8030000000064
:101B70000080E1A0A8337008A8035D00FDD2E4C096
:101B80000000A6D5EBC2730584940CC65D10539477
:101B90006B06EC02B8000A0600000A86E9A22138AA
:101BA000CDE0A28600600500000000007355A2E5AC
:101BB000A80308A12608A264A8534F766F64A8B7AB
:101BC00043E8D81200000000C00800000000000038
:101BD00000705D20F64534D80D010C735D20A8031C
:101BE000CD80058000A00030383200B05D10A80321
:101BF0002C01A60500D0E11700800810B7E4000012
:101C0000A9B026985D409641C093B422D703BAE3A9
:101C10000D629808E708000000000000B1025D6056
:101C200000206E81D1639CE526880B74B4565897CA
:101C30005D00B102CD00000000000000EBB200E04A
:101C4000732566F8E00473450060002000202383BC
:101C5000A6A57335EAB100A0E10000E0BA806B6987
:101C6000E1000F3487910030FF960020A3040000AC
:101C7000A9080080A8A300300000E802BE0600808A
:101C8000C3A4003075C973A5CE010000C8050F01BB
:101C900094082B03B102A803020800005DB000A065
:101CA0000B02C0D23BB05D30E5085507020802D8F0
:101CB00000506F0700405D8043470000F0008A013C
:101CC0000000F000A00305B000802C31003000E0DF
:101CD00005A9F5958BC547734B4514437E4300001A
:101CE0000000000000B000D0000049970050DBA0C9
:101CF0000E3355736B92CCBA8DD7FC016205000090
:101D0000CC074C03E6020E03E603DB000000DB0019
:101D10004704D206D9E000C055830000550318B629
:101D2000FE08ED07C408D9E021C0008000E0DB0018
:101D300000301E2200600020DAD300C0E6225F09D6
:101D40002D01000000B0DBD0000066D08D4583A8D7
:101D5000D545DB0055932DF1ED311E6AFB059D84C1
:101D600080331806FC010000CD0200000000C70807
:101D700000000000C8F8AF560090DB00EB04000044
:101D800000B0DBD05904DBA052C480939AB4FDF7B5
:101D9000F1A21D080000A00200E0D00A003000E01F
:101DA000CC077F310000000000000E03D9000000C6
:101DB000DB002C08000055F355D3DB5000B0EBE4FA
:101DC0000040BBB61AD953050E834FC50A759C0354
:101DD0004104DA03003000000E1326DBD6E86798D2
:101DE000D099CBDA0000BBB600B0CA790000001071
:101DF00000A0E99000F000A0FA61CA5ABB30762832
:101E00007C61AC2600F600D04B56DB00002003417D
:101E1000B6010000DB0000B000E000400000000060
:101E2000CE084704D90000005FA9D91000901A0914
:101E30000000DB0047D4556A2B03B7D5B2960B6977
:101E40004CD45CC440102DF15F293F2407BB1EE138
:101E50004744008000000010CD024794039100D059
:101E6000DB30A233FA094704D204007074C77E59EC
:101E70004CE30E03003000C012C10070FA89EBC4BD
:101E800000800000000020040000E294BBB6A6021F
:101E90000000550A000000004C0302B87A49157A88
:101EA000DB0ADD0547041AC9E6C20070D1F91AD968
:101EB000D950187148F66867A83701D9231A22C08B
:101EC000CCE6684860D98516566AD005EE85739AC7
:101ED000FAB7B3B51765DB10DE272CA126926DC4C7
:101EE0008291B056B25A3E3600E00000003000B099
:101EF00000702F272D010E33CC375BE1A009E79846
:101F0000B805D609F70800000E038D031A09D90099
:101F1000DC0A00E00000DB30E2040000CE08003004
:101F20004C6402A3462AF978326759240040DB60EA
:101F300007BA3B401A0900608BA5CD220000CC07F0
:101F400000000090EBF42D2140B82813E38400F04A
:101F50000030A6A400000000420400B07FB1007071
:101F6000FAC90EC35513CCE71A0900300E13DBA0D3
:101F7000BA6747E4244B9475DF2A47737D6B2D01C4
:101F80000000CD020000DB00FF0853B5DBD0A0024B
:101F900000300020995777EBE0416F4600E0DB000E
:101FA000553355030E03000000705426BB561886A7
:101FB000DBD0001000B0D2DA0E0700C09CC4FB7169
:101FC0000EA3B715DB905F09DB005F09CE084A0658
:101FD0000000DB908649B091E706960A8808EB94EA
:101FE000CDD22D016303CD0200000EC371495365AC
:101FF000D8A96E198B91EB0410031A09DB9053F9E1
:10200000D84067B152D50000BB06DF05DB00DB001E
:102010000000CC0700D055CA0020B7B52DD1DB0099
:10202000461453552683D2AAB834135489508924B0
:10203000147200A042142D9100E0DBC00080CC9708
:102040002DD10000D9701A09F76ACD17D2EA81891B
:10205000B60A2D0100000000DB002D015513C00958
:102060000000EFB39087FD60BBD91EC88A20000036
:10207000C808DB00EB04D505240900D000C0DB2034
:102080002F03220568004794007062B200C0F394E9
:10209000C8184D06E504AF00BB9664DB5A377F3A9B
:1020A000D857ED8024BA66BA256000B000D00E0380
:1020B000620200000000E2144704CD82000000002C
:1020C000160603010E03000000F000F0BB1700002D
:1020D000000000000EE389084933CD12FF210242BF
:1020E0002D385375B13403ABEC82C8680010DB7037
:1020F000DBB000D00EF30EA3AC6112DA935A54E6B3
:1021000000000030DB90DB50DB401A09204A62728D
:102110002CE32CAA3674150A2307000000B000D067
:102120000000DDE52D01D9302DC1DD452D41CC016B
:10213000EB04BB06CC070000000000B000D000009C
:10214000BB0600002D01C80847044B0600004B06E3
:10215000680000F023F73E1600002D01DB0019D5C2
:10216000A3260010002048D9CC4700000000000042
:10217000D1B900D00000EB04540ADA034C03A108E3
:10218000000000F0EBB4470470B12D416966AFB6B2
:1021900000D000000EE3000000300EA32DD1719797
:1021A00071E91003DB3000000000000000C00FC226
:1021B000007000F0E2540090CE780E43DA4300D075
:1021C0005523DB10889B1D98B625CE450050006036
:1021D000A50600000000EB04C808000000700040E5
:1021E000B0472756C500B128FE044F0A4A0BCDB2AE
:1021F000CED8000000B0EBD4A002DB00000000004D
:10220000000000208FAB00A000D0000000F0DB50E9
:102210000591DB30DB50FA598BE5A8E27C23000006
:102220000000000000B0CEE800404764B5E1D08A6D
:1022300048D02E406B910070CD62CE98A002D2049F
:102240000000CEC800F0CD420107541B0523FDC598
:10225000E40ADCB6FEE6C7B71F3342E92A235B482F
:10226000D4DA0E0B59594BD3C8D80E530030DB507B
:102270000E53DB10E6906053105317561F34003096
:10228000E35A0E5355BA1AF63995F624FEC116953F
:1022900018031204000005B100D0FA092D71EF22D5
:1022A000C719A30448020000DBE0CA09553A000040
:1022B00000005305DB1059F3285A47B6AE49D26ADD
:1022C0009C042207000059648945EB33F8E9DB00E0
:1022D000C03276D33EB88F73FE617697EA07C3A704
:1022E000CB0415A7D9B0CCD7D00ADB00D29A2D01E8
:1022F0000B32FB9143238EEBCE0847360E030000D2
:102300001A09001000D000000000DB001D082D217C
:10231000267044760FF301563E2072C6FEC9007047
:10232000535663158C08BE01DB03F8050000CC0191
:102330000000CE08CD020409F7050010D94000C006
:1023400000C05F790000DB096202200A5804000027
:1023500008B1DBB0006000000000000000B000D059
:102360000000CCF169510090BBB700B00070DB00F9
:102370000000DD0500B000D0EB94CCE1DB00C838F4
:10238000EBB4DBD02203E9E0EF02533579595EEA82
:10239000E087EC054307580700B0D9D00000DBF018
:1023A0000ED30E83D80947A24E1269D015C31280EE
:1023B000E328FB61DB20DB0000000E03DB00DD0512
:1023C0000000DB00EB040E0300E02D214714B6D61D
:1023D000C82819482D010000000000E000C01A893B
:1023E000CE080E030000DB500E93DB905FEA3B53F8
:1023F00049307B21056A8A20FFA10010CD929C14F0
:1024000020DA30A71901100000000000DB000000F6
:10241000DBE0C957FA5924D3CF596D4387A00E8307
:102420000E131A096C046D00000068010F026C4461
:10243000D9D0CE085F09C808B4091AB9FAB90E6331
:1024400011020000000000B055DA1A0900E000C0D7
:102450000080172A6AF9CB5AAC071A09000000B0AD
:1024600000D0DB006C241367F2A270B3CDD2180643
:10247000CE0800000E03000000000E030000000064
:102480000000DBE05503F436845B1027B0A84C87CE
:10249000E1E44C730E129745EE131D1993627224FA
:1024A0009E03CE08CC07CD42D9E0DB4060AA1FB521
:1024B0005D6434A77322E3405200F70974090000F9
:1024C0005204BF0000E000C00F82FAB200D000004A
:1024D000DBA0F376A022D707F8080000DB00DB00C2
:1024E000CD02008059E4DB00CFC88BDB515641F3AD
:1024F0002FD1EB5400405513DE625B0A08095409E2
:10250000E204F50600000000CE08C808DB902DD1DB
:1025100000000EE3D9100EA3A1060000EB0400207A
:102520001A290050D45000905F9953060000000013
:1025300047F4CD220E9300402D01D990A6369F90EE
:1025400067973ECAABE7D220E55146DB9553E36778
:10255000CE7A6F9217E5A60103398CC334C6E474B2
:1025600000001A09DB001A09DB800B3504EA258B11
:102570000499CE0753050B05950595050000BBD6BC
:10258000BBC60020DB104967DB500050AF5600305F
:10259000D95000500030100A0000DB00CE78AFC2E6
:1025A000ED2609A172D5FA13822387170030009017
:1025B000D9D000A0C6B810D10000BBB600E00E43D1
:1025C000D900B7053304DB70DB10DB50DBC0DBF078
:1025D0000EA3DB0053051E0500B000E000402D01F6
:1025E0007206000000000E03000000D0D9C0552381
:1025F000DBB0C8487F615E3300C01D986232DBB03B
:10260000E612DBE01D0B5436D8C900901A490ED3F0
:10261000F0211F3A4E2052E42B4100B0DDD50000DE
:1026200000E000C00E8300A05E192D91DBA005CA5A
:10263000CE9800E0CE08DB308BD042200E13A0D223
:1026400000C00E23550A000077087FD1CC271A1945
:10265000006000500E43230095E98784A7232B5286
:10266000CF7ABDB32FEB814B1D081A09DE08DB00C2
:10267000DB10DB301A590E032D110EB3DBD0DB005B
:102680001AD9228562324CE41BE5C519A0E0D95065
:102690000030BB4600005F19E5086C034A0400B037
:1026A000DBD0C7065924FFD1A1A410B36F397AA596
:1026B000F68950841989DBB000D0CE08EB04000005
:1026C0000000DDE5CD02EB34E2B430B7066900006E
:1026D000CD02DB000000CC07000000C055CA00702E
:1026E00000C0E5C82D7100001A190030DB60DB4026
:1026F0005365B4090000000000000000E602D95054
:1027000000500030B274E2141A5977E4A2287DA276
:10271000439896D9000070214744A1338F00471495
:102720003EA64B063E010D0600E0DBC055836B4222
:102730001A09B49922DA2DC1DB2000F000B00000A4
:10274000700194090000DB90DBD0DB0000E0DB10BF
:102750006B5680D14420791571057E010A0B0EA3BA
:102760000811DD9554050E03050100000E03050157
:102770000EB30EB30E63CA591C2888B8F3010F02BA
:10278000BB06004000D05F595800090A000000B0A5
:1027900000B0DB6000E000002D31BB570000541694
:1027A000BBA69A80D67A39B1D9E0DB4000000000A0
:1027B000DB00CD52005000309CD400E0DB700020E4
:1027C000FB11CD2200D0E6C20020DB004704BB068F
:1027D0000000CC070000DB1055D3C5862D41CF810A
:1027E0004463004A94D9C808DA73405105B137EB05
:1027F0000E030439F6010000000000C0FAC90070A1
:10280000DB20DB209392E598BCA0064B1AF8045617
:10281000FF47199364D84507E204D505000059E441
:1028200000000030DB80CB88D82959AA6F002A60CD
:10283000ED020000000059B40EB32864009000803F
:1028400058A625890428D7740040CC574754CC019A
:10285000CE0800000000D9000000DBA01AF92D917D
:10286000CD02CE080000000000000000CE081805D0
:10287000BB06D9700B170E5300B00060001000B0FB
:102880001BD90000DBA000502F2233EB50D0735B2C
:1028900000F083BB1E04DA08CD0600000000000033
:1028A000000047042479DF15DBB055E300406CD30A
:1028B000EB24001000B0D8E9CA4953C5535553451D
:1028C0002AB703D1CE08DEBA00B06262BA070000B0
:1028D0000000DB7059445345E6809AC16CA2078121
:1028E000DCB035673AC1E7820D035FB9201A4B2689
:1028F0003FA77185D9101A09CC0700003396011241
:1029000026AB3B2BFF225A34CA1512D74B04CD02FB
:102910001A19BBA6050100700050E9824704001097
:10292000DB00DA03D900000000000000B4B96CD469
:102930008B0059540E930E53FBA12BD2D761080381
:102940005707A280B6B100B0E26403C3EA15F7A14D
:1029500023C900900E43DB802DE1CA29798B87E2E1
:10296000A0030E431A293E07DBE0DB903828A3764C
:10297000004047446C414A941F120707240AE204AE
:10298000CC8700000E1308010000CD0200000000FB
:10299000BB06DBA0DB70AEB65FD900C01A290070A1
:1029A00000400060C0B0BAFA202A7C03DBE92304AF
:1029B00000A000100090DB600E03DBB016C8CD92C3
:1029C000CD420E3655D6104011B3BAC0A292E4B42F
:1029D0003DD7020143932D8171112BC47240C30A6C
:1029E000130722014E04DB801A1911A174B90EF3EA
:1029F000CC120050DB50E0A4CEE81E05CE3800001B
:102A00009505000022F500500090DB00000000005A
:102A100000000E03000000000000DB0000C000C04A
:102A200000700000CD02DA03D8990E735583476415
:102A30003D3053851236FF514C53EDF7D9501C965B
:102A4000C7A6001000900E03550ACA081AF90050D4
:102A5000CB9605B118D60000000000005904009084
:102A600000609442BD401E1AD985985853543B5873
:102A700035E21A09003000001A09DB0023E7490497
:102A8000BB360E830E83008053F535788986B5D921
:102A90005305C9B42D914852DB8055B310704F8552
:102AA000DBB000D0DB00EBB454D3DB09F8087705CA
:102AB0000000CC27008055934C53DD550030CC519D
:102AC000CD42CC471EF257D98151CEA80010559364
:102AD000EB7410E3F049B2D782D50E5300F00070CA
:102AE0001A193F0AD809DB005FF9CED8DB505486AB
:102AF00000C0DB8047F4CE08002000405F291A990F
:102B000044E2B0040030CC070E030000CBE7CE084F
:102B100000300EE36303003000500050DB305503FB
:102B2000F2020000000000005F892DB162D20501B1
:102B3000DB4005EBB72534577B83F40200E000004F
:102B4000DB304FA76FC49C957D78D7B924A9AFF629
:102B50003B760010D2894CC4DB800E0300005F0975
:102B6000C8380EA3BB2724D1B8D1B5A400002D01CD
:102B7000EB0400000000DB0000000000DB001A593D
:102B8000BB16DD550C06CE08FA093CE2EA001D0230
:102B900000E0CE080030767002373C7B5970271079
:102BA000D187F30ACE82952130B950D971000050F7
:102BB00000E0DB80D9B0DBD000000E2368E00040ED
:102BC000DC0AA0070000CEB88ED0000000A00010E4
:102BD000EB9400000000DB00CD02DB0094092D71B6
:102BE0006BF1008600A0CE180090000000000000ED
:102BF000CD42BB56CE680E03BB060E03DBC00040C1
:102C0000E832DBE0DB30CC1700D000C0002000D081
:102C1000DB200E13D140DB705037579A7EFB4A42BF
:102C20008206F8089E0754D6CCC7CD22BB983350F5
:102C300038B9BC0648040E031AB90ED30E0395D951
:102C400047C34C23D5B0BCB12F6054060000290007
:102C500095D55FD9CC5700005904FB010000DB007B
:102C6000470400002D010000DBE00000FA39602A73
:102C7000B2A96D19C4B22DD1D106CB116252A420D4
:102C800033E1E68A73164DB3D3D98708E3BADBB0D4
:102C90000E731A6A556A1F4B0C407F41E0170B15E3
:102CA0006B239F5732E2C309533500A055F30090C0
:102CB000551345E1635273319EB564333904A873EB
:102CC00014893D82A227405A89C2FAD5D396768AC2
:102CD0007A270CB48307540000004CC30EC3DF7581
:102CE00000B00ED300000000000000000000DB0078
:102CF000DF050080CE58EB9400B0E8D2000000B0B1
:102D0000DBD06A06620217050000DBD002C80E2382
:102D1000C7E600101A290E030E0300060080C8C87B
:102D20000080C908E4080E03FA69BA179589747916
:102D30009585E5422A823676CB28550A090B310063
:102D4000000000000000CDE20040DB0900D000C020
:102D50000020EB040000BB06390B0000000062F20B
:102D6000DB500090FAC9EBA4D920CD32C7869F145E
:102D70003806EA04B80ACD020000CC0700D0CEC85D
:102D8000DB20DBE0DB000030EEC7B1C013310C010B
:102D900032086C040000BB0653060000DB0055033C
:102DA000DD050000DB6000B0FB66BC1AEB39FFC537
:102DB000F929DFB549D72D01BFA0DB100E93D12033
:102DC00066874786F2D61B2B30485F59CD020D1B14
:102DD00000B000D01A090EB30ED30E03CD9278D7EF
:102DE000C90600000000D9005355194653052D327D
:102DF0000E53825B20D000D00E5300B000D07C0375
:102E000000000E035F09DBB0E5D800000020006081
:102E10001826DBB000E0DB400000000000000000EE
:102E20000000CA090000CC07990A0205261F5114A8
:102E30003D661139402126253719495A1554270472
:102E40000C1420242C3034383C40444850545C66E8
:102E5000141C3A4C52244A3E210758132104610D98
:102E6000101C24303840484D50545C64352F121DDE
:102E7000480C384C2E2556325610264D0E40330540
:102E8000080D111D20252C3134393C40494D515439
:102E90005C606A491D51403B513A1456143E301A49
:102EA0004D0C303F080C141C303C404950545E1F00
:102EB0001C12041420243C48545C662438154A2112
:102EC00052304224160A4D3D145110323A3E3037EA
:102ED000384D1B14243C54661830241250114B40BA
:102EE000080C3932313A103D52484304142024343E
:102EF0003C546624063D15423D0A4007244D1214F9
:102F00001210612C3C080D2831353848554D2340AE
:102F1000173C06142457055155156432343B363B93
:102F20001C102C3034384048505A65165037050C68
:102F3000253863543D1665552C305843041A3E1409
:102F4000243C56040D1C24083035383D404C505468
:102F5000585E3C6B4D2451314010493B104953247D
:102F600014321E213C5248534C0414182024303C87
:102F70004854660414243C48561C4B2116195168C9
:102F8000213048420414243C563D25163012152C9D
:102F90004A15334D203056144F3065165A250C2CE7
:102FA0001E3D050E1D050C382E4D145126354A5078
:102FB0003E05104D3F19655135384D140A501652D3
:102FC0000C1014403C1C3852314E3D245D352C15FC
:102FD000080C303840484D5159602B21241C5C04AA
:102FE000080D10142C303840484D52265134301002
:102FF000050C1D24484D0A3D53251614066504167C
:10300000141F4D05161426151C3A144405204E2194
:10301000502E4A4D524D0531671A4D051424661045
:10302000141E14311C485A4932484D5316143F6936
:10303000400C10181C3034384D524D21183011649A
:103040002C581C25293438404850545C6A112D32C4
:103050003D2F11404C523D24523C544D260E051636
:1030600065250D3D4D4953054C3E4D4A4D6527564E
:103070002D524914053216203C1E3A5850111D306D
:1030800039484D6816211506041420243C4854661E
:10309000150C2052153221051424303D48545E4150
:1030A000374D2E1D3A154D6704151D3038485062B6
:1030B000344D13514125080C181C3035394A65151B
:1030C00036223E314A3D1424485466655633390849
:1030D0001526485F4D152407424D331524481156D7
:1030E0003C314D061554523F1C561C234D5355067A
:1030F0003E1518340948122D52585665263016646C
:103100000414243E21272215510B4448050F1505B0
:10311000482428303E4D1504572E15244C06053AF8
:1031200050101C3D671C4807363D41244856042476
:103130001624164D32364D164D2C183068081034B2
:1031400048500E653E113224404D153F142633166B
:103150001431340D2F1D583042191D09405A1432B4
:10316000541635400A2149413C05140C305238525E
:103170006414265D3A302F101524303E120A3113A4
:103180001948063D6524500416393749321E4D163C
:1031900016315D66344214043214090D10181D2CCA
:1031A00031353840494D506A301F25344306052CCF
:1031B0004065164D1611173F181E4D0525123B513F
:1031C0004E6541310605484D5615264D1465320EA3
:1031D000260C4C6A18560C38422406162C262D4D07
:1031E000074D1842493818300C1D545C4D234933A3
:1031F00025565621521448500E3E243E164D561E5A
:103200000614266514261C4C05534D53054D171402
:10321000053C1C242C38671B4D24364D10500C15D2
:103220001E3C0538574D150C1E4A19110654350918
:103230000C111C395D2F152C09040C10181C24309E
:1032400034394151585D62424D140725112D3E3DE0
:10325000382452041424303C564D260426191534C3
:10326000505A243C48563C42514C58400B65164934
:1032700011533E144D06143F6A4D052D401525325D
:103280003A14060D544E4D3E546711383210540511
:10329000522642140E264069440D10141D25313467
:1032A00039494C505B3D17510B0525174D6514519D
:1032B0001E1C5D55592430343840494D0F06041EFC
:1032C000113039414A484C6B155D1C3C3504080CE3
:1032D00010242C394048596821320E066514061412
:1032E000260608140C3811181D242C303C40494C7B
:1032F0005056390F1A080C1114181C303539404833
:10330000596308502C480410143038261432151F05
:103310001A156524562F05485F42550A261525368D
:10332000212E1204141C243C5054663C56052516CC
:10333000423D0520252E4D151C4A264124152D11F0
:103340003848560830171B360C3265326532215228
:103350000414243C546A504E064D15303E65251227
:10336000262417175105484D3B2605152D4B1A41AC
:1033700051250D1015485B0414243C5604142626D0
:10338000403314110722083442143250153B3425BF
:1033900016513E5E514C14303A3C56493F0C1505CF
:1033A0003E054C221A4D0B041424303C545E4A1640
:1033B00005240C383C4816151F1009141C2D3438F0
:1033C0004145484F041614670E24303C545C661186
:1033D000273E50174D046169080D10141C31384008
:1033E0004850663C3A2431161D3812051426143E06
:1033F0005E052E521C26544D3F0416380714080C47
:1034000010181C20242C3034383C40484C50545860
:103410005C6265275251384817391D2E404D173DC3
:1034200004381C525215631E24162F544A142224A9
:103430003D331B654953166A05140C27152C564D50
:10344000651D2C383D164D156730080C1014181CDE
:103450002C34404C503A153A2405364C4A15243E3B
:10346000412F1D083C525411241C4C0914430414D0
:10347000243C54664933150E4A315A4D32114D4B96
:103480002C1365143224312D52212C0C1031353877
:103490003C40484D50545F14561024335024163489
:1034A0003A4D152E2C3A1E15053C252A05251F4D93
:1034B000123C26442D4C52071730394048506A04BC
:1034C0001420243C5466265132501458050C101C0C
:1034D0003034393C404C1B415F162A1504651C3EB4
:1034E0004D15083E1315615C1D304852133F0425ED
:1034F000080C10141820303440484D5215613C64BB
:103500006B4D083543041C223A053C4D262D481EC0
:10351000143E06651715040D10181D243035384962
:103520004D50546064680A24180D11141D3134384C
:1035300040484D515D6226324151101C4B24144CC1
:103540001018322C0C11181C313438494C520625F5
:1035500031503F14420E253C42543F4D102C305AFE
:103560000414243C48560A050814243E4D143D26F4
:103570000458090D10141D2C30353840484D50604A
:103580006A3034383C4044484C5054585C60646A5B
:1035900038163E055624321D3F4C17214D1609633F
:1035A0003A655149113B0542250E05173E22533815
:1035B000326104090D1015191D2025283035383CBD
:1035C0004144484D51585C6B2E51260C343A243EF0
:1035D0000E144F4D650708143B0856043622102779
:1035E0001B14262436194D3A054A1025061167404A
:1035F0003424330C391532555806140C1C514A36F4
:103600000C524D15274D3D05261C3E241453210414
:1036100011141D3135383C484D505D6A650C343805
:103620002324553C0561680D10181C2C303438409B
:10363000484D5210153A21090C101C2435383D48CC
:103640004D505C3250160514243C665026243D65CE
:10365000382C0E053E37251A1530523D0525524DA2
:1036600038434D3E122D22354A2C403048585E15C5
:103670003C24521A56084D0C10141C2C303439407E
:1036800048522416060C521624503A220416143EB0
:1036900014243C56223C354F05212624381E3F1465
:1036A0006732563C07515C081D393C484D43153282
:1036B000310E3C1230052714321D4E302D0E2515CB
:1036C0000718080C10141C404C50606A1D09340C7B
:1036D000142438484C5054585E15224D153E6A1D2E
:1036E00057146A14303A0A25303F3C14504D263D99
:1036F00040251714546A1036420517185A240456E8
:1037000015390D1C092C3134484C55586256483B2C
:103710002404143C485605263E14103A382E0C3A20
:103720004B24424D325414663C0C10181C2030348B
:1037300039484D51616A30124D214A263440305883
:103740001048520D383C624D3D1040083225053B73
:1037500051411308192C1426403E0524524D3C2D8E
:1037600050564D15264D3D050E2E1D34584E320235
:103770000215521B301651685609141824344A0594
:103780001648052751305A06510E501D161A153786
:1037900055170C395652194D533C5515303848526F
:1037A0001D240C38651615354A33083F26050C5084
:1037B0003F6204080C1014181C2024282C303438C4
:1037C00040484C5054585C60646A153E404F39255F
:1037D0001630163E4D1014242830346B1406511543
:1037E000264014266455051427163C3224500A4DF1
:1037F0002430524D10384A5D14061557241C1567A5
:1038000038324E105C04090C15191C242C31343844
:1038100041484C505961674D300650325265103066
:10382000684D16053E3E501C42164916654215303D
:103830005E500C101C253B154865240A3C165504A7
:10384000101426153E0C1D38484D3E1C4E0A4C16D1
:1038500064130C381E0616041424303C48546614B5
:10386000521420243E311C4A103C1426391B650C8E
:10387000601006301630174C1622113A28270D4DCD
:103880001365160C1E2104080C10181C2431353841
:1038900041484D5056143E2F35084E51114B5C0493
:1038A000080C1014181C24283034384044484C505C
:1038B00060662D3052253F4D10382E392F2F1408B9
:1038C00035444A152E073E3A2C0E0A2C1904080CD2
:1038D00010143034383C41494D523D172D521539A2
:1038E0004B0524151E2430164D3E14264D3242152C
:1038F000650C50585F3C504E4D382416482F4E06EC
:10390000241614043E140A042C38161B4D25574D5A
:10391000111509191C303438414853050F4A304AF3
:103920002C053F4D3C07514B15395A051C3E4D5057
:1039300010326524163C36145615511A26380E21BD
:10394000401A382C08101418303540484C522F14A7
:103950003E38523F041E3C051765321D090C1134D8
:1039600038484C6A041424343C5466053512490F17
:10397000365114303E0A4D1231214F3836240C1D79
:103980002E30104C181E1614243E4D16381E1427C7
:103990000414243C5650266504111530393C484C1B
:1039A0005056513D1C2F3112611B0552260E140931
:1039B0002E5C080C1014191C24282C313438404873
:1039C0004C50545A0414243C573C0C0811151C301C
:1039D000353940494C5154585C646A1034091A51C5
:1039E0000436490E1A2D4639400D560F05190C1094
:1039F00014243034394148506605654D3F4A4D3AEC
:103A00000E24213A17263134092D39424D1226341D
:103A100004080C1014181C30383D484D523D3251EA
:103A20001C3709421F1908344214243E243E1E59F3
:103A30000E4D1B51160D2209403812053D1015334D
:103A400056505A3D2D314B220414243C5466102507
:103A500017516716240C53043E3E54235E513038F0
:103A6000404A04142024283C48545C6624651614FB
:103A70001C121424505741364F4D114B065210382A
:103A800052040B326516490414243D566404142470
:103A90003C5614262D32246532502F334D0A053DF5
:103AA00016113241500A42391F0616151C6610279E
:103AB000194D520C2C4F0524093650141804080CCB
:103AC000101C242C3134383C40494D54585C6169F9
:103AD0002204144854645236053E3A04142024301B
:103AE0003C48545C661A4A103A384C504A19390B13
:103AF0004D24060414243C54662D6A04080C10144A
:103B0000181C2024282C323E25170D3B5D2D14480F
:103B100032400436262453411731243A5A4D101EA0
:103B20004C3A4108384A4D2D1E06053D26251630D3
:103B30004B14243E3224524D243F1C2C12051424D5
:103B4000393E51143A141F3D24413214305216119B
:103B50004A5E510E15480C1C385F65690C1038051B
:103B6000151C202D404D505559634D4805141C24FB
:103B700030343C56145664274D3015511B1B241607
:103B800051343A156A3C0A321524103A444E101545
:103B90000D3039404C506436302616143A04142740
:103BA000163924490E1634540A4D0A21514E4C330D
:103BB000653E151D393C4D561424360C08341C2422
:103BC0002C384A510B50080C1C34404E501D06092D
:103BD0000C10181C20303438494C506A15440E2102
:103BE000655504350C3C143039494D5112091764A0
:103BF0001D2D373433150D4C3E4D351950650A5483
:103C00000834424058681A10303A14260C3A5104CD
:103C10001D32653F155024041031383C41484C0E8C
:103C20003E05164A3814504A36084C1C0C242C50B9
:103C30005432312E3804144A24340820282C4C5095
:103C4000121D50103034406B080424421C304A3698
:103C5000164D3D34152635114D3B2E1448585E2423
:103C60001406213D04104C0C151C24292C3034382A
:103C7000414854585D646A1534654B5139264114E6
:103C80000A1611512432490414243C563D0A350CBD
:103C9000394B141C221D30385605153F384E310C57
:103CA0001E654A51142C384F2416150A0521573D1C
:103CB000324D31041118202454361450244D093C3F
:103CC00041495405324D513910344A4D520C50621D
:103CD000214C080D10141C243135383C4950545DDA
:103CE000646A3853204F2614403E65143C57530CE9
:103CF0003E36581D0C360414202430383C48545CA1
:103D0000662D230414261C543C585C42150D1B12CE
:103D1000241C3E26223C3B1621045424080D103559
:103D200038494D5159646A1C080C1014192C303450
:103D30003840484D515A3D3216043C56343A150627
:103D40000D1064251614362211384E562C04080C1A
:103D5000181C253035393C41484E3D1E4D645409F0
:103D60000C1424344858524D5128426534040C1028
:103D7000141C243139484D505A14671C4358040808
:103D80001C38504A35400C38623D55204A30651E7B
:103D9000480D3C545C6A4D0516495E1714321834C0
:103DA000481509382E4D3D3930530414243C4856EB
:103DB00065103D2626411C18100C303439484E2120
:103DC0004D6524092C0C141D3038485054620E25C2
:103DD0000D43263D2D0C243A4D2E3E39501C360500
:103DE000202E51125204080C11151831383C40484D
:103DF0004C6B4D1565344809192438405309171484
:103E00000427070E4D0605102C093650332F0C4D94
:103E10005208174D4A2F493A400A2442115C401477
:103E20004E4D1632143E542254044A1016301706D2
:103E3000202E142E04663C24160414202430383C12
:103E4000485458664C4B1B4D240516126556151EDA
:103E50000C5010182E32046859101424313438488C
:103E60004C521426351430421D2D3A491E1E14069C
:103E70004D062554320414243C564D3E244A041663
:103E80002404141E244A11513958084E4D3A213841
:103E900008345C040C1014243041485158644E55C9
:103EA000485A4D1D0C18303C545A322506214D53AA
:103EB000153D2E1426513D0C15261506044A3B507F
:103EC000243C34432C3A3063054D170C2C113B4DE8
:103ED000212D410810141D24313439485C6A05161F
:103EE00015323952042C3F1214074D616505081034
:103EF000181C24383C4049564D482C38301C080CBE
:103F00001018245056150C1E243851166826051515
:103F10003D2C1E3D572F2D0E0414243C5608164DE3
:103F200054060C4F36310C343848575249584D33EB
:103F3000263914240C3040524D564D240C16064D93
:103F40003A2D15384E3E4D0C084010501C34394A5D
:103F50002C26046A14384A0441081C382E152650B1
:103F600004080C10181C2C3034383C484C586A4259
:103F7000263C16053B200811181C243034383C40E0
:103F8000484D5054585C664D0C32251552223C1653
:103F9000154D073E4B24074D112C6B050C151C25A8
:103FA0002C3C4C503A152452151E164D1510385203
:103FB0004D2C3A21240C55086560101C30393D48C1
:103FC0004E51400D493A304D3A4C2F6B513A4D0508
:103FD0000814283D4867153A4D050C2F04243E224D
:103FE0000E3D12161604142442150838364D1631AB
:103FF0004B142F341E4D514A050C101C39154B65BE
:104000001D1413663E303E51423A39113D53245837
:10401000323C560414243C54661E31394814375837
:10402000122665241E05111D14092D3140444A3005
:1040300056041424303C48562115464911333D6539
:104040005D35504E040C4C56152648405A4D3D588F
:1040500024612D32301426052D4A150C1E3E0515FF
:1040600008493B1408041C2C3035393D40484D119B
:1040700067614A4D564D05091014181C2430343C14
:1040800051562C4D23390F491E39140C24304C58ED
:10409000491B2508363C16680B4D176A3D14414EE6
:1040A0003A2C3C56050A3D244A651E05513A051432
:1040B0001D283A495F4E650C3214384F513C174D5C
:1040C0002464163D0A26315F214D14245412154EE6
:1040D0000A24322152394C5325152C063D06301145
:1040E000532616153A651602021D080C11242C30B1
:1040F00039494C51650715654D3F51154F35512CC8
:10410000580C41113038484F1265061506304A6583
:104110002507514D111F3E355C1D0E485D0C58049E
:10412000152460513E3151176515514E3E151D1233
:104130002E4D3E1A244D1537095D41530414243E7B
:1041400052410C101804141C30394951616A1D4148
:104150003A4D39412D513715333A15243152511109
:1041600061410C655D541D243034384C5A15512181
:104170002F06155239163C2611392D19584A4D650E
:10418000310A1D5D0C38370B490C511E5024411D5E
:104190002C390C30495561110B514839110409155E
:1041A0002432391E0E413016314941115A115D0435
:1041B0000C15243034384850546B481D3F51381783
:1041C000313B0D4F5111490C4D39162D1C15513BEA
:1041D00024171D304A1125611C340C142C30383D35
:1041E00041484C51562404143C56480E61114F2D41
:1041F00016043852155D3D48322216653D041426DA
:10420000564C651C09524915184E4D52115D164DFC
:104210004108343E54530611354117650415243CBA
:104220004856502115264D163E04145126080C10F0
:10423000181C2024282C3034384044484C50545802
:104240005C6066505D04080C14181C303439404E14
:1042500051113B56651D14384248160414243C483D
:10426000545C6615110E155F5C4A4A113941194DAF
:104270001E193A152D1F0414243C54672665051495
:10428000243E15264930343A1D1751652D0E24045D
:104290000C1440525D19144A5D611511073C4D160E
:1042A00015080C1D0432514C341D155D090C3038B5
:1042B0003C415654224D52514D110E3511314B494E
:1042C00011370414243C54675D4C0C383E4C352D9A
:1042D0001908103C58324D1751152615052456144F
:1042E0006837140624172465172F31351B0414244E
:1042F0003C55672D0C4B2416324811675048080C6A
:104300001D3438304E1432114C0C30393C534911A5
:1043100041375115330516115D1615481E4C511DB8
:10432000102C343A16041424303C54664D394B0496
:10433000212F4D243C224D243F300515343940486F
:104340004C621D355D5138650E1407041424303C51
:1043500048546642151153050C2056653D41091716
:104360000C1A3B3D123D1466650414243C48564D1E
:104370001E04142024303C484C5466521D092C5D08
:1043800037113919500A143C4D6706113958511F1D
:104390004D0915585111331158090C181C2C303582
:1043A0003941494C51545D6731193B16491C17047A
:1043B00014253C56486711344151090C2404183027
:1043C000393C48545D671165355D414C3B203E4C9E
:1043D0003A384C511E0C504D17154D2F514D1D158F
:1043E0003A350E114131372D0933386537142432EF
:1043F000354C51192F2417380B3C14260915113B45
:10440000064D5D390430534D140E512D1D0E0843D9
:10441000344A3E2E244D1F2E5011090C6818353891
:1044200048545D3067151139374221563942052409
:1044300017205248370C1D180934384A152F5131AE
:104440003E51352D0C11493B154D333E041424309B
:104450003C48561153152153410C332D152315514A
:1044600011053E3C4D4321244D17152441111809D7
:1044700030494C534D11334D65152D0C1211143824
:104480003C484C52514A1539333E114D14193317DB
:10449000080C101C3034383C484C52041420243092
:1044A000383C485466425038096568411D2431340F
:1044B000484D545E1D0C18403410143039484C518E
:1044C0006A04275115211809481D3035384E4D41D1
:1044D000143037304D0B6A1D110415202430384834
:1044E0004C5351650C040911181D242C3034393DEE
:1044F0004148545F0414243E3C174A254C381804A4
:10450000141D3451585C131C6A4D1715114D3D5242
:10451000514B564D20560414243C56041426511574
:104520004A0414243C5466210B1C514F14521C3F66
:1045300036650651154F2416513A3A51144A15233F
:104540004C2F4D432D1553655D412D350C4A4D249F
:10455000171D5D044E513E51114F0C381C495348F4
:104560004C65395D581D2C41080C243035516A15B5
:104570002724614151581004090C1D383D484C5402
:104580005D66154C534D0C151F3833512D0E4C499B
:104590002F24500C1018304E2711154D435D243E2A
:1045A00048344161652C5D090C111D24384C50586C
:1045B0006A4D53044C14243848516311312D1B1D8E
:1045C0001130183538484C500E48320416145665D0
:1045D0005D165023041424343C41561D301A0C3807
:1045E00015111D2F49560415416109381D303C49EC
:1045F000545E3D512F355165144C39043222211738
:10460000144D26154D1D3A4D3911575D4C04144279
:1046100004080C10181C202434383C4048505458CE
:104620005C320441303C11080C15181C2C34384401
:104630004C515A151104384D1D2F501716651D5138
:10464000090C1520242E4D4157140651110C1D58EC
:104650002430353840484D67390E0414243C564DFB
:104660004232493935142D09514F1D245804403C1C
:104670005F610C51330439084A15240A3015671557
:1046800050300C264D263C2C04080C1014181C2409
:1046900030343840484C50585C6066301526381726
:1046A0001D043D2130090C1115182C3438404E41A1
:1046B000385265411C3949322D21414F1526090CCC
:1046C000481D353A111F514D1604142024303C4822
:1046D000546665184116153C5206112D35151E42BB
:1046E0003442563D51312F4C135D094E391C264D35
:1046F00039351152232611314158493719044A4C92
:1047000016123C1C1751080D15191C242D354A345E
:104710005161304C110C24394954580A4D3A4D51CD
:1047200015651E1505243E2439231430113A151E33
:10473000045430162F4158383E4D36653E04145609
:104740005D61680C11181C242C30343941484C51DF
:10475000655606490939373414114E15484C4165E0
:1047600024181C3035393D51545F4D1542512415E4
:104770004222361D414C05090C10243034383D4886
:1047800051545D61674914410C4D33153A3B0C5847
:104790001C494C53394A1D0F3D5615313D663D1697
:1047A0004D532016513009341D392C104A512D4DCE
:1047B0004B152649264D1D0C376A336404142024FA
:1047C0003C5615261450080C10181C2D30394E1D5F
:1047D0005D4C0C3C43300410343A112F11412F1121
:1047E00014343F4D3137153C2D2604143C485624D3
:1047F00004143E1558323806283E1451233015351E
:104800000C083840051C2C484C62504D0715244AB2
:104810004C52154D39351341313B4C0C17154A1587
:104820006504243C48564952113D17155235410C38
:104830004A651657511B2D174D0A6530051C384D1A
:10484000153E1D5D110C051530393C4149532E2292
:10485000040C1520243438485341153B514A111596
:104860002D3B50101C30343840484E04143C560444
:104870000C3A155D0E51111E0409111D2C303948DA
:10488000531D35090C3A1608153F0414243C546690
:104890005104481A1C38314B4D3E51114130181407
:1048A000353B4D114B514D41142D335124303B328A
:1048B0000D1533384B431D152F651404243C563B0E
:1048C000650414243C56491911313B051C3C4956DA
:1048D000313A410C381E65246111304D2C581D3879
:1048E0004952153106150A201765515F090C4128F8
:1048F00004103035383D484C5054585F24162F046E
:10490000243E3C16243E651D080C11182430353910
:10491000484D51683E040C38154F65142648152E35
:1049200004081E1D390B150B541426150C40114C90
:10493000643004093C5154585F2D1E650414243D15
:10494000564D134C1D1830043439485A2C5C570E00
:10495000041524313C414C5214202430383C066567
:10496000163D1E4858153215112D3351411D3A4040
:10497000264D040A4D656110041424303539495F11
:10498000651D35245D1049090E23304C04081114AF
:1049900018243438404850590E0409141D30394940
:1049A0004C51630965240C1D3441485A5156065434
:1049B000165614304F4C13492E114D2431414939AC
:1049C0002D5A51115D416719113937144D32561D59
:1049D00051580C10283034393C40484D545C682400
:1049E00017511130583E1315263D0424172465171E
:1049F00051410C11651F0414243C54670414243CD9
:104A0000561433303F0415090D1C12381250116131
:104A1000340C1C3038484E3E240C10153035394AC1
:104A2000316151091C0C14353843513104351438A7
:104A30004A38410C1E48142614243E2F15090E48EE
:104A40004E540414243E103A116504141C51564D62
:104A500024162D11320543111C152F101526240480
:104A6000170A15482435653B142615482453653428
:104A70005D612D0C4C39410B1565261C2626155100
:104A80001D0910243035394E1141092C0C151D30EB
:104A900035393C484C5A513C243341314E51242D38
:104AA000110C170514243C56394B0C4D2339513148
:104AB0002F253351041126421C4A173D1426161D7A
:104AC0004D171D0E040C1420242C3034383C40505B
:104AD000545C66311B41112F244C0965583A4D52E4
:104AE0001A581B6515311153352D0C26314D53398C
:104AF0002E23345D301C2452651641300D4D3B4D44
:104B00001E1B153308415A314B2D161427153C1323
:104B10004D4941193953303C5035090C11181D3895
:104B2000414C5A394817314A0414243C5466503DCC
:104B3000300841355A383F0414243D673143564DFF
:104B40001C241738410E2465152F3A152D064D1DCE
:104B50004109182C0C30343948516A2D1C4A041470
:104B600020243C48545C664C0C1D2C1530343941D3
:104B7000533C041014303439484C534C410E4D18FA
:104B80003A04080C1014181C2024282C3034383C0B
:104B90004044484C5054585C646A5165244F531546
:104BA000511E31134D4939412D1137114D150C2628
:104BB0004D164D1151334E05365451135506483993
:104BC0001435322416534A514111192F34434841A8
:104BD0001815080C34101C2C30395304243C563161
:104BE0002D514B214F11384C514943500E650A1D30
:104BF0000D5D510B503B1124304C5C040914383DC1
:104C00004851563148653E514D151D2F2D564D1EAC
:104C1000041420243C485615512D4A3541510C119D
:104C20003A4D2F325105151C303848585D63241415
:104C300008573414680C103039494C52242C3C1558
:104C40006749141D3840115D4C3C51565131245D6B
:104C50000C111C3941494C5867394B381D493714E0
:104C6000093624413F4B15511B214F67192D4953DC
:104C7000154D07313D1B163949560200000000173B
:104C8000000300031F0A1F161F0A1904130A151236
:104C90000003000E1B11111B0E0A040A040E04006F
:104CA00018000404040010001804031F111F121F31
:104CB0001019151215150A03041F17150D1E151DC1
:104CC0000119071F151F07150F000A00001A00041D
:104CD0000A110A0A0A110A040115021F1F1F1E05E4
:104CE0001E1F151A0E11111F110E1F15111F050180
:104CF0000E111D1F041F111F1109111F1F041B1F5F
:104D000010101F031F1F011E0E110E1F05020E198A
:104D1000161F051A16150D011F010F101F07180782
:104D20001F181F1B041B031C031915130000000090
:104D3000007E0909097E7F494949363E41414122A9
:104D40007F4141221C7F494949417F090909013EB0
:104D50004141493A7F0808087F00417F41003040C7
:104D600041413F7F08041A617F404040407F020C70
:104D7000027F7F0204087F3E4141413E7F090909CD
:104D8000063E4151215E7F0919294626494949328B
:104D900001017F01013F4040403F0F3040300F3F55
:104DA0004038403F631408146303047804036151DE
:104DB000494543D5F08D14A1C881CFD9F1AF20006A
:104DC000080B0002020200000904000001020200B8
:104DD0000005240010010524010101042402060538
:104DE00024060001070581031000400904010002A8
:104DF0000A00000007050202400000070583024088
:104E000000000403090412010002EF0201404123E3
:104E1000368000010102030141726475696E6F20E2
:104E20004C4C430041726475696E6F204C656F6E27
:104E30006172646F0000343011241FBECFEFDAE0DE
:104E4000DEBFCDBF11E0A0E0B1E0EEEFFEE602C0B4
:104E500005900D92AC3FB107D9F727E0ACEFB1E078
:104E600001C01D92AA3CB207E1F717E2CCE1D7E2FC
:104E700004C02197FE010E946737CB31D107C9F7E3
:104E80000E9498300C947D370C940000CF93DF93F0
:104E9000DB0133E0B595A7953A95E1F7B695BA2FC2
:104EA000AA27B795A795A20FB11DA80FB91FAD5D91
:104EB000BD4F67707727215011972F3FA9F0FA0156
:104EC000E20FF11DE491F0E0062E02C0EE0FFF1F8D
:104ED0000A94E2F78C918E2B8C93ED01C058DF4F32
:104EE00088818F2B8883E7CFDF91CF91089580E071
:104EF000E3E2F2E081118FEF0024819381938193AB
:104F000081930394D1F708959091C507982329F4CC
:104F10009091C407982381E009F480E00895FC0192
:104F200080912202882311F13FB7F89482E08093A8
:104F3000E9002091F200822F90E01816190614F46F
:104F400081E090E0882339F0289844E640932102DC
:104F50004091F1004083222339F02091F200211189
:104F600003C02BE62093E8003FBF08958FEF9FEF2B
:104F700008952FB7F89483E08093E9009091E800BA
:104F8000892F807295FF04C09091F20080E4891B04
:104F90002FBF08958091190281110DC082E0809386
:104FA000150284E0809316021092180210921702E4
:104FB00081E08093190285E192E00895CF93DF9319
:104FC0001F92CDB7DEB76983DC01ED91FC910280C1
:104FD000F381E02D41E050E0BE016F5F7F4F099506
:104FE0000F90DF91CF91089583E08093E900809145
:104FF000F200882319F08AE38093E80008950E9464
:10500000B92790E00895CF93DF931F92CDB7DEB715
:10501000FC018485958597FD08C02FEF3FEF35870C
:1050200024870F90DF91CF910895CE0101960E94C1
:105030008F27019719F4898190E0F3CF8FEF9FEFCD
:10504000F0CF0F931F93CF93DF931F92CDB7DEB7AF
:105050008C01FC018485958597FF0BC0CE010196DC
:105060000E948F27019771F4898190E0F80195875C
:105070008487F801848595850F90DF91CF911F91EA
:105080000F9108958FEF9FEFF1CFFC0184859585F7
:1050900097FD0BC09FB7F89482E08093E900809160
:1050A000F2009FBF90E0019608959FB7F89482E0C8
:1050B0008093E9008091F2009FBF90E008954091B5
:1050C0000F025091100220910D0230910E024217F2
:1050D0005307B4F49091E8009570E1F39091E800E3
:1050E00092FD19C08093F10080910F0290911002FF
:1050F00001968F739927892B19F48EEF8093E8001E
:1051000080910F029091100201969093100280936B
:105110000F0281E0089580E00895EF92FF920F93CF
:105120001F93CF93DF93F82E192FE62E042F81E0E3
:10513000860F880F0E945F2883E00E945F28CF2D92
:10514000D12FEC0EFD2EF11CCE15DF05B9F007FFB7
:1051500013C0FE0184910E945F28182F80E00E94F6
:105160005F28812321968111EFCFDF91CF911F918D
:105170000F91FF90EF9008958881EDCF81E0F5CFFA
:10518000DF92EF92FF920F931F93CF93DF93D82E6E
:105190008A01EB017B01E40EF51ECE15DF0559F007
:1051A000D7FE12C0FE0184910E945F2821968111D2
:1051B000F4CF0FEF1FEFC801DF91CF911F910F9137
:1051C000FF90EF90DF9008958881EECF0F931F93AB
:1051D000CF93DF931F92CDB7DEB782E0898342E49D
:1051E00050E060EC7DE480E80E94C0280E94CA275D
:1051F000DC0112960D911C910115110589F0D80161
:10520000ED91FC910280F381E02DBE016F5F7F4F35
:10521000C801099597FD04C0F80100851185ECCF00
:1052200089810F90DF91CF911F910F910895615067
:1052300030F02091F100FC0120830196F8CF2898EE
:1052400084E68093210208953FB7F8948091050287
:1052500090910602A0910702B091080226B5A89B82
:1052600005C02F3F19F00196A11DB11D3FBFBA2FF8
:10527000A92F982F8827BC01CD01620F711D811DB8
:10528000911D42E0660F771F881F991F4A95D1F73D
:1052900008958F929F92AF92BF92CF92DF92EF923A
:1052A000FF926B017C010E9424294B015C01C11417
:1052B000D104E104F104B9F00E94242968197909A4
:1052C0008A099B09683E73408105910580F321E0BE
:1052D000C21AD108E108F10888EE880E83E0981E12
:1052E000A11CB11CE4CFFF90EF90DF90CF90BF9056
:1052F000AF909F908F90089565E070E080E090E01F
:105300000C9449298F929F92AF92BF92CF92DF92D5
:10531000EF92FF920F931F93CF93DF936C017B016A
:105320008A0180910B01882309F45CC080912202DC
:10533000882309F457C08091140280FF05C0809132
:10534000E00082608093E000E801B12C8AEFA82E93
:1053500093E0892E2AE3922E209711F4BB20D9F1F5
:105360000E94B92781110AC0AA94AA20D9F161E04C
:1053700070E080E090E00E944929EECF8C171D0676
:1053800011F00CF08C2F9FB7F8948092E9002091D7
:10539000E80025FD02C09FBFDFCF282F30E0C21BF1
:1053A000D30BF701815020F041914093F100FACFE7
:1053B000E20EF31EBB2021F09092E800B12CEBCF5F
:1053C0008091E80085FDE7CF9092E800BB24B3947C
:1053D000209709F3F3CF5D9884E6809313021016AB
:1053E00011063CF081E090E0F6019383828310E0A7
:1053F00000E0C801DF91CF911F910F91FF90EF90D6
:10540000DF90CF90BF90AF909F908F90089580389D
:105410009105B8F460347105A0F420E191E061FDDC
:1054200094E060FD990F62FD9295687F269FD00100
:105430001124A80FAD5DBD4F8C91442319F0892B29
:105440008C93089590958923FBCF0895CF93DF9394
:1054500026E0CAE0D0E0E22FF0E0E450FE4FBE01CB
:105460000E945337805D8083CB012150009799F7CC
:10547000822F90E083509E4FDF91CF910895CF927D
:10548000DF92EF92FF920F931F93CF93DF937B01F5
:105490006A01E9010B5F1F4F4991442379F04F7175
:1054A00085E04802A0011124445D524B25E0B6017D
:1054B000C7010E944627E00EF11EEECFDF91CF918B
:1054C0001F910F91FF90EF90DF90CF900895EF9292
:1054D000FF920F931F93CF93DF93EB018A01790122
:1054E000F70141917F01442371F04052F3E04F02F4
:1054F000A00111244558534B23E0B801CE010E946E
:1055000046272496EDCFDF91CF911F910F91FF9009
:10551000EF9008952F923F924F925F926F927F92F9
:105520008F929F92AF92BF92CF92DF92EF92FF92B3
:105530000F931F93CF93DF9300D01F92CDB7DEB7A9
:105540008C013B0149015A01CB018455994F2C0133
:10555000DC01AE5FBE4FBA83A9831B01BFEF2B1ADC
:105560003B0AE091BC07F091BD07EE0FFF1FE95B1E
:10557000FE4F0190F081E02DE00FF11F24912B836D
:10558000E22FE595E595E05CA981BA81EC93F0E026
:10559000E451FF4FA081B0E0A50194010E94FB36C9
:1055A0006B017C01BB81B0FF28C08091B607909150
:1055B000B707019709F078C0E5E06E167104E9F4C9
:1055C0008091B8079091B907A091BA07B091BB0735
:1055D0000197A109B1098093B8079093B907A093E7
:1055E000BA07B093BB07892B8A2B8B2B31F46EEA59
:1055F00077E08CEA96E00E947637A091BC07B091E4
:10560000BD07AA0FBB1FA95DBE4FC8019695879520
:105610009695879526E0289FF001299FF00D11248B
:105620008D919C918E0F9F1FF801E370FF27E3304F
:10563000F10509F05FC0FC01319634913296449136
:105640000596FC01849132953F70407F342BF0E148
:105650008F9FC001112488279F70832B009729F00A
:10566000A7019601B1010E948A2A0F5F1F4F2B816B
:1056700021FF77CFF201EE5FFE4F10820F900F9067
:105680000F90DF91CF911F910F91FF90EF90DF90DE
:10569000CF90BF90AF909F908F907F906F905F90D2
:1056A0004F903F902F9008956091B8077091B9077F
:1056B0008091BA079091BB07A70196010E940E370F
:1056C000672B682B692B09F098CF8091AC079091DC
:1056D000AD079C012F5F3F4F3093AD072093AC0780
:1056E00053E0880F991F5A95E1F76EEA77E08455E9
:1056F000994F81CFEE0FFF1FE80FF91F859194910D
:105700009F70ACCF9093B7078093B6071092AE0707
:105710001092AF071092B0071092B1071092B20723
:105720001092B3071092B4071092B5071092AD070C
:105730001092AC07019709F052C08091BE078823F0
:1057400009F446C00E946E362EE131E040E050E0A0
:105750000E94DC366F5F7F4F8F4F9F4F6093B8077B
:105760007093B9078093BA079093BB071092BD0757
:105770001092BC0721E030E040E050E070E060E0D3
:1057800089E99AE00E948A2A8091BE07811130C07F
:1057900081E090E09093BD078093BC0721E030E06A
:1057A00040E050E070E060E08BE893E00E948A2ADD
:1057B00082E090E09093BD078093BC0721E030E049
:1057C00040E050E070E060E087E597E00C948A2AC2
:1057D0000E946E362EE936E040E050E0B9CF4093AB
:1057E000B8075093B9076093BA077093BB07BECF51
:1057F00008958F929F92AF92BF92CF92DF92EF92D5
:10580000FF92CF93DF93CBE0D0E086E0C82ED12C7F
:10581000E12CF12C0E946E36A70196010E94DC3625
:105820004B010E946E36A70196010E94DC36D4011E
:10583000A157B94F2C91FB01E157F94F80818C930F
:105840002083219739F7DF91CF91FF90EF90DF9080
:10585000CF90BF90AF909F908F900895DF92EF927E
:10586000FF920F931F93CF93DF9300D000D0CDB75B
:10587000DEB780E091E00E94C636898381E091E046
:105880000E94C6368A8382E091E00E94C6368B83EE
:1058900083E091E00E94C6368C8389819A81853CA1
:1058A000904931F085EC90E99A8389831C821B82B0
:1058B00080918B0690918C062B813C8128173907AB
:1058C00010F49C838B83CE0101967C0100E011E0F3
:1058D000F701D1907F01C8010E94C636D81621F089
:1058E0006D2DC8010E94CE360F5F1F4F0430F1E0CE
:1058F0001F0771F78B819C8190938E0680938D0694
:105900000F900F900F900F90DF91CF911F910F91FB
:10591000FF90EF90DF900895CF92DF92EF92FF9289
:105920000F931F93CF93DF93809164008E7F8093BA
:10593000640080917A00806480937A0080917A007C
:1059400086FDFCCFC0917800D09179000E94242977
:10595000AB01BC01CE01B0E0A0E0DC0199278827B3
:105960008C019D01040F151F261F371FC901B801A7
:105970002091640021602093640061157105810508
:10598000910511F00E94BD3640E050E0BA0181E07F
:1059900090E00E94822BCCEAD6E0C12CD12C76017B
:1059A000C394E991EE2371F00E2E000CFF0BE4512D
:1059B000FF4FA081B0E0A70196010E94FB366B016A
:1059C0007C01EFCF6CEA76E08FE896E00E947637B4
:1059D0001092A9061092A8061092A7061092970698
:1059E00010929F060E94F92BB701A60182E090E079
:1059F0000E94822BF090AC07FA941FEFF11671F120
:105A0000CCEAD6E0E12CEF14BCF78E01085F1F4F03
:105A1000FE0101900020E9F731978E2F8C1BF801D1
:105A200001900020E9F73197E01BE8175CF4DE01F4
:105A30005096F801EC17FD0771F082919E919083CA
:105A40008C93F8CF8E1307C0B801CE010E946D373A
:105A50001816190664F3E394E801D5CF1092840672
:105A60001092830610928606109285061092870681
:105A7000109288068FE097E290938A0680938906B9
:105A8000DF91CF911F910F91FF90EF90DF90CF901A
:105A900008951F920F920FB60F9211248F939F9328
:105AA0008091E1009091E100937F9093E10083FF6A
:105AB0000FC01092E90091E09093EB001092EC007F
:105AC00092E39093ED001092220298E09093F00000
:105AD00082FF22C093E09093E9009091F200992315
