:100000000C9494240C94BC240C94BC240C94BC2418
:100010000C94BC240C94BC240C94BC240C94BC24E0
:100020000C94BC240C94BC240C94982B0C94072C9A
:100030000C94BC240C94BC240C94BC240C94BC24C0
:100040000C94BC240C94BC240C94BC240C94BC24B0
:100050000C94BC240C94BC240C94BC240C94392E19
:100060000C94BC240C94BC240C94BC240C94BC2490
:100070000C94BC240C94BC240C94BC240C94BC2480
:100080000C94BC240C94BC240C94BC240C94BC2470
:100090000C94BC240C94BC240C94BC240C94BC2460
:1000A0000C94BC240C94BC240C94BC2400000000D0
:1000B00017000300031F0A1F161F0A1904130A154D
:1000C000120003000E1B11111B0E0A040A040E0479
:1000D0000018000404040010001804031F111F126C
:1000E0001F1019151215150A03041F17150D1E15DB
:1000F0001D0119071F151F07150F000A00001A0020
:10010000040A110A0A0A110A040115021F1F1F1E00
:10011000051E1F151A0E11111F110E1F15111F0597
:10012000010E111D1F041F111F1109111F1F041B98
:100130001F10101F031F1F011E0E110E1F05020EA0
:1001400019161F051A16150D011F010F101F07188C
:10015000071F181F1B041B031C031915131F1B115A
:10016000030418111B1F02010210101000000000F0
:10017000007E0909097E7F494949363E41414122B5
:100180007F4141221C7F494949417F090909013EBC
:100190004141493A7F0808087F00417F41003040D3
:1001A00041413F7F08041A617F404040407F020C7C
:1001B000027F7F0204087F3E4141413E7F090909D9
:1001C000063E4151215E7F09192946264949493297
:1001D00001017F01013F4040403F0F3040300F3F61
:1001E0004038403F631408146303047804036151EA
:1001F000494543D5F08D14A1C881CFD9F1AF200076
:10020000080B0002020200000904000001020200C3
:100210000005240010010524010101042402060543
:1002200024060001070581031000400904010002B3
:100230000A00000007050202400000070583024093
:1002400000000403090412010002EF0201404123EF
:10025000368000010102030141726475696E6F20EE
:100260004C4C430041726475696E6F204C656F6E33
:100270006172646F00000002CA0214AC1126E6012C
:10028000167D0F491E033B690C5400004D0000050C
:10029000000017E0165629020C000031FA031EF088
:1002A0000331000053EB08046702146D09189A0D1E
:1002B0002004022489173002013CF309489E0D4CAA
:1002C0006D09507711548002666108062C12242CA7
:1002D0000217AF043C2902671E034C5D120C1E037B
:1002E00049000039000035B9001E000005940D3AA0
:1002F0000000652C020600004D510564F0035460B7
:100300000804A10F0995000DE80D151E0319830BB4
:100310001C810A241E032DD603358C0A4856095128
:1003200037115A1E031529020CE40350D31524A8D3
:100330001630AF046400004D1E03541E033F00003E
:1003400051C20533B904045F0A09621211860C1404
:1003500015161D61002C1F03308B10391C023DEA5D
:10036000064812084D251151290269D30636420666
:10037000512011048E1115D00D1D230C24B606300A
:10038000950F382D1148F20A4C5208632C021400C4
:10039000001100004BD71615EF1526A800390000F4
:1003A0004DC900160000650000410000694F06615C
:1003B0000C055012160C4E09180000155C0B3E1E61
:1003C0000324860F049A065404095EDE03185D12A6
:1003D0004C00006500001D1E03515E1330240F38D1
:1003E0009A124B00004D00000929025029020CE42A
:1003F000031D00006500002D1E035D000041E403A5
:1004000011E508182B0F217E03317B023555013988
:10041000C50C481B015481056AC60A44BF12042951
:100420001115150C3A1E031529024CEF15249A03D9
:100430000C42014A00004D00003DC900145A080456
:100440000D0421120D522A073E670C061E0309E611
:10045000004D8A0A140D041D0B08310D04390000EB
:10046000654F0649000041FA03074D0D40C90016CB
:10047000AD05241E032D4F061E0F11560F00146DDF
:100480000751E600305C0939AD164A00003900001A
:1004900031FA033E190C3E000015E1063E251250CC
:1004A0001E0317000021C90016520823290230C973
:1004B0000016000049CE0305270D14D70824750344
:1004C0003DB91356000065EF15242C0217AD0D50F1
:1004D00000001300004D0000154F063000003B00E7
:1004E0000011F0031629023829022C9D1224A105BF
:1004F0000CEB1340910648A60F179807261E0354CD
:1005000000003DB80614C802664F063000003900EE
:100510000019000041E7081E000015AD0524000089
:10052000310E053EBC11041E035300004D000005B2
:10053000A8001C3E1717000049A800515D121E00BC
:10054000003D1E03253A1614CA02044610484C0406
:10055000561E032DA4015027125400004DFA033EED
:100560000D04108E083F000005A8004300004DD385
:10057000060C1E033DE60F15950B260000210F000B
:10058000141E03252C025400005DE4031CAF03611C
:100590009F054D1E170CFF0F1197052CA906315C06
:1005A0000B35BD0E3857063D881341681448A30C1F
:1005B000530000052F0D244F0648E403322C02148B
:1005C000290241260F4D0000091E03534F06391E14
:1005D00003492C02560000650F004C140604B900B4
:1005E000100D0C245A0B31981535721539BF12486D
:1005F000C70B5100005B00002529021129022CB213
:100600000C046B0309ED0F0CD2131511141D7009A6
:10061000302C10358601391D033DF501416B13481F
:1006200043104C4B0A580000214F06524F06151C30
:10063000072F120D50301416A10C4B0000153C036F
:1006400026000005D3062F00004DC90015A8005252
:10065000220D1E0000115D120CFA033C29021C4FF2
:1006600006513A1604ED0A3800004D0F001600003E
:10067000514F0612F6010C00004D00001F00004D06
:100680000000652902120000511E034E1E03316155
:10069000001102002C6100358A074900004D00005E
:1006A000391E03531E0319F6016800004D29023A52
:1006B0004F064C0000210000533F060C5D124CE534
:1006C000084A0000110000351E03511E0341C414E6
:1006D0003861080E00004DF30616000065B00D2CC1
:1006E000240F4A00001D0F00182902115E1330E587
:1006F0000814C900393B01530000152F12300C05B6
:100700003A00003DAF041700004D1E031500001D08
:10071000E4033AE403200000612912048115093939
:10072000130C6B1411240F1423101819171D780EB5
:100730002443112C5C0231DA1634F4073911093DD7
:10074000961141C30849870E4D410F517614543319
:1007500008581D0E5DA7006500006BFA0305CF0069
:10076000202C023F00004D1E03511E030521070DE2
:100770000D0830E4033B00004DFA033DE40310A8EC
:100780000040580B20850E30D7135E2902143C0E12
:1007900010E0133EC90015000005C90026290230EB
:1007A00000001529025000003B0000512902585D4D
:1007B000120C000055E7081C230C4925164E0000BA
:1007C0001DC900152C020400002DBF12121E030DBE
:1007D0001E031D4F0641150905921009A50411308D
:1007E0000320840C25B9002C0E10310D0535DA0FCD
:1007F0003932023D201749370A4D061651860854F2
:100800001D005812045F000005000015C60A44FFD1
:10081000012D0E0A48C7145300005198154ABF0B0A
:100820001B000025FB025800001100003B000021C6
:1008300000001500002D7313181E031D00004D2924
:10084000020EE7081CA10F241A102FDC133C000035
:100850004DAD0526850130C9001700004D1E03155A
:100860005D12061E0331000011000039FA033D5DE0
:1008700012535C0B540000052C0216000065890C15
:1008800006FA033C000055D306341E031D8E0805EE
:1008900070130D6C0E2CCA0B30521739D81341103F
:1008A0000A4D150A51C40E61680F68EF15243E17F2
:1008B00017ED00575D1250650604AE0514FE0C24BA
:1008C000FA143C550E54BA12660F0038A10D5000B0
:1008D000001D290236000005000035E60F321E0318
:1008E0002D541631AE0414CC09265D080AE4032405
:1008F000000017A10D0E5C0B5400004BE60F3E00EC
:100900000065D51504A10914C5032600004D00009B
:1009100051000049C900140B0811000039000031D2
:1009200000002F0000050000195C0B342C0224612C
:1009300000651117146402307E0B397513417A106B
:100940004800105000001D61080EC9101C1E03064F
:10095000AC11160E0922CA02141E033DAF04243A3C
:100960001604A9033233093E150C58B9002CF900BE
:10097000104A0D1C320430BF0434C70E38AB01409E
:100980007E06488C004C64095200000500001100EE
:100990000015AD05240000656907541D013C0000E9
:1009A0004D0000514F06324A0A2F00002100001D61
:1009B000FA0324E4034D1E035D29022CC00F050B2E
:1009C00016083A150DC61111050C15860A30FE08D9
:1009D0003924153C781741A91349390753CA021421
:1009E000F60324570B3E0000150000390000417E3D
:1009F00005044C0436000005000015BA0A248401E1
:100A0000481A10632C023C000015F10A3200005114
:100A10001E03110000095D124E00004D510515B373
:100A2000002600004DFA03040000612902100000B6
:100A30006929022CE508183E17154F0658FF020DCC
:100A400066131CC50531140D34C20939BD10414768
:100A50000A48BC0751FA03661E03311E0315000045
:100A60004BAF0324DB153C0000050000670F0014AA
:100A700000001D00002D2902374B0A26E508180F3B
:100A8000005600004D1E03551E033D0C0408E713DD
:100A900015610E245516340C066600004D2C021408
:100AA000D30648920A1DCB045600001100002D0009
:100AB00000412F0E3300004D000005961014DB0B93
:100AC000254F063E00004D1E0315E70804B9003609
:100AD0000000410F000E1E03540000533C0E5CD278
:100AE000153E1E03250000411E031D3A154C5110F2
:100AF000095C040C030818BD0B30DF0935210439EB
:100B0000550D487A0B514902610D046600004D00F5
:100B10000065C900160F00277F04541E032700003C
:100B20002100001500000900001D000037271217E2
:100B3000000015E60F42020C204D0D48900A681E79
:100B400003551E033F00004DE5083000001D000066
:100B5000390000411E002D86113DF310480000159C
:100B60001E035F880C145105072902142902481E30
:100B7000003251012D00004D5105061E0321E600F3
:100B80004D000065000041090551280C04290208A8
:100B90003E060C1B0610B80F145C17248604305F49
:100BA0000A358C1339CA0649150C588E085F0000A7
:100BB0004D00000500002500003D290252C9001427
:100BC0005C0B56C90015000065EF15262C06340095
:100BD000004F0000157C0B330000510000350D0460
:100BE0005A2C02144F0648270F26000015E710065E
:100BF00000004D290258FA031C0000394F061B0063
:100C00000031940D3A6605042C025600004D630233
:100C1000390F004B00001D290238290215F10A2C5A
:100C20000000052C023E1E03391E030F870C3CAF4B
:100C3000042600000500001551053E000025C900EE
:100C4000155105061E03313A091C6E094E5D120C42
:100C5000120D21220D52E4033500005161080E0FE0
:100C6000003C510514000009290250D313058103EB
:100C70000CDA1111D20719DA0A1D4D1130B01035F6
:100C8000811639EC0D41020E4CF8035ACA0514BC0A
:100C90000E240F053E0000111E035D240F145E1389
:100CA00030240F3A00002D1E033B51011B00004D64
:100CB0000000650F002600004DA8000ABF0B0800C9
:100CC000004D1E035761080C00005100003B9F05BA
:100CD0004C0B082F5D120C1E002CC81538FA163D5F
:100CE00000005FC900150C0526CC124A510504000E
:100CF000004D0000154F0632FA032400002D2C028F
:100D000015E60F2300004D1E0331000011000019ED
:100D10001E032D371608B9005A2C02141E03191E83
:100D2000034129022C96090CEF1504D90E11F90381
:100D300030831634950D393E143C610849B8044D92
:100D40007B0A5300002129021600004D000051EFDC
:100D500015241E03140000415E1330090A35830870
:100D60003B0000150000314F0650D306104A1527EE
:100D7000AF0454E1063E00004D1E03094F064A121F
:100D800011501E031600004D51053C9F0530B20660
:100D9000146A14242A07667D0F2329023829024881
:100DA0000E050DEA073CFA1650FA16560B083100EC
:100DB000002D00005D4F064A0000250E054AE60F93
:100DC00015A8001E3A091C940D382C021461080C59
:100DD000E6004CDD1153000015000025A8001200AC
:100DE00000155D120C510524FA1639F41268000042
:100DF0001D00005100005F0000652C0214C11504A5
:100E000050093E940D4A060F161E03310000151EB0
:100E1000031B500E5400004D000005FA0326550B2D
:100E20001500003F000021281705020B15AF0B2409
:100E300067143DE102487003540D0467E5083C4F18
:100E4000060A4F0611000037AE023C910827000049
:100E500051000041FA0317290238F0034A3E1217E5
:100E60001A123100003BC10304E3160CA00C150854
:100E70001420190524290234F60138B00948DF038B
:100E8000517B035451056600003D4C040A940D3E0D
:100E900000004D4F06515C0B3ECF00302C02160077
:100EA00000155D1250E6004DE60F35000039EF15D4
:100EB00026000015C60A44230D0C200D4A00004DE3
:100EC00000002DE7081E00004D00001100003DC984
:100ED00000244F0648CE001700004D00001D660C90
:100EE00038000005EF15242C0217F6102400004DE1
:100EF00000001500003F00004D00001D3210224D83
:100F000003060000110000191E033BFA03041E0330
:100F100055AF10500D040C6F1538AE0D5A0000215E
:100F20001E035D5D124DD014089A050CF70011B731
:100F30000E18E8041D7F0A25D306294C0D2C790ACA
:100F400030351435C10B39ED0D417A034827105166
:100F50006609673B03260F00380F002629020C00A4
:100F6000001D0000392C0214E6004C9B07530000C2
:100F7000490000094F06101A101CE6004D6300518D
:100F8000000039C9001400003563002F610814A85F
:100F9000002FF80214BC0E3C361554000065FA030D
:100FA000061E034CC900140F0042C9001522123658
:100FB0001E0315930F38EE021200004D00006594D9
:100FC0000D380000351E032DC90030671341E508B8
:100FD000188E085D3A090C6D071DE01221FA034BCB
:100FE000C90015EF15242C02060000054F0614FB5E
:100FF00002361E030961083A000055AF04160000CE
:101000004D000051A80042000011920A41CD092470
:10101000E813314B0A3700004D5105244B0A422991
:10102000023051050450051600002100000900009F
:1010300061510530000041C20304C90A0DE41311D7
:10104000A1051DB80A240F07355E1238E401499A3C
:10105000124D840551D40654070059150F5D5D0FDC
:1010600065F6016A00004D5105154B15251701560F
:101070000000510F001A1F05140000211E0353F039
:101080000354000063000019000061E4030E000037
:101090001D2C021554090C7D0F4CA8135200005151
:1010A000AF034F1E03242014145305660000214F84
:1010B000064F00004DFD0C08FD0635BA0043940DA7
:1010C00038F00354680C3E00001529024017120541
:1010D000A10D2E0000492C020629020C000031AEA1
:1010E0000D3A00002500001500003DE403432902ED
:1010F00058000035000041C10D3835114A00004D3F
:101100006A1204280911BF14140F0024E10428FBFB
:101110001134210B3D29026953055600004D0F0083
:101120003800005F2C023C00005F4D035600004D6C
:10113000D3061D0000050000250000170000210057
:1011400000151E036500000900001D0000610E056A
:101150000C0000417E07045D13248E0F30AD113961
:10116000FD113DBE0C4967054C740E5551055E5D81
:10117000122F1A07275305265B01144D033EE40383
:1011800048210B5400004D0000155D120E40000D6B
:1011900000004D0000239F050C4F06523A16150023
:1011A0000027100E3A0000095E00145E13301E0086
:1011B0005A00001100006500005D000041ED00567E
:1011C000120D11AF0F3A00004DC81104CD09561C85
:1011D0001217000015510532680C4A1E0321000049
:1011E0004DE4031012021C1C1324CA0256E6150417
:1011F000710B14180124B7033C070655D6155C265D
:1012000015670000151E034C75080D0F0004D3066A
:1012100050D31041D0103CFB0248FA035F05003C5C
:10122000BC01042E1008EB020C220510BD03147C37
:101230000F182E061CC10E240100280F0B2C9C1425
:1012400030AF0234C51338050E40AC00448310485B
:10125000BD114C0C1650991354BE1658D6005C4460
:101260001460E00F665D1704000033C909390F00F0
:101270004E2902580000095D120C51053CC90F119E
:101280008D0815E7001D7103244E0D316A0E35BF20
:101290000E39140D417F154969014D9A07512100FE
:1012A000540003659D076861085EC0164F00004D3D
:1012B0000000111E03491E03534415091A0F0C6246
:1012C0000611D30719E60124F6012C221431290254
:1012D0001C00005DCF04354810393911413B0949E4
:1012E000D1084C6C0751450354CB14586804672946
:1012F000021C00004900003B000015E7086AC11508
:101300002600004D0000250000571E03490F004C29
:1013100000002D1E03190B085300004129025C0038
:1013200000492C025600001DFA0304000019A90010
:10133000480D045A00005100002D00001500006502
:10134000EF15265E00150000651E032D500E268544
:10135000080400001500006767133E0000514F06A7
:1013600017370C04A406142D0824870B3D3D165492
:10137000770D671E0309AF040629023800000F002D
:10138000000900001DFA033CD306349810040E1720
:1013900015E508249F1630B900388B0D40930B4893
:1013A0009A124C0904511E0754B3105850085DCBD3
:1013B00002620F00381E034E2902240F0017890C09
:1013C0002482074A000051EF152400001500004D4B
:1013D0001E03335C0B16000051DE0318C60A44AA34
:1013E00005340605383F060C0000434B0C14AF04CF
:1013F0003E54013E0F00240A0B14BC0A3E0000516B
:10140000FA163800006500001900002DE601151ECF
:10141000034F00002DA311044B041458013F4F0645
:10142000482C022600004D0000050000151C072F67
:101430000000510000113F060C00006500001D0077
:1014400000415C0B34610839D21656260C36000078
:1014500005E1063E000005000025A10C1500002D49
:1014600029024D8A0D316803433F11041716149564
:1014700006240F0C3CBC1154BC136600004D4406FE
:101480001200005100001500000BFA1638D3064870
:10149000CE0D142F10340F004D29021300005D51A2
:1014A0000517A10D3300004D0F00380000513A0917
:1014B0001E1E0349000039E4030E00004D1A1052AD
:1014C00000004D510514B9001E1E0309610061FAA8
:1014D000031429022CE50818E5050DE314112B046B
:1014E0001DE51431EF06353E10381E0340E3134965
:1014F000BC164D9F055200006500002500003F000E
:10150000003D2C02141E0324B20C0473171D4B0A59
:101510004A00002DA00F4800000500003B1E0315E7
:1015200029021E0E0548A80014B71324E5043E1234
:101530000D501E032F9F050C1E030500004D0000DB
:101540003F0000659F053200004D5D1714AF042475
:10155000A20F30F7033CDD0D540000514F064A7EC8
:101560000E3C000067A30F52000005C900150000E3
:101570002D0D0410EC164007004B0000115D120CFD
:101580000000311E0341B0134900004D000021004E
:10159000003B00002DBC1304BC133E0000250000DE
:1015A0001529024A0000211E03151E036500005D77
:1015B000D306101E033CE50818D3061D05000429B8
:1015C0000209190C0C271424AE0D30C60035400654
:1015D00039C604419A1648C70A4C0C0550390854BC
:1015E000E413590E056A00003DD3062651054A1E34
:1015F00003540000411E03111E0339960B046209B7
:1016000009AD0C14D8131CAC0524D3064E9815480C
:1016100000003100002FEF15240000210000170DFD
:10162000046B0000518308240000153A16060000E0
:1016300005FA03270000511E031DC114398A134106
:101640003D124A260E05161114AD0024C8003EBFF7
:1016500010046208143F1620BB153C5F0448FC10C0
:1016600056000051FA033C290248A61115120F3A00
:1016700000003DC900152C0204EF09240300315C71
:101680000B6700003DC9001427002400004D000036
:10169000372902500000334B0A58CD0930000005AD
:1016A000F003563E031A38160C6A0B302702341B1F
:1016B00009399E124CE4030A1E0325F11204B800F6
:1016C0001473133E00004929020E7C06080D09140C
:1016D000E4033B00004D00003D0000390000314FA5
:1016E00006484F0609ED0315540C37040824000082
:1016F00007000011FA0304660C4A00004D1E031592
:10170000000051AD052400001D0D0438E0133E001B
:10171000004D5E131632163800005F2902101E03BA
:101720005D29022C6E17091F170CB7021DA6133571
:1017300091134B00003D0000310000110000495D95
:101740001252BD1317DB151400004DEF15260000D3
:101750003929024B00004D1E12042F123E00004D8D
:10176000E4031C4F06084C04183C0E30000005C969
:101770000016220D421E0315B9004F290207000072
:101780001129025800005500001900004D000049C1
:1017900000003B0F00210D041E0000050000251E67
:1017A0000356000005C115090000150000430000A4
:1017B0001D0000357A14320000150000652902264C
:1017C000940D38D3063700004D0000654F06160013
:1017D00000351E032D67134A00004D1E03051E032E
:1017E0002D1E033FC01204900514CB0524E9053CCF
:1017F0000B11565105332C0214D51607C900380FAA
:10180000000C0F004A00004D051110C2051E00001B
:1018100005000065E4033CE70808D31315AF032671
:101820002C02141810242B0652A60F05AF103E0FE1
:10183000004C1E03511C0733E40320F00334610DF8
:10184000044016141C0624C8013C7207542B0D6674
:1018500000004D0000212C02060000510000350060
:101860000061E60F0A2C023C2C02161E03151E0313
:10187000551E0305240F3829022E0000051E0353B0
:101880001E032D00002500001319140CA8091014C4
:101890000E1460091DE30C30B40739610040C50027
:1018A000487E0D4D990751170C58D7136B240F32F2
:1018B000FA0336250E54CA0216AA120C00004D0077
:1018C00000170000151E03511E031300001DFA032C
:1018D0003C1E03111F0D0CA814185716306E03354B
:1018E000AF0F39510648E3034D8F065182056A0058
:1018F00000311E03370000254F063D5C0B067200C9
:1019000004691014CE0924E50A3C560C48EC145422
:10191000B61067000051EF1524A709083C0E5C00C3
:10192000004D00006500003B0000350000410F0045
:1019300054500E09940D1CDB133CBE044EAF043A08
:10194000BE0D21C9001500004D5D120EEF1524C01B
:1019500006175D124C00001D00006963005DAF03B7
:10196000611E0340640E0599120DBE12105F14151E
:10197000650125390F31C715346F0739471044A861
:101980000C499A125175015B00004D0C0614610F51
:101990004A00004D00003D00006500002D1E031DA3
:1019A0000D0438AA0311A112170000252902305D89
:1019B000120C29024829022000004DFA03042C02CF
:1019C000163F060CA8132C9D12243C0C090B0A1080
:1019D000180B15E30118B2161DB11030CD1235D712
:1019E0000639541440E10E4C2311531E03510000DC
:1019F0004D00001500001B210B5600002100004D7A
:101A00000E054A00004D00001500003D771708D371
:101A1000061F63001D4D0D30461556000051000095
:101A20000900006500001D00005D9F05353F064C64
:101A3000A10F580000391E032F0A0A10F3013B2999
:101A400002580F001851053200003D1E03540000DB
:101A50001700004D000065D3061CAD05251E032DA3
:101A6000EB0B0CC21510DA0E15500739E403507653
:101A7000175A1E03311E035129021C2C02171E0384
:101A80001900000500005300004D510514AC11244D
:101A9000D3064A4B0A2800004D0000670000257D50
:101AA0000E33000021E110241A0C4D1E0315C60A46
:101AB00046A10C1500001D1E0311C60A444F06085E
:101AC000B9002C78120C340B18430024310B30B2BF
:101AD0001335C31039210C3D3C1041A310492C147F
:101AE0004CF60151EB00544A0460F20B6700004DC4
:101AF0000000111E034900003B2212123A091DEAA0
:101B00000F515E1332000011940D38E60F338E072B
:101B1000170000110000150D0024FD1338E40353D5
:101B2000150C4E000021290258E40310E508181690
:101B30000708310A0DA60F15340C1DDC1524970E6D
:101B400031150E353503398B0C3C930F40A40F49EA
:101B500022174D4601514C075462005D220D66006C
:101B600000094F064A2902241A10090000512C02CC
:101B70001600003DE10614EE07243B1655E106066B
:101B8000F80C1429021200005100001D51053E00FE
:101B90000015671326120D0800002FB8153A000033
:101BA0004D00000500003DFA0324F00356000065D7
:101BB000E1063F000049990C04A811147A0124C2DF
:101BC000163CFE0E56C900150000210000670D04EA
:101BD0001CE4036800004D1E032F701534B107414B
:101BE000F00306000005A010150408258A0C28261D
:101BF0001030A9143E0000050013530000054F06E5
:101C00003A0013114F064A1E031529024C990F3250
:101C10004F06630000155516361E030D0000110017
:101C2000004D00003B29021D29020E000015221262
:101C300034AB0206510514E403301E034D110A09AA
:101C40006701253F0638090541060049FA030700E8
:101C500000113F060CF6012C00001DD306351E00B6
:101C6000583E1715140D415109040604090213309A
:101C7000DD093945113D34064868144D170651BA3F
:101C8000085489065DD306673A1614960B24560746
:101C90003EE20704921414880F242F053CED1355DF
:101CA000610067E60F4B9104040A1314CD0C243431
:101CB000143084093C8B1254D70B5C9000660000F2
:101CC000111E032D2C02154F06087C1639500E48A4
:101CD000A30F5000004D0000655105063A091C4F46
:101CE00006392902500000430000210000051E03B0
:101CF00015000051500E541E032F3A091D6A015160
:101D000000001500003F5A1104020314D21424F0FD
:101D100003349E083C70165432165C780F66CA0471
:101D20000671094800001B120D482902321E0331BA
:101D3000000039000043000021FA030400003500D0
:101D40000061FA035D00110DCC0311130D1C090C89
:101D500024E90B284F1131E70B392B07418D0B4933
:101D600000074D700851B2016529025800002F008C
:101D7000004DC0160CE70824510C380000511E031A
:101D800013BE0F16000015FA031C00006500005D6D
:101D9000B9004C7F0524F6013591083929020A71F2
:101DA00008530000315D124E1E03415E00140B10FB
:101DB0002D54163100004D00005100003B00004D35
:101DC00000001D500E4AA713520000154F0650FA8E
:101DD000033C00004DE4034A501204761514A5019B
:101DE00025BA0C3CFD155600002D1E0316C9001423
:101DF000EF152600004D00001500002D1E03130FE7
:101E000000050D04648101144D04260000214F06D5
:101E10002F0F0015000055110724AB023CDE1253B2
:101E2000190C540F002200004D0000510000110059
:101E3000004900000951053C5D0015E4031CCA0877
:101E400039500E410000311E032F0000050F001510
:101E500029020C1E032700004DCD0D146715262CFA
:101E60000214AF04262C02544F064B0F00247513A6
:101E7000210000151E032F00004D00006573131A8A
:101E800000003D8D15162F070600004DD3065300A8
:101E9000004DF601120F0020E7081C00004DFA0368
:101EA000060D0450D8071500004D1E030700004D15
:101EB0000D041CE6002600004D00000F0E05560024
:101EC00000155105064F063129020C000067290252
:101ED0005029024E000055C90006000041C60A1CE8
:101EE0004F06580000110000490000390000310081
:101EF000001B88060600003D2C02042B02174D0D26
:101F000016E601242902102F040428040965120C86
:101F1000C00514E40E18FB161D930D38820D3DD23A
:101F20001041ED0B49DF0D4C130351831754C014BE
:101F300058CA005D500E66920A2F0000155C0B0413
:101F40009D0834F0033C110D5300004D000051007A
:101F5000001100003129023A3F060CFA1639FA1630
:101F600052000051380C54290264940D06000015EB
:101F70004B0A1CA6163E0000152902503F0606001B
:101F8000004DEB0A1D00003DC9001700004D311542
:101F900020D11331340839A80248061151660C5873
:101FA000000065EF1524D306348F0E045F060C7510
:101FB00009115B0D15B50018C3151F00004D000079
:101FC000510000150000650F000C1E031D4F063A5E
:101FD00000004DC900141E0353AD0505F0035694CF
:101FE0000D381E0314FA16505E133032090C4F06DA
:101FF00034CE124B00001100000FFA0324290242D4
:102000006E0E04590814DB102479013E0E051D00E4
:1020100000158E053E29023029025861002C00006F
:1020200035D306502902112902085E1305C8100C89
:10203000170B15F3121D0D0F390F063CAE0348E2C6
:102040000D4F4F060E0000394F0640D306320000F8
:10205000653D0E046500149B0F241C0C3F00004DD1
:10206000A800518D0815251705C304248016429435
:102070000D263804041D0A14D800204E0324E5114F
:102080003CC40754520766E708088E053C0D04342B
:102090004F0643D215262C02150D041329022400E5
:1020A0000065E1063E00002100004D1E033FE403F1
:1020B0002000006700004D000021000005000065C1
:1020C000A8005200000D0F004CF003560000610004
:1020D0000069B10F04EE1209F4000D1B0411850311
:1020E0001546061933061D2903256B0728F50A3006
:1020F000F506351410383D0F41C61548AB044D03A5
:1021000005514B0959A00D5EA10F5000004D000074
:102110002F00001500005DFA1652E4034D1E032D3A
:10212000C60A44E60F5300004DB1163E00004DC9EB
:102130000014B70F04DB153EFA033C000065C9002C
:1021400016000005000051E60F1100001500003DCB
:102150000000332902300F0016AF034D5105040073
:1021600000613103140D0458811509E60018B90007
:102170002C5C0B35AC160D8B061059121D4212301B
:10218000E801396D07415F0A493F0D5179046ABC86
:10219000116900004D1E03171E032100004D1E0390
:1021A000092C02040000611E0341BF0E39090551CC
:1021B000B9002C75120DF201118008185E13244D20
:1021C0000D28780D31070035E70F3C0C0E489A13A7
:1021D00055AC025874175D540C6700001D00002DAB
:1021E0000000154F063200004D00002100001522AE
:1021F0000D5200004D0000390000110000050000E4
:102200003300004D1E0326000015FA033C4B0A3034
:10221000120D580000514D0D06121004A5163E0077
:102220000065A800269815165C0B545E0016000089
:102230004D0000151E03651E03096100612902346B
:102240001E035D0000415D12041E031D61080C0F9A
:1022500000517F05247D0E11FA12185B132CEB0C34
:10226000309505394D14495D175461005A1E0351CC
:1022700029022C290240290208470210540C1DF49F
:102280000A24941134EF0139A402483A0A4F00009D
:102290001D4F064DD3062DA80038AF105200001177
:1022A00000004900000D00003B00001DB9002C0F8C
:1022B00000320000655E0A05600314D70020C612D4
:1022C0002450023C4C04482902565105044F065242
:1022D00000004D000015000065120D521E03151E72
:1022E000034C290250F61504FB020C500C1071151A
:1022F00024300D31A40C34D513387D063C2902411D
:1023000030174A0F0020C9002400004DA8001E000D
:102310000015E60F24200D3EC60A44CB043B000006
:10232000654F06170000051E03093F060CAD052486
:10233000B9002CB9005A00004D4F062000001500CE
:10234000003D00006700004D4F06161E0351660C4D
:102350004ED6000EAD05240F0014000067AB0266D8
:102360000000512C020478021901121CAC0E3072CC
:10237000114AE4034D00002DAD051600004D00008C
:10238000050000111E035D850848E60014FE0424C4
:10239000660C2C540D321E032100006554162D7658
:1023A0000D3CA10C15EF152600004D00005100005A
:1023B00011000031E7080929026A920A5D00004D08
:1023C0000000111E034BFA033CAF0416290258FA11
:1023D000033E220D5A460F38FA034A00000500005A
:1023E000250000510B0831F0035629020C1E032D65
:1023F000A80011CB041F0D042D7D1017000015003F
:10240000006529021C0000431E0331000005000086
:1024100015000051000057000005AA034800002DD8
:10242000290239FA033C2C0217211104D30D08FBB1
:10243000030CD80410671314F90A188E151CC00277
:10244000205D0124090E28CB122C8B1630900C3401
:10245000301238F015408511442B0048A4124C97D7
:102460000950A60D54090F585D0B5C981460F701D4
:102470006420126A000011F00356C9004ABC0E2401
:10248000870C162C0204000019000043000015EF11
:1024900015247313187701051B03390000314F060B
:1024A0004A00000500001500003D1E0309000065FC
:1024B00000003B0000259D085AE20604E112143397
:1024C0001124C30D3CA80A560000111E034C29021A
:1024D000341E035D450914E7083EE708500E050465
:1024E00000001500004D000057290224460F160079
:1024F000004D00005100003DE40310660C3A00005E
:10250000211E0354FA033CBC0E6600001500001D9A
:1025100000003529024800005DB00D6A0000490046
:10252000002D2902052C0215A10F30E403580000EC
:102530001151053E5D124D290252680124510505D5
:102540000400144114560000211E0365D313050036
:10255000004133070863150C211011C4031DCE0D73
:1025600024EB132CCE0B31291435A80F397C1749D5
:102570000F084D670451C90054E3086ABF1204688C
:1025800001260000390F004C5105301E0314E600EF
:1025900018E500481E0351000043840A531E0351EE
:1025A0004F0631240F04B2003CD3064F0E054C5C9D
:1025B0000B24290230000017000025000051000004
:1025C0001100002D8C060C4F061F00004D0002521A
:1025D000C60A3A000015000065DB0B25300E3300FB
:1025E0000011000015000035A41608E213330000A6
:1025F00051000039D306340F00060E051600004DB9
:10260000A10C1600001100004D940D3A00004D0C75
:10261000070EDD1304C30114100524BB0E3CBB12CE
:1026200054F00667AD0524120D3200001DC90015D7
:10263000981506940D3C0000212C025600001551FF
:10264000050400001100006500003B00004DEF157F
:1026500024FA033F0F0038000009FA165200005117
:102660005A0804460F15EE1526FA033C1E0353893B
:102670000C042D0714250E249C133F000051A10CBF
:1026800015D80B3F00004DEF1524000041A8003184
:1026900000001100004900003900002FF60111323E
:1026A00010320000050E0548AD0524011710FB107F
:1026B00034240438D30616840F245E001729021030
:1026C00029024A0000251E031600000500001D0D0A
:1026D0000441080430BF14370000350000510000E9
:1026E00039000033CD0938000025000017000049EB
:1026F000000031000041A80011B00D5A000065290A
:102700000211460F1500001D00003B0F00242C0293
:10271000160000151A101C2902263C03380000512F
:1027200000001F1E032DDB150600004D1E03540084
:102730000065120D480000150D040AE41311AE0DDA
:1027400030630815AB003E0F00151E0309DE0318A9
:10275000AB03492902360000490F000E0000051E98
:1027600003150F003E2C0204000025C90017E708DE
:102770001C00004D000007C00514BC0E3CC902241B
:102780004C03562C021479080E000051000011AAC7
:1027900003480000351E032D000041871604A10FD9
:1027A00008F00317FA032451051661080CC9002626
:1027B000D3063B00004D4B0A1E1E0309000019659D
:1027C00015043D010CC00D119C091568091D860EEC
:1027D0002C540D30790A35AE093992133C830441EB
:1027E000FF074808054D070051160C5A00004D0020
:1027F0000011660C38200D1E1E03094B0A31000023
:102800002F00003129024A000049C900320000119E
:10281000C9003A1D13160000490000094F0630DDBB
:102820000235E708125105645C1205731108FA03BA
:1028300014CB1525320E3CA800414314501E0357FB
:102840001E0365000009FA0324D30635790820BE6B
:10285000044C82083B10165000004D000013A800E5
:10286000503A161600001529024800002F00004DAE
:102870000000150000194F0648D9085AAD0524512B
:102880000507000049000035000039000011000074
:10289000331E0355BC133C261206C900155105040E
:1028A000D6152629024C0000390000411E030F00F6
:1028B0000005000051000015E40311680C09B20E78
:1028C0001C1E00370000392C02150D042F0000518A
:1028D000E4030E7F07164F0650940D3A3A091CFA8E
:1028E000033C140D58A60F0406080952090C4206B1
:1028F0001103071568141860002CE81030640B34BD
:10290000B41639270441351044EA0448F60C4D77D3
:102910000B530000314F06500F004C1E03130000F4
:1029200015E60F110000650D0A3300003DD60B0CB3
:10293000E7080A180C3EAE023800001500003345C7
:1029400000249D13305A163CBF00489A0E54510E75
:10295000649B0B04B209162902301E03511E034367
:1029600000003D000055E403509108065D17160075
:102970000009000035E508180E054C2A0204E11391
:102980000C4203100E11140A071CD313311E053814
:10299000540C411C0951B9006300004D0000510066
:1029A000001100003DD6151EE01404AD0526D60F1B
:1029B0003C000015EF1526A10C398D154D0000497E
:1029C0000000170000115105306D0741ED0139EC91
:1029D000064A200D3C1E0356000005FA03160000AF
:1029E0004D0000051E0354290232290258130F1509
:1029F0000D045D00003B5D12501E030D680C3C3F52
:102A0000014CD3063A00004D000051AC03140210F3
:102A1000330000111E030996090C5E1314F7141DF0
:102A2000FB0E300A16347D0C399F12498C024C3350
:102A3000145200004D0000211E0315EF1526000062
:102A4000051E032600004D00001D000039850810FA
:102A5000220D2F0000214F0632C21315000057002F
:102A60000015890805480F331E032D6108387C06C0
:102A7000100B08330D04391E0311E708504F0619D7
:102A80004B0A49F00A2F00004D0000390000194F91
:102A90000649000041E708531E03152C02040000FC
:102AA0005D290208F6016829020D920811250C1D06
:102AB000AF0C2480092C1C14307C0435FB12393DEA
:102AC0001041DB014975114D0F0051220C54FF04D8
:102AD00061A20167E4032C120D3BDB151600004DCB
:102AE000000025FA033DE40311C90605BB101700D9
:102AF000004D1E0315AF03211E035300004D0000BF
:102B0000510000351E031918032D4F06084F0641CA
:102B10001B0739DB0E166815226C0404AF11141A5A
:102B20000D24CA0C30450E3CF71554260F5ED816FE
:102B30001500001F00000500001500003D00004DBD
:102B40001E031FE10104E00614C7063DE708640008
:102B500000511E03271F123CFA03260000510000FB
:102B600049C6144C91083A0F003800002DD60708CA
:102B70003A171CC900303C0748660E52C900151EA2
:102B80000307000061FA031700004D000009290245
:102B900034FA033C1E03041E03194D0D400E0510AC
:102BA000AE0D2C930F38D30B48BF0F51AA0E650002
:102BB0000015FA032600006500003D2902260000EA
:102BC000091E03514F06153E010C0B071DA30320E0
:102BD000520524E30A2C2C08484F166704064800C7
:102BE00000510000330000051A101C2902260000C5
:102BF0004DDD0B054D0C08460F14A10F20290230A6
:102C000000003D0E05487409541E0367290250292F
:102C1000021E000051D31315C50E4F000015500EB3
:102C2000541E0305DB153CFC0B24AE0D52000005C1
:102C300000001DD30640D3060E00004D2C02150DDA
:102C4000044200004D2902300000153A0B531B05C9
:102C50000D68101C641424850230C51039DE09404B
:102C6000D3064957074DF301511E035500005F2954
:102C70000238C9000429022CEF1524901117000016
:102C80004D1A1042D30620290214AD05241E033E1E
:102C90002C02041E0325CF15560000250000511EEE
:102CA00003110E0A480000052C0217000049B60364
:102CB0001C0D043A89012400004DC90017240F148B
:102CC0006C0104B50B245B083C4502560000657797
:102CD000170A00004D000015000039E01324FE160D
:102CE000512212689F054A2902302902501E002CE9
:102CF0000000651E03113A16255D0938A0164849E3
:102D0000074EC9001400004DE1063E00002D2C02C4
:102D10005617010A1E03150000510000091E031D6D
:102D2000E60F5F000051FA02194F060600003D0051
:102D30000065000035000055D30638F00304FA039F
:102D40005C4D0D221E03092902481E031161080C67
:102D50005C0B3593061C160E2D5A0739A60F55C766
:102D6000055FA8001C51050600004D000015AE0BC4
:102D700030EC0C4A00004D1E03515105301E033942
:102D8000E50818220D34B9002CA50D04E704093814
:102D900006106A0C1D230F4A000051000049000074
:102DA0000F00004D1E03373103146907541E033F03
:102DB000290262D206099D1224000005C90017C924
:102DC000004800000900006500001F3E1715891625
:102DD00026000049C900383A091C000033000049A8
:102DE000FA031C0000390000311E031B00004D00D7
:102DF00000250000671E03510000191E0340A800B3
:102E0000211A104AA90426DB0E1700004D000021EC
:102E10001E03512902246B0914070E361E0351E4C8
:102E2000033600005100003100003500002D1E0364
:102E300055A800111A10390D044B00004DC900159A
:102E40002900336D030966020C3007116703186D02
:102E50001520680724810C30921135F10F399D003F
:102E600049E0114DEF0D51F106658E066800001D19
:102E70004F063E00004D3F0606D60B3E1E0314CC07
:102E8000124FFA030400004D2902260F003F0000F4
:102E9000254B14154F0631690E5400005100001BDC
:102EA00000004DB00E231E034C5105320000651387
:102EB0000A0C00001500001F2902104A021C6713AB
:102EC0002EB900240000651E0316E104281F0B1410
:102ED00085050468130880070C1F16103D03182D84
:102EE00002203010250105309C0040FE09483214B4
:102EF0004D901050381554C3055E0000152902226C
:102F00001A101200004D00001100006700001500AB
:102F10000035C9002400001B0000211E031500001D
:102F20002D0B08531E032100001100006500005DF9
:102F30000000691E034DCE0D0426090C110B153A35
:102F40001624E91630C502357F1039C9003CD30F6D
:102F500049B50151A10C570000490000391E031D5D
:102F600029025133094EC016187908200D04330088
:102F70000015000009BF123A00004D0000311E0389
:102F8000411E0311E60F2D00005100004900003BD7
:102F900000003D391605C90B1522122600004D0010
:102FA0000005C90015D3060C1E033F5D120C4F0629
:102FB0006AEB0D0600003973131AAF032100000DF0
:102FC0001E0353C91020B4105200003100004D0000
:102FD0000011000039000037C900153216232902FC
:102FE0004C1E0313E1063D1E032629020C4F065218
:102FF00000003DE7081E7C0633B10D043A0214368A
:103000000F208C032436103895083C5D0348690472
:1030100054A2105CAB09661E0325050004C01516FA
:10302000DD1131AF035800004D00001B00003D5181
:103030000514000041E4034A00004D0000153C1453
:10304000520000095C0B14000051000013000065E1
:10305000FA033E1E036529022C7A0904A40909DF3C
:10306000050C5C15157413197C031C0B0024B30E9E
:1030700031231634D81239F81041D715480E054CB3
:10308000D20550F1035963005D19106300004D2211
:103090001234AD023EC714222A013F8408042D0CCD
:1030A00014F50B2491073CA20554C11666AE0D6AB7
:1030B000570B3C000009E403111E0058A20D04D96F
:1030C000080CE4081529021839091D021231FD0007
:1030D000390E0449170F4CBA1051261563290250B6
:1030E000EF15242105081E00436B071900004D0051
:1030F0000053000005C90015AD0525D306484F064D
:103100004F290210BF0E3A1E0351D60B3A00005150
:103110003A091C75080D1E0349940D380000431E22
:10312000032D4F0614630011AA03320E053C000064
:1031300005000017290205A80051200D3C5F0A5424
:10314000000011FA032629020C2C0214290268EA55
:10315000143551093EC900242C023EAF0454AF047B
:1031600016000015AC110400004D00004B00000DCE
:10317000C9001500002D2F0D04A80011920A3879FE
:10318000085000002500001F0000115D120C000017
:10319000310000350D0441F00349D306521E0331BE
:1031A0001E031300004D0F00241E03057F05160C9F
:1031B000054A2F0D0700004D0000510000495D1227
:1031C0000C00003900003129021DA8002D1C075AEF
:1031D0000E05104B0A1CC9002529022A00002D29C2
:1031E0000210D816150D040D1E001C290233000014
:1031F00015F60A484F063BD30613000051910839D3
:10320000E8081700003D290250000065E403104F54
:103210000614F10A2FEF1524290238DE05042808C8
:1032200015B9004A0000554F06320000391E0351FF
:1032300000002F00004D0000210000530000250079
:10324000005100001500002F000005000051701112
:103250000CCC121D00003900002FC9102C2F123287
:1032600000004D0000053C0E5C9B105600004DF127
:103270000A30CD09265D120CE70850000005000059
:103280003F00004D00000500005100006500002DCA
:1032900029021D7D0F1700004DC9001429022600C8
:1032A00000150000311E0351A8001100004D1E033F
:1032B0006700003DE106140D0411300C242902536F
:1032C0000D04502902260B0831C90015EF152428DA
:1032D000093B29023000006500001529021ECB12AF
:1032E0001B000039120D52EF153E00004D00002169
:1032F000FA03042C0215620452A8004100000B4A94
:10330000113C1E030B05003C1B0B4D4F06530000E8
:1033100065000063A10F568C05040D0614120624E7
:10332000D0053CDB1556000005C90015A800420079
:1033300000050000110000150000611907250000BC
:103340002D4F06530F0024FA033F650C5600005121
:10335000C90024620B04FD0C0C680C10410A38F003
:10336000093C48025867136400004D5E00170000D6
:103370001500005D1E033D1E03111E03591E034D63
:103380002C02205C0B356C0309F6110CDC0A1DF7CE
:103390001224000029930F2C1A1730B30A393B105E
:1033A000411F0E496F17511006557713632F0D27D4
:1033B0001E03350000651E03536C0504CD0A14215D
:1033C0000920F016242507308305388A013C28059A
:1033D000480B1254F0035C5311660000551E032D78
:1033E00031031A0000090000190E063B00004900D5
:1033F000006300004D000011C9100C660C3A00007B
:1034000005E4031D0F004DCA02156D07395E093C26
:103410003D0A49BD1456000011000015D9081D00D1
:1034200000510F002600003DC60A4A00004D080466
:10343000321E03490000390000110000370000511E
:103440000000490000432D104A000065290214E4E1
:10345000033C00005700004DA8006731140600002F
:10346000510000151E0349000039E4034DAD052548
:103470005D120D7D0F3F0D04502902220905150034
:103480000005D3064A00004D0000652C02171E03FC
:10349000150000251E03561E0315200D3288020458
:1034A0008A0226A8005000004D4F063200004D1E33
:1034B00003270000511E03091E0339E5084B0000D5
:1034C0006529023800004D00001500001FA10F50B3
:1034D000A10C173A091C5D120C0F004C9108385DC5
:1034E0001240F806511E03491E0313C900154F066A
:1034F00042A81504E50E14690F24B40830ED043C0D
:10350000A40548340D565D124C1E031DC4143A0028
:103510000011BF14340F004800004D1E030F4B0371
:1035200005D70F14F60E2420023D1E03671E03511B
:10353000AF032400003D0000670000114F06301E5D
:1035400003052C02150D0419F10A48F10A5A00006E
:10355000150000350D042D0000391E031300004D29
:103560000F003C0C055688170A000035D30651D3CE
:103570000608631213000005000051000065C90031
:103580001500002DD30622000005510514660C21FC
:103590000D0450FA033E000009C9001561083AB94C
:1035A000000E0C05241E0314B406062902571E0340
:1035B000152C0204120D36000065050014E6004CBF
:1035C000B90056000011CC121C1701320000515DE9
:1035D000124CA800114F06331E0331ED00481E03A4
:1035E0002100004F820734BD0F51EF15242C021724
:1035F00000004D0000111E034973131A29025800E0
:1036000000090000654A1524F1074C810453531446
:103610001D18043B00002500001500003D51050663
:10362000000021C90015FA033DB2140CB70F24A8FD
:10363000004200004D00001D1E034313162400002D
:1036400065C900170000410D04580C1011910A2D96
:103650003C0E4A0000393F063E120D530000156D26
:103660000733000031000035000041D30617C906BA
:1036700004F21408DF110C3F0334120D384C114CC6
:103680006713521E03650F004D29022C1E031DDA1D
:1036900015044D0D085D040CB70C111D0F15E60047
:1036A000186B15240E0529DD0E308A0835270B38D6
:1036B000FF06415C0C480905510E00545B1358612C
:1036C000085DD7136800002100003F680C0400006B
:1036D0003D0F00261E0314B9004F00004D29022C97
:1036E000820568E50B0945010C8F0C11340E145D41
:1036F000121DF50531FB00344401398B0441A4034C
:1037000049091353AE0D5600004D000031A80011B9
:103710005E00140D041B00001500000D00001BD3FB
:10372000063800004100004D1E034B00004D000014
:1037300019920A41E7080A00004D000015EF152410
:103740000000654F060600004D00000500003D002A
:103750000065A102161E03050A000CB90023000033
:103760003900001929021200004929026A00006587
:10377000E4031C460F17FA0324E4031200004DE58E
:103780000F1300004D00002100003900005D000013
:1037900041E1063C610849A8130C5C0605100914B8
:1037A000BC023075135161085400006B2902381EA9
:1037B00003511E03140D042C27034FF60130A800FB
:1037C00053680E360E052000004D1E03160F0038FC
:1037D0002902521E0315000009E508184E0849F396
:1037E00013535310043D1314F513208F02241408AF
:1037F0003C1E15483A0C4CCF02542E095CD0006494
:10380000CB046AEF15240D04109F051C00004D2CFD
:1038100002171D163200004DAF03210000651E0384
:10382000511E03161E031575080D510524500E6414
:10383000941004400C096D0711DC0330CE1235AB37
:103840001138DF153DB110409E054CAB1451F30308
:1038500054010E58C1075F000021000051000015FF
:1038600000003D00002D0F0024FA030600004D1E4D
:103870000311A8005163003322122200004D1E03E1
:1038800031000005000015EF15241E032D1E033D19
:103890004F0635AA12520F0038A10C15EF1524005F
:1038A00000411E03356D070902061129022C210370
:1038B00030021749FF0A4C0F1453F0033229025407
:1038C000E1063C00004D5E00160000494F06520024
:1038D000003961084AAC112481173DFA03066108DA
:1038E00026AD0524E40352FA035D00005100004BAD
:1038F000000051D306330F0018000015940D3AE56F
:10390000081529025A1E0354D313051F0911E20496
:103910001514011C281525A8132C480230A21338B1
:1039200036063C02074C7F0F51CD026567130E1E11
:10393000034900004D0000510000131E0331000038
:10394000111E03511E032D1E033DD3065A000065B0
:103950001E0305340A149C03250F093C2F0856004A
:1039600000153A091E0000110000651E0325000025
:103970005D290241900838180D4900005129024E76
:103980009A122100004D1E033B5A176800002300C5
:10399000001D8B0A1100001529020EC90015000038
:1039A0004D000027000025F003541E032D1E033D8B
:1039B000D20F0728021E0000152C0204F10A30BCA9
:1039C00013560000656A10047E16146F0124350E2C
:1039D0003CCA11560000051E031442062F00003D8C
:1039E0001E032F0000110000151E03655F0A0975F4
:1039F000080D51052400005D1E034115171DB80B6D
:103A000031AF16342A0939590748BD044CE2025136
:103A1000CC04553C1663290250DE03181E031429FA
:103A2000021D1E0359290208A50C0C280411210DA2
:103A3000350410392B0B48E40E4CD6006312164E99
:103A4000E4030C00004D1E035300003D940D3BCFDA
:103A5000005200004D1E03310000654F064AB810A9
:103A6000561E032D0E050CD306141E0341E7164DFA
:103A7000AF10544F0623190C54E403481F0008EA02
:103A80000B0C3A06104B0218AA161C3C14246A07A9
:103A9000280A082D0202301A123900054DEE005096
:103AA000B1085AF2090600001D000035BF1212F0DD
:103AB000035429021E000065000039000035E403AC
:103AC00048000041F003260000510000395E133029
:103AD0004F062D8E104AFA03242902161E013C00BF
:103AE000004D000043000051000011290258000061
:103AF000415C0B345E133000001D00005700004D88
:103B0000000051000015000065C60A1CA800274FE0
:103B100006489F0530E4033EFA033C00005590112F
:103B200015F91248290251DE065F29020C5E0015C4
:103B3000E4031DC10538C0063C000065A800132C35
:103B400002040F0054210B3E0000510F00562C02BE
:103B50003C0000055105260000490000310F003BE4
:103B6000F10A4EE7081B00001500003D0D04380F58
:103B70000005AE10504F063000006700003D000009
:103B8000650000416808322902104C040CE405620B
:103B90000D04531E03651E03250000612110110052
:103BA00000697709053617154F0E1D2C0220790B79
:103BB0002D3103340C0D38520840AD0E4DAB105171
:103BC000C900559B1159C9005E2902300000510FF0
:103BD000000E3C0B046C100CEE0C08271610380578
:103BE00014D41018C8161CDB08209915246C0B2857
:103BF0002C0F2CBB08304107341502387B143C10C5
:103C000000406E0044FF094841174CCF115051024B
:103C1000547D13583C155CBA04608C0D64FC056A35
:103C20000000051E032DA10D2067133F000011FAAF
:103C3000032400005D5C0B34E50818C81405B90EB8
:103C40000D1C0F15D6121DE100314A0139B6014095
:103C5000D01548B70B4DD707510F00621E03111E38
:103C600000093A16048D08150F0019530C1D13177F
:103C700030730839F70041FA01488D0E4D050551A2
:103C8000140D58C4116AEF1524FA03171E03391EC8
:103C9000033300005100001100003D00003100001E
:103CA000350E050CC90006E60020FA033E0000159B
:103CB0002C0204210B3E000005000049C900150F2D
:103CC000004C1E033B0000050000157D0B2D510527
:103CD00056CA0214000025000053EF152700004DBE
:103CE0005D120CF00314E60B040D0422F30D0453D3
:103CF0000014E00924D70B30B3143C13075600001E
:103D00004D0000651F101496143C190C561E031527
:103D1000CB043000004D920A4200005129020CF100
:103D20000A320000390F005667131E0000312902C5
:103D300010A10D6200004D0000114F0651300E33EE
:103D400059094A00004900002D29024FE3020444AA
:103D50000F14CD082401163C460C564F063CC805EE
:103D60000569155600003DA80036AF04041E032364
:103D700000002500005100000D00003500002D005E
:103D80000041D306174F06302C021600004D0000EC
:103D900015000009D60B0C251206000015E4031EC1
:103DA000FA16385D124C6D075129023600001100D9
:103DB000004900003F00004D2902380000110000BA
:103DC00049000017CA0204EA0C0C181211A71614B5
:103DD000AD0B1DF3143C9B0048C60A4D240350E56F
:103DE00008544E0658F80A6A2E12240000510000AA
:103DF0004D0000331E0351F2074E570B065E0015AF
:103E0000EF1526400F160000414F06371E035D29AF
:103E1000022CD30635E5081AE60F15C90006A10FD6
:103E20004800004D000015000067700E4800004D6E
:103E30002C0216220D10C90015EF15261E03151EA3
:103E40000309290234850848AF03610F00640000AC
:103E50004D4F0652D4030405091570142414023D75
:103E60005408485601545B095CF205670000250FB1
:103E70000017F00348000035F003541E03117F05BE
:103E800004460F31340939680C3CD30651A10C1596
:103E90000000670000512902300B0538FA034AA1DF
:103EA0000D1E0D04502C021500004DAE023E000008
:103EB0003D0D04507A0218D50924490165070716FB
:103EC0000000219D080C5B152F000015AD05240096
:103ED0000031000037000011120D4A00004D0000B3
:103EE0003D000061B00424E60F3500003100001BE6
:103EF000E0120A510514B1145100004D00002100D8
:103F00000007290258E5083205110EAF0D14190CEF
:103F100056890106000025FA0314C1150400004368
:103F2000290209BF1211200D61000005FA033E3F6E
:103F3000064EAE0D0819114C2902300000371C0046
:103F40004A5A085447150CDE1014C2112424103CA0
:103F5000FE0B40C915520000112902520000510009
:103F600000650000390000350000411E03115808AB
:103F70004FF9012600003D29025000001D2C0214BB
:103F80005105301E034129020833090C7C0658AD47
:103F9000050600004D00002D1E03411E03116300A5
:103FA000351E033100004900003B3F060C00005164
:103FB000000017E6003E00004D000005EF1524FA52
:103FC000033C8C081700004D5D121C00003D51059C
:103FD00030770A39DF0C4B5D120CC90030321038D3
:103FE000671341CB041E1E03148705047A0808A03A
:103FF000110C2A15103A0E18FC021CAF0620510DA8
:1040000024AD102C420C30BA0F343A0038800E3CEC
:10401000F809405F174813114C241250CA105497E6
:104020000B581B105C131460E5156600005D000062
:1040300061F00305C506150000111E0367C90015D0
:104040005105042E032405003E1E0331000011FA21
:1040500003041E032D1F0B140E05200613240B084A
:1040600035D7093C29024D5A0854181458A10D1B84
:104070001E031500003300004D1E03310000250013
:1040800000155D120C90113F290230F0033E1E0313
:104090001500001D000061AF030C0E11246B1230DF
:1040A000320C34500648720E505216660F000C1E29
:1040B00003590F004200131700004DE4030D0000E8
:1040C000151E031F00002DE4030E2C026600005194
:1040D00000004900002F0000651E0305D60B15CB1C
:1040E0000C26220D33AD0524E0020A290258A10C4A
:1040F000150000351E03515A0D0DEA1311BC001CAA
:104100002E0428410D2C220B303F1239030E41148E
:104110000D4862014F3A150C000049FA03263C0E87
:104120005C99111200004D000051E60F1183092423
:10413000E8023100003D2C02174F06111E0309DE74
:104140000318C5140C9A123953014ADA033E0000D1
:104150003100005D0E052CED005600004D510504A8
:104160001E03570000213F060C00005D290240821B
:104170000568D40509CB0311D31314980D1D5D17E1
:1041800024680E30920F3547093865033D0E054906
:104190009F054D5E08515A12560000111E0365001E
:1041A00000610F0054B20C05EA1009ED0614290F46
:1041B0001CDD1024E60F30C00634C31438DC003D8B
:1041C0002312402D0B4998124D480351FA035E8487
:1041D0001604D80514551424D0123CB30454981571
:1041E00067000039E70842EF15242C021600003161
:1041F0000E053600004D0000051E03152C023C5133
:1042000005640D04111A0A262F1404890C260000D7
:104210004D0B082D85081F1E0309000037A8004E0E
:1042200000000500002100002FC90054930A0483F8
:104230001514E310205C0724F0023C2E0248B8015C
:104240006600004D2D103C2F0D06740954640414B3
:104250007309264F06504F061A0F00243A150CF921
:104260000F093B0A10680515BA06183B0C1C090516
:104270002D771030A51335450D39E902411E034550
:10428000EC1048C5114F5F151600004D1E03416329
:10429000003500005100001100004B4101060000F4
:1042A0002118032F000031E4036A290258E10616A1
:1042B00051050400003300002D61080C1E03490065
:1042C0000033C900076801560E053300004D29026E
:1042D0001C220D340D043A3F060C0F004C0000194F
:1042E00000005D5C0B04C60A447303141E03354CC6
:1042F000064ABF12040E053800004D00000B0000F6
:10430000516814483702045A0C093A090C1906116D
:10431000010F15120E241D11300B1739D3062E0074
:10432000004DE11405C013150D041CD306209C128A
:10433000249C1030FA033D7B0648B90054D306365E
:1043400067132C6D16040B0B0CB003103B0F18DF1A
:10435000071C230230770834AB1238EC073C3316C5
:10436000483F144C7813508E0A5862156A1E032178
:10437000610061000065E60809F80B0CD90811A17D
:104380000D1DF61224CF1430DE0A34DA07395F131C
:1043900049AC044D7D03510E0C54DF095A00001541
:1043A000AD05241E03531E0341601238F80C3C9BDC
:1043B00007515712561E0351D30612F0033FFA035A
:1043C00024A8001CC90004FA03566D0717E4030F64
:1043D0003A1604200B1600000500001100004900E9
:1043E0000039D3061E29020C39034829023BF00389
:1043F0005405003E0000415D1252000015000035DA
:104400004F064A0000191E034B4F0630940D381E0C
:1044100003530000110000351E03511E03190F0045
:104420004DB00E2FA60F160000093F060C00001D10
:10443000510504290238D31043000015C900065164
:104440000505940D3A000051EF15246E16043C1733
:10445000151A113D8E0441B9004E29023000003575
:104460001E034139150C29022DE6004A00000900FF
:10447000001DFA034874033A000051000009750852
:104480000DEF033C00001F00004D000015E4035138
:104490001D0B26000015E7080A5D120CD306383004
:1044A00016210E0554000005AD05265C0B264F06AF
:1044B00030C900160F00200D041E510504E4034806
:1044C0004D0D08540C11B90C39600F411E0315FA3B
:1044D0000326000065EC151568013D790A562C028B
:1044E000542D103D1E03150000677A00044A0F1476
:1044F0007F09206C0C24A10D283A083CDF0B482BC7
:104500000154FE0D6600004DAD0524510566A10C59
:104510001500002DDA0B24750D3E61083E290217A7
:10452000CB04500F003A6A014E83083E500E1D32F4
:104530001026BC1316000021D3061D290268B10CF9
:1045400004A8130CFD0F110209149513316B1735D4
:10455000F90C39FC0D3CCD0F48ED164D210F515192
:10456000055F00004D731318200D3E310314BF1278
:104570000600004D0000652C0216000015290224DB
:10458000DB0333271205E70C093F060C4211111714
:10459000071DE40320440A30E7123853043D360B6C
:1045A00048320A4D2A14510A1454AE0B5861006166
:1045B00042066500005D0000412E03242D1036D711
:1045C0000E0CEC16520000211E03093F060CA10C34
:1045D000151E0351000041C3031D820A30060A352F
:1045E0003315393E07483A154E2C02140000570087
:1045F000005DFC081674093E4F061100001F89017A
:104600003E0000658308389815541E034C0000379F
:10461000290258940D3AD3061C160D05D306095DE0
:1046200008108B1115D30618B70E24831331930F7E
:10463000342B123C140F41E4034D420651F0035455
:10464000CB045A000011AA034800006500002D1E8B
:10465000030F17073200001500002D4F0648BC114C
:1046600053D3063EE403641E035FA60236680124AA
:104670000000670F003C29023200004D0000154F7A
:10468000062F0000154D0D1A4D0D2E00004D510541
:104690000700004D000065000039F0035400002DB4
:1046A000220D10EF0B150B081D00003D4F06533275
:1046B0000315F70F3C5105265D080E00001DFA0397
:1046C00024FA0304C7163C2512519F055A540504C9
:1046D000FF1314C106204D1324620F30B40C380CA4
:1046E000153C6A0848200154D304660000510000BC
:1046F000494F0613000031D306660000110000493F
:104700004F0632000005F601095401153C0324450B
:104710001035E60F430000494F06400F0032740980
:1047200054BF0514570B3CC60A4AE710041E031673
:10473000680124F30531D50F3E4F06221E0305C53F
:104740000E21420A4F00001DFA033CE40304DA1371
:104750000C7C0630F91638140448C80C4D1A035264
:104760001E03155D120E0000150D041C8F133D0075
:10477000004D000065FA03065E14261E03090000C2
:10478000390000310F004D5F15156815192C1224E2
:10479000AF0E49F601580000510000115D120E00E5
:1047A0000035000041BD00130000390D04411E0317
:1047B0003100005300004D0000150000654F061E3B
:1047C0005E143A1E033100000500002500000F00B2
:1047D000003D4B0A2F4F0605250F4800004D0000F5
:1047E00051000017000021000031C60A46000051A8
:1047F000000065E600183F0638EE0308AB001D3FD9
:104800000648B70F4E1E031500005100003DAD05D0
:10481000240E050C3E035A00004D0000511E032DCE
:104820000B084B5305540F0023610814000061006E
:10483000004D00001100004B7A12049E060C9F07E9
:1048400014E503204C0A2448122C6F1230D505348D
:10485000180E38610A3CBF0A40A31244E2024883A2
:1048600007504C1554D9095CBB066600004D00008A
:1048700005000051E4031D000065671324E4032DC7
:10488000FD0638C90015FA033E3B171C000049001D
:10489000003300004D1E0315E403101E03514F06A4
:1048A000090D0434300805E0030D62041D0E1424C4
:1048B0006C0030430D4A00004D1E0315E3053D0D0D
:1048C000040A00004D0000152C0204E01252C90039
:1048D0001400004D2C02063310144F063E00004D0C
:1048E0001E033DD306300D0442D3060C1E00092CD6
:1048F00002150E0519B60048AD052400003B5D12F7
:104900001C000051E60F114F0649290243290227D6
:10491000000065E10A043914144E122414053C18F1
:1049200009561F130200832E11241FBECFEFDAE0B9
:10493000DEBFCDBF11E0A0E0B1E0E8E6FEE602C0D8
:1049400005900D92A83EB107D9F727E0A8EEB1E097
:1049500001C01D92A63BB207E1F714E2C4E9D4E21C
:1049600004C02197FE010E941C37C339D107C9F743
:104970000E940A2F0C9432370C9400009F92AF9241
:10498000BF92CF92DF92EF92FF920F931F93CF933C
:10499000DF93F9017C01E00EF11C1E141F040CF0E2
:1049A00069C0803891050CF065C09B01295F3F4FBD
:1049B0002734310508F05EC0382F319597FF30E07D
:1049C000DB0123E0B595A7952A95E1F7B695BA2FB7
:1049D000AA27B795A795A30FB11D37FDBA95A80FC4
:1049E000B91FC62FC77020E8E216F10414F000E8E2
:1049F000081B8C2F0C2E02C0EE0FFF1F0A94E2F74B
:104A0000DE2FDE2ED094CF2E9F2E9094A95FBD4F27
:104A100010E0E32F032E000CFF0BE017F10754F515
:104A2000E40FF51FE491F0E05F01082E02C0AA0C2C
:104A3000BB1C0A94E2F76034710530F4FC90FD2051
:104A4000ED2EEA20FE28FC92CC2389F06833710514
:104A500074F47D01E0E8EE0EF11CF7012081E22FF5
:104A6000E921FB2DFC212E2F2F2BF70120833F5F07
:104A70001196CFCFDF91CF911F910F91FF90EF90C3
:104A8000DF90CF90BF90AF909F90089580E0E7E0D7
:104A9000F2E081118FEF00248193819381938193C0
:104AA0000394D1F708959091AD07982329F490913C
:104AB000AC07982381E009F480E00895FC0180911F
:104AC0000602882311F13FB7F89482E08093E90051
:104AD0002091F200822F90E01816190614F481E05C
:104AE00090E0882339F0289844E6409305024091ED
:104AF000F1004083222339F02091F200211103C0FC
:104B00002BE62093E8003FBF08958FEF9FEF0895B5
:104B10002FB7F89483E08093E9009091E800892F03
:104B2000807295FF04C09091F20080E4891B2FBF32
:104B300008958091FD0181110DC082E08093F901FB
:104B400084E08093FA011092FC011092FB0181E055
:104B50008093FD0189EF91E00895CF93DF931F9239
:104B6000CDB7DEB76983DC01ED91FC910280F38162
:104B7000E02D41E050E0BE016F5F7F4F09950F903F
:104B8000DF91CF91089583E08093E9008091F20056
:104B9000882319F08AE38093E80008950E9488250D
:104BA00090E00895CF93DF931F92CDB7DEB7FC015D
:104BB0008485958597FD08C02FEF3FEF35872487C3
:104BC0000F90DF91CF910895CE0101960E945E254E
:104BD000019719F4898190E0F3CF8FEF9FEFF0CF29
:104BE0000F931F93CF93DF931F92CDB7DEB78C0146
:104BF000FC018485958597FF0BC0CE0101960E942C
:104C00005E25019771F4898190E0F801958784878A
:104C1000F801848595850F90DF91CF911F910F91B9
:104C200008958FEF9FEFF1CFFC018485958597FD67
:104C30000BC09FB7F89482E08093E9008091F20066
:104C40009FBF90E0019608959FB7F89482E080930B
:104C5000E9008091F2009FBF90E008954091F30138
:104C60005091F4012091F1013091F2014217530764
:104C7000B4F49091E8009570E1F39091E80092FD12
:104C800019C08093F1008091F3019091F401019695
:104C90008F739927892B19F48EEF8093E800809108
:104CA000F3019091F40101969093F4018093F30144
:104CB00081E0089580E00895EF92FF920F931F9393
:104CC000CF93DF93F82E192FE62E042F81E0860F65
:104CD000880F0E942E2683E00E942E26CF2DD12FF2
:104CE000EC0EFD2EF11CCE15DF05B9F007FF13C049
:104CF000FE0184910E942E26182F80E00E942E260D
:104D0000812321968111EFCFDF91CF911F910F91D8
:104D1000FF90EF9008958881EDCF81E0F5CFDF928D
:104D2000EF92FF920F931F93CF93DF93D82E8A01B8
:104D3000EB017B01E40EF51ECE15DF0559F0D7FE21
:104D400012C0FE0184910E942E2621968111F4CF7B
:104D50000FEF1FEFC801DF91CF911F910F91FF90CF
:104D6000EF90DF9008958881EECF0F931F93CF933C
:104D7000DF931F92CDB7DEB782E0898342E450E033
:104D800060E072E080E80E948F260E949925DC0195
:104D900012960D911C910115110589F0D801ED9124
:104DA000FC910280F381E02DBE016F5F7F4FC8014F
:104DB000099597FD04C0F80100851185ECCF898124
:104DC0000F90DF91CF911F910F910895615030F0B6
:104DD0002091F100FC0120830196F8CF289884E609
:104DE0008093050208953FB7F8948091E90190916E
:104DF000EA01A091EB01B091EC0126B5A89B05C09A
:104E00002F3F19F00196A11DB11D3FBFBA2FA92F49
:104E1000982F8827BC01CD01620F711D811D911D46
:104E200042E0660F771F881F991F4A95D1F70895B2
:104E30008F929F92AF92BF92CF92DF92EF92FF92AA
:104E40006B017C010E94F3264B015C01C114D1046B
:104E5000E104F104B9F00E94F326681979098A097E
:104E60009B09683E73408105910580F321E0C21AD9
:104E7000D108E108F10888EE880E83E0981EA11C95
:104E8000B11CE4CFFF90EF90DF90CF90BF90AF9038
:104E90009F908F90089565E070E080E090E00C9422
:104EA00018278F929F92AF92BF92CF92DF92EF928C
:104EB000FF920F931F93CF93DF936C017B018A01C5
:104EC00080910B01882309F45CC08091060288233D
:104ED00009F457C08091F80180FF05C08091E0007F
:104EE00082608093E000E801B12C8AEFA82E93E065
:104EF000892E2AE3922E209711F4BB20D9F10E942B
:104F0000882581110AC0AA94AA20D9F161E070E035
:104F100080E090E00E941827EECF8C171D0611F05C
:104F20000CF08C2F9FB7F8948092E9002091E80054
:104F300025FD02C09FBFDFCF282F30E0C21BD30B5F
:104F4000F701815020F041914093F100FACFE20E39
:104F5000F31EBB2021F09092E800B12CEBCF8091A2
:104F6000E80085FDE7CF9092E800BB24B39420973A
:104F700009F3F3CF5D9884E68093F70110161106CC
:104F80003CF081E090E0F6019383828310E000E042
:104F9000C801DF91CF911F910F91FF90EF90DF90AB
:104FA000CF90BF90AF909F908F90089580389105DB
:104FB000B8F460347105A0F420E191E061FD94E063
:104FC00060FD990F62FD9295687F269FD0011124A4
:104FD000A80FA95FBD4F8C91442319F0892B8C93A6
:104FE000089590958923FBCF08958F929F92AF9259
:104FF000BF92FF920F931F93CF93DF93EC0177FF44
:105000000AC070956095509541955F4F6F4F7F4FE7
:105010008DE288832196F12C9AE0892E912CA12C87
:10502000B12CAF2DB0E08E010A0F1B1F41155105A9
:1050300061057105E9F4BD017595679580E0282F3C
:1050400030E02617370724F5AE01420F531FFA014F
:105050009081FD01E21BF30B31975F01AC0EBD1E89
:10506000F5012081FA012083F50190838F5FE7CF5E
:10507000CB01BA01A50194010E949136942F852F8E
:10508000605DF8016083F394A901692F782FC9CF7F
:10509000F8011082CE01DF91CF911F910F91FF9007
:1050A000BF90AF909F908F900895CF92DF92EF9234
:1050B000FF920F931F93CF93DF93EC017B0115E0D9
:1050C0006A0185E0C80ED11CF70141917F0144239C
:1050D000D1F04032B1F040544102A00111244459B2
:1050E0005E4F6D857E8505E02FEF30E08B859C85DA
:1050F0000E94BE248B859C858C0D9D1D9C878B8773
:10510000E3CF40E0E9CFDF91CF911F910F91FF9066
:10511000EF90DF90CF900895EF92FF920F931F933F
:10512000CF93DF93EC017B0113E0F70141917F0105
:105130004423A9F040524102A001112444555F4F7D
:105140006D857E8503E02FE330E08B859C850E9492
:10515000BE248B859C8504969C878B87E6CFDF9148
:10516000CF911F910F91FF90EF9008952F923F9252
:105170004F925F926F927F928F929F92AF92BF9267
:10518000CF92DF92EF92FF920F931F93CF93DF9313
:1051900000D000D000D0CDB7DEB75E834D83B02EF7
:1051A000A12E922E832E9B012B583D4F1901C02E0C
:1051B000D12EE92CF82CCA018B56984F9A838983FB
:1051C000DA011196BC83AB83F1014590559065904F
:1051D0007490862D8C77E9F0E62D062C000CFF0BE1
:1051E000F595E795F595E795AFEFAE0F0A2E000C14
:1051F000BB0BAC5CBE4FAC91B0E02B2D3A2D492DD2
:10520000582D0E94B0366B017C01E05CA981BA8107
:10521000EC9360FE0AC080919D0790919E078130BB
:105220009105A9F0029709F463C0C201892B09F026
:1052300087C0F3E02F0E311C61FEC6CF2D813E8169
:105240002B56384FD9011C9281E090E038C0ED8197
:10525000FE81359751F78091A3079091A40701969D
:105260009093A4078093A30740919F075091A007B4
:105270006091A1077091A2074F3F5105610571052B
:1052800061F42091A5073091A607281739076CF61D
:105290009093A6078093A507C8CF092E000CAA0BF0
:1052A000BB0B481759076A077B0709F0BECF65E9B2
:1052B00077E083E996E00E942B3790E080E0269625
:1052C0000FB6F894DEBF0FBECDBFDF91CF911F9117
:1052D0000F91FF90EF90DF90CF90BF90AF909F9095
:1052E0008F907F906F905F904F903F902F90089598
:1052F00060919F077091A0078091A1079091A207EC
:105300009601A7010E94C336672B682B692B09F011
:105310008CCF80919307909194079C012F5F3F4F12
:10532000309394072093930733E0880F991F3A95A1
:10533000E1F765E977E08D56994F0E942B3775CFDD
:10534000B201660F771F640D751D90E080E0860145
:1053500097014B815C810E94B628009709F069CFC4
:10536000AECF0F931F931092A4071092A307E2E20F
:10537000F9E485919491BC01660F771F680F791F3E
:1053800090E080E001E010E020E030E050E040E01C
:105390000E94B6281F910F9108958F929F92AF920D
:1053A000BF92CF92DF92EF92FF92CF93DF93CCE048
:1053B000D0E086E0C82ED12CE12CF12C0E942336BF
:1053C000A70196010E9491364B010E942336A70146
:1053D00096010E949136D401A458B94F2C91FB013B
:1053E000E458F94F80818C932083219739F7DF911E
:1053F000CF91FF90EF90DF90CF90BF90AF909F90B4
:105400008F900895CF92DF92EF92FF920F931F93A8
:10541000CF93DF93809164008E7F809364008091AE
:105420007A00806480937A0080917A0086FDFCCFB8
:10543000C0917800D09179000E94F326AB01BC01A5
:10544000CE01B0E0A0E0DC01992788278C019D0106
:10545000040F151F261F371FC901B80120916400D2
:10546000216020936400611571058105910511F09B
:105470000E947236C090A507D090A60711E0C11A0D
:10548000D1080D2C000CEE08FF0881E090E0A0E0B0
:10549000B0E022E0C216D104E104F1047CF00E94E5
:1054A0002336A701960121503109410951090E9473
:1054B0009136DC01CB010196A11DB11D21E030E048
:1054C00030939E0720939D0780939F079093A0079A
:1054D000A093A107B093A207109295071092960788
:1054E00010929707109298071092990710929A07B6
:1054F00010929B0710929C071092940710929307AA
:105500000E94B129C3E9D6E0C12CD12C7601C39405
:10551000E991EE2371F00E2E000CFF0BED50FF4FC2
:10552000A081B0E0A70196010E94B0366B017C011A
:10553000EFCF63E976E08CE796E00E942B3710927C
:105540008E0610928D0610928C0610928406109290
:105550009206109291060E94CD2982E090E09093ED
:105560009E0780939D07C0929F07D092A007E0926C
:10557000A107F092A2071092950710929607109239
:105580009707109298071092990710929A07109215
:105590009B0710929C0710929407109293070E9409
:1055A000B129E09093070E2C000CFF0831E0E31ABC
:1055B000F10881E08E0D1816F4F5D12CCD2D0D2CAF
:1055C000000CDD0BCE15DF0594F583E0CC0FDD1F5D
:1055D0008A95E1F78E010D56194FC556D94FF8013E
:1055E00001900020E9F731978E2F801BFE0101907A
:1055F0000020E9F73197EC1BE8174CF08E1315C02B
:10560000BE01C8010E9422371816190674F4F80169
:10561000C801089621913991DF0111973C93DE0171
:1056200011972C938E179F07A9F7D394C7CF01E04A
:10563000E01AF108BECF1092680610926706109229
:105640006A061092690610926B0610926C06109210
:105650006D0610926E0610926F068FE097E2A0E042
:10566000B0E08093700690937106A0937206B09399
:105670007306DF91CF911F910F91FF90EF90DF9014
:10568000CF9008959F92AF92BF92CF92DF92EF9208
:10569000FF920F931F93CF93DF935C017B018B01EC
:1056A000D0E0C0E0F80191908F016501CC0EDD1EC5
:1056B000C6010E947B36981621F0692DC6010E9412
:1056C00083362196C430D10569F7C701DF91CF91A8
:1056D0001F910F91FF90EF90DF90CF90BF90AF9010
:1056E0009F900895CF92DF92EF92FF920F931F93B6
:1056F000CF93DF93EB017B0124E0E20EF11C8B01E1
:105700006C01C61AD70AC601800F911F0E947B3612
:10571000F80181938F01EE15FF05A9F7CE01DF9106
:10572000CF911F910F91FF90EF90DF90CF90089550
:105730001F920F920FB60F9211248F939F93809117
:10574000E1009091E100937F9093E10083FF0FC00F
:105750001092E90091E09093EB001092EC0092E33C
:105760009093ED001092060298E09093F00082FF73
:1057700022C093E09093E9009091F200992319F0F0
:105780009AE39093E8009091F701992341F090916A
:10579000F70191509093F701911101C05D9A90919A
:1057A0000502992341F090910502915090930502D2
:1057B000911101C0289A84FF18C08091E2008E7E6A
:1057C00081608093E2008091E1008F7E8093E10010
:1057D0008091F8018E7E80618093F8019F918F9176
:1057E0000F900FBE0F901F90189580FFF7CF8091FC
:1057F000E2008E7E80618093E2008091E1008E7EE7
:105800008093E1008091F8018E7E8160E5CF1F9248
:105810000F920FB60F921124CF92DF92EF92FF9268
:105820000F931F932F933F934F935F936F937F93A8
:105830008F939F93AF93BF93EF93FF93CF93DF9398
:10584000CDB7DEB76C97DEBFCDBF1092E900809177
:10585000E80083FF25C068E0CE0145960E94E62659
:1058600082EF8093E8008D8987FF39C09091E8002E
:1058700090FFFCCF982F907609F034C19E894F8914
:10588000588D2F89F88C911131C0803861F5809145
:10589000F6018093F1001092F1008EEF8093E80002
:1058A0006C960FB6F894DEBF0FBECDBFDF91CF91DF
:1058B000FF91EF91BF91AF919F918F917F916F91E8
:1058C0005F914F913F912F911F910F91FF90EF901A
:1058D000DF90CF900F900FBE0F901F9018959EEF06
:1058E0009093E800C7CF1092F100D5CF913059F4D2
:1058F0008111D3CF4130510581F68091F6018D7F22
:105900008093F601CACF933049F48111C6CF41305C
:10591000510519F68091F6018260F2CF953041F47D
:105920008091E80080FFFCCF20682093E300B5CF92
:10593000963009F0A9C00B8D1C8D22E01092E90071
:105940001092F4011092F301F2122EC01092F201A3
:105950001092F1010E94B5261F8299E09983FA8284
:1059600091E09E8390EA98879AEF99872091F301BE
:105970003091F401275F3F4F3C832B838D8310923E
:10598000E9001092F4011092F3011093F2010093D8
:10599000F10149E050E0BE016F5F7F4F80E00E945F
:1059A0008F260E94B52679CF1093F2010093F10162
:1059B0000E949925DC0112960D911C91011511058B
:1059C00009F451C1D801ED91FC910480F581E02DDD
:1059D000BE016B5E7F4FC8010995009709F03EC17B
:1059E000F80100851185EACFF3E0FF120EC08F8920
:1059F000882309F440C0823061F440E860E184E625
:105A000092E00E945C26811148CF81E28093EB00F6
:105A100047CF813029F440E86BE088E592E0F1CF90
:105A2000833099F70E949925DC011296ED90FC9045
:105A30008E010F5F1F4F6801E114F10479F0D70167
:105A4000ED91FC910680F781E02DB801C701099521
:105A5000080F111DF701E084F184EECFD8011C92EC
:105A6000F60101900020E9F73197BF016C197D091B
:105A700040E0C601C6CF62E472E0FB01449150E011
:105A800080E80E948F2609CF973009F4BECF983066
:105A900021F481E08093F10000CF993009F0FDCE30
:105AA000837009F0B2CFEEE2F1E081E031E096E3FD
:105AB0002191222371F08093E9003093EB00DF0104
:105AC00011972C912093EC009093ED008F5F87301D
:105AD00079F78EE78093EA001092EA008F8980932D
