:100000000C941B270C9443270C9443270C944327F0
:100010000C9443270C9443270C9443270C944327B8
:100020000C9443270C9443270C94482D0C94B72D23
:100030000C9443270C9443270C9443270C94432798
:100040000C9443270C9443270C9443270C94432788
:100050000C9443270C9443270C9443270C94E92FCA
:100060000C9443270C9443270C9443270C94432768
:100070000C9443270C9443270C9443270C94432758
:100080000C9443270C9443270C9443270C94432748
:100090000C9443270C9443270C9443270C94432738
:1000A0000C9443270C9443270C94432700B06F868D
:1000B0007D0700D0EEE600000060566139231894F9
:1000C000EE610F15BA10E8D41741ED00F401ED0010
:1000D00000C06320673125019DA54C21ECF6E62484
:1000E0006C00A336FF119357F90700002C03F99712
:1000F00024A16D539BE206B04015E04232E2783114
:100100007006F200530136631B38005098A4EEB518
:10011000000006650050001000F06266AA3340E857
:1001200000E0BA506D532CC3566162160064006043
:10013000AB9376566E78CFD56B617441EDC0F6C740
:10014000A975A9656701002000501BE8E55544A882
:10015000ECB5F90756E18E81BA3043E2C9733374C6
:100160005261E7E654668ED30060BA300000240185
:10017000E703E5E5005045704A56FFE7EE5600F00C
:10018000EE262C23334100D0C0122C3300A0ED808A
:10019000B0910AA29D5136038B989044F000EE0670
:1001A0001B08C0E236E5F9552E008C072C0354934A
:1001B000EEA6005000B0EEA59B3500902CA31121B7
:1001C0006C002C0600000000F0068E0394B1DC03E6
:1001D00044215DF31241845128142133A00705C541
:1001E00064271D3100E08EE32C5308E2AC813937DF
:1001F0009654B9250142D905BA0067018E03CD0195
:100200000000C05214E60050407843D194222D05DE
:100210001B085403BA00A80336034FA60180D80474
:10022000F3053675ED800060C1F6A548E0C1728324
:10023000881255472CF32C1324F6AFA00000400081
:100240002C030000EE662C732C33D9B218403623F1
:100250000060AFD0AA22EE563D753B5919B4E613A3
:10026000E683F9570070C06200C000C0E575B26156
:10027000BA50EC14CC77B5615612F4012C03BA00D5
:1002800073752CD3D7448E031B08000064C11B2850
:100290006C30CF50B5D8A71556B056C1C75400C062
:1002A00000808E14A9C51024103795724369001080
:1002B00000A02CA300105293BDF15F57A6070000C9
:1002C0000000C00200008F0392040000B603A935AD
:1002D000BA102C9300E000E00060E218EE352C63C9
:1002E000EED526624F3253C8BAC0CC7700C000208A
:1002F0002C37ECB3F676FB249326E9E70D876DA344
:1003000000B0F907F481BF606F33F7202886726868
:10031000D596FEA10050E6E51543E565A3F61A86DD
:10032000B44148000201BA00CCC7C92100300050D6
:100330000060EE260040B2B1BA302CC3F1212C335C
:100340004204EE058E034696EE66194983B3A791E3
:100350007721B2B100600070000056010000F00685
:1003600000C0BA2000402C53EE36BF009615E718A7
:1003700079729FE7D073D4E6DAA8BA40000000C0D3
:100380000020C0026D93EE451B58F9875641EE35AB
:10039000B4531B887024009000600040BE360010EB
:1003A000EE066361C5551BF88CB1EF002BC700202A
:1003B00000307093ABF26D532CC3EE26C331058130
:1003C0007CB484575E629CF2A9501427F7720A41EC
:1003D0002E7658061C595160B158A885000063005C
:1003E0000000F9070000590300C000C02C73919071
:1003F000BAF0537100D0B8E40000E7882CE32B1367
:10040000130800000000E5952CA3285000004A06C0
:10041000110100A033B90000F5717065EB131B08E2
:1004200000C02C23AB0300000000DF52007400204A
:10043000A013716839210684E816BA00EE35005021
:100440002C13A9052C03000085A48AB00000AB235F
:100450008E83CF36EE24E2608C8111C900202C33CC
:1004600053A800B0C002F441F3D6AA2525084C15C4
:10047000C7655B373C6130492CC32C230030ABA3EC
:1004800056C13062BA40EEF600102CA3A9B5D203D3
:10049000EE059C07A302C05200600080A3A6DE42C6
:1004A000BA60CC07E505000096C500A02C53E0001B
:1004B00056012C03EE2016F489476F548CB4EA15CC
:1004C000F0722B60564131E400808A370080EDE005
:1004D0000080BEF4CF21D1562094B33642077B0171
:1004E00065060D0400008C11564100D08C616D33FF
:1004F00053437C76DE6407C2C626F9370040ED2000
:100500005581922780B8FA41D40833C69E242CF333
:100510002CB30000EEA62CF38E231801AF05370490
:10052000F9072C03000000C0002059330B04E5003C
:100530000000B300920294028E532CE3005000009E
:10054000A803A70200E0EEE58857A905BA002C032E
:100550002CE3D1F3B8504E0572A68F50F8370DF842
:100560004F6845F3F6F11A50B60143E41F8400D0FA
:1005700000E06D03ADF44608C2380804E50500004C
:100580005391F905008037151C18E75105039904AC
:100590008E038E030040B7830060BFC08C710000E3
:1005A0002CE3BA00890400F0EE66E5052CE3C08276
:1005B000EE2656A10060D263A9D5CD676490F360A2
:1005C000AC87C1722F732D371004EE0500000AD4DA
:1005D0000060BF3000002C03000067010000AC0287
:1005E0000070CC47413442A263B70000C901140334
:1005F000000000F00070D742EE3600402916710866
:1006000052080000E5056D0300002CB3EEA6553638
:10061000DF47EEF6BA1000A0AFB0E505AA92CCF61F
:1006200000700070B0442F020000F907100400E4CD
:10063000EEE5EE55EEE5C0821830F9C76D23493678
:10064000E5652C63E1101C11EAC86840ECF0977274
:100650002C53C03494449E11D60400002F02AAC229
:1006600000C00070EE95BAA0F0568C8107938E53AF
:10067000DBA5222658536C871CB7CC3718B04F74B3
:100680006255C6953AF00070BA105050591300A048
:1006900096B500002CE38EE3EE559A15E2409D00DE
:1006A0004D609437ED562632EE455482BA9000A044
:1006B0001850F0E62C53837100000000000000D0B9
:1006C000A362EE3600000000E008C01290770050F0
:1006D00000940010420491E2E485673100B02C13CD
:1006E000EE86003000A0BA408D4882A54066200901
:1006F000F3821603D28400A011710000A8028D01BC
:10070000EA0614F60060F9A7E5B500004EC800201F
:10071000003000C02C23003000A000B0BA009BC005
:10072000A2226D33A6442F482072CBA73837BA7067
:100730003D167D413D110E584A579A31EDF08ED34A
:10074000CC276EC1EE268E3300E000207F03E5A5A6
:1007500000D0004000C02C230030ED2064E1C481B3
:100760002CC392C550722C93F3F65471BAC06D230A
:100770006D33E2E8C052BA70E0E7008000302CC36D
:10078000BA20BA3000702C23F44100E02C830030F2
:10079000C0020000AA0000E0E555C0721406D203B2
:1007A0006D0300000000EE062C7307148B1371C854
:1007B000002018306DE3C5E6EE6600C02C23003043
:1007C000670100002C032CA3BA80EE76509100F054
:1007D000007000D08CE1C70600A08872D2617974E5
:1007E0008FA61D4648A6CCB8E505F9C7F924003008
:1007F000632000E06A839206CC07710800E0009055
:10080000CA05009088E0B3601B28E098EE652C03D1
:100810002C03000000C0CC27EE362CC30064E53565
:1008200000C0002000308A0753B6E54500000000F4
:100830002C032C53C0322C1342041B080000000070
:10084000EE05D20300D000B09E47F401EEF5C816C5
:10085000ED402EB2CB03BFD239E2560144B39174BE
:1008600023047906F0000000009042F41B7800E0B9
:1008700000E000600030E0D841382AC6BF20E535EE
:100880002E002C03F441918500E09370A694A1A45E
:100890008E535193B58509050E44F9378E376F1382
:1008A0002F32D283BB45AE123A534E1714A9A91466
:1008B00069E2B566E31458F2022948120020436841
:1008C000E575AEC53C8596124A25E5D8E25700A5E8
:1008D0004577ED60AA02BA00F40100D0F4C1CD530F
:1008E00012C4AA27553231063F084C000060E59536
:1008F000E555BDE2F4B6A000CE65A74335268EE4EB
:1009000044E0B06048A6C0B2E505AB93ABF7007019
:10091000000000006D0300700060168100209CD074
:10092000EE36D203FFF75301EE0200000000000094
:1009300000008E0100E0BAE08C517BA4EED6F441B9
:100940006DB38E2353714EE6E038B64002050000C9
:100950004905AFB0F411C586F1F16DD38E032106C0
:100960000404CC07000067C1002000000F04F90751
:100970000DE900E000602CB3BA10EE86DF4200E023
:100980000004EE0600000000BA302CF30060ABB3A8
:10099000BB10F9972C030000FF0700B0BA8000805D
:1009A000AEC0C022003000000000EE060030CCA730
:1009B000EE2604010000000000D082638E33800127
:1009C000000000000000F006D2030000000000005C
:1009D000BA60B654AB1363068C01000000C011C7A7
:1009E000D27300D000A07021DCA418B00000BAA01F
:1009F000F0660030260656016D030040EE56A9351C
:100A0000E5F556A1BA80A87300B0003000006486F6
:100A10002A377225DE480040EE5500300030A8022B
:100A200000308E03D7322C530010EB020000000080
:100A30002CC3EEC5BA7048A354332C5329D00060A0
:100A40006D3300007F03EE06D203D203F30600A04D
:100A50000090BA7056A1E5B50000D704E505EE0692
:100A6000F401E6F600540060BAE081761F896DC398
:100A7000ED70F8442C438872D2419B54BE37EE95FA
:100A80002CF3F376BA50E5E52C532C43EE35F49174
:100A9000DB94A4625433A873A7801606DF557EE862
:100AA0004254E5050000000005D2D2E8FC017D4873
:100AB0004837F0454CF26E30E525FF43ABC3F36693
:100AC00092017B06F30600C0002000309DC85186CD
:100AD000EE157691F4A166540000000000002C038E
:100AE000F907E505CC670080630000006701E505B4
:100AF0004417F0000E315A53F434A295FA57E40724
:100B0000C9683531ED652C732CD3A96500301464A8
:100B10006E53C01200C00020BA3000D0EEA50030E5
:100B20004B663B62E361324646943E58D3C1AF9078
:100B3000A53290512831EE50EFA002634B035301D0
:100B4000A9C52C232CD3E2600030131626E5CC87F0
:100B500050B02C13008000308BB1C3178D833889BF
:100B6000C13510C7D6A55C87A24068F1F411614178
:100B7000EDE04287D812E1B592433E1704A80F4931
:100B80000040BAF00010E2082C0300005EA7EEB6A9
:100B9000EE05EEC6E5352D431BC80020BD3453518C
:100BA0002CC355175036C8418E137844ABF3001050
:100BB00092D4006000302C03DA046D03EE0523C8E4
:100BC0002C26835826185C1889E2368106352CF3CA
:100BD000F9374C03C7D13249F947C6E815989887C9
:100BE00027E6E5F51B47ED00BA0000008E2300E084
:100BF0000080001000008E43F4E1F3E618501B085B
:100C0000F9070000C022BA10FA78F967EE35C03251
:100C1000BD04E0080000E5352C5356115751D4D3DC
:100C2000726094C0EF75000000702C63EE151B58C5
:100C300000E0E55500307AE6C38555A09314CA71EB
:100C4000E355ECE8AB50CC0772010000A9750060D9
:100C5000671100D000040060009085F4BA700000B5
:100C6000E50500008EB36DA0ED30DF24A4A0503365
:100C7000F246F9E52542311900500020C0E2E55561
:100C8000007000042202CC07D2C36DA3993355181B
:100C9000E626158456A1A6A3F070F185081500007C
:100CA00063C700200030AF00EEC60825002000D04A
:100CB0000030F9E700E0EE65C9F52C73430143D13C
:100CC0002C630030CCE700E00060EEE500804D369C
:100CD0008EF343B3E5052CA3A9A5F3248144EEF5D7
:100CE00095121907EE05000000904AC62C130D0856
:100CF0000108A90596C7002000306D0344D4678120
:100D0000EB34B9F43719A1023FC01F298E0300004C
:100D1000CC0700000000C0023603EE050000821878
:100D200050182C83000056C11820BA008E01000014
:100D30004264EE5582610010F4817E73EFC6EE26A8
:100D400000302C03BF000000F4F12D614B185367F5
:100D5000EDE0000000802C430440C5280A83614870
:100D6000F8F556C76B266640D7F4E515E505390456
:100D7000A905BFB096A5C032BB061304C905000083
:100D80000000E50500508EA3F4418320CD48651492
:100D9000A2042C03B9003DD000B02C432C036D03FA
:100DA000E10153E1001000603BD0AF600030000073
:100DB000F4010004F957DFF28E7400E400802C3354
:100DC0005CA317B0960568D810D9F170FAC5E2880F
:100DD0002C13AFA02CB3000091860000DD548E03CD
:100DE00000400020F4416DF300101B3800A00020EB
:100DF000EE55D2E30050C0526DE36751E5452C53E8
:100E0000BA30E500EE05EE45000000E000806DC35D
:100E100000C0E5751AF8AAD83A840000960578044F
:100E20002ED050600030000000C00020F421EEE51C
:100E3000C002B3C40D887502097244942C53D9C4FE
:100E4000E525E535536100508C11C7C319E7E9204A
:100E5000F4F87F10CC962C93EEF58E736DD38E63E1
:100E6000E838C4D7257543072371FC78FD25277220
:100E700037838B470094A8A23359CDF600A0E545EF
:100E8000EE064204A302E5E52C830030F124BA55B6
:100E9000E820C0000000000000500090C6511B83F5
:100EA000A7A568279663D79200304837EA033240F7
:100EB00078D7000078772412B021A08854014B0322
:100EC00015017401000000001E000000F4069643A6
:100ED00013C29643131071000B43C10596B3F5443A
:100EE000CF033402F60072004601F107581761A7DC
:100EF000C637B3680090E73015F700902E141382C0
:100F0000E7A0F735D7000000EA00131272405E55E3
:100F10006F07F2A68C245358B050679752343E6244
:100F20002381C035C1A6D1171A59E0E3CB48839677
:100F30005FE30C74756163F413047435C601624495
:100F40003562E7902E3493E50030005010D8C7E5A5
:100F5000724028198D4156797A22EBB3F881DB81F2
:100F6000EB860168D9D27BA766149B5313F300105C
:100F700014F107F9FF15B865CE86BD650040F197FD
:100F80001332AC0447210663B8004EC0D518765220
:100F90003A347D85A9037D03C7036E15FB54FB74AA
:100FA0000060EAF023064664EB90FC32000000008B
:100FB0000000A08100E00000AE449375C61100B0AF
:100FC0001332E7107907003000806627EB422E5479
:100FD000AE44AD22A863EF510D99E7209603B70206
:100FE000000000102EF4E7704081B57759723E85FD
:100FF0001070F177135273309623F0C86C64004080
:10100000E700000093053068DE9600307BD40EF3D5
:10101000733109002E0476071E003D1213126EF084
:1010200048A13D5509A1E888F650387600D0E72060
:10103000082009700D07C6E113F213629883C341BB
:10104000FC94BF75C1E0000000006C01EA0300E001
:1010500000101E44D19100F0F670878607D9F10286
:101060002754ECF71E649C421812A05497E15137A4
:10107000055551E700259643966300903E3500D014
:1010800030680040720027040000C64114677441B4
:1010900092250070C60100004601A8039534137222
:1010A0001E44F30162B4816689E31312130253678D
:1010B0006C94F137DE8600100030000000002E0432
:1010C0007260C494EA3000700000463100301312A0
:1010D000E62700300090C65100500060E790720093
:1010E000C60109000020F177EA0372F013021332FF
:1010F00041B596F3D441DE0672009603C66196F3BD
:10110000D7027240C474991193353E153E25F735C8
:10111000DCC5C543072362536C7440C71D627C4421
:10112000134200C01342965330189385FEB1AEF2BD
:10113000961388281332F1576C3441906C54EA00AE
:10114000AE049305D742C5686A50C702D7081C0889
:10115000967300E000000000130295079603050354
:10116000EA01133246113E25AC8631A0F03400C0AE
:101170009365484713E2C338005041013004EA0048
:10118000F107EA00C404E8380910932522A1D62803
:101190009643116346C13515F6809623C2871EB467
:1011A0001431192700C7D4E64F18EAC00060204068
:1011B00096031302BD0000B0006096630000720049
:1011C000000000600090963300D0D4B11314136275
:1011D000F147001000901EE42717BA5470656A8822
:1011E000E866F2C21E14938593A50030F620DD75E3
:1011F000EF02127372E0000000009305AB06463167
:1012000013B29C3408F765693C51874216751E1469
:10121000AA9410311667934500502E241AF296D3E3
:101220001953C6A1FA2113421322C474F197A7835C
:1012300089070D9101B59583FF86112796D43065F6
:1012400087A60CA01D243B684410C6511F03BC0593
:101250001A04006000C000104D02A80300006009DD
:101260009D017A0572E01E24BD47B9E7CF721E6169
:10127000454020A400440000000000007683723046
:101280000020EA80C691598200A06401E808426308
:101290001392A833FBB42CF90040396700909C38B6
:1012A00000303E1558220030D698F3529633001085
:1012B000002001272E753004493028B4D258570732
:1012C000AE04AE056E05D40138091352009078279C
:1012D000F1773F059653000012030000006065C9D6
:1012E000E7100A736CE412836F319F832D2403830C
:1012F00031789F76CD079D08C600C601E8086E05C7
:101300000030F197CB52F1470030E4201332F690D1
:101310003E55460174015902007000800D87593214
:10132000F610552200002E0478077607C601160530
:101330004D688A95A83399054303580513022E0476
:10134000460130681F92EA3074010000F104004049
:10135000F17796137EE47C21EA464065AE070D776F
:1013600093C570370D972EA413A20060006000F0A3
:101370000000BC0496C3C0506C041F00F902E720B3
:1013800013F26A45C5E00563E88072854773BD7452
:101390007A064A09C4047369A291DD364661C6D152
:1013A00038825108FB042807000013020000746112
:1013B00036E37D638F78F1F4BA203D406D16A623A5
:1013C0001FC84734DC731E3474116C242AB9F29799
:1013D000EE12D837C641612291A37B588C25B9C241
:1013E0003730B47624290070C60165091108590206
:1013F0000040E8D8362272302994005000E0EA50CC
:10140000C6311713E756BF70CD42A2C1DE863E65D6
:10141000E8907230006013E24087B33296937657BB
:101420001302B2033E0500009305F100D688A873AD
:101430000070C4347411352572773B09F157FA7383
:101440000090743157622F942E34FC422AC4FF401E
:10145000CD542570C9510300E105E02416E520377D
:10146000FE13EA639643D6180000C404160574D12F
:10147000E9F8C404F83561133E254BE94430485778
:10148000468100208A55493464E90110200389050A
:101490001102AE0413027807F160F194B7370060CF
:1014A00000C00010E44000E0130200E09613E740A3
:1014B000C4E4003074514E34A264D751C514D2F242
:1014C000E740FEE510F7E750F197C601A40769353C
:1014D00000100D271E083E05960313629345001069
:1014E000F6E0CFB700107300000000001E408A77BE
:1014F000001072A0C6E13E05C0C60EE000091A0841
:101500002C057405C4443074001000000000000075
:101510008342EA7300101E623446721085656C9433
:101520007737EC684DC200107111E7F03E250030AE
:10153000961313227240E8F8E82800002306000002
:1015400096237175960375E30030C651FA5413342F
:10155000EF4300E0FC36005000A00080C651B252BC
:101560004BE05E87253494136C24130213020000B1
:1015700000B06CF4CD22C671C6E10000F127EF7710
:10158000000000200070C6010000C601000000A09D
:1015900000E0650900E093257240EFD27807007003
:1015A0000B01C404000096A300E0000096C3C6B17E
:1015B0004641F6B000F09643A2F11382FA360030AD
:1015C00000B0B125E60096037607D7021EE49882A4
:1015D0008EE330106849FF3272A11E643627AC8753
:1015E0005E746BE47419F046521375941312BED7EF
:1015F00000F0D11600201F7262015E6500C0C611A6
:1016000032009603000013C2002000508A351D12DC
:101610000020009098083104DEC600604641D608DC
:1016200018081302004093451E608C96828416258C
:101630008E808C372E6400003B010000005000902B
:1016400000403544F1767441E460FEA704777FC121
:101650000C621248C6E1E3E0FB0613A20AE90000AF
:101660000000F1070000742196739603006000905B
:101670009335F334C4100020002000701605C38891
:10168000C60172345BD278416B27DE973432E12693
:1016900071C821237457EF3853173625134296E348
:1016A00000005E396C94005000B093F53E3500E0C8
:1016B000E860D75730082E04AE04934500703E15FD
:1016C00063C100602E4496830BE413825E62119422
:1016D000E831F1B712686F17006030680D77164572
:1016E0000070961313020000000075D638A56E44F2
:1016F000AF0264071302350396330080FA92136237
:10170000101200600090003046F198D269591E070F
:10171000E3076C0496639840EA104C9400060D07AA
:1017200099E10030005059420DE7F6011372E4C010
:10173000F6114BB9EA00391996E3C424934512080F
:1017400078070000006071E5FA71000080F4BC7752
:101750007668A7247688B70313025908CA33E1973D
:10176000555796030000F600006096E39365F6A7D0
:10177000DBA33454D6A83D57F050F582F750DC3047
:101780006EA9CFD6D032C1470C773E1932006C0813
:10179000CC070080136296833EE51218EA409297C8
:1017A0004292C0289A42F690614951419BE53E1110
:1017B000E87696E31302E3B870D1B964A9D7F7537A
:1017C000043432A4FBD5132000607A144E5800C0B4
:1017D00096C30050F248DD6214342908290712022A
:1017E000966374916C34004000E000002E446274F3
:1017F00000109613960373044A609A459E91134213
:1018000000302E2402C393A7882717D200009D26FC
:10181000C427FD957686F510126597421E24D602E0
:10182000009093951D626067332209646B895C792F
:101830007BE6A8742905000012081392E750C62120
:10184000A5574D325932B7323E955C5896039908E8
:10185000C500000000000000E71000F0417593652E
:10186000CCC2C611E8386B15E5201362F6909633AA
:101870001E5484010196FF6113A89A3475B08DC47B
:10188000C251F63013122326F6002C05C6010000C3
:1018900096038202137237D496234601000000009B
:1018A0000060B7C2591232850CE213825BB34AB4AE
:1018B000467765F77BD50283DFC30060604510C4BF
:1018C000ADA66C64E4E64F1106051302160572001E
:1018D00000605C63007000A0F6B0F1378107F6008D
:1018E000620400003E05F107003000903E55008084
:1018F0000070AC76C6019305C60113C27210C225F2
:101900009305C308AF01DA0000009603D6383412FD
:101910000020007096E37200C601C6C1AF51C661D7
:10192000A091AE34F6C0CF687647BD2013F22F6881
:1019300074D1000000701302F6000000EA9000501D
:10194000F6606C04C4040000D6983F4997471DC751
:10195000946317486C944D99FF34ECF4F5F1744896
:1019600098F7FDA23843E950C240007059A296434F
:10197000133235E50020464113E200100000ABC7EA
:101980006C0400902E042E0409006E95D49113026D
:10199000460146016C0400000030EF870020007013
:1019A000000073E913340050C32813727401FC3231
:1019B00051039693070730083709CF1100F0004014
:1019C000000000000000000000003E0500000000D4
:1019D0004601136207F5B804F8C26DF70020003025
:1019E00013C23E8500000000000096B3E7F0656971
:1019F00081017536E480C6C150A800600060EAC06D
:101A00000910FF949544BB770C4134B3B725960376
:101A100074012E04724000E05902E7E03F270040C5
:101A20009C17F0034E123A06000093051695C60166
:101A30002E04C4E4EAD0F660357371E42E0400107D
:101A4000EFF0007096D3D362E45000000000000075
:101A500000F0C4C4136272C02FC6EA7000609663BF
:101A6000FB7400600090003046012A042B04000043
:101A700000503E45FC02E857147800109643C551CB
:101A8000763300900050DE8613A4F6300D07000078
:101A900074019623AC36C65138A800C000501C34DF
:101AA0001C841D20816200C093151E9016550020D5
:101AB000833200E01D1213229613F4862E647847B9
:101AC0000010FB04FB0413022AB4AB4080752072A3
:101AD000AC23C045F3C600D08781AD78912767510C
:101AE000000000004F09464193351150F600930560
:101AF0001408EAD373B9F5715C3421801E29D6D05D
:101B0000B673BA27FF6314C8215994B59402C4145C
:101B100013220000009028176C547441C4C400F0D4
:101B20004022000093050000F10713020000960315
:101B30000020AF0100909603000000206CD400202C
:101B40009C6800C01312136200C0FC125A062303E3
:101B5000520913328917332394B8B0150E0833682D
:101B600033900735000093053E016C64A893D63886
:101B700000307360161513E273A0C6431352AC46CF
:101B80005713C4A40020004043603D32B5641FF4E5
:101B900034825E485412D607F0321E030000000063
:101BA000C603F2045B0996A39C25C95011C6D6B1A1
:101BB00073328462D8983D71004013C2B7423E052B
:101BC0000000000013C2EAA38B14A8032D05ED004A
:101BD000003000807421C434F6C0460113025972EB
:101BE000968300B000C0964300000D07EA00432131
:101BF0009971A80313629693003000C09693956282
:101C000000C0166500404019C9130918E9A6A24191
:101C1000E814B1A43C359A8896036D08A803F1A492
:101C20002EE4F903AE4497C81342DC77E6275260EE
:101C3000D0432D197A007E030BB59B70B53878F828
:101C40000000C378E8E800009643A8D30B8100F0B9
:101C500096832330452127A800103EE517054475DB
:101C60003E78AC76293103063B077706F1970050A2
:101C70001A224651DFC6345300903B51C62172A050
:101C80007B02001072000905000000E000109603BE
:101C90009633F610F127CD02660913022645EA7045
:101CA000F91213E22BA40040AE7400C09613C66173
:101CB00093E5F17800000000FC02000072000000D3
:101CC00000E0C935005000E03B0138920010006090
:101CD000E273E2E361375864000000000000000096
:101CE0000501B3078409EE03260AEF050000000092
:101CF000230B28177284A0287D23A41600D0F0851A
:101D0000AF6700A06137AB4900500070054100008B
:101D10003D0905013D390541254B2404C6C92799D4
:101D200055021D05250BE20300006A0700003D690E
:101D300061A7B9000000000000800531B16100100A
:101D40000561007061073D09620402530501051435
:101D500005410080F1982440008000804691778101
:101D600050B627A4F301FA200050050100103D29C8
:101D700044B9EC38AF07880B00000000EA08000007
:101D80000050EB083D192514FB939C040000000053
:101D9000000005116D660070004084F905410000E7
:101DA00005010000001061670571E12A00E00030C4
:101DB00000D01D159B53B6F56C6261B71DE5A528D3
:101DC0003D59069AF5A4F994030987072400AF2723
:101DD00060F161670000000000006107E20390010C
:101DE000E2036A07000005019B02000000500000AA
:101DF0000010E405243AB6A961D7193400905710B1
:101E000061676EA73F295D70C466BF335332635468
:101E100000000501000061070000F404F4B400E0D4
:101E2000E25359000501EB0581096D0605010070BB
:101E300005316A373D3324B0DB32E9F020AAC4799A
:101E40003D492480489605D105118D5654D57D080D
:101E5000003B05710070D8438449E2F37544F302F6
:101E60000E01F302AF078D06F40461B70EE10080A6
:101E70000000790800000000230B75043DF902A35F
:101E8000F372E034E8B5CA6183C724E9381A9DD3F8
:101E9000C80798B8F31623D673549085A7A216984E
:101EA0007BF225A0F06975E4C2A9AA0375B4E3E545
:101EB000265AA8B4B6F03D392719326A2470AF0704
:101EC0000000000024500501051600500541059151
:101ED00095E6C72908992CC017A41899001000602E
:101EE0003D79613761F7052167D78837E293E203CF
:101EF0000000000005D16117BF53482600E000A094
:101F0000C57A3C949E536CB923EB008005210040B8
:101F100084B900000000000005D13D69A96100E01E
:101F2000001061272450000005119CF47571E94AE6
:101F3000E812AF670070000000000501AF07000065
:101F40000000F454000005119316F3628D766AD7F1
:101F5000B131AF9790012480096BBBE2BFB2563616
:101F6000235BD3E7FE797351DB749B5AFD1604F4AF
:101F70002185EB581EE584090020F3927568481608
:101F800017652B7B27D96137A095002013E5E53035
:101F900027794AC6DB15C33949EA86079196A71502
:101FA0005001433BF83A7B836C60F0299C920040DF
:101FB0001DB5055100D0000000203DFBB5175B6743
:101FC00078E4CAAA26935D9961F188140511C16469
:101FD00005711EE22DEA604A89FA50B5E233430BDF
:101FE0000000000092046107C4092480A4165996D9
:101FF00005513D098419880B000000006D563D090C
:102000001D15618767AB247BE9035C0A75080070C6
:10201000B8692397A50696F4C691001000F00080D9
:10202000301B6D86DCB53F121262237B48160060C0
:10203000617761B76DF6F279C6F1C6F99D95615782
:1020400095991D4519D48B39D496F4540000051187
:102050000000000005018D9661F7D8328A49A12160
:10206000470823043C033D0905416D265900000043
:10207000AF0758000000000000003DF9F4A4BE784E
:10208000001015F015800511BCF40080AF07240086
:10209000000000304575156A40D6F185FC2390405C
:1020A00000D000009777140B45546A4B93546E830D
:1020B000743121F9172624E013437D80BDD8CC6A02
:1020C0003D69260A48060000B804660675040E91AC
:1020D000F3B25750F7F00A606908E1E044B0668552
:1020E0008FB50AA1053100507504F614AFD7A86466
:1020F00000600E310EF1002021140060C1741D3506
:1021000060CA0217FCF23DE88C970104C70019026F
:10211000000005014E01007005516A0405412400CC
:10212000F239B787C2024A1A00B0F4A4B46577E462
:10213000B8B7E066390ABF03F0056D66DC58DC56B7
:10214000566443799C040000F108AD000511246039
:10215000E27324406A2705013445FC677682F4F473
:102160006DA6007000003D09F3022400000000008D
:102170003D5905016117F7BAC6E7008075D4EBE554
:10218000F392E3558D0700103DD955D6293A61F7F2
:10219000F202195200000000000000000501590081
:1021A0000040002000000040008000900501000079
:1021B0000000004061270000004019F4F2491D456D
:1021C0001D851DA584010B01000000000000050114
:1021D00000F000A000700010F3620070052105916E
:1021E00005413DC9629A05143EE93F7AB2643F0455
:1021F000ED0900000020F43400508EB675540546F9
:10220000C31500B00541243074D5A415A5517C81B7
:1022100025215FC05781D791444B6434F399EBA2D9
:10222000EEF77617B2E18296777305A7ED3A162797
:102230007CB7C2E77E830000AF0761076A1761675A
:10224000007000001C02000000F000A00070000000
:102250000000AF076A070805230BBF036107750875
:1022600000106DF6EF8500106A6761773CF30D8A08
:10227000067B011000F08489005000000010924499
:1022800005C105614304F2695570E80AE00AFC07DC
:10229000F35200000010FF0900008409F10829072B
:1022A00000000040F1F8004075040000F3020080D7
:1022B0008449056405710571F62AB2A88BCAFF8AA4
:1022C000BF1A0561EB78765869F6AA71700BF404B1
:1022D0000000BFB800E02F8B8D0661071300055189
:1022E00061071D1531C685390F30C25554646A2700
:1022F00008D00060F1681D7200D00561A6F38DB6AC
:10230000D0350000000005010030921452856B5951
:10231000229405816137A3E94C3834A28CE76577B4
:10232000BA300511000000003D0900000000000067
:10233000040105F16DA6E27305410521F904B0B071
:10234000A5A7193275853785F1A861D761676167DF
:1023500061E700103D899011FF620273004005F1B2
:10236000054171BBCF285B75ACDAAF350090F3B295
:102370001836AE016DD605A10574272900E000309E
:102380008409AF07130092540070054A0000620AE6
:10239000910400002400000000C03D3900300571A8
:1023A00005811DA5FB030E0105016DD6B4850060F6
:1023B0006AE7001000200501006000A00010136013
:1023C000F1780000000000000000AF070000F108F5
:1023D000F404750200F056A30070EF956137F332F4
:1023E00000003D09130059B600E000800000EB0832
:1023F000600400000000F302BF9300A005718D6629
:10240000D90370439709850AC10A2D0B000000000B
:1024100005D17538E293E21359F03E82F3D2008081
:102420008469F434E2F3812839A345D86D01F304BB
:102430009A010000F1F805F1F3920000416900A053
:10244000F0D900300090050100000000F19828AAA2
:1024500098AA83907C563D6900806187619700103F
:10246000006000700000000000008489F342FE6AF2
:1024700000F0F9A40070FF09F10884090551F1C8C2
:10248000B43560517122DEB4D79338C71275020497
:102490001D05000000A000600070002000F000900A
:1024A0000000BF030000AF0700000000F158EB0878
:1024B0000010241000C07843869054A56C7963FB0B
:1024C00057D34144004000F0004000100060AF7757
:1024D00077020000040305A1A36861773298DC331A
:1024E000AA9A1AD2053100906D461320000005010A
:1024F0000000310B24D000303D993D096D069C034E
:10250000F1586107F4146EE3050109311D6561D7C7
:10251000D32671425D13DE7649A748C66D56B524B1
:102520002AEA603605E1B3D705A113003D0918007A
:102530006A07E20300006A77055100001932EA4099
:1025400013B500100060F372000000F000506D261B
:1025500041EBC33577227284F322000000000000B3
:1025600005040000000061070000000000500000AA
:10257000F31200709D2419B868004E0B00006A67C2
:102580006A67052161270000FC4705640521027385
:102590000591045BF0050010E2631371F14800201F
:1025A0008309F118F2F9008091404E2061076D0611
:1025B0000000A60860510000001039D30581927414
:1025C000BA34F9943C933DD52070134A3C09C601B6
:1025D0000501F2091E0200000000260A0901008020
:1025E00030A518A2E28079B9F162530605045906B4
:1025F00000000B0155040541052105013C033D097F
:102600006107840947065D0300000000F4040050E0
:10261000F1780040E21300A00050600AD5043D00AC
:10262000001000F000800501F40400008439C3D4D8
:102630009D440F010000130000100060F474BFD32C
:102640008C61796375040B01EB03F3927514002020
:10265000F0390581002098F73FC4005A13B01B667B
:102660000F15C108DA02D2045D5300500040240067
:10267000AF070000BF536D063B15A33419A4C382F6
:1026800078C02800093AB101F10800006DBB61E78C
:102690009500745800D21B79F4E2395A58423947F0
:1026A000002013002259B101301A00F06D66052197
:1026B000180131AA67426EC9F1891AA5E3256AE7B4
:1026C00000306157000000106A07F108320800402E
:1026D0008B21BC020551F3028869AF06C4090000D2
:1026E000002061E705310030053124505FF1D6A4A8
:1026F0000070051405619274610715C0197258873E
:10270000A2466A75DFB01C64292700000000220978
:102710000030F1F80020002070E0003092140060DA
:10272000007086F417A0EE430219BE72C04743E75B
:102730000764B7B3F404FC073D0900403D596061EC
:1027400019040501A204F015F4B4051A05B1EBE86B
:10275000605181A9C87361A68945DFC9AB57D520EF
:1027600033C65E036DA8C21851980000F3A275A588
:102770005DF3EC65F79ACB0A62071B0400006A0759
:10278000BF0000005D0A0000600100001E0261D76A
:10279000611705213E467514C5093FA7BDA46C9974
:1027A0006D0600000000003000F0602AB107A305AC
:1027B0003904F3D20561756400100060AF7724E03E
:1027C000177605B1A1E9A178922A4028E7C01949F6
:1027D00005010000000005A16A67617705D40010BB
:1027E00005510F550000AF1705015808000005946A
:1027F000B7F700409435002000009C477822E1564E
:1028000052190048C974469319CB71271D047203ED
:102810009C04AF9775546D0B002002E300308409CF
:102820000000F108004005213D098DA6F3E2F158B2
:1028300000106167AF7700900070F059AD526BC720
:102840004B67EF3300F0F424000000000000B308F1
:102850000501A406F30200000000051105610070E7
:10286000001005E1C93A4058A1061C150070056129
:1028700045A050008E0BEB05E2730070F32224405C
:10288000057105411D557503C7146A070000050150
:102890007564607AE60077A23B372B69228984CA87
:1028A0004C10243000F07524614780FB0040D88331
:1028B000F444CD4A52CBB1454B2A811100F03D89F9
:1028C0003DD900300591AF2700E0E2330551927405
:1028D0001D45319689517E510D712766FB661EB1EB
:1028E00003A3AA0875188469627A000000B0051174
:1028F00005040000000005A124600070008005416F
:102900005D636157050105113DC913A5059422A911
:102910000C458C80DD00E203F302F404430B440910
:10292000003000F00521A60561B76D7600000000BB
:10293000000061070000050161976157007000F019
:1029400000A0006024C06662741200D000606D6652
:102950000000F30200006107050105045455F3026D
:10296000794800F000B0003075540000001000B04D
:1029700000E0168B5FB8632AFA22BCB80000001092
:1029800061070000000061E7001000208D070000D3
:102990000000005061B710336167F3728D9759E4FE
:1029A000A2B21D05A0B9EBEA9186075100000511FE
:1029B000052105B1D854455600707544754800800E
:1029C0001590AFF7DFAA007000506147006000006B
:1029D0000000000000000501130000000561F2A9DD
:1029E00000D0006000607204E0033D09249066F2AC
:1029F000247005A17B086A07670BC4020000000071
:102A000005016D0600600000886A900A620A1EB324
:102A1000056A33AA2B5600B000402410DFA341AA58
:102A200088405B8075711641001005F1608A005086
:102A30005D0A24101500000061078D661DC2EE734B
:102A4000DDF315A00143BF07D800A3041305000060
:102A5000000000200020233B00A019646177A8D863
:102A600075147655AB32BD258DB71D45ED07E27364
:102A70008409390394066328535405361F07460416
:102A800000000080C74784690000000092040090A5
:102A900000905A48031658149A8515D3806480A074
:102AA000CC17006000703D090000940600106167BB
:102AB0000070610761070000610761F72410045A84
:102AC00095093C13610700006107C6611D05AA1244
:102AD000B858D9C91D45FF59050100100551F40426
:102AE00069A705311919380500006A07B101844941
:102AF000F128D00575B403EAC286D700430A000066
:102B000005C10000F015004000F00040EB18006027
:102B1000007013A0008000707554B70A0010C8D070
:102B20000B26DE28FBB46CE4338B7514F1F80080BF
:102B300000300581DB48A10A3F908E110501050197
:102B4000000000A000300050AE07F1085D03000057
:102B50000000F1086AA7C3F5E56AED27E8E8003050
:102B600000006107000005916AE76AA700C0001035
:102B7000884B240005010501000005416177A5642B
:102B80006FC5F229184444999961E08500006041BD
:102B9000220900008409EB5861071E126AF727E931
:102BA000248058347A40768A43A44314C3256D3672
:102BB00000C0005005D100B0056114852373B2A692
:102BC000C3AA3BB1FD6A332205E92430ED07056154
:102BD00083A200006107000000500000F414000010
:102BE000E203050105016107A605BFC30070059159
:102BF0003B5AC8D2889AF9C4EBE5579000D0003010
:102C0000F4940010F3F200800000F302000092C47C
:102C1000F178F035F1080000040300700010006046
:102C2000230B0501FC0700000000F30205F1005032
:102C30002440E625F1913B037725F3E2B4350010FB
:102C400005610571618701F91974FD879F51723023
:102C50000C90F0185B23B10100F000500000000060
:102C600005016107F302600A00F00551F4A47558EC
:102C70000000001005C1B136B4856E52190900106C
:102C80000541055100103083A4560B6A8C3689B972
:102C9000597000500000001061E7001084290010F6
:102CA0000060237B005005010010001000701955D2
:102CB00005D15930F09505610070ED496DD6613749
:102CC000009061E761E7053100500501001000D078
:102CD0004886006005E124800E036E06B90AF907F4
:102CE000614700F00541610700000000B4F50020D5
:102CF00000305CC300B000A0542659E0F434E00377
:102D0000F1086107005005016117EE33D7525009F1
:102D10008109B796250405348DF705210050F3028B
:102D200000A05D0000000000003000F00020F4A4CE
:102D30002052A260F25823089A3995DAC5610060E2
:102D4000009075544409AF26056405A1003000F0D9
:102D500000200000AF070000375605010010F414F2
:102D60009CF4E283E5B084F9EB3800D06137009041
:102D70008DB600006117140B422396852F0AA90A0D
:102D80007504000000000000000005016A07133010
:102D900000F00521F118006061773D891786C4A114
:102DA000BB58B0A6022B43AA006005714D41619744
:102DB000006009F4ACD3AF20440A01CAE1349101A8
:102DC000220B13000000000BAF07F3E2E2B3058112
:102DD000D8C21065856A8BAA37382EA66A00140AF5
:102DE000DD030000C4060506000000000000EB350E
:102DF00014C3005061270090004005F108B1FF584E
:102E0000EDA512105C19F42459000030FE2A3D692A
:102E100057A08CA1F804A10300A0AC78B740280902
:102E2000BB0300006A07570082030208143B3D0AF7
:102E3000152C09040C10181C243034394151585DEC
:102E4000624137060425080C10141820303440481D
:102E50004D523F05264D151C4A1426041420243CCF
:102E6000485466504E65562405363E342516523970
:102E700037161D083C523E250C2C1E11404C521A90
:102E800021090C101D2435383D484D505C32185630
:102E9000390815260424160614480C525850111DE2
:102EA0003039484D68163E51323605142615042334
:102EB0003E1E0630123F2534433C544D26521561C8
:102EC0005C1D304852145607042640342433141035
:102ED0003A2406302F052C4065164D214A3E051731
:102EE000485F2E50173D2516551F3034383C40445E
:102EF000484C5054585C60646A155D1C3C350408AD
:102F00000C10242C394048596821322D4D071432B9
:102F10004D261E0C38421426562116513E51143DA2
:102F20006610141C2C304D3439404852181E26159A
:102F3000053C252A4D0C303F391D2E3A24045616E7
:102F400026261D5830421B0414243C546A241715AD
:102F5000243E3D41244856096340080C3932143F51
:102F6000302D0E14303A2A24312D5224422E0414CE
:102F70001C243C50546615652456263250160E2CDF
:102F8000231C5D55592430343840494D0F21144FCE
:102F900010270E153205140C2756151F21522C3AF6
:102FA00012126414264C5250101C3D673236041421
:102FB00020243C54663832651432244A503E243072
:102FC0003C545C664D14512614546A0414243C5439
:102FD00066054C3E4933154D083E1554522C1317C7
:102FE0005411241C4C0914430514243C6616261164
:102FF000171A314E0525166532144D65323C2618D8
:10300000080C10141C404C50606A25150715244804
:10301000115624144C101832241E2C154F38334AE4
:103020004D083543183024120E243E3D4D050E2622
:103030003E483B3B5214080C10181C20242C303402
:10304000383C40484C5054585C62255605251705BD
:103050003A65250D3D4D495358562127515C081DB1
:10306000393C484D434D3C2D50564D3E3E154D2666
:10307000051604142652243D33140E6549533C6B47
:10308000150E0414243C4856140432514C58400B7D
:1030900065251210612C3C080D2831353848554DF6
:1030A000233D402517501458050C101C3034393C72
:1030B000404C1B5435090C111C395D2F4D321E0636
:1030C0001F050C253863143D4D265A3E143E14044A
:1030D0004F251A4D3206063F4069440D10141D2538
:1030E000313439494C505B215258132C210C10318A
:1030F00035383C40484D50545F4151101C4B2D22F7
:1031000030421A050814243E544A69400C10181C19
:103110003034384D524A151F153A10153A14243CD4
:10312000564D140719655135384D140A154D3E2575
:10313000564D38431504651C3E191D09405A185A4E
:10314000514125080C181C3035394A1C102C3034DC
:10315000384048505A514F4932640414243E1648AE
:1031600043514E2F21051424303D48545E054A55E5
:103170005806113832164D20305606315A1426158D
:103180003052500E21502E4C0414182024303C484C
:1031900054663A34114F146738526517154D045769
:1031A0000A1505482428303E4D0E142457491D5158
:1031B000403B103D520C323C076514064D052D4036
:1031C0001525320830173D382452301A491405327B
:1031D0003E426516412F2F34403058104852143269
:1031E0003C0714090D10181D2C31353840494D503D
:1031F0006A0C3A053C4D26154D0C1E04163A041572
:103200001D303848506204142024343C5466484C25
:103210006B140C1C514A4D18213011642C581C257C
:10322000293438404850545C6A14320D544E143FCF
:103230005653655149113B5E13154D670E11321BF4
:103240004D161B05240C383C481611394024230523
:103250004226041420243C48545C664D1633253C19
:10326000421D4E306516143E651426390F054D1764
:103270004D163D0520252E303705080D111D202542
:103280002C3134393C40494D51545C606A14223829
:103290002E514F513848172537544D3F1951682149
:1032A000304842085642052126141C3A08192C14AD
:1032B000260C52315D66194D3A510B14061E6526D7
:1032C000194806310E4D0516150C205250153B5568
:1032D0000A3113243C48565506140634421049530B
:1032E0004D4A3B25112D3E5610261A3D4D145110C6
:1032F000322C4D18306808103448500E2438154AC6
:103300002D52324D1632343A26654131065631423D
:103310003C5624503A0A54164D05251240331412D7
:1033200024404D153F54146605103D4F5141131470
:10333000265026244D51314010493B1D3F4A045828
:10334000090D10141D2C30353840484D50606A1B53
:103350003D4D0526241453493F104D500C151E2495
:103360000605485F143E1A4D184208502C480410B8
:10337000143038261432203C1E040C1420242C3027
:1033800034383C40444850545C6665163C0C101878
:103390001C20303439484D51616A30124A052330BF
:1033A000394048506A0D383C624D652724180D118C
:1033B000141D31343840484D515D62142432384D6B
:1033C0001B1411071D052725303F1D162C403048C2
:1033D000585E24534D3315331265552C3058431025
:1033E000141E041A3E0414243C48564D3E152C5617
:1033F0006A243116420436420C15053E05152D4B44
:103400001431340D2F105405522416211E42343B22
:10341000154D303E4D32565016301F215219495A23
:103420000517401715542735523D4D1040083241BD
:1034300051250D1015485B15510B6515364D156757
:103440002531503F0C4C6A0A4D6507421C4C055310
:103450003A6A06543D1630164D152407484D531050
:1034600014403C0C1C38521525363D142448546633
:10347000052452415F3C56513A3A3654673606119C
:10348000494F51343010050C1D24484D0A6A5D3AED
:10349000104D2C305A3D052552260C3915324C4A18
:1034A000102506146A261D480C384C2E080C1114E1
:1034B000181C3035394048596314263C06040D1C4D
:1034C00024083035383D404C5054585E2416044D85
:1034D0006169080D10141C3138404850663C422484
:1034E00004143C4856154D27191106083442381665
:1034F0002E174D0B11271A1426052E3D15422516A1
:1035000024211C5C04080D10142C303840484D5206
:103510004B0E354A4D523E241650114B4C174D124E
:103520006104090D1015191D2025283035383C413E
:1035300044484D51585C6B3C0538572215631015B3
:1035400024303E5E6527210411141D3135383C4876
:103550004D505D6A4932262C0C11181C3134384903
:103560004C52314A4D0531671D050C382E041E3C66
:103570001450244F442D4C520414243C560C343A1D
:10358000650416493312054C221D38122C260414EA
:1035900024303C545E2615040D10181D2430353897
:1035A000494D50546064680A3D050E154D424D0565
:1035B0001424661C56502416116715321616144230
:1035C00014564448050F3C354F0E041424303C5625
:1035D00005484D56222224553C0561680D10181CE3
:1035E0002C30343840484D524D6514511E244D1234
:1035F000514A152C4A543F0421610D101C243038C7
:1036000040484D50545C64352F16143E250E243826
:103610001E054230080C1014181C2C34404C503A33
:1036200005561C4B191534505A1467112D3214319C
:103630001C485A650C343823510548394F10363D23
:1036400004381C523C3A514C14303A1C48073C1286
:103650004941213C05140C30524D2E15390D1C09E1
:103660002C3134484C5558621624361522491153D2
:1036700015613C646B151C3A373F2D5222143213EE
:103680003D6524500416113039414A3325053B3835
:1036900007653E14243C54664D1F3D53080C141C12
:1036A000303C404950545E220416041C224938180C
:1036B000300C1D545C4D233D245D352C15080C3019
:1036C0003840484D5159602B144405204E4D564DFD
:1036D000651D2C383D16213C523D1714243C561DC7
:1036E00009340C142438484C5054585E1D34584E3C
:1036F0004D24363D2452220525323C314D06243DD1
:1037000065382C0E153C245236243E05261C1235F5
:10371000400A3D2F1D3A14053C1C242C386715180F
:103720003409481265320551551564321009141CCC
:103730002D34384145484F0416144F2D481E0414AB
:10374000243C56354A1E15244C0608140C38111812
:103750001D242C303C40494C5056403E1C3E0A151E
:1037600026221024334124152D1138485616020202
:1037700015520414243C5630161132101614243EEF
:1037800011384E041424303C48562D6A315F653F91
:1037900065103D26155024041031383C41484C0E2C
:1037A000103A39113D53490414243C561D240C3859
:1037B00065164C4B240C1D2E3D1E2554321D3038F1
:1037C0005604080C1014181C2024282C30343840BF
:1037D000484C5054585C60646A1448585E2C3C56FF
:1037E0002516301631394814375C04080C101418AB
:1037F0001C24283034384044484C506066411C1822
:10380000100C303439484E150C1E5004080C10189A
:103810001C2C3034383C484C586A35400C38624DCA
:103820001014242830346B4D1B053D10153316063B
:10383000156A36654A240C5305190C1014243034CB
:1038400039414850662416241C15673914240C305D
:1038500040523832324C3A32503206244A51122405
:10386000651649163853500C101C253B143E153E66
:10387000084C1C0C242C5054324C16320524151EB6
:103880004058681A1D090C113438484C6A3D2441CF
:1038900032224D513910344A214C080D10141C2489
:1038A0003135383C4950545D646A2236163016244E
:1038B000653230173C3B26384E4D15103852143EB9
:1038C0004D2C3A21240C55086560101C30393D48B8
:1038D0004E143E0C2C4F343A253F26053D16152E2E
:1038E000563E153F4D24064D5128424D514A142F46
:1038F0004D243F48405A15650C50585F3D55204AAD
:10390000480D3C545C6A4D3824162458322C0E1451
:10391000321E050C151C252C3C4C503A24213A2112
:10392000655504350C3C143039494D5112051624A7
:103930003016140A3C1665160414243C4856510EE1
:103940005139264D2E2639501C364D31043411186C
:10395000245422051508493B0E6516143052050CF7
:10396000503F65241E14561C2C120C4F072432386D
:103970002C08101418303540484C526A15305E300F
:103980003E484F05513A2F1534654B490F505A1593
:103990000D4C3E214D6524092C0C141D3038485027
:1039A000546230173A516856153E34540A4D240576
:1039B000160A6504111530393C484C505658040815
:1039C0001C38504A4D1606142606042C3F15440E8A
:1039D0003C0C0811151C30353940494C5154585C89
:1039E000646A043C5608042442194D53513D1C2F6F
:1039F0003E611B14243E05521408041C2C3035393A
:103A00003D40484D11674D061B4D3E1034091A4D7F
:103A1000050814283D48670C3A490E1E513A501DBE
:103A2000162E1A311C4A14264D6165050810181C03
:103A300024383C40495639400D564D064D3A1750F2
:103A40001C42324D0A51114B5624500A3404080CC2
:103A50001014181C30383D484D5251305A400B3923
:103A6000523B140641140A590E3614060C2C113B15
:103A70000D22141C222D234D54065114303E513C6E
:103A800017323804144A110F495E5D14066B113A5F
:103A90004D5665690C103805151C202D404D5055AC
:103AA00059630817523D0A05111D14092D31404470
:103AB0004A163924490E51041D320414243C54661C
:103AC000160441081C382E14403E3A264E0E0515A9
:103AD0003F053B200811181C243034383C40484D29
:103AE0005054585C6632640414243C562604142056
:103AF0002430383C48545C6605102C0936102517D4
:103B0000140427221C174B4D101E041424421027A6
:103B10001C543C585C42282735084E183448150977
:103B2000382E115124322D3052153A1450244D099B
:103B30003C4149540532046A2F140835444A0704AD
:103B4000142024303C48545C66260A384C504A4DB8
:103B50006454090C1424344858522404141E0E3C96
:103B60005515303848520C3E164A65560D3B5142A9
:103B70003C504E05153D2C1E4D0516051424393EAE
:103B8000510E4E0414243C546624140614264A0C88
:103B90005010182E394C533A30562516304B3C16DF
:103BA000164D422C053F4D3C074D482C38301C0823
:103BB0000C101824505651143A114A390F15511A45
:103BC000264D4805141C2430343C562D5221401AF1
:103BD00024163F151E51142C384F080712053512B4
:103BE0003E581236115C40144E3E224D1649584D37
:103BF0003310150D3039404C50643631214F3D2D76
:103C00000C243A400A4D240C163D324D112C6B21E8
:103C100052510B052D4A1B4D170917361C43204FD7
:103C2000641D2D37153D2E4D12241C3E15480C1CCD
:103C3000385F343309141824344A05165C080C1014
:103C400014191C24282C31343840484C50545A0440
:103C500014243C575104364D2430521A55485A14F6
:103C600052214D53513D0C1526312E4D10382E52F8
:103C70000524093626054D17143E041424343C54FB
:103C8000661426511C374D212D410810141D243176
:103C90003439485C6A38363326041427063D0A3521
:103CA0000C394B2C3A2452651D1413161467221537
:103CB000572453105C04090C15191C242C3134387A
:103CC00041484C505961671526651030684D1615EE
:103CD000394B5E513038404A1456053E65424E30ED
:103CE0006314384A0C1D38484D3E1C4E10303A655E
:103CF0000C60100665143C57494D130414243C54C1
:103D00006664133E581D0C364F0A364D156534480F
:103D100009192438405351343A103C14261E5230AD
:103D2000115330104C181E540834421650334C16A0
:103D30004A3814504A154D07163E122104080C103B
:103D4000181C2431353841484D5056304D3A391BF6
:103D500050141804080C101C242C3134383C4049F1
:103D60004D54585C61692204243E392F2D0E2F1AC0
:103D7000502F2C04080C181C253035393C41484E76
:103D80002C1904080C10143034383C41494D524D64
:103D900024641619390B041424303C485466050C6D
:103DA000101C39154B3D123E3A4D0C084010501C6A
:103DB00034394A213D04104C0C151C24292C303474
:103DC00038414854585D646A1621045424080D1083
:103DD0003538494D5159646A4D524D5624340820A6
:103DE000282C4C501242042C38164D2557053D26E0
:103DF0004D121C304A202E1420243E213808345CF9
:103E0000040C1014243041485158644E55171524A1
:103E1000103A4D3D5824612D32301426150D1B4D9E
:103E2000501032046859101424313438484C523E32
:103E30004D05091014181C2430343C51562C4D23C8
:103E400062150639140C24304C58491B380E514B5E
:103E50004D3015511B1B3852041E4D3D3415263173
:103E60001206653205141D283A4D3A493A2F24426C
:103E70001038520C1E542214245057051604660A9A
:103E800021514E25174D2D1E351430423C0517503B
:103E9000080C1C34404E2452090C10181C203034DD
:103EA00038494C506A25083630261426491E140716
:103EB0005D2D144A264D3006141F51400D493A0419
:103EC0001648052751152611513958084E4D3A26E6
:103ED000151C660E381E4A0C39562506495F260504
:103EE000654D3F15354A391F4D16151D393C4D5648
:103EF000163134092D394235114D3B50243C3443A1
:103F00003D32142E0E1532190834420C08341C248C
:103F10002C384A243E14092E3D32262438511604EA
:103F200014243C5651163D571F1436140A14384FAA
:103F300040142615061D50103034406B3D2D314B7A
:103F400064550514274252094038125167310C1E3E
:103F5000444E052157063C361424364D0C32065487
:103F6000232D15384E0C5062154865240A4004363E
:103F70004D1D0C18303C545A550410142641363E41
:103F800015264C33680B53143A053E0C381E2D464B
:103F90000414243C56321612490414243D56482F6A
:103FA0002D324D3E14243E24161641500A1C080C96
:103FB0001014192C30343840484D515A16334C2FB8
:103FC000050F0414504854660D106425164D050C59
:103FD0002F3925163D244A4D32153A4D0A154336E0
:103FE000251552314B341E0414264D111509191C88
:103FF000303438414853661524524D10384A3065E4
:104000001E044A051C3E3C5617043C162115460466
:10401000080C11151831383C40484C6B4D3D393077
:10402000532615370414202430383C48545866254C
:10403000152C065A3D655D35504E040C4C56250D29
:1040400043682626043E3E1508383615395A52056F
:10405000202E150A42160917501D066524161661F2
:104060004A6534040C10141C243139484D505A54FC
:10407000044A3D06141C123C326427165E04080CE8
:104080001014181C2024282C323D14414E31243A9F
:104090000C4D524108384A3C0A651E2F0414202456
:1040A000283C48545C66491E65162F3C16263E3156
:1040B0000C343848570526304A4911333D0A3C2410
:1040C000160C09061B214D14245412154E653E167C
:1040D000650C322C26244A194D521D2D3A4D3519A6
:1040E00050650A150C1E02021D245804403C5F1541
:1040F000654D3F51154F15240A111F3015671506E0
:104100001114383C484C5239481748533015265141
:104110004D111F1D043D2130090C1115182C343888
:10412000404E355C1D0E511130583E06655D412DE7
:10413000350C4A6515514E2C5C574D3E154C53516C
:104140004D16244D153704142024303C485466097C
:104150005D41532404173C14264D39412D51371528
:10416000332439235414261D390B112D35151E15F2
:104170002431523951312F15525D094E5131245D90
:104180000C111C3941494C586730051534394048E9
:104190004C6239163C263E11392D19584A2619040D
:1041A0004A4D65310A11154D43650514243E063408
:1041B0005161304C110C24394954580A04243E4DA5
:1041C0005115651E490C511E391E481D3F2E4D15B7
:1041D000422E1D5D110C051530393C414953041424
:1041E0005615244111180930494C530D4F223624DD
:1041F00017480E3B2D164915184E1558324D525181
:10420000561135411750211526481426080C101850
:104210001C2024282C3034384044484C5054585CDE
:1042200060661450080C10181C2D30394E300410E4
:10423000343A481611412F241408574D31370414CD
:10424000243C48545C66155F49143840115D4C3C71
:1042500051565C4A113941194D1E6A1451230414F8
:10426000253C56383F15115315244A154D39351341
:10427000152641313B0C154E355165144C3904322D
:1042800015511E113D171D1751652D0E51411D3A37
:104290001A15080C1D0432542204080C10181C2096
:1042A0002434383C40485054585C322E4026224D2D
:1042B00052040C152024343848530439084A3C2C45
:1042C00004080C1014181C2430343840484C505842
:1042D0005C60663511314B41153B0414243C546736
:1042E000360414243C54664C0C1D2C1530343941D2
:1042F00053040C3A1D35090C3A345D301C24521419
:10430000062417164D114B5024411D2C390C3049F1
:104310005561110B0414243C556732514D41142D45
:10432000330414243E563015350C083840051C2C37
:10433000484C625048080C1D3438304E1D152F4D26
:104340001D4109182C0C30343948516A1432491176
:1043500041372705163B491911313B484E38174163
:1043600038521531064D243C2265515F0414243027
:104370003C485466651D080C111824303539484DE9
:1043800051683E24040C144052040C38154F153C5F
:104390005248152E304C0408111418243438404863
:1043A00050590E3D1217153C134D1E485815320634
:1043B0001D0C18403410143039484C516A246515CE
:1043C0002F32514D110E4C1D1830043439485A41CA
:1043D0000C3314202430383C064867650414243D0F
:1043E0005614566515311153203E4C3A0C1D1809D0
:1043F00034384A0C504D174D040A350E651D3524CE
:104400005D1049090E114131372314243209652406
:104410000C1D3441485A564D4939412D1137512D03
:104420004D4B380B114D24314149392D5A652461CA
:1044300011304D2C581D38495251115D41670915F5
:10444000113B144D3211344151090C2404183039F8
:104450003C48545D67512D1D0E65142608435624B3
:1044600065174E233E0414243E04080C1014181C37
:104470002024282C3034383C4044484C5054585C5C
:10448000646A1265064C410E4C651C0952151139BF
:104490003721565131043514384A394220521551CA
:1044A0002D4A15090E4832540414243E4D24165149
:1044B0001161410C655D541D243034384C5A115340
:1044C0004D4157101526193A313B4D65152D0C12EB
:1044D000514A1565262615511D0910243035394ECF
:1044E00041314E0514243C560C4D2314074242170B
:1044F0005038096568411D243134484D545E161DFD
:104500004D172017155D3D48321A6A314D535165DC
:104510000C040911181D242C3034393D4148545FD6
:10452000234D3A41300D4D3B21244D171B3C17259F
:104530004C381804141D3451585C131C6A08415A35
:104540004D17041426304A514B49520414243C544C
:104550006615260414243D670536561C3F6506245F
:104560001638410E513A3A51144A152D0615235169
:104570003009341D392C104A4C2F4D432F4D183A19
:104580001D5D044E115D16513E14304F51114F4DBB
:1045900016114D150C2615270651154A48391435A4
:1045A0003238334A514111192F16210B4D532D1E0C
:1045B0001D1130183538484C500E1D0D5D510B043F
:1045C000081E0414512614521124304C5C040914A2
:1045D000383D485156514D151D2F502343495654CF
:1045E00051130415416109381D303C49545E3215A0
:1045F000482453154D1D3A4D391157242C3C15674D
:10460000163D56501724413F15313B3C04101430E1
:104610003439484C53312D514B390E154D07164D39
:1046200042394956493935142D09514F1D080C118D
:10463000242C3039494C516507610C5133146837CB
:104640004D1635512C580C41113038484F5104113A
:1046500026354C51192F4D261D304A3352315117F2
:10466000484C65395D581D2C41080C243035516A81
:10467000156504243C48562D21414F38060E090C7F
:10468000481D353A150524560C1A521D413A4C3531
:104690002D1908103C5A344206143C4D67151D1262
:1046A000113141584937313D1B4C16651404243CE7
:1046B000561D5D0C3837241651080D15191C242D74
:1046C000354A0B5124303B1505243E1430113A0471
:1046D0005430160E4D36653E1D414C05090C102414
:1046E0003034383D4851545D61674130163149419D
:1046F000115A115D040C15243034384850546B5154
:104700003817490939374C341413512415425111C3
:10471000490C4D39162D1C15513B04243C565111A2
:104720003B4914410C4D332404143C56153A611195
:104730004F0C581C494C53043852394A22511B4CD7
:1047400013650415243C485604143C4856064D5342
:10475000115D1620164D4108343E0409111D2C3000
:104760003948531C38314B283E04142024303C482F
:104770004C5466581B384C511E3E1D0F505D0408AA
:104780000C14181C303439404E1526561D5D4C0C47
:104790003C43651D143842112F321114343F15115A
:1047A0000E153C2D262404143E3D163A150C4011DE
:1047B0004C643004093C5154585F0A152D1F114DAB
:1047C00014193365184116265D61680C11181C24F4
:1047D0002C30343941484C516556116504141C5134
:1047E0005613154A0C381C49533C1C17040C142052
:1047F000242C3034383C4050545C66155250101C08
:1048000030343840484E4D1D0C375D611511073C62
:104810004D16514C341D155D090C30383C4156087D
:10482000153F15313D662D174C526530051C384D2E
:10483000153E303C5035090C11181D38414C5A4971
:1048400011375D4C0C383E0817391C2611152D3BCD
:10485000152F3D1466511526653D041426041424B5
:104860003C5466041420243C48565104481A5315FD
:10487000264D3E246517511141301814353B2F1534
:10488000482435653B64041420243C562D0C4B0D04
:104890001533652507384B4811676516140936111D
:1048A0004C0C30393C5351153304143C562F4926D7
:1048B00015481E4C511D102C343A313A1125611CFB
:1048C000340C142C30383D41484C51561550300CA6
:1048D00026410C381E041424303C54665D243E04EA
:1048E000212F243E4D243F090C4128041030353837
:1048F0003D484C5054585F562416304D0B2D1C4AE1
:104900001D355D5138650E41112F15484C41652408
:10491000181C3035393D51545F42050C2056653D19
:104920004109173B0C3815111D2F4D0C151F491C43
:10493000174D17150B4D344A14243E65411C394957
:10494000321D092C5D374930343A67113919500A44
:1049500011312D1B650414243C4856042711395885
:10496000511F4D134D0915585111331158090C1889
:104970001C2C30353941494C51545D6731193B0489
:104980001524313C414C522E4D1C24171265163D06
:104990001E15261165355D414C3B4D4114303715D0
:1049A000112D334A0416394B3E240C10153035397D
:1049B0004A514D1D153A4D656110041424303539A6
:1049C000495F3865370409141D3039494C5163512A
:1049D0005654164D394B324C1348411815080C34B7
:1049E000101C2C303953492E191139374D140E1D16
:1049F00051580C10283034393C40484D545C6824E0
:104A0000173A650414243C5651154F3D04241751A0
:104A1000410C11651F0414243C54670414243C56B3
:104A200051111E1433244D1F303F38125011090C00
:104A30006818353848545D3067501161340C1C30AB
:104A400038484E42316151091C0C14353843384105
:104A50000C1E0524174A24500C1018304E31351BFB
:104A600051313E51352D0C11493B103A154D333E15
:104A7000160543041424303C4856111C152F1521EB
:104A8000530414243C54672D1523155111053E146D
:104A9000264B4D1133485D0C5804152460513E657A
:104AA000345D612D0C4C39410B3E1C262D561141B5
:104AB000092C0C151D3035393C484C5A513C2433D7
:104AC00051242D110C17410C101804141C303949B5
:104AD00051616A504D0721172533080C101C3034E2
:104AE000383C484C522416575506061D0E4D393594
:104AF0001152311B244C0965583A4D521D110415B1
:104B000020243038484C53352D0C26392E65164D4F
:104B10001E155D0E15331C4A2D1615114D3D5214F0
:104B200027564D49411939534D20560414243C56FB
:104B3000483324614151581004090C1D383D484C3C
:104B4000545D661C514F3143314B4158383E4D5DE9
:104B500039043053651D51090C1520242E3D513167
:104B60002F5105151C303848585D632D1553151EFF
:104B70004D24175165244F311315511B3D14262D1B
:104B800011320415090D1C12503D300841355A4DA3
:104B90001151335115211809481D3035384E394B04
:104BA000512D0E4C492F1551212F34435D19144AB4
:104BB0002F423C1648344161652C5D090C111D24BF
:104BC000384C50586A1406214F11384C514943153E
:104BD0004D2F500E041420243C48545C66650A0591
:104BE0001C3C4956503B3C4D433148653E655D1683
:104BF000192D4953041424343C41564D1E1D301ABE
:104C000051483911040915243248373D512F354197
:104C1000510C113A4D2F22144D263414680C1030CB
:104C200039494C525D4C041442152604142024309A
:104C3000383C485466381D49370441303C11080C53
:104C400015181C2C3438444C515A151104384D1D7C
:104C50002F2D093316214F5351110C1D5824303577
:104C60003840484D674D0A3E044C1424384851637F
:104C70000414243C5635410C4A0200000000170081
:104C80000300031F0A1F161F0A1904130A15120036
:104C900003000E1B11111B0E0A040A040E04001857
:104CA000000404040010001804031F111F121F1039
:104CB00019151215150A03041F17150D1E151D01D0
:104CC00019071F151F07150F000A00001A00040A14
:104CD000110A0A0A110A040115021F1F1F1E051ED0
:104CE0001F151A0E11111F110E1F15111F05010E90
:104CF000111D1F041F111F1109111F1F041B1F105D
:104D0000101F031F1F011E0E110E1F05020E191684
:104D10001F051A16150D011F010F101F0718071F79
:104D2000181F1B041B031C031915130000000000AF
:104D30007E0909097E7F494949363E414141227F2A
:104D40004141221C7F494949417F090909013E41EE
:104D500041493A7F0808087F00417F4100304041C7
:104D6000413F7F08041A617F404040407F020C02AF
:104D70007F7F0204087F3E4141413E7F09090906C9
:104D80003E4151215E7F0919294626494949320190
:104D9000017F01013F4040403F0F3040300F3F4016
:104DA00038403F63140814630304780403615149D5
:104DB0004543D5F08D14A1C881CFD9F1AF200008AB
:104DC0000B000202020000090400000102020000C0
:104DD0000524001001052401010104240206052414
:104DE0000600010705810310004009040100020AC2
:104DF0000000000705020240000007058302400092
:104E0000000403090412010002EF020140412336AD
:104E10008000010102030141726475696E6F204CCC
:104E20004C430041726475696E6F204C656F6E6112
:104E300072646F00333011241FBECFEFDAE0DEBFA3
:104E4000CDBF11E0A0E0B1E0ECEFFEE602C00590BE
:104E50000D92AC3FB107D9F727E0ACEFB1E001C04C
:104E60001D92AA3CB207E1F717E2CBE1D7E204C0FA
:104E70002197FE010E946637CA31D107C9F70E9407
:104E800097300C947C370C940000CF93DF93DB01B8
:104E900033E0B595A7953A95E1F7B695BA2FAA27CD
:104EA000B795A795A20FB11DA80FB91FAD5DBD4F56
:104EB00067707727215011972F3FA9F0FA01E20F71
:104EC000F11DE491F0E0062E02C0EE0FFF1F0A94E0
:104ED000E2F78C918E2B8C93ED01C058DF4F8881C7
:104EE0008F2B8883E7CFDF91CF91089580E0E3E2B5
:104EF000F2E081118FEF002481938193819381935C
:104F00000394D1F708959091C507982329F49091BF
:104F1000C407982381E009F480E00895FC018091A2
:104F20002202882311F13FB7F89482E08093E900D0
:104F30002091F200822F90E01816190614F481E0F7
:104F400090E0882339F0289844E64093210240916C
:104F5000F1004083222339F02091F200211103C097
:104F60002BE62093E8003FBF08958FEF9FEF089551
:104F70002FB7F89483E08093E9009091E800892F9F
:104F8000807295FF04C09091F20080E4891B2FBFCE
:104F900008958091190281110DC082E0809315025D
:104FA00084E080931602109218021092170281E09A
:104FB0008093190285E192E00895CF93DF931F92C9
:104FC000CDB7DEB76983DC01ED91FC910280F381FE
:104FD000E02D41E050E0BE016F5F7F4F09950F90DB
:104FE000DF91CF91089583E08093E9008091F200F2
:104FF000882319F08AE38093E80008950E94B82777
:1050000090E00895CF93DF931F92CDB7DEB7FC01F8
:105010008485958597FD08C02FEF3FEF358724875E
:105020000F90DF91CF910895CE0101960E948E27B7
:10503000019719F4898190E0F3CF8FEF9FEFF0CFC4
:105040000F931F93CF93DF931F92CDB7DEB78C01E1
:10505000FC018485958597FF0BC0CE0101960E94C7
:105060008E27019771F4898190E0F80195878487F4
:10507000F801848595850F90DF91CF911F910F9155
:1050800008958FEF9FEFF1CFFC018485958597FD03
:105090000BC09FB7F89482E08093E9008091F20002
:1050A0009FBF90E0019608959FB7F89482E08093A7
:1050B000E9008091F2009FBF90E0089540910F02B7
:1050C0005091100220910D0230910E0242175307A9
:1050D000B4F49091E8009570E1F39091E80092FDAE
:1050E00019C08093F10080910F02909110020196F7
:1050F0008F739927892B19F48EEF8093E8008091A4
:105100000F029091100201969093100280930F026B
:1051100081E0089580E00895EF92FF920F931F932E
:10512000CF93DF93F82E192FE62E042F81E0860F00
:10513000880F0E945E2883E00E945E28CF2DD12F29
:10514000EC0EFD2EF11CCE15DF05B9F007FF13C0E4
:10515000FE0184910E945E28182F80E00E945E2844
:10516000812321968111EFCFDF91CF911F910F9174
:10517000FF90EF9008958881EDCF81E0F5CFDF9229
:10518000EF92FF920F931F93CF93DF93D82E8A0154
:10519000EB017B01E40EF51ECE15DF0559F0D7FEBD
:1051A00012C0FE0184910E945E2821968111F4CFE5
:1051B0000FEF1FEFC801DF91CF911F910F91FF906B
:1051C000EF90DF9008958881EECF0F931F93CF93D8
:1051D000DF931F92CDB7DEB782E0898342E450E0CF
:1051E0006FEB7DE480E80E94BF280E94C927DC01A4
:1051F00012960D911C910115110589F0D801ED91C0
:10520000FC910280F381E02DBE016F5F7F4FC801EA
:10521000099597FD04C0F80100851185ECCF8981BF
:105220000F90DF91CF911F910F910895615030F051
:105230002091F100FC0120830196F8CF289884E6A4
:105240008093210208953FB7F894809105029091D0
:105250000602A0910702B091080226B5A89B05C0DE
:105260002F3F19F00196A11DB11D3FBFBA2FA92FE5
:10527000982F8827BC01CD01620F711D811D911DE2
:1052800042E0660F771F881F991F4A95D1F708954E
:105290008F929F92AF92BF92CF92DF92EF92FF9246
:1052A0006B017C010E9423294B015C01C114D104D4
:1052B000E104F104B9F00E942329681979098A09E7
:1052C0009B09683E73408105910580F321E0C21A75
:1052D000D108E108F10888EE880E83E0981EA11C31
:1052E000B11CE4CFFF90EF90DF90CF90BF90AF90D4
:1052F0009F908F90089565E070E080E090E00C94BE
:1053000048298F929F92AF92BF92CF92DF92EF92F5
:10531000FF920F931F93CF93DF936C017B018A0160
:1053200080910B01882309F45CC0809122028823BC
:1053300009F457C08091140280FF05C08091E000FD
:1053400082608093E000E801B12C8AEFA82E93E000
:10535000892E2AE3922E209711F4BB20D9F10E94C6
:10536000B82781110AC0AA94AA20D9F161E070E09F
:1053700080E090E00E944829EECF8C171D0611F0C6
:105380000CF08C2F9FB7F8948092E9002091E800F0
:1053900025FD02C09FBFDFCF282F30E0C21BD30BFB
:1053A000F701815020F041914093F100FACFE20ED5
:1053B000F31EBB2021F09092E800B12CEBCF80913E
:1053C000E80085FDE7CF9092E800BB24B3942097D6
:1053D00009F3F3CF5D9884E680931302101611064B
:1053E0003CF081E090E0F6019383828310E000E0DE
:1053F000C801DF91CF911F910F91FF90EF90DF9047
:10540000CF90BF90AF909F908F9008958038910576
:10541000B8F460347105A0F420E191E061FD94E0FE
:1054200060FD990F62FD9295687F269FD00111243F
:10543000A80FAD5DBD4F8C91442319F0892B8C933F
:10544000089590958923FBCF0895CF93DF9326E0AD
:10545000CAE0D0E0E22FF0E0E450FE4FBE010E942F
:105460005237805D8083CB012150009799F7822FBE
:1054700090E083509E4FDF91CF910895CF92DF92BD
:10548000EF92FF920F931F93CF93DF937B016A01FB
:10549000E9010B5F1F4F4991442379F04F7185E07B
:1054A0004802A0011124455D524B25E0B601C70119
:1054B0000E944527E00EF11EEECFDF91CF911F91A4
:1054C0000F91FF90EF90DF90CF900895EF92FF92B1
:1054D0000F931F93CF93DF93EB018A017901F701BB
:1054E00041917F01442371F04052F3E04F02A0014B
:1054F00011244658534B23E0B801CE010E944527A2
:105500002496EDCFDF91CF911F910F91FF90EF90F7
:1055100008952F923F924F925F926F927F928F9257
:105520009F92AF92BF92CF92DF92EF92FF920F9332
:105530001F93CF93DF9300D01F92CDB7DEB78C01BE
:105540003B0149015A01CB018455994F2C01DC01E3
:10555000AE5FBE4FBA83A9831B01BFEF2B1A3B0A74
:10556000E091BC07F091BD07EE0FFF1FE95BFE4F16
:105570000190F081E02DE00FF11F24912B83E22FA9
:10558000E595E595E05CA981BA81EC93F0E0E45102
:10559000FF4FA081B0E0A50194010E94FA366B0193
:1055A0007C01BB81B0FF28C08091B6079091B707FE
:1055B000019709F078C0E5E06E167104E9F4809176
:1055C000B8079091B907A091BA07B091BB070197AE
:1055D000A109B1098093B8079093B907A093BA07BE
:1055E000B093BB07892B8A2B8B2B31F46EEA77E0C3
:1055F0008CEA96E00E947537A091BC07B091BD0778
:10560000AA0FBB1FA95DBE4FC801969587959695B9
:10561000879526E0289FF001299FF00D11248D9198
:105620009C918E0F9F1FF801E370FF27E330F10577
:1056300009F05FC0FC013196349132964491059691
:10564000FC01849132953F70407F342BF0E18F9FB5
:10565000C001112488279F70832B009729F0A70190
:105660009601B1010E94892A0F5F1F4F2B8121FFF4
:1056700077CFF201EE5FFE4F10820F900F900F90E8
:10568000DF91CF911F910F91FF90EF90DF90CF901E
:10569000BF90AF909F908F907F906F905F904F9052
:1056A0003F902F9008956091B8077091B90780914D
:1056B000BA079091BB07A70196010E940D37672B8F
:1056C000682B692B09F098CF8091AC079091AD07BA
:1056D0009C012F5F3F4F3093AD072093AC0753E001
:1056E000880F991F5A95E1F76EEA77E08455994F34
:1056F00081CFEE0FFF1FE80FF91F859194919F70E6
:10570000ACCF9093B7078093B6071092AE07109274
:10571000AF071092B0071092B1071092B207109223
:10572000B3071092B4071092B5071092AD0710920C
:10573000AC07019709F052C08091BE07882309F495
:1057400046C00E946D362EE131E040E050E00E94FC
:10575000DB366F5F7F4F8F4F9F4F6093B80770931B
:10576000B9078093BA079093BB071092BD071092B8
:10577000BC0721E030E040E050E070E060E082E80B
:1057800093E00E94892A8091BE07811130C081E098
:1057900090E09093BD078093BC0721E030E040E0AB
:1057A00050E070E060E08EE099E00E94892A82E09B
:1057B00090E09093BD078093BC0721E030E040E08B
:1057C00050E070E060E080EC90E00C94892A0E9448
:1057D0006D362EE936E040E050E0B9CF4093B8078F
:1057E0005093B9076093BA077093BB07BECF089573
:1057F0008F929F92AF92BF92CF92DF92EF92FF92E1
:10580000CF93DF93CBE0D0E086E0C82ED12CE12C03
:10581000F12C0E946D36A70196010E94DB364B01E8
:105820000E946D36A70196010E94DB36D401A15774
:10583000B94F2C91FB01E157F94F80818C93208364
:10584000219739F7DF91CF91FF90EF90DF90CF90C4
:10585000BF90AF909F908F900895DF92EF92FF924C
:105860000F931F93CF93DF9300D000D0CDB7DEB757
:1058700080E091E00E94C536898381E091E00E943A
:10588000C5368A8382E091E00E94C5368B8383E02F
:1058900091E00E94C5368C8389819A81853C90492C
:1058A00031F085EC90E99A8389831C821B82809178
:1058B0008B0690918C062B813C812817390710F4B8
:1058C0009C838B83CE0101967C0100E011E0F701FF
:1058D000D1907F01C8010E94C536D81621F06D2DE8
:1058E000C8010E94CD360F5F1F4F0430F1E01F0743
:1058F00071F78B819C8190938E0680938D060F901B
:105900000F900F900F90DF91CF911F910F91FF900B
:10591000EF90DF900895CF92DF92EF92FF920F9376
:105920001F93CF93DF93809164008E7F80936400F8
:1059300080917A00806480937A0080917A0086FD5D
:10594000FCCFC0917800D09179000E942329AB014F
:10595000BC01CE01B0E0A0E0DC01992788278C01D2
:105960009D01040F151F261F371FC901B801209183
:105970006400216020936400611571058105910523
:1059800011F00E94BC3640E050E0BA0181E090E0A6
:105990000E94812BCCEAD6E0C12CD12C7601C39495
:1059A000E991EE2371F00E2E000CFF0BE451FF4F36
:1059B000A081B0E0A70196010E94FA366B017C013C
:1059C000EFCF6CEA76E08FE896E00E947537109290
:1059D000A9061092A8061092A70610929706109298
:1059E0009F060E94F82BB701A60182E090E00E947A
:1059F000812BF090AC07FA941FEFF11671F1CCEA0D
:105A0000D6E0E12CEF14BCF78E01085F1F4FFE01BA
:105A100001900020E9F731978E2F8C1BF80101903F
:105A20000020E9F73197E01BE8175CF4DE0150969F
:105A3000F801EC17FD0771F082919E9190838C9391
:105A4000F8CF8E1307C0B801CE010E946C3718162C
:105A5000190664F3E394E801D5CF109284061092FE
:105A60008306109286061092850610928706109281
:105A700088068FE097E290938A0680938906DF91EB
:105A8000CF911F910F91FF90EF90DF90CF900895ED
:105A90001F920F920FB60F9211248F939F938091B4
:105AA000E1009091E100937F9093E10083FF0FC0AC
:105AB0001092E90091E09093EB001092EC0092E3D9
:105AC0009093ED001092220298E09093F00082FFF4
:105AD00022C093E09093E9009091F200992319F08D
