:100000000C94D5240C94FD240C94FD240C94FD2414
:100010000C94FD240C94FD240C94FD240C94FD24DC
:100020000C94FD240C94FD240C94822B0C94F12B45
:100030000C94FD240C94FD240C94FD240C94FD24BC
:100040000C94FD240C94FD240C94FD240C94FD24AC
:100050000C94FD240C94FD240C94FD240C94232E6C
:100060000C94FD240C94FD240C94FD240C94FD248C
:100070000C94FD240C94FD240C94FD240C94FD247C
:100080000C94FD240C94FD240C94FD240C94FD246C
:100090000C94FD240C94FD240C94FD240C94FD245C
:1000A0000C94FD240C94FD240C94FD24000000000D
:1000B00017000300031F0A1F161F0A1904130A154D
:1000C000120003000E1B11111B0E0A040A040E0479
:1000D0000018000404040010001804031F111F126C
:1000E0001F1019151215150A03041F17150D1E15DB
:1000F0001D0119071F151F07150F000A00001A0020
:10010000040A110A0A0A110A040115021F1F1F1E00
:10011000051E1F151A0E11111F110E1F15111F0597
:10012000010E111D1F041F111F1109111F1F041B98
:100130001F10101F031F1F011E0E110E1F05020EA0
:1001400019161F051A16150D011F010F101F07188C
:10015000071F181F1B041B031C031915131F1B115A
:10016000030418111B1F02010210101000000000F0
:10017000007E0909097E7F494949363E41414122B5
:100180007F4141221C7F494949417F090909013EBC
:100190004141493A7F0808087F00417F41003040D3
:1001A00041413F7F08041A617F404040407F020C7C
:1001B000027F7F0204087F3E4141413E7F090909D9
:1001C000063E4151215E7F09192946264949493297
:1001D00001017F01013F4040403F0F3040300F3F61
:1001E0004038403F631408146303047804036151EA
:1001F000494543D5F08D14A1C881CFD9F1AF200076
:10020000080B0002020200000904000001020200C3
:100210000005240010010524010101042402060543
:1002200024060001070581031000400904010002B3
:100230000A00000007050202400000070583024093
:1002400000000403090412010002EF0201404123EF
:10025000368000010102030141726475696E6F20EE
:100260004C4C430041726475696E6F204C656F6E33
:100270006172646F0000000258024D720323000097
:100280004DC203302808166F163D8D16500000052C
:1002900021020E000051C2034E6409417E0B0A0088
:1002A0000021B30352000031DB0E3A0000110000C0
:1002B00051280824F90C32D51438000011000033FD
:1002C00000004D0000254B004100003DD4113600D8
:1002D00000654B00164B001576032600004D00000C
:1002E00055280804D41110BC0414B41726000011BA
:1002F00000005100006517120C00001D0000412C89
:100300000A394609560000058C161C2D01159F0957
:100310002600003100002D21021CA40E4B00001508
:10032000280824550D3ED5143D8503489A154DBD2A
:100330000D51BD0E04C80409F1110C6707115408D2
:1003400014C8051871111DBB122C2B1730260D393E
:10035000CB0A36C0043400004F220D66D6083C0498
:100360001416D1013F0000514B001130172F00002F
:1003700065280815C2031100001D00003B4B002535
:100380008B0514C50404A9063E00004DA60D140FEC
:1003900008241B14306609660E0F1B00004D000078
:1003A00011000051C2031C58023A00001514023417
:1003B000B41706D51438C20312000005000065000A
:1003C0000009F8031CA7004C7D085300001D2808F5
:1003D000152A173898161200004D8D16503F080444
:1003E00000001500005700001500004D4B00432190
:1003F000024C17120C28111A0000150F12519F09F8
:100400002400002DAA143A000051000041D3044CEE
:1004100021021CA40E11B5104BAA0104F30D1458AF
:100420000020450E241B10304F0138EE053C160904
:1004300048B4035462065CEE0F665F025153053EFA
:1004400017001400004D580232220D48C6032D003B
:10045000004D0000050000170C161800004D580252
:10046000530000656F163E610B3100001500003F20
:100470000000394B005100002F0000214B004F00BD
:1004800000216F16142C0A0C220D30C20340A71451
:10049000095F041130051D3C1624720E35B80C3866
:1004A000090D3D960C499E044D3C0F51B5155484E1
:1004B000155F140234D4111E00004D2808140000EA
:1004C0002F00001921021E5A12045E05144D052446
:1004D000A7153C8B1155101367D5143821024E0017
:1004E000004D0000150F0826B404508D162F000093
:1004F0004D4B00114B0051000049A70E28B617358F
:10050000C60A4300004D62171600004D21020C443C
:100510000204000041B41033000015000035000053
:100520003900004D4B001300004D841539340F4B3A
:10053000000005060F3C220D4E00004D0000050096
:1005400000659F0924D411402C12170C0834440272
:100550001500003100000D58024800002D97021EC2
:10056000000051000009980F0DD5115D00001F001B
:10057000004DC2033021020CC20348440214C10FD3
:1005800052B5153C340F0600004D00005100003DEF
:10059000280815490B1DB3032F4B0015C20338C99A
:1005A0000A08511236CB0A24340F162C0F3A0000D9
:1005B00021280815A90618D4114200004D220C2448
:1005C0005E0E16E301043D091458112463033C74C4
:1005D0001155460267C2035073111CC70334D5146A
:1005E0003B0000398D164221020C000041D411510C
:1005F000180D11640919CA012F21025000001100C1
:10060000004B5C05045C052600004D000015C2038C
:10061000308E06534B00150000618D151DAC06246D
:100620006313300C1634370548C9035046025F0087
:100630000065C20314AC1126D41111C20305D411F4
:1006400051A00256CB0A23000005D41111C2031C8D
:10065000070509DA1035000015C60A2F4B00147281
:10066000034F4B00557F060600004D4B0031000044
:100670000500001521020C2102509F09244B002F78
:1006800000004D00003D280815D4113147066700D1
:10069000004DB415064B00145A0E04810D08F612D5
:1006A0000CE21410A50E1877051C3E13204D0824EB
:1006B00099162C351630560834C213380C143C22C7
:1006C0000A408D14489C114CB3045084025477178F
:1006D0005829105C6C086200001121020C000031E6
:1006E00000004900002DB6175100003900004D9F51
:1006F0000924280816000065C2030C8E0E3321025F
:100700004D00001500006500000946026121020449
:10071000A5141848022CC203341C0C0C631611706B
:100720000A1D7713249E1430810039540241E100E0
:1007300049600A514802586F165F340F40B41716CB
:10074000CF020470166A9902154B0035BB122C14A7
:100750000B0D170211121330620039661341FD0AA6
:100760004882034DEF0251CB0A6600004DBC043CA9
:100770002D011621020C6F163CDD020972171116AD
:100780000B1530001D530724210731D50E35C10349
:1007900039140F41C71149CA0F4DFE1251A40B5411
:1007A00083085891125CB2156545026AC203504B2A
:1007B00000156F16248E08047A0B10C2123116022F
:1007C00034860A3817033CC203412C1148650F4C8C
:1007D00006100E2D0114921156340F14C203350069
:1007E000001D00002F8D161000004D4B0016340F19
:1007F00024D2151C07170996040C990210620C15D7
:10080000D1082D2C0A30190035960B39A002414B26
:10081000004591074882164FC203302C1216000083
:1008200065000009C2033500005D261341980F39A9
:100830002C0A4C17120C4B002FD7150400041486F9
:100840000D203A0B247F0930B6113810103C550F9B
:10085000480C01540912586A046600000900001D82
:100860000000351712388C1310C20342460261B5DE
:10087000153C5A1568EA130C270A117A0D186F0EE9
:100880001DA40E20CE0630410535900A3941084896
:10089000040D4D6A16533D05151D11240C08364BE9
:1008A0000014D807445802214B0005DE124F2808D7
:1008B00014B51506C203504B13160D081028081561
:1008C0009F0926B6172D00000500003F5802400082
:1008D00000155802320D08500000230000152611A3
:1008E0003D00004DAA140A00004D00001500002F25
:1008F000C20358B51524000061C203102D14142042
:100900000730360B04D00F09E2070CD6051D1D0673
:1009100038EE063D6D04418F0C497A0E4C43105160
:1009200086005405095FDB0E56440214BC043E34B5
:100930000F186F1632BF0E3ED5043CB6170B220DB2
:100940003900004BD80F159F09264E004028081586
:100950009F0926CB0A33AA145192113E210250005E
:10096000004D00004B00001DC203486A0E380611FE
:100970004E940E262C0A5606111E770D15000067A0
:1009800000002D4B054AC90A10000025000017C2BF
:10099000030C58025200004DBA0F1600000500006B
:1009A00025C2034D4B002DB61741CC07311A031752
:1009B000C2032C9F0924340F38320009151311E6A5
:1009C0000915E80C18B70630A30D35620F41EB107E
:1009D000495B144C7E08538D161000003DC2031E67
:1009E0000000152102500000350000399F09243411
:1009F0000F4F4B00144B0051AA142C8B05388A055D
:100A00004F73111C21020C4B00114B0C384B004949
:100A1000210240D5064CF6065300004D220D485EDB
:100A20001405190315AA141CDF0624590A30CB0A31
:100A30003456003DC203568C1650440217CB0A5060
:100A400000004D000013000015AA143500006500D9
:100A5000004BCB0A4800004D4B0017FC0C54220DF4
:100A6000485802308E0E2D1713089E0E0CA111103F
:100A7000ED13180E081CB0102492063989104DCBC6
:100A80000352640934440215580232C203505D0E09
:100A90001821024C4B00144B005920073048020823
:100AA0003C120C9E0B11BE0A1D9406359703391C8F
:100AB0001140E712488B0563A0023100004D000091
:100AC0001B000051990214720321A4174F4B00140C
:100AD000820C0700004D17120C00001D7B00377CB4
:100AE000081C28084B00003197021C070A15D41176
:100AF00049C8035A00004D0000114402150000359A
:100B00000000194B002D4B00397D0850000065583E
:100B1000020AC20358B5153E6F16300000494B005B
:100B2000394B000B4B005128081600004DD4111111
:100B30000000198B055864093192062FE5080CB4A2
:100B4000171400004DAA1422D51438D41153610390
:100B50002F00004D0000156F164A58021100001DAD
:100B600000002F00004D6F1664B41754D615090508
:100B70000D0D1309154B00190F121CBD0B244B0052
:100B80002D940835DC144858025196175A0000215C
:100B9000000051990215000041E80C184B0009F3C0
:100BA000020CC81210E7151D8C09306B0735CC0BF1
:100BB00039DD0E48D3154E00001D6F164A66093EFA
:100BC00000001500004D00001100004B000021C284
:100BD00003580A130891120D7602104D0215670D85
:100BE0001D7B0D24220D2820083148023597173926
:100BF000D9063C1B14409B02492C104DBE1251D803
:100C00000A5450085D0D086489116A0000213507F7
:100C1000279F09248D166811121700004D0000054A
:100C2000BB141CCF033E2D011500001DC2030CA2F6
:100C3000004EB5153CCF0758DC1104D406099504C5
:100C40000C090F117B1615480718AD141C32002C27
:100C50001B04306B0B341308399C0B41DD0944092C
:100C6000084859094D760053000005000015340F5F
:100C70004DA9101DDD103953153CB617496A0356AE
:100C8000AC033800001D28081500005D00002DF79A
:100C90000C4C2D0106C10F0900004DC203320000AB
:100CA00015980F0D00001D00005D261341F70C4C38
:100CB000AC063E340F0C4B0059340F4200004D007F
:100CC00000658E0E1C8B05265415044B0016610C16
:100CD00014690606640C144B005300004D00000517
:100CE0000000254B001500003D220D13BE040C3FF3
:100CF000081D7A0F2D9F0924A314174B00510000E3
:100D00003972034F00001121025000003100003DF4
:100D100000002F4B0015000065C2034DB41725D409
:100D20001153280815D4116B4B0021000065B91729
:100D30003CC50A2D9902159F092600004D0000515F
:100D4000000065340F1500002D30101FC90A095826
:100D50000210010920B30328190D2D76034DFB1253
:100D600051D411350000490000399F092428081684
:100D70004B003D3C1616D4111121020E9F09246D23
:100D8000131700000500000FC90226CA0548B41752
:100D9000564B00654B00594302048B05102C14146C
:100DA000B71624DC0031370A35380F398B1348F475
:100DB000124C6007515A156AD7071D000017000032
:100DC00051B61711F80C33C20330000065580216F3
:100DD000440215D708264B002500003F00000558A7
:100DE0000248220D3275073200004D00001100004C
:100DF000510000654402049E120916120CEA1515F2
:100E000076161DCF062C170E30F40E357D033926CD
:100E1000013DB80441921748370054C90E5F0000E5
:100E20005100001500003958024A8E1104C30F0802
:100E300091030C5C0010C20218BE111C04012C109E
:100E40001630710734A2023878163C7C1048B00D79
:100E50004CED0250B60D5899016A73111C2D011703
:100E60002D14140B00545F142673111D6917516162
:100E70000C30EE0D060000052C0A0C00001D0000D1
:100E8000198C13108B0414440224D40C30921134A6
:100E9000DF0839470A41C60548060050701367004D
:100EA0000055220D3ED4112D2808159F092600005B
:100EB00005000021000065D411522C1214C2032435
:100EC000000065BC043E4B005100006500003F4B34
:100ED0000015C2030844020400005D50050D6700C0
:100EE000110E1518EF121DF61024120C2CAD053042
:100EF000E61335060B39160F418E16490E024D5575
:100F00000951B604547B0B61951665CF076A3C13F3
:100F100004D20C0C980215280B20B01524C20334FF
:100F2000290B38A70048CA0A512406546F16664494
:100F30000215C10F1300004D0F120AA40E16000077
:100F40001500003D5E114300004D0000152B133CC1
:100F5000E101420000110000310000414B002F4B25
:100F6000051E000021B51524A7131D2D0A05DB0C55
:100F70000DD001113B0715F1132CD8093038173962
:100F800024013C140D41C8104996174DDF0F51CA7A
:100F9000055F000025D411100000156F1606000033
:100FA00065A00205D614147D0E2497003C59124802
:100FB0008B05560000151C113297022600004D28A3
:100FC0000815161142BD0604C60814A51124EC0824
:100FD0003C3B03540A0A674B0051C203484B003B99
:100FE000000015D1080F1B111B00006592110600AF
:100FF000004D00005100000D0000593F081CA80BD7
:10100000249E0630740D34E710392A17403D1549E7
:101010004B005500005F000051000039D41131AA87
:1010200014418B055AD51438B5153E000015000043
:101030003558024A0000150000214B002F00004DDA
:10104000D41135A90308660F43A40E100000150043
:1010500000659F0926000005000051000065D411BD
:1010600038E5080C00001DAA142F000005A40E1777
:1010700000004D0000259409116409381402640031
:10108000001D28081500000D00002DFA11069B1206
:1010900050220C264B004900003100003B28081567
:1010A0009F0924F90C4217001500005FC203482273
:1010B0000D222D011400002500003F000049000012
:1010C0003900000F000051340F543F086A00004DF2
:1010D0004B0015C20330AA140B7E0004AC06145753
:1010E00005246D173C120B54C203664B002400000C
:1010F000150000670000392C0A3E6F16151A1325DB
:10110000CF0356D41111000031CA055300005128F5
:10111000081600003D4402160000050000210000F2
:101120002F00004D000021BC043C0000414B003961
:101130003F0851B40A05D2150C060F14A51730004C
:10114000004900005F0000514B001DC805304110F0
:10115000082A1139800B3D560E486C0E5D00004D7B
:10116000000015000043000015EE0D3C8D166B5677
:1011700002304B001F00004D00005121020C000006
:101180002DF90C4BB6172DC8034C28082617120C46
:1011900000001D00005DD0133F000021580704C36C
:1011A0000511500014B50B1D5A08312202357C116F
:1011B0003989043CF20048E3084D2D0D5130125D91
:1011C000F0076A00004D44021500001958024897C4
:1011D000021CA7005AAA1449000031D41141F90C8D
:1011E00011A0145A48022CC805184B00395A15682A
:1011F000200730C70F0946160C300810DC0E348C5F
:10120000074864065100004D4B001FC7032D0B001B
:101210003EAA1465D508148F0F267D0852000015CC
:101220000000090000314B002D58023900004D002C
:1012300000111402368208624B0055AA1435AA1414
:101240004100004D8D160A090A1600004DB515041F
:10125000380D16280824CB0A365F173BC20334002A
:10126000004D00000B7B1554000015C20332B51071
:101270003B4B00154B001D4B005D0000094B00511E
:101280000000432D0115AA142D00000B7B1506004C
:101290000011D4115D2C0A044A0414D30440F70C45
:1012A0004E000031000049B5151C4B00194B003BA6
:1012B00000004D4B0031000051C203684B0011F398
:1012C0000E0B00003900005F00004D720B24371731
:1012D0003C00005158024A8C161EC20348C2031437
:1012E000B417049702320000114B0049000035008A
:1012F000003B4B00514B0025000041E908096B08F9
:101300000CF2021819071D5105309B1635100C39C7
:10131000A90D4A5515044B001700004D0000154B50
:10132000005100001B69000CD4110AC20308340FDD
:101330004D2A172CC2034065071066111D0C00349E
:10134000001639980C48AF0553000011C203094438
:101350000215140235D8074452164800003B00001D
:101360001500001100001DC2030C00002DAA143A44
:10137000000039C20314000025000013000015C945
:10138000053300004D000015D4115200001517124E
:101390000C000035C203489B111D4B00386E0A5FDC
:1013A00007100431131484162593113C181348DFD9
:1013B0000B564B003100001500003D9F0926AD087B
:1013C0002400004D8D1612000009C2033900001BD5
:1013D000BC043CC20316D4112D4B1314380B046209
:1013E000173F58022200001500006B0000150F1275
:1013F000313F085000002F000015B5152495081C3A
:101400005B073D00004D000065B51506340F20B5A3
:101410001504BB111E170B3DAA1412340F15C2037D
:1014200048620824000951CB0A5791063976034EC9
:101430004B00310000114B005100003D4B002F21AB
:10144000024D4B0065000061DA04059D120911018F
:10145000114E0214AA141889131CB31224C80530A3
:10146000240B384C143D0608408F1549200251EFDB
:101470000E54B5155E00004D0000254402155802BB
:101480001F0000153D1533000025440204C2031659
:101490001E00214B004171034DEF13544B002D11E1
:1014A00000043F080E4B0031720358B51504C20307
:1014B0004D00002D3D0208C60A113F08206C17247C
:1014C000580235FC013C1502541C111B4402150046
:1014D000001F00004D280838440214D51448B404F5
:1014E000525F0226000005D5143A4E0205A81009E5
:1014F00017120CB40D111C0618AA131D5F11247EBF
:101500000C30E70E34A106389D033D811041490A95
:10151000480D164DD206513F17542F125D460261F9
:10152000A91065220D2200001500003D000035FACB
:101530001124610B4A7B081C280830DB0E484B0045
:101540002F440214B51526BF0E3C00004D00004389
:10155000F10E2465063C54024A4B0031000065FB45
:1015600014086B0D4000004D4402149F0926000032
:101570004D4B001500005100001D220C24AA143A06
:10158000B51504B40B088D160C30071CA10B347B69
:101590000A403B134C0F1252230D14911026C20324
:1015A00024AA145217120C7603320000194B0C486F
:1015B00028083A2D0115B515050000559F0924B5D9
:1015C000153C5A156869080D450710C40A184D11D5
:1015D0001D10092C6B1030FD0E34311439EC004114
:1015E000A9104D130451B51548000063CB0A34B45B
:1015F000043A000051440249B5155F00004D000057
:101600003D000035C203580000614B00194B002D0E
:10161000710B24F31633621704E600156F1626B516
:10162000153CC203302D01174B005100004D2D0118
:101630001600004D0000054B0041B5151600004D89
:10164000921154340F1600004DAA142144174A0079
:1016500000152A1758C80332000065220D1DBB0C67
:1016600038D411112808159F0924C2030C00002F3B
:101670006F16560000197D0C044B00138C13114794
:101680001663000021AA141E7E04044E17143B1496
:101690002467143035013CFE0456340F14E2013146
:1016A000CB0A400000510000371C111700006500F4
:1016B0000035DB143A00001100006500001D000039
:1016C0003D9F0924AA142DF8030CA214153C023ADC
:1016D0001112159B0B22C20348440214AA140A7F5C
:1016E0001531A3141700006581153E1101388D16C0
:1016F0005100004D6F1616000005280824C203167D
:10170000C90A098D1610D41135000049F00D1A4B85
:10171000000DD5143B05010E000011000065C90E37
:1017200005BE040C481315CD031CA81325D2152C97
:10173000DB0E38B5153CCB0A4C3016514B00560029
:10174000004D000051C203240000350000390000A4
:10175000414B00191A162D5802082808160000657A
:10176000C203104B005D370A353D0809110F0C6E9E
:101770000E1D28102497022CE80838C70E4B340F92
:1017800018610C044E0509DC100D950310021114AC
:101790006C0A1DDE122CE90530470635230C396C26
:1017A0000E419F0249E0134DFB0A51AA1458291219
:1017B0006134036A0000518F12355D0E4A340F24E4
:1017C00000004D64091EC2035100001DA31417CB75
:1017D0000A424B0011D4113300004D000015921144
:1017E0003C3C153300004D000015D41111BA0C38E3
:1017F000220D53921126C2035100003D6F1604AA18
:10180000141156002411013AA80B15AA1410110145
:101810001C39133E3F083B00005117120CC2033421
:1018200000004163123A00004D000011D4112D64F4
:1018300009410000399F09248B0558F90C4992068B
:1018400031CA055EF30E12C8051800000900001524
:1018500000005300004D00000500001300004DE89B
:101860001311B61731190D5300001100004D00007F
:101870005100003B17120C00003100003B0000112A
:10188000C90A39580233000025000039C8051A007A
:10189000004DF40C4200004DAE0C52B51514FA1177
:1018A000540D086AAA1410290B1E00004D0D0810D3
:1018B0001E112528081700004D4B0054C0143CF39E
:1018C0000E086309348E0E43D41108B41704120FA6
:1018D000249900439908264B002100005100003D47
:1018E0004402044B005D02150C2A1711150B15015B
:1018F000161DE30F24C8072CA600304C1335B40C7A
:1019000038130C41CF0E4802004DCD0854F30F5848
:10191000E9146546026AAC0632C2034C4B00110062
:10192000003392115400004B0000050000114402E6
:1019300015580230C80358C8034A760704C2141465
:101940009B0124B41734D1033C080354D80D66B36B
:101950001704F9030CFD0714F10224730340E20F8E
:10196000520000110000514B0065C5005400005D9D
:101970000000434B0015C2034C280830340F380FC9
:1019800012526A002476033C000005280817000064
:10199000396F164900004D6F16324B000DF50C38AB
:1019A0004A053CDD0C4CD21550D30C6200004D00B2
:1019B000001528083958024B80114A000065F311C0
:1019C00004620B14AE122454053C84095600001521
:1019D0004B0057000051220D0E2B1216360F0CA48F
:1019E00013480000159F09264402144B001D4B00AC
:1019F0004CB00235110158C2036A580230C2035676
:101A000044020428081400006592113E290B54007A
:101A1000004D4B003FB4172267101B00002100004F
:101A20003D6F1605C2032598062F00001900005DC2
:101A30002C0A142C0A483B100600006544023C396D
:101A40001248AA14338C140E000051E5080CD4116E
:101A500011D41135C90A39AA144984155500003129
:101A600000002F4B00241D0E04F615560000116CCB
:101A70000334340F4800004D4B000FB51524B51545
:101A80003EE20826A409152C0A2600000DF41631A2
:101A9000000005000025000017B51504B51516C295
:101AA0000330340F3E000011C20330000053000029
:101AB0005100003D58022D4F0D1D00004D000065E6
:101AC000580217000005000015C2034807053CC373
:101AD0000424EE163200004D280815D90731000005
:101AE00051C2030E340F24280816280830000013B2
:101AF0000000510000490000430000519110243AB9
:101B0000123150133EC20324C2031C4E0217B515F6
:101B100004B51554D51426000065000031000041BD
:101B20001E0706C203300000656F161564090A27F8
:101B30001310000027ED15170000052808150000F8
:101B40002DCF054017084B0000053F0848220C2404
:101B5000CB0A1452120C100438620D3F4B002D506A
:101B600006312C0A3AD4113900004DC203242D014C
:101B700016000049280832340F244B000500004DA0
:101B8000A80B16D41111580251220C243D02330027
:101B9000000500003DF10014C10E260000250000E4
:101BA0001500000D000043280814C20330B51526A7
:101BB0000000156F16544E002F000065AA14500047
:101BC000003D220C244E0214D003066A0C04661257
:101BD00014A01220DF11241D163C7004487F055408
:101BE0005E085CDE09660A0A54340F23720B160085
:101BF000004D0B0A15110130C10F52AF0326000032
:101C0000158C130617124E000015000051400504F4
:101C10009816343C0A3E4B0015CB0A38B617118B88
:101C2000054E440215C2031C00006558023A870C99
:101C300042C0073C000065440216000015C60A1D9C
:101C400000004D00000F4B0021000065460261C2FC
:101C500003348D16092E0C0CC20311F007148211E7
:101C60001DB5042446022C5D08301A12393B064982
:101C70006A174DBF12514C05549D165A000025B4E9
:101C80001756AA0E044F0414E90C188E09206A0690
:101C90002402133017173C7E0F483E0A4C3511546E
:101CA0001A0866000031CF0B0C3F085172036383A2
:101CB00001049D1514091720250E24F0043C340559
:101CC00048021454B00C660000650000350000198D
:101CD0004B004D00002D4F1515340F04000051AC82
:101CE000033A520C534B00314B002100004F0000CF
:101CF00015580263AC03392C0A0ED51438C2035AA6
:101D000000004D00003D4B000542160EF50C12225E
:101D10000D4200005100003DD50638220D12A417D7
:101D20004D4B0005580223000005AC033AA40E1EDB
:101D300000004D2D0115C2030700001100005100E5
:101D40000065970258000055C2032C92113C5A07B7
:101D500030DE0843000055AA140C4B0504CB0A5A88
:101D6000000065960904E502148B122476103C2AC3
:101D70001348331756580248220D3EAC10149F09E1
:101D8000244B0C0600004D4402150000399F092425
:101D9000580230FB140A0000310000492A1758008D
:101DA000003900002F0000052D0117CF0332C203B8
:101DB0005000001DC203070000496C0D04670E149B
:101DC00051132497133CAB0C562808049F09241187
:101DD0001215BC0638C2032E00004D000005C014C9
:101DE0003C610C26000065C20351280814220D2016
:101DF000BA08046003091A020CAD10117B041839EB
:101E0000141D640524690A2C041531E50E34A91744
:101E100039AD113D711041D50249B40A4DB4125487
:101E2000E209584C065DC802616C046B0000652C29
:101E30000A0C00005D720361B417058C1311841540
:101E400017E5080C0C125100004921021E6F1624E0
:101E5000A40E3088113D00005F000015000065AA47
:101E600014245E0C06BC041400005D00002D6112F9
:101E700048B510330000212A0B6A4B0011A7173018
:101E80004B0051000043C80515C2035AA909053883
:101E9000101483172448093D8D105400004B4B004B
:101EA000542D01165802436F1633460261B51514BE
:101EB000E80C184B00099C000D3E0811C40F1DCF03
:101EC000072CF50F31D71135E012384B0040CD16F5
:101ED00049A1004DD2045062076A6F1664AC000538
:101EE000290A14020A259617349F093CD41141533C
:101EF0001557EA01260000090000110000510000FA
:101F00005F000015D514380000095E0C49C805189B
:101F100000001D9B11107C003700002DD4113300F0
:101F200000250000515A02041201145D0A3D1209F5
:101F3000660000052808165D0E1800001D610C32B1
:101F400000004D95174200004D0000654B005658AB
:101F50000250D5143A84154B21020C00003DD411D7
:101F6000520000112811060000310000392808161F
:101F700000001500001100006521020CAC03399728
:101F80000258AA145D00001F761204650B0CD116CE
:101F900014CE1220030724B70D2CC2073049063493
:101FA000CC0438AD133C630440100D449B0B48F93E
:101FB0000850D30154BC0F5CD40F66B5153CC0115A
:101FC0000441020820130C32121050091483151812
:101FD000F0151C190B24040828290B2C1006303C82
:101FE0000E34C20D38F70A405103487F024CCD1120
:101FF000508B065832085C9E0760D60C664B001565
:10200000000019D41151110134B4045AD6155644A4
:102010000215A70048C20338DF1440DF062600007F
:1020200051000031C2033800004D0000119F092605
:1020300000000528083E000015E5080C5802526F04
:10204000161400003D220D48B515240000415F1410
:10205000565802144B002DB617113D0232000015E0
:102060000000654B002D8C142600005100003D9FA0
:102070000924FF0C15A30E418B054E000005C20379
:102080000C220D11CB0A1CC2033900001500004BB5
:10209000000049340F4E000065000049580232A686
:1020A0001409910E0C5B021148022CC90114C913CA
:1020B000199E041C4F15248D1728820631FF0D35FB
:1020C000861539130141380549DB124CEB0951588B
:1020D0000F54CF07587E015DCD0A6700004D160BE7
:1020E00015B61751081305FD0C2600004DC10F123F
:1020F000000039440216B5104100002F00004DD4F5
:10210000112D00003900005100001D00004B00009F
:102110004D8D1608640941000019640936000065F8
:10212000F30E10C2032400003F6F1630000037008A
:1021300000514B00272808145802320000415F026A
:1021400051A8140B230804D5143C000025000053AB
:102150003D0248440215000039000005000053000C
:1021600000094B0011D41141CB0A4C4B00544B00D9
:1021700039020F14F8031CCB152600004D2C0A3A27
:10218000000065C20314220D3C4B0057820808F280
:102190000F14790E3B45010E2808040000310000A1
:1021A00019CB0A4A4B0051A90618A40E1117043185
:1021B0000000652808159F0926610C24640C210085
:1021C000004D4B003BBB141C2808159F0926C80373
:1021D0003A00004D000025C20350000015000031F8
:1021E00011123F1A0315AA142244170C21024DC2E2
:1021F0000350CB0A2E4B0015C2032600004DAA1433
:102200001C00002D220D6AC2034C5F143C210D53AB
:1022100000004D0000510000650000399F0926179D
:10222000120C00004B000025E5080C00001F4B00BD
:1022300015980F0D6F1624AA141CC20311970240A3
:102240007B0504F01309780B30D911351C11384C7B
:10225000163D4C094C740A51D90A54AD0358470530
:102260005FCB0A50970258AA1435AA1431AA144118
:10227000280811B4174BC20339220D2EC20324447F
:102280000216000015B5153C00004D280826F90C73
:102290005000004D00002300004D340F3C5F1456E9
:1022A00000004D000051BC043C5B0924400F33008A
:1022B000004DD4111C2808170611165D073CA70E07
:1022C000128D161A00006500004D4402169D02147E
:1022D000C203268C14540000075D073C140236002C
:1022E000004D0000150000654B0051DD101F00007F
:1022F000259211042A0730A4003FC500570000357D
:10230000000051E5081EC2032C220D28220D685240
:102310000705D20F09B5160DD70411A7131DA61076
:1023200020FB0C25730B315A17351D143976013DEE
:10233000470241471149CD154D631751AA0754680B
:1023400016580F135DCB0A6200001500002DA40E75
:1023500023A31415790F2DB303528B0514E909201B
:10236000210C244B003E00004D0000214B00159F26
:1023700009269B08049E1614C30C241A0130370C3E
:102380003C0614483F125600004D000015F8110598
:102390001B021C000F3844023D33165000006558E4
:1023A0000232000021D4112D7B15562C0A0CA40EEC
:1023B0001FC80A2F00003500001100004D00003B2F
:1023C000C20310C60F1C0F122E0000092D0114614C
:1023D0000C3026134300002DD41153000051CB0ABA
:1023E000120000154B001D220D68C805260000656F
:1023F00099021721023F340F4C4B0051000035C2A7
:102400000348610C30480F1491083B00004D20092F
:1024100005D5043CAA145200001100003500003913
:1024200000001BC2032C4B00199F0904891208EC01
:10243000020C441111B316141015300A12345A0B41
:102440003985083C5E07410E09494E014D0E175370
:1024500000004D00006500003D28081721024C00D7
:10246000003300000D00005100004B580E26000004
:1024700055B5153C6D131520073030073805054854
:10248000B00553000005000015000011D4112D0007
:10249000003DA40E1F000065BC043F0000114B006E
:1024A0005D9211160F1224E10204E21514B2103CE1
:1024B0003E014857095600003DAA14349B0909A45F
:1024C0000E4100006558021700001900006300006B
:1024D0004D4B0065D411114B00516F1605000015CE
:1024E000C90A331A03159F092700004D000015C2C1
:1024F00003304B003F21024D2D01149F0924AA14E3
:1025000019190D112F1733440509F40A0C380A1153
:10251000E30915C8051918071D80032CC50330AF42
:10252000023506013962173CE316414C0C4845114F
:102530004D9E0051AF075A00004D00001D00002DB8
:10254000D4113B00002D4B0027B5152497114000F6
:10255000004D00001500003F6F163C000005000014
:102560001721020CC20368000035C2031C00004999
:1025700000003B000005000015280824C10F520090
:10258000002100005100003D00002D000015B51590
:102590000668153E000005E0073E00004D4B0015A3
:1025A00000005172032300004D00003900000500B7
:1025B0000011000033340C04B01414560D244608E6
:1025C0003CD10554D1056A00004D67100A00006532
:1025D000000055000035B4170600004D21020CC65E
:1025E0000A2D000021000053DF06246D13153A0860
:1025F00009D2000C3E041061001867131D21022C43
:10260000311130460635530639CA05407A134CB3AA
:102610000A5300000917120CB515480000354B008D
:102620001D17123A0000214B0015D807440008245A
:102630001B134F0000654B004C8B053076051D24A5
:10264000020932050CB51015720D20E7052457025A
:102650002CA21351B30D56231504DE0C0C53140891
:102660008D1310C20914FF0A188C001C970720E76D
:102670000324950E28EC012C710F301E1234550CDA
:102680003860013CAF0840FA0744211048B1094CBA
:10269000720850541654B10658BE085C530C601EA4
:1026A0000E64C00B6A00001DD506388F0717851110
:1026B000422C0A0C0000354B000921021132031C88
:1026C000AB0539101255820C5D2A172F00005144BA
:1026D00002047C1519220D4AA20E3000000F0000E2
:1026E0004DC2030C4B001D00002100001700001517
:1026F000000039D41141A80B04250836220D3304FB
:102700001415051024CB0A53000051D607150800F4
:102710003A00004D00001D170F430000214B00152B
:102720004602614B00656F1604B515240000413F59
:10273000080C4B004C910509E105106D031DF409CF
:10274000304313394D073D4601493A16556F165E21
:10275000000011D50638C2030E4B00310000514471
:102760000215C2031EB417548B051E00004D280825
:10277000144B0026210250691504F3131444071C5E
:10278000D11324AE003C250554650D66440214584F
:10279000024A4B0049D90F4C4B00330000492A171D
:1027A0001100004D4B005300004D000011D4112DBD
:1027B000AA146B00001100003D00003500005D4BC5
:1027C000004D6F16154B001D6F1009AE0B0CB604B3
:1027D00024A20B2C070830CD0D39150F41E3034916
:1027E0009602512414550000597D0D6100002B0004
:1027F0000005000051400A1100003D0000150000D6
:102800003300005D000015D5143A0717230D085A50
:1028100000004D000025000051280815000019B5E2
:1028200010330000110000656F16040000398C148D
:10283000170000158D160600002500003700000562
:10284000A3172600001100003DD41141DF0431110F
:1028500001374B001521020E0000110000652C0A03
:102860000C00001D000035C20358D5143900005D6E
:102870000000414B004E000015000009C203370064
:1028800000052D0116000015C2033021020CB515FC
:102890003B00001DC2030C4B002DF90C130000057A
:1028A000C2030C4B0025340F17440215D3041C9FA0
:1028B000092400004DAA1412590204B20466ED0D59
:1028C00004CB0609E4100C430E116706152A1718ED
:1028D00072161D5101319B0D39250140790249F3D2
:1028E000124CC01251101361FD046962103E4B0579
:1028F0003EB41724AA14539F0924C20338AD000420
:102900006A1315800A4A00002164092DB404520E8E
:102910000A04BD0114B90520E71624DA0F30250991
:102920003CC60048690254B4175C590666D4111BB2
:10293000340F183F0856AA064A000035000041032C
:102940000013000065911024A40E544402150000E9
:102950003FA80B14210207BA145058024F00004D33
:10296000000065280816000031C2034AB41754E974
:10297000103A00004D0000110000492C0A1400001C
:102980006328081500004D00002100003FDD1017EE
:10299000E8132DC60A3B4F151600004D4B0041CBE6
:1029A0000A384B004B2F0156D8073800004B440221
:1029B0003FAA144000003DB40450130F26220D3CE2
:1029C000C203242808163F082C00003100005F00D5
:1029D000001100005100003FB4175500003F610C8A
:1029E000305C0516B4173F00004D4B001500005138
:1029F000220D1DD41138811711340F260000212813
:102A000008156F163C8D165200004D000021210262
:102A10000C9F09242808144B0039B61741000011F7
:102A200000003100004B460704800914200124F9FE
:102A3000003C9A0F564B00150000658B054C4C026C
:102A4000532A170C400A1F0000250000154B003DBB
:102A5000000065C2035100000D220D4DB10A4B610B
:102A60000C1400004D00000500006500003FC80583
:102A70003E76034CB5154A6F16304B001D9708394A
:102A80009909417B0A51FD046A00004D00001121A3
:102A900002500000319F0924CA0540D411350000BE
:102AA0003B7F0A2E7A1504930836000065190D1C29
:102AB000000015C20326720B3E0000119702584B0E
:102AC0000065B51524A81409F70C4CDB143BD41190
:102AD00009D411439F0924B5151700004D00006566
:102AE0004B004B66081BD514384B005300000514EF
:102AF00002349F0927D3041E4B00154B00054C0AD6
:102B0000258B1628820C3E4B0025B91704220B1684
:102B10000000210000659212080F0B0C561511A53C
:102B20001418BF001D330F2448022CD205314B006E
:102B300035A904399C0549E50B4D05085128085471
:102B4000000041C90E0700004D00001100003D28A3
:102B5000081500002D64100CCF132413023AAA1498
:102B600008AA1434BE0E5600004D000005000037C0
:102B7000000019220D088D165007051C00001100D9
:102B8000004900003B4B0035DB0E0867144C8B05F9
:102B900032000065280815D41126000065570A0583
:102BA000461314BC10254D0B3CCB0A5600004D5863
:102BB0000851440215E5080C9F092600001DA701D5
:102BC000114B0514040918040930EA0C381B0D3C9C
:102BD000180348D8074D5D0C50C8055600004DD469
:102BE000113800001DCB0A2FC2033000003F000047
:102BF0004D8D16102A171E0000218D161EC203507F
:102C00009F092407053CB91734B91243B50725FFBE
:102C10000456041414B51504B515260000517203AA
:102C20004F000055E516143E0226000005CB0A268B
:102C300000004D00006590151481093ECB074C4BF8
:102C4000004BAA14194B00560000656F053E0000AA
:102C5000654B0011000035B41754A80B04660C1521
:102C6000120031E2053907053C751648EB004C03AC
:102C70000F530000250F15086F1615C90A362102DB
:102C80004D000021C203304B0011C80518F8090C93
:102C900000061DBB0B25DB0E29F8032C68113562DD
:102CA0001539801041291748B20B51E70854F40F29
:102CB00058C60A5D071765FB046A00001500006529
:102CC00000003D9F0924000041FE0E325D050A13FD
:102CD0001504E40414071124980130140C3C60140A
:102CE00054850F5E740D34100F0C31071055081405
:102CF000360E18DD051D650A30C0063948024069E8
:102D00000A48B70B4D9F135170166B00002D000041
:102D1000490000510000330D0B174B00154B0051BB
:102D20006F1604000031CB0A4F4B003DAA143464E7
:102D300009081F06154F0B2400004D4B00570000DB
:102D40003DA40E1276034D4B00114B1304160B15C8
:102D5000650E0984151937031D031430911134824F
:102D60000A39391441750E48DD1051750D5A0000AD
:102D70004D4B0051000033D41111AA143500001539
:102D800000003B00002D4B00492102514B001B006D
:102D90000049C2033A00001500006500001D000054
:102DA0004DC2033A44021569100A00005D5107152F
:102DB000AA1465220D1EEE0D1400004D9F09264435
:102DC000021464091F000031220D0C0000050000F0
:102DD000153F083E000039AA1411B51031210251E7
:102DE000B5153F4B00150000511E004F000039582B
:102DF000022F220D503F0804380008D30A0CEF0CB4
:102E000010880C14D311186C11208415254D003036
:102E10002B0F340D0840E9124853124F4B000500A8
:102E200000652D0116B6171B0000058B05208D16B9
:102E30002C3F0852F80604530B145C1024EA0B3C98
:102E400092055600004DAA14509F0924F710170050
:102E500000214B13144402540B0024D5143E6F166A
:102E60000458023200005106101958020651050894
:102E700000003F000021000035B5150400002D00C2
:102E800000612A17582A170D43111148021C0E0918
:102E900024360831720039A91441FC0F4987134DBB
:102EA0002A1751E608546E165DC20A6700004D3FAE
:102EB00008324402544B004B6F1630440214C203D4
:102EC0000C9B111D540948AC03530F121CD411481C
:102ED00000004D00003300004D4B0015B5152421B6
:102EE00002060000113D0248000035000041B41701
:102EF00004B41717000005000015DF0624E70D09CC
:102F00000F1236B5153C4B0007A40E0B8D1651CB96
:102F100011337B17045903141C0B243D103CF7019B
:102F2000546B0E67000041A40E152A170B00004DCC
:102F300028082400003D280815580248AA14115CEE
:102F400005560000518B051EE50853280814D304CC
:102F50003200000500001500003D9F092600004DCD
:102F60004B003DBB1440000025280817F20E43001B
:102F70000065BC043D000005440216220C2400003C
:102F800005AA145254094821024E6F1614290B1C2D
:102F900000004DD41112340F4C00000DB41756C26E
:102FA0000330280817000021E2012FC20311220D6F
:102FB0003A9F0924280815D41142640942000021CF
:102FC0004B001DBD1204C60B09C9120CA0021153FF
:102FD0000E15EF0D18340F2595032C800130730D5D
:102FE00035500F394A003D8F0641121748200B4ECD
:102FF0000000116F163E340F14720B26000005C23C
:10300000032600004D3D15118E0E2DAA033ACA0568
:10301000310000534B0051000021C2031600004D47
:10302000C2031C00002D49053A0000150F122400B0
:103030000005B4175600004D4B0015BC043E4B0074
:1030400011000039D4114100002DB6173500004D94
:103050004B003100004B4B0015340F3C2808384B17
:1030600000554B000700004D4B001500001DB61722
:103070002DAA143A640B143F0224EE163E73111C61
:103080002808318C14124402544A13155C053F225F
:103090000D103D0208690614B5153D00004DD41110
:1030A00042451315A4174F00004D000021280816B3
:1030B0009F0924580215DD10334B002DB404500035
:1030C000004D0000150000676814049210143F03BF
:1030D0002471163029023CB2025467145CCD076695
:1030E000C20324000065A3141600004D0F123E1009
:1030F0001365C80B04C11014D1072482143D90102D
:10310000560000054B002614020E00004DF90C1964
:103110006409414B0051720358AA14680000490029
:10312000003BD5143873111C2C0A0C340F4C2808A2
:1031300014DD1053B5153C130D50500B5400004DC9
:103140004B002F0000092C12155D0E18CC00242115
:10315000024C5E0C49C20336000015DB0E0A00006B
:1031600061A40A04041109950F0DE80E11E7021578
:10317000710519D1011DC10A20EB122590172816DF
:1031800011305E01352B073867153CEE094170118F
:1031900044330848350F4D151651600259DF0D5C58
:1031A00072036B00005147074AEB0C0461171405CA
:1031B0000F24550D3E000065C20330440216331142
:1031C0002600001D0F1238A30022670808D60856F3
:1031D0006409530000514B00141E004E1B022300D3
:1031E000003D11012F00003D28081500004DD411AD
:1031F0000A3F0830210240080D0C790439220D0ADB
:103200003F0822A10C04E7071436072428003C5F7E
:103210001656340F24440214BF04526906160000E7
:1032200049410E2F000031C2030CB5151E000011DC
:10323000000051060D0C00001D000039C90A2F00C6
:1032400000350000413A0A388A1048C2030AD515F1
:1032500024A80B1700004D00005144021500003D4A
:1032600000002DA40E11F5103300000544021500D6
:103270000049A70E3200004D4B00310000154B00F5
:10328000519F0926D514386F1607C2034C000065FC
:1032900000005D0000414B0C385F0251000011003E
:1032A000003D00004B0000056F16144B004D220D31
:1032B00030A91009630E25ED0F3C210241DD1049B4
:1032C000220D5099115687110453001433102435E0
:1032D000133C1B0754860F66030E04A30F14EF164E
:1032E000203F1524930A3CD10B544B0F66D615335F
:1032F000850C24B510317D0139000051280817C212
:10330000035000005500004D00002500001700008C
:1033100005000009000035340F38C2031200001107
:10332000D6071500005D000039C2035A9702586F96
:103330001630340F262808158D160AE1012F0000DB
:103340004D000005000025C2035000003F4B006502
:103350008C1410AF1604E21309CB050CD3001545ED
:103360000A19B2031CE50F242A172C890C315B0FB4
:10337000348A0339B60A419204489A0B4C460550E8
:10338000441759B6175D630663220D046E11097662
:10339000051D651139730A5046025828084A000075
:1033A00055000005000023C203302D0114B5152679
:1033B000440214B5153E0000652808159F09253DF7
:1033C0000233000055D4110A0000659F0924D4116E
:1033D000404F15152B133E0000514B004C92113CF1
:1033E0005802384B0009340F4399021500002DAFE5
:1033F0001524AB0A3E440215AA1442000025000021
:10340000514402154B00054B003919044A3D025E38
:103410000A0A2600002500001500003FAC0338C250
:103420000351C20336C20310C2033A0000652102F1
:103430000C4B0025000069720361340F18D210058F
:103440009115110005158B141D44022079002D03E0
:1034500011341E0D38D91240D1014D5B1551280889
:10346000554E0D5928085E00003D4402566610086E
:1034700000004D00003F000051340F0E8D16104E1D
:103480001515191324000005B5153E2F145DB91745
:103490004A99121400004D00006700001D00004909
:1034A0002613418F0839D3045300004D4B001400FC
:1034B0000041610C306509370000410000610000E7
:1034C0006992113C4F1515AA14652C0F1A00005172
:1034D0006F162500003500004158024800002D21DC
:1034E000020D281110CB0A151C045B00004D0000D2
:1034F0001100003100003900001900002DD30458DC
:10350000B5154B440215220C26DE072D00004D0098
:103510000017000005A9102F00004D4402042808E0
:10352000160000158D162C00003FAA143806101046
:1035300000001500001F00005100000921020C00CE
:103540000049000039000019850C24591731340F47
:103550004D6F0B58500B1700003900004900001147
:1035600000003700004D64091C280824A30020C077
:10357000143E00004D6F160411012F8B05584402B4
:103580005692113C340F544402060000116F16305D
:10359000CB16392612412C014A0000050000110FFC
:1035A0000809AA141DC2032D7C0431AA1439CA05C6
:1035B00041CB0A44600B49000065340F16B4175420
:1035C00000003DC20316C20314B515264B0031009E
:1035D000004DD5143A000015000065C20335C20342
:1035E0004800005D4B0C39440226CA0519000057FB
:1035F0004C003600004D0F125300003D0000519961
:10360000021700004D6409340000652D0117000009
:103610004D9801120000094B00415A1568CF072C44
:103620004B010C450711E10718D60D1D6202314F01
:103630001234A00439D002494D014DC90F5355022F
:1036400004D41112A4174D8D065200004D00001530
:10365000000051000039610B4858020700004D522C
:103660000B1E00004D00001100003D000031000065
:1036700039580248530D15071735D105520000512E
:1036800073111C980F0D2613414B004964123A7DAB
:10369000053EC20350D51438000033000009110163
:1036A0003164092F00002D00004D8D161E000025ED
:1036B000000041AA1434580E16D6043C351756445F
:1036C0000215AA140B1C1156D10414AD0A1C340F98
:1036D0002200004D5D0E18C203342808157E0E38F6
:1036E0004B000958022C5E0C4A000055D411110001
:1036F000003D18115200003D5F1406340F3CB51513
:10370000240F081E00002528081628083858021320
:10371000A80B158E172676034DAC0338340E145CB7
:103720000536D41110B30326690D34000043980FF9
:103730000D000039261341C50056000065AD0D1679
:10374000FA0A4A00000558021E4B0015440204CB39
:103750000A4CAA14268B05363F0848C20324C2032C
:1037600054301306C20350C2030800001D00003D80
:10377000610C301D02411001584B003700004D21F3
:10378000020C2D01140000399F0924FB122D2E1765
:1037900031DD0441C90A53340F248E0A04BB0414DA
:1037A000420A3CEE0D562D0114000065D30432B6DA
:1037B000171D0E043221020C0000558D161CA6099F
:1037C0004942164CAA14512A175A00004D0000090C
:1037D0003F08380F124A0000659D021600000521BF
:1037E000020CCB0A38220C24170121621756550807
:1037F0003C2808160000659211569F09240D1017E9
:1038000000004DB51504220D1600004DD5143800EA
:10381000004B00004DC80518B515040000610000FC
:10382000691A0315B10308FF100D9C04100E121C39
:103830005C022C001031CF0734CE0A39491641BF43
:103840000548FE0051B51566000015AA142E171282
:103850000C00005DAA00384B005100001F00004D15
:10386000000051CB0A3A000015220D2200004DB88D
:1038700017164B00151B134D4B005300004D000055
:1038800065D411110F12504B1315FB110C19111F98
:10389000141616D90F0C130F3E280814B5153E76D2
:1038A0000320B5153E21025000004D4B004B610C2A
:1038B00016D8070C290B4F4B00544B002F0000511A
:1038C0004B0C3A00004D00001564093800001F221F
:1038D0000D20B417341E04040C0514670924DB0AF8
:1038E0003CFD0154B7076600004D000015C90A42AF
:1038F000111216000039000065000011000051008F
:10390000004B6F16140000319F09264B0021000068
:103910004D220D107D061468021C110824AC1056AF
:10392000000065BC043C280816000015C20348FAD4
:10393000122F6F1614D30D114B001D4B000964118B
:103940000CEF07304010342F0F39EC0749640F4C4F
:103950005412508F036A0000254B001100002D4BBC
:10396000003E000005B61741D50636CF0306D30842
:1039700014FC0C5600004DA80B155D073CC10F420E
:10398000FF042617120CC2032C6F1604000035A882
:1039900014099B111DD9143A000065A40E260000DD
:1039A0001521020C4B001FC80518B51524D4115D54
:1039B000320E050E000DBF0C115C0D15D4141D70D8
:1039C0000E310D1534A71239D60640211548CF08FF
:1039D0004D9B0651D50C62000015000011000051EE
:1039E000980F0D4B00414B00654B005D3F082CA02C
:1039F000020941161D610C24370E31A10F34260235
:103A0000394B124801004C100055400258CD0A6352
:103A100000001551050A4B0014000049540E30F601
:103A200011385802360C0A15D4112F0000658D1676
:103A300008C90E157203265E0C48B515154B0C39D6
:103A40000000510000674B003D4402160000658DE8
:103A5000160800003F820904201115B30724D70A75
:103A60003DE40D4816035462136721020CD4111172
:103A7000C2031CAA1451F20C38340F14B5153E00C1
:103A8000001117120C4B0051000035261341FF04A2
:103A90003A21020CC20341D2151CA3003821025264
:103AA00000004D07053D4402159F0926A40E330072
:103AB000002128081500004DD411520000515E0C61
:103AC00014D41131B4173E44021468021C8D16122E
:103AD0000000254B0015000051190D2D6F16060032
:103AE0000021AA14657C14052714152B0B24EE0E57
:103AF0003008053DDD0D48550754CB0A5E9F09246B
:103B00000000514402160000214B002DCE0E08008B
:103B100000054B0017000051D41111000061C203D1
:103B20000597020CCD13253D02382D011500002FFD
:103B3000D514243F023E000019B5151C2C0A39D9B2
:103B40000F4F000025000015340F3C0F081E000029
:103B50000D0000517203230000214B000503110CDE
:103B6000E0062600006500004DC203242808160068
:103B7000004D21020C9F0924A50917460265FF1577
:103B800004AD0614F70324A4073CCA025600002122
:103B9000000033000015000065C20324220D481CFC
:103BA000110A0000394402149F0926C60A31000098
:103BB000514B005600004DBC11127B063EA1143E35
:103BC000D5143858021A0000254B001600004D2865
:103BD00008144B00564B003D4B00552D1120281169
:103BE0004A00004D000065580242000065B51514FA
:103BF0005802062D1414340F5600004D0000050025
:103C0000003D220C26CB0A0A000019F61614740592
:103C100048D4115FC20309000041F70C4CD5141CB5
:103C20004B005FB8123FB404530000253F084A0020
:103C3000004D00003D000035280814250626000030
:103C40004D28111300004D000015000013C2033071
:103C500000005D00004D340F3A00004D00001523B8
:103C60000B0495083658023B00001D280839000057
:103C700069340F18C20311210251C805146B0F30AB
:103C80000D0B352413430000050000110000510006
:103C900000556F1664280815AA14333F0836000033
:103CA00015C203515F145674174200004DAA141C2C
:103CB0006F16070000399F0924CB010C00004D004E
:103CC00000114B004BA70E5E00004D0000319F0914
:103CD00024AA1441920611A40E2D0000510000499F
:103CE00000003B00001500002DAA1421B510530060
:103CF000004D00003D8C1611970114340F2454120E
:103D0000287403300B1634C2036B4B00158B054F20
:103D100000003D8D161E21024CC2031EB916044838
:103D20001014C10C20860B241C11281D033CDF0E2F
:103D300048180F5461065C1C0966B51504B51524B6
:103D40009B111DAC03549E133C9702402F145DD36E
:103D5000045AE5080C280815D3042100004D640915
:103D600052000015220C26C20305D4111E0000319A
:103D70005C0236C20330000065BB141E4B002100FC
:103D8000004D6F16244B00414B0051C2032CCB0A4F
:103D900018000061EE0D044411110717650717099B
:103DA000DF100D2811287703319E00354A1739A9F5
:103DB000003C821048340055170B5F00004D000096
:103DC000154B003D220D50BB0C0CEE1624D00632D4
:103DD00000001500001900004D1402524B0035B5CB
:103DE000153CD5143821024F4B00314B0035C80526
:103DF0001844050990120CFB0E10931514AF061C05
:103E000032083806174166144CAF0A51C203616983
:103E1000006A00002D4B00146F160600004D0000D4
:103E200051300A54D514064B0005DA0E3400004D0B
:103E3000C203260000212808248C162F00003D36DE
:103E40001724CB0A4A440608000015B515260000C1
:103E50001DCB0A34B5153CC203384B000964110C64
:103E6000290804EC0C15C40024290F484B02519C6E
:103E70001454131458C90A5D1313604E014E5108AF
:103E800031000011000053D30404310C14FC03244E
:103E9000B2053DD51454F515674B0051000019FBD0
:103EA00003304B0040B61721C90A4848026A000097
:103EB000254B00154B005600004D000015D411088D
:103EC000E4023EAB1424000065280817C203502208
:103ED0000D10220D1CC8032D0000655802140000AF
:103EE0003F00004D00005173111E00004D000011F5
:103EF0004B00054B005D5E0C4A0F12384B004E4BD9
:103F0000003500004D4B0033000005000051A314A4
:103F100015A9101D90042421142D8E0E3802086559
:103F200000004DB5153E000005CB0A50AA1440C252
:103F30000308000035C20358C2030C46022C701659
:103F4000686D1315CE001121091D040630E31539E3
:103F500072034820004D0D0862580230C90A111D35
:103F60001319F30E1C8B054D0000390000433B0D67
:103F70003027063C5D0948EC1454F40264890D04B2
:103F8000F816143B0026A4174D0000414B002FC229
:103F90000358C20352C20330000035000041000044
:103FA0002DE1040C76034A0000253F08160000218D
:103FB000280854C2032C0000410000614B005D3D05
:103FC00013043217096C0F0D1B14117C0F1DC20452
:103FD00024A70435A30538A90549FF114D2E10511A
:103FE000B10759CC0A651A146A4B00210000651705
:103FF000120C00005D1712388F123797025800001C
:104000001D000019AA144197020B00004D00001575
:1040100000000D00001BD4111C6F160600004D4B54
:104020000015C203304B0051AA1434160005580283
:104030000907170DDF0410DA051D8C1724840F4AB9
:10404000000031000039B6175100003500002F0084
:1040500000155E1733AD0D17220D365802480000CB
:10406000110000678D161B4A020400004D58020A19
:104070001C0D05440216D51438580232340F20B5F1
:1040800015044402164B00156F1604B515240000E4
:104090004100002D281108CB0A11E208394F0048D1
:1040A0004E0456000065C2033028081600003DC2C9
:1040B00003170000390000494402564B00218110CB
:1040C00041C20308000061340F4D200504D1000CEB
:1040D000C612101F07145F0C249A0C30F804352305
:1040E00008394F1149D108511316587C015DC30A94
:1040F00067CB0A5500001F000011170014AC063AE8
:1041000000001521020C58023A4B13044B0024AD59
:10411000163E4B003D9F092400004300004D000067
:10412000056F166444023CC60A110717150B0F26CB
:1041300000004D9F0924A31416000065A80E094233
:10414000100CD30D11900E181A071D490F208B0764
:1041500024621130330A35E80F390C1149C4024D7D
:1041600031015190036858023E4B0031A2170546B9
:1041700013154602399F09246F163E2C0A14B617F0
:104180002F00004D000005000051000065280815B3
:10419000A40E11DB0730BF143CCB0A6AD10D430FCC
:1041A0001518CB0A2600003D0000395108330000E5
:1041B0004D000021000065D514382808304B00352B
:1041C000C8051800004100002D30101D73110C4F60
:1041D0001549270854C8035F000035C2033BD008C7
:1041E0000402160833040C8608504006544617583B
:1041F000FC145C0B0260CB0E643A13687E1310C192
:1042000007141D0C188C021C961520C415240606D4
:10421000281B112CB61530770934E10638FC09400B
:104220003B0244FA024809064E51143C00004D4B33
:1042300000566F1614C90E05400409F10A0CBC0C97
:10424000118C0519FA101D690F302F1135F702393D
:1042500057173C551241C9064CD0055040085A002A
:10426000000D00001100003B4B0019C20338C203CF
:104270004F6F16254B00670000151402342A171ED5
:104280000000158D166A921154AA1450C203220020
:1042900000653D024800000D00002F0000250000D1
:1042A00051AA142D58021D260C0E6F1624D5144A3F
:1042B0004B001500006500005D4B003C3F0868CBDB
:1042C0000A10B91704161409BD040C9A111D610ACD
:1042D00024C3152CBB1235D90839A20B415E1548F1
:1042E000610459000021CB0A32371724A70E48ACCD
:1042F00010162A1216D4111C280806AC122F020917
:104300001900004D00005300004D0000516F1604CD
:104310009F0924AA140C1A03158D0E3A00004D8B28
:104320000556000041000065000015C2031E8B0504
:104330000E000051C2033300004D000005F81014B8
:104340001E1127000021000015D80746CB0A2C0BB0
:104350000904900509070F11711315CE0224C30338
:1043600030AB0339480748A31353980F0DAA145DC7
:10437000C20368C203484B004CC2033817123CAC5E
:10438000035672034D000011D5143A00004D5F0230
:10439000162C0A4800003BBD0705CB0A092A0F105E
:1043A0008714151C111C9D1724E90D31A20B3484B0
:1043B0000C3C000041220D4DA91051B41754CB0AFA
:1043C0001A00004D4B003100005100003948021125
:1043D000460235890A4B00000DC2033AD807444B08
:1043E000002D72034D9A00535802304B0023B6172C
:1043F0002DD41123D5143844023E00004D00001581
:10440000C20330000065B51548C20334CB0A515DC4
:104410000509CB1319380B24631040A20B3A000096
:104420000500001500003DCB0A0E00004D64091C7C
:104430004402170000110000499F092600004D00AA
:1044400000514B004B4B003D4B0024170004E11082
:104450001D110148EE0D16500205210008540D14DF
:10446000760424640D3E00004D4B0015AA14504BF9
:104470000007CB0A6775172D8D161E00004D7C0AAC
:10448000058B0508100814C203307E15284B003D2B
:104490000A0054C20367B51504340F2600004DD836
:1044A000074400002F4B002DCB0A24C50A31CB0A4C
:1044B00016AC035200004D00001521020C220D48DD
:1044C000D6043E921154C203242808165802084B01
:1044D0000065BB122CB5155D88030CC405114A0795
:1044E00015271118A6131D9415245B1330DD103504
:1044F000600E3999143DF80E41460D49E20D4C9A73
:104500000E5144095600004D0000252808150000F2
:1045100005CB0A4A6E0F112C1315220D242D0F30D6
:104520009B113E73111C28083800003100004BBC61
:10453000043CC2032404141600004D4B0015000077
:104540006700004D010826CB0A224B00144B005691
:104550000000255D073CC00F420000114B005100D8
:104560000019340F4DAA1435E8132F000015BC04B0
:104570003E131658E00510D1151C8B052CF508309C
:104580009804347F0E385E0F404E0A487A0A4CFB7E
:10459000155200000917120C2808157E0E3A00006B
:1045A0004D000025000065280815190D12000015A2
:1045B000850C269F0924B5153C0C0A156910536813
:1045C0001740000033621006130F0600004D340F31
:1045D00020FC0C560D083700004DD4111FCB0A509B
:1045E000FB033044163B00004D0000110000550055
:1045F0000049000039C2035800001B00004D990219
:104600001600004D00005100000D610C30571139AB
:104610002613412C0A4AAB10162D0114C203320096
:104620000005D8074400000DF10D480000150000FA
:1046300051AA142F00004DA70E1044023DB51507D6
:10464000000005B40A17280824BE0E54C0143E4BBF
:1046500000210000654B001128083C330E04DF13D5
:104660000C690515E70F242C0830940C35490C39DA
:10467000E4034914124DAA0B51E4005500005D00FB
:10468000006B000031000039C20358AA1411000069
:104690004900001B00004DB5172F000011220D4AE4
:1046A000000021C20350000065220D1D00004100E2
:1046B000002D9105091B02115A0F14340F182911EE
:1046C000241E0231280C35440D395A05485C055426
:1046D000C1005D59156800004DC2030E00004D0079
:1046E0000065280815B5152721024C000069B6178A
:1046F0005D4B00407011442E1405DA000D500C1073
:10470000430F15DD071D511525C10231080D348BEE
:1047100008391A0549640C51FD11591E0063000047
:1047200051F90C4200001521024E4B001D220D04D0
:1047300042040C9F0C389B1548CA074D9D0450B984
:10474000173E00003D4B00543E0F14A01166170B9E
:104750000500004DBC043E00002DD3044E00006552
:10476000F1070482150C220011870F1580151D809A
:104770000D24B90A31250739CC014875034D320B98
:1047800051131258CB0A368C164000004D0000071A
:10479000150705961214B71024E9003DDD086728B7
:1047A00008159F0924E513080B0D52000005280881
:1047B000154B0039061108CB0A4B0000214B002590
:1047C000BB122C000061220D1CCE0F0C8F1111BAF0
:1047D0000614590131430435021238310D3D4604A7
:1047E00041921648400D4DF60C5118125488105F36
:1047F0009E09242808170000153E163100002FC21C
:1048000003240000654402145802320610260000FA
:1048100011000009340F4A000061B4174A00004D2E
:104820000000514B0011220D1C8D060C8D162443E7
:10483000173AC2034C5E0238B515480F12534402B2
:10484000150000050000270000054B003D110D1567
:1048500028082600004D00001D580230220C26B604
:1048600004245A07040C0D15CB0A1D4B07304101D7
:10487000386C0048A10951D81263000051CB0A2AB4
:10488000EE041600004D0000254B1315DB0E36A874
:10489000073C00004D4B0007610C30C203120000C2
:1048A0004D000021340E15DF02247C0B53BC04069E
:1048B00000004D0000214B00532A171200001D007C
:1048C000005D5F0251A814092B0A3E000025C203B7
:1048D0002A000065C203242D0116000005A009145A
:1048E0007E063C8D1656000065000009C2032C9B15
:1048F000111DCB0A354B005F00004D4B0027000017
:104900004DC203082C0A0C73111D2D0C3069175170
:10491000C8051500003D00003B6F16148D163ED5EE
:104920001438440216D514241C113E000005000062
:104930002D07054A2D01144B003F0000050000150E
:1049400000001D0F1228C8032C2A173A000051003E
:1049500000194B00043F0808B5151EAC064A340F79
:104960004C990216000011A8013100004100002FEF
:1049700000004DC2035000006528081500002DCD31
:104980000F0C250D10BD141CDE062564093B300CF0
:104990000C00003792115400004D280816C203493C
:1049A0004B003BF60B0200006D2E11241FBECFEF13
:1049B000DAE0DEBFCDBF11E0A0E0B1E0EEE2FDE65F
:1049C00002C005900D92A63EB107D9F727E0A6EEEA
:1049D000B1E001C01D92A93AB207E1F714E2C5EDBA
:1049E000D4E204C02197FE010E947F36C43DD10766
:1049F000C9F70E94ED2E0C9495360C9400009F92FE
:104A0000AF92BF92CF92DF92EF92FF920F931F93DC
:104A1000CF93DF93F9017C01E00EF11C1E141F04FB
:104A20000CF069C0803891050CF065C09B01295FCE
:104A30003F4F2734310508F05EC0382F319597FF7E
:104A400030E0DB0123E0B595A7952A95E1F7B6950F
:104A5000BA2FAA27B795A795A30FB11D37FDBA9511
:104A6000A80FB91FC62FC77020E8E216F10414F092
:104A700000E8081B8C2F0C2E02C0EE0FFF1F0A94BB
:104A8000E2F7DE2FDE2ED094CF2E9F2E9094AB5FD8
:104A9000BD4F10E0E32F032E000CFF0BE017F107D2
:104AA00054F5E40FF51FE491F0E05F01082E02C019
:104AB000AA0CBB1C0A94E2F76034710530F4FC9038
:104AC000FD20ED2EEA20FE28FC92CC2389F06833ED
:104AD000710574F47D01E0E8EE0EF11CF701208110
:104AE000E22FE921FB2DFC212E2F2F2BF701208314
:104AF0003F5F1196CFCFDF91CF911F910F91FF9024
:104B0000EF90DF90CF90BF90AF909F90089580E09E
:104B1000E5E0F2E081118FEF00248193819381938E
:104B200081930394D1F708959091A007982329F4D5
:104B300090919F07982381E009F480E00895FC019B
:104B400080910402882311F13FB7F89482E08093AA
:104B5000E9002091F200822F90E01816190614F453
:104B600081E090E0882339F0289844E640930302DE
:104B70004091F1004083222339F02091F20021116D
:104B800003C02BE62093E8003FBF08958FEF9FEF0F
:104B900008952FB7F89483E08093E9009091E8009E
:104BA000892F807295FF04C09091F20080E4891BE8
:104BB0002FBF08958091FB0181110DC082E0809389
:104BC000F70184E08093F8011092FA011092F90144
:104BD00081E08093FB0187EF91E00895CF93DF930D
:104BE0001F92CDB7DEB76983DC01ED91FC910280A5
:104BF000F381E02D41E050E0BE016F5F7F4F0995EA
:104C00000F90DF91CF91089583E08093E900809128
:104C1000F200882319F08AE38093E80008950E9447
:104C2000C92590E00895CF93DF931F92CDB7DEB7EB
:104C3000FC018485958597FD08C02FEF3FEF3587F0
:104C400024870F90DF91CF910895CE0101960E94A5
:104C50009F25019719F4898190E0F3CF8FEF9FEFA3
:104C6000F0CF0F931F93CF93DF931F92CDB7DEB793
:104C70008C01FC018485958597FF0BC0CE010196C0
:104C80000E949F25019771F4898190E0F801958732
:104C90008487F801848595850F90DF91CF911F91CE
:104CA0000F9108958FEF9FEFF1CFFC0184859585DB
:104CB00097FD0BC09FB7F89482E08093E900809144
:104CC000F2009FBF90E0019608959FB7F89482E0AC
:104CD0008093E9008091F2009FBF90E00895409199
:104CE000F1015091F2012091EF013091F001421752
:104CF0005307B4F49091E8009570E1F39091E800C7
:104D000092FD19C08093F1008091F1019091F20120
:104D100001968F739927892B19F48EEF8093E80001
:104D20008091F1019091F20101969093F2018093AC
:104D3000F10181E0089580E00895EF92FF920F93D2
:104D40001F93CF93DF93F82E192FE62E042F81E0C7
:104D5000860F880F0E946F2683E00E946F26CF2D5A
:104D6000D12FEC0EFD2EF11CCE15DF05B9F007FF9B
:104D700013C0FE0184910E946F26182F80E00E94CC
:104D80006F26812321968111EFCFDF91CF911F9163
:104D90000F91FF90EF9008958881EDCF81E0F5CFDE
:104DA000DF92EF92FF920F931F93CF93DF93D82E52
:104DB0008A01EB017B01E40EF51ECE15DF0559F0EB
:104DC000D7FE12C0FE0184910E946F2621968111A8
:104DD000F4CF0FEF1FEFC801DF91CF911F910F911B
:104DE000FF90EF90DF9008958881EECF0F931F938F
:104DF000CF93DF931F92CDB7DEB782E0898342E481
:104E000050E060E072E080E80E94D0260E94DA253F
:104E1000DC0112960D911C910115110589F0D80144
:104E2000ED91FC910280F381E02DBE016F5F7F4F19
:104E3000C801099597FD04C0F80100851185ECCFE4
:104E400089810F90DF91CF911F910F91089561504B
:104E500030F02091F100FC0120830196F8CF2898D2
:104E600084E68093030208953FB7F8948091E701A8
:104E70009091E801A091E901B091EA0126B5A89BC3
:104E800005C02F3F19F00196A11DB11D3FBFBA2FDC
:104E9000A92F982F8827BC01CD01620F711D811D9C
:104EA000911D42E0660F771F881F991F4A95D1F721
:104EB00008958F929F92AF92BF92CF92DF92EF921E
:104EC000FF926B017C010E9434274B015C01C114ED
:104ED000D104E104F104B9F00E943427681979097A
:104EE0008A099B09683E73408105910580F321E0A2
:104EF000C21AD108E108F10888EE880E83E0981EF6
:104F0000A11CB11CE4CFFF90EF90DF90CF90BF9039
:104F1000AF909F908F90089565E070E080E090E002
:104F20000C9459278F929F92AF92BF92CF92DF92AB
:104F3000EF92FF920F931F93CF93DF936C017B014E
:104F40008A0180910B01882309F45CC080910402DE
:104F5000882309F457C08091F60180FF05C0809135
:104F6000E00082608093E000E801B12C8AEFA82E77
:104F700093E0892E2AE3922E209711F4BB20D9F1D9
:104F80000E94C92581110AC0AA94AA20D9F161E022
:104F900070E080E090E00E945927EECF8C171D064C
:104FA00011F00CF08C2F9FB7F8948092E9002091BB
:104FB000E80025FD02C09FBFDFCF282F30E0C21BD5
:104FC000D30BF701815020F041914093F100FACFCB
:104FD000E20EF31EBB2021F09092E800B12CEBCF43
:104FE0008091E80085FDE7CF9092E800BB24B39460
:104FF000209709F3F3CF5D9884E68093F5011016AE
:1050000011063CF081E090E0F6019383828310E08A
:1050100000E0C801DF91CF911F910F91FF90EF90B9
:10502000DF90CF90BF90AF909F908F900895803881
:105030009105B8F460347105A0F420E191E061FDC0
:1050400094E060FD990F62FD9295687F269FD001E4
:105050001124A80FAB5FBD4F8C91442319F0892B0D
:105060008C93089590958923FBCF0895EF92FF923A
:105070000F931F93CF93DF93FC01CB0177FF06C003
:105080009195819591092DE22083319620E00AE0E7
:1050900010E0422F50E0EF01C40FD51F0097E9F454
:1050A0008A011595079580E0282F30E020173107F9
:1050B000E4F4BF01620F731FDB019C91DA01A21BB4
:1050C000B30B11977D01EE0EFF1ED7012C91DB0172
:1050D0002C93D7019C938F5FE7CFB8010E946B366A
:1050E000805D88832F5FCB01D4CF1882CF01DF9101
:1050F000CF911F910F91FF90EF900895CF92DF9283
:10510000EF92FF920F931F93CF93DF93EC017B01FC
:1051100015E06A0185E0C80ED11CF70141917F01BD
:105120004423D1F04032B1F040544102A001112497
:1051300044595E4F6D857E8505E02FEF30E08B850D
:105140009C850E94FF248B859C858C0D9D1D9C87D2
:105150008B87E3CF40E0E9CFDF91CF911F910F9193
:10516000FF90EF90DF90CF900895EF92FF920F9312
:105170001F93CF93DF93EC017B0113E0F701419183
:105180007F014423A9F040524102A001112444555B
:105190005F4F6D857E8503E02FE330E08B859C8536
:1051A0000E94FF248B859C8504969C878B87E6CF85
:1051B000DF91CF911F910F91FF90EF9008952F9263
:1051C0003F924F925F926F927F928F929F92AF9297
:1051D000BF92CF92DF92EF92FF920F931F93CF93E4
:1051E000DF9300D000D0CDB7DEB77C836B83D22EA7
:1051F000C32EB42EA52E8B589D4F4C01E22EF32EBC
:10520000042F152FCB018857984F9A8389831B0150
:105210009FEF291A390AF4014590559065907490D2
:10522000862D8C77E9F0E62D062C000CFF0BF5950A
:10523000E795F595E795AFEFAE0F0A2E000CBB0B87
:10524000AE5CBE4FAC91B0E02D2D3C2D4B2D5A2DB8
:105250000E9413367B018C01E05CA981BA81EC933A
:1052600060FE0AC08091900790919107813091056E
:10527000A9F0029709F45AC0C201009709F07EC054
:1052800023E0820E911C61FEC6CF8B819C818857E2
:10529000984FDC011C9281E090E031C0EB81FC81F1
:1052A000359751F7809196079091970701969093C3
:1052B00097078093960740919207509193076091CA
:1052C0009407709195074F3FFFEF5F0761057105E8
:1052D00029F49093990780939807CECF092E000C5C
:1052E000AA0BBB0B481759076A077B0729F668E822
:1052F00077E086E896E00E948E3690E080E00F909E
:105300000F900F900F90DF91CF911F910F91FF9011
:10531000EF90DF90CF90BF90AF909F908F907F9055
:105320006F905F904F903F902F90089560919207FB
:105330007091930780919407909195079701A80128
:105340000E942636672B682B692B09F095CF809138
:105350008607909187079C012F5F3F4F3093870707
:105360002093860733E0880F991F3A95E1F768E8A4
:1053700077E08A57994F0E948E367ECFF201EE0F6A
:10538000FF1F9701A801B1018E0F9F1F0E94DF2808
:10539000009709F075CFB3CF109297071092960738
:1053A000E3EAF9E485919491FC01EE0FFF1F21E0FF
:1053B00030E040E050E070E060E08E0F9F1F0C9402
:1053C000DF288F929F92AF92BF92CF92DF92EF929F
:1053D000FF92CF93DF93CCE0D0E086E0C82ED12CB3
:1053E000E12CF12C0E948635A70196010E94F4352C
:1053F0004B010E948635A70196010E94F435D40125
:10540000A159B94F2C91FB01E159F94F80818C933F
:105410002083219739F7DF91CF91FF90EF90DF90B4
:10542000CF90BF90AF909F908F900895CF92DF92D2
:10543000EF92FF920F931F93CF93DF9380916400BD
:105440008E7F8093640080917A00806480937A00DC
:1054500080917A0086FDFCCFC0917800D0917900D0
:105460000E943427AB01BC01CE01B0E0A0E0DC011A
:10547000992788278C019D01040F151F261F371FB0
:10548000C901B80120916400216020936400611576
:1054900071058105910511F00E94D535C0909807DE
:1054A000D090990711E0C11AD1080D2C000CEE081C
:1054B000FF0881E090E0A0E0B0E022E0C216D10455
:1054C000E104F1047CF00E948635A7019601215089
:1054D0003109410951090E94F435DC01CB010196E3
:1054E000A11DB11D21E030E030939107209390077A
:1054F0008093920790939307A0939407B093950796
:10550000109288071092890710928A0710928B07D1
:1055100010928C0710928D0710928E0710928F07B1
:1055200010928707109286070E94CC29C6E8D6E021
:10553000C12CD12C7601C394E991EE2371F00E2E8B
:10554000000CFF0BEF50FF4FA081B0E0A7019601C8
:105550000E9413366B017C01EFCF66E876E08FE6A0
:1055600096E00E948E36109281061092800610926C
:105570007F061092770610928506109284060E948C
:10558000E12982E090E09093910780939007C09288
:105590009207D0929307E0929407F09295071092A9
:1055A00088071092890710928A0710928B07109231
:1055B0008C0710928D0710928E0710928F07109211
:1055C0008707109286070E94CC29E09086070E2C50
:1055D000000CFF0831E0E31AF10881E08E0D181687
:1055E000F4F5D12CCD2D0D2C000CDD0BCE15DF05E7
:1055F00094F583E0CC0FDD1F8A95E1F78E010A5701
:10560000194FC257D94FF80101900020E9F731979F
:105610008E2F801BFE0101900020E9F73197EC1BD3
:10562000E8174CF08E1315C0BE01C8010E948536E4
:105630001816190674F4F801C801089621913991D9
:10564000DF0111973C93DE0111972C938E179F0772
:10565000A9F7D394C7CF01E0E01AF108BECF1092AA
:105660006406109263061092660610926506109208
:105670006706109268068FE097E290936A0680931F
:105680006906DF91CF911F910F91FF90EF90DF900E
:10569000CF900895FF920F931F93CF93DF93EC0168
:1056A0008B01FB01F0800E94DE35F81621F06F2D92
:1056B000CE010E94E635F801F1802196CE010E94CC
:1056C000DE35F81621F06F2DCE010E94E635C801B7
:1056D000DF91CF911F910F91FF9008950F931F932A
:1056E000CF93DF938C01EB010E94DE358883C801E4
:1056F00001960E94DE358983CE01DF91CF911F9103
:105700000F9108951F920F920FB60F9211248F934D
:105710009F938091E1009091E100937F9093E1004D
:1057200083FF0FC01092E90091E09093EB0010927C
:10573000EC0092E39093ED001092040298E09093B5
:10574000F00082FF22C093E09093E9009091F20074
:10575000992319F09AE39093E8009091F501992329
:1057600041F09091F50191509093F501911101C094
:105770005D9A90910302992341F090910302915018
:1057800090930302911101C0289A84FF18C0809160
:10579000E2008E7E81608093E2008091E1008F7E46
:1057A0008093E1008091F6018E7E80618093F60106
:1057B0009F918F910F900FBE0F901F90189580FFB3
:1057C000F7CF8091E2008E7E80618093E20080912D
:1057D000E1008E7E8093E1008091F6018E7E8160F3
:1057E000E5CF1F920F920FB60F921124CF92DF9246
:1057F000EF92FF920F931F932F933F934F935F93DB
:105800006F937F938F939F93AF93BF93EF93FF9388
:10581000CF93DF93CDB7DEB76C97DEBFCDBF1092CD
:10582000E9008091E80083FF25C068E0CE0145963D
:105830000E94272782EF8093E8008D8987FF39C077
:105840009091E80090FFFCCF982F907609F034C13A
:105850009E894F89588D2F89F88C911131C08038DD
:1058600061F58091F4018093F1001092F1008EEFC8
:105870008093E8006C960FB6F894DEBF0FBECDBFE4
:10588000DF91CF91FF91EF91BF91AF919F918F9158
:105890007F916F915F914F913F912F911F910F9148
:1058A000FF90EF90DF90CF900F900FBE0F901F9062
:1058B00018959EEF9093E800C7CF1092F100D5CFD6
:1058C000913059F48111D3CF4130510581F6809147
:1058D000F4018D7F8093F401CACF933049F4811194
:1058E000C6CF4130510519F68091F4018260F2CFA4
:1058F000953041F48091E80080FFFCCF2068209330
:10590000E300B5CF963009F0A9C00B8D1C8D22E0C5
:105910001092E9001092F2011092F101F2122EC0E1
:105920001092F0011092EF010E94F6261F8299E07A
:105930009983FA8291E09E8390EA98879AEF9987FB
:105940002091F1013091F201275F3F4F3C832B837F
:105950008D831092E9001092F2011092F1011093E0
:10596000F0010093EF0149E050E0BE016F5F7F4F0F
:1059700080E00E94D0260E94F62679CF1093F00195
:105980000093EF010E94DA25DC0112960D911C9123
:105990000115110509F451C1D801ED91FC91048064
:1059A000F581E02DBE016B5E7F4FC8010995009720
:1059B00009F03EC1F80100851185EACFF3E0FF123E
:1059C0000EC08F89882309F440C0823061F440E81A
:1059D00060E184E692E00E949D26811148CF81E239
:1059E0008093EB0047CF813029F440E86BE088E5F5
:1059F00092E0F1CF833099F70E94DA25DC0112960C
:105A0000ED90FC908E010F5F1F4F6801E114F104CF
:105A100079F0D701ED91FC910680F781E02DB80176
:105A2000C7010995080F111DF701E084F184EECF3D
:105A3000D8011C92F60101900020E9F73197BF01CF
:105A40006C197D0940E0C601C6CF62E472E0FB013B
:105A5000449150E080E80E94D02609CF973009F4A5
:105A6000BECF983021F481E08093F10000CF9930CF
:105A700009F0FDCE837009F0B2CFECE2F1E081E0F5
:105A800031E096E32191222371F08093E900309375
:105A9000EB00DF0111972C912093EC009093ED0027
:105AA0008F5F873079F78EE78093EA001092EA00E3
:105AB0008F8980930402DBCE8B8D9C8D1092E90040
:105AC0001092F2011092F1019093F0018093EF0196
:105AD000898D811192C08E899D89913A49F48132D4
