:100000000C9436260C945E260C945E260C945E2688
:100010000C945E260C945E260C945E260C945E2650
:100020000C945E260C945E260C948F2C0C94FE2C63
:100030000C945E260C945E260C945E260C945E2630
:100040000C945E260C945E260C945E260C945E2620
:100050000C945E260C945E260C945E260C94302F35
:100060000C945E260C945E260C945E260C945E2600
:100070000C945E260C945E260C945E260C945E26F0
:100080000C945E260C945E260C945E260C945E26E0
:100090000C945E260C945E260C945E260C945E26D0
:1000A0000C945E260C945E260C945E2600000000E4
:1000B00017000300031F0A1F161F0A1904130A154D
:1000C000120003000E1B11111B0E0A040A040E0479
:1000D0000018000404040010001804031F111F126C
:1000E0001F1019151215150A03041F17150D1E15DB
:1000F0001D0119071F151F07150F000A00001A0020
:10010000040A110A0A0A110A040115021F1F1F1E00
:10011000051E1F151A0E11111F110E1F15111F0597
:10012000010E111D1F041F111F1109111F1F041B98
:100130001F10101F031F1F011E0E110E1F05020EA0
:1001400019161F051A16150D011F010F101F07188C
:10015000071F181F1B041B031C03191513000000A5
:1001600000007E0909097E7F494949363E414141E7
:10017000227F4141221C7F494949417F09090901E8
:100180003E4141493A7F0808087F00417F410030E5
:100190004041413F7F08041A617F404040407F0258
:1001A0000C027F7F0204087F3E4141413E7F0909E6
:1001B00009063E4151215E7F0919294626494949D0
:1001C0003201017F01013F4040403F0F3040300F7E
:1001D0003F4038403F63140814630304780403610C
:1001E00051494543000002CB01150B005C00006142
:1001F00055091D5E0D307E0A481E0852320C3CCB5C
:100200000106C30C40C30D26000005CF045069064B
:100210003F23030CE602152E0B20BD0652C30D240E
:100220000A011714083CCB0156C40714CB013F0048
:100230000065CB0121DF0C0CDF0C38EC0D36C70B51
:100240003CCB010700000500003D00004D280C26B6
:1002500000003D6A0D32340504C609147D082448A7
:100260000A3CB500560000110000513F0C30E60278
:1002700026000039090250EE021E00003D3C0C57DA
:10028000E602141408560000650A0114090232003F
:1002900000154A0C0DA3064C91013ECB01145506E6
:1002A0004867013073081C0B0008C9060C3209119D
:1002B000320D184B0D35F3033900005B000015F8C3
:1002C0000722CB0155CB010533043CE6023A6C0E04
:1002D0003E230E049F0114AF08248704309C043C85
:1002E000680454720B5E00001DBE003C26090868BD
:1002F0000B52000051B20068330456E60214BE00EF
:100300000E6C0E48690626090230550658FA0D5043
:1003100055065CCB0111240554FC0D1C2801250059
:100320000029A40734AD0738DF0D402F0A48220703
:100330006855062C00002100004F00001100003914
:10034000550658260908A3064E6A0D48A5001E4307
:10035000053CCF044200000500002D8B074A000039
:1003600031CB0113300A33820C04FB0A08160D0C42
:100370006D0A11B10A15240C18DA0A314F0638D566
:100380000A3C7A0040620D48270C4C22076BC30DD3
:1003900024BE0A1E0A013F9C0214A3002600006529
:1003A000C30D27000065B0071E70001709022C69F5
:1003B0000604260908B0071C33023A0000056C0E3B
:1003C0003A000015320C3CE6022600006509023AAC
:1003D000ED0A2C0000230000257A0412000015000D
:1003E000006509022435080A000005CB012600003B
:1003F0003900002509021634053D000027000015CC
:10040000C80B3ECB011CDF0C0CDF0C3ACB01516456
:100410000B3033044C34023A860606880E30000056
:100420002F000025000037000005BD064200003DFA
:1004300000000500006500004F000021CF041E21D0
:100440000918340506AA05364205047C06142F0057
:1004500024810D3C360156E6021400002F69063C4B
:10046000A5000C250908F30011E5091555041C1613
:100470000230BC0435A10639320E40AC01497E0D74
:10048000519E065486025875035C0B006857064E51
:10049000000015C30D2600002100002D000041635F
:1004A0000408F80710F8071DA00934020239C80330
:1004B00048D1005C920B6800004D0000330000251D
:1004C00009022A00005100003D820817C30C2ECB00
:1004D000013D00004D6A080CBB0832BE0D2F090219
:1004E00004FB0114990224CC053C6C0E5468076689
:1004F00000000500004D690664AB0A24210916328C
:100500000C1C00004B2D0B10200015F807249F0D2C
:1005100032340548E60215E60224550611850256D6
:10052000000005000019BE000C7108103404140A04
:100530000124140B30140834880139B20041C70C6F
:10054000480C00523700120000497200042F0814B2
:10055000130A243F0E3CD9025692032D00000500D9
:10056000004FCF040855064055063700003DC30331
:10057000320A011409020C6A0451B3054A0000054D
:10058000D802142F0126C30D24000009BE0914C48B
:1005900003180902346B054AE602140000650000E6
:1005A0004D6A0D107C0D32000065340542000015C7
:1005B00000004D300A10DB015048000CCF061ECB66
:1005C000011569063CCB01053304256A082A8B090D
:1005D00054F0013E55061B00004D09022408003668
:1005E0002C0B2600004D3405580000490000330054
:1005F000004D34053A300E04920B68CB0159B90115
:1006000010E50224230731FD0234700838710848D0
:100610001F0C4CAD0252A30024300A3200005DB31F
:100620000A3A1408160A013E000005CA083CF807F9
:100630004EC3032C55063A300A3B940430CB011FBD
:100640006B0342000041710E1CBF0818660B10FDC1
:10065000000C6701304F05346F0039490648720EAF
:100660004EA60105B90108E60214CC0128CB013DD4
:1006700009026500004F5506090A011700005134B0
:10068000033A690633320C2400002D0000412C0B84
:1006900038D10D48210912CB01126F06041F0D1429
:1006A000510420160B24D1013C3A0948E30054D5EB
:1006B0000C66210938A500508B073CCB010F340094
:1006C0002E000049C80B3C000041A5000C880D30ED
:1006D000000021CB0107870C0C21092CA5004F87B6
:1006E0000D27000025380C3200004DB20038DB0128
:1006F0004AC30D24C10A5200003D1607526B013255
:10070000E6093F0902145506303C0C06550609CB94
:100710000117370013000005BE0A1E43053CFA0D01
:1007200036FB0A08CB014C58041CBC030C6706249A
:1007300033052CB90130120050FC0956FB0D30ED89
:1007400001164D041400004FFA0416C0083E0A01B9
:1007500014E602386C0E4A00005100004D000041C2
:100760000B005CCB011D450608720D391D053C0AC6
:10077000044AE60214320C3E000025590608C30361
:1007800036DF0C0C66043A00004D4506080B0035B8
:100790000A01040B0014300C1CFE0D2C4C0C308C88
:1007A0000739F4043D7D0C407B0048000011000037
:1007B00067AA05580A0156760E3000004D09020E50
:1007C00000003D000065C30D2455062C380C38BDD3
:1007D000060ECB014121093A3F09048B0114B009EF
:1007E000246B043C0C0D540C0D6A300A0CCA0C1E10
:1007F000320C0400006500001555061EB6043000DA
:100800000017CB011D970B0C760311EE0A348706F7
:10081000386D0E4897024CEC0868CB010BB9010407
:10082000F20C14B9015615003014083E150D180BC2
:10083000002C920B68550610670130F00308BD0CC0
:100840000C5105347E00480B0652CB015E00003986
:1008500000001B00004D000061CB0165E90C058420
:1008600008086A0810550618C8001C540924340AE0
:1008700038F40B3C590440140849120856A5000CE2
:1008800034053A00001523030EAD0A16C30D2432B9
:100890000C3CF1031448025200004D34050A0000DC
:1008A0004DCB01250902106A0834BB0A08B1000CBF
:1008B000730C18C30C30F10C40640D4A0A01143259
:1008C0000C3EA70404C302145C0918320420540827
:1008D000246B0D30070E3CD00C48B80754150C663D
:1008E00000004D300A10BD062CBD0630B9015A007B
:1008F0000041C30336340530090256C00B06000020
:10090000213F0C52000021190005270514B80024CE
:100910006B0E3DA90148F60A56C3031000002500DE
:10092000001700004DCB0116000011000039C30D67
:1009300024000021300A4200004D890424330414AD
:10094000BC0D53000055300A48300A5AC60D04B495
:100950000814CF0A24BF013CFB04560A0114A50069
:100960000C09024837005200003DFB0124B6044A3E
:1009700009026800000B000015710806150D18DB50
:10098000012C750E508905042E090C850410640491
:100990001C960B30450E34670C38EC073CD00448ED
:1009A00018044C3D096A9C0D4AEB084C0902169F3D
:1009B0000351C10804EE021D640B32CF0410F70A84
:1009C00014A5052600006500001DC30D2409020CB6
:1009D000700A3ABD061CF8074C00000500005330B1
:1009E0000A40CB01330902585506121B055200007C
:1009F000350B0010E60230550658920B68AA054DDB
:100A0000850209490C0DEF0114F20B1DB9012CA54B
:100A100000380B0040B70748730E50EF0362000028
:100A200051300A303C0C3E00002DF8076A000021CE
:100A3000320C2473081C2D0D04930B0D650B1077DD
:100A40000C145A072C1A0730610738B10140D3083B
:100A50004818004D54065098025EE60214CB015629
:100A6000000025CB0105CB013B4802080A01170015
:100A7000001509023734051500006500004F00001D
:100A80004D550621870C4AE602149D002400003DC6
:100A900000004FF80748000013300A100902053023
:100AA0000A52000049000011000033C3031C330444
:100AB00022000005CB011500004F00003D09020A8D
:100AC000000065BE0616CB0115210938300A120058
:100AD0000021000015320C060A0114BD0636000084
:100AE00035330414830D320B005C0C060C670210C6
:100AF000080B14CC03190B001CCB0B240B002C5C33
:100B00000631DC0134B806386F024062064820091D
:100B10004C3502506906540B0058AA030A00002500
:100B2000300A1069060600001DC0033C620C48151F
:100B30000D5600002DC30432000011300A5C34054C
:100B400040DE0C14A3064ECB0105EB084C34052205
:100B5000CB0122300A4800005100004F0000510034
:100B60000041A5001CDC024B680B38320C4809021E
:100B70004CDB01523304146A043867044F320C040E
:100B8000690616390804840314290820F70B245336
:100B90000B3CD80D4835055433015C250866DF0C45
:100BA0000C060436E602102801096A06142F091CF7
:100BB000900B2D040E34710138F00241CB014588B1
:100BC0000B489F0B4F000015C303080902386C083F
:100BD00036E6021400004D300A30CB0167C10A1A14
:100BE00055061C690607DF0C0C3F063A300A5CAB61
:100BF0000204630909D1030C0404140D0D1938080B
:100C00001C6F0424240C2C840531210E34330D3840
:100C1000CF03416905483A074C3702502109590B67
:100C20000661CB0167300E16BD061CF0013C680B57
:100C30002200005100004900001D420140050C3B0C
:100C4000BE0014300A2E00004D300A1CCF041200E2
:100C50000015D70C0ACB010523081567081CC1062F
:100C6000252F092C210938320C3C21094C7E0652D3
:100C7000150D18840C0D660E110A0C1440061D404B
:100C80000731C80A38210940A30048DE0251300A62
:100C90005D0B0660320C2400004F00006509023233
:100CA000150D1845060875030C720510360A140751
:100CB000021CC10040B2004C9F0050090260330A80
:100CC0006A00002100004DCB0153150604980B3E2D
:100CD000000055E60204300A12000065BD0634C467
:100CE0000717DD0B06CB012100004D09022CBE00C9
:100CF0003C000061280135210908E90C104F040D62
:100D0000C00B282B0B316A0D38D402487700576985
:100D1000063C00000500001739092EA10D04180A31
:100D20001432012600003100005FF8073C0902265A
:100D3000CB011AF80714320C0400004F0A011455B5
:100D4000062E00002109021600001900004DFA0DC0
:100D50005200004DEC0B56300A2C2302044D043F88
:100D600000000500000D5C0244DB014A000015A5EF
:100D7000000CCB011E36004043053E330438090207
:100D80002C880E08DF0810BF0818FE0230F90A355B
:100D9000650E40980648B40A4C510A5209025800A0
:100DA000004DCB0111F00B1DBC0B39AA05485308AF
:100DB00068820C16EE0C0A00004934053233041424
:100DC000B2001C0000510000676A0114870D24FF67
:100DD000053E09025009025A160750CF042F300A67
:100DE00013000015000065A5000C55065855065F58
:100DF000CB0151CA0028CB014200006509020CBD9D
:100E00000632550634300A1209022C2F091CB4018F
:100E100010AD0C30B107343E0238290B401E0A4891
:100E2000EF02526A0D26000015EE021E0000352169
:100E30000908E20B4E00004900004D000031550644
:100E400040BD0610000039000051C30D26CB0155EE
:100E500000004D00000D00005D0A0124B2001C00DE
:100E60000059430630250A34000A38240C40D804BF
:100E70004B090250C30D24A305435B063D000053FC
:100E8000000051300A30B9015A0000216E040428D4
:100E90000C240902100B0068A90A0DF50735340C63
:100EA00038AE0049A4064D350951240C59BD0166E0
:100EB00034053E00006500004D34052CC4001D00C3
:100EC000003D3405166E031CDB012C090212AB0831
:100ED00006000005F8072EE30905DA06146F03245F
:100EE0006C013E000005C30D24C407158B051EBE12
:100EF000002600003D550632320C245E041C3304EB
:100F00003E000041C3033868024A000055300A0A17
:100F1000C10A1DC00B3200002DCB015200002D096B
:100F20000230A5000E280C24A40438310C3CB20079
:100F30004A000031320C1ECB012100004DF8071091
:100F40004C0914CF0424FA0456C3032C340508CBEF
:100F50000119E6021409022600003100004D69065D
:100F6000069800041C03142F073C30035700004D63
:100F7000C00B1200004D8A01643C0C16BE000C0927
:100F8000025A00004D300A2C55063A0000050000B8
:100F90003D09022569082ECB0124EB0204820C14C2
:100FA00025071E0A0114000031F00C3400000D006A
:100FB000002F090214C80B3E000035E60239A500D7
:100FC0001CBE000CCB0109A500114B055409025DA4
:100FD000300A2F00005100001B00002100003500E6
:100FE000000D00002D0B001C6906305E0C38FD0959
:100FF00048D60A4D240C5024055469065CDC03666F
:101000004D0942000065C80B3F330414D808246B17
:101010000550210957ED0C1A000005320C24210956
:1010200009DB01360000156A082E810816C80B3C42
:101030000902243304160000151E00320000058248
:10104000081500004DC30D26000051690616BE0AA2
:101050001C090232E602144F092450043E0A01140E
:10106000BD061FC30D243405146E0B3300004DCB99
:101070000156000021F100044406087F0A0C7208A2
:10108000104D051872081C6D0931CB01354E08381A
:10109000C30A4856064DAA085209025049000C548A
:1010A0000A1CF00A25BD063BA50050CD0B04A30980
:1010B00014D1021C940324390B3C180254740866A2
:1010C000A5000C300A50C20310BD0618690E2ECBC5
:1010D000015933040E00004D090208090240AC0218
:1010E00010C8001C1C07504506346907390D084A12
:1010F0007E0C0CD90C10960214150D18D2051C8FFD
:101100000B047F01087A0E206A0724AF002898029A
:101110002C7D07305C07347B0338E40A400D0C4813
:10112000410C4CBA0B507800545E0958440D5CBE1B
:101130000160900366000005C407160A0114C30D80
:1011400024550618A5004C7A0410B905320902345A
:101150006A043A000015900106CB01056B0548CBE7
:10116000015F00005121093A000005000035090225
:101170001209025000003D320C246A083A500C1447
:10118000000067CB0151000041CB0125710E1C6CA2
:101190000E39BC0608F8000CD70C304E01370000A1
:1011A000096B0548060434B00710000015150D1A28
:1011B00000004D690605CB0165C30333000005003F
:1011C000002500001700004DCB014ACF041BC209C7
:1011D00026300A34BD06406A0D0A000005000015DD
:1011E00000003D000031CA0C1200002133044CA85D
:1011F000000875030D660B10630D1415081CF10132
:10120000310B0035650A38F1073CCE0849990C507E
:101210001707540C095DF10C64700B686B0626000F
:10122000001500003534054A000039550611320C0E
:101230003DA5005300003DBE0A40000025E6021710
:10124000800030DF0A088D040C1B0C1404021C778C
:10125000043C230C406C0649DB0850280354C009A9
:101260005E000039CB0151AA054E0000053C0C562A
:1012700000001900004D340530000051E6021785CA
:101280000236320C24090230C40716CB011449017E
:1012900008A4010C040110C90018B5011CE10220CA
:1012A000BD002497002C0B0130AE0A34F90038D46D
:1012B000063CC80440750848AF0B4C150750F20AAD
:1012C0005467075865075C0A0662CB013100003D90
:1012D000C30D2634051A09025800001900004B09F5
:1012E0000205CB011600004DCB013A0000150000AD
:1012F0004D300A106F0A38F80752F10C36DC023212
:1013000009020555060C660925380C380000630AE9
:101310000114340532470B04820B0C560A14600288
:1013200020AE02244E0A2CE80A30620B34690938D8
:10133000AB033C130240BE0C443A0748ED0B50404F
:101340000354BD035C880966000015DF0C0C09021C
:1013500048B0071CCB0138AB055FFA030555061CE6
:1013600096063021093400004D2E0D3CF80748093F
:1013700002540A0114320C2600004900004F0000FC
:10138000616A0830750D04170209F7080D0F011086
:101390005402158309196A021DB40925650D28C672
:1013A00003352F05385F003C9007416F0D44F90D60
:1013B00048CA034DF80551930858C10C5CAA056B47
:1013C0000000390000313405482801370000159924
:1013D0000B3EF6070CCB011DB90138090248030C7E
:1013E0004D4A083E000031A5004EF807203C0C3461
:1013F000F90704A20B14AB062494083CF30C549A8E
:101400000166DC0514550652000005AA0520CF042C
:101410002EC30D24300A52000049DF0C0E09023899
:10142000C1081409022E090250690614BE000CAC52
:101430000210CB0119B90158F100056C031CD50449
:1014400030A70334430E3957093C790040940A4EC3
:101450003704040507144407247E0E3074053C3D10
:101460000054E20B5EAC053E340530820C140A08D1
:1014700008FD030CBA01100C081854031CA5002C1D
:101480004F0134160738980240750E4C5E02520028
:10149000004D7A0450C30310300A32090214E602E8
:1014A0003E34052F00001D210957000031300A5A33
:1014B000690614CF040ACB0154380814CB0066CF58
:1014C0000450700D330000250902500000314B0517
:1014D0003F00003D00002D300A3821090C2C092660
:1014E000640C500A01165C0244AA054E21095021E1
:1014F0000926B80516F8073B00003D090258000010
:101500004D150D24CB012D200832FA0D3400003189
:10151000000009CB012D34053B6B064E950A4C00AB
:101520000033000049CB0153000065690604150330
:10153000160000150000414D05180B002C0B00583B
:101540000B0060E8090CA600108E001C300E24C6AB
:101550000430C40C3969065D00005100000B000026
:101560002500000521094A9500041C0E14800B2457
:10157000290C3C700754CB016600004DBD062C3E83
:10158000093A000035CB0121E6023CBE000C690699
:1015900004CB011084021466013089013909024923
:1015A00065084D110951CB0155000067000019C3B2
:1015B0000D2433041455063033044C390958000007
:1015C00039000049A5000E0000155B021E34054ECF
:1015D000CB0115AA054E0A011455061C39095800FD
:1015E0000031300A4A320C14CB010927010D2409BD
:1015F00010D208186C0E1DE4002C690A31880E35D3
:10160000B4053834054900004D340552C30D245546
:1016100006380000510A0116090204C4071600002A
:101620001100005100004B000031680236DB015010
:10163000B90334750E40C8064EEB02161607530068
:1016400000157A042C09024A000015000019000058
:101650000F00003D0902161106049B0C3C820C563B
:10166000000019CB01510B0068120A30C10A21C3D6
:10167000034A0000516B0548B30A38320C17320C8C
:101680002400006500004D0000090B002C58060CDA
:10169000E909145C041DAB01308B0B388102482230
:1016A0000B509E0D540B006209022CCB0119C30D87
:1016B00004790308C9030CE90C10A705142D0130A7
:1016C0008B0D387401417B074957064D0F065200B8
:1016D0000051300A1C00003D00002FDE06048A067F
:1016E000148100249909304E0D3CFE00480A025630
:1016F000CF041A000065A5000C090210000069550E
:10170000010525031573081C0A0120E20D2DBA06F8
:1017100040AA054D5C0C50E60255C30059AA05616C
:10172000F8073A180050280C260000510000352315
:10173000031E0000196A0834000015300A52000028
:101740000509020CCB0125330416CF046B00004DB4
:10175000330C300A0106010304FE0A14260020FAA5
:101760000524EE08304A0E3C7F0448DD0354C306CE
:10177000664A0C0D090248DF0C3C6A045455065CAD
:1017800009026A000015000049E6023BB901145A3B
:101790000004CB012700004DCB011D6E0B39D70A89
:1017A0003CF90456F8070C000005000015B2003E95
:1017B00000004DA5000C0B002CCB0109C30D04E962
:1017C0000C10A60514FA0D1CB70930520734450455
:1017D00039300940480548E10D52550634160008D5
:1017E0006A0D4200000500001D23030C55062C3035
:1017F0000A3A000015320C26CB015570000555063B
:10180000149F0725690666CF0424F8071C860C3A46
:10181000DA050A0000512B0D26CF0454C108160D1D
:10182000092E00005100003900004D0B00100B0084
:101830003420044A000009DF0C3809024071081204
:1018400000000500005100003900004DF8074A0073
:10185000000555065200003900002F00004D3507E5
:1018600005210909620C10CC061435081CA50424B6
:101870003D0630BA0334C80B3CCB01513C0C54211B
:10188000091A300A2CE60226C30D2449000CB200C6
:101890001DC9012E00003D320C24F807480000410C
:1018A000EC0B56CB0115CB011F220B506A0D04FA2D
:1018B000011421091D890B30E70238A502482104D3
:1018C0006200000500001509020C21091C09023BF9
:1018D000090214550636DA0152000049FF0304C21A
:1018E0000914340B2424003D230556000025090269
:1018F0000C55062C34051E00004D340308300A3503
:10190000C00A43AC054AB8052421094A0B002C1231
:101910000050C9030C870911A10B18C7001CED0D5D
:10192000316B0834550738A60649E00B4EA5005028
:1019300000001100004B00004D00002DCF041E00E0
:101940000065210934740A041F080CA40310BC08A4
:1019500014030D1C1C0831AD0539E10A48200C4D5B
:10196000A203501F095A55065C750204A3030845DB
:101970000C0C710410300B14950D1891041C4B04C1
:1019800024540128E60D30B70A34160338FC084009
:101990003B0748EF094C610E50EA07600E086600ED
:1019A0000065E60214C30D26120A3052083AC40735
:1019B000140000652E0B32300A34CF0410C3030923
:1019C00016001A0000056A0D168A050800003FCBB4
:1019D00001150902080A01040B0068800A0DBE0106
:1019E00010680E185D041DF409305101352A0A38BB
:1019F000D40349970D4D9F0960F4086600004D120D
:101A0000023C000015300A0A74091BEA0826090284
:101A1000383E0E04800C14D80A4AAA051E6C0E1C0F
:101A2000000043000015000065300A1C090226CBA7
:101A30000151000041CB011300004D370C308904E7
:101A400026DB012F00004DC80B3CCB010700004DE9
:101A500033043A320C240A0115090238170D4A00E2
:101A6000003D680114860D24BF0B48DD0C54860E22
:101A700066CB0115F8071C550666000015550626AD
:101A8000C40714320C266A0D1EB9011C3C0C5621E9
:101A9000092C00003500003D320C2400005D650E6D
:101AA00040CB014D000029620408F9020C690615BB
:101AB000AA01309E0C38C20948C40D51EA0C6209D3
:101AC0000248CB013B000025AC0504900116000044
:101AD00025E6021400000D7C0E129D0126D50A0693
:101AE000C30D24320C3C320C05000055320C48BDAD
:101AF000062C920B68990C50F8074CC0040D87090E
:101B000010040718630C1C930030B40434E30B3842
:101B1000660D425C020CF7004F000005F807321416
:101B20000854330416300A40340336690614300A68
:101B300010EB081E380B3809021EFA0D34300A1E4D
:101B4000DC0B06CB0151550634090230CB011D34A4
:101B50000508500905340324AC004A000051640B09
:101B600030420140BE004A00004900001100004F11
:101B700000003DCF040A00001D640B304201406AA2
:101B8000085A00000500002DE60215DB024BCB01D0
:101B90003D00004D300A5600004D550636CB061666
:101BA000CB010556064D09022C0B005C630408F8B6
:101BB00007689E010DB2001173081DF0012069062F
:101BC000254405310F09341A0A39AF013C0A004097
:101BD000740749710251EA09560000652F0E166715
:101BE000043E5D021700002D4C094A600050EB08CE
:101BF0004F000011690630F201396D0B41C3074AED
:101C0000320C3C0000558208158000303205388ABD
:101C100007481C0752040D3EBD0640AA055855064C
:101C200068300A1A0A0154CB014A0000390A01142B
:101C3000C30D24A5000C280D307A0A40C30352BE00
:101C4000000CA5004E09024CEC0B3C320052000087
:101C500015000049550636170042300A1B00005196
:101C6000340548C00B102109151C0A590000250035
:101C7000000D00004300000500002509025000008F
:101C80003FEF0712000025CB013D00006500000D6D
:101C90008D0B49F8074D0902530000416A0D1424C9
:101CA0000C0A33044C820816E60215300A6A8804CE
:101CB00004340E14EC09244B0A3C56035609000A5E
:101CC00000004DCA0010320C07CB012D3304549094
:101CD000005000004D320C3EB90114800920CB01A8
:101CE0003E0000250B002CCB011C070C08710A0CD0
:101CF000500118070430E109358A0439860E3C3753
:101D00000041E50C48220B4E300A38090224C40772
:101D1000160000151F0036000015E6022437005299
:101D2000320C040000653C0C54CB0111920C142BB6
:101D30000030B704398B073CB205486E014C790777
:101D400052AA0216830C08000007F60A26C30D25C6
:101D5000F10C1200006534050A0000650000550909
:101D6000022C5506586A0D3200004D6C0E3AAF0A2F
:101D70002DCB0123320C24A7084000001500003DA4
:101D800000004F00002500004F09025000001D34E4
:101D900005165506642405145D0026260B0657011A
:101DA00016C20042150D18B801086B0B0C23091060
:101DB000280E14ED021C1A03309B0B386C0E3DFBF1
:101DC0000648FC0A4DAA0C50210936E602142E0BD7
:101DD00032AA054C0000116C0E3A420140DF0C0C97
:101DE000DA033A00004DAA055621092A000049BE2F
:101DF0000016B9052CCB0113B2005433041A0000AD
:101E000005CB013D000017E60214C80B3E00004D53
:101E10006C0E040A0156A5004D000035320C3EC977
:101E200008045B09147C062456003E00002DDB01EB
:101E300032430E043D0C142C052413083C3709567C
:101E4000090230E60217300A10820815B60A0D6E34
:101E50000E30CB01345901392F0C407F054C750EE3
:101E600050210966000005E6023EE00C2F000051FB
:101E700000004D34054A0000654E0912000039F893
:101E80000708B9010CB200320A0114000067F4021D
:101E900030C30D246A0D12DA0404C9071440092462
:101EA000CC0030030A3CA70748C80954DC0C66B6CE
:101EB0000004260A14FF0D2439003CF20D560A01D5
:101EC00014C30D27300A34300A40300E062109347D
:101ED00000001D950B0C150D24090238620C48CB2F
:101EE00001093B0C14E10B4C150B50E20A5468023B
:101EF00058C3035E750E50220768060239D10842A6
:101F0000000019950A4DBE003A00003DCB01530078
:101F1000004D3405480A0115D8021E7A043000002D
:101F200011000053C30D2444040800001500003BB9
:101F3000000015350832300A5C33044AF202099574
:101F40000B0C770310530318710E1C5701207503F7
:101F500030190D34C90B38890C491E0C4C390C5002
:101F6000ED086A00004D6E0B51CB0111E50915D744
:101F70000209CB0119BB011CBD0930590234C10251
:101F800038FA08416C054A300A40300A0AEC0D372D
:101F900000003500001100003900004F240C2F15FF
:101FA000030ECB0115DB0152000051090234D803A6
:101FB0003ACB0151CB011455062C09024CB9013A18
:101FC0009A0432230404970714E80324E20B300137
:101FD000003C72015600004DB901320000050A01B3
:101FE0001400004B00001D55063855031200001167
:101FF000F70708790E18CE041C520530E90834A002
:102000000238B00C3CE00D40A702481D0D4DCC0439
:10201000502C03540B005CF80764EC0B2600001DE9
:10202000A500506A0D34410140000069640B30097D
:102030000212090250F8071C00003D000067550617
:102040001C21094C000009280C24CB0154CB0111A0
:10205000210914300A43000065BE000C710810AA63
:10206000056200003D21091C2109382A05047F066C
:1020700052670B24E60216330432380C483C0C0637
:10208000150D24F8076AAA050E320C0455061C69C2
:102090000624550640CB010D6407082E0130C50308
:1020A0003535083891083D32084C4B065019075415
:1020B000490D5833035E5C003C820D4200003942FA
:1020C00001404A0C0D780056300A103F0C320902CC
:1020D00014B6090400063E290D146A0830CF0452D4
:1020E00000003D090217CB0140CB01590000696F88
:1020F0000D44CA010D370810A902148E081D300DB9
:1021000025FB0931A50A34F60239B90949A5004C65
:1021100026035200000500001D240C3A39093A003C
:1021200000510A011400004D700A3000003D6A0D94
:1021300012CB0125330417000025CB01157A042E9C
:1021400000003123030C300A34C3033855064826F7
:102150000357E6021400005300001900004D5A0610
:1021600052000021DD0B5600003DCB012100005D37
:1021700009022C0A01040B0068C8001C1F0C4C74D7
:10218000030CE40915080230250534B50A38650E3C
:1021900041320A48C50B54480E580B0064240C12F7
:1021A000C10814B20022710E1C45060882090C8673
:1021B00009100B0C14150D19250C2C4D0A30FC02BE
:1021C00034F906387C0C40AA0248AD084D6E0B511C
:1021D000A9085A6E0B1709025000001D09020600DB
:1021E000004D16075200000D3C0C5433044ECB0139
:1021F000050A011400004FB30A4A00005109020EFB
:10220000EB084CCB012FDE0B2ECB013D550634CE17
:102210000115080C26000015E60224CF0C3EE6024C
:1022200014090232000021E6021400004F0A0114D2
:10223000090208FA0D355C0244B3004A320C3C3006
:102240000A10330414A5000C55065009021C690B32
:102250003A0B0058F8070486010858041CC60738D2
:10226000680A50E6024ACB011509024FCB01150955
:10227000022600000500004DA5000CCB012FE40D47
:102280000600003D300A0A00001D00003500002F46
:1022900000003D580914000041B9014EDF0104223D
:1022A000021452092495073C3E0556BF0616E60265
:1022B00014CF040ACB010D6C0E3BCB0111A50040DD
:1022C00034034C260952B50A0E00003900000F55A0
:1022D00006348B095455060A0000155C02460902B3
:1022E000506906245706049E0910BE0231CB0838F7
:1022F000DD0C3C090241F50048AE084C55030ED3F5
:102300000004140914380720D509246F0930DE0AA7
:102310003825023C2101485B015492005C5F046651
:102320003C0C24550653AC02100000690B0040A47D
:10233000000C2A0E1C8E0930650E34F40138260379
:102340004D0F005237000A000035300A52D80226DD
:1023500000003109003AE6024B00004DCF041200A4
:10236000003D300A4000004DF8071200004D00000B
:102370001500006700005D00002DC80B1415044A0D
:1023800000003900003D00004D9F0353EA02160093
:102390000021F80730BE000C3C0209130310730142
:1023A0001C5701244107351E07386F013DBF004807
:1023B0000B004C82055033045E000015000039BE4E
:1023C0000160CB010D34051C1F0C4CF002097C048C
:1023D00031F30834050D48240B55CD015A34050856
:1023E000270B1173081DFB060C200E18210C24135B
:1023F000002CD20D30A20038210B3C700540E008C3
:1024000049930D4C870E50A60756330424310A3EDB
:10241000CB0132CB0114CF04126C0E3834055200BC
:10242000003D0A011700001555062EC303400000A9
:102430001500004F7F0E26240804CB0126CB012176
:10244000330438090234A50051640E04FC030C4225
:102450000C106701146806245A0430E00D41F4059D
:102460004808015A000009420142FB0114870D048B
:10247000DB0124B5073CBF0C481908560A011400BB
:102480000005000013000015BD063A00004DE602ED
:1024900026CB0131CB012100004FCF046A0000217F
:1024A000160750BD062E8C093255062F000039BE86
:1024B000003E8B052ECB0115B20010330424300AE8
:1024C0003A00004D82081634081A00002100001D51
:1024D000CB0135690D04270B115A0914CE0D317447
:1024E0000C38480C3C95044821034D600C500B0CF3
:1024F0005FCB011521094C0A0104550626810A0407
:10250000730B147609243C0C34E1013C7501542F03
:102510000466000051F6083600000500003D210960
:102520000E5D092400005700003500001900006509
:10253000CB0B140000516A043A00004100005FC355
:10254000032CF8070C00001100003BCB0115320CE6
:102550000400005D21091CCB013CB2006821091078
:10256000550635080808CB060C140D2489072C8263
:102570000E39980448090259000021210932090244
:1025800024DD0D16CB0114AA054FB200160000651C
:10259000340514BD0638F8071CC20D2449042C006C
:1025A0000005320C3E240814090252330414190C9D
:1025B0003CC70956000005F0013C00004D640B26A5
:1025C000AA054CC30310D2021A320C0400006100A9
:1025D00000697D040D8F0910610D1CCA043173015F
:1025E00038DB0340A205487D0250320C66000051E2
:1025F000F8070E0A011434053A34080A00004900AD
:10260000000F300A34C30D240000333C0C5400008A
:1026100009A60A14690624550634710B483405507E
:1026200018005A000005000015F70A242B06320096
:102630000051CB0109CB014E00003D3C0C56EB088C
:102640004DAA0522A00316000051090232670D4071
:10265000E60217C30D24ED0116AA052000000F3372
:10266000042455065869063200001500001DB60600
:102670004E0D0942300A1F300A3400003BF50316A4
:1026800000001D00002D55063ACB0114C80B3E0971
:102690000230BE0A5200004100003700001D09024E
:1026A00011E60214000067BC004E0A0114CF0410AA
:1026B000C2041ECB013D870520C00B48CB0157004B
:1026C000001500004DCB012E00003DC30D2400007D
:1026D00041960C32000065CB014A00001500004D08
:1026E000090234320C48AA0309CD0319230224BA83
:1026F0000338C00B40210953140854090222E60292
:1027000014240C3A000021CF045069063E4E051EE9
:1027100000002500003DC40716F8074855062C3078
:102720000A38340530CF041CBD0A084E000C6E0474
:1027300010B60718E90B243A0750CB0656290E3E6F
:1027400000003D300A101C0C52BD0640AA0558304E
:102750000A2CBD06303F0C4A0000513F0C426E046B
:1027600004210952000039C30D24CB014BA50006FA
:102770000000213808520A0115000005000027005A
:10278000000500001100001D0000313304145E0438
:102790000909022D210944B5044A00001100004D29
:1027A000300A2C55066B00000500003D0A0116009A
:1027B0000021300A52000041260908680B52210905
:1027C0002C300A3A520C041401144B0820EC062455
:1027D000220930D10638360E3CF703484B0354C467
:1027E0000966C30D2423030C4C0D530000554C09FE
:1027F0000421095AC30D24300A34C30308C3032C2F
:1028000067044C7A0452320C14300A405C003ECB10
:102810000605680508CE0C14490826210922C00DBA
:1028200056000065090216320C04320C24BE09164B
:10283000C30D24DB015055063A0000190902390086
:10284000000BE6021434053200004DCB010667048C
:102850004C320C4A0B0064330A04090D14000D2499
:10286000400D3EA5000C320C3900001509023287DC
:102870000414FA0D3409026B00004D69064A000089
:1028800041CB012E000065090224ED011624031C32
:10289000090242000049E60215CB013B380824300A
:1028A0000A12000005FA0D34C30D26E60214320C9C
:1028B00024090232320C04320C1691013A320C3CDB
:1028C000920B689A0B0C200110BB0418D4041C6AEC
:1028D0000D20C801302A0134840D398A0848E302EA
:1028E0004C38025300001D6A0D346A085A300A1C25
:1028F000E6020600002500002DCB0111CB013EE6CB
:10290000021514083C55066400006B000025B20A4D
:1029100006000005300A1055062C0902348B070BFF
:1029200021094800001BCF042C00001500003F00C7
:102930000019CF0408BD0634300A4200002D5C02A5
:102940004621092C3304481200500A01244206048F
:102950006D08101B04144C0A30FE033A09022400CF
:1029600000653405320000156C0E3A300A2C000068
:102970003900001F09023809024DCB011B00002558
:10298000CB0115300A52E600045803144E04209679
:102990000A2435082857053C810648FF0854910051
:1029A0005C13066600001900001D000009D8025AD9
:1029B000000005C30D2409021469063C0B003BC34B
:1029C0000D24C1081600000500004D320C16000051
:1029D00021320C24000055630408CB01650B006014
:1029E000B2000CAC02106F0E1C3909308304393967
:1029F000063D0F0D48CB014ECB01150000670000CE
:102A000015090250EC0B56670422000039A500524C
:102A1000870D3C6C0E26300A40000065330416C357
:102A200003383405324B0A3C0B00641604243E0381
:102A300056350856000065DD0D1600004DDB0153CC
:102A4000C3032F21095055063455064055065855E5
:102A50000630E602103C0C4A00006514083EC30D27
:102A600024A5000C5D021634055E090230BE061670
:102A700000002523030E6906496906320000110093
:102A8000002DBD06320000050000156A0D1C000077
:102A90003D300A2ECB0124120304B90C560000511C
:102AA000AA054E0000510B001ACB01055C0244CB75
:102AB0000114340520BA034EEC0B0400003FCC0C8B
:102AC0003B0000050902265B094A04050491090838
:102AD00026070C360D10D60714FD0618090B1CB37B
:102AE0000B20880224780228A00C2C240630020631
:102AF00034EC04388D053C4A0240900D44150E48D4
:102B0000BB054C3503500C0454F5095892015C3058
:102B10000A604F0064FC016A000015CB013C000014
:102B20004D090232850204850226320C3C6C0E3AB5
:102B30000000158B0552950B0C630408FD0234D37D
:102B4000041CB30124D8022C360838A9064A300ADE
:102B500010280C24380C33AA053E00000500005153
:102B6000690664000055E60215550632C10B14864D
:102B7000082427093C2C0C56000051000049000095
:102B8000670A011455064200004D00001500005769
:102B90000A0149320C5E320C04CB0111350818B21F
:102BA0000020930A24EB0B5434053600004D300A04
:102BB00040CB012DC40715780E32C4031809023426
:102BC0006B0548E60215CB0109F80D3834052E6C6B
:102BD0000E24320C062D0E1600002534051FED01C3
:102BE000170000514201404A0C0DCB0149D9033A6C
:102BF000000025300A34CB01430000210B002C09D2
:102C0000023557064DFB060CE80C104F033143010B
:102C1000386C023C460A40C903483A0C50690154DA
:102C2000810E5F610004DE05144606201606243777
:102C30000A3C2C06544A006600002DE602156A0480
:102C400038A3064E98021B23081585023E0000217A
:102C5000150D1800004D6C0E3835091D000049E6B1
:102C60000232320C04330420EE071E000051000033
:102C70006500001100003900004BC30D24300A42EA
:102C8000BE0014890406F80730690614F80750A33B
:102C90000024E30209740D3CA500416E0B49CB01F1
:102CA0004F550640B0071C6A0454640B5E3405128D
:102CB000F10A263C0C04140724C706420A01146BCF
:102CC0000126E60214090250790E18290A04200B85
:102CD000088E0D0C9D0210DB011CF8072009012451
:102CE000E9072C3C0131E70834E70438C2083CB658
:102CF0000C407C0A4970004DE30C54440E58880E79
:102D00005CA90561230B6B210938280C2455062387
:102D1000BD0658300A4200004D55061259061A0ADF
:102D20000114140856A8013D00001F61094855060A
:102D300032000065B90124BD061E300A22000021C0
:102D4000C30D26550622E6021414083EDC0D163586
:102D5000081B00004DC30D24000005E602161407F1
:102D6000060A01146C0E3A380C5E00000500003DA6
:102D700000004D5C0D0EB200365506500A0114C31A
:102D80000D26A20D02000000021001048400084676
:102D9000060C4A05101D0A18B0081CA706202201BF
:102DA00024A60234CF053870013C560740C50148BF
:102DB000E804506D0754AC035837005C06033246F4
:102DC00007243506046C02146A053C5803560000BB
:102DD00031000063000031000041060314EF040ECF
:102DE000000039E90048830617000015CE06584E4A
:102DF0000732B1084000004FBB0615CE0648000060
:102E00004125004C250065230124C0081879025D86
:102E1000AD031CFC0530C302351F033988003D7328
:102E20000351CA0456000021A70252060315AA0046
:102E3000316F053B0000510000610C0605D80715F5
:102E400053091CDE0930BA0938BB08489E005814E3
:102E5000015F00006500000923012487031DC306EC
:102E600034CE064191094885015A00004D160511DE
:102E7000F0061404033C070248AD0552000065004B
:102E8000001DBC0818BD0608DD010C280311A300B5
:102E900024970430CC03354902390E0548B9074D53
:102EA000620751480168E2083E00004D79023E0089
:102EB000002DEF040CE2084B000051E2084A00002C
:102EC0004D00001D000051250015DE063A0000519E
:102ED0009B053A5F0304DD0214E20324130030B8BB
:102EE000043CE90448520054CE066625000425003F
:102EF00015360824A80031F7033C0000417D045238
:102F00008306046202565C063860041C000041E03F
:102F1000070E500228CE063E000021E2084F0000B6
:102F20003100002D0000392500534607240000051C
:102F300062023E3E0324CE06168608143D03246832
:102F4000063DDE06674E074C25002F7D0448EF0442
:102F50000E23010400002125002FA70250060317AD
:102F600085081600001100003125002D00001BBB54
:102F70000932000051E90048830617A50343E2081F
:102F8000140A0A3C00004D00006796002600002548
:102F9000000017000015000023BB0615DE0665B112
:102FA0000304CE03247B063C790256000051CE0672
:102FB0004E000031000041CE0658000011000049CB
:102FC00000003700004D000035000039000011EF0F
:102FD0000452060315E900339A06167902242500E7
:102FE00041250051CE0658CE0610050604CE08092C
:102FF00099000C0C051D9F0738B6083D22064808AD
:10300000024C05035424015F8E0208460726000087
:1030100011000039000041250019CE064F5C06382A
:10302000000049230130E208360000110000390099
:103030000019B108507D040A0000519F0624C30204
:103040003141023EEF040CCE065843024906074CBC
:10305000DE06535C063825004100001D00005300C9
:10306000001100005125004196000C25006500006C
:103070006125005DE90154CB061D8809307D0634C9
:103080007E053886004CA5095A000009E0070C9D12
:103090000041B908041C0210F208304D02354D07FA
:1030A00038DA033D990748D4024C9A0450F501548C
:1030B000CD0658AE025F00001900005125004B25D7
:1030C000005100004D06031600001D25004C9A0615
:1030D00038620218DB0504630014250025640434FB
:1030E000E804514D065806035C580613E007380003
:1030F0000033E2083000004D830616000011000086
:1031000015E90104A5033800004D00001D00002F43
:1031100006031400001106033A000065250016009E
:103120000049000031000041EA091172065A5906AF
:1031300004000027B1086AE20848AA003300001121
:1031400036082400005DFE030484010CFE05158B87
:103150000430060338D30748AD0350BB09540000C0
:103160006B830604000035000051000031E00715B4
:10317000ED0138A7064A9A0815DE064200003525FB
:1031800000510E022CE0070C270641C20611A102D5
:1031900030F0083898094825004FF8020CDE01107D
:1031A0003A0918D5091CD30920FC01248A02086FAA
:1031B000022C7700307C0934E201386C0940E308C6
:1031C00048BD034C2603506D045437075871095C01
:1031D000980960CB02669D006A00003D8306568D0B
:1031E000024814011D25003FCE062C23015C8306F6
:1031F00057E406042B0414A3032404083C000254DF
:1032000012086700001125002DDE0635000015CEDE
:10321000061E25001423010600000900004DCE06FD
:103220003200001100004D060314000019E20833BB
:1032300000004DC30336000035CE063025001500D2
:103240000005CE0608CE0638DE0640CB024CA409A7
:103250001CD7002CA70262B10804F3071415042040
:10326000820924AC003037043839013ECB083100E4
:1032700000510603170000654607240000170000F0
:103280004923011425001DCE0638CE064025005DD9
:10329000CE0611E2084DA2093C780351790256E2AC
:1032A0000848000011000067000051000031790259
:1032B0002400005DDE0641CE06499D000C09061182
:1032C0009D001C2003395A064C9D00580B026700D4
:1032D000001906033A00004D2500152301040000E3
:1032E0000925000DE1081CDE06124607245502429E
:1032F00000003500003125001B2500312500512537
:103300000009000061EF041CC1080C9B0514250096
:1033100035CE073824004300004DDE061E8C022FF8
:10332000A50311F7071400004D00003F0000110035
:103330000065230104410214AE051CCE085125008E
:1033400056AD033A060315000009E0070ECE064805
:10335000CE0624000015000053610604EF0824097E
:103360000A3C2B0856CE064C62023A00001D0000B3
:103370005D250051E0070C62023A0000359D001106
:10338000000031AA004B00001D000035E0073AA8FC
:10339000060470021476013C6605563E033E0000AA
:1033A0005125001531014F5E071200004DA8071C82
:1033B000460724830617000011000041250009CEAE
:1033C000062C08030CBA06157E071DD80830CF045A
:1033D00035CD08394409488C005A230115F70226D7
:1033E000000011CE0650D700619D0034CE090C5C60
:1033F000071CD405302407389D004877084E00008C
:103400005100001100003B000015CE0652DD0732CE
:10341000A00604E00914900124AE063E230148EF03
:10342000044E00004D6C070C25001DCE062CE20852
:10343000517B0315C40030EF08345E0939F00443B2
:1034400025005425002FFC051500005FDE06410015
:10345000003100003B00003500002DEF040C23017B
:103460002600005100002D00001DEF040E00004D4D
:10347000F60116EA09422F031625001579023C00D1
:10348000002D250026460724000043C505049C089E
:10349000146C06202E09244F073CE10748D106563C
:1034A0000000654607240603175C063C0000530035
:1034B000003DAD0314FF02662F0104F90514340624
:1034C00024CB093CA30156BB021400001100005F8D
:1034D00000001579022600004D00003900005DEF64
:1034E0000404EE083039015390081C620226A5033B
:1034F0003100003BCF0604B40314450724A6033C67
:10350000EA015600004D50021BD7091E00001100B1
:103510000051000041230130620218BC0814E20887
:103520003506033BB700542C0204CE063062021667
:10353000AD032600004DEA095206031400004DCEEB
:10354000062600001100004D060315EF040C33029F
:103550002625000571032700004D000039000041B9
:1035600023013000000F00001500005125003362D8
:10357000023900004D00004B6202247902167902E4
:103580002425004C000009250065CE06585D093A47
:10359000000039830616CE064C00001100004900D9
:1035A0000051000043DE060C080738BB061500007A
:1035B0004F8306148A0435CE066AE80604D702143F
:1035C00080002465083CD80555D7006761003100AC
:1035D000004D00001700003100001925003B0000DD
:1035E0005160041EAB0421250017210704D70314E2
:1035F000D9042498063C4C0554950767950714890F
:10360000092600004DD00453D0044300005D0000A3
:103610006161091500001100000725002E00001D42
:10362000250011730704960815E600309A06388DB8
:10363000024889094CD5075300004D000065580623
:10364000103301049108149E0724170330600735D6
:103650009B0539280549DD035F00003DCE06320099
:10366000006585012400001525002FE2081A3901A4
:1036700004BB0615120620160A24D70938CE0648C0
:10368000000051CE0636000051230104DE06115C15
:10369000062639012EA8074C000013E2082DB401BC
:1036A000178D022E000011000065CE0650CE0630A8
:1036B000000009CE060CCE0668620218F805359A9D
:1036C0000538C0064825005FEA092E000011EA0906
:1036D000417D04318D0237AA002F8D022F00001585
:1036E000A7060600004D00001D0000170000650041
:1036F0000031E2084883063E000015D1033E000079
:103700004DCE061EA706567D041C00001500005174
:1037100000002F62020E00001D25003D0000212345
:1037200001302500099D002C9D00402D030CCB0687
:10373000119308157C05347E04382D034E8306044E
:103740002301325C063823010600004D00001D25D0
:103750000041000009BC0818CE062CF5020C140527
:1037600030C908343C05396B03486202513A016A9A
:10377000000065EA0914DD00245D093C7F0048F57E
:10378000035660041C0603380000490000330000A3
:1037900049000015BC081A00004DCE060C000015AB
:1037A00025001F00006500001D0000050507086CCE
:1037B000070C8201115F022C8C05302701393C0473
:1037C00049CA064CEA0953000049CE061CCE06172A
:1037D000620224EA090825005500004D2500160064
:1037E000004DD1071700001D00003900000B00003C
:1037F000158F072600004D00001100004B16040431
:10380000600514D20820F106247A0230A6093C3E55
:10381000094881055414046600004DE2081E230186
:1038200030080805BF00156104349A06393807408E
:1038300007064871074C620262BC0904E602145292
:10384000012411073C9F04546F0966CE0638CE064A
:103850001200004D00001D0000512301300000093E
:103860003506349D002C2500395A0710B8004A004F
:103870000041D808307B031600005100004196003B
:103880000C00001100006500001FE809140000078B
:1038900000001D000009790248000035E0070CE037
:1038A000073A000019E0074A3F054EF908044005B1
:1038B000141E022401013CF30454B6036625002DB6
:1038C0003101212500415D074F00002DF601160052
:1038D000006583061600004D83063C620220060345
:1038E0002600004925001114013500004DDE064375
:1038F000CE0648E20839A40214000035230132053F
:103900000804C90614E0053C2D025600001500000D
:103910002D62020600001100004900005100004D18
:103920000000390603165F0238A7063F250004870A
:103930000109CE0811DC011D0E022C0B0930B9065D
:1039400039C200484F095346072479025CEF044C02
:10395000FB0504A402145D0338D8003DFF07483579
:10396000005145095400001100000B5C06380000AE
:103970001700004D230104E2080A00004D00002D4D
:10398000000049000053460724000015250031EFD0
:10399000045200006500004125001DCE062C2500C4
:1039A0005DF5020CE208119A082423063806034844
:1039B00094084C2B0250AD03589D0068CE0634008D
:1039C000000BB1080C790206000011CE0658F9036D
:1039D000099D040CCE0618E2081C9D002CCE013077
:1039E000CE0635B502399D0041C3024924094C98E1
:1039F00000516E0454EA095D050A67000041250084
:103A000011D0042F62022300001D00005D25004C30
:103A10007B030600004DB108528F0730CE064A00E6
:103A20000065000051A70624CE064F6202242B0831
:103A3000044002146D053E90001A00003900001584
:103A400000000BCE063423011448016816030C58FD
:103A50000610E90730930939220349B7024CD2090D
:103A60005200006500001D00000925005194090C5A
:103A7000AA0015E70920AC0424CE072EF30004D3D6
:103A8000030C3A0014B100202E052499022CFF06E5
:103A900030F1013880073C3006404E035081045419
:103AA00049075E79023C620222F102438206170056
:103AB000002183065600001100003925001523015E
:103AC00004C0080875014AE2083B5C063B00002D73
:103AD00060041EB60104390714380120340224534F
:103AE00008304F053C89084839014C4103543104E2
:103AF0006600006500003160000A7D041000003F90
:103B000000001D25001525002F6202247F05399A2B
:103B1000000C2500109B0715E00730E00135CD04AF
:103B20004AA00938830617000051E900316B043EB2
:103B3000000015AA005100002100002F00004900DC
:103B4000001900001100003100003B00002D0000B2
:103B5000098D02337D04502301158F0726CE0620E0
:103B6000390152BB0615000051000021BC08182580
:103B7000000962024851091D0A08309B0935BC073B
:103B8000389A004E2C060425001613013BFC040451
:103B9000880314D9082084062426003CCC02484718
:103BA000065497055CCC0166000049830656250043
:103BB0004CA4020525000996000C66061054072443
:103BC0009A0630350634BE063865073D1E00482F7C
:103BD00004516D00549F095DD70061250065000008
:103BE0001D000043000049000051EF041E4E07482D
:103BF0004E0758000015E2083200006500001D0065
:103C00000049000035CE0610230124110A091C03C7
:103C10000E00003DCE0650230130CE0608CE0643EE
:103C200025005D9204040A0608C1030CC90315614E
:103C30000218D708307101343304398E0040DE0693
:103C40005241023C0208056B02149C0624F30556FF
:103C5000AB044D00002300004D4607247B031700F2
:103C6000001D2500118C0530BC08189D004D600713
:103C70003590040C4B0238EF015200001100001D7A
:103C8000000009DE0650E0070C9D0041CE062C2303
:103C900001248B05302B0139660049C802553901D2
:103CA000639D001CC9062425003B00004D790226B7
:103CB000000065000041DE061CDE0639000049E216
:103CC0000832EA093125004341023C00004D7B03E4
:103CD0001600005D25004CE00704D60514CE064210
:103CE000250065EF044CD106142D0630E00739009D
:103CF000003500005300001D23013023014A00005D
:103D00001100004D00003D000015480152B50306AA
:103D1000000041250051CE0668E0070CD70910626B
:103D20000218040814EA071CE105305B0339CB06CE
:103D300049AB046300004D06031500006500002D2B
:103D4000EF040EC8095241023C9D005194040459ED
:103D500007102D03147608305F06345609395008D1
:103D60004891074E250015250113060314CE060CB5
:103D700062024E0000110000517D041C250025EF59
:103D8000083409030C2305148A042C7A0730A9038C
:103D9000381A003DC30241C30548A1074C620256D0
:103DA00000004D25004B250015230130B80004D735
:103DB0000910C2033462023A000035000041E007F6
:103DC0000C89094A00001D00005DEC080D0000513F
:103DD00000000B00004D460724060316250015239E
:103DE000010400006106033886031DA40530FF05A9
:103DF0003C7F014954035423015C00004100000B47
:103E000000001500004D00002FBB061546072425B5
:103E10000041250011BC08189D0009AB0530A7051D
:103E20004960074C50095300000D00001500003395
:103E300000004D00001DE0070C7F06372A041C0619
:103E4000034A0000519E071495004A00003DC60039
:103E50001425052600001DCE060ECE065023013087
:103E6000C006489D00081B030CCE081D150534C272
:103E7000053A25002DE9003014011300004D000023
:103E800009830615A8075800005100003383061463
:103E9000E2084A2500519D002C25001D62024C813C
:103EA0000210A70034DF073A41023CCE06260C0878
:103EB00016E80450CB0110D0041CAF0830110A34AE
:103EC000F606388E07400905488F084ECE061D00BD
:103ED000001500002F00004D000065CE08119D0068
:103EE0002C000061D808309D00589D001D2C03381F
:103EF000DF064B0000157D0450CE060CE20830B8FA
:103F00000726000015DE063100001100002F00001A
:103F10004DBC0818E0073A00001100003900002DE0
:103F2000000019CE065879024A00005125002D25BF
:103F30000033CE0648460724000017CE0648250069
:103F400065CE06684902399D002C25005D72065831
:103F500051091DCE0641F3020C940424A40635CE6B
:103F60000653C80404650414EF0024E0033E000077
:103F70004100001500003B0000510000110000331B
:103F800000004D000051250011250033000041A81C
:103F90000738A80752000011000019000035000082
:103FA0003BEA0912000051F1005600004D25003196
:103FB000250037460724E2082C0B053CBB061500FC
:103FC00000672500158C053096000CCE0640CE0605
:103FD00011E2084CBC00046E020915083C78065139
:103FE000CB045490085817055F00003500003900D5
:103FF000001100001700004D8F070AE20842000080
:104000001100005100005D000041250067000041E3
:10401000EF040CAA00330000657902242500052E68
:10402000011662023800000B00001D000049600705
:1040300037E20830B900047E0008E001119F001447
:104040007508183508242D0534000338A00940B63A
:10405000004897005025005964040E00001DE00739
:104060000CF30609A50934890438E1004AD808167A
:1040700000004D7D04500A090863040CB705107D4B
:1040800004188E001C08072D25013B00003DCE06BC
:104090001EF0064AAB044EEA091100001F00004D55
:1040A00000006500003D000017DC020CC0081A008B
:1040B0000011250051B60531000065060317000008
:1040C0001D000035E0070C79025E00006500003D30
:1040D000F10714020626E208234607247902170096
:1040E00000657D041CE20830250005DE063800006E
:1040F0004D00001583063E00005D96000E00001581
:10410000AD030A00004D000015000043EF08540005
:10411000004B00004DCE0648000041BC08187B0350
:10412000151C030CC30634A807105F041CAD002C3B
:10413000A00230FD07398701535C063860041C6219
:10414000024CC3025300001500001925005323013F
:1041500030CE0658000011000053CE0608E0070CD0
:1041600060041DBC0817790224210030CE063B00F4
:1041700000650000417902167D0448000037000008
:104180006500005D00004125003560040C29024AED
:1041900000005D62023053091CBB09247702340E13
:1041A000025200001D790224790204CE0640060A5C
:1041B0005F7D041D00005100001100004FB1080A8E
:1041C000EA09117D041C06031500002FA702104602
:1041D000072400001700005D25004CE0070CE007F5
:1041E0003CCE063A00002100004D250017F70324BD
:1041F00000001700003500005D25004ECE060CDEE5
:104200000638B3011500001100001D00002F440006
:10421000041B0814D10124A8013C990356CE06487A
:1042200083061600003500001500003900004D25FA
:10423000001300001DCE062C25005DAD03370000E5
:104240006500005D25002D000009E0070C7F0539A1
:10425000E0074E250005AD0336980038A501520051
:10426000004D0000150000077D0450620224E008A4
:104270000CB80910EA0918D2094E980304A30215D4
:104280002301260000656C0214F70104120A2408B9
:104290000A3C360656AB04240000652500170000D2
:1042A0006506031600001D00003500000996000C8D
:1042B000CE063A250014E2084E0000510000092500
:1042C000001D060A5D3E020C7B0315A7073007039D
:1042D00038180A3C5F0241740856A802044C0914BD
:1042E000820224B4063C3506560000650000355DA8
:1042F000093A46072400005100002DEA0911CE06B4
:104300000C7B0317000035CE063062023C4801509A
:10431000250609AF000C0C0211950618C5031DD522
:104320000638500141CE074CD1085A8306140603C3
:104330002600001D00005D79023C250011E0070CFD
:10434000FC0305630915620230E20639510141455B
:10435000024977025396000C5C063AD607146606AB
:1043600032E0053C3202243E03169305064E072D2B
:10437000E2081600001500005DBC083089013D21EF
:10438000064A5C0638000033790214230104EA0966
:10439000512A0326250015CE061E77082225001473
:1043A000E208069E073C00004D00004300004D005F
:1043B0000015BD0853000049000035000039060310
:1043C0001400000925005162024DEA092F60041C07
:1043D000EF040C9B0538250049EA095309093E0002
:1043E000004900003500005100003900002DEF04A5
:1043F0000CEA0913000015EF086400003D000033CB
:1044000000004D620226000011CE06342500412531
:10441000005125000996000C2500659E0704FA0747
:1044200030A407398A003CA4004856035479025F3F
:10443000C4011479023EEF040C00004D0000233546
:10444000063423011462024EAA044F000051DE0616
:104450002D000015E9004A00004DCE061300003182
:1044600025004B00001D830617CE064C0000652575
:1044700000179F022400004D00001FE900300000DB
:104480006500001700006500003D000015000041B8
:1044900025000B0F060C470710250018E20530D643
:1044A00002344E0638510248B1084C7808500B05CA
:1044B0003EBB061400005100002325002DEF040E22
:1044C00000001DCE0851CE0658E0070C570610A27A
:1044D00001309D0034CE0939A7063C9D0040A70657
:1044E000489D004DCC045479025C2D096846072490
:1044F000A40217000041A7061500001100003700B4
:104500000039E2084ADE065000004D0000070000B6
:104510004D0000490000392500111401350000410B
:1045200000002FB1081C00002F0000652A0814911C
:10453000062600004D0000510000410603149102C0
:104540002DDE0633250039230124940823CE0648A6
:10455000000015CE063583062400006500003B00F0
:10456000006500001D4202147C04386202424607C6
:104570002483061600001100003D25001700004DA1
:10458000000051000065000015CE061E00001D98B9
:104590000039CE065A00004900000925003B000002
:1045A0004900005100003100002F00004D62024A16
:1045B000000041EF040CEF041C77083A4607249EE4
:1045C0000716D2025600003500001925005162027C
:1045D0004C92022FBB094A00005100005D79023C59
:1045E000E0070C060348B20204A60515CC0426CB4E
:1045F0000264E705043906146302202A072414061E
:104600003C6A0856000039E0070E89094C25001D58
:10461000620218D80830F60104FF0234DB01393C8D
:10462000014871065A00003979021ED70061DD0683
:1046300009C30114D0091D0004309402392109492D
:10464000BA074C8F025383060400004179023C6094
:10465000041C250011E20830F5020CA009085409D9
:1046600015EF0118F2042CAA07342B03381B0A4C4F
:10467000300451C3065A000015E208488A041E009F
:104680000065210114A5032428063C8E05565C060E
:104690003800001DCE06500000092500659D004130
:1046A000B90824C20231D600343506480F074D58E8
:1046B0000654E0075E00005D25004CE0070C060391
:1046C0003C270643BB061500001D250051100A09B2
:1046D0008A04106C0424F204305F07356800398EB8
:1046E000044ED0044B4F013E000011E2085300007D
:1046F0004DA7061470060E230130B10808000061B2
:1047000095090CCE06119D0724A507399D0051E996
:1047100001549E0958CE064B000051980038BB0248
:1047200017DE0665A70604A30614B90224C9093DCD
:10473000970356DE06207A03170000312500130088
:10474000003100004D25005300004D0000410000E5
:104750001925005100004900003BCE0648000051D9
:1047600000000998003928031168090427041592EC
:104770000524FF05325808044901147207202C084B
:1047800024660230BF0838EB033C1C07481E055462
:10479000A60666DE060ECE0648CE063200005D0096
:1047A0000019E00714AE054A00004D000041E90978
:1047B0002D00005100003B5F065800001B79023CB1
:1047C0008306170A0A0400005700002D120517047B
:1047D0000404160114400824C7003C9C0554E40559
:1047E000660000052500430000658306065D061D82
:1047F00000004D060317CC0457110116B00204B295
:1048000008149B022582003CAE03560000252500BB
:1048100033000065250024620204ED0715D0083C32
:104820008F00485C0656EF08067902040000670016
:104830000051A5090891070DAD03152500198F0733
:104840001CDA0224A50935E9004800004D25002F97
:10485000E90031000043000011CE061E000015EAF9
:104860000911250053000005EF040CC80920980326
:104870005600006500005100005D8C0530CE060C2E
:104880000000611D03118E021839011C0706246205
:10489000042CEF06347306394F0241970748EE04A3
:1048A0004C23015619003E000015EA093379023CF9
:1048B000EA0004AE07087602103B01147F02187369
:1048C000011C6E0424D7092CD809306E03344C0027
:1048D00038C8094058094896074CF50850FC065856
:1048E000CB025CB80560D609664607240000156255
:1048F000024F25001500002125002F0000110000A7
:104900001500005183063C0000078D021C9A081711
:1049100000001D6C070C9D0040EF08342C0910129C
:104920000014630630D206395E0248CA024C900772
:10493000514C076A8306045002187D044800005356
:104940000A0704190514120424C5063C930754F8F9
:104950000767830615000051CE061ED10404940596
:104960001475032449043CAF055600006500005D42
:10497000280216EF040CDE065000004D830617CE09
:10498000065600004D0000390000110000570000DD
:10499000150000057D041C140149F70756E2083A8A
:1049A00006031525001DE2082D00004D00005300F0
:1049B000001100004D4607240000310000410000B6
:1049C0004900003900002DCE065ABB0615460724C3
:1049D0000000537902348A04420603151A0804259C
:1049E00000330A0304DE0414100224BE073C7901DC
:1049F000483003544B075CCD0766D1060479021496
:104A000075013446073CEA0941B8005600001125FB
:104A1000004C9A090C780230D506399C00532500C9
:104A2000152500537B08043D0114370824BC0230CF
:104A300072053C9100483F0456000065E9004A00B9
:104A40000011E2082F0000519A06153F0326460781
:104A50002425001714012F000041B10808DE063498
:104A6000B6043E00003123011683061525002D25CE
:104A7000003B23012483063E0000650000519600A0
:104A80000C1800048601095F02113B041825001D63
:104A9000C50224CE062C2709303D04343A0539E4FA
:104AA000073D5E0241A109480E085479045F0000E9
:104AB0003D830616CB024C25001300001100001D9B
:104AC00000005196000C2500657106588306247C71
:104AD00007308E01355B0638CF0748EF044F9F0241
:104AE00026CE0608DE064325005DCE060987004E69
:104AF0000000154E072E00004D62022032045600C1
:104B00000025A7061600003D460724BB0617000037
:104B10003500002DCE064DE90008DE0610AB045826
:104B200025003100001B2301049A06380000615E55
:104B300005154302240C0A487D04535D093B6202BB
:104B40004BEF08540603165C01046F00087D030C4C
:104B50007409100D09148A0918A5081C910320AFC7
:104B600007244709289B012CC30830B70334D80613
:104B70003801003C6F044014084423084852044C98
:104B8000AD0450B905542E025857025C540260031C
:104B90000264F4056A15043600004D00003300007D
:104BA0004100000900005100005FCE064C00006586
:104BB000CE061C00000B000065DE060A0000350072
:104BC0000051000041E0070C0000115C063AEA09C0
:104BD0002DEA0911000019000051000043000051A6
:104BE00085011BEB090200D5F08D14A1C881CFD936
:104BF000F1AF2000080B00020202000009040000CF
:104C00000102020000052400100105240101010435
:104C1000240206052406000107058103100040094F
:104C2000040100020A00000007050202400000071C
:104C30000583024000000403090412010002EF0290
:104C40000140412336800001010203014172647575
:104C5000696E6F204C4C430041726475696E6F2021
:104C60004C656F6E6172646F00007A2F11241FBE55
:104C7000CFEFDAE0DEBFCDBF11E0A0E0B1E0E8EABF
:104C8000FEE602C005900D92A23FB107D9F727E0DA
:104C9000A2EFB1E001C01D92A03BB207E1F716E21E
:104CA000C6E3D6E204C02197FE010E943C37C5331B
:104CB000D107C9F70E94D32F0C9452370C940000EF
:104CC000EF92FF920F931F93CF93DF93DB0173E07B
:104CD000B595A7957A95E1F7B695BA2FAA27B79516
:104CE000A795A80FB91F6770FC01E00FF11DE03810
:104CF000F10514F000E8081B862F02C0220F331FB5
:104D00006A95E2F7722FF22EF094632FE32EE0946F
:104D1000AF5EBD4F30E010E0E32F032E000CFF0B21
:104D2000E017F107DCF4E40FF51FE491F0E0082E42
:104D300002C0EE0FFF1F0A94E2F72D91ED012197BB
:104D40002F21E7232E2B2883C058DF4F28812E21C7
:104D5000E62FEF232E2B28833F5FDECFDF91CF910D
:104D60001F910F91FF90EF90089580E0E1E1F2E054
:104D700081118FEF00248193819381938193039418
:104D8000D1F708959091AB07982329F49091AA0741
:104D9000982381E009F480E00895FC0180911002DD
:104DA000882311F13FB7F89482E08093E9002091C5
:104DB000F200822F90E01816190614F481E090E0BA
:104DC000882339F0289844E640930F024091F1007F
:104DD0004083222339F02091F200211103C02BE6F9
:104DE0002093E8003FBF08958FEF9FEF08952FB7FE
:104DF000F89483E08093E9009091E800892F807215
:104E000095FF04C09091F20080E4891B2FBF0895A4
:104E10008091070281110DC082E08093030284E03B
:104E200080930402109206021092050281E08093A2
:104E3000070283E092E00895CF93DF931F92CDB7EE
:104E4000DEB76983DC01ED91FC910280F381E02DF6
:104E500041E050E0BE016F5F7F4F09950F90DF91F9
:104E6000CF91089583E08093E9008091F200882338
:104E700019F08AE38093E80008950E94F72690E0F5
:104E80000895CF93DF931F92CDB7DEB7FC018485E1
:104E9000958597FD08C02FEF3FEF358724870F904A
:104EA000DF91CF910895CE0101960E94CD26019702
:104EB00019F4898190E0F3CF8FEF9FEFF0CF0F933C
:104EC0001F93CF93DF931F92CDB7DEB78C01FC0108
:104ED0008485958597FF0BC0CE0101960E94CD2653
:104EE000019771F4898190E0F80195878487F80132
:104EF000848595850F90DF91CF911F910F91089533
:104F00008FEF9FEFF1CFFC018485958597FD0BC056
:104F10009FB7F89482E08093E9008091F2009FBFF0
:104F200090E0019608959FB7F89482E08093E9009D
:104F30008091F2009FBF90E008954091FD01509153
:104F4000FE012091FB013091FC0142175307B4F49C
:104F50009091E8009570E1F39091E80092FD19C0FE
:104F60008093F1008091FD019091FE0101968F7375
:104F70009927892B19F48EEF8093E8008091FD0129
:104F80009091FE0101969093FE018093FD0181E0D6
:104F9000089580E00895EF92FF920F931F93CF93AF
:104FA000DF93F82E192FE62E042F81E0860F880F4D
:104FB0000E949D2783E00E949D27CF2DD12FEC0ECC
:104FC000FD2EF11CCE15DF05B9F007FF13C0FE0161
:104FD00084910E949D27182F80E00E949D278123A5
:104FE00021968111EFCFDF91CF911F910F91FF900B
:104FF000EF9008958881EDCF81E0F5CFDF92EF92B9
:10500000FF920F931F93CF93DF93D82E8A01EB016A
:105010007B01E40EF51ECE15DF0559F0D7FE12C058
:10502000FE0184910E949D2721968111F4CF0FEFFC
:105030001FEFC801DF91CF911F910F91FF90EF906B
:10504000DF9008958881EECF0F931F93CF93DF9366
:105050001F92CDB7DEB782E0898342E450E064EF6F
:105060007BE480E80E94FE270E940827DC0112965C
:105070000D911C910115110589F0D801ED91FC915C
:105080000280F381E02DBE016F5F7F4FC80109955B
:1050900097FD04C0F80100851185ECCF89810F9040
:1050A000DF91CF911F910F910895615030F02091C1
:1050B000F100FC0120830196F8CF289884E68093C4
:1050C0000F0208953FB7F8948091F3019091F40195
:1050D000A091F501B091F60126B5A89B05C02F3F20
:1050E00019F00196A11DB11D3FBFBA2FA92F982F0E
:1050F0008827BC01CD01620F711D811D911D42E009
:10510000660F771F881F991F4A95D1F708958F92D0
:105110009F92AF92BF92CF92DF92EF92FF926B017C
:105120007C010E9462284B015C01C114D104E1049E
:10513000F104B9F00E946228681979098A099B096B
:10514000683E73408105910580F321E0C21AD108C1
:10515000E108F10888EE880E83E0981EA11CB11CBE
:10516000E4CFFF90EF90DF90CF90BF90AF909F90F3
:105170008F90089565E070E080E090E00C948728BF
:105180008F929F92AF92BF92CF92DF92EF92FF9257
:105190000F931F93CF93DF936C017B018A01809162
:1051A0000B01882309F45CC080911002882309F464
:1051B00057C08091020280FF05C08091E0008260AC
:1051C0008093E000E801B12C8AEFA82E93E0892EAD
:1051D0002AE3922E209711F4BB20D9F10E94F726E2
:1051E00081110AC0AA94AA20D9F161E070E080E0A0
:1051F00090E00E948728EECF8C171D0611F00CF06E
:105200008C2F9FB7F8948092E9002091E80025FD4B
:1052100002C09FBFDFCF282F30E0C21BD30BF701A6
:10522000815020F041914093F100FACFE20EF31E3D
:10523000BB2021F09092E800B12CEBCF8091E800E8
:1052400085FDE7CF9092E800BB24B394209709F343
:10525000F3CF5D9884E680930102101611063CF0AE
:1052600081E090E0F6019383828310E000E0C801C2
:10527000DF91CF911F910F91FF90EF90DF90CF9032
:10528000BF90AF909F908F90089580389105B8F4AB
:1052900060347105A0F420E191E061FD94E060FDCF
:1052A000990F62FD9295687F269FD0011124A80F67
:1052B000AF5EBD4F8C91442319F0892B8C930895D8
:1052C00090958923FBCF0895EF92FF920F931F9340
:1052D000CF93DF93FC01CB0177FF06C091958195B9
:1052E00091092DE22083319620E00AE010E0422F60
:1052F00050E0EF01C40FD51F0097E9F48A0115951E
:10530000079580E0282F30E020173107E4F4BF0133
:10531000620F731FDB019C91DA01A21BB30B119783
:105320007D01EE0EFF1ED7012C91DB012C93D701DE
:105330009C938F5FE7CFB8010E942837805D8883F8
:105340002F5FCB01D4CF1882CF01DF91CF911F9176
:105350000F91FF90EF900895AF92BF92CF92DF929E
:10536000EF92FF920F931F93CF93DF937B015A012C
:105370006801E90115E085E0C80ED11C499144237C
:1053800081F04F714102A0011124435A5E4F05E0A4
:105390002FEF30E0B501C7010E946026EC0CFD1C28
:1053A000EDCFDF91CF911F910F91FF90EF90DF90A4
:1053B000CF90BF90AF900895CF92DF92EF92FF927F
:1053C0000F931F93CF93DF93EB016A01790113E0F1
:1053D000F70141917F01442379F040524102A0013D
:1053E000112444555F4F03E02FE330E0B601CE01B6
:1053F0000E9460262496ECCFDF91CF911F910F91F0
:10540000FF90EF90DF90CF9008952F923F924F92B0
:105410005F926F927F928F929F92AF92BF92CF9244
:10542000DF92EF92FF920F931F93CF93DF9300D001
:1054300000D000D0CDB7DEB78C017E836D834901EB
:105440005A01CB018E56994F1C01DC01AE5FBE4F55
:10545000BA83A983CB0101969C838B83E091A30738
:10546000F091A407E00FF11F45905590659074905E
:10547000E62DE595E595E05CA981BA81EC93F0E035
:10548000E851FF4FA081B0E0A50194010E94D03601
:105490006B017C0160FE28C080919C0790919D0764
:1054A000019709F050C08D819E810597E9F48091A4
:1054B0009E0790919F07A091A007B091A107019727
:1054C000A109B10980939E0790939F07A093A0071D
:1054D000B093A107892B8A2B8B2B31F464E977E0F9
:1054E00082E996E00E944B37C201009759F0F20121
:1054F000EE0FFF1FA70196016B817C818E0F9F1F0E
:105500000E94052A0D5F1F4F61FEA8CFF101EE5FDB
:10551000FE4F108226960FB6F894DEBF0FBECDBFA9
:10552000DF91CF911F910F91FF90EF90DF90CF907F
:10553000BF90AF909F908F907F906F905F904F90B3
:105540003F902F90089560919E0770919F078091E2
:10555000A0079091A107A70196010E94E336672B4F
:10556000682B692B09F680919207909193079C0113
:105570002F5F3F4F309393072093920733E0880FBC
:10558000991F3A95E1F764E977E08E56994FAACFD3
:105590008F929F92AF92BF92CF92DF92EF92FF9243
:1055A000CF93DF93CBE0D0E086E0C82ED12CE12C66
:1055B000F12C0E944336A70196010E94B1364B019F
:1055C0000E944336A70196010E94B136D401A35828
:1055D000B94F2C91FB01E358F94F80818C932083C4
:1055E000219739F7DF91CF91FF90EF90DF90CF9027
:1055F000BF90AF909F908F900895CF92DF92EF92DF
:10560000FF920F931F93CF93DF93809164008E7F5F
:105610008093640080917A00806480937A00809106
:105620007A0086FDFCCFC0917800D09179000E946D
:105630006228AB01BC01CE01B0E0A0E0DC019927FB
:1056400088278C019D01040F151F261F371FC901D4
:10565000B8012091640021602093640061157105F8
:105660008105910511F00E94923681E090E09093BF
:105670009D0780939C0710929E0710929F0710929F
:10568000A0071092A107109294071092950710920C
:105690009607109297071092980710929907109208
:1056A0009A0710929B07109293071092920780918D
:1056B000A207882309F44FC00E9443362BEE30E046
:1056C00040E050E00E94B1366F5F7F4F8F4F9F4F99
:1056D00060939E0770939F078093A0079093A10704
:1056E00086E89DE29093A4078093A30721E030E031
:1056F00040E050E070E060E081EC9DE10E94052A0E
:105700008091A207811110C084EE91E09093A407CC
:105710008093A30721E030E040E050E070E060E0DB
:1057200086EE98E20E94052AC2E9D6E0C12CD12C6F
:105730007601C394E991EE23A9F00E2E000CFF0B25
:10574000E851FF4FA081B0E0A70196010E94D0363A
:105750006B017C01EFCF0E94433624E335E040E04B
:1057600050E0B0CF62E976E08DE796E00E944B37DB
:1057700010928F0610928E0610928D06109285065A
:105780000E94C82A82E090E090939D0780939C0736
:10579000C0929E07D0929F07E092A007F092A107C7
:1057A00010929407109295071092960710929707FF
:1057B000109298071092990710929A0710929B07DF
:1057C000109293071092920786E89DE29093A407A7
:1057D0008093A30721E030E040E050E070E060E01B
:1057E00081EC9DE10E94052A8091A207811110C0E1
:1057F00084EE91E09093A4078093A30721E030E02A
:1058000040E050E070E060E086EE98E20E94052AF9
:10581000F0909207FA941FEFF11671F1C2E9D6E009
:10582000E12CEF14BCF78E01085F1F4FFE010190C1
:105830000020E9F731978E2F8C1BF8010190002092
:10584000E9F73197E01BE8175CF4DE015096F801A8
:10585000CE17DF0771F082919E9190838C93F8CFE1
:105860008E1307C0B801CE010E94423718161906E0
:1058700064F3E394E801D5CF10927206109271069A
:1058800010927406109273061092750610927606A6
:105890008FE097E29093780680937706DF91CF911F
:1058A0001F910F91FF90EF90DF90CF900895FF929E
:1058B0000F931F93CF93DF93EC018B01FB01F080DB
:1058C0000E949B36F81621F06F2DCE010E94A33660
:1058D000F801F1802196CE010E949B36F81621F046
:1058E0006F2DCE010E94A336C801DF91CF911F9189
:1058F0000F91FF9008950F931F93CF93DF938C0127
:10590000EB010E949B368883C80101960E949B365A
:105910008983CE01DF91CF911F910F9108951F923E
:105920000F920FB60F9211248F939F938091E100F5
:105930009091E100937F9093E10083FF0FC010925C
:10594000E90091E09093EB001092EC0092E39093C9
:10595000ED001092100298E09093F00082FF22C0B8
:1059600093E09093E9009091F200992319F09AE363
:105970009093E80090910102992341F090910102E7
:10598000915090930102911101C05D9A90910F0284
:10599000992341F090910F02915090930F02911131
:1059A00001C0289A84FF18C08091E2008E7E816039
:1059B0008093E2008091E1008F7E8093E1008091EE
:1059C00002028E7E8061809302029F918F910F90E0
:1059D0000FBE0F901F90189580FFF7CF8091E200C7
:1059E0008E7E80618093E2008091E1008E7E8093C4
:1059F000E100809102028E7E8160E5CF1F920F92BE
:105A00000FB60F921124CF92DF92EF92FF920F9375
:105A10001F932F933F934F935F936F937F938F9336
:105A20009F93AF93BF93EF93FF93CF93DF93CDB744
:105A3000DEB76C97DEBFCDBF1092E9008091E80021
:105A400083FF25C068E0CE0145960E94552882EF6D
:105A50008093E8008D8987FF39C09091E80090FF1E
:105A6000FCCF982F907609F034C19E894F89588DCC
:105A70002F89F88C911131C0803861F58091000236
:105A80008093F1001092F1008EEF8093E8006C9605
:105A90000FB6F894DEBF0FBECDBFDF91CF91FF915F
:105AA000EF91BF91AF919F918F917F916F915F9196
:105AB0004F913F912F911F910F91FF90EF90DF90A9
:105AC000CF900F900FBE0F901F9018959EEF909360
:105AD000E800C7CF1092F100D5CF913059F4811171
