:100000000C94E6280C940E290C940E290C940E29BD
:100010000C940E290C940E290C940E290C940E2984
:100020000C940E290C940E290C94852E0C94F42E0D
:100030000C940E290C940E290C940E290C940E2964
:100040000C940E290C940E290C940E290C940E2954
:100050000C940E290C940E290C940E290C94263124
:100060000C940E290C940E290C940E290C940E2934
:100070000C940E290C940E290C940E290C940E2924
:100080000C940E290C940E290C940E290C940E2914
:100090000C940E290C940E290C940E290C940E2904
:1000A0000C940E290C940E290C940E2900706E04E9
:1000B000198067E137B07066A0406B54E225741672
:1000C00001B7CA53007055429A216E1462B31910D9
:1000D0001C020070F1516E0000004D0733206EB419
:1000E000FB139CA57E73F51708E8DC160020F101D0
:1000F0000000B7045F05B60201027F0246076C04E8
:10010000000000007F020B0500006E042105620361
:1001100000003B51B107F11100F070704D2719003C
:100120000000000000E0AEB74647501195A3B3674A
:10013000CD732E98368244220D258214B7E4B7641D
:1001400000400902E0060000009000104607B1914F
:100150001B1400004D279F487C78FC71F076A72186
:1001600081126E64AB51B1516E846F703B01190006
:100170006E046D04E700E300F05169230262CD01D3
:10018000A506B101F706C8030000B101000019007F
:10019000B191603836070775D3D600582D944617AD
:1001A00000006E64004033702F34DF34A30081E818
:1001B0005A44F401FD076D50191000D03300B754B4
:1001C000D4F1FAC40F037D058200530700E000B0AC
:1001D00000406E0439080000B1710040BA0708976A
:1001E000001021053380B880786318110D05176859
:1001F0005107E101B20519001A88198039780040C9
:1002000000208F9000E00000000019000000007046
:10021000B1B100401BF40F385F558328B7647032CA
:10022000000000B00050F1410060621300103BB1CB
:100230003B117055004000201B0400500010940832
:100240002101540600101BE4F121AF01B9354F77AD
:100250006505000000002001080700000000000004
:10026000D904B73421313360D60550011300007032
:10027000B764001085E76E64504162E3396217404D
:100280000206DA0250076E246EF46751457208B711
:1002900000406E2419601B34589200107F020090B9
:1002A00000506781001000B0671180C800506E24B4
:1002B00042038507DA03008000E0004033D0B191AB
:1002C000DD34000000000506001000B06E1481E26D
:1002D000500175762BC3A831670100B059386A16F2
:1002E00033F0507746476EE408676E440090F1376C
:1002F0009C2333984A75166499D77B04DD12B5E2C6
:100300004268BC4719406E64641607E75C024D57AB
:10031000197070B5704557720060001013A44E57E5
:100320007A256AE4E062B1416EF4807899216C1418
:1003300000E00020EAF00070672162F335B88336F0
:100340002D36E73512086F3789822547CEB76AC741
:1003500064266BE62F66E3466EB43B011950E80451
:100360005C08000000001B049B023300000000003A
:100370000090001019007000F10100007F520F473B
:100380000020B7C41930378359658048197021F5AA
:1003900033701E22B1E13B616E44002000206E8468
:1003A00000200010C6646E04000000006E94211549
:1003B0002808459267614647008067C10000000039
:1003C0006E84008000B06E1400402E067F02B101E2
:1003D00008E7DF6700406E5400A0706302364A12DF
:1003E000148003027B050000884744775B121C6879
:1003F000C9743825380153011707B7347E3200001D
:1004000000E06E64BD473B01400500006203005000
:100410006E1449956213000046E740650040620390
:100420006E0480086EE46E640040B11100B0B71431
:1004300000E00060464700003B01000000F019703A
:100440006C2000F00030000067013300E605958461
:10045000193619301E010000B10100302838460756
:10046000CC976E107F024A010807B1016E1400B0EC
:100470006E14000019F000608576B7641717637179
:100480000608631841B7A7375A8871A6C006F171EC
:1004900000D000405C724A313BE100600DE1006039
:1004A00040457F027E66D231CB577FA2F017DB40FA
:1004B0001C2303872CB7B79450115D74191000707A
:1004C0008000000000007FD200906E3400B0003049
:1004D000001067614647007000E000602848081778
:1004E000A1306E740E9358D7DE36EF27F3F3F7631F
:1004F000190021014D076E346E34000019E0F72613
:1005000030682EE600600040B7046E148706E4F4FD
:10051000A1625E48480146E56E046D35C637B68077
:10052000000000000000B7441B6400106EB44617C2
:1005300019406E341D82B06562900060B14100E0E8
:1005400062B345421F603300AD61F0E57D626342F6
:1005500070B0029600300030D33133003300000019
:10056000000019F05FA5E655FA06000021016E149F
:1005700000F06E147F620847857715E2B460784416
:100580006E046E04000085070000000021E146674C
:10059000E9403C9191546542EAE142F06326E2571A
:1005A0001A553118C9C0000389135497E6A1615345
:1005B000AE756E74CC1026836E72F42361686AE3A4
:1005C00000504667334046773B01217500306EE4AA
:1005D00000E06E54001008D61A56C5748FC16578B5
:1005E00000000000CB076E848007077800406E652E
:1005F000F500B374DB44DD8232676E447F72686657
:10060000004000700C4500800020B05570E3792256
:10061000AA8433006E746D2521650030F8A20010A5
:10062000C721338104A11A131077332068617C310C
:10063000A1C3A861968367558960E4F6EE13AA21E9
:10064000710023023D08000000003808000000008F
:10065000460700F000F0B171008000A03713089742
:1006600000103C08BE6400103004000000000000D0
:1006700000B04138001000B0001019401B74001089
:1006800033707A141AA02C087A64C6727C851920FB
:10069000EC816D6533E495636D0500006E00A50681
:1006A00000009D02D703178700B06F26A796EB10B6
:1006B00018004872CD61751808D7FC619150E6F4B6
:1006C000950754105E048002690200D01B6400503C
:1006D000B70400006E0400803B2100809D070000ED
:1006E00017076C30B085E96400707F52002000E08D
:1006F000B1612345B17100105001818545B60346B3
:100700008AC65D932602BB7404363E76235507469F
:1007100000206403D90242115E26C600107215271C
:1007200094E33D154455FA52F1677455F8911387D7
:100730000256B1B133003BE11E626E4421F16E34CA
:1007400046375C0233008E00008062F38028B101DE
:100750000206000000907F120000001000E0080771
:10076000DF02B101BE047FB2B131EF116E70F7B09C
:10077000364800E0006000409CD67756724653A78A
:10078000C6751A24B7B46E046D350B359593595858
:100790006E5448C04F51F4E4A2201910A145DC0367
:1007A0009822C5B3A9369E2333801B040070E6E56A
:1007B00000600040D9166EF045124D075F0500003D
:1007C000AC048B0196040090B111B101F8009E08B1
:1007D0000000B10121056E00B7E40060004008345C
:1007E0001B04D8812D20DD217C50156611657444D1
:1007F00002660040B77446070000000000004D028A
:100800000000F1C1CC10E5250060004000200B0580
:10081000865700000A8847675E8200607FF2953045
:10082000DA042E0400000AC238822F73B3A523A570
:100830006365E8040C030000007021B567412101E5
:10084000B7040000D8920010000000C00020004053
:1008500000F03B7100206E0400007F0200B0003009
:10086000FD10009017170000466746A74055889670
:10087000FF6023035C6418445B75336009486E7441
:1008800047417FD819101B74B7B40040B7E408B7CC
:1008900000406761704319709AD3003019306EE4DC
:1008A000B1D1A007A951B205402408A77954F32675
:1008B000FBD10D71002000003B0100007F02000011
:1008C000BA07A89600706E247E18ED27524719E0EB
:1008D0006E64714200000000B70400001900BE04FD
:1008E00019A045A240650000500100001E01B70498
:1008F000000033B0A6B76E30C9C126642854230562
:100900005A05667100700060001024154204BD0293
:1009100018974D55C8770E21F217D123E5C4001062
:1009200000200000B1010000B11100200010469726
:100930007B18DA06B704C8036E043300468700004C
:100940001970ECB700406E1400D0331063630040A0
:1009500000701970F1B1002049B100100040DA03B5
:10096000DA0319000000002067813A031D01F1013C
:1009700000E000404617460700007F0200E06010DC
:10098000001046176EF4331009F86B92BA15231154
:1009900009B8001032071B040000B7649C42070826
:1009A0007083BE14BF64F4361C349D215D24A5679A
:1009B0006E3450E1F766194000000000170770D34D
:1009C0003B416E0018B56C34001021C300706761A4
:1009D00046074607000000E0F726FC61C803C10592
:1009E00062036E40A5D65011EC174085F2716C730E
:1009F000B1B108471990FD515D886EC4B64549579D
:100A00002B613E42B0756E646DA57366AD44733262
:100A1000A4071733B7F400607A24E2048D63043826
:100A2000C7349D769E525B419478B1C1B7E4707330
:100A3000F8F684666F35B762194000704667F14179
:100A40006D756EE400607C6600003300B604EF3123
:100A5000612233505DE6C7B71E4233006701B10122
:100A600067E16E64F84267E1506100401970B5605B
:100A70006E1439326E841B24007000B00040B784BD
:100A80001E02007008A2B6374E227ED5B9E287005A
:100A9000FAF0B7041B24148600E06E44451233506C
:100AA0004A105B046E84008033B06EE46E44C6D19D
:100AB000CD743456D73200306E0488932015170752
:100AC00093051993B4540CE285B7004000700060A0
:100AD000E5106E7446F74C21F5C4FF41E17308B789
:100AE0005D74ED612AB0DA30DA1000604D4714779A
:100AF0000000000000000897B714000000B01910B3
:100B0000D44300E01960440733E08AC7E81488162C
:100B1000BD444F5200906E14F306000028084608AA
:100B20000807C4046E0000F000E06E145702B7021C
:100B30003A0037621427406500E07F6246473AB1C9
:100B400062381B18002000606E3019006E00320100
:100B5000B7746E644617250429B83C55B9875FC53C
:100B6000FB260A6500F0FA66EAD7E372B867006010
:100B700041418577FA1619F01E118008DE011B0429
:100B800000D020916A221B040000000067E1CC63C2
:100B90000040F1711DB57F42B0010000000000303F
:100BA00000209468CFE59D626E446E4408A783568A
:100BB000F1B100A00060BE478D37434314C894B51F
:100BC000AA1309B4B900227071F3E8B536017605AD
:100BD00098081605B7046E04000004126771E85403
:100BE0003320E490BB016EB41138FE070020009062
:100BF00019806EE41960004000B000100040F1510F
:100C0000A400B186E3C34B680887351300F093183E
:100C10005CE56E643340F11100B000106E74B16198
:100C20001910E8206E641C30B095B7140807BBE2B9
:100C30005F6521410000000070033B01DAB4FA5304
:100C400067014607000070436784A3821B84E89213
:100C50002145F4E5596300406E246E643B31001079
:100C6000E1B0171733B062D3B12191E3C4E5721438
:100C7000C09221C52A5809174922E2520090191042
:100C8000D613940884076C006E74406500106701E9
:100C9000370130047070B0B50040C89000000020EB
:100CA000E7073003E4056E7400F019606EE4BE647B
:100CB00045421266F3460070270400000000D5018B
:100CC0001D004502B1B1007032376E04A406F6046F
:100CD00000E03360B7444005F1E10D7300E01960B6
:100CE00000406EE414675F42B1E185670040005048
:100CF0003B11C60419004502F4006E14ECB100105B
:100D0000333000A0007019A01B74086786025001E0
:100D1000B70462B36E34191028083207D70300F005
:100D200009336E70FB37C34309812EA7C234CD50FF
:100D300062931B14000050E10010002000003300FB
:100D4000100533401910005000000000500100A0B1
:100D50004C75004027D34B302C000A77DFB2194086
:100D60003BB17F92B1510020CC616E3419B000309C
:100D700033100010BE34FC41367532102923A527EC
:100D8000DD952758677165666E146ED4B734B774F5
:100D9000006000401970BE048606660000001B005B
:100DA0005B0700D0007085820050048074273C816E
:100DB000CFC0EC008B90F0254A81D714043004405A
:100DC00030F6B5633E0626585387D62200007207D8
:100DD00059054222006090810080174200006C0398
:100DE000B606850200406EA2D8104D487A22411402
:100DF00000C00460003004A00514CA20884004D05C
:100E00008F2607473C161C40C5709A162426000002
:100E100000004B08BE35CAF05437E74426070400EB
:100E2000BE0484000000000047010000436204305B
:100E30004D54A11104B06967381242F110408FA6D9
:100E40004275362685D27A426C837A02E206000029
:100E500000204B507A52AA27DB23BC267C060000D8
:100E6000CA0085D20040008085629ED2002000002A
:100E7000000004000070F6473A1800C0B6762387D9
:100E800047077A028502D5274E74D97766577E8444
:100E90000420170252009105DF56D3D00B7570570E
:100EA000D18200206CD3856285024266FAE66362D5
:100EB00000C00000005072A7537400208F86743762
:100EC00004105E077A022600D810D52185827407A7
:100ED0006E02000004009808B005004036A64D8858
:100EE000745722D7D770005000201C1100C0CD22AB
:100EF000D270F6803711FD17B0F300808B66015079
:100F00002E86B02356066B038502B686B0D3D9046D
:100F100000D0D87004405D32005000400080BA8894
:100F2000D602008085423E070440E9019C02CAA027
:100F300085C2850299776B77B418ED64DEF22B5386
:100F4000CFB85DA100204DB800800040B0B3004094
:100F50004302005000800020006000B00060B2A694
:100F60004908E735B377CBB7574753454AD5D3023E
:100F7000D5A10470CA20003000405324000072073D
:100F800060070050858209280080CAD0FA05B07336
:100F90002F56D045BF447E1635574B071100000031
:100FA0000090B0D30040005005840020D09504B0DC
:100FB0004D38131510E50460E03455A8B6665B5350
:100FC0005336BD871AB841177226A436CF445978D4
:100FD000F606E7064A027AC2B616BE148EC68532F7
:100FE00055876D185CF31638DB54C3050848B0E329
:100FF0000030005000000000000043B2004000003C
:10100000B53385420020FB73005085720400040054
:101010000000440485B20030CAA00070BB28C1F7AC
:1010200061064F2007935F236773C4C122253150A7
:101030000AD298414128F267FB25453292D3269186
:101040007961D325DF070A781552002052174B909B
:101050005437B024D6F29B38BD1360E80887770276
:1010600074A77437567400D00070CA00266885B221
:101070002668F97500100020F17432131D24430214
:101080000000040000400400D602450300000504EF
:1010900056A64B904D2400B000706D37FC5602668A
:1010A00009688CF2937827876023F48689017D484C
:1010B000C2F38F26B04804001A02001097A78C12C2
:1010C00036516C83822872D76D428582F8065A05A4
:1010D000360617B2FB470480008004D00504D60210
:1010E000000000001DD785227237CF9594E56F3739
:1010F0005AA666A85F00E25600D0B0353890A550D9
:1011000015674808A1014302FC56D8A05384E4A403
:10111000FAC51C7688F0048004607A728FF6C521C7
:101120004E5885820020E37500400010A131004038
:101130009E2204C000601732845053C456364B10B0
:10114000D622EF8374470000D60218234D78007032
:10115000D6024B0034044B007A02720700408562CD
:101160000080046095B600606508000000007AA267
:101170009091E22653B4000072578C7200F633143B
:10118000F9B0719042535403580500000000B606B0
:10119000000046937517043182B799600E539E0084
:1011A0006E07B5040000820866070000AF057A02EA
:1011B00074F7BE84D612AFC34796CB02B1F458E1A0
:1011C000450657E898A58680540474E70B6500002F
:1011D0008502C6009E627AB26C63470100C04B80F4
:1011E000D9041D07000053F400804B60A201D90010
:1011F000000043D25440B5804461EFD5E944A4587F
:101200000080002085C20060003017526F876C2379
:1012100000004B006E02D612857204206C23B67853
:101220006073E6A472A268374B00C10668070080AD
:10123000936543727AC24D687437F3220460342098
:10124000D6028B00AC086C430000850253041C7866
:10125000BD64A8532F17D145D6B16BD285822A48D9
:101260008507040000007207040085D204406C4327
:101270007A027207000004D0DFE46C537A926CD3D8
:10128000AE64A40366B7BC3391032501000000C01F
:101290008522D8205AE2ABE2E545B6760010BC24A0
:1012A0000000000000004DD800A0008000508262C5
:1012B0008E28000000007207AB13D5E7D913D96759
:1012C0009B30046000F07A425C623C17DE73BE24FF
:1012D0008BA294015A5746074801B4006C03007072
:1012E00085720370BB134331866554B6D0673E04E4
:1012F0002E034D08E7F485B20050FA8543B2008012
:10130000D4E1D5B2AB458F40C6035501CE72008003
:101310009016A2E34B100080D567D30657672B5574
:10132000F986662700508582D82000800050E85159
:1013300053D400404B807A8200D000006CA3007030
:1013400000200030A4917A5204008502260800C0D3
:101350007260F63158225835434662038F0500000B
:1013600070070000000004F000E0D6528532A15161
:10137000004085E2F554071136B68DD284081897DF
:101380003675B222952733777377D8000000B00501
:1013900091A3B913D86045B40040A10100B06C23FB
:1013A000BA067A621EB42F63193185B2003032D288
:1013B0004AC49540CA508C22BE76A59131A22F44D2
:1013C0005E0200000000003000404B2000003606A6
:1013D0000000006000F043726E9574E0EE75C80284
:1013E0000400000004507487852272D75E4257853E
:1013F000040000005D016CF818B37A8200007207E7
:10140000B606000072B74B584B604352000052447E
:101410008502000017027497001013B7EA41D682C4
:101420009B4013074B08D6020000D800BB5433631F
:10143000E6877BD622A87C444B906C83BE443695CD
:101440000DD5F6437177B4F338757640E8362E60E3
:101450008CA1F316F705FA57B7F067574DB8729796
:10146000047005B03BA2697664640C37A06500087F
:10147000CAB06837B16500C0D50736062A23E560D3
:10148000B4C7D8F42533D76253284081C2F8BDE0F1
:10149000806325464A7670255CC8CDD7928044B2D9
:1014A00000409B00B6E604B06C434D040090D800A9
:1014B000D90400007007BB66D0B57A62B64600005A
:1014C000000000B00040040074478502D5073F3596
:1014D000D2608562F90300B0A451BE0899060000ED
:1014E0004B6085B20060DA07D8000806006000F0A3
:1014F000007084B0E944EE80000004000000E9546C
:10150000CAE0577743027A0200000000000043025D
:101510008228047000705477C20546865DF1002071
:10152000928758E7C413A920C9A057362B12003060
:101530000040002065F800B0005000607A123526A7
:101540000000D800B00304D00460E302BAF09013A6
:101550008B23AF428C020000D8D0044070074302B6
:1015600070B755360070006067229205BE04D80639
:101570007A221C717A7200E000F04B50B65609884E
:101580004322586585D27A227A0200000000530473
:10159000FB03740700B085120000000058057200BC
:1015A00000B00D466C0343129E91E141BC717FA4D3
:1015B000C8164B710F66E1133342A00252020504B4
:1015C00004207E84EC771157007000D04C40F3402B
:1015D0004D686C103E1809C679A61D3454471D216C
:1015E000E422F3F120340E46418504D00000483057
:1015F00000407427ABB398484D080000D5010000A7
:1016000000B00040D8000030D6421E28D6D27AA2C0
:101610003223CA8085E2B8108C320D33C4578678E5
:101620005C41611717020000980625414302000043
:1016300047F694670420553024C0360027528B802B
:101640002D274B000000D50700D00584D40700905B
:1016500053D48542858200D07207B9C30060FE3042
:1016600037D6E7862B37568656C36F56E311EDF40F
:10167000B118C5C6DD669C367407000000004BD06B
:10168000B34236860000CA000B0500E00000256169
:10169000B9039507B606D8C0006004309667F662B5
:1016A00000705D07E50200008562FB6700706C1347
:1016B0000020048004C0CA900460B52287B7DB52C2
:1016C00076586AD236833C00000100004B0000B01F
:1016D0006C33524724766C73B6E6744736666C6397
:1016E00055E27A224342FA7500700040A1414D480C
:1016F000ED05000000002F040000000000E06C5326
:1017000000207A827E845E0227084D0800000000D7
:1017100000B089331F06607740881DC485320040C1
:101720000420E974857237556E80D8200070B9C3E3
:101730008A63FB533D053544F5C300408582BEF402
:10174000F9870460AD4467851D2600C01712B646B0
:10175000CDC5046085327AA20070CA2000600030D6
:101760000050D9477C565075EB31FD366C88FBF63E
:101770002531A448B646D6027A0285727247851290
:101780000584004093657457E584D622F332377898
:101790000885A5F346E41B7000D06C431A824312FF
:1017A0007AE2A34050E75F37F4100EE6A131005013
:1017B0006053698200200050438285220050858258
:1017C00000205D020000000000D000E07457C7D385
:1017D0007365C6357067F80124449C46B007000065
:1017E00000600000D577B0E317724342348845D5D6
:1017F000D90443A200C0430239D6B6460080006037
:1018000072D7172217029501CA00C1054D048F0631
:10181000007000407A1285026C030D02D64200006F
:101820000000B6969655003000B0853285820000E3
:10183000000000001E1789D50480EC35AD444C2211
:101840006CA300D0D23685A253E4FB134705B6063D
:10185000740757C76E728582B075571598277E0436
:101860008572D97422010000000000004D08AD040B
:10187000586548D78D74CB40A7082902005034889A
:1018800000209143D800CA002E43E400D00800E0B5
:101890000B457D5818A2D247998185D2D744B08391
:1018A0004B3004407D2800009D0200001D548562DD
:1018B000CA80B666A191A411ED954B580030042062
:1018C000EE7044745E22A1712D70D880D860002023
:1018D000005000D00070C6A09068720766F7CA700A
:1018E0000A076C52C7102D101F6804B08562D840DB
:1018F00000003606B7B391F1E336A60814C70470AA
:10190000BD0872B71A52B6C67A227A229998475001
:101910000F2029E27B225123AD0558C0B536F56171
:101920008F903606D46604C7642385B23B47D40340
:101930000000DAC4A071CA700E423316854200B0AE
:101940008C2436D600404D880060CAB0BD68008047
:101950004B686C683D488572537400F000B000809D
:1019600098B70000005004600450006000000000C0
:1019700085024315E9B2373406A743C2D8007EA0DA
:10198000CA70042074570040003000505A210010E3
:10199000F0070E06B60685B2584523028532A1F13E
:1019A000CA40D944F1E2C756CEA09B605E323E6584
:1019B00004002A846D077E68CD220588BED4ED120E
:1019C0001FE0DC03CA60DF784DE8D9420070515651
:1019D000E774666743F20070C3A34BC085024B30C7
:1019E000745700400400ED05AE020010C3A3B61604
:1019F00045050000000000300090BE5400B04B4090
:101A0000008072C7009004608B508538CA100400B3
:101A1000ED055F0266474B00D602C807EB05BE0422
:101A200017040000040000204BF04A20006004402E
:101A3000E8140430B043002000C00060CD3234C34D
:101A4000D28340274BA02DC21702005085829A22D4
:101A5000F12443D2E841DC7765F7B766D800D800B7
:101A6000040000007A020000230485020000D6A2D0
:101A700009C30400A1A191C3850200007A028F0668
:101A8000859200D0854243020000A101046058D530
:101A9000002085824352A151005024867D284B307E
:101AA0000440AB280D62C0C70000E3540080002052
:101AB00004302B4500200000000000007207ED07F5
:101AC00056060040040000001924B656C512B6564A
:101AD000702720818A109325368674A78572D226B6
:101AE0008552007086629E48EA0421000000D800FA
:101AF000540600005B05000000204A808F28C13595
:101B0000BE100751A23400800010542100A00040F4
:101B10009A1458E5A204544100500010E609C2028C
:101B20000D00E1506CC7063400300080281D69802C
:101B30000020E6D9667D9360082A75E33004828B25
:101B4000FCDAE5A97A78280DFB02340800607B4AAC
:101B5000EF240000540114000452DDC1B19400C010
:101B6000E140A51D54015401000000A0835DB6357D
:101B7000364D005000103831121A0050AD87A0DBEE
:101B80005401000054012E0A001000E00000293624
:101B90001B1214501BA48E3800300090002054619A
:101BA000014500000020F61217EC280D000000008F
:101BB000780600005401F809007000001315E609CA
:101BC00034080000003000807816E10000C0A23424
:101BD000060C540196030432288D9ED12D06130065
:101BE000000000809ED19C01001013E5E6097D0DE8
:101BF0009C0D9C0D048254C1E1C000805421E6D9A3
:101C00001450E3C98239FC479B51AE185401730D3F
:101C10008E080000E100280DFAA300F00030130543
:101C2000300D00005461B63A341E53C82D68007060
:101C30001F5000C0283C00E004E26D750060007099
:101C4000E120283D00803B1A9F0000000000A28494
:101C500028CD678101F834691E703146E2D80D281D
:101C600011C9A427ED12E5736A32269C2E0AEA0BED
:101C7000310AD800543134E88BD213256C6716062C
:101C800000003A030030F409B6D5D8B033173B87CB
:101C90007E647914A66C1305C5391E4672AC129287
:101CA0000704E74BAD177602EF72CB9392748B6A01
:101CB00071C798C2A198847C054D72D900D00010DC
:101CC0005B836CD76C0754B16A112D260040AD5769
:101CD0005411670AFC026A006D056D05070154D1B5
:101CE00042A79C7D286C3A76D82061D000D013158D
:101CF000C5630060073100C0B309937DB89915260C
:101D0000CFD5110316078301DCC05461527D0060FA
:101D10006C17B365FF430751E11000E0543100D068
:101D20008A3200800010007000001315DC000000F3
:101D30008301002007A154416C1719E355000000EE
:101D400000000000E10099026D05CF6D00600020E9
:101D500019C7E4690192E0E8394374BC5EEA3418BB
:101D6000EFD200000000000076F21BC2C5D3194676
:101D7000665265291C8E190700009480E42917A477
:101D800082738B2351D07A6122128169F6B9548112
:101D90002A09DC97339296006003A60D00000065C7
:101DA000CE858C444C78B2EC30DB970336080000CB
:101DB0000040A254001000000000280D008000D058
:101DC00000003A636CC79643000007010000000062
:101DD0000070B695DDC16B192DA253C56C7BFA74EA
:101DE00000A701E0A518A823C70A13B100C000602E
:101DF00000705431E1806D15738800D09604D8B01E
:101E000054A108C078B16B527E064F625974FA2211
:101E10000920ABA400401300000000000040545112
:101E200000105B2A00506DD500D0EEA70070002096
:101E3000E6B92ECAD1F088FB1AAC250A540100007D
:101E400000A00030023A0080AD37AD34FA820020A5
:101E5000D8C04399190496526AB90A0A6C970010BF
:101E6000B3550050B104000000007A0500000000E6
:101E70009C515CCAE43200008301280DAB0AB10416
:101E8000540100E0FA33354ECE03FC0700002C4C21
:101E90006A0100207807D8000F0400C0E6996CD7CB
:101EA000000054011D00003037885411004013B564
:101EB00000B02F0E0000C509FB070E0A000000004D
:101EC00000001B0254015401F20400000000000055
:101ED000C75383C10030D87000600010A2041206FE
:101EE0005D03284D28FD75CC4E44912602096C57A0
:101EF000C4A364508924071100507652D800E6D953
:101F00007FF56D96739C7F0D4A070000FA03DD078D
:101F1000CE0813055F00DD010000AD07E1091305E0
:101F200000000000006000E00090AD07AE06A204D3
:101F300000C0A2349AA45D03D800000000A0304E77
:101F4000835196030000DD016CE77F25C3A20000EA
:101F500000009C0100D0BBD000100030061C855A48
:101F6000CEC4E56B00706D05D800280DD88000F058
:101F7000C59300B000709B0700F06C57BD950070D2
:101F800000E0545100005B005401C90C0000000047
:101F90007F2640A47EC9008054219CDDD8003A03EE
:101FA000280DE6099A0416065421541118044EC847
:101FB0004BAD4A067612F9E30000522D00A0004016
:101FC000D8009E3119E367D1F8795461634A9A5475
:101FD0000010C8A36AA5076D722BDC690C00B2382B
:101FE0007AD6B6C57602EE07540154410751811BDB
:101FF000000000000B0654A1003054611BE26CF796
:10200000D8600000C54300A0000054018301000017
:102010000000000000A0C533753800F054C196D30D
:10202000006000B054516C277E199FA0FF0400008F
:102030000000AEF746DB00230D3E4D120050A2E437
:102040009C2D73A700D000E00020A2745451B8303A
:10205000006013E5549173827DDC5401D800830144
:10206000000007C1288C830D00D02976FA93747480
:10207000C51954C154417652FA13BD8C7D7A479BE1
:1020800087D2D800E7520F4E5F4D0C075F21311405
:10209000C069E1406100ED22B61500E0300EC0C518
:1020A00000600070000000000000008054A1E6897C
:1020B00007F154E15920003000F028BD0C96075379
:1020C000A0C195B425A0CBB6F7C9E483B108A5DDBE
:1020D0005D630050434034589F1CB625318A966397
:1020E000E322764280D483B6144314A3C503A2042A
:1020F00054019C415F5ABC1900406C979C2D830190
:102100003703880300600030834100A013559E21EF
:102110000080282DC5D300000000540104020000F7
:10212000C50900E02EDAC447AE7487BDEA1D000081
:102130006C078C0000000000E60900E0134507C1B1
:1021400000E00080E689A20CDC010701283D5281F5
:10215000B4C500200001E6A9AD87D8D0000000304A
:10216000D8405491C54365C37D923A063F0054015F
:10217000547154A1E609B54519B8B1A90000000091
:10218000A2044202A204E6096B31752203DA1AE2C4
:102190005C202FB434F8B0ED1F209FD0A00BC5A356
:1021A000B049695DD8106C075401000054019603D2
:1021B00029060040EC52131554011B02F10B078154
:1021C0005A13A52D133514C08959BD0600001206F7
:1021D000C92C68A1A2442EDA6AD854116A71D308B6
:1021E0000010001000E00000EB090C0E07010000D9
:1021F0000000A20400200080126A69620020122AF6
:10220000EB0900000000D8B054D1349883010000DD
:102210006C07938A8D01BA1AF4081E03E10300705B
:1022200013050010000000003A037C46C753BD139D
:102230005451C5D30B105BE01B33EE67240D9F0D8B
:1022400007016C6713726C27201C8A793D168FABCF
:10225000BB0396DD3BBB514D9C563C040000C503BF
:102260001B125A93A89D000007010000A2A493FA34
:1022700007310050C3C2543100000000000000A02C
:102280000030003029D613D5001073070000A204D7
:1022900000A00030D830D860AD07CDC300000000EA
:1022A000D8006CC79C6D837DE100AD4754714D7AB9
:1022B000AA1DEE4A2AA75EC3DD294231C886301E18
:1022C00000C0007000D0E875AA71F0B2DAF8DDDC69
:1022D000C871741800B054D1006000D00000D568F7
:1022E000ADB4545175D45461D850E6C97BDD540166
:1022F000EE070000E100FA033A067D090791D8C015
:102300005E065FB458F1EB33F9995F327B85AD5AC5
:1023100079E67B83DA3D906000309F00000000008A
:10232000FE76219538D708FB2746BCDB0A40A04B38
:1023300000501A36E671C322E18000206CD7545158
:102340008B18524D85DC8C026D47BF5BD058353100
:10235000558C9BDD0701548100D0000054B1736996
:102360001474758B1B74E24BC146125A35146CA75A
:1023700000F000302D560771731200806DD56C0788
:10238000986061100060500A4C0B0000980D960395
:102390000000008000D05401D880B6D5030D003075
:1023A00008405491D8D079186552840B6C076D059C
:1023B0001BC2086A8C72E78569D100001352EFB224
:1023C000F89D73C9ED89E30157B8B9A7F8D16CDA64
:1023D000E6A96A7100000000280DC559980279D459
:1023E000D8806CDD8201C529005034D8D8406DE515
:1023F0004299D3B8CC823D1A92FA27F47FC85BBDCC
:10240000CE4D198E1B82BC2070DD0060E1B0005003
:10241000378B0BD0F809280DC70300000030DC8093
:1024200000D0DDD70AF300700D509A2C7A19DE47E0
:10243000B3003623FFA4C5930040120A5401500391
:1024400013C59A620070294607510010050DC50397
:1024500000006C576AC1E130421A7FA952434ECD49
:102460008E6A6A53000071000000BC10FD67A20470
:1024700000F054F1057C00500000B42DF14617DA4D
:1024800055C71E08C206000054A100F05431544143
:10249000D21D1B32C4ADA9A485A6142200A00741F9
:1024A0008949283D0711A204C3051305E6294853AD
:1024B000C513000054017508E180C7D054015401D0
:1024C00000000000007000001315A2640070572582
:1024D000348800D0AD07D830543112AA74B048C047
:1024E000C4C4281D0080AD8754E1D8C043192C4DC9
:1024F000035534CB7A4438580010342883916C57F4
:10250000CFE4801591E4AD427DD472741D31B928B9
:102510006A54310CD80000001305E609D80000B059
:10252000001054E1006013557620C2C199F8434A67
:1025300000606D150060DD61B3950030059DAD58FC
:10254000ABAA54A10090302E6C6776B62E5A00507C
:10255000C503F6D9EF02E6E9281C06502F18C4225D
:10256000057D54717E2A202D5532F499633C141751
:10257000A050C6005A0300005EC0318AAC178D031C
:10258000DB543462D8D654D1E11907010000130599
:1025900000901365A2240050E6D90080A04B13558B
:1025A000281D283D001079549AB4B5FB042254A18B
:1025B00000F0003003BDA01B1346FA42DC56541154
:1025C0007602FF03EE0713D50BD6721700005401F5
:1025D000040254310060AD1792090000540100203C
:1025E00076A2B6456D05FA020701002000A0A54DB0
:1025F000000000009C0D9C0D54015401086AC43C6D
:10260000FA4331E16B03EA5247778866C1935FDB97
:102610005630C4744B510ECDBC960090C5A3E1C09A
:102620007302730754019E710000AD17ADE7D830F7
:10263000C563007000C0DBB7D8C0C4041579C416E8
:10264000BF82A48B0D834A03825D8BA876610080D4
:10265000368A78638A2018856CD7070100004C0100
:10266000F602D8000070AD77285C00C07B3409AD5D
:102670009C10BA8720E683199F50C79300800020E2
:102680001B7200B03AB39418A1CB180388145451AC
:10269000128A0000C503540102380090D8A05441AA
:1026A000E659C812C5894DE34EB5CA93DD71D413FE
:1026B0001BEDF2321A07284D6C57C51371D9C1A70B
:1026C000D77000006C07FA0300B04D0A183491551A
:1026D0008BF89D592D69B3E9EB9A16C33A63AD7730
:1026E0000D407E0D16160641D89067A1D88032277E
:1026F0001CCDFA03B10400009C8D34D80000D8D062
:102700000020D01605ED2DC3C509350913030000BF
:1027100000E06C2734A8E62929A65A4354812EDA12
:102720000D000080000054019460EA4A861B18875F
:102730000CC9A5205AF2393CD2B6CE825441546617
:1027400013C5A2640070008007D1D80013D5D8A0AB
:10275000547154415451FA1314407903123A1785B5
:102760007082160EB309000000001325E1A000409E
:10277000E1C0009054114004130554015441D800A5
:10278000E0217662D830606CEF520B1BCFA1D20DE6
:102790000906EF0200008606000000D00761A2547F
:1027A000C523541128A69860D8E0009073E2402A0F
:1027B00000A0000000004D0D13050701A204404ACF
:1027C0009D5700100000D8001F001305FF0354019F
:1027D000FA2377ADC74300E00090281CABBA001085
:1027E0000020C57330046C173B0600000000003069
:1027F00028CC6D450000D80007010402A2040000A7
:102800007983EEF70090D840A20400206A01D80036
:102810001606D8F0D8E0D82083811BB208062EC750
:102820000BA6FAA2E6B9D8C0043261C98361007070
:1028300000006D05280D00F054919CCD1F600070C4
:10284000EF3208B3745D782000A0D9F054213448E9
:10285000B6554B13F7E25ACDE210B934BD460E0E11
:102860009A8288D8C5030080D88054316D35B7C0AE
:10287000B0441F570ED0805837D73FA90070054D80
:1028800000503A164D4A5A50C31500000000FA0293
:10289000F4C2C59354D154710402281D00001305DD
:1028A000A90854318C7A2F2DAA1D288D3667DEB1E8
:1028B00000F0A2246D05FA0200009C0D000000004B
:1028C000E619A2E40090F0DB13A554713738A15744
:1028D000DF1B000000000000002007A10040ED7891
:1028E000F087D6182F2A3593CD9AF6523A9170A6D2
:1028F000BBF28D7853CB6E016FD8DA39E20D2E0A18
:1029000000000000FA037602544100505411000008
:10291000D8002E0A00700402F81300000000000026
:102920005421A51D1BA2E16089E2C693F58200D067
:10293000280DE110E6E95401174CC5C3A2B400C04C
:10294000B635D800281C54E1940AADF7F09900C0C0
:10295000C5D300A0E17086800F57C649DB79E4A19A
:1029600036C0C533D870D02D0020F879D8D0FB50B0
:102970006DC5F394F654ABC836946C787866280D20
:102980001305080A000000A00070F899001000006C
:10299000FAA3FA6300E000B000F000E05471830194
:1029A000070194021B42D850371821B7241D5352F7
:1029B000DF61130256CCA962007000405471B10D62
:1029C000E010694200000020543107919CA13408B6
:1029D0000B3600E05900000054019C01930D0000EB
:1029E000001030B4004013D5E160045200100030F4
:1029F0005AE970035303CA04C50900006C0700407C
:102A00005431348800400030008034584CC13A338F
:102A10003C0992020000349800400080D5490775B7
:102A200067980060DAD16451614B0428F855B9F019
:102A300013F5C543000000000000A204000054018B
:102A40001004160613050000A20400000010D8E0D0
:102A5000D8000145A25400101C080000C302288DB4
:102A6000D820D8C0283D18136C5154010472E6795F
:102A7000C57341C43B93A0F9B387D23BB0A90030E2
:102A8000AD3730045401960300001B02F30C54418F
:102A90000050E1100D10284D547100409653AD17B1
:102AA0000070000000102AE61B92FDB0B30434064B
:102AB000AD07898204D2000000A000F0002004F2DB
:102AC0006DA5C405560D1B09120D00D0A2D44014EB
:102AD000A2C40060937A287D00C09C312F4B6F53B5
:102AE000E0110080ADD70000004000500010000051
:102AF000FA43B6D507C10462A3750F25004054B14F
:102B00003246971043020040A95800105401540166
:102B1000000000B0CF72BE839FAB14902509996D61
:102B200049B22B244675634984194CF805ED5421AC
:102B3000BEF644E95616517AE5D0263BBD14672C03
:102B4000866AAFA61FFA9ED233A51F5C1D54F07A89
:102B5000C9CBB7D6508C05D7F208D820A2A4004024
:102B60009DF693398EC7893C27820E8BC430008036
:102B70005411005000C0D830D8C09E11282D3443C5
:102B8000ED02A72C0000173CD3E5B6252F76C5D360
:102B9000B2998D007E652AF3800AAD94188CBF63CC
:102BA000833490D3DD6D4D318C0A4C08B60600E0BD
:102BB0001460595817EBE869CDACA4B2B41C5E2C74
:102BC00000C000B0283D000000006C07D800D8000D
:102BD000CD05AD0783013A0300A095F000301B72CC
:102BE000A00BA01B13E500F0044200006C070000DE
:102BF0000000300EF8096A41545D121ADC20BA75E3
:102C00005421300E7500030C59239C211D7DDD429B
:102C1000A08CDDD024F444E2A82A000000000000CB
:102C200000A0FA5300303A430050DC109E915471DA
:102C3000D88004CD070B7B41C14CC5530010005018
:102C4000DCC00090D8400050D8101B02020D730960
:102C500000F03448A2641BD003887A4D939D74C160
:102C6000FAC2274A6A3D008054B19E11002000300C
:102C70001616AD57289D8381999400605471B38DC9
:102C800050D7D64653A76C07000000000020D8108C
:102C900054A10000D800520D00C000605471ADE78F
:102CA0003A23E6A90DD00BD01D1ED18DDF303F4653
:102CB000A5D304A4007054B1AD2742A91403BC9558
:102CC000B8A0467DC569E51D0000C5030000D830E9
:102CD00073896D1500A0E1805C438EB98C739D6D86
:102CE000B2450050541100B01839D3988AA8E83181
:102CF000056DD8298B78BFD5EE021305E1006C87EE
:102D0000C9DC0000C3C2C7082BE76752090778D2A5
:102D10000C975DEA531D008000D00000D800E10050
:102D20000000AD77D860C372000000000000D870CA
:102D30008331ED82E6290040F8290000E609D80039
:102D40006741125A541183919774B399733000807C
:102D50000010410A8301E502303488738B9838E211
:102D6000A8ECDB9055E8F97A8BA8A204C302000016
:102D70006C3015401475E18004D20000E1905131AF
:102D80003165DA86F4D4540100001C08ED0700C058
:102D900054716DD501415541C5D15DBB931B2C7656
:102DA000662929AC00400B264339D6108BC8D8C001
:102DB000DDC69C4A5451AD17B12D54919593FA0339
:102DC0000000000000401656D810AD4779B49FA00F
:102DD000ACD412BA1E9D14BC495D2E46280DC70600
:102DE0000000A35C1DC2553CA204300E6C07A23447
:102DF0008381001000000000DD010020A2A4E6494C
:102E0000030883010000AD475BD0650D61A19C64A0
:102E100066317A050000E609002000A0004000307D
:102E200016790070830D0000E100DC009EAAB73522
:102E300024D7D9ECEF429A536272387D597D00C095
:102E40008932B6D55461F459C3329623C678A7F4B3
:102E50004C7C4005FE27C5C286D8FD76E7090010E8
:102E6000C5C3A264BC7007610070282DB6F596C377
:102E7000843178666899943D9FC0DD610070300EA2
:102E800007011305CFDD37A8E37600A0F912005043
:102E900076C23C89C5A366522FCC19980204B608A5
:102EA0004B0B830D030800000070076113150040F1
:102EB0000000002000A000F00030000000000040F2
:102EC0001305000054011B447B590010E16030B42D
:102ED000D85029D6D8A00070004054510010544159
:102EE0005451001034080000340800000701460760
:102EF0006C67BDE6AD9700A0001000906702280C3B
:102F0000D800AD071703330100701305A21434284D
:102F100083A1004069023EE600B000200010A2A498
:102F20000BD628EDA2249E012906CE030050B1C481
:102F3000C53354011B046B0900C03C694272A2A452
:102F40000070285C18262DDAF219EE2C8BA8E3808D
:102F5000335DB1C9BB370080542100D00080002010
:102F6000D8D09EB15211C325546100E054917C3DEC
:102F7000127A0020000000009C0D00B000E0839158
:102F80007ED0006054510010007091D0FFF9F6B966
:102F900008C005ED7C284C576AAA9597004054411B
:102FA00054E1126A393237D007DC7F522BC1D83056
:102FB0009D418351FF1394003034D48513EA2F468A
:102FC00058A3870400000701E6E9C53BD890B11774
:102FD00000E0A204D8A08CF05431D800EE274F03B3
:102FE0003CE98F84BC27233B7776FB7600F000D04A
:102FF000A06D7B37A9002022F8C90CAB125438B65B
:103000003300320C14A8110AA9650701E9098909DE
:10301000076100E000906D15A2E40000EB4900504C
:103020006A1073028301280D548154D1D800E2B193
:1030300041990B2D65DAA3343055411001ECEE07B0
:103040009C3100C000203E0A00000000D10A0000B0
:103050000000021950101405080C1C3034393C4093
:103060004C5A25104A06354A1C3A30172E4A5665E6
:10307000564D3843041420243C485466212632150A
:1030800004651C3E3C07141C584D334D0605363173
:10309000130D544E3D4D14261A3A4D2E2614261566
:1030A0004D27390834420448080C1020253034409C
:1030B0004D5E041605261832493967252C0C1E0D65
:1030C0002F24560910141C2D34384145484F081937
:1030D0002C38142615611D3052054204243C4856F4
:1030E0003E4D3E3F15395225481D2C30384E0414B4
:1030F000243E201E314A155D1C3504080C10242C7A
:10310000393C404859682132146856041424303C34
:103110005665511935084D164D514A4D1524070570
:103120005658500C111D303439484D68164D243610
:10313000202F254D672630052754155211493B1481
:10314000053C1C2C38673E041C226513052C406589
:1031500016071115244856151F380C15053E502624
:10316000373D4D10400818203052333D4D05265054
:103170004913390F3E053C24140C3848564D0516AA
:103180004D05316722514C143A2E4C523813051517
:103190003C252A3F4D3C2D0C5056166514324D09E6
:1031A000665427653E4C521940213048530D415119
:1031B000251015485B504D23403315390D1C092C43
:1031C0003134485055623D15422434426426594CEE
:1031D000400D694410141D25313439495208143901
:1031E000535448090C111C2D35395F042605103D38
:1031F0004F30394048506A3037412713561448053C
:10320000133214670424480810143038502E041464
:1032100020243C484C545C660621671438122E2644
:103220004D0525120E513A4D65073D0520252E33DB
:10323000052517063D38245214243C561430064AFE
:1032400024173016515F3D4D050E154D3E50234954
:1032500017051722531242051C4A15562506155408
:10326000276A4D16054C3E14323D4C52395D07110C
:103270003A14243C56041426215D0C103135383C98
:1032800040484D50564D3C164D0E49331E15305298
:103290004D651451051E2416495A3852514C400BA5
:1032A0001A250511093B12651406493F22654D1682
:1032B0002515070C1C14534D05246416064D1842A1
:1032C0000963146532051D0C2E3B343A1448500E28
:1032D000304B054D17146532150C3E2418140D1192
:1032E0001D31343840484D515D62312D52062C2637
:1032F0003D24521D3A15040D10181D242C3035386C
:10330000494D50546064680A251A1065273D173DE1
:103310005416055155156432054215411E514C1C79
:1033200025080C18303539414A0C4E143E3D2F51BA
:103330004F22143E26145715114314090D10181D61
:103340002C31353840494D506A2C154F3D41244AA7
:103350000517513430101D050C24484D0A0E4D3A06
:103360002E04151D303848506214204F1D3F3D0477
:10337000381C5215332514363E0856312625112D9A
:103380003E5A144C10183204364A5416154D421544
:10339000370524522614080C10181C20242C303415
:1033A000383C40484C5054585C60660D383C6214C0
:1033B00024561A24531E34503058104A153A51419D
:1033C000133C1F041424303C545E154D261911067D
:1033D000100C69181C3034384D522E1504244E4DF3
:1033E000212C524D65123C2604143C56354F1C5678
:1033F0004D145321051424303D48545E040C142010
:1034000048242C3034383C404450545C666541318B
:1034100006394D51404933510548394F142216653C
:103420002415561D403949534D1567544D263D65A9
:1034300050101E115A18080C101C34404C50606A71
:1034400004143C485426153A26492D1E32151809F5
:103450000C101C2430343941515D061C102C3034C2
:10346000384048505A154D0E4D32043F313F051536
:103470002D404B151809120A066A491405324D529F
:10348000483B424D263E0414182024303C484C5002
:103490005466193E613004090D1015191D202528A8
:1034A00035383C4144484D51585C6B041A0614268B
:1034B000541124091C14414E08153B066B31165457
:1034C0004F3D4D14513241511C4B42300A4D15486D
:1034D0001E140C1E16044D616931080D101438407D
:1034E00048506605212452523052050D111D2025E9
:1034F0002C3134393C40494D5154606A314E4A4D6B
:10350000052D152530423C53353B043D6451274C75
:103510003224143225376A163E15261121390A083D
:103520000C141C303C404950545C62394A2C0C3D10
:1035300067154D3E391F1B12045857315F141C305C
:103540004D34394048523D56050814260D5D1C2463
:1035500030343840494D50555B3D5506140624160D
:1035600011273E3D255005231D4E11324D14073DB8
:103570001427413740174D18213040580C1C25297D
:1035800034384850545C6468112E3C4204161404CC
:103590004F243E1C2D4A244A050C2563384D1B3010
:1035A000080C1014181C2C34404C503A053A4D1499
:1035B0002365164D1605484D560414243C564C17E9
:1035C00016510B1504232116401D385A0E1A2516C4
:1035D0000525160421610D1024303840484D505403
:1035E0005C64352F213E041420243C5466260514C7
:1035F000243C66152536050A05251F3D6524500423
:10360000163026174B1D103A152C4A264124152D2D
:10361000113856112D32041E253C4265254D3D4979
:10362000510D07113039414A2F05191D09405A0D16
:1036300014312D36651536393613680414243C567A
:103640002D431C4C05533C0C10181C2030343948B9
:103650004D516350161856060556494D18213830FD
:103660000C1D545E65160665041635424941213C21
:103670000C14053052513A323B1404243C48563065
:103680004E2438154A06140C111835394048596330
:10369000111C313840494E24215C08040D10142CB3
:1036A000303840484D523604243E0414243C5466BD
:1036B0004D2C30105A302F150C5605263E05142679
:1036C0006A2F165224122A3C314D0625171406364D
:1036D0004D2030560D163013422D4D07553C052414
:1036E00061500D10181C2C30343840484D6A261992
:1036F00015043625303F0853211E3E2D5224303C00
:10370000545C661D09340C142438484C5054585EDF
:103710002D224D214A041D58090D142C30353840F6
:10372000484D50606A15613C58646B11494F0C3923
:1037300015326524163A612C103C080D28313538B5
:1037400048554D232116250E385F4C680E0525314E
:103750003D52103E160D05444A252314522414668A
:103760000A4A51310E1456384D1B040D1C240830E2
:1037700035383D4050545E3D041424485466516A27
:103780002C3A2604161024381E150524283C4A51CC
:103790001325064249511250162440153D4F4D4302
:1037A0004226260E151F11404C52524D0F30343810
:1037B0003C4044484C5054585C60646A0414243CB7
:1037C000563D24595D354015080C2C3038484D5174
:1037D00055602B65142605263D533D2F052E4304C9
:1037E000141C243C5054664D083543153850124D76
:1037F00065175408301704570614403C0C1C385207
:10380000255467053A15243E101E4A344D133E26B2
:1038100004142024343C546665260555383E654220
:103820001808144C380C111D242C303C40495054BD
:1038300062543D16101524303E4D2D533D49320C37
:10384000421D165651154A415118393C484D1F0525
:10385000423F1D34584E485E4D12486B4D651D2C3D
:10386000383D1615524A2404563D050E3C065010AC
:10387000151C4D0E651714444C052232213D2517A9
:103880003C563B0C304D3F0E15634239130C3A0841
:10389000400C39323F0514250E150C50224D2109DC
:1038A0000C101D2435383D4850585C320516523DE9
:1038B00015261526321D57302D0E154D04574D185F
:1038C0001D3408103048500E483C24155232113E29
:1038D0005E143219480621040C11141D31383C487D
:1038E0004D505C6837143F04241665552C583043FE
:1038F000164D0556020211321C4F15245010313856
:103900003C41484C0E3E1D090C113438484C6A505D
:10391000424D04324D0A1508374136050C101C394A
:10392000154B52143C423415244D3F2D6A35444802
:103930005A045910141824313438485210251738B5
:1039400013623812204868553F3E301153313449D4
:1039500009392D4208544C0C1C2024282C305224A8
:1039600053581236483224053F2D17390C10181CB5
:1039700025524D3E19390B4D382416350C394B055F
:103980004D17063C3605261434261B581D0E3C5494
:10399000063C321538081036653E38404853424DD3
:1039A000500C0840102434394A154D074014266540
:1039B0001C266455050814274D3E381E5E4A3853B0
:1039C000150D4E534D513C325214043E3C3B4D0AB2
:1039D00024411C300C3439484E164D0508143D481E
:1039E000673C504E4D10384A07053E5434423D5115
:1039F00024413205164108384A2504162138083476
:103A00004C0410243041485158640E3D042E391D99
:103A100056324D3015511B4D32490F6534040C1090
:103A2000141C20243139484D505A590E2C4D232452
:103A3000162516163925164E304D3A4C060C504FA9
:103A4000041424303C4856150D1B502D32151E49C8
:103A50003A4C2F10150D303439404C6604080C10C8
:103A6000181C2C3034383C484C50586A3D323418BD
:103A700004080C10141C30383D484D52444E35514A
:103A80001E4D3519650A11512432246532561548E8
:103A90001C385F516714325168564D3A5C04080C6B
:103AA0001014181C24283034384044484C505460BA
:103AB00066041424303C485466262104245410081B
:103AC0000D2C3538494D515966551608524D05147F
:103AD000091D2D4044481133081C20285012513A2A
:103AE0004D053D0C2D362D464D56311217210D102A
:103AF00008141C243135383C494C50545D646A1418
:103B000020243E56214D141C245412142614384AE5
:103B1000082440064D10520D3B25151E3D51113B0A
:103B20004D0666143853360A0414243C563A4D5256
:103B30000414253C4854663C673F3C24041442046A
:103B40006A175114382C4F041426501D0636194D8F
:103B5000520A651643314B2F0C2E24140614060608
:103B60004A3D050E053C1E51161C304A4D171D16C8
:103B70004D3D5861242D32653F6417115158083B63
:103B800014264D044014081C2C3035393D48501182
:103B9000675112114B0414202430383C48545866A5
:103BA000391B14560509342E5D33180C0811151CE9
:103BB00030353940494C515458643E343A0940122A
:103BC00005151E0D10642516163A542305244D16AE
:103BD00014042731394814350A153E04243E15399A
:103BE000581211390C2E322C3A053E56690C1065CC
:103BF0001C380515202D404D505559635D2D164834
:103C000058681A1450244D093C41495405324D2C32
:103C1000190408143034384149521B3804144A310D
:103C2000214F14076514553E0E09174D61650508AF
:103C300010181C383C404B0C1D2E274D1565344880
:103C4000091924384053250836052F053D10153332
:103C5000262D0832194D53140B0C395604141C260A
:103C6000553F34080C1014191C2C303840484D5363
:103C7000154865240A050C151C252C3C4C503A337C
:103C80004D1230651E24162104080C10181C243116
:103C9000353841484D50565115260C1C5E0C3E548B
:103CA00022310C1E28274D3D322465162C694D13F8
:103CB0003C221D2D3A151E263F2D0E322141101497
:103CC0001D24313439485C4D2F173D655D37491E41
:103CD00006305231243A041424343C485466080C0B
:103CE0001C2C384A495E1D42513C173C1426155085
:103CF000264D4805141C2430343C562104080C1869
:103D00001C252C3035393C414A36392F513B153969
:103D10004B05563D3B15354A5A0414243C54664D18
:103D20003D55040A30162F1E1F06393E3D0430391A
:103D3000514D164805271448503A1A0914243625BF
:103D4000152C064108505E4C3A101606214D65248C
:103D5000090C141D303848505614201804080C1053
:103D60001C242C3134383C4044494D5054585C613B
:103D70006B52145604142024303C48545C660C608A
:103D8000523E650C100604080C1014181C20242840
:103D90002C30343840484C5054585C60646A0508F4
:103DA00015493B6826260524093615324D24305224
:103DB0005026491B213965553C04350C10143049F7
:103DC0004D534D3E10303A651D14134D0A483E1EAA
:103DD000313D492F3A4214243E110F1557543A1CD5
:103DE0003C584205215765166516213D04100C15F7
:103DF0001C24292C303438414854585D66510B51ED
:103E0000423E053D2E2530562E21240C55654C088A
:103E1000101C30393D48624D3104111824343C5493
:103E2000224D1D18303C545A4D34540A3E4D6514F1
:103E3000306A1622680B24520C5D15674D243F64CE
:103E40001D2D3715433D12224D15385214321616CA
:103E500004080C1014181C2024282C3215440C4A79
:103E600014243E651E510436105C04090C15191CFF
:103E7000242C31343841484C596167313C36111497
:103E8000400C4C5E142F36315F253F04164D0C1646
:103E9000140C18102E382C081014183035484C52B9
:103EA0003412211A15260E4D111509191C303438FB
:103EB000414853263016491621154604661D240C28
:103EC000083865163F164D42200811181C2430345E
:103ED000383C40484D505458663C0517550414244E
:103EE000124D16400B3D51240C1726161506653F42
:103EF000480C3A653E083A1565241E6556264D5114
:103F0000284215275C0414202430383C4854663974
:103F10000F4B510E0604144864526454090C1434B7
:103F20004850584D264D101E06564D373D0A250D5A
:103F300043114A4D2C38120E04344235114D3B04C6
:103F40000C4C563E2D5230172D23145214263E3C55
:103F500050551530384A083E0C4F4D0C32320C1D6E
:103F6000383C484F0A3D3224143215081C66250699
:103F700038153F1508040C111831383C40484C6B7B
:103F80000C2C4F091748140835464D3C0756264C53
:103F90001E260414243C5466364D485438302C08F0
:103FA0000C10182428501E310C570807501D1650AD
:103FB0005A3D17650C324D053D6751143A041420E3
:103FC00024283C48545C664D2E1D5D143E3E103046
:103FD000181E4C504A2F4D3A1424570526391450B8
:103FE0000C2C30423D14414E4D2167220E113A0AED
:103FF00039523D2D240C3A4D4A5138361B21554D2E
:10400000270414243C573C3A524E390D5650243C58
:1040100034413204411C382E343A0A16091A102E43
:104020001B2F050F053D2C24151E0414243C561689
:104030004A65103D263A3C0635084E383335406215
:104040000414243C5654044A681725121E15063DD4
:10405000512F3026244A503C14321C4305163C563E
:10406000141C121614261C4B483305190C1014246A
:10407000303439414850660424561526500465549E
:10408000111530393C484E55170817223836584A12
:10409000080C1014192431343840484C5054663EF2
:1040A0000414243C562C1438064D041014242830D3
:1040B000346B4D24641655485A351430424D3A0637
:1040C000041614243C053B1D53482F51400D4B3D15
:1040D00006053512490414243D565A243C1E244C2E
:1040E0005832514B0B4D16052421543A41081626DF
:1040F0001426504C33500C1C344E082E1E0C530901
:104100000C10181C20303438494C522410153A1D1C
:1041100032150A061216063D244A3C1624160739A3
:104120002449300E1535305E42324D1B15511D1A93
:104130000649324D0456151D34393C4D561E2F3458
:104140001F3C160C090410164D48395321531424F2
:104150003E153D0526154E154219631C04083850BE
:10416000584A141C2265241650343B0414243C5431
:104170006604161A4D1534654B664F39190C3049D3
:104180004C5458241651385A05141D38284E052E03
:104190004D05161D50104030346B0C36341509385F
:1041A0002E4A1215063205513A314E49584D330503
:1041B0003D161626214D534D5105091014181C2487
:1041C00030343C561212480D5C6A490414243C56A3
:1041D0004F4D24064D4B02020414243C5615241E58
:1041E0004D0552312741512D111B544B4D5D390462
:1041F000305321564B1C26154D240A36114C5C04B5
:1042000009141C2430383D48515604142453653D8C
:10421000041426392F3C156A114E1211153C502DED
:104220003B1149415130384E4D51110E6631241623
:104230004A151E51114E4D11633D561C3006241770
:1042400042153A652D350C485D433C1E563C16110F
:104250004154515D674E4D314924140C43512D3169
:104260004B5710174D1C4A3A1524650A3C17513E0E
:104270003C4D434D143C564D240C155241344D0ACF
:10428000153C13512D0E041448532404143E2D568E
:104290004C5239495648090C1D353A2442114D4BB0
:1042A00004143C48564D511A2D3804150A22101793
:1042B0006516203E153D0A384B3D4D363C2C040812
:1042C0000C1014181C243034384044484C50585CAE
:1042D00060663D1E2D11324A242C3C15673813357B
:1042E0002C0C4158113038484D5315240911183001
:1042F00041494C53044C1461243848530C11303953
:104300003C514E56152D1133141E303F56485E1544
:1043100026041524313C414C52152151261B1438DA
:1043200034114E161524354F113A3C4F14243204E3
:1043300015243C4854674D5211382F2D1E4D173609
:10434000243E354D33153C524D3D12654D24162EFD
:1043500015424D51151D382D26051651494351045E
:10436000184A4D1651111D580C2430353840484D0F
:10437000656A155F65114B4C301804081D343948C7
:104380005A5D1D080C11051530393C41495315186B
:104390005109101D243035394E655D16303856658B
:1043A0000414243D562D4D1D3A15511B1148412D25
:1043B00019395A3832321D4D17191139370C181F57
:1043C000060414243C5604142024303C485466153A
:1043D0004D6530053C1C3852492E4832111D040CE5
:1043E0001518243038484C515A4D423E154D353938
:1043F0001319333E3D103A511B35242D0E3604144B
:10440000243C54674C11655D41353B3904084A2F03
:104410005148390904111524322326214F413852BD
:10442000154D3D50110B513C2433244D1E24094C95
:1044300058674D1D0C3704243E115D16334D1E2464
:10444000164E4D490C194139533C4D6714532E11EA
:10445000242D15381D0E6514264D39410D32313984
:104460001B0609155315650426394B303F4D1C12A8
:1044700024164D243F0414243C54660414243D6740
:104480001505243E504C080C1D3034384A1D350C9F
:10449000093A512415424D411731432415512F51EA
:1044A0002D1D0E15266B314941115A144C352D190D
:1044B00008103C5A512F41380C3C5A154D3E1505F9
:1044C0003C511315261526143E15520E14264D1375
:1044D0004D16564D65143E4934303A113D173E0590
:1044E0001342152F4D1141172456224D17533C5A94
:1044F000383E2D0C4B1521510910181D3035384808
:104500004E05153A512D110C15243A3214274A3F05
:10451000111F5D04080C14181C303439404C52042F
:104520001615212F240A4911375A095D41531432B7
:10453000500E16350E15334D1538511F1539434D94
:10454000205638335123261141510C353A446748DF
:104550004D3B650414243C485639242D4131584DB7
:10456000114B5853514E1615243150370416085824
:1045700043111D2439515A411C0C38361C3926650B
:104580004C0C1D04091118242C3034393D4148517C
:10459000545F3C1426502E263948171553094A49B2
:1045A000191139334952131531043A4D4116041487
:1045B000202430383C4854660434401614051C3C12
:1045C0004956410C10610414181C303949516A23B2
:1045D000212F65142554076516410A2054175111DF
:1045E0000931584D2417064926241665152F4D12FA
:1045F0002D58394B64041420243C5615481E511183
:10460000490C4D392416581B410C1C3A2415673CA3
:1046100014304A4D164C4832501130650C5D091863
:10462000353848546A316151351C090C1438434DF2
:104630005113490C511E51050C151C303848585D5A
:1046400063345D1C243048506630164E2D114351A2
:104650004F1C4D5348241739242319384A064A243D
:10466000161454263D26153306115156045731525F
:104670003C65164D65313C4A3C164D39412D51374C
:10468000150A1618571466301567151C2D110837B2
:104690001530195A0414243C54661565264D1565C9
:1046A0003F381D354B3A4C2518510411141D343830
:1046B000585E1D3843304C04080C1114182434384B
:1046C0004048505B494E65143B0E315117154D382B
:1046D0002E150C0936144E51113B15312D0F381E75
:1046E00024412D13150B51114B103A2C5C57244DBE
:1046F0001F22153036244816041632681D0C111876
:104700003035384C52480911153B4C0414202430E4
:104710003C48546651154F11651D0E0C1A4C04147B
:104720005D42480C3E2D3C246517410C343A4D1433
:1047300026040C1420242C3034383C404450545C63
:10474000665156483F115D040C15243034384850EA
:10475000546B043C54262F0441303C1158080C156E
:10476000181C2C3438444C531B48346541612C5D73
:10477000090C111D24384C50586A14061D350C5E66
:1047800015313B1550300C24664D1626152F5D153E
:104790006111074D31531C6A0C414E651D5D0910B6
:1047A0000C24354B483E353014483B1A4A5D68416D
:1047B000610C11181C242C303439484C5165565169
:1047C00065245D0C114C1C313941495A054136486C
:1047D00028090C04103035383D414C5054585F24A2
:1047E0003E64163104351438514A3026484D134D75
:1047F0000A5D51093E4D122E14202430383C0654D7
:10480000224D1E503B154D261A392E1C38314B6A4D
:10481000380B4D425056240C10141830484C524D51
:104820003E4D413C08363E511D3843412F0414246F
:10483000303C48546651116561410C5D54241D3073
:1048400034384C5A4D151E0414243441543E511E24
:10485000563C164D433E491617320C1D154D2F3947
:1048600049241435092D4D53491438405D58111C05
:104870003C4C51561124411D2C09390C30495054DF
:1048800063491135431A041424303C54666A0414F5
:10489000243C562C524D65260C501731351B2615DD
:1048A00024530414243C56154A6514244C512338CF
:1048B0003F4C095F654A2814303E4A6524182C6134
:1048C0004D50111D3038495A04090C111D2C303936
:1048D0004853241738514B041030343A0414243E02
:1048E0005131111565264D392435401152390E329A
:1048F0002417153C2D26242D1710264C1D5D0C4128
:104900003E1B151C3E15052450561524123B4B4DDD
:104910001108513365240E1E4D0F3541480E111CF0
:1049200038152F151D04114D2D3A4D524C6541057A
:10493000090C101D243034383D4851545D63041473
:10494000243E3067201648332F514D165D243E30EB
:10495000581A0E1165090C181C282C30353941499C
:104960004C5154585F650415243C485650164C0968
:104970005034651E1D3048524D394B0C1114383CD3
:10498000484C5214331D18324D3A0414243C5467D9
:10499000053616354C51192F155832654C395D2C9A
:1049A000080C1D243035414851586A24484C511C8C
:1049B000303B044D0A261D0968100C182C30343980
:1049C00041484D5338063E040C15202434383C48E9
:1049D0005156390E32154D420B4D2650110C3034C4
:1049E00038484C611E11394114194F0C1C38514B79
:1049F0000E561C5113651D080C1118243035393C16
:104A0000484D516A353233241119314D1638122769
:104A100034412411510C09045D1830393C48546765
:104A2000210B3924164D1C17514B143E24511533BC
:104A30003451084C110C242C3039495458631D0949
:104A40000D515F4D155250382D1C4A304A410C33E0
:104A50002F511E151133652415423D14266515513D
:104A60004E0815265623190C14485F1D5D38044E58
:104A700051113018143539434D111D2F3804524D42
:104A8000301649103751095F3B65244D532D1C26C4
:104A90003015350C08382C40051C484C622E2F0C64
:104AA000581C494C53153A2D1C15513B2E111434EA
:104AB0003F650414243C564D363D481F300C1015FC
:104AC0002435394A04082428541432514C1D150940
:104AD0000C3034383C4148545F51302C093439682B
:104AE00010481E2D0933514E241408573E24164DEC
:104AF000241E6509510C151D20242C56114124310A
:104B0000374D650A51652D0C3A15332224162404BD
:104B1000153E31154F114D33154D0A080C10181C58
:104B20002024282C3034384044484C5054585C6081
:104B30006665355D0C381D53651714093632214DF5
:104B4000521C4A51313D1B1A2606261518494E1A89
:104B5000650630160C1F143F24523E5D0C383C5441
:104B60004E3C0414564D344A650630051534394020
:104B7000484C50624C31431D48580C102830343991
:104B80003C404D51545C682417154D071504361DE3
:104B90005D0C353A154D064D65310A2D1743113020
:104BA0002C3C090C151D353941484C5A115D161421
:104BB0004E14264A4D410857143E4C2F50235E3E5A
:104BC0005137653E1C1527511A4D1C24171A4837BA
:104BD000650414243C56151E4D36392D1135414DB2
:104BE0004B51113352384C531407391115370414F3
:104BF000243C5619044A0414243C5466244E264D81
:104C00003149512F21173D041526154D12156539CF
:104C1000483526171115531665061D2458405404AF
:104C20003C5F24156A4C481A0414243C48545C66C2
:104C300015064A171523394130354D161D1704083E
:104C40001E1524214F0415416109381D24303C49AB
:104C5000545E514A094D3211391948500A0414243E
:104C60003C563D4D523C56410B2D164A11141C38F2
:104C70003C5154650665345D41612D090C4C3B1572
:104C800052214F16650514243C48564D424935398A
:104C90000B4D6561040C101424303539495F041440
:104CA000243C54671131354B04080C1014181C2097
:104CB00024282C3034383C4044484C5054585C64D0
:104CC0006A2F1C154B212F041420243C48545C6689
:104CD0004D512415651E4C0C1704080C38424351E5
:104CE000243C333833180C091D3034384852040939
:104CF0000C141D3039494C51616A154D3E04142481
:104D000028303C485616566541141A513D4A1548FC
:104D1000245351041126154D53110C303816152407
:104D20000512264932113541481751080D15191C35
:104D3000242D354A3443513A3C0410143034394858
:104D40004C515F5111651D410E51043E4D3E4C15B5
:104D50001D2C0C303439415327151F4D1E4D1E504C
:104D60003D083530415A11192D33080C1014181C08
:104D70002D30394C525131131441324D1504243C1D
:104D80000C3A1435650430394C516A4811671D09D5
:104D90002C5D37110C3A653D41091733384E2052CE
:104DA00050101C30343840484E1D043D30090C1161
:104DB00015183438404C2E493A15110E0852504DF2
:104DC00017040C142440523F4D5365091D243134FF
:104DD0003841484D50545C6A24144D321D0F18342C
:104DE0000C10141D303940484C516A154D1D3A487D
:104DF00016511130583E5611314935584320540E42
:104E00004D140E110C6A3D1E2E150910040D1C26A2
:104E100065411C30394B41181534080C101C2C30DE
:104E20003948533164153F04143C561452511C1731
:104E30000414243C56394B5115264D51111F080CB2
:104E4000101C3034383C484C52513342090C1D344C
:104E50004148505865262D21414F3E4E4D1139573E
:104E6000154865244C4441181C3035393D51545D7A
:104E700062651D143850421130533931434D2215AB
:104E80006526512D110C35394B65371410303439E6
:104E9000494C506A610C51336505524D0A3933242F
:104EA0004D1615260414243C5567160514243C564B
:104EB0004D18483A252C1C34610C111430383D41F2
:104EC000484C51545E4D24201C3E43485D3C4C0CE4
:104ED0005804152451624D445315423115262D14A2
:104EE0003E0604212F110C14534C511D10242C3458
:104EF000384A15263911334D1526564D5113403B6E
:104F0000155D0E513D2F2F24413F4D15421537049D
:104F100015080C1D3835324D2F3D51312F1D152FE1
:104F20003951312F063E394A54160C4D23091D3B89
:104F30003853211524524D512441142D333111532E
:104F4000163D16151D38121E3C2F52141C3A492DC1
:104F50004E404A26163E152D1F0C5211554E500933
:104F60000C11181D303538414C583E5156391E51E0
:104F70004D0E2416043C16192D49514E3A15512157
:104F80002F1E154D512D4A2465163A6505080C1142
:104F9000181D242C3039494C534D5215514E0414D0
:104FA00020243C48564C3A160C3A2D0830153D4802
:104FB0005F14243E4D15110C263015262D53146810
:104FC00037150C4064040911303C4C5154585F159E
:104FD0002304080C10181C202434383C404850543A
:104FE000585C603254164D15652D0C103A51154A17
:104FF00015263A311224614151581004090C1D380C
:105000003D484C545D66143E115D163A154D430201
:105010000000000017000300031F0A1F161F0A19D3
:1050200004130A15120003000E1B11111B0E0A04B3
:105030000A040E04001800040404001000180403FD
:105040001F111F121F1019151215150A03041F171F
:10505000150D1E151D0119071F151F07150F000A35
:1050600000001A00040A110A0A0A110A04011502B2
:105070001F1F1F1E051E1F151A0E11111F110E1FB7
:1050800015111F05010E111D1F041F111F110911FC
:105090001F1F041B1F10101F031F1F011E0E110EC8
:1050A0001F05020E19161F051A16150D011F010FF7
:1050B000101F0718071F181F1B041B031C031915BB
:1050C0001300000000007E0909097E7F4949493626
:1050D0003E414141227F4141221C7F494949417F54
:1050E000090909013E4141493A7F0808087F00410A
:1050F0007F4100304041413F7F08041A617F4040BA
:1051000040407F020C027F7F0204087F3E41414104
:105110003E7F090909063E4151215E7F0919294652
:10512000264949493201017F01013F4040403F0F7C
:105130003040300F3F4038403F631408146303048D
:105140007804036151494543D5F08D14A1C881CF3E
:10515000D9F1AF2000080B00020202000009040090
:1051600000010202000005240010010524010101D4
:1051700004240206052406000107058103100040EF
:1051800009040100020A00000007050202400000B5
:10519000070583024000000403090412010002EF26
:1051A0000201404123368000010102030141726483
:1051B00075696E6F204C4C430041726475696E6F67
:1051C000204C656F6E6172646F00703111241FBED8
:1051D000CFEFDAE0DEBFCDBF11E0A0E0B1E0ECE15F
:1051E000FFE602C005900D92A03EB107D9F727E077
:1051F000A0EEB1E001C01D92A63BB207E1F718E2B4
:10520000C6EED8E204C02197FE010E947637C53E63
:10521000D107C9F70E94CE310C948C370C94000052
:10522000CF93DF93A62FB0E093E0B595A7959A951D
:10523000E1F7B695BA2FAA27B795A795A20FB11D8A
:10524000A80FB11DA95FBD4F6770215011972F3F67
:10525000A9F0FA01E20FF11DE491F0E0062E02C080
:10526000EE0FFF1F0A94E2F78C918E2B8C93ED01C9
:10527000C058DF4F88818F2B8883E7CFDF91CF9194
:10528000089580389105ACF46034710594F490E190
:1052900021E061FD24E060FD220F62FD2295687F20
:1052A000969FD0011124A80FA95FBD4F8C91822B2E
:1052B0008C930895EF92FF920F931F93CF93C42F77
:1052C000E62EF12C082F10E0C15038F0B701C801CC
:1052D0008C0F911D0E944129F7CFCF911F910F9103
:1052E000FF90EF90089580E0E7E0F2E081118FEF0A
:1052F000002481938193819381930394D1F708953E
:105300009091B107982329F49091B007982381E0F8
:1053100009F480E00895FC0180910602882311F1D0
:105320003FB7F89482E08093E9002091F200822F49
:1053300090E01816190614F481E090E0882339F003
:10534000289844E6409305024091F10040832223CF
:1053500039F02091F200211103C02BE62093E800E0
:105360003FBF08958FEF9FEF08952FB7F89483E024
:105370008093E9009091E800892F807295FF04C026
:105380009091F20080E4891B2FBF08958091FD0168
:1053900081110DC082E08093F90184E08093FA01CD
:1053A0001092FC011092FB0181E08093FD0189EFD6
:1053B00091E00895CF93DF931F92CDB7DEB7698355
:1053C000DC01ED91FC910280F381E02D41E050E0A1
:1053D000BE016F5F7F4F09950F90DF91CF910895C8
:1053E00083E08093E9008091F200882319F08AE33A
:1053F0008093E80008950E94B52990E00895CF9326
:10540000DF931F92CDB7DEB7FC018485958597FDAC
:1054100008C02FEF3FEF358724870F90DF91CF91A2
:105420000895CE0101960E948B29019719F4898174
:1054300090E0F3CF8FEF9FEFF0CF0F931F93CF93B9
:10544000DF931F92CDB7DEB78C01FC018485958573
:1054500097FF0BC0CE0101960E948B29019771F432
:10546000898190E0F80195878487F8018485958586
:105470000F90DF91CF911F910F9108958FEF9FEFC4
:10548000F1CFFC018485958597FD0BC09FB7F894FB
:1054900082E08093E9008091F2009FBF90E0019646
:1054A00008959FB7F89482E08093E9008091F2001C
:1054B0009FBF90E008954091F3015091F401209135
:1054C000F1013091F20142175307B4F49091E800D2
:1054D0009570E1F39091E80092FD19C08093F1007E
:1054E0008091F3019091F40101968F739927892B94
:1054F00019F48EEF8093E8008091F3019091F4010C
:1055000001969093F4018093F30181E0089580E087
:105510000895EF92FF920F931F93CF93DF93F82E8E
:10552000192FE62E042F81E0860F880F0E945B2A38
:1055300083E00E945B2ACF2DD12FEC0EFD2EF11CB3
:10554000CE15DF05B9F007FF13C0FE0184910E945C
:105550005B2A182F80E00E945B2A8123219681110B
:10556000EFCFDF91CF911F910F91FF90EF900895B2
:105570008881EDCF81E0F5CFDF92EF92FF920F931C
:105580001F93CF93DF93D82E8A01EB017B01E40EAA
:10559000F51ECE15DF0559F0D7FE12C0FE0184912D
:1055A0000E945B2A21968111F4CF0FEF1FEFC801F3
:1055B000DF91CF911F910F91FF90EF90DF900895B1
:1055C0008881EECF0F931F93CF93DF931F92CDB7B8
:1055D000DEB782E0898342E450E065E571E580E86A
:1055E0000E94BC2A0E94C629DC0112960D911C91D2
:1055F0000115110589F0D801ED91FC910280F3812C
:10560000E02DBE016F5F7F4FC801099597FD04C073
:10561000F80100851185ECCF89810F90DF91CF9142
:105620001F910F910895615030F02091F100FC011D
:1056300020830196F8CF289884E680930502089588
:105640003FB7F8948091E9019091EA01A091EB01B4
:10565000B091EC0126B5A89B05C02F3F19F001962B
:10566000A11DB11D3FBFBA2FA92F982F8827BC01BC
:10567000CD01620F711D811D911D42E0660F771FE4
:10568000881F991F4A95D1F708958F929F92AF92E4
:10569000BF92CF92DF92EF92FF926B017C010E944A
:1056A000202B4B015C01C114D104E104F104B9F0D9
:1056B0000E94202B681979098A099B09683E73406A
:1056C0008105910580F321E0C21AD108E108F108B3
:1056D00088EE880E83E0981EA11CB11CE4CFFF90D9
:1056E000EF90DF90CF90BF90AF909F908F900895F4
:1056F00065E070E080E090E00C94452B8F929F92E3
:10570000AF92BF92CF92DF92EF92FF920F931F93CF
:10571000CF93DF936C017B018A0180910B01882379
:1057200009F45CC080910602882309F457C0809177
:10573000F80180FF05C08091E00082608093E00066
:10574000E801B12C8AEFA82E93E0892E2AE3922E4D
:10575000209711F4BB20D9F10E94B52981110AC00C
:10576000AA94AA20D9F161E070E080E090E00E9464
:10577000452BEECF8C171D0611F00CF08C2F9FB728
:10578000F8948092E9002091E80025FD02C09FBFB7
:10579000DFCF282F30E0C21BD30BF701815020F060
:1057A00041914093F100FACFE20EF31EBB2021F0AD
:1057B0009092E800B12CEBCF8091E80085FDE7CF17
:1057C0009092E800BB24B394209709F3F3CF5D983F
:1057D00084E68093F701101611063CF081E090E01A
:1057E000F6019383828310E000E0C801DF91CF913E
:1057F0001F910F91FF90EF90DF90CF90BF90AF90EF
:105800009F908F9008950895CF93DF9326E0CAE08C
:10581000D0E0E22FF0E0E052FE4FBE010E9462377E
:10582000805D8083CB012150009799F7822F90E013
:105830008F519E4FDF91CF910895FF920F931F9349
:10584000CF93DF93162FF42EE9010B5F4991442388
:1058500071F04F7185E04802A00111244F535F4A57
:1058600025E06F2D812F0E941029100FEFCFDF91BF
:10587000CF911F910F91FF9008950F931F93CF9396
:10588000DF93C62FD42F8901F80141918F01442362
:1058900071F04052F3E04F02A0011124405F5F4AD3
:1058A00023E06D2F8C2F0E941029CC5FEDCFDF916C
:1058B000CF911F910F910895FF920F931F93CF9354
:1058C000DF93EC0160E2F62E06E0E091A807F0E03D
:1058D000EE0FFF1FE35DFE4F0190F081E02DEC0F16
:1058E000FD1F14919091A907E92FF0E0ED56F84FB4
:1058F000812F85958595805C808310FF24C08091E1
:10590000A307813009F06CC09530E9F48091A407B9
:105910009091A507A091A607B091A7070197A109AB
:10592000B1098093A4079093A507A093A607B0930D
:10593000A707892B8A2B8B2B31F463E977E08BE95E
:1059400097E00E948537A091A807B0E0AA0FBB1F7F
:10595000A95DBE4FCE019695879596958795089F30
:10596000F001099FF00D11248D919C918E0F9F1FC6
:10597000FE01E370FF27E330F10509F048C0FC01A8
:1059800031962491329634910596FC018491E22F50
:10599000E295EF70307FE32BF0E18F9FC00111247F
:1059A00088279F708E2B009761F02091A9072F5FA9
:1059B0002093A9070E945C2C8091A90781508093B5
:1059C000A907219611FF81CFE091A907F0E0ED56DC
:1059D000F84F1082DF91CF911F910F91FF900895A2
:1059E0006BE977E087E096E00E948537A3E9B7E0AE
:1059F0009D919923A1F0E7E0F6E09F018191882332
:105A000009F4A1CF9813F9CFF901F082F1CFEE0F8D
:105A1000FF1FE80FF91F859194919F70C4CF80916B
:105A2000920791E0980F9093920728E0829FC0011F
:105A3000112463E977E08E56994F83CF8093A307B3
:105A4000E3E9F7E088E0DF011D928A95E9F710921B
:105A500092078091AA07882391F10E94713628EB62
:105A600033E040E050E00E94DF366F5F7F4F8F4FA2
:105A70009F4F6093A4077093A5078093A607909308
:105A8000A7071092A8071092A90781ED9AE00E943B
:105A90005C2C8091AA07811119C081E08093A8072E
:105AA0001092A9078BE595E00E945C2C82E0809320
:105AB000A8071092A9078BE597E00C945C2C0E9434
:105AC00071362AE637E040E050E0CDCF0895CF921E
:105AD000DF92EF92FF92CF93DF93D0E1C0E086E0B8
