:100000000C94CB250C94F3250C94F3250C94F32538
:100010000C94F3250C94F3250C94F3250C94F32500
:100020000C94F3250C94F3250C94F82B0C94672C6A
:100030000C94F3250C94F3250C94F3250C94F325E0
:100040000C94F3250C94F3250C94F3250C94F325D0
:100050000C94F3250C94F3250C94F3250C94992E11
:100060000C94F3250C94F3250C94F3250C94F325B0
:100070000C94F3250C94F3250C94F3250C94F325A0
:100080000C94F3250C94F3250C94F3250C94F32590
:100090000C94F3250C94F3250C94F3250C94F32580
:1000A0000C94F3250C94F3250C94F32500C0CFB8E1
:1000B0000000A6B7E9E14820448170429D07000096
:1000C000BD0848005600AC00AC0000400020444190
:1000D0008305EB01FC0300602FD86530DD5800A0DC
:1000E000A675D8C800007B377BC7B7707E37BBC109
:1000F000BEF22834A0C062677A788E04BC00080380
:1001000006648EB0B700320899040000B730B48599
:10011000B7502684EB586557E93100A0E5457633A2
:10012000FCD38E548658EBF2594749B517730070CB
:100130001BE340820A34446100700080FC437B442E
:1001400000105660B75000008D9200F0484096862F
:1001500057D0E84235F44387C3111AF195939D8631
:100160005BF700F0BC20B75000E000300030B7A0D3
:10017000004070020020F504B1F202A80843488054
:1001800048407A083E670050D20316010000000084
:10019000B7D0A3A4134000600020A384004006E46D
:1001A000DF88A851FEE5FE122871BCB8AB01004003
:1001B000004091156537BC206865A90767059D0754
:1001C00078B8A364EB22007012D85A33ECB1B5654D
:1001D0003E1329F254914471B96000A05670EBF1BE
:1001E000EA7175442B717658448300B0B770B81625
:1001F00048100090005000305680E901EA04EB21DD
:10020000AF67FE44BE479617003056800050B405D5
:100210009D070000000000700A240090B750BC70D9
:1002200048603607AC47EDE541374C06FCA306F4C1
:10023000AF136CA41108A741E3B3003000600AE4D7
:10024000F2E4AF06EB3200A07A48B7B05917B70016
:10025000B7C0EBB156002D923A71AB44409692452F
:100260004585197145B41D000000B7003A0200D061
:100270000857C0742107C408FF02009056E0A31479
:100280005600830500007A1864B87206184728875C
:100290002857000070020000CE084800E503914591
:1002A000FC43A3140A6448F056400A0456B0E9819E
:1002B00000C006F40030CC169FC43C7104950C00BD
:1002C0005600E7C2AAB00604067408B3000200B0E4
:1002D000B700E413641242B643356EC3E861E635F5
:1002E00000103FD6BC4000007E715680A39470522F
:1002F000007059C783A548004401080400005670E7
:1003000000B000007858B070008010A1CDD3FF1667
:1003100068268E58A268D403BF6181210030B7A03F
:100320003F46777100E0E5737AB8F6E30A140506F4
:10033000B700B700B7000A04BC00A354B7E0A33469
:10034000E50395756587000035047A08BC007A08D6
:100350007B04B834EB88DD16A684A755392506D270
:100360008A703F66B6883530FA26F4F46F88854285
:1003700039C66567A334CE88A743708200A0008089
:1003800000807AF676D800805C0200008E040000BF
:100390000A040000D6C87CF81326C935ADF18B08D5
:1003A000DDC30AB4B70000C000B00000BC1000708C
:1003B000E03300A0D6B30000A617EB92B730E241BD
:1003C0004174C68716F23BA61660697194E3040077
:1003D00070920AE4AA3706F4F1B875456AD795E039
:1003E0000A8391070003EA0465E700F070775680FE
:1003F000B7400000C807000000000040E0D3B7404D
:10040000AF64FF520000003056806D53830500003A
:10041000B700B7A0830500408EF46F82EF349C07CD
:10042000A40300005600B700EB01CDB708E00020A0
:100430001777E9110A34590700000000FBC159F78A
:100440005630A30407886155B0026626067400A0E2
:1004500083058E440873EBB2000038320513771819
:100460005E35C6D48352DA063BB7FC5368070705EE
:10047000CF072D4200000000B760B700BC703F06F8
:100480000A04B7000A5400C000500624A657D0073B
:10049000039683462C520102BB00460400504C28B0
:1004A0000000B862D3768771D6049D04EB01BCA02E
:1004B0007E183201596807C55650D9988E649486C3
:1004C000B7603EC7B70000E0B780DF086AA3E56702
:1004D0002758A5615652EB034C610000B740777373
:1004E00009B3FF0211A0700200400A840070A81135
:1004F0007545BE9126863EC54F3645620A048E0478
:100500004A08CC35F752F443B700B70083050080A2
:10051000A958D613DE702D311F051DF64E06411564
:100520003BC362F40030F6637F56E901B77065970C
:10053000B7505AB800E0B21200307EA1774483B5BC
:1005400000E0F114EB71AEB3610276683F56B7007C
:100550001B70E9B183050A745B4278809CC576887C
:10056000D60004826A1809210694A8E1B7107958C8
:1005700086B0C444E9D10B046630ECA040000348C7
:100580003F6507510604002008E33162972688681A
:1005900000800060B750B7005028EC76A328A2B2C4
:1005A000F660BF08C5E657E6C830D0A26540B5572B
:1005B00087F04DD00A84FE7369007F3163844DC19A
:1005C000E84094C02EB2A38400000000A304009071
:1005D000FC8500100030B7A06C425600BC00000043
:1005E00059A72F78A9860080B7E0EB6107B4DF78C0
:1005F00056600193EAE89F62FF7200B00000A00716
:10060000E901C7051BA000A05917D4750AB448001A
:100610004890BC30B7247CF6AF84D8006A16EEB29E
:10062000361400E0B780E548008000406C033EB21D
:1006300014E000106FE859E75150B7C083B042137F
:1006400036618D543007798083380C840594B0E48A
:10065000B258F8E70684EB4106344B112437F437DF
:100660001983B750B760FF525907B7001E058305BD
:10067000B3E6FFA153525DB6E9515670FC330080DA
:100680000A5456001B0000000000E9010A040AD4C5
:100690005927A62776D4E7258324356400D0B730C0
:1006A00066070040915500800C770080006095F54A
:1006B000B730F6033B06700200D0A3C4008056009A
:1006C0008E048E0400C000F0B730B9608A01F54492
:1006D00070C36006EB6425445144AA1656E048C036
:1006E00044880000000000000000A5B5A667AD2109
:1006F0007E6564044E9848F4063444F18E2470827A
:1007000000D0A3049D771F74DCB00000B38400C048
:10071000004076387AA8E741000000000000DFE8DA
:100720005957E66394B500E00823008006B46205DB
:10073000E198AF6838449AD7F1784540B4E6BC8771
:100740000A4400000000EB02003000A0B7400000A7
:1007500070020000ADF0BC90EB71EBC100B061081D
:1007600096064800830500008305A40400D000A07D
:100770008E1400000000000075F4EB0183459135F4
:10078000E941001028A711B4DD6187065702B003C4
:100790005407A30448009D0700005D050090D25354
:1007A000D778593756A00040E503E5032D0276A817
:1007B0005D021B40000083058E040090B654442166
:1007C00048804840480059E791A5EB4100A07F08C8
:1007D0003E4752626557B70056E02A8392412AC5C8
:1007E0009115B4337A050000000000B0001002300B
:1007F0000000DF08CF023E676978D28515B6EBA10D
:10080000988704976352A277D603C705E5030000D3
:10081000FC01830583A50070EB8108930AE40010B6
:1008200044817B47F5037002E9710020005000E02D
:100830004830007000B00000B7E08862C34718C0BD
:100840003857B1579784B3C20066C94276159D7573
:1008500076C1CDE57923A8030000D9000624FB73F7
:1008600078345A5011460B13A8A5E704B7402AB1B3
:10087000B6966445BA0706267C47B7008088BB0257
:100880000C010000B70048008F7500205E02FC03D9
:100890000A04565000E01B303EB659275917FB3763
:1008A00029B0D4101C760598B7701DB500F0BC10A7
:1008B000009000E01B10FC04B7001E05B700810685
:1008C0000000A3A440722F88007000B0480000C050
:1008D00006742712A6B3EC75B7707193F0D50000BB
:1008E000FD92FC73B7509E07AF05000000005C004E
:1008F000D30400A000400040C568AB92C08799C5F2
:1009000016B14800A33400307012835559B7006007
:100910002E2856F00070E563B75048008E04B7509B
:1009200058673E340080835500600050000034F06A
:100930001797BC700030B7A0004056208365EB517C
:1009400083551131CE173C026F972858E3B727F62D
:100950002A47F703F9060000005000607072177014
:10096000B770FC43A635A334EB1100A0830500400B
:10097000366170E868636407B6A1CA17326071E82F
:1009800084544780BCD0B7802CE7004044218C9130
:100990006557E971C7955BE7EB120000B7B00070CF
:1009A00043483BA549350000006045860080E911B9
:1009B000B760E00117070000E931009076880A046B
:1009C0008205000000007A715528767800B0EB01AE
:1009D000009000500070A3F448500282A374BC1031
:1009E0001E155600B700040600E00080B7401AF656
:1009F00056804421D61507D0E32266C25414C8237A
:100A0000D1180A540A840040A3440010D808EE9577
:100A1000E57359070A0456000A6400E0D81600F08E
:100A2000B7E04650BC007A08E901AEC600C00070CD
:100A3000CE93AB2021705690EB52007091E8488025
:100A4000762800F08EC27B2700005B050000560070
:100A5000BC020000560088010A04B7200080EB4168
:100A6000CBC5C7B000008E0400000A040000B70028
:100A7000B700E9610000E34391700E26B71036F12C
:100A8000E4080177AFD44820B72000005600B70033
:100A90000060567048806E3283F57343F1E5E78756
:100AA0001253FC93B3A37078000477010000EBA20B
:100AB00000000A44A3040000BC007F188FE7003048
:100AC00000E00060B26516F347C6473448D5555577
:100AD000E608DE711FE0732500703FB6FD0349850F
:100AE000F205DF8457726BB5AC01449114310715E0
:100AF0000070E9B1A304EB7100B00A048DF3443136
:100B0000006007753F720010E5030000B700003079
:100B10000080B7500538EB627B684182C59464560B
:100B200086A0A607004000008E047E018CA4000071
:100B30000040E5038E0400000CB3CFE70010590716
:100B400000008E0400B044E10020B79048E0EB11B3
:100B500000006C73EB019E080904EB0200D000C09A
:100B60008E745987004008040050766800707BB48A
:100B700000E0001000005600B700560072050000AB
:100B8000560091054800E90170078305EEF500D095
:100B900007855680B7404800EAE22B01BE08665838
:100BA00005F0A24402624860EB5100100070002082
:100BB000089300E00010560000000000403237416A
:100BC0008E677AA8B700594700A0327700800000EE
:100BD0000070E921E9E100800040A364CE48008074
:100BE000007000B0B60470026704B700EB51B72084
:100BF00048609CA03107EB7119508953EB6156B0E6
:100C0000EBE200102B81E9410000A39494E5A314CA
:100C100000700040E1360AB40AE459170090B7E0CA
:100C2000701200007B04000000304880005000007B
:100C300000005F05A304000059073C2381027143B3
:100C40002308E7700020CE583297A3549105700214
:100C5000A404B7006E38AF8600A000000040A6775D
:100C6000FCB37008000000E000809084C9042A50A2
:100C70002E9602437130BDF0E8E7CD26157187B599
:100C80003D01A47400B05907293040742D4249C079
:100C90000932718704087204000000800040480097
:100CA000B73059A79D470060B750E90169C8E0E334
:100CB000C281B7900050B77000805670EB713F57FB
:100CC0004D622D7765A2E707004000C000B0EB0140
:100CD0008210F0D0C7570B53E051B70000008400DA
:100CE0000000B7504461B770009000500070BC70B5
:100CF00048B0E901009020E77012FC93D21348300D
:100D0000707200700030B780B7406C03EB3100A008
:100D1000BA480A44B740FC63833583A5004000808D
:100D20000040FF020020003000700605000050085F
:100D30007638FC03AA25A9912456DE74A687B7004D
:100D400059470060A651000048908355007000008C
:100D50007A04F804567000A077315FD6FF2283250D
:100D600091058F0756000060BC5000000000000095
:100D70000A040040BED800000000EA000804E701B1
:100D80005A07A304DB40B740001000701BB0B70047
:100D90000060A657FC738D415640A314B700590755
:100DA000B720F2349D375378AE3100A00843B71016
:100DB0005600A304007000B0B40565A7B70000405A
:100DC00056C03F66003048801F07B720A7B765E5CB
:100DD000FA127905000000002097B720CD077D00AA
:100DE0005600200700B000600030BD875C02A132D1
:100DF0008305000000006C03B7002208EB7100B00F
:100E00005907A30424040000008056004840FC63F6
:100E100000D00030A3044800D4070000E9F6000029
:100E20002E07BF00320600007802C803BFF00000A2
:100E3000F4550903E8000000005078A211710CF28B
:100E4000006009830C021CD00060007060D5007047
:100E50005A38D2E3D783320619D17264C9A2A9578E
:100E600088405A550D057322539318050030802190
:100E700004320933FD61B5F0B935AA37B187B31132
:100E800044010903BF009755A5975566168109438C
:100E900097487DC0F98655630366F4B03D21EA6149
:100EA000779556345985D351C96586026ED38862C9
:100EB000A5674DE394414D7394976F58FA67BF70DF
:100EC000A55790086FD10050F2006D00410100203D
:100ED0008DE40020E1900000F2302A5100D0978587
:100EE00072E600401731110100D0006000D0A597D4
:100EF000BF5077C5D777D5381A23A3360060DD9762
:100F000055033332CE300F854706D223BFD0BF30D2
:100F100072F423B50000E3E809D36A0489C1A2038F
:100F200029240943D7E772242A0100004D03000059
:100F30000000BF00000000001101C91300B00973D8
:100F4000C7F032B648080040D5B8BF10E222F3F52A
:100F5000000000400FA288503E8503867D0114B03A
:100F60002F54B13477325D860000D808D7070000CF
:100F7000550600005503D5C809E3E308327632E68A
:100F800055660070B4D3097378E24F522F575490CE
:100F9000E9A69E0803572726B873A52709D3F03082
:100FA000E773BFD02D7209B30A419765A4338BE470
:100FB0000080BF009D05D8020090BF00D2332E24D0
:100FC000C9320963C934A5873D02E92197D5C833E1
:100FD000780209030903762400C00050BF300040A6
:100FE000BF10718809732E270000BF00BF0097F55E
:100FF00072B4090383009707E604D2710090D056BB
:10100000A3970000D036ED9800009D3500907942FE
:101010007882F03070E1E388D855C0F286079A31C3
:1010200063C56363C647D99235036E0100000000B3
:10103000E3380923E95628039705950700100000B7
:10104000D52897050000E202030602933A45A14322
:101050009631BE654605090300000000000000004F
:10106000D7077A040302D727F4D50030A570D2D36E
:101070000070A5F72EB74101F020E2E20923DE67F8
:101080004921D24394462CC34B31337598458E7811
:10109000642124453308C12003B89D63CBC500C03B
:1010A000D73755930903D233B1170030841600E0C7
:1010B000D9F655838E1655F3E986389204032E37F8
:1010C000411100E0A0260000D8024E07A537D2E368
:1010D0001627A507C10497050010A517E614D51813
:1010E000A5179311B715D213A517003081B06A1553
:1010F0001DF533B60903000097D50060BF0000005E
:101100000000BF90E3D8C07076550453EF334333EB
:10111000D026A15257048E000000EE0009F3BF0054
:10112000F75672A4007097354656D8480000D0068E
:10113000E804BF207832D864040448068C06BF80D7
:1011400000F0897232A6BF802A604AB602839610E8
:101150001C85EEF60042480700000903005097A5E1
:10116000D076DE28BF30006009D34D23BF0046088B
:10117000D7D772647852975500301CF742F48E210D
:1011800011E53DA2B57129F3424393566201000077
:10119000000000A00050004061058D03F080E232A5
:1011A000E843D0418E4384E7542800D00060D00546
:1011B000FF1672840705FF982395CA667D044101D6
:1011C000320109C370F1095300A000A0D233BF302F
:1011D000E4825523B720FDE52C760903B3015F04B3
:1011E00000E077E54F0894F797B5BF00D737E1984F
:1011F000C548811550758D44C046DF767A304FF76B
:10120000D9B44957C51506F52900C855F0D00C8248
:101210004D972225805124B4C314195244A7B472A7
:10122000AC33F89547459B670000F270004000A082
:10123000BF200010D2C30010E9069EB43E721928E8
:10124000B3472DC5D170000000E097755503F0003D
:101250000C0241C10020F0100C7217779A8097059C
:101260002EE045335C080C08BE0809032A019705E7
:10127000D0100000BC13C8101E8134010000000013
:101280007802D2E1D82400708131F0800060EEC491
:10129000D2A3E35855132911BF10F2C0D203A527DA
:1012A000003000E0008096F700B009030C82B50220
:1012B0003A820129C5E7BF008732C3E30080D50821
:1012C00025A70070D7A7D0B01D8022177492BB85C8
:1012D0006C78E1C0C113E1F000B0000009E309231C
:1012E000E340BFA0D5A300303D74EDC16042873517
:1012F0007130AE440BD134B22822002078727D4583
:101300002A51E3580060DC03B4451567D273BF90DF
:1013100041554D23F2E0DE27ED0000000000D0E64D
:10132000BFE09D07F20000000000BE244DA332265E
:10133000DC148082363066240514E56228067205C6
:101340000000000000A09F63BF0050B60B589F55DF
:1013500011D1008000D00040F15209336B10E41825
:10136000802046705340BFD08C968A62D7071C00FD
:10137000D7070000F20078020050D757C136550356
:101380007204E3088150D050EA363725A5D73236AB
:101390000CE2E1C77001D2737FD0BF700080D0161D
:1013A000D518A51700C00040005000A08C76D7A724
:1013B000BF20012000E00040D273D8C885028C26EF
:1013C000005000902E1709335513004072F40000AE
:1013D000F4554F06FC057204D27300D000702E77CE
:1013E00000E0BF00A5279FD300304AC6F020A350DD
:1013F000EC922F01D737A5277C33A4278A01BF00A1
:10140000000000100040A51702324CE20080F050AE
:1014100000A0D273971578A25E729E97CBC20E4140
:10142000A29000000030FF2040D32830B6F8DE4202
:10143000CA34D32581105804007009D309730C42B3
:10144000BFD0D045A0930099BF40223009034391FB
:1014500081500BA60070A5F700B047066D0000F0A4
:1014600000004DC300000020F0E037B50963FEB670
:10147000D528B11700F0F06000804D23A5772740F4
:101480000000D20300008E00A0F74E0412010CD21F
:101490005553A507BB004D030020D872D066F2C09B
:1014A000A577A5572A026203C80323F53206005028
:1014B000D8082104990309D3A5370020BF000000F4
:1014C000D0054406E3080000C3788CD60070E4021F
:1014D00078022305D24370F100504706470600000A
:1014E0000090D8022337B31168B702103256E3A830
:1014F0000070B5A5035009830C224E873D02BF0042
:101500008AD2E460D2B106630010A847D428B6138B
:10151000B6931903D63673D400C08763D285D7C774
:10152000131792040000000032B6ECE0BF2025271C
:1015300055339F66830094D7BF504E06D707970553
:10154000E30855E38D24E5700973F050002000D0C6
:10155000D538D23300902085BF807014000041112F
:10156000E368A54700A0E3F80963933314451677B1
:10157000CD927B044131BF0000F0BF005503BF0096
:1015800000002B670010D07691A06B2800103791D7
:1015900028007832008000C0BF2000000903F2025A
:1015A000BF10D948A015D23300502E14F60472048F
:1015B00011010913D7C7A5573256DC562D3200004A
:1015C0008DD4A567A5B700F0BF4036064706BF001B
:1015D000091300B0D203D6D80090D0561031004085
:1015E000CC54FBD7FA053B2100F000B0F0007204A8
:1015F0005104780209030903E3069705000000007F
:101600000050BFA0A5770040C8F3A753D085005075
:10161000726478A2E3C877207E2472600D4004F1E2
:1016200072B4110100D0AAD3CF35724400700060AB
:10163000146439085495B0581E565A36D5A82365F7
:1016400000701CF0B3B10000B80253040000009019
:101650000000D538000000000903E25200A000702D
:10166000D8F832B6A50709D3D0E6E5660051F5866D
:1016700078187F1521551167B5022E02290209C37A
:1016800062C192340090000000302A010000410144
:1016900078C2A50796270993BFE5D2430090BF0003
:1016A000F03000C0BF0000202820BF700040810043
:1016B0000000F0000000BF00D2030000BF000903DB
:1016C0000BF0D5B8040605F200B0C1063DA5457182
:1016D0007328000032D11851D02639710040E251F0
:1016E00049241112F014A2C6F5823A86BCB525171A
:1016F000A7E556C76E252D56D174D186FA08B66671
:101700001613000098034D03976500100070002029
:101710006DE06B2072240060BF30B8180010B31168
:10172000098382448455CD13A186BC0809030000B7
:10173000F000BF40E9867C730963B3D17970CA4376
:101740005A956C805C934C060933BC52A385F30018
:1017500025E024575C4637555553CD389B835F179A
:101760002385CC9283400080780262074D02D00529
:101770008406000000504A164A8600F0A567BF8024
:101780000090000000309A17BF88D006315897D5D6
:10179000008061550050003009A30070004009032B
:1017A00055030000D7D7A5878D64B4F50353F926F8
:1017B000E3A62E440060F4407284B0031E8089D0FA
:1017C000F911CA05F5050000D53800E0098300F0DD
:1017D0004AB69723EA10D175BE30E0F850B84A06F1
:1017E000BF700090005090706FD36F74E308B40026
:1017F0000000008000900040E20830030000A58750
:101800000070D5280C0200002E072E07F907A5034B
:10181000D5F8BF30F05096D612257244D675F2D066
:10182000EC78BC46F2506467DF880A50C2635221EC
:1018300000F02A01000000000000D0A60070D78749
:10184000E8674960416173F126B7000000508AD211
:101850003B852A61D568D777BFD0D28300402375F6
:101860000090D757000000000000E202E00155039D
:10187000D7F700B0ED039D95E3B800000020D23308
:101880000060D528BA321B67432100700040E3088E
:10189000D2030000A507D2034D03A5A7B3418E6074
:1018A0000993FB159608C0983256F34890D785A740
:1018B0005A18E008000092004726A577D7472D1256
:1018C00047964D6600D0D241A537D22334E500209B
:1018D000EE00BFD0BF601607E002F10496C700100B
:1018E0000000A5E7D466DC086F62C3A5E604E190BA
:1018F000EE28EB8308B32B12C9245A364C53091334
:10190000000023558D148300000000002C0000000F
:1019100097057264D036D51887114DA3092331027B
:101920003C840B32E3A855335916005004D00030E4
:101930004E040000090300008AD200504A26C0501D
:1019400090431513D8374A4633014AF6FC54D46500
:10195000D1A84A78EFC28C634A463796D913BF7430
:1019600078A246046C3705B686847F272CE81C5283
:10197000416100A0A587D21309033302BF00BF80D5
:1019800072D6D72709333256BF6023A533220319F5
:101990003286D717003078220CD20030E3C8D598B1
:1019A000A577F00000F00000EFB06954E1589667A9
:1019B000B1537C3063702321C888B20551F84A06C0
:1019C00000300C92F9767E437F03D69464268CF423
:1019D0002936F893DBE7CA886904F404F000006054
:1019E00000A08C561F959C05D73700E041F10010F0
:1019F000E7D3CF26BF2009F332B6BF004A86DD31D8
:101A00007854A1335726DE13851626512B1632063D
:101A1000F000610100C000703D54C3970000D7374B
:101A20000933D2B3B31100102D42A5170050BFD017
:101A3000BF60B72840061375540300D00060AF2084
:101A400055B3A510EC760B75015860A360271A11E9
:101A50005D0367079B048A5200A0097309D394941D
:101A60000602BB0400009D0500D00E220E727775A1
:101A700091048D0171815978E15099D8E663DB18A2
:101A8000CFF03CB2000009C33286006000C00903F9
:101A9000972565D7D882BF40E3D800800040E12079
:101AA000E874BF408D2109232C45A8439665D78152
:101AB000B3710040BF603D6209E3DF32007000D0C7
:101AC0000070BF9000000933BF900000003000900C
:101AD0004D03003072F4E1405C437F71B7683041E0
:101AE000C581CF28E7146D923106D13342D14A86A1
:101AF0005544BF3009E33B85BF00D508E80697553C
:101B000000500030F6248B3600600DE647653A152C
:101B100042A67F40036555E8F688D3433F818CF0A9
:101B20005311BF509F635B842A81BB730020004028
:101B300097E50020470647F60903D2030000D006C8
:101B4000D72732F62305009000B0D767360500008E
:101B50007204E68000E0A587C903000000009785B5
:101B6000D777812000A072242A11A507E906D005A5
:101B700000F000B0D7070CD209633A51BF708190D2
:101B80000050D70700000000BF5049A178724DF304
:101B900017B10000D0064A060C02A9F796B7A105B6
:101BA000003000E00080239500005A344A36D546C4
:101BB000011609953E04CB3154010000000000D00D
:101BC0001D11001000C001BAB1A600008C04000075
:101BD00000300010EA050000480148019203AB887C
:101BE00000906003BC0A140048A13A311D1100D0D6
:101BF0000010C11A0010000000500080009000206A
:101C0000C053965335980000650A480118071C0810
:101C1000480100000000000048A1C0E90050CE4289
:101C20000010000000007665EC623230AB99BD37E1
:101C30001CE8C4E600404801F20800000000F20879
:101C40000000BCCAF2781D612ADAAA12EE13000065
:101C500000001D011D311D11CE62648A3B4A4110F6
:101C6000FC274369455A1EB1DE69D6A019F9729165
:101C7000012449E341C003230080C02633A91F8803
:101C8000CB460010421336050B584821BCD5B38013
:101C90001D77157787800842E440FD818CA56C7222
:101CA000753524F6AF432745F658F08AFC27BCEA81
:101CB00000C00020111100101111482100F04881CE
:101CC0000030000048314881BF2864A2AE03B271E1
:101CD000002000D01111BD160000BC0A00000090C9
:101CE000EBE288557B453028BF09F2881CA87F911C
:101CF0004EB39E74310A00003A01110100803A414E
:101D0000FE1748D153391D04335A026AEA500000C5
:101D1000BC0A640211114282CE929183DC49001008
:101D2000EE2300F00080EE030000EA054801E60221
:101D300000000000000000001D3100000030CE0255
:101D4000344248313A813B38CD51007013091309B0
:101D5000F288654A8512E8E200E000300000E708FA
:101D6000EE03007007000000D7EA00C01D218C843C
:101D70004821470155633661567114317F091E3879
:101D80000080E01136700000F208990700800040E2
:101D900000100000FE02000099D70010001048213A
:101DA000D70ABC5A7FA500F0997700800040001048
:101DB0003A01BC0A070B114100C048611DC13FB484
:101DC00000A0EAB5CE42F7830303000000004801FB
:101DD000990708060080BEF7D734E125C7114B13D9
:101DE0000CA5FAA2897A8CD499170010A547AB48A4
:101DF000612A15B92F35AB184871ABB8871100802F
:101E00000040001000D000100010F8E400601D51E8
:101E100054B11DA19987ACB025A869850A30C16667
:101E2000C03A0700FC01000048017101000000A059
:101E300047831956A357836603AA08D056101D116D
:101E4000003001050030BC9A9792CE723D9500900B
:101E5000B176231803F300AA17D3CE1200100000A6
:101E60003804130314C065A2CE929907000000B095
:101E7000280A00000000950600C0BC9A00B05FE090
:101E8000AC926E698269D8AA7E0900000000000049
:101E90000000480100D01D1100101D61012928B962
:101EA00008EB51E5DE484881074000105A07E3B8C7
:101EB0004743932A1847D5AA820A48F148317D45FD
:101EC000D361002064E206C29927EA850040001031
:101ED0000030EE03003048811D411D111DA199976E
:101EE00013871101030311014811EE131C18EA4571
:101EF00099674821274931625828CB38E0C03E40D5
:101F000020E077A3CA1950390000EA3500E048E123
:101F1000FE37A6F752564F95110100000700CE522A
:101F200041D57BA0FAE300E000404801000000003A
:101F300000001D01000048E103B3CE729907BC0AFE
:101F4000000048D10010BE17C93AFE293D56E641AF
:101F5000CE624024000099070000BCCA0010998797
:101F60000060EEE4FD276402000048016482B1B61F
:101F7000F0381DC479C5048B90C7C392BC43CEA270
:101F800000F0936A7B30CE02003000804140AB18F5
:101F900048A146A3003A826A88E9D60888D07CE640
:101FA000EE8300A000304811CE02EE04A307487172
:101FB000A16ABE579A270E2587B6A588224200102F
:101FC000EE2348C1B4A616231B322E88B9B4D8C458
:101FD0009A8A3A014801C8097C0648011101480162
:101FE0001C08640200300000003000000000000007
:101FF0001101BE07000000003A01D50AEE84354504
:102000003A11CEC2F41464499CE3ADC1AE23000082
:1020100000004801EA25009099370080EE4806123A
:102020000000000048011C080000000003E3EE73FC
:10203000C04901057F050000EE93EE93007000009B
:1020400099070303000000000000FD0600000000E7
:1020500000003D5A80671B007900E70503D303F3B6
:102060000060A89016B6538A61A77BC60175A3D0FD
:1020700067831580A36A5ED40BA14271BCFA41A4A8
:10208000AF944EB8822828069704F958BD800343C0
:10209000CE12AB4848F1578621D71D11EE13000030
:1020A0001D01BC0ABCDA99174811E6023904BA09C5
:1020B00000D01817001003831D411D1135E500E005
:1020C0001349EAD5EA151D411D0100701D21C059B3
:1020D000CE829027A4000000EE0464E299671D817F
:1020E00000E0FEB7007048B1CE02F130A3B92EAACD
:1020F0003412004000600090CCAAD7FA487104471F
:102100004811D50300800040481138BB7F150AB63E
:102110007F090000000048E1059300A000000700CF
:10212000000048013AC1009000C00070006064F2F5
:1021300000BA21160313F2B86C68C7097F0A0000C1
:10214000290A6302CE0255861DA1034300600000E8
:10215000000000A000E0005000D04811001000D0A6
:102160000010B1160000EA051D010000000034084F
:102170001191EEC3803159033D03F6039907000026
:10218000EA05CE6248D1007000801D4148114831F7
:10219000EBA20373D7FA098272350D30A140C9A2B0
:1021A000BC47CEF2EA6548E13FE4114100D0481156
:1021B0001D111707000099077C16C1B83E38CFB231
:1021C00048A1EB8264B25F7724880723054252005E
:1021D00011D67DB6FC96BA050000000000800040D4
:1021E00003131DF1482154193503EA0548014891AC
:1021F0004831F21865DA48A17F49213500300010D6
:1022000000001DD148816422C114EE98B3811741AA
:102210007E3493DA9D19001000004801C7057CD672
:10222000C019001000B048A11D815F178F47D3026D
:1022300021C2AAB13A81BC0A0000000000A08216A7
:10224000A423E4E403081E24862200B8EE1300C091
:10225000CEA26096571348F13AA1CEF226A93F03C9
:10226000C1393A8483552222EF21002048D1A808A1
:10227000D82857A394938C9AEFC000B0EEA400B076
:1022800000B05374F859CC92C32161C945A1D79AC3
:10229000002000F000800383EE430010481100404E
:1022A000FA07645629644E82000099070000030370
:1022B0001D01B10648E148C121264841F21800003D
:1022C000EAC500707CA600009293CE790000000061
:1022D000000006070000480148010700BC0A3AB1A7
:1022E00048714801CED26492167A07D08E174112F7
:1022F000D85800D003A381321D71A257B8C9007B02
:10230000A7690070EA3564091FE505BA014B5577E6
:102310002BF11927002000E00303B38665931D719C
:10232000BC071D01C00948D1EE13001000000000D9
:102330000000CE22AFFACCA78816B627166064E25A
:1023400000E00040BC0A0105000000E0BCEAD5370F
:10235000002000F00080E7D225DB0D88D29A6016BD
:10236000CFA9F251744459782C0263011D01110167
:102370003A01AC0900800040F2188492D79AEE74BA
:10238000BC09FE070000EED400100710EE98D79AA3
:1023900000700692069200709917009000A0FAE76C
:1023A0001DE1FE4748B148A1BE878008D8F9030A5D
:1023B0001D0100000000EB221DF103833B8AABD816
:1023C000F9823E96BD9A007048016402EE030070E7
:1023D000EAD500A0C40500007F05000003E3EE037A
:1023E000FE37000000309907BA049D08008044467B
:1023F000001048010000B10600009907C80900005C
:102400000000BB04487192E31887EE84114100106C
:102410000020009003332D0AD8084801001000A0C6
:102420000090BCF03F624E80B6798AEA3D52FE874A
:102430001D414811487103D3E0A105D39087843131
:10244000DCE612CA1121F744A133DE326488004071
:102450000010BAA4B1E600503FD46221FE579AC3DF
:10246000F1EA1D311D51EA2503B300E00070EB8253
:102470004C857D443F15A3141D11B4445816061510
:102480008A7794279AF100809D89F743001048814C
:1024900000B01D010AE7D8E75F44EA05E00100004B
:1024A000007000108950AD09D5916C972A63A91A64
:1024B000BF878F82E951734018C36A66E50097367B
:1024C000E7EAAD57F964FDC3E014BC0A0806B7019A
:1024D00000E0EEE40040EE080000E60200D000104C
:1024E0008811B80100000000E00089050000EE0836
:1024F0004801C0094821C43648710010EE14F21892
:1025000004E399B7F1723C14F3F7E381875A1D6134
:1025100000A000C000E000501C080000480100506E
:1025200000B000504891101087213B0600000000C9
:1025300048713AF13A011D9100901D71F11200F0BD
:1025400003A300000000BC0AF2A864E200501D5181
:10255000FCD948A11181484100101D71B731549A2E
:102560003E14A6767C20CD03884056520000000021
:1025700000001DD11111FC171D3164020030FA0753
:102580004100030307506442183700B01BA11D81AE
:10259000B156859529A363B78AC7FBA709360020E2
:1025A000EA7545564460364242662AA08D37DC0300
:1025B0008200D11955B40917481148911D11EE0830
:1025C000B14629280EA6149000900070000000006B
:1025D0000000000000000000006000001D21D78AFC
:1025E0004841001000E048C1002000000303BE077E
:1025F00000D03A1185170050BE37ED582F9165F382
:102600001379FE8A92A4E18100805847031300A049
:10261000BC8AB286F939EF049F3000E000B0007048
:102620003AE100B0EA75F2D8001000101D010080F8
:1026300000809937ED00C0391D91CE9200701DB415
:1026400000D00080000000000000EA359DA8037360
:102650002A4A926A012000800040EA1548D1BE1340
:10266000BF11CE82004048119CE800E0FE47A70859
:1026700000007C0600B000E0482148314881005B42
:10268000BA64D3FA1C01009364994871EE83034342
:10269000AB181D01CDA13FA60108DA083F04008058
:1026A000CE2248A148814841F112EB328B9722A6F5
:1026B00041A039AA0E48BB5230A0027348810040A5
:1026C00000100000000000000000F208070000D029
:1026D0000010BC17EE033C05000000906492F278F5
:1026E0001111F1CA5920B1412C3AD5086303911850
:1026F00041579DA935DA18565AE1FC17AF7500B05D
:1027000048E13A511D01000000000000C009EE043C
:10271000BCFAA944811900D0001011410020F2F840
:10272000FA8314000000000048010000EA05488117
:1027300048410010F303EE0400003A013A010000A2
:102740001F625EE4A82A91345469C4847C81964255
:102750000010BE8766425F18030319CB00202A359C
:1027600074C8B790F3D823B2BB297AA6343948117C
:1027700000101DE1C15A4A72DD02F360F9D9BC1A9A
:1027800000101D01FE0700001DE11DE11D31634920
:10279000A5A762061D1103F38C14473318D9373BE4
:1027A0006C0541020000D70A00001D0100D0001096
:1027B00048117C26CE22112148010000000034CAB5
:1027C00000B099A700803A31226220079707820162
:1027D00011013F0400000000BC0A07004871CE82CE
:1027E0001384AC88844336130000BC0A9F07008022
:1027F00000400010C81103C364A20BC600B000A0C3
:10280000480199C7009000D0BAF391AA10070000C0
:10281000480148010000000000003307000048F1B3
:10282000F238B04621661131BC0AEE040700000AF6
:10283000DB88CE42D51ACE42BAC4FD560C22449152
:1028400088351D81EE744130C509ED0697070010EB
:1028500000100010BDD00010111111011DD13F83D7
:10286000A107E001BC090050BCAAF238430ACB081A
:102870008B07AB0848017F05072048F10080004026
:102880000010436340002309D101A3C7EA12488125
:1028900014C003131181054500100000EE234821E8
:1028A00084271DA100F0007048010000000000E036
:1028B00000E0483113C000B000A01DC100B0A4A0CA
:1028C000000000000000487157033AB164F3FAE9D0
:1028D000F11648E14831EA050000600600004801B1
:1028E00000000000004048318512BCEA00C0ED2421
:1028F0000020BCFA488100A000E0005064928831BA
:10290000EB820000BC0A850200E03FE400409C0925
:1029100000004801000099074801008000900080F5
:102920002D0A000000001857A4E000206482284A05
:10293000BC1A22850040481121268ABAF70083DAA2
:10294000BC1A0010008000401D113555C89A9947E7
:10295000E7E860B9BF18D70A8B0713000000000032
:102960000000EE039293B68640F6F9D3181BFE865C
:10297000CC4AAB181D010113487148E148C1932AA4
:1029800074263031BC275E747145BC3A00000105E5
:102990006B07001048513A4145B2CEF2CE3A16D1FB
:1029A0008D14B211F2B848A10C8548D18915F110E7
:1029B000C70AB666CB531D0100001101EE03C00922
:1029C0000000033A00C0C839C9025EC8909A0030BE
:1029D00000001D31EA7503930993EF53939A505405
:1029E0003C86CED200801D413A61F127D0D1ABF8B0
:1029F000620A8B770195AB78111187F5EE2400E020
:102A00003A113D6126DA3F93D320000048116B1242
:102A10006677B802AA08CBC4801497B5DE060D0A03
:102A2000E407002000F0008000109DC800A0AB016A
:102A30001D01EA0500707C06EE7300C000F0CE7246
:102A400048818901B9A126D8DB04C83542E581CA8D
:102A5000EE24007000D048A1480100E0D3010080BE
:102A60000040481148010000E10800D000100313A5
:102A70003A918592BE77EA750000C806F6F6B53140
:102A8000A67400300010EA95001000A048A1EB32B7
:102A90001D111D9157F7E350D753140A9702E8020E
:102AA000004048B11D11C4AAC636BA54D788F7C32E
:102AB000868A0080484100100070B10648011D015F
:102AC0001007A30700B0C0E900203596E968C6A248
:102AD000D05099C79E597D2AEEF300800000F2087D
:102AE000B106EAB50010A912F21480A87EA4C9713B
:102AF000B906810500A000B00040EE08EE0300001A
:102B0000998799470010F2E8CEE21D81F2C80010C3
:102B10006482AEC307B064A2000000000000EB02B4
:102B20001D01EE03009099F7D50A07323B38E08289
:102B3000CB522834F3323C22693748210000000090
:102B40001101ABE8BDE4AB7817BA1DA173843D68F1
:102B50006402002000001DC18196850200003A0138
:102B600000D0A11A1D11AC413595FE5A61F6248B97
:102B70005A95A3487264F2980303000011013A01C8
:102B80007C061101F2087F05EA051D01FE07000021
:102B900000400060482182061D01FC0700C000B013
:102BA00000A048015708000001D51D110010003099
:102BB0000000003048110050439AEEF3BEA09E8101
:102BC0002C046C039207CEB200A0D888BAB4F2A845
:102BD000AB88C3329E18C19A00000090007099D74C
:102BE000F2E8000000C000B00070002000F0488152
:102BF00000000000000048815C41FF10D70A480136
:102C00004D08000003034801033348814056BE8845
:102C1000C2E4F16ADE45AB384076650959A9CF5662
:102C2000CA40D6A2C0718807FE070000CD02C703C4
:102C3000080100A0EA3500105C0301050000D7BAC6
:102C400000E00020009000900070118100404811C9
:102C50001D811DD193853342A5B05E36BA4651E140
:102C6000BB2AEEB30010008049960147671AEA06B6
:102C7000A507BC0A4801D70AEA059957113148311E
:102C8000C9DADDE1A53833AA5DD1C2423788BC423A
:102C900065139907EE050000023E4D323E14425482
:102CA0001A24503A15323425160426114D4B142699
:102CB000041A50114B1422534A1D083C52650C341F
:102CC000382304141C243C50546624381E244A51D2
:102CD0005C081D393C484D43144405204E504E506D
:102CE000164D08354340080C393214103A50170C71
:102CF0003842041C225141101C4B05140C274D2452
:102D0000364D120414243C5606041420243C546608
:102D1000124D053167112D326526550A24053604FA
:102D20001426243E35400A2406152C4A524D05250A
:102D30002D4015324D15083E4D2C183068081034C2
:102D400048500E510B0D544E36303940506A514F99
:102D50002412224033041420243C48545C66261E6E
:102D600010612C3C080D2831353848554D2314325C
:102D7000344D13543D162408502C04101430384A96
:102D800005164D524448050F211506243D330430E5
:102D900058090D10141D2C353840484D50606A05F7
:102DA000104D3F2E14546A26244D1240331426141D
:102DB0003F2A501458050C101C3034393C404C1B31
:102DC00031132D4D070514243C66404D17041E1485
:102DD0001C3A4D331B0414243C546A4853243D656B
:102DE000382C0E55060C10143C501C3A2438154A49
:102DF000152C09040C10181C243034394151585D2D
:102E000062243E514125080C181C3035394A5026A1
:102E1000152C561615545240342433152448115697
:102E2000145619495A1127541466210411141D31DE
:102E300035383C484D505D6A191534505A054214D6
:102E40006A4C4A22301F51411304162534432C404A
:102E50003048585E25561A213C52326104090D1043
:102E600015191D2025283035383C4144484D51580E
:102E70005C6B102433062408153B25303F0A251AC5
:102E80001C4B2C074D046961080D101C313840485B
:102E9000506614064D65074932053A26250E194D30
:102EA0003A0425080C10141820303440484F3C5682
:102EB000243C14522C0C11181C313438494C524DFE
:102EC000560514264C174D214A19655135384D16B3
:102ED00056326532513232304225112D3E14053CB6
:102EE0001C242C3867334D15303E265514262516E4
:102EF0001614262C266549530E15320C520614243E
:102F00003C5466066532423C3A3B6940440D10141D
:102F10001D25313439494C505B301A4D324D153E28
:102F200015053C252A3C0621040D61101C2430386F
:102F300040484D50545C64352F0621051424303D23
:102F400048545E113039414A563012101524303E33
:102F500005485F1A4D4A18080C10141C404C50606C
:102F60006A195168213048425624553C0561680D64
:102F700010181C2C30343840484D5251143D6626F0
:102F8000151F1D2751261E041420243C4854660892
:102F9000143B314E223A1426144F2404564D165534
:102FA0001F263442363D04381C521B1D34584E3007
:102FB0001614321E3C0C10181C20303439484D5168
:102FC000616A15040D10181D24303538494D5054D0
:102FD0006064680A053A14243C564D2E25053B30A2
:102FE00016040C1420242C3034383C4044485054EF
:102FF0005C6624180D11141D313840484D515D6236
:103000001D392E390F261D163D5316083017214D38
:1030100016143C561D09340C142438484C5054588E
:103020005E4D3D050E3F30651615243E1604400DDD
:103030001C24083035383D4C5054585E4D56523A99
:103040003D6524500416054A0E24543E05080D1112
:103050001D20252C3134393C40494D51545C606A67
:10306000640414243E2C1308192C1426054C223D0C
:1030700014244854661448500E65140604164D1561
:1030800027143E153C262404143C4856322D520C7D
:103090005205562C233E2152215214303A402635F7
:1030A00043343B3250101C3D674D090C10141C2C4E
:1030B000303439404804523A050C25386325150749
:1030C00021090C101C2435383D484D505C32241623
:1030D0004D10500C151E05263F15652456403E33F5
:1030E0002537214918301D545C4D3A52212C0C10C3
:1030F0003135383C40484D50545F3F0C15053E4932
:103100003F11394021264D052464160458573816BE
:103110003C12154D674C524D052512262551410D87
:103120001015485B22543F161424303C545C66054D
:103130001710361D3A310E652512241614324D1023
:103140002C305A2D221614265105484D3B1C3E0AA0
:10315000344030581048521A513848171A22194D25
:103160003A04142024343C5466655149113B2556D9
:103170001518340948122E04151D303848506215B0
:103180000C20524D651D2C3D16513A2F24063D173B
:10319000060C3A5024164D2451314010493B4D3213
:1031A00014080C10181C20242C3034383C40484C97
:1031B0005054585C624D1669400C10181C3034385D
:1031C0004D5209140D10181D2C31353840494D5001
:1031D0006A4D161D38126527160C391532651536DD
:1031E00040171009141C2D34384145484F6504160A
:1031F0003D251626302F544D3F633D2F1B363C6B2B
:103200004D151E15615C1D304852370C32124D159C
:1032100024070D383C624933151E146715510B0401
:103220001424303C545E1C07503724311614670AAE
:103230003E302D0E1F513430101D0524484D0A48D4
:103240004D531D48384E4A3E4D533D0A5608140C06
:103250003811181D242C303C40494C5056064D1551
:10326000674D263E3A11404C52382E1715632124E3
:103270001C5C040D10142C303840484D52143F5043
:103280003E4D14512658561432131C245D555930A6
:10329000343840494D0F08564D140706261E4D3D43
:1032A0001451103224404D153F183024124D38432C
:1032B000315F4D263B64142610141E42483B1E65A8
:1032C000250D3D4D49534C0414182024303C4854DE
:1032D0006604241605406516203C1E42142432154F
:1032E00004651C3E05174E42143E1431340D2F0464
:1032F00014243C54663611320834420A313A0C36F2
:103300004D3E2531503F3D05252E2441152D1138C8
:103310004856653E144D061D1754164914053208CB
:103320000C1114181C3035394048596305265E6568
:10333000552C58304330080C1014181C2C34404CB9
:10334000503A4D15045704161025065D3A0625120D
:103350001167080C141C303C404950545E243C4A10
:103360004D0C303F2F041424303C56514C14303A4D
:10337000651610153A4D3C2D50561D5830422150BF
:103380002E15542715390D1C092C3134484C55582D
:1033900062563D24414856053E4D05161C4C0553CA
:1033A000354A19480615224D6514511E15244C0640
:1033B0000524140C383C4A415F054C3E15613C64C1
:1033C0006B1E514E3A3D050E314A3A6514264D0B9F
:1033D0001404324D151C4A053C4D261830112C584A
:1033E0001C25293438404850545C64684D232127FB
:1033F00038136514321D4951403B04361016143EF3
:103400004D16211E05251724174D3D10400A1D3F5E
:103410004D15262E2416155D1C3C3504080C102471
:103420002C394048596821322214311C485A13144F
:1034300011073C42243E24366517241453412F11B2
:10344000172249324D152E315A4D143D26041424AD
:103450003C5615265E3E103216241E2105265A3093
:10346000052715260C4E1B1A654131063034383CB1
:103470004044484C5054585C60646A3D4025174BAA
:103480001C102C3034384048505A21071D19095A55
:10349000153052104953140C1C514A6A054D174AF5
:1034A0004D5850111D30394868163D245D352C1596
:1034B000080C303840484D5159602B514C400B0E90
:1034C000055551156432544A4D3E24144C1018329F
:1034D00024312D525411241C4C0914433C354F1AED
:1034E0003E12215215332C3A491153485F65162D6F
:1034F000481E050814243E140E1214564D42250C85
:103500002C1E05152D4B0E21163D50263E38321C23
:10351000565432314D064D0E4D6527152536150E84
:103520001D4E26253C42103D52546717051609547E
:10353000350C111C395D2F3C0538570414243C48C8
:1035400056153A1054055240153F442D4C523D2417
:10355000503A0524523C070414243C561221494198
:103560003C05140C32143E3937150524303E2638FC
:10357000524D3D052611041B424D146532163D0582
:103580002552513E3F1D050C382E020217510E3CAC
:103590002416153D2E16510E51400D493A5167190A
:1035A0000834423325152C06263D24413215245279
:1035B000304A3C1640142616360C08341C242C388D
:1035C0004A4D111509191C30343841485314202430
:1035D0003E501D1610150D303439404C50660E1CEF
:1035E000080C1014192C30343840484D515A2434EA
:1035F0000820282C4C5012381E2C043F26650C60E5
:103600001006390F3A41140A394C531C43380E172F
:103610004D10382E053D264D3824163E4B05160418
:10362000163514304204243E0D3C545C684A091798
:1036300032310C1E640414243C5625663814504A5A
:103640004136510B493A114D4B381706151D393C7F
:103650004D564F1D50103034406B200F090C101880
:103660001C20303438494C506A2D384C173D5117C6
:103670005112150C1E241C3E4C16083F0516140A48
:1036800004142024283C48545C665012151C66180B
:1036900034481509382E14243E053E3016260535CB
:1036A000123056063E1524103A1C543C585C421BFE
:1036B00031214F42391F4A501D063A2F143E3E1504
:1036C000372465321407343A2D52511C37241632F0
:1036D0003924490E6516214D14245412120416047F
:1036E000080C1014181C2024282C323F49113304D4
:1036F000111820243454314F39520E063D12411C0A
:1037000018100C303439484E314B3511394F053EC5
:103710000C3E5116400B34540A5504101426243E16
:1037200026540834425C04080C1014181C24283059
:10373000343840484C506066051508493B0917323B
:103740004D24324D05091014181C2430343C5156B8
:1037500015322641500A05102C09360C1E22513D07
:103760001C2F520C5010182E48405A653E05081464
:10377000283D654F5A31243A15654D3448091924BE
:1037800038405326240C1D2E3011534C2F113A086B
:1037900017115C40144E343324063D0A10142428BB
:1037A00030344D6B151E16382C0810141830354067
:1037B000484C5216654A15354A24500A304D3A1580
:1037C000083836143E14276B1E6534040C10141C84
:1037D000243139484D505A16050F214D2D410810FE
:1037E000141D24313439485C6A3E5305190C1014F9
:1037F0002430343941485066044A4D512842321D24
:103800002D3A503238360414243C562514061551EE
:103810001A504F3E305650141804080C101C242C1B
:103820003134383C40494D54585C6169223C0C08A5
:1038300011151C30353940494C5154585C646A515B
:103840004E65103D26153A2F15320E041424303CD7
:1038500048546619631A244A4E644D54090C1424C2
:10386000344858520414243C563A4D3A38321526FE
:10387000490414243C56064D2D1E150E124D3C07CE
:10388000484D05141C2430343C564058681A3C05F9
:10389000174D16544F155024041031383C41484CF4
:1038A0000E4D24063221045424080D3538494D515B
:1038B000596468121D2D373D55204A2416051C3EBB
:1038C0000414202430383C485458663D0A16143AF3
:1038D0003C55153038485250261630104C181E24CE
:1038E00007651D240C3A4D223D312F141C2204146F
:1038F000202430383C48545C6615054F3D244A501E
:103900000C101C253B350C394B262D230414243C6C
:103910005466140835444A3112142F05202E1151D3
:1039200024325026495E655624213A2432245832E6
:10393000244A52384E30164D240C161F053D1015E2
:1039400033341E042C3816113958084E3C36075DA6
:103950002D144832324D300639400D562416153498
:10396000654B143E51343A33063D325804081C3836
:10397000504A1A400436153E3017052157080424D2
:10398000424D3E484D2C38301C080C10182450561F
:103990004D6165050810181C24383C4049561665D1
:1039A00021553C04350C143039494D51122C3E3C04
:1039B0003255485A0938401215570C2C113B1450F7
:1039C000244D093C41495405324D5010322F140901
:1039D0002E253F42041448546452142E1610251705
:1039E0002224161E400A51041D32516856150D4CF2
:1039F0003E06155726651E581D0E65321C4B0D10D0
:103A0000642516502F2205525E35400C3A3D655D07
:103A1000520C1D38484D3E043E21522F4C4B0A0497
:103A2000081C382E0C4F240C532104080C10181CB1
:103A30002431353841484D5056043C5605111D146B
:103A4000092D3140444A14384F6639561432052442
:103A50000936041427682615650C585F510436682A
:103A60000B4D641614403E6504111530393C484C2A
:103A700050562D0E050C101C39154B4A4D243F0491
:103A80006A4D3A1430520F3D4D5824612D324D0C81
:103A9000322624534D121027141F4D2E041E0A14D3
:103AA000245057311C4A2442113226624E28273DA9
:103AB0004D3415260524151E490414243D5619516C
:103AC0004F2C3A141C1225164F1A4D58314B1539EC
:103AD0005A202E513038404A4D1616103C142604F8
:103AE00014243C56143630651E046614053F041435
:103AF00024303C48560C2C4F163D14414E4108389A
:103B00004A391B054D0C2F214D53151C053D2E1414
:103B1000485E2C1904080C10143034383C41494DCF
:103B20005214672404141E51114B0D3B3D574D1088
:103B30001E26645505142765143C573D1751143A49
:103B4000304F14562D6A3925162C214F303E25064C
:103B5000501C422651423804144A482F321526245C
:103B6000385116080C100414181C2024282C30344A
:103B70003840484C5054585C60646A2508366542A9
:103B8000052D4A15063D323E39501C3665241E224D
:103B90000414243C48563C56154865240A046859C8
:103BA000101424313438484C521D090C1134384853
:103BB0004C6A14262430165E040C4C5638531650AA
:103BC00033265D140651394D10344A1552241C1504
:103BD00067312E06142616522F491E22392F0A0D40
:103BE000114F4C33480527156A50081C34404E1DB0
:103BF000324D1408041C2C3035393D404811674DB6
:103C0000652124092C0C141D303848505462505A38
:103C100031394814371214063E150D1B495F043E16
:103C20002E514D4A050C503F153E653F3E1B650C1D
:103C3000103805151C202D404D505559630414248F
:103C40004214243611384E05653D4F246516041480
:103C500024343C546619390B444E4C3A1C304A58B3
:103C6000122D305215394B250D43651030684D1615
:103C7000150A3014264D16152E39140C24304C58C4
:103C8000491B143E22114D2C6B2F51305A2E2C1CE7
:103C900004080C18253035393C41484E4D42490E38
:103CA0002C26143E0C3A16310C3438485705164C65
:103CB0001650243C34433D06315F105C04090C155A
:103CC000191C242C31343841484C50596167364D09
:103CD000384A2652354D1950650A3914240C3040A3
:103CE00052050C151C252C3C4C503A2D3265160EF5
:103CF0004D0621154649165C080C1014191C242881
:103D00002C31343840484C50545A0414243C566AE0
:103D10003604142024303C48545C664D2C3A36520C
:103D200014526524163A16251754044A14243E24C6
:103D300016050A081639113D53103850154F200842
:103D400011181C243034383C40484D50545C664DAA
:103D50004A5004080C10181C2C3034383C484C587D
:103D60006A4813194D52303A161456614A0914180C
:103D700024344A213808345C040C1014243041489F
:103D80005158644E36163D394D3053364932511430
:103D90002C384F5114303E4D0840101C5034394AD5
:103DA000513926063404080C1014181C30383D48CC
:103DB0004D522D462515522404143C5705164D1D11
:103DC00018303C5604080C11151831383C40484C4A
:103DD0006B151E590E3134092D3B263B384C504A89
:103DE000051D283A4A3016084C1C0C242C5054321D
:103DF00015480C1C385F06254D5714264D561526C0
:103E000005153F3D323D2104104C0C151C242C306F
:103E10003438414854585D646A1C2C12154E071CF6
:103E20004E0A4D3A3D2D0C243A214C080D10141C1D
:103E3000243135383C4950545D646A0414243C54A0
:103E4000663D1E65164D520C381E0A1B4D24051684
:103E50000C5062055314243E6516150621401A5471
:103E600023490F4E143E424D540638521B3C3B65CD
:103E70001D14135635084E20564D3015511B650C38
:103E8000321034091A051424393E513A3C504E4D33
:103E90001B21240C55086560101C30393D484E022A
:103EA000024C651C095254163D50114D1751154ACC
:103EB00049093B653E6A65142615335D4C0C383E56
:103EC000111D395A113541171523650414243C5628
:103ED000513A311B481D3F1165355D414C3B4D1634
:103EE000380B154A5105151C303848585D631524A8
:103EF00031525111490C4D39160C581C494C533054
:103F0000116550090C6818353848545F6404142052
:103F1000243C560414243C546634144E6504142482
:103F20003C56650514243E14270C10181C08202448
:103F3000282C3034384044484C5054585C60661C3F
:103F400038314B24164D243F192D495331351B244C
:103F500039233A1114343F325124303B193A51116C
:103F60001D0C5824303538484D670414243C5467E0
:103F7000090C481D353A15511D0910243035394EAC
:103F80006516221526562404143E4D1538511F0C73
:103F9000504D1741112F154D2F11314158493733CD
:103FA000240C10153035394A413852510C381C4B0D
:103FB000313B4D434D1542514111192F0817303CEB
:103FC0005035090C11181D38414C5A0439084A2F34
:103FD0002D0C4B51113B15511B152F4D531D092C09
:103FE0005D37153933394A084F1D5D4C0C3C434D44
:103FF0003E51154F20524D243C22041526653D416B
:1040000009173E651D18080C1124303539484D51EB
:10401000683E115061340C1C3038484E391C26382B
:10402000653751564D1D153A161158090C181C2CA0
:1040300030353941494C51545D674D65310A4D6504
:104040006110041424303539495F1C6A15065D245B
:104050003E1C262D17413C3A06300410343A1552C6
:104060003D142651313E23321A111504384D1D2FAF
:1040700031511738170414243C48545C664D3911EB
:10408000574D5165151E491C170414243C546624D1
:10409000172E1D110415243038484C5336041524AE
:1040A000313C414C522D165406113D174D1E4914FA
:1040B0001D38405D114C3C51565C4A491141373C1A
:1040C000174C1650080C10181C2D394E0514243CA2
:1040D00056215604212F156504243C48564D524D57
:1040E0002056142622114D24314149392D5A51119F
:1040F00041301814353B4D1D4109182C0C30343912
:1041000048516A103F3B114D1419332F5124154269
:104110003E1125611C340C142C30383D41484C5163
:10412000565115265422513009342C1D39104A1489
:10413000202430383C0620171D5D510C3A24161DF2
:104140001130180C3538484C52246517505D04085E
:104150000C14181C303439404E55064D52153C2D68
:10416000260B1C51152F41300D4D3B391E48533540
:10417000410C4A15240A0C1D180934384A0E344AD9
:1041800011312D1B144D323C4D164C2F3941112D40
:10419000354D4B51041126383F2F65411C394932AA
:1041A000214F14335111334D165149312F0414242A
:1041B0003C54671D304A2D1604080C10181C20248E
:1041C00034383C40485054585C3204142024303871
:1041D0003C48546604164C512C1D10343A08415A80
:1041E0004D1314113A22151E4B4C522D09333D50DC
:1041F000300841355A4D1C2417146837481524538C
:10420000384C511E1015261550300C26511521180A
:1042100009481D3035384E14115F51080D15191C11
:10422000242D354A651D51090C1520242E312D39B8
:1042300053155F1615333541510C113A1139195088
:104240000A541426484E04243C56651D1438421561
:104250003E2C5C574D39412D513765166515514E31
:10426000115D1648152435653B6518411665041423
:10427000243D563148653E354C51192F113441517A
:10428000090C24041830393C48545D675620164305
:1042900004081E24413F38122F1153394204143CA4
:1042A00056090C412804103035383D484C505458BC
:1042B0005F150B651D35245D1049090E38173161F6
:1042C00051091C0C1435384306655D1651341D5DCB
:1042D000090C1530383C415616524D0C151F042759
:1042E0006A381D5009656841243134484D545E14C4
:1042F000264D2D514B14243E0414243C5466523454
:104300005D301C2452410C101804141C30394951E2
:10431000616A214F0409111D2C30394853052417B7
:10432000115D040C15243034384850546B352D0C75
:10433000260E1531534D3E540414243E4D52511156
:1043400030583E31193B145649523948174D423EB8
:10435000513C2433511115053E25334D0F121509DB
:104360000E2D562624500C1018304E345161304C0E
:104370000C1124394954580A3D56560414243C560D
:104380000414243E6509240C1D3441485A103A1186
:104390002D35151E4D1507350E041420243C4856A6
:1043A00048374D241656514D41142D33512D1D0EB5
:1043B0001114383C484C52041424303C48546619BB
:1043C000044A4A51652D0E2D1C4A242C3C15675178
:1043D000242D110C1726392E485815324811671A0A
:1043E000304A15244111180930494C53304D0B5DAA
:1043F0000E50304C48080C1D343A6530051C384DC1
:10440000153E3D14661551212F040C38154F4D04EF
:104410000A16244D1F564D31371564313F143C4D5B
:104420006721244D173C1C17241731131165041400
:104430001C51561911353B09141D3039494C516333
:1044400015484C416524181C3035393D51545F24C2
:10445000040C1440524D411430373916040C152009
:10446000243848513604324A51650C040911181D8C
:10447000242C3034393D4148545F050C20561D151D
:104480002F4D1E0414243E24162C4B11412F0408DA
:104490000C1014181C2024282C3034383C4044487C
:1044A0004C5054585C646A1C4A063B6515264D24E2
:1044B000174D5341153B283E4E314941115A1D5D60
:1044C000044E38332D21414F11244C5C0409143023
:1044D000383D4851564C1138514943325305433DFC
:1044E000512F65250704143C56655D412D0C4C3950
:1044F000340B48391435321E4D65152D0C121D171D
:1045000056171526244C0965583A04142024303CCB
:10451000484C546611392D19584A324832502115E9
:1045200026143211413137421D0C1840341014301A
:1045300039484C516A6506040C1420242C30343858
:104540003C4050545C664C0C1D2C153034394153A2
:1045500031434D1E491911313B0911153B15583294
:104560006715212F65164D261D301A4D1D0C374835
:10457000411815080C34101C2C3039534D170415F4
:1045800061381D303C49545C410B4D183A491518AF
:104590004E51111E303F4930343A38064C3A1548D6
:1045A0001E5D611511073949563A041424384851E3
:1045B0006311152D3B5404301651411D3A3D15260B
:1045C000132D1E511161410C655D541D243034388A
:1045D0004C5A14065024411D2C390C304955611198
:1045E0000B241408574C05090C10243034383D486E
:1045F00051545D61651D4349113749352D0C1151E9
:104600003B511B0C3815111D2F480E233C2C040860
:104610001014181C2430343840484C50585C6066E4
:104620005D4C0414424D15434D3A246517243E3128
:104630004D173442410C381E48674D41573D1651C5
:104640004B2E314B4026355D0C3A4D155350101C06
:1046500030343840484E155D303D4A1406581B082A
:104660000C101C3034383C484C52313A5148391106
:104670000409152432144D26301535050C08384030
:104680001C2C4C623414680C103039494C521D15E6
:10469000123D1E113941194D1E203E211761114F47
:1046A00036514A485D0C5804152460513E56493530
:1046B00039142D09514F0414243C56514D161651EE
:1046C000115D41672417043852514D151D2F513E7D
:1046D0004D364A3C26095D415365154D3F124D5DEF
:1046E00039043053041424343C41564D394B4C1D8D
:1046F0001830043439485A3C262404143C565711C7
:1047000015353B3C161D245804403C5F0C1A3E11E5
:104710004D150C261424323511314B151153610CF3
:1047200051330414243C5651144A2D1132041451AF
:104730002635190810303C584C2F15261D0F4D15E5
:104740003539132D48511714304F50171D390B357B
:10475000512C0C41113038484F153C13493A314D1A
:1047600053655D412D350C4A1505243E4914410C15
:104770004D335104481A261D4D171C514F2E152438
:104780004A4D2F4D411951493B5D19144A4D114B6A
:104790002E5023430843153106355165144C390416
:1047A0003248653441612C5D090C111D24384C5090
:1047B000586A30651711152D333C04101430343904
:1047C000484C535D094E323E254C381804141D34B4
:1047D00051585C134D140E1D5D110C051530393CFC
:1047E000414953484C65392C5D581D410C243568AE
:1047F000536506650A381D4937650415243C48563B
:1048000015110E243E300515343940484C621D51B7
:10481000580C10283034393C40484D545C682417FB
:10482000390E0414243C5467114C0C30393C53426B
:10483000041424303C48564D353911521526513850
:104840001748164D4108343E152D064C130414200C
:1048500024303C485466244D153723503B1526110F
:104860001F3D51312F1D0D09515F30080C1D174898
:1048700016650414243C48564D311558510B15301B
:104880000C40114C04093C5154585F1141092C0C47
:10489000151D3035393C485A4D1151334956413177
:1048A0004E163C4D4338410E0414253C5604142446
:1048B0003D67490C511E0605161D080C11242C30AD
:1048C00039494C51650741301641313B314A512D30
:1048D0000E4C0C1742051C4956111C152F1D35098D
:1048E0000C3A504D07304C04081114182434384049
:1048F0004850590E5131245D0C111C3941494C5816
:104900006748152E1D0E16381C410E5D61300C686F
:1049100011181C242C343941484C516556355C1D06
:104920000E0C06410C3315511E145123514D111F0D
:10493000241654511311651551335165244F394BC9
:104940000D31170415090D1C120414243C5466651E
:104950002461112C304D581D3849524C13152D1F10
:10496000500E515651114F2465152F0C4D23514DAA
:10497000110E3E154C5314071D043D2130090C1136
:1049800015182C3438404E041420243C48545C66DE
:104990002417653D0414265131043514384A25176F
:1049A0003A51410C11651F422461415158100409CC
:1049B0000C1D383D484C545F083D173B0414243C03
:1049C0005567152305360441303C11080C15181C99
:1049D0002C3438444C515A112F02000000001700AB
:1049E0000300031F0A1F161F0A1904130A151200D9
:1049F00003000E1B11111B0E0A040A040E040018FA
:104A0000000404040010001804031F111F121F10DB
:104A100019151215150A03041F17150D1E151D0172
:104A200019071F151F07150F000A00001A00040AB6
:104A3000110A0A0A110A040115021F1F1F1E051E72
:104A40001F151A0E11111F110E1F15111F05010E32
:104A5000111D1F041F111F1109111F1F041B1F10FF
:104A6000101F031F1F011E0E110E1F05020E191627
:104A70001F051A16150D011F010F101F0718071F1C
:104A8000181F1B041B031C03191513000000000052
:104A90007E0909097E7F494949363E414141227FCD
:104AA0004141221C7F494949417F090909013E4191
:104AB00041493A7F0808087F00417F41003040416A
:104AC000413F7F08041A617F404040407F020C0252
:104AD0007F7F0204087F3E4141413E7F090909066C
:104AE0003E4151215E7F0919294626494949320133
:104AF000017F01013F4040403F0F3040300F3F40B9
:104B000038403F6314081463030478040361514977
:104B10004543D5F08D14A1C881CFD9F1AF2000084D
:104B20000B00020202000009040000010202000062
:104B300005240010010524010101042402060524B6
:104B40000600010705810310004009040100020A64
:104B50000000000705020240000007058302400034
:104B6000000403090412010002EF02014041233650
:104B70008000010102030141726475696E6F204C6F
:104B80004C430041726475696E6F204C656F6E61B5
:104B900072646F00E32E11241FBECFEFDAE0DEBF98
:104BA000CDBF11E0A0E0B1E0ECE5FCE602C005906D
:104BB0000D92AC3FB107D9F727E0ACEFB1E001C0EF
:104BC0001D92AA3CB207E1F715E2CBECD5E204C096
:104BD0002197FE010E941636CA3CD107C9F70E94F0
:104BE000472F0C942C360C940000CF93DF93DB01FD
:104BF00033E0B595A7953A95E1F7B695BA2FAA2770
:104C0000B795A795A20FB11DA80FB91FAD5DBD4FF8
:104C100067707727215011972F3FA9F0FA01E20F13
:104C2000F11DE491F0E0062E02C0EE0FFF1F0A9482
:104C3000E2F78C918E2B8C93ED01C058DF4F888169
:104C40008F2B8883E7CFDF91CF91089580E0E3E257
:104C5000F2E081118FEF00248193819381938193FE
:104C60000394D1F708959091C507982329F4909162
:104C7000C407982381E009F480E00895FC01809145
:104C80002202882311F13FB7F89482E08093E90073
:104C90002091F200822F90E01816190614F481E09A
:104CA00090E0882339F0289844E64093210240910F
:104CB000F1004083222339F02091F200211103C03A
:104CC0002BE62093E8003FBF08958FEF9FEF0895F4
:104CD0002FB7F89483E08093E9009091E800892F42
:104CE000807295FF04C09091F20080E4891B2FBF71
:104CF00008958091190281110DC082E08093150200
:104D000084E080931602109218021092170281E03C
:104D10008093190285E192E00895CF93DF931F926B
:104D2000CDB7DEB76983DC01ED91FC910280F381A0
:104D3000E02D41E050E0BE016F5F7F4F09950F907D
:104D4000DF91CF91089583E08093E9008091F20094
:104D5000882319F08AE38093E80008950E9468266A
:104D600090E00895CF93DF931F92CDB7DEB7FC019B
:104D70008485958597FD08C02FEF3FEF3587248701
:104D80000F90DF91CF910895CE0101960E943E26AB
:104D9000019719F4898190E0F3CF8FEF9FEFF0CF67
:104DA0000F931F93CF93DF931F92CDB7DEB78C0184
:104DB000FC018485958597FF0BC0CE0101960E946A
:104DC0003E26019771F4898190E0F80195878487E8
:104DD000F801848595850F90DF91CF911F910F91F8
:104DE00008958FEF9FEFF1CFFC018485958597FDA6
:104DF0000BC09FB7F89482E08093E9008091F200A5
:104E00009FBF90E0019608959FB7F89482E0809349
:104E1000E9008091F2009FBF90E0089540910F0259
:104E20005091100220910D0230910E02421753074B
:104E3000B4F49091E8009570E1F39091E80092FD50
:104E400019C08093F10080910F0290911002019699
:104E50008F739927892B19F48EEF8093E800809146
:104E60000F029091100201969093100280930F020E
:104E700081E0089580E00895EF92FF920F931F93D1
:104E8000CF93DF93F82E192FE62E042F81E0860FA3
:104E9000880F0E940E2783E00E940E27CF2DD12F6E
:104EA000EC0EFD2EF11CCE15DF05B9F007FF13C087
:104EB000FE0184910E940E27182F80E00E940E2789
:104EC000812321968111EFCFDF91CF911F910F9117
:104ED000FF90EF9008958881EDCF81E0F5CFDF92CC
:104EE000EF92FF920F931F93CF93DF93D82E8A01F7
:104EF000EB017B01E40EF51ECE15DF0559F0D7FE60
:104F000012C0FE0184910E940E2721968111F4CFD8
:104F10000FEF1FEFC801DF91CF911F910F91FF900D
:104F2000EF90DF9008958881EECF0F931F93CF937A
:104F3000DF931F92CDB7DEB782E0898342E450E071
:104F40006FE17BE480E80E946F270E947926DC01F4
:104F500012960D911C910115110589F0D801ED9162
:104F6000FC910280F381E02DBE016F5F7F4FC8018D
:104F7000099597FD04C0F80100851185ECCF898162
:104F80000F90DF91CF911F910F910895615030F0F4
:104F90002091F100FC0120830196F8CF289884E647
:104FA0008093210208953FB7F89480910502909173
:104FB0000602A0910702B091080226B5A89B05C081
:104FC0002F3F19F00196A11DB11D3FBFBA2FA92F88
:104FD000982F8827BC01CD01620F711D811D911D85
:104FE00042E0660F771F881F991F4A95D1F70895F1
:104FF0008F929F92AF92BF92CF92DF92EF92FF92E9
:105000006B017C010E94D3274B015C01C114D104C8
:10501000E104F104B9F00E94D327681979098A09DB
:105020009B09683E73408105910580F321E0C21A17
:10503000D108E108F10888EE880E83E0981EA11CD3
:10504000B11CE4CFFF90EF90DF90CF90BF90AF9076
:105050009F908F90089565E070E080E090E00C9460
:10506000F8278F929F92AF92BF92CF92DF92EF92EA
:10507000FF920F931F93CF93DF936C017B018A0103
:1050800080910B01882309F45CC08091220288235F
:1050900009F457C08091140280FF05C08091E000A0
:1050A00082608093E000E801B12C8AEFA82E93E0A3
:1050B000892E2AE3922E209711F4BB20D9F10E9469
:1050C000682681110AC0AA94AA20D9F161E070E093
:1050D00080E090E00E94F827EECF8C171D0611F0BB
:1050E0000CF08C2F9FB7F8948092E9002091E80093
:1050F00025FD02C09FBFDFCF282F30E0C21BD30B9E
:10510000F701815020F041914093F100FACFE20E77
:10511000F31EBB2021F09092E800B12CEBCF8091E0
:10512000E80085FDE7CF9092E800BB24B394209778
:1051300009F3F3CF5D9884E68093130210161106ED
:105140003CF081E090E0F6019383828310E000E080
:10515000C801DF91CF911F910F91FF90EF90DF90E9
:10516000CF90BF90AF909F908F9008958038910519
:10517000B8F460347105A0F420E191E061FD94E0A1
:1051800060FD990F62FD9295687F269FD0011124E2
:10519000A80FAD5DBD4F8C91442319F0892B8C93E2
:1051A000089590958923FBCF0895CF93DF9326E050
:1051B000CAE0D0E0E22FF0E0E450FE4FBE010E94D2
:1051C0000236805D8083CB012150009799F7822FB2
:1051D00090E083509E4FDF91CF910895CF92DF9260
:1051E000EF92FF920F931F93CF93DF937B016A019E
:1051F000E9010B5F1F4F4991442379F04F7185E01E
:105200004802A00111244557554B25E0B601C701BE
:105210000E94F525E00EF11EEECFDF91CF911F9198
:105220000F91FF90EF90DF90CF900895EF92FF9253
:105230000F931F93CF93DF93EB018A017901F7015D
:1052400041917F01442371F04052F3E04F02A001ED
:1052500011244652564B23E0B801CE010E94F52599
:105260002496EDCFDF91CF911F910F91FF90EF909A
:1052700008952F923F924F925F926F927F928F92FA
:105280009F92AF92BF92CF92DF92EF92FF920F93D5
:105290001F93CF93DF9300D01F92CDB7DEB78C0161
:1052A0003B0149015A01CB018455994F2C01DC0186
:1052B000AE5FBE4FBA83A9831B01BFEF2B1A3B0A17
:1052C000E091BC07F091BD07EE0FFF1FE95BFE4FB9
:1052D0000190F081E02DE00FF11F24912B83E22F4C
:1052E000E595E595E05CA981BA81EC93F0E0E451A5
:1052F000FF4FA081B0E0A50194010E94AA356B0187
:105300007C01BB81B0FF28C08091B6079091B707A0
:10531000019709F078C0E5E06E167104E9F4809118
:10532000B8079091B907A091BA07B091BB07019750
:10533000A109B1098093B8079093B907A093BA0760
:10534000B093BB07892B8A2B8B2B31F46EEA77E065
:105350008CEA96E00E942536A091BC07B091BD076B
:10536000AA0FBB1FA95DBE4FC8019695879596955C
:10537000879526E0289FF001299FF00D11248D913B
:105380009C918E0F9F1FF801E370FF27E330F1051A
:1053900009F05FC0FC013196349132964491059634
:1053A000FC01849132953F70407F342BF0E18F9F58
:1053B000C001112488279F70832B009729F0A70133
:1053C0009601B1010E9439290F5F1F4F2B8121FFE8
:1053D00077CFF201EE5FFE4F10820F900F900F908B
:1053E000DF91CF911F910F91FF90EF90DF90CF90C1
:1053F000BF90AF909F908F907F906F905F904F90F5
:105400003F902F9008956091B8077091B9078091EF
:10541000BA079091BB07A70196010E94BD35672B83
:10542000682B692B09F098CF8091AC079091AD075C
:105430009C012F5F3F4F3093AD072093AC0753E0A3
:10544000880F991F5A95E1F76EEA77E08455994FD6
:1054500081CFEE0FFF1FE80FF91F859194919F7088
:10546000ACCF9093B7078093B6071092AE07109217
:10547000AF071092B0071092B1071092B2071092C6
:10548000B3071092B4071092B5071092AD071092AF
:10549000AC07019709F052C08091BE07882309F438
:1054A00046C00E941D3521E131E040E050E00E94FD
:1054B0008B356F5F7F4F8F4F9F4F6093B80770930F
:1054C000B9078093BA079093BB071092BD0710925B
:1054D000BC0721E030E040E050E070E060E08EEE9C
:1054E00095E00E9439298091BE07811130C081E08A
:1054F00090E09093BD078093BC0721E030E040E04E
:1055000050E070E060E084E591E00E94392982E09B
:1055100090E09093BD078093BC0721E030E040E02D
:1055200050E070E060E084ED97E00C9439290E942F
:105530001D3524E436E040E050E0B9CF4093B80791
:105540005093B9076093BA077093BB07BECF089515
:105550008F929F92AF92BF92CF92DF92EF92FF9283
:10556000CF93DF93CBE0D0E086E0C82ED12CE12CA6
:10557000F12C0E941D35A70196010E948B354B012D
:105580000E941D35A70196010E948B35D401A157B9
:10559000B94F2C91FB01E157F94F80818C93208307
:1055A000219739F7DF91CF91FF90EF90DF90CF9067
:1055B000BF90AF909F908F900895DF92EF92FF92EF
:1055C0000F931F93CF93DF9300D000D0CDB7DEB7FA
:1055D00080E091E00E947535898381E091E00E942E
:1055E00075358A8382E091E00E9475358B8383E074
:1055F00091E00E9475358C8389819A81853C904920
:1056000031F085EC90E99A8389831C821B8280911A
:105610008B0690918C062B813C812817390710F45A
:105620009C838B83CE0101967C0100E011E0F701A1
:10563000D1907F01C8010E947535D81621F06D2DDB
:10564000C8010E947D350F5F1F4F0430F1E01F0736
:1056500071F78B819C8190938E0680938D060F90BD
:105660000F900F900F90DF91CF911F910F91FF90AE
:10567000EF90DF900895CF92DF92EF92FF920F9319
:105680001F93CF93DF93809164008E7F809364009B
:1056900080917A00806480937A0080917A0086FD00
:1056A000FCCFC0917800D09179000E94D327AB0144
:1056B000BC01CE01B0E0A0E0DC01992788278C0175
:1056C0009D01040F151F261F371FC901B801209126
:1056D00064002160209364006115710581059105C6
:1056E00011F00E946C3540E050E0BA0181E090E09A
:1056F0000E94312ACCEAD6E0C12CD12C7601C39489
:10570000E991EE2371F00E2E000CFF0BE451FF4FD8
:10571000A081B0E0A70196010E94AA356B017C012F
:10572000EFCF6CEA76E08FE896E00E942536109283
:10573000A9061092A8061092A7061092970610923A
:105740009F060E94A82AB701A60182E090E00E946D
:10575000312AF090AC07FA941FEFF11671F1CCEA00
:10576000D6E0E12CEF14BCF78E01085F1F4FFE015D
:1057700001900020E9F731978E2F8C1BF8010190E2
:105780000020E9F73197E01BE8175CF4DE01509642
:10579000F801EC17FD0771F082919E9190838C9334
:1057A000F8CF8E1307C0B801CE010E941C36181620
:1057B000190664F3E394E801D5CF109284061092A1
:1057C0008306109286061092850610928706109224
:1057D00088068FE097E290938A0680938906DF918E
:1057E000CF911F910F91FF90EF90DF90CF90089590
:1057F0001F920F920FB60F9211248F939F93809157
:10580000E1009091E100937F9093E10083FF0FC04E
:105810001092E90091E09093EB001092EC0092E37B
:105820009093ED001092220298E09093F00082FF96
:1058300022C093E09093E9009091F200992319F02F
:105840009AE39093E80090911302992341F090918C
:105850001302915090931302911101C05D9A90919F
:105860002102992341F090912102915090932102BD
:10587000911101C0289A84FF18C08091E2008E7EA9
:1058800081608093E2008091E1008F7E8093E1004F
:10589000809114028E7E8061809314029F918F917B
:1058A0000F900FBE0F901F90189580FFF7CF80913B
:1058B000E2008E7E80618093E2008091E1008E7E26
:1058C0008093E100809114028E7E8160E5CF1F926B
:1058D0000F920FB60F921124CF92DF92EF92FF92A8
:1058E0000F931F932F933F934F935F936F937F93E8
:1058F0008F939F93AF93BF93EF93FF93CF93DF93D8
:10590000CDB7DEB76C97DEBFCDBF1092E9008091B6
:10591000E80083FF25C068E0CE0145960E94C627B7
:1059200082EF8093E8008D8987FF39C09091E8006D
:1059300090FFFCCF982F907609F034C19E894F8953
:10594000588D2F89F88C911131C0803861F5809184
:1059500012028093F1001092F1008EEF8093E80024
:105960006C960FB6F894DEBF0FBECDBFDF91CF911E
:10597000FF91EF91BF91AF919F918F917F916F9127
:105980005F914F913F912F911F910F91FF90EF9059
:10599000DF90CF900F900FBE0F901F9018959EEF45
:1059A0009093E800C7CF1092F100D5CF913059F411
:1059B0008111D3CF4130510581F6809112028D7F44
:1059C00080931202CACF933049F48111C6CF41307F
:1059D000510519F6809112028260F2CF953041F4A0
:1059E0008091E80080FFFCCF20682093E300B5CFD2
:1059F000963009F0A9C00B8D1C8D22E01092E900B1
:105A00001092100210920F02F2122EC010920E028B
:105A100010920D020E9495271F8299E09983FA82C5
:105A200091E09E8390EA98879AEF998720910F02E0
:105A300030911002275F3F4F3C832B838D83109260
:105A4000E9001092100210920F0210930E020093C0
:105A50000D0249E050E0BE016F5F7F4F80E00E9481
:105A60006F270E94952779CF10930E0200930D02A5
:105A70000E947926DC0112960D911C9101151105E9
:105A800009F451C1D801ED91FC910480F581E02D1C
:105A9000BE016B5E7F4FC8010995009709F03EC1BA
:105AA000F80100851185EACFF3E0FF120EC08F895F
:105AB000882309F440C0823061F440E860E183E863
:105AC0009BE40E943C27811148CF81E28093EB0048
:105AD00047CF813029F440E86BE087E79BE4F1CFC2
