:100000000C94E3280C940B290C940B290C940B29C9
:100010000C940B290C940B290C940B290C940B2990
:100020000C940B290C940B290C94822E0C94F12E19
:100030000C940B290C940B290C940B290C940B2970
:100040000C940B290C940B290C940B290C940B2960
:100050000C940B290C940B290C940B290C94233130
:100060000C940B290C940B290C940B290C940B2940
:100070000C940B290C940B290C940B290C940B2930
:100080000C940B290C940B290C940B290C940B2920
:100090000C940B290C940B290C940B290C940B2910
:1000A0000C940B290C940B290C940B2900A06420B0
:1000B00000507E667E567E0656605B21003042A66A
:1000C00056F02321200805752445A3C156509116EA
:1000D000FB606757000000205660001000B07FE70B
:1000E000DC2509625650EB045670007004557552B9
:1000F00076581E086A28C7D16F0800007E66C4269D
:10010000F793CCE72D737A85EFF2CF37E000CC037D
:100110007F0762C154015F550DF52BC8BE217903DD
:1001200006D88A1809709D55AD37640691060000FF
:100130000104790000002683ADA7A8041DB3EAE1FD
:100140006E04BD0200000000E76600500000593553
:1001500000E0B425000000000000E706A301DD0177
:1001600000207EB60030A391EBD43328D93701A10B
:1001700000109DB600E00040656756500000540135
:10018000000000005620F2367A17E651ED2244387E
:10019000D49054317E46FA210060BD1254F1BD72F4
:1001A000C075540101020000A874D9270040000066
:1001B00056000000C0450050621154A100C000402C
:1001C000003000A0001000000000000056107F0763
:1001D0008A1078A79BA01A400C2530640010930663
:1001E00000000000560023035600C0B562E1D34171
:1001F000AD37621183516201A301AE0533215A73F9
:10020000280442E8B9A6012600007004AD079DC08D
:1002100065D30A1400000000D90256605650000051
:1002200035285660621100F06291E724FB6300906C
:100230002B3636165922B5555BB154A1564097B2AC
:1002400078824417AE609256DC00E08691165A110F
:100250005401DBA72B1572033D06A40156000000D4
:1002600000004CF262B100100C3556A0C0156207B8
:1002700000000000001000C0274154D1BFA17777D3
:10028000EE0300001C070000C025008000F0205590
:10029000851443A2379857435660C154650300F054
:1002A000A37162710000560078050000D8077F0135
:1002B0007562565000008001A7C47F5762617F516C
:1002C0000000563022A15610A86238A27E460000D7
:1002D00000000000009026D3434326130911D523C4
:1002E000AF0232041903AC670050560000005600FC
:1002F000C30700F000B054517107B4050000270196
:100300004E563315F23596A82342A0210C65BF1135
:10031000DDB100F054317EC6E5A72251560065C319
:10032000195556009D00BF0100000000760200B084
:1003300000A0005063049E077C00560001010000ED
:1003400062412653261300000C057E06000054016E
:1003500056007E6671510A057E065600AD0700E024
:10036000A1720C650D0762C10050620100100050BF
:100370005FF4657300709D006201700400F07F916E
:1003800056105CD7BD92270100907FD7C3235F65CD
:10039000209510726907202582309F0062011903A1
:1003A00000F07FB700100C05A301E70154B17FE70F
:1003B00026436BE871C4012115030000C00500202D
:1003C0007F670010AD9756301113AC262F6583144C
:1003D0002314DF11B661A1E197A67545D5F77E76A6
:1003E00026730A2797411B38F5F7FC11EB543FE4BD
:1003F0003498D4120040377422788861EC52A006F9
:1004000000A0BD3200409E0100005600C0D53EA4B1
:1004100062710030547100507FA756F0D307BDC2FF
:1004200062217D87EB0400C0E22231252ED4A50590
:10043000AD03D503AD07EB04C60300005401002053
:100440003F541C58A3937263D1A76335E82243F647
:10045000E577A27100000000010100E056E00030E5
:10046000AD2700B0003000F0BD72BD7235377FA7F8
:100470007E1600F000705F757E769D507F77522863
:10048000AB26B1300447D5C3947756034808F8002B
:10049000FF2118669D10000062016F0200D00090DD
:1004A000D50300E0E4F7AD6700002201A301844218
:1004B0007F56EB14C9F42CB85A12C174D9605B058D
:1004C000DF67A6E085117EF600500050545101E729
:1004D0009D70003000A06211C164042437340050C4
:1004E00000604232261300000010087356D000004E
:1004F00026030000C5037E46BD52EB140020626156
:1005000002177F67B4300080AD67DD213B3156F0C4
:1005100056E0C17674044801B4038462565000006A
:1005200054017E0700000060C2D3E465C41281D785
:1005300014152FC2DD0100500000BD02000040264E
:100540000060D111C1040000D407002062611513BE
:10055000A301D5035401D94277D70070000001C12F
:1005600027516AB75620005077C7B4F04C08F542BF
:100570000050541127A100A0EB54089576708327F2
:1005800061857BE17C04540126037D080060FA50FC
:100590005600C0E53928A053A6D4C0551F1386378E
:1005A00002E0C965EA4354A10101E63162A1C01528
:1005B00096D500D00010672835663A1489970090C8
:1005C0002353DF609DE0FB267A93D5A28E469AE006
:1005D0008A805630F3C2430856500446C332E5823F
:1005E000166679550000ADE77ED6D664000000009F
:1005F000620100606550000026D354B100206211F2
:100600003717C0850020006054114A058A01000098
:100610000020EE43D5629A164B869D0084000000B0
:10062000C1040060A351DA07EB0498056104D57397
:10063000BD32E746ED07EB040000003000A00010DB
:100640000265A351A3010060005078069D00750269
:10065000E402D9027F07D5036261007000800000C8
:1006600000802101CA142603FA1000700020BE3059
:100670002540A327AA74123432726D6682B68E1793
:10068000AE1766B3178002720000EB840070E706B5
:100690007C0600000000560072079DD093969D06D0
:1006A00001F10070007056709136727656600CF54C
:1006B0007233266300505401620126039D00C0B5C9
:1006C0000080005062812BA52268E8037E060000AE
:1006D00000D174C23741AF676470AA505701F30369
:1006E00000000CE5FA70566000C000E05640D902E8
:1006F0006503AD0737E70AA256200D28A9B062317D
:100700005401560026037E2656603F1456B026C874
:10071000FC1381A217B34E387D4625763887569450
:10072000AB22EF149DC1A793020398679D57000069
:1007300038825490FA40BD02D902C2029D060000E0
:100740007F0756E0B4503B3719160D402123002097
:10075000BD627F10549100508E16BDB200909D2650
:10076000A35100A01C137F6700205431DA019306C7
:10077000B30062D16FA47F704266425600007EF6DD
:100780005A55D453625107F30336D366F207FA2061
:1007900000E0BD727E669DE6224100205C6500504F
:1007A00001015620BD629D10EE235640560000D038
:1007B000009000006CF1CA770000ED837527881463
:1007C000D343005065136211EBC400407F077F07DD
:1007D00000007E3600A0B1145CC4D311BD720723A3
:1007E000AD27001000D0A3A1A3719106CA049D06F5
:1007F000BF5100D0C124A1E460C6F7475B6243E863
:100800000B6406630C555700EB01DD02B501006077
:1008100000500000A3616251260326617084983560
:1008200000D07FA7B470F423C763001000E000007D
:100830000C557044005000106C157044D9870000AE
:100840007805000000D000200010560000000000D5
:1008500021010000C00514F5AA74D573C13462816A
:100860000030000000009D0056E001710060C005EE
:100870007F07DD05C005AB05DA06655300089C441B
:100880007CD2D034F92331945D857C37B94495010D
:10089000FC5734A10E926E27490872030000001025
:1008A0005F05000060155B633118627147489F1354
:1008B0000C35EBA43714A301D9026C074C020000DD
:1008C0000000560057016503004062D16271ED07D8
:1008D00059C39E147303C10559037F175690566080
:1008E000D503EB04000030E17CB33762FA54697041
:1008F000EE0002043B065F057F47FA50A311540146
:10090000000000009CE156200080626616539805A6
:100910000C0562C14F5100B000A000100010000093
:10092000E726BF02A301A30100C0E402005068B89B
:1009300035E75640001023C8A3417F675650620137
:10094000BB830E35EA249DF61D77627100200020DE
:1009500054117E166E08121808B200903520B4307B
:100960006614728140D43680E211D6E3E8D6075689
:1009700065D6DC67025100307EF616647ED821E32E
:100980009125000000000000C1045600BC032701AF
:10099000000054019326BE6256102CE80CB5BC36FC
:1009A000A1A368771008D5C67318A4558D27567073
:1009B000D437005000D02623C34691A65521AD96CA
:1009C0005A806301CF810030002062515630DD71C2
:1009D00035B726436715ED35D860480221E7809387
:1009E00085207253ECE71575F9004F01D90700F027
:1009F0005FB50010BDC2D962544711C89A040050B7
:100A0000FEF43F73B173DDD10090560056007F07AE
:100A1000EB040070005000107E067F07A70500F071
:100A2000A3510050003062A1A311B4300B02AC54AA
:100A3000CAA04C11E531D792A3517E365600A301CE
:100A4000640662814C758C884F82AD51C734DE924A
:100A50000568EC839FD3A071E70158F134B755289E
:100A6000626100509D0062F10E15007064205660B6
:100A700000107C43D9827E7657016EC1AC44F3608E
:100A8000BD540000620156005E02C00508033F0429
:100A90007F073801000000000000000000F05F4503
:100AA00000100010C0050020002000605610AD6747
:100AB00001E17D777D430D337A044B786443DB2776
:100AC000EE12C015A38100C000100070DDA60090DA
:100AD000546154E100700060E8B4D9828D35E74379
:100AE000A4669006D6020B05A30500007F07C1048B
:100AF00062216563001070C0530100500060005017
:100B0000BC039BF2A8715670B2C74580B2048662DE
:100B1000FD42BB73611392C385433B447E169063D1
:100B2000CA02D7009B0500D0ADB5002000F0B2731B
:100B3000007000D000B000200CF5A3715670620167
:100B40000C050000F834D9B2BC11BC90D1827956A2
:100B5000FAD7AB9310042603000000000010000039
:100B60000C450C055600A351C9C330B51F219CB6D6
:100B7000EB94E6410094EB858988564000500C15B3
:100B80000030C015563037075AB70050D501F872FB
:100B9000A72100B0B4E0564069D756E0360487E498
:100BA000E012973493F7B5A0005000000000000059
:100BB0005660AC5000001E009481C26600E0D972FD
:100BC00000607F6700700050E901A301000001018F
:100BD000240300001C635650000056C000000C5552
:100BE0000CC57F0700507004BF013008EBF400F023
:100BF000E8010020266300103804560056000070FB
:100C00009A969156A9957DD7912600D056B000208E
:100C1000003000A022116DB7EDE4C045FA00A30139
:100C20002C0507007D81BF2352E7AA74F0607F077F
:100C3000BD0217067E46A3510010561000A00010FA
:100C40000CE557714462AA619558F70130029D0284
:100C50002F040080009026439804620100002A06B9
:100C60003D08CB040020006054119D4656B0BD02E3
:100C700056407E5622115600C5040702BD42006050
:100C8000E7760CD556B00020C2165F2360870000BF
:100C9000000000000060D55300000000640015064D
:100CA0001E05AD070000006000205431A3317EA670
:100CB000A311BD02D5739D4054F1EB34622193160C
:100CC000BDB27E466C717F57AD878AE49606EC71A3
:100CD000EBD43ED15C1300E00090626156206C289A
:100CE000D9125660005056000C05CC026503A321B2
:100CF0009E70003000F000700070A3016201570187
:100D000056200060561068B89EB15513A661EE5388
:100D100063060030BFA2D211B47054715401560062
:100D200056000000BD02D704000043600050870554
:100D300000107E86A3610AB384D47E2682C2EF931C
:100D40005527D802620101017EC6A061561000003D
:100D500065071C07C0E57F7723636563E9540000DE
:100D6000DAA299016D00E7E0DD7162611A916B51C1
:100D7000AC74DB57C2D471432D28426300100CA51C
:100D8000C0759D109895B8F0417631627E56540139
:100D9000A3210CD5DE31883370948362CDD0A0C5F9
:100DA000365700F00000C00023B0AE180935A92363
:100DB00074222D43A200B9009F080F20A8A1C010E3
:100DC0004F216AC103061B06B4C166084E3830E3E2
:100DD000B857BEB824F4313131B1C0A05B70FBB359
:100DE0000080E315009067F7523123B516765B1348
:100DF000D101B40653008102000026085600D4C277
:100E0000F806001000C05B525601310100000F408F
:100E10000F447061006000B0B688C0050A055B0829
:100E2000820126080000A206AB07FB036FD50F70F6
:100E300070110AA53141E9115DB165C76552A5A0E0
:100E400079862B879FF1BB207271A831FC233D85E9
:100E50000F100FB0001000F000008202910469C66C
:100E60009F085970FDB11D789A0632F26A488B5777
:100E7000979470781FF000874C729C01B2080000B4
:100E8000C1D500600050FD210FA09C76B9927EF183
:100E9000A205D111E4339E54EC0700000F045B90CF
:100EA000755570049D857107EC735C028D7200109E
:100EB0000000C00000008E03C0002A053151002050
:100EC000000000000F00000000F000000F00D43010
:100ED000DDD8C973420363087C01F8D6E9300050BD
:100EE000EC2759000040F887C0F0007000B0ABB7A5
:100EF0004A254D512FF3D1109355A0926A07A405AE
:100F00000000000000005B00C00023F04E03000062
:100F1000E306C270FF10C0C6002082324A05F8C73F
:100F2000B60700B000400050AB272360003043708C
:100F3000A8110F60A90759003B00008010E3782337
:100F400035B641B8B126A6087D57A138D4F6E59547
:100F5000B780D0B30080B8125B907D21740131411D
:100F600058A8751890786167A982D6D60060D462B7
:100F70009C6181A78F633D636837FB25C5E66E12D0
:100F80003C724477E366D472D4226DE1DF33BB0256
:100F90005B00C000E305A807960800006C068E03FE
:100FA000D402F8070000C0F094070F000000000012
:100FB00000000000A4086108C656D11193844B714B
:100FC000C060A636C0F059E0AB67003056B10030C3
:100FD000912431910F2013E60080D1328E035BC043
:100FE00041080000C0004B0182025B0000000000CD
:100FF000C000000000E0F876F4860FE61DE35272B0
:101000009447C9919E254605800527028E0323003B
:10101000820231B102A4007000E00090C020000004
:101020005B00C00070518B310F20246656114B813C
:10103000BA07000000004B010000BC0800F00000EF
:1010400000004092D4521506D4826ED4F0066FA5EB
:1010500000B0FF765920BA670F3059A00F00F8563C
:101060008221D091C07084F71B474483FA032D4539
:10107000EC85C0C023304E43EF00F80600000000AE
:1010800000008202F807B3C36C0600C082623F15FD
:10109000FB330020000000B0A8450F14A991C0A0A8
:1010A0000050002000B070016388C0F06368230620
:1010B0000000000000800FC0F8565641B6968E33EF
:1010C0008C21D231E616DCA542485B27C0A0D47241
:1010D0000E6559D66C36DC402B80E0A1A811C530D6
:1010E000F8F6C544430197C02506004082E200504F
:1010F000D6926CF626082B233A84262800100F94EB
:101100005B406243004056610FB000B06F27FD1195
:10111000C1C6D4520F0027C394088607E1035B00C1
:1011200000405970EA4109F2FC0788020FF0FB0306
:1011300000000F54D4E20010C0106F65C483AB07E9
:101140002603A302260827080000C0E000808E3393
:1011500000F000E08E430080A4457805FBD0CB77FB
:101160003585FD8182F20060D4C2C0F02978AB974A
:101170008252000059200040001057B8FDF10030A5
:10118000A80100C00000001000300F100F10AD319A
:101190005B10CD634B51971500B0AB5731015D002B
:1011A00000005B000040C0C000000F8058F70060E6
:1011B0000000C5D0C0204B317424E900001000208D
:1011C000823201818EF3006045160E07E202105450
:1011D00086A2FE54F203BA086F06F84600A000503B
:1011E00000A00040A851473700B0C030EC17D4B27F
:1011F000F81600B05B300F40C2020000E50131017B
:1012000000C000000000C000E9005322C2C5D7663C
:10121000989559A0710271F04442923058D27F578C
:101220001B52D6084C60AE77F280E6575E33030758
:101230001B000000C0C0C0E0AB77FD4100D0002023
:1012400026B8B557000000004A059F08269882522C
:10125000AD078E030A057606ABF75403AB070040D3
:10126000C0D00F20DDE600804237005023100F6011
:101270009C4500C000400FD4FEF3004026E80080EB
:101280000030009000508E030000B2C287045B2043
:101290000F804B230040FDB15B8000000000AB07D6
:1012A000BB61B1E3F837D4D238F4811870B16081F2
:1012B000001021D541F6F816B606F00115066C06A9
:1012C00059A0916287C7EF430A75BA92D244A357D7
:1012D0008DB7B25100010000D4C20000B6A70EA025
:1012E000CC130735B1F59B76F8B67C342723EBF0A9
:1012F000E9226E2593036FC55B000010E8B5261840
:10130000005033E62622F5370AD56838B8010F00B9
:10131000DD02CEB6FA51D600564170D1B320B920C5
:1013200066351D729407390600006F05C0C027029C
:10133000B5B70040561100100FC00F20802039D5DE
:1013400096056BB29AA4BB720F4000A03B522320BB
:1013500000805B205661D4B2006059300F60C080BD
:1013600000F000305625D4728F72A465E007520356
:10137000BE050000B6C79705591049310010B107E6
:101380000F000F001A06C000FD012300C0C00F00AF
:10139000260874E076250A058801E3050060975564
:1013A0005518500689043D05C040EBD70020FE6665
:1013B00040A059702803F8C63503C70588965C75A8
:1013C00000E0C783B443D5B026B570210334791744
:1013D000FE414904EB04000038F591748E0378F85F
:1013E00079713C863A3432857D1195E85E52B08839
:1013F00041F67D04E303440600006C060F7085A5EA
:10140000AC0519F61708D902008000A00F10C01013
:10141000C020AB175264755100108812EC370010D1
:10142000C0400FD04C2731C65033AB57A4B2AD5794
:10143000B0030A37AD17D324B8242157F56204A6A8
:101440001E228220C4A24B04D4520000CE01D4023A
:1014500082820000495159B0BFA80070F806000010
:10146000000000F0310194007001FDC1970570C1CA
:101470008202005022F0C00000002608A801AD0141
:10148000C080EFF4BB67390400060000E2B5595094
:10149000FB03D4D20A65C25455A5FFA3BC78C8B3D8
:1014A00070A57A074D6710E20216D34621262480E4
:1014B0000341ACF72016BC7710B07A62CEF79FC418
:1014C0001E586CD6AAA670714BA16D559D54E2862C
:1014D00078E2A72100000F00AB0800905BE0C93361
:1014E00063B165B6D787226306848288A5916308B5
:1014F000C2187D4354970C68AE05A6F28C78670538
:10150000D308CB0488F25B00F80684683D558E133F
:10151000C02000F0554820074EC30000F846F8D61A
:10152000A82185220F90D9383101C200E803D49256
:1015300000B00000000000000F00ABC77D51EB15AC
:1015400042E0CEA100104C75E4F6D13373286F61F0
:1015500058209DF10000FA04C363EBB7006000005F
:10156000E10700003B0600000000000046C000004C
:1015700056016102B1070F1000D059100000007031
:101580003F150000000000000000B101C00800503D
:1015900000C08202008000F0436018C3EBC1F9472D
:1015A0004703E80500006C965950AB07946700505C
:1015B0000F100F20B6875E20B677A5764B719E98E8
:1015C0008E57000082015900FB0300F000205B6091
:1015D000F8264188272200F0000000003101590060
:1015E0000000A8F176075501001062330F1000C00B
:1015F00056F10040ECC6A483C5200601CA05EF04DD
:101600000020748424260040EAA192886F055605C4
:10161000000040B6D452D00282525C901A4800803A
:1016200000A0AB1700009497002071610050560194
:101630000010A8B18232AB088EC3000089075600A3
:101640005B00000000C00F00D4F259E03562560183
:101650005B008E035601CF70BC18C0B004B13B22B2
:1016600020F3E2776A45CDF163B3008000507C75CA
:101670000A43C5B35F870010897200700050C080B4
:101680005BF00070000000000F040FF05D01E10648
:101690004A370B55391041024400C2002300C0C034
:1016A000BC080080ABA71516E34660308906EFD56D
:1016B00087B3ED17EF023307BA055BE0D5826C36CE
:1016C00000007001590000004A05000000508B51D5
:1016D0004186E206000056010F4000D0C020C0C085
:1016E000C0D080203605A7039B016F050000820251
:1016F000000000C00000274800D06F2500F00F0058
:10170000610870E10FE0AB67C00000000000C0405E
:1017100056416352D182B8F840650020003086857A
:10172000FDD75025B583C6708E935588CBD60F0054
:1017300073048848F8D600204B41B8D26926A80126
:10174000F806A901000000004904B60700000000E7
:1017500000D0D4B2610864088E730F10C080C090AE
:1017600070610E53AFC68A62BC22EA638312CE0157
:10177000F80656016CF60FC05348A7264E737E40FC
:1017800086934B21642659F059007A046CC1A9B1A3
:101790007A88EC023AC4AB0700003F75C01071565E
:1017A000F816BC3820F7B7084C0166D50080C03069
:1017B00000C04B7170710FA0D1F1EF646226008000
:1017C0005B200FB070C19437828259F07D64310183
:1017D000C000A40559B06BA6C070C000B1010F04D1
:1017E00000000000A80131D1C0F08212A40500C0A1
:1017F00031010952BD88AB270070C3426C589B5819
:10180000AB238A049114A831001026988262C48305
:1018100000F07795502300F029020F400F00C4C359
:10182000C0005B605A50841223407D203765000061
:10183000C0000000000000000000F8B7B3A3B277BA
:1018400058356F657071B440ED666722268870A1C7
:10185000001015B6D473258469E3B6370F4114041C
:10186000E3064F02F8864B81BC2869D700B00F0011
:101870000F40D1719F86742623B3A430DE0669061B
:101880000000F8D75FB731017E25BC885621008063
:1018900046070F508E630020AB8731012678EF1189
:1018A0000010EAD591140000C1055E01400300C09C
:1018B000C0004E0300000000009000502A05B41242
:1018C0008232821259302BE39B55F8066C06A80130
:1018D00094E7EF96C080E305A3C50000A40526C8E1
:1018E000C403BC08B607000000005B000F00696875
:1018F0000050C0107091AB550F0000F000900F80A9
:1019000082420040D4628E8382425970F2E1B64234
:101910002842F9064106FD0100003A040000C0001B
:101920007001560140630F10D131B7940F50000081
:10193000D161ABC756510FD0C0B0550863A2AC18E7
:10194000550043A54630AB32687230F17660CE0365
:101950003E02680831E7E733D9705D075503D702C7
:10196000EC075900C4032C05FC71351243026AC60A
:10197000B101A30582720010BDF8F8060F00D10175
:101980005900D1012A555C88F873C0002300A801D2
:101990000000B171267800F000004A050FC000F089
:1019A0006D758D82D3927D210B7249E181208B610F
:1019B000DDA60060A8416CD69E267F21598098281C
:1019C00024060070A8110F005900A801004092B42D
:1019D00072570F00CF7814765DB2A458C000C09043
:1019E0000060EA713CA4BFD04256570128050F00A1
:1019F00000800FA05B10C090F8C70F6052C1C040BC
:101A0000383377150F5044441033A088675750047B
:101A10000A0511233700ED730F1041E6DB888E3382
:101A200059200080007000B00F40A415AB0756018C
:101A30000000820282C25B0070F15B60A881B1018C
:101A40007E05000000A0000000508EC31C62E0660E
:101A50004B92005000000070FBF3AB77CF010F00FA
:101A600015067031EF26000000E05BA0003000009A
:101A70000F00000000000FB03E150F204B8100202A
:101A80004B51AB211A863F05CFC2DD06F960825269
:101A900056110F9000500000000000C00000002010
:101AA000C080BC280030FDA100600050A6E677335E
:101AB0002380A6A6D21300A00000C78556011B08EC
:101AC000A60600F00F000000BD56F8B67010F8260C
:101AD000B6678681C100C1C56C0631075900C000D8
:101AE00056619B2659008A0100000F0000E000802B
:101AF000FD316204000000000000B9000000000099
:101B0000F704B90000000000B900B900C9025F0283
:101B1000FE3000D000D0004000D0F0A488EC1A9530
:101B200000A00725FEC06DD70030B9F036CE0705FE
:101B3000F7040000FE9015B6FD07B9500651B91024
:101B4000A49100B0000000000108F30C00A09EEA80
:101B500006610000610D757A6FC6C85636CE6608FC
:101B60000000DC01C117361CC177300E00070000F1
:101B700000709E0A0651007700F0FE40C1279D2BA1
:101B800079DD0090136DEA8669DADBAC4312000060
:101B9000280ABF02CBA4D912B9208AD0849AD908C6
:101BA0008E372B47724C6244C0777DA11107FE002F
:101BB0000000C49D00B000001F0A000000002B0EB2
:101BC000130AD409F7E41AF5F006009013BA5B0182
:101BD000A10300005F02009000B03704FEB08578DA
:101BE000F016119766B8F704F7140795B8B820DE19
:101BF0009EDC1273C8F000301B4CA4A119191F5AA7
:101C00000E06BC0BE40DEAF630DE8528F4300070D9
:101C10004C85B91000E011975296BAE9C67899FA46
:101C2000EAD68528069100B0B900B900370411073B
:101C30007BB700700070C20DDC42F006D6F29E3A0F
:101C400037C4CB840020E1A400801AB5D982A42136
:101C5000078575868CC6EAB4B282B808750A110782
:101C6000B9AD851A0CC00000FE00C107F30C9EFA46
:101C7000FE6006A11919005000A0F7240020B05AF8
:101C8000283A0050CB349E2AFC6067909DECD031FE
:101C90008F47A9740090DCB19F5AAE87760B510232
:101CA000BA089E7A1B3C3744679C46BA0B0000304A
:101CB000B9A007950090C1B73704B9405A63E10253
:101CC0000000850885080060F30C00170060EA0634
:101CD0000010093B00109EAA07A503E45963B90050
:101CE000C902EA06EE7037340040F7040000000035
:101CF00000607B073F1CFE001F0A00009E1A0611B1
:101D0000007000F0EAB6FE8000901DB13602F79434
:101D10000090FE2085780010B960000000000800E7
:101D2000002000C000D000500681EA861A95B970E4
:101D300002D400708900005058BB000000E0D8CBEE
:101D400074B4DF0213BDB9700070C9F6B393EA66CC
:101D50000F100418DE65E0E45651DF52AF56848858
:101D600037840000850811070060286A07759ECA3D
:101D7000757685C80000000000001E03B9006505E7
:101D800037043F44BDCA645D737589ADDC711AE5E3
:101D9000897035E242121DE9AD22B9908E069F038B
:101DA0008E89E807F851A233B952766CD2C6F59302
:101DB0000070EA3611471A15B9D093A9F8059E0AA2
:101DC0007404B97067300040008000707B67518DEB
:101DD000B024BBD3891BC3ECFF8500F0C5D8B92064
:101DE00000070000060100A007E58568009000B02C
:101DF000DF025EE35C194096F9501A39917C1A4073
:101E00007B770090B303160A0000EA969A2237E423
:101E1000460A0000D90B0000750A160A00005D0B87
:101E20000000C26DA48156AC87057A00E00100A0D5
:101E300000E00765C7639F010010B90D3F0C00006B
:101E40000050DF825F82880B00005F0200A000F07C
:101E5000F096000000000000B93000D0F7D4C8F6BA
:101E6000005000205F02300E000007053704C20D4D
:101E7000B96067A3113AB95CAB13DFD8BB02410A62
:101E80000C0E9E7AC1F7F744004000B7003700A05F
:101E90000010DC516700372406D1B900790D00002D
:101EA00000E0F7F4F704119700B0B900F774F734C5
:101EB000A811904951E8124825CD69F1229081E599
:101EC000F88360C3ECD64661BD672A96DFF2000056
:101ED00016CA0E3DF7149D834CB18CCDD63CFD48FF
:101EE00061630000000006019D0A759A9BC140D401
:101EF00000D09E6A36FE6D15EF6087009E0A1107BE
:101F0000DC0159039E0A000000000000EF0B0000F6
:101F100000000705EA06870000E034F6540100B02F
:101F20000050875000002A0653010070FB3B004020
:101F300000209ECAEAD67707460A000000705FF2CA
:101F40000040F7A4001000500B40001000907DF0FE
:101F500000E000200090468A00003F569A8BFA85E8
:101F6000B8283368B6526C7162090050F7A400407B
:101F70007D18C1C7A8D400103F0A7D093704B900F5
:101F8000000000070000280A110700A000E0006020
:101F9000F7041CEA584B009000B0130AEA960000C0
:101FA000B9B0FD08FE00DF06130D680A000035C257
:101FB000ADE2FF1D5589B8A0278A814098AA001775
:101FC000001000307B57DCF86442955C0090B9B09B
:101FD0000000099BB9B00725B9E0FCF0817AAAB4EA
:101FE0001CEB36BE8FE602A7CE22A5083D06DC011B
:101FF000F724757639415C00006EAB2D37B4F704D9
:10200000B90011775FF2004000001A050000EAF6FF
:102010009E5AB920EAE6009075A6B90011070000A3
:10202000B9702AF100400504280A0000B9E016EA58
:102030000000FE1000103774B9403D7105B4FAFC81
:102040007DE96B3763AB9C31063C885CB970B9A005
:10205000677A81F54770230AE00C0000B99028B137
:1020600000005F920000B9E0E929B9C0C2DD00A01C
:102070005FE200601AD5F7146668C20D19003F04CC
:10208000007037340040F7041107760707A589214F
:102090009A5B5E7C0E3082CCA83639F46F95630370
:1020A00008E7715800000000B900B9A07BC7B9A0CB
:1020B000DC510333DBB507C04BD5141DC575DC31CE
:1020C0000040117E4748F3BB00AA684B2DCADFC908
:1020D000289A1A25A10300000000F0E6189B00A032
:1020E00066980020B96072C100900000740C1A0557
:1020F00011079EAA00205DE400A0FC105C55E10CD5
:10210000C1A731D9964837EB91174B799B64F156AB
:1021100054F8A1B4150118371F49EBC6F5EADC6382
:102120002DB42608DE0BD9075903280A0000000049
:10213000070500009EDA06F100B01A6584351FEE2F
:10214000C9AA913DEAC8A80DD600FC00C302000050
:10215000060107A5A111D85015660040B9A0B91015
:102160007B87F754908AF3389CA2EB3468C6CBD2B5
:10217000A3B177C70040C1079EFA116729A200E00A
:10218000646507053704000000E0BD90CBA4009013
:1021900000B0F704799D00B08E0639E1F7841BD5B5
:1021A000B6CA9BFB0000000000000000B9B00705A4
:1021B000860083591A3563231F43D3D4FC00595931
:1021C000C7E27BD75E50F6051E2CB868B86CB980A4
:1021D000B970F7B41B8571170B58EE53002000201F
:1021E000F734BDD48E723DD72DCBE275FE3821B3C6
:1021F0007482A0D037E4F0F600009EAAFB1B0050CA
:1022000000000080DE5C9AA3C05D4A8D72F3861BDD
:1022100083A500000000000012E70D10E9A2FBBB3F
:10222000B3908FA708062604B30300106DC3FE7099
:10223000F46400401AA5BC74E6F7450A75E8F8C7CF
:102240003D511FCC277BBD4B1AB5B900F70400A048
:1022500000E0006000000000110B1A35B90000809A
:1022600000E0EA96F0A6000067006400B9A01AEB4F
:10227000B9259BA61F04C1025560A1186CA6680869
:102280008901090B0060B9000010000000002B0E4E
:10229000F754FE601A75D20D17E2554B4A1A74D9DD
:1022A0000060006007B5115791F03F0A3672673041
:1022B00041D877CA0695E89200D0000007050000D3
:1022C000B0CA11470050F31CB980755A00000007CE
:1022D0000504C26D003000E0008000E0EAC6007036
:1022E0000000EA56EAC604C8F006370406017B0778
:1022F00087A000E00060000000070000009013BA13
:1023000064051AE5B9FD0000E63AFE09284A37944B
:102310000060004019D66071224C9A02E806050C54
:102320009E0A360E1A05C10706013C0785D83724D8
:10233000F724DF7616FA0E4DB900C1070000F066EB
:102340000060B98003949EBB0000B91016AA6234E5
:1023500001006CEC757A183805000333657306517B
:10236000581B9E1A0010B970C37888D1C9C200806A
:102370007B673D9600A000B067C3690779173D31C0
:1023800038952332556B07A51FE0006034A6007016
:102390002E9700E0B970141A2E7DD6663B3500905A
:1023A00000B0FE0000E000007BD71FAA00E0006044
:1023B00000A000E09E6A06710077F0367A9900B0BE
:1023C000FE00B9A0791D1A550070CBF40641B97012
:1023D00000F00040B960FA35734B7A7374B498C456
:1023E00024A0791D175BC27DB970007000008105C3
:1023F000790D0070003076467BD670A64F410060A4
:10240000FEF0FA0900C000B0004000000000FD0727
:10241000EAE60090FDA81A05790D3F01B9E011F731
:10242000FBDB7169F71411A77B09360E160A35011B
:1024300000000070EAC65ED50020B920B970F076C1
:10244000550B5A217F88F70403040601B9A0F7E46D
:10245000F7641A7500F0F744000006019E0A4F9DCC
:1024600000B0F7040037C569F066CAF4FEC230A3B5
:10247000850CF0060601111775AA163A4368F34059
:10248000C42DF10B1107F70437040000E80C00B06D
:102490007B77177A000000F0B3631A953BB1000018
:1024A0000394DCC1FB2B3FE607F5000000000000B1
:1024B00000008DBCBF668A917D75CEF00040009013
:1024C00000B0000000807B07165A06019E0AEA064B
:1024D000F0A600C0547179ADB930EE70B900570B59
:1024E0002B0EB9F000D7F0663704000000007B9790
:1024F00075BA000000709E0AB95058CB165A9E5DFE
:10250000C6069E0B650700109ECAFC7075DAFB1BA1
:10251000A4B1C30A1009620300600010B9AD598369
:102520005F1D07A5C13700F000C000006A0D8502DD
:1025300085B84DC10040361EE1A500303AA126BD48
:102540003C06D90C0000000000002B0E61038598AA
:10255000B6160007B9202A970631005019501AC53F
:10256000FE60A319D950A2F21A8860153E8C6D5CEA
:10257000715C9E7AEA360040009006B100D00408F3
:10258000000000009E0AFE000000B990166A379411
:102590005F0200000000EA662A322D5823410D92A6
:1025A00038A4E2DD5EA2136AF9A37745F0022C8617
:1025B000847540D19905080B0601B900F0060000AA
:1025C00000A000E09E6A3406000007059A0AA103F5
:1025D0000000199A00B0F704D62285F8CAC07C9C86
:1025E000ADDD4DACCA921DBC2F0975CA7B27B95011
:1025F0005D235F7B6392F714EBF90F16D0754A4A9F
:102600002710B7936EB30000075500E064377506D6
:102610007B070000B9A000105E55FE0074040000A6
:1026200000405F52361E3E05580BB9006698C1BD8A
:10263000EA0600100020831AF7A47D4C80A831A080
:102640009AD952A4FB35316BB85D3D015801FA0BA4
:102650000000117713DD364128723E746C65EED1AF
:102660006498F3A52CECC9B2E2C69A2D73E6460A2B
:10267000860262040070C187F70437440601D37DE7
:1026800048F2E98C98DB68B317CC31A8A4510070EC
:10269000C17775C63BD17F15B3230090B900674061
:1026A0003055FC569E0D0705000000E000F00000CC
:1026B000FA490060284AE51B44D05E06AC149FFC32
:1026C000133B0FCE00900020B980DC218AA5C1E722
:1026D0001AE50000C28D00B0C18700703D66B930B8
:1026E00063117FC5B97075563D76F7A400A006E169
:1026F0001A65C5E5DFE6B90081050000FE00F74474
:1027000000C0A1260A073803290A00A006E1B96023
:1027100037E409F300000000000000000090B9B0A9
:10272000B90000900070EAD6C197F7B41A0500F01E
:10273000B940E030F519C769C2778D040300000085
:10274000F0060000E1050030EE2000801FBB3ADA01
:102750004A1941046600DE7016060000B900001038
:1027600000C0B57314F830C72BB6C579AAD14DC0D7
:102770001A150010117714605B818744127517F3E6
:102780005F420080CFB67F89EBBCFC60AF31ED02C9
:1027900000000000AE9400B0B900B9000000B9001C
:1027A000F7049E00790DC1070000B9000000110771
:1027B0000000005000B0F7345F620A050010150CED
:1027C00000B00BD0CB74DCF00541131D6D93F734D2
:1027D0000347D3A8F952923B4D757C077DB6A541BE
:1027E0009178DCCA08A19F15EE7200F0134AEAF650
:1027F000FB5B0020094BB9408E5635484A62F61DF6
:102800007D5AD07BDFA282B5602CDAE506919E8AE4
:102810004919000000000000B9F000D037046F1122
:10282000B9C00070F794F774B9D00AD246782BC0BB
:10283000DA9811B7DE0C00000000000018EA28EA60
:102840000000000000000200D166C1D76451022CD4
:10285000341CCCD7390CBC741AA5EFA63C63E9969E
:102860004100390C8F0B00001107F006FEB000C0CC
:1028700016BA849513BAB9001A4584657818BAAAAD
:102880008105C3B2BFA706E1006022761137064179
:10289000F75400B0FD370060F7640080D34DF7D4E3
:1028A00000901A3500A0F0969FEBE78A9F481D82A2
:1028B0004DAA215B9D09B9008505A103790300009C
:1028C00000C004AE8638652160E416A3DA35B5236E
:1028D0002BE18519A592346B9F49CCC677912D00C9
:1028E000F70D460AB920C9A213CDF78804D1B76104
:1028F000C4B81CB53353120A000000000040005059
:102900005F12F0C600D07B171F4A1F7AFE90B2E319
:1029100007F5F7040705B900160200C000D0001043
:102920001A95EAB60000B97000F0164A209075B604
:10293000B9000000000000000000360ED208B930D7
:1029400000B0D33DD993D7BA820800C0C1F70000C8
:10295000C1570010DE62005000807BA7C108DC0177
:102960000000C1972DB2F7041796B9B0A00300F08C
:10297000DC31F764B9C0AF1D0A9BB4FA8108D151AC
:102980002A069E02000011971DB39E0A0000B9009E
:10299000B900B940B9A00735159AD3A4BD0BFD7095
:1029A00006F1EA4687A076258571368247BAFB8311
:1029B0004A8A97FAC9C70671D3FD614300B0002067
:1029C00000E0F0E6499DA1A39CF53911311E3DB10F
:1029D000F7D4E0868C09B900C1070060C43500E077
:1029E000FE90F7B48B00A19300100050AF3234D0AA
:1029F00000D09E7AFE300040CB14F7C4B970B84CBA
:102A00001909A9C0792D0557E5C205139D1D5974F3
:102A10002001C20D85088508B003000037040000BE
:102A20000000659800B0000700000000B90093AAFC
:102A3000752A9C2200E0286A0060B3431A555FBAE9
:102A40000A69ACC2D8A32E32053C9E2A00005E055E
:102A50000000B90000070007009006B1000086954D
:102A600000B0B900D409360E06019E5AB980F9802B
:102A70008790A1438D22E8E4BD428C0A7121B30204
:102A80006D18DDAC0EE511674E03D60B5F01D39DCB
:102A900058BC6706673A190300407B07680949017B
:102AA000873000E04D71CB00B900810500000000C7
:102AB000377446DA00D0D31D111006C1E577004007
:102AC0003764001000F0C1075DB60010003000E070
:102AD000B97000F00040B990FEB05D05A103050596
:102AE0000000F704F704280AF7C4D1F1A4D18C90B0
:102AF000FAA513138B30B8996C0237422B5907157E
:102B0000C1A700E05F6200A037D4C23DEA760000B2
:102B100000502A620000001075A6B9ED8B60EAE64D
:102B200046FA00000564F006671A5F82B9C01766AE
:102B3000698900E0F7C400908588050400A09EEA3A
:102B400006619459457D4092F39708B7B808A401EF
:102B5000B306550C8E9692B0FFCD0B63D0924531E3
:102B6000100790761C9D4D63C8335F804B568C05D3
:102B7000638AB0F6A932E6BD1707926DBBAC8C0232
:102B8000F7F4F7641B0311070000007000F02A42FD
:102B9000B9000000B50CC157053C43E00601000038
:102BA0000000009000B000003F2608B73391F00904
:102BB000050B3E0674B4662900E0FEB0308B760A41
:102BC0001596B9B0000067EA00B079BDF834A4D911
:102BD000AC7B070CF40ABC0BB9C05D29DE21440DA7
:102BE000FB0B790D67A0D6F23D51294D3D15ED3017
:102BF000B6E9D05C3D31000000A0006000D00000CC
:102C000000905C65000000109E0A00005F020070EA
:102C10000030B9403371FFABB17DA87313B6D261F8
:102C2000C50DAB0034020050B980F78438C1FFFDF8
:102C30009F2118237C21E74CD88AE28B880AF674FE
:102C400007370040DAA5826637A7C7050602A40148
:102C50001909580B000000B000700070EA062B0E36
:102C60003704EE00B900070500C011F700005E70E0
:102C7000B8FCB8481CC8BDFDF70400F0135AF7A40F
:102C800000C185F8D80C40C5B1FA180B7491C4DDA9
:102C900011179E0A3F0AF704F79400B0F7043901B0
:102CA0001A054E4DFB003D06A608F704F7049A01ED
:102CB0000000EA0600000050EA7607751A757C39B4
:102CC0000040F66CA676B04C57901312A193365E76
:102CD0000070006066084C05990900001107B900F2
:102CE00000000000B9006F916EF25CCB339610BD0E
:102CF000FE0003040000000075F61A55002034069B
:102D000000005401C187B930C1170EB303C3F50CDD
:102D1000B8AA89FCFCD0130D00001A0537748BF09B
:102D200000400601360E0000009000B00000631362
:102D3000B71A58AB1187B6E3433DEC3216E96D4242
:102D4000E092071619D9B900050437041AB59E395F
:102D500011178491B6B8790D00600040F6A23D438A
:102D6000FEDC5A40441468D00060B9A70020EA266F
:102D7000620DEA0600000090F77419D900F0000017
:102D8000DC9100E0B9F0F7040100000000000090C1
:102D9000F7B4F00600703784910B460AB9001107AA
:102DA000B88C465A00B0000000000000F0266F1AF0
:102DB000F006000000009E0A00603704001059E38E
:102DC00000F0E8065F020000B970F7F4F7747A5972
:102DD000E19C00B00000857800F01147F7E47556DB
:102DE000116724080000EA063704D101B9001BA1CD
:102DF0009F719BD221D6B8C83DA63D618C3C5FAA8D
:102E000000300000B940039000B00000A163001042
:102E10005FA232ABB980DAD2CD15D2CB5F76B900E2
:102E20000000000006210D3BDCE11D1A45C6357689
:102E30000000B900F0060000F7F40060D9F500309A
:102E400006C1DC01590300007208F7040000C585C3
:102E500035E1EAC637040000360E0060EA66F78402
:102E600009032B0EFA09009000B00000AC0DC40D50
:102E700000000050007037A461ECCD24C28225D63A
:102E80001C23BF9D6CAD04B4D1D811A200203764BF
:102E900000B000C0E145FAFB00500020B9E0B9FDE8
:102EA00037040070C107005000B0372446EAF0062E
:102EB000000000005501DF0200001506EA060000D0
:102EC000C20DB900B9003F8A5A1B7BB71E017513AA
:102ED000EE69C55037402A2B9B7D5B627D7CF2E713
:102EE000B9E016BAB950F75400C002032B0E000027
:102EF00000F0F7548228757AF734716AA4614D5D49
:102F0000D35BCA0AD803A401B97000F00641FE6081
:102F10006710F7A40314F7C400700080C127F0A65F
:102F200007D5F7145FB247C9F0F60000D1E400906E
:102F300000A03F94CBB40000B9C0BA5C511C075349
:102F4000E27C5EA77A8775C6F7249E0AB900540111
:102F50007322F01600106179DADB685C0C068508D4
:102F6000070158E3919A00A0D41DA9F8FB21315D17
:102F7000B221C101FCF0B9F0550C06E19E5A2A427B
:102F8000AC7DF7F40040B9A0DCF10D5D6475370449
:102F90008558DF05FE00460B110711076608070577
:102FA000F704CB04F744F7A4F714F0B6DCC1D70359
:102FB0008D03090B050700E000508FA076EDD922A4
:102FC0008E56B83881212ADD2919AC870050C3926A
:102FD00077B7F704C1B7B970B970B990FB7B5DDB07
:102FE000204A0F0D4F62167855FB9E492EA9D1E756
:102FF000006000000000E87C9E7A0070367EE1AC44
:10300000D895B6266F681A05F71400809EBA7880A6
:10301000B3AA00D0C1A7B920F7D439B16E773C82EA
:103020007FCCFC0BF3F4586B00A00671EA9611A755
:1030300006E1106B7F359EDAFED0C1473F162AC4E9
:10304000130A8508B9702B6E280A3744022F3D04F5
:10305000381C52216752054C3E140C11183539406A
:1030600048596304142625112D3E25481D2C30385F
:103070004E594C400D694410141D253134394952C4
:103080004D0E0414182024303C484C5054661465EE
:10309000322418140D111D31343840484D515D62F1
:1030A00026304F150C563D4D104008182030524028
:1030B000171533250E1121390A1D40394953051DB5
:1030C0000C2E1A51136A6515364C680E06520542CD
:1030D0000641511C4B054D17044D616931080D1017
:1030E0001438404850663B0A24534A483C24155241
:1030F00005103D4F323E05484D563D4D145132248A
:103100003E492D1E394D5140493315390D1C092CAE
:103110003134485055622514360525313D52514F02
:103120001448500E33241432050C2563111C313819
:1031300040494E12052C4065162E3C4251310E2559
:103140000511093B260526126514262604270414BA
:1031500024303C545E14090D10181D2C31353840B4
:10316000494D506A14685614243C560517390F15FA
:103170002C4A113A4A1504244E4939673D2F24122E
:1031800004243E5A3F25560525174D181D340810B6
:103190003048500E1D34584E252C0C1E3D5416350B
:1031A0003B045857301365264A30371426301754DD
:1031B0001124091C14414E24154F4D0525120414E9
:1031C0002024343C54660E0542395D07191106650A
:1031D000134D3C160C423D1526041420243C546625
:1031E00026244A202F51154A425026085342501691
:1031F000354A3E251507300527415118393C484DC1
:103200001F3B3D6550101E3F2506551F4124152DBF
:10321000113856153850124D052464160C3A6514B1
:10322000324D651D2C383D1614320A1525362404FE
:10323000561426064D52265618080C101C34404CC5
:1032400050606A153952153A051C4A651406084043
:103250000C393232064D0605251F21162E050D119B
:103260001D20252C3134393C40494D5154606A3081
:10327000080C1014181C2C34404C503A15520414ED
:10328000243C56654D163D24524D163D170C4E32CA
:103290001504231608192C38142652100C69181C12
:1032A0003034384D52161A3D4C52493F24215C08A7
:1032B000040D10142C303840484D523E154D045723
:1032C00049334D3E1B0525161115244856041A3462
:1032D0004D131808144C380C111D242C303C404957
:1032E00050546225104A1456054208153B0D544EA1
:1032F0004D0835430524524D1524073C0C10181C6D
:1033000020303439484D51635813251A041C224289
:1033100065552C5830431C4C05533E380C15053E62
:103320005023053A0D2F371948060C391532161C53
:103330003A0E113E1024381E151F3E0414243E4D33
:10334000165141132440153D4F0414243C561424B7
:103350003C56213E6516154D3E652415564D2E19D9
:10336000495A26143006043F3E261D1625162417FA
:1033700026313F1404243C4856553C052461500D29
:1033800010181C2C30343840484D6A154D424B15EE
:10339000040D10181D242C303538494D50546064EC
:1033A000680A1452486B211E043606096305142668
:1033B00024160910141C2D34384145484F5016303E
:1033C000394048506A4249511225303F3D25500549
:1033D0002306052614044F14381214480513243804
:1033E000154A4941213C0C14053052260E2D224D20
:1033F000212C5211404C520556150C5022504913A5
:1034000019051D09405A302F391316514C143A51E1
:103410003A36543D16154D2E150524283C4A3236B1
:103420004137040C142048242C3034383C4044509C
:10343000545C6606314E516A53385F3D4D050E4D62
:103440003A513E18564D514A0521245214064C5209
:10345000424D3C2D0C50560D14312D3604160414DB
:103460003C560D5D1C2430343840494D50555B4D61
:103470000531673E4D052D152530420536160D38B0
:103480003C6204163C063A4D3843211614080C10D1
:10349000181C20242C3034383C40484C5054585C84
:1034A0006066194021304853140C1E6556050A4DBC
:1034B0002D5324303C545C661132263026150C3EC8
:1034C00015613C58646B3C5614053C1C2C38673124
:1034D0004A08565214571D09340C142438484C50CD
:1034E00054585E544D26224A3C164D18424D26052E
:1034F00055383E143E41272D4D074D1453263D04AB
:1035000014244854663D3824521C2D4A4C323D0543
:103510000E113A64262C2630524331264D2C3010A1
:103520005A0E26053A21040C11141D31383C484D21
:10353000505C6837063E252311494F513430101D29
:10354000050C24484D0A5010151C4D0E4D096607F8
:10355000564D0516101E1E4033504D234D6507165F
:103560004A3D4D05263D1427142222300A302D0EE7
:103570004D651451051E513A14321A3D56183261E8
:103580003004090D1015191D20252835383C4144FB
:10359000484D51585C6B49171518090C101C243004
:1035A000343941515D062E3542384D1B10652719BF
:1035B0001504363D0520252E32680414243C56158A
:1035C000632D521C5616215D0C103135383C404895
:1035D0004D50562D432C3A04166541310615611D98
:1035E00030526A0D160C1C14534D214A15411E1001
:1035F0003E2C0C3D673E1556064A354F390834427D
:10360000425448090C111C2D35395F304B053C24C0
:10361000140C3848560D05444A3034383C40444870
:103620004C5054585C60646A1526041424303C568F
:1036300019655135084D1621261504651C3E195093
:10364000101405080C1C3034393C404C5A14204FDF
:10365000154D0E1C102C3034384048505A312D5224
:1036600005566B0426080C141C303C404950545C31
:1036700062101524303E4A494D182138300C1D5433
:103680005E42113039414A4C52514C400B304E0D84
:103690004151251015485B112D324D1821304058ED
:1036A0000C1C252934384850545C6468112E54157C
:1036B00052041420243C48546604243C48560E040A
:1036C00014243C54660514250E15073A483B612C1A
:1036D000103C080D2831353848554D234C171665D8
:1036E00016485E510548394F4D43153715180912D4
:1036F00049140532151143041E0448080C102025F6
:103700003034404D5E141C584D333D1542394A3F0C
:103710000421610D1024303840484D50545C64350C
:103720002F12401D385A6524163E653E4D652714FC
:10373000444C0522041420243C484C545C66260466
:10374000151D30384850624D05564D14231465320E
:10375000055155156432540830174D21090C101DC0
:103760002435383D4850585C321127151F65041622
:10377000041D58090D142C30353840484D50606AEE
:10378000510B14064D1407141C304D343940485267
:103790001D3A514C1C25080C18303539414A1D3F43
:1037A000154D273D2F333D5305081426153A0526A0
:1037B000154D671A201E4D0F2232154D3E2E6517EE
:1037C0005E3D49323C314D063C2614673F1D4E1E7E
:1037D000052E4D24365416315F1704143C485426E8
:1037E000213D25173D6524500416144C1018322134
:1037F000051424303D48545E3016561D103A3D24C1
:10380000595D354015080C2C3038484D5155602B0A
:1038100065254D3D49510D07043D6451271526246A
:10382000561530523936241624146605152D404B92
:10383000143F15243E1424564D15673D5506155466
:1038400027193E053E1325373D41244A3450305850
:10385000104A14403C0C1C385224344231162F04B8
:10386000141C243C50546613391F384D1B343A2520
:10387000546705153C252A4D12064D5611493B6AE1
:10388000223B2E31134D203056081439530604576D
:10389000253C423852042416515F3D4D14264D6597
:1038A000121D3E155D1C3504080C10242C393C40BB
:1038B00048596821323225176542064D15481E2A9F
:1038C0000C304D3F0514243C666A58500C111D30D5
:1038D0003439484D68160516042448081014303849
:1038E000502E040D1C24083035383D4050545E02E3
:1038F000024D2C19040814303438414952421C4FEF
:103900001524501031383C41484C0E3804144A10EC
:10391000303A4C3A50423814484D5224411C300C35
:103920003439484E1404274D0A4136050C101C3911
:10393000154B1E3F3D51113B3544485A4D1D183023
:103940003C545A4D0A1025172416381316063812FF
:10395000180C0811151C30353940494C5154586425
:103960003E204868553F31344909392D420C3658BC
:10397000124204080C10181C2C3034383C484C50AF
:10398000586A5D2D16052F08544C0C1C2024282C39
:103990003052085236151E2D17083E390C10181CCF
:1039A00025524D3E19390B4D382416350C394B41F3
:1039B00017054D1719631D090C113438484C6A0559
:1039C00026174D122F1B511526581D0E4D0440145D
:1039D000081C2C3035393D48501167651D14134DB6
:1039E000243F151D34393C4D566516384048534F19
:1039F000154D074014263D244A6455050814272117
:103A00000D1008141C243135383C494C50545D6469
:103A10006A2104245410080D2C3538494D5159663B
:103A20001823200811181C243034383C40484D50CD
:103A30005458661C04083850584A282753083A4DF1
:103A4000513C322D6A3C3B15481C385F35114D3BCB
:103A50006516124D0508143D48673C504E0917384D
:103A600053071506260C0904123D042E68174E5004
:103A70001D06324D3015511B4D32490F6534040C73
:103A800010141C20243139484D505A052624164D57
:103A90000C16251639251648333A304D3A27551756
:103AA0004C060C504F150D1B502D3251674D616562
:103AB000050810181C383C404B4D2430524C2F0642
:103AC0000917341804080C10141C30383D484D52A6
:103AD00050243C3441324D3519650A650C100624DA
:103AE000653214243E3D51244132444E14324D3A45
:103AF0004D0514091D2D40444811333D2D240C3A29
:103B0000143C42041424303C48546626113A0414F0
:103B100024343C4854665516244A0414243C565018
:103B20001D164D246416081C202850122D463112F3
:103B30003A4D3E56214D141C2454120635084E2C85
:103B4000143806115158083B04141C260D3B25154A
:103B50001E364D06663C325E1438534D10520551E8
:103B60003A55485A053D2C24151E0414253C48544A
:103B7000663C67162C3A3C54060E3D3238153F36EB
:103B8000620A4D3A641D2D374D053D0C2D36140645
:103B90000C1D2E3F51161C304A4D174D3D586124C7
:103BA0002D32653F156654044A3A142631394814BB
:103BB000350A51120414202430383C485458664DBC
:103BC0000A391B103F5D33343A0940120E0D106460
:103BD0002516250416215639520535126524164935
:103BE0000414243C565C04080C1014181C242830BF
:103BF00034384044484C5054606615395812141CEF
:103C00001211390C2E32053E3540623D324858685B
:103C10001A3E1B4D043214076514553E524D421F87
:103C2000392449300E391D560C4F250836053D10F4
:103C3000153348322D0832341509382E15502619FF
:103C40004D53140B160C3956480C3A504C3305247E
:103C500021543A503C14323D5734080C1014191CAE
:103C60002C303840484D534B154865240A050C1537
:103C70001C252C3C4C503A0414243C54663C163011
:103C8000651E2F0E2104080C10181C2431353841F4
:103C9000484D5056243C1E0C2E0C3E0C1C5E513BD5
:103CA0005422381E0A21240C55654C08101C30394A
:103CB0003D486214564D3D322465165A3C22151E6D
:103CC000262D0E32214110141D24313439485C4D0B
:103CD0002F173A245206491E4A31214F06305231DD
:103CE000243A153808103642322F401F513C173CF9
:103CF000142606650C324D4805141C2430343C56FD
:103D0000042456362104080C181C252C3035393C67
:103D1000414A392F26105C04090C15191C242C313A
:103D2000343841484C596167220556513A660414AB
:103D3000243C54664D3D55040A3016041426053EB5
:103D4000082E690C10651C380515202D404D505566
:103D5000596304080C1014181C2024282C326826DF
:103D6000393E4E4D3A3D043039514D1648052739FC
:103D7000190C30494C545824161A091424362515A8
:103D80002C060B11323C3A2414320509342E061449
:103D9000201804080C101C242C3134383C404449B1
:103DA0004D5054585C616B3204142024303C48540C
:103DB0005C660C6052080C1C2C384A3F150D4E11E5
:103DC00051243204080C1014181C2024282C3034E0
:103DD0003840484C5054585C60646A050815493BAB
:103DE0001D32333C50551530384A493A502614504C
:103DF000244D093C4149540532491B301153213DA2
:103E000004100C151C24292C303438414854585DBA
:103E1000664D165434424D3E1D36114B1E313D4900
:103E20002F16310C1E3E0A110F651C261557543AE9
:103E3000052157194D5216510B51423E1535305E32
:103E40000414243C562C053F2453141F124D3104F6
:103E5000111824343C54221434264D34540A1C4383
:103E60004D6514306A1636223D655D370C5D156769
:103E700014043E314B5A214D6524090C141D303871
:103E8000485056053D2624161508371456224D1560
:103E900038523E143214243E053D1612651E51045C
:103EA00036313C361114400C4C5E4108384A142F10
:103EB000315F15081C661252041652052409363863
:103EC0002C081014183035484C521D534904142442
:103ED0003D5615263E35511E301649162115464DC4
:103EE000111509191C3034384148531D240C083869
:103EF0006516564A5C0414202430383C48546655F4
:103F0000041424124D162C4D23400B3D51240C1744
:103F1000261506653F4D500C0840102434394A657B
:103F20003E49584D331565241E6556264D5128428D
:103F3000152714384A4D156534480919243840535B
:103F4000390F041424303C485610150D30343940D4
:103F50004C66510E060414486452064D373D0A154E
:103F600032250D43114A4A043442213808344C04A6
:103F700010243041485158640E50046554111530D6
:103F8000393C484E040C4C56584A2D233C563E3A78
:103F90002D523E30171452142457500C1C344E31FD
:103FA0004E4D0C325168560C1D383C484F15394B5C
:103FB000590E1C3C58420C2C4F680B2530564814A7
:103FC0000835464D2167561D50104030346B4C1E4D
:103FD0001608172615060414243C54660E3D050EDB
:103FE0001030181E310C5708071615440C4A505A49
:103FF00014243E3C240414423D174D053D67051929
:104000000C10142430343941485066141C225114C9
:104010003A04142024283C48545C664D10384A1059
:10402000164D2E04591014182431343848521D5D91
:10403000143E05164C504A2F653E053C1E3914505F
:104040000C2C30423D14414E4D3C074D4A51383600
:104050005621554D2705151E0A52140C18102E38DE
:10406000363E04411C382E343A0A410816091A100B
:104070002E1B050F49324A65103D263C0638332277
:10408000253F25121E4D485438302C080C1018249A
:1040900028501E3D512F3D3B30261C4B0516142049
:1040A000243E51385A14262615261617080C1014CB
:1040B000192431343840484C505466390D56041494
:1040C000243C564D2C38124D041014242830346BE7
:1040D0001E43351430425114382C4F651606041611
:1040E00014243C053B3412482F51400D4B15080455
:1040F0000C111831383C40484C6B3D066454090C97
:1041000014344850584D26244C5832514B36041420
:10411000243C571626142614264108505E04142405
:104120003C56213965553C04350C101430494D532B
:104130000C53090C10181C20303438494C524F24B1
:1041400010153A2C694D13264D05163E495E15355E
:104150004A063C162416073C36324D1B15511D1AD3
:10416000082440061B1D2D3A4D045604661E2F25BB
:10417000065605244D164D4839532153153D052645
:10418000154E154216153E2E04243E50343B04169F
:104190001A4D1534654B05141D38284E052E150A89
:1041A0004D56046A2414063C051716483E1626216F
:1041B0004D534D5105091014181C2430343C5648F9
:1041C0000D5C6A4D24063415244D3F4D4B4D101E99
:1041D00002023251113B0C1D154D2F312742502E3A
:1041E0002156154D3E651D143850424D240C155274
:1041F00053392F114E0C501711153C502D3B1531D2
:10420000043A31351B4138523949241435092D4DB2
:10421000534A3C563F14413265240E041424534D36
:10422000314924140C433D562C5C5714664D1C1226
:1042300004143C4856153A581B15185109101D24F2
:104240003035394E041030343A3C16114154515D2A
:104250006732113541481731434C3A10171504366F
:104260001524650A154D6530053C1C38523C173045
:1042700016504C080C1D3034384A4D42345D1C2415
:10428000304850661141243137344F4C095F49267C
:104290000414243C5466111C38152F2D561406485E
:1042A000090C1D353A410A205417242C3C15671679
:1042B0004A6524182C614D50111D3038495A203E52
:1042C0005D51093E136516334D1C24172D17384BCD
:1042D000233D1E4D523E3813061524091118304156
:1042E000494C531D18320414243C54664D241E14AA
:1042F0001E262052192D49514E15263E04152431F3
:104300003C414C526537320B154D0A113A101526B7
:104310004E0C1C38514B58534D524E2D1E1C5113F0
:104320001D350C5E243E4A654D241665064D1C174E
:104330004A091D3B151E5104184A51154F1D090D00
:10434000515F154D424D155250382D1C4A4D1641A6
:104350000C3315113326151C3E3223190C14485FFB
:10436000080C1014181C2D30394C52483E2D1C15C9
:10437000513B384E1526380452191139373A353227
:104380004D511A0514243C564C301804081D34397C
:10439000485A651D080C1118243035393C484D51D8
:1043A0006A4D4224484C511C303B241719331739AD
:1043B0002E4D1D0C3704142428303C4856492E3D00
:1043C000481F4D15652D0C103A2D093304090C11A9
:1043D0001D2C303948534E4D18483A154D122814AB
:1043E000303E4D163541480E51095F4D650A650452
:1043F00014243C5651652D0C3A223C6516513E1151
:10440000391948500A324D1E154D512D4A15312D7E
:104410000F140936143E214D5210264D490C1941F6
:104420003953681D0C11183035384C523124164858
:10443000325111331A5111301814353943053615DC
:10444000653948352624614151581004090C1D383E
:104450003D484C545D6606040C142440523A2E35F7
:104460002C0C4158113038484D53241631154F1536
:1044700005243E30385651241542043C5426241756
:1044800065143B2415512F115D16512D1D0E3164FD
:10449000153F4A5056115D162615264A154D3E15F4
:1044A0005239242D4131584D114B1A4D13303F4D87
:1044B000162E4D65143E154D06511E2D143E220834
:1044C000526A0414243C56110C6A19044A15263504
:1044D0003014483B4D173951312F383E4D31495139
:1044E0002F4C31431C152714271115531E3C14263D
:1044F0003D1E0651111D580C2430353840484D657D
:104500006A155D0E0414243C56095D41535A654CEE
:10451000395D2C080C1D243035414851586A14323D
:10452000514839090411152432500E04081E094D52
:1045300032350E3D4D5224156A11554E24164A4D02
:1045400065310A110C3A383351374A4D3E04413037
:104550003C1158080C15181C2C3438444C531505C4
:104560002450560414243E4D51110E4D1108513360
:104570002F041641344D0A212F4C0C171B111434F3
:104580003F4932094A14263B410C1C3A04090C14D9
:104590001D3039494C51616A3F51116561410C5DD3
:1045A00054241D3034384C5A243E566516041420C9
:1045B000243C48545C66384C533251110931584DF3
:1045C0002417511D3843154D530E241611242D1553
:1045D000381D0E5422541604080C1014181C2024E4
:1045E000282C3034383C4044484C5054585C646A61
:1045F00051043E5111490C4D3924164D394B501080
:104600001C30343840484E30670E4D15110C261CB6
:10461000260651114E150C4064040911303C4C51D2
:1046200054585F4D1504243C0C3A490C511E481156
:10463000673D0415261D092C5D37651D5D09100CAD
:1046400024354B2D58394B4D5D39043053164C51A0
:104650001D10242C34384A260C1130393C514E4C54
:10466000151D2C0C303439415315110E0414243C03
:104670005466041424303C54661A504D17241649CD
:104680004E115D040C15243034384850546B4D6580
:1046900061040C101424303539495F484D133C0433
:1046A0001456394B0E50090C11181D303538414C39
:1046B000583E394B564D39412D513733354C5119F0
:1046C0002F39314327511A24175D04080C14181C84
:1046D000303439404C524250234D2F4D15653F5ECA
:1046E000511C172404143E14243248532F114C5CDF
:1046F0000409141C2430383D485156514E610C5168
:10470000331A24094C586704160541364D52156575
:1047100026154D382E512D110C35394B214F150CC6
:104720000936650552391115374D140E144E244DB6
:10473000163443381E23412F0414243C561A0C1AF5
:104740001524354F5D243E2F1550300C24660C4146
:104750004E14064D05524D0F141C3A4D53410C108A
:10476000610414181C303949516A15313B24413F0A
:1047700004080C3842410C343A1D0968100C182CFE
:1047800030343941484D5331115351561435650475
:1047900030394C516A3949564C1D5D0C413E3D4DF6
:1047A000364D512441142D335416650615514E4093
:1047B0004A4D1648346541612C5D090C111D2438A1
:1047C0004C50586A24085739331512264D11411799
:1047D0000414243D6751154A3E154D3D50110B52AE
:1047E000150B3D26244E3A246516041448533026F2
:1047F0000C181F264D1211192D331D0F43150910CA
:10480000040D1C2624161C38314B1C154B380B3854
:10481000124D15264D3E151C2D1108370415243C4C
:10482000485467485D3C4C0C5804152451623C5A6E
:104830001530195A1D5D0C353A156504263C164D88
:10484000431C300620540E4916154D4351170414CD
:10485000243C5665345D41612D090C4C3B15241EEA
:10486000154251080D15191C242D354A491135439F
:104870003E4B65355D0C381D5315243150373833A8
:104880002604243E4D652612044C146124384853F6
:104890001149415130384E4C4832492D4E153C5249
:1048A000154A166514244C51230414243C564D110A
:1048B00063654A14051C3C49562E3C16564D344A35
:1048C0003D16080C101C3034383C484C5224111949
:1048D000314D1615263911333924161141510C3535
:1048E0003A403B314941115A5604080C10181C201B
:1048F0002434383C40485054585C60324D1538518F
:104900001F4D3924354011525D1561110716514C68
:104910001D15090C3034383C4148545F654C0C1D62
:1049200004091118242C3034393D414851545F5149
:104930002D0E651426390E114D4B152F20161651CC
:104940003D2F4331524833514D161B212F1165091C
:104950000C181C282C30353941494C5154585F3CB7
:104960004D433C2C04080C1014181C2430343840DF
:1049700044484C50585C6066511130583E50163CCB
:10498000041014303439484C515F1D304852043CF7
:104990001614332D0830153D485F0C4D234D6531FD
:1049A0003C4A4D3A0414243C54670414243E152D0B
:1049B0001F3924233806274D0A1B51302C0934395E
:1049C0006810481E143834114E4D24201C3E162DFC
:1049D0003C2465174D26650414243C564D51151D85
:1049E000382D261D17512D314B3D51312F151D38B6
:1049F0001230581A354D33041420243C4856174DB4
:104A00003D12214F210B2E51050C151C30384858F2
:104A10005D63151F5149431E300515343940484C1C
:104A200050624D243F14202430383C0650110C3085
:104A30003438484C611E65114B164935390B6515E4
:104A4000514E6A2E150615511B1148412D19395A20
:104A50001C3E1D4D17143F040C15202434383C48CF
:104A600051560414243C5604142024303C48546607
:104A7000143E65244D533C156A42111D040C151853
:104A8000243038484C515A3E3115264C52154D357C
:104A90003913153A3E0457491438405D58111C3CEF
:104AA0004C5156164C11655D41353B1526655D161A
:104AB00015331410303439494C506A240C10141832
:104AC00030484C52154D240A3104351438514A4CA3
:104AD0002518510411141D3438585E4D1C4A2416F3
:104AE000434C095034651E4D143C561533244D1E5D
:104AF0004C04142024303C4854661524214F0611E0
:104B00004D33080C10181C2024282C303438404415
:104B1000484C5054585C6066651752560414202463
:104B200030383C48546651313D1B2D1C262E110C4B
:104B30003038161518494E30160C1F3E4D39410DB0
:104B400032245231391B5D0C383C544E1A0915532E
:104B5000152D1133514B11141C383C515465064D21
:104B60001E04212F261D350C093A064D4117304AE7
:104B70002D21414F2611302C3C090C151D35394192
:104B8000484C5A6541141A24511533316151351C72
:104B9000090C14384314266B18340C10141D3039CA
:104BA00040484C516A143E144C352D1908103C5A9B
:104BB0002442090C1D3441485058652615053C51C6
:104BC000131468375123653D041426653E24144DA3
:104BD00032154865244C4441181C3035393D515438
:104BE0005D621E48373A152F4D3651114B16513123
:104BF00013113D17110C1453111F381D354B180C90
:104C0000091D303438485224171533392D113541D8
:104C10004D4B152151262117513111156526252C93
:104C20001C34610C111430383D41484C51545E3CE9
:104C30002F14243E6514255407363A411C0C38368F
:104C400065065115264C533B11394114194F513CFF
:104C50002433240A044D0A05132115245211651D1D
:104C60000E49113722153C13152336514D0E103ABB
:104C70005D6841610C11181C242C303439484C51AA
:104C800065564910371530362F410B2D0C4B111D31
:104C90002439515A11515605153A0C3A1552144EF1
:104CA00024561558323D103A266524154204142422
:104CB0003C54671131354B565D1D080C11051530FC
:104CC000393C41495316040C1420242C3034383C10
:104CD000404450545C6608584364164D51134D1EB1
:104CE000303F4D3E3904084A2415674919113933BC
:104CF0005116650414243D564D15423948170434A5
:104D0000401615212F56150A0414243C48545C669D
:104D1000650514243C48566641181534080C101CCF
:104D20002C30394853154D073C4D674D0A484D3BD3
:104D300015240512653D4109170414243C546704E9
:104D400014243C5665152F4828090C0410303538BA
:104D50003D414C5054585F394A1E0414243C556759
:104D60003D4A2F5111651D410E1130534D1E4952C0
:104D70005165245D0C114C1C313941495A1D48586C
:104D80000C10283034393C404D51545C6824175085
:104D90001130650C5D0918353848546A154824539C
:104DA0004D51132D4D1D3A4C481A4A4934303A049E
:104DB000143C564D44531D5D38044E564D41162D3E
:104DC00011435156650415243C4856544B1C4D5311
:104DD0002D3804150A1857561D043D30090C1115BD
:104DE000183438404C2E493A15481E4D30164B4D5C
:104DF000111D2F6509510C151D20242C560C111462
:104E0000383C484C5211382F4D20563C14304A50F3
:104E10003B115D1664041420243C563D1426415178
:104E20002D111B154D1D3A4467394130354D16483B
:104E300016161131493558433A41380C3C5A153C45
:104E40002D26321551212F65411C30394B15652611
:104E5000513D4A19384A390E14521D152F1C6A1437
:104E600054264D51111F1D24584054043C5F5133AA
:104E70001D384365091D2431343841484D50545C78
:104E80006A652D350C485D43514F4D12300C10159D
:104E90002435394A0415416109381D24303C4954F0
:104EA0005E4D512415651E4D22315117485E385113
:104EB0004B2C524D413C08362D16512F512D110CC3
:104EC00015243A3015674D315306574D1139573077
:104ED0004C04080C1114182434384048505B154217
:104EE000244D1F4D173E4D41085724481635242D9B
:104EF0000E4D4236480911153B3E2F151D04114D2C
:104F00002D3A4C654105090C101D243034383D48BC
:104F100051545D6317264C04145D4251243C3315F3
:104F200039433451084C110C242C303949545863FE
:104F300015374D14260415080C1D3835325104114F
:104F4000260C581C494C53151E140715240A15210C
:104F5000510910181D303538484E3853482417333E
:104F6000153D0A650414243C48560E4E513A154D21
:104F700026041424303C4854661C39261C4A242D2F
:104F8000173E503D083530415A0C52480C3E14072C
:104F9000391E2416511E3015350C08382C40051CBE
:104FA000484C62155F6505080C11181D242C30391A
:104FB000494C53511B162F34412411510C09045DE7
:104FC0001830393C4854673E3015262D5315234C74
:104FD0002F24412D13040824285414320615245379
:104FE000383F1124411D2C09390C3049505463318C
:104FF000124D151E0414243441543E143E2404154D
:105000003E56222D113238320200000000170003F4
:1050100000031F0A1F161F0A1904130A15120003A2
:10502000000E1B11111B0E0A040A040E04001800C6
:105030000404040010001804031F111F121F10198C
:10504000151215150A03041F17150D1E151D01193C
:10505000071F151F07150F000A00001A00040A1188
:105060000A0A0A110A040115021F1F1F1E051E1F2E
:10507000151A0E11111F110E1F15111F05010E110A
:105080001D1F041F111F1109111F1F041B1F1010CA
:105090001F031F1F011E0E110E1F05020E19161FE2
:1050A000051A16150D011F010F101F0718071F18ED
:1050B0001F1B041B031C0319151300000000007EB6
:1050C0000909097E7F494949363E414141227F41D4
:1050D00041221C7F494949417F090909013E41415B
:1050E000493A7F0808087F00417F41003040414134
:1050F0003F7F08041A617F404040407F020C027FDE
:105100007F0204087F3E4141413E7F090909063E76
:105110004151215E7F091929462649494932010139
:105120007F01013F4040403F0F3040300F3F40384B
:10513000403F631408146303047804036151494534
:1051400043D5F08D14A1C881CFD9F1AF2000080B51
:105150000002020200000904000001020200000532
:10516000240010010524010101042402060524067F
:1051700000010705810310004009040100020A0034
:1051800000000705020240000007058302400000FE
:105190000403090412010002EF020140412336809A
:1051A00000010102030141726475696E6F204C4C6D
:1051B000430041726475696E6F204C656F6E617259
:1051C000646F00006D3111241FBECFEFDAE0DEBF47
:1051D000CDBF11E0A0E0B1E0E6E1FFE602C005903E
:1051E0000D92A03EB107D9F727E0A0EEB1E001C0D3
:1051F0001D92A63BB207E1F718E2C3EED8E204C065
:105200002197FE010E947337C23ED107C9F70E9461
:10521000CB310C9489370C940000CF93DF93A62FE9
:10522000B0E093E0B595A7959A95E1F7B695BA2FBA
:10523000AA27B795A795A20FB11DA80FB11DA95F09
:10524000BD4F6770215011972F3FA9F0FA01E20F6F
:10525000F11DE491F0E0062E02C0EE0FFF1F0A944C
:10526000E2F78C918E2B8C93ED01C058DF4F888133
:105270008F2B8883E7CFDF91CF91089580389105F8
:10528000ACF46034710594F490E121E061FD24E018
:1052900060FD220F62FD2295687F969FD001112448
:1052A000A80FA95FBD4F8C91822B8C930895EF922C
:1052B000FF920F931F93CF93C42FE62EF12C082F4C
:1052C00010E0C15038F0B701C8018C0F911D0E9449
:1052D0003E29F7CFCF911F910F91FF90EF90089546
:1052E00080E0E7E0F2E081118FEF00248193819369
:1052F000819381930394D1F708959091B1079823F6
:1053000029F49091B007982381E009F480E0089592
:10531000FC0180910602882311F13FB7F89482E0E6
:105320008093E9002091F200822F90E01816190670
:1053300014F481E090E0882339F0289844E6409303
:1053400005024091F1004083222339F02091F200C0
:10535000211103C02BE62093E8003FBF08958FEF93
:105360009FEF08952FB7F89483E08093E900909120
:10537000E800892F807295FF04C09091F20080E4CC
:10538000891B2FBF08958091FD0181110DC082E01E
:105390008093F90184E08093FA011092FC0110924D
:1053A000FB0181E08093FD0189EF91E00895CF93A7
:1053B000DF931F92CDB7DEB76983DC01ED91FC91DD
:1053C0000280F381E02D41E050E0BE016F5F7F4F2E
:1053D00009950F90DF91CF91089583E08093E900C4
:1053E0008091F200882319F08AE38093E800089501
:1053F0000E94B22990E00895CF93DF931F92CDB71A
:10540000DEB7FC018485958597FD08C02FEF3FEF3F
:10541000358724870F90DF91CF910895CE010196B3
:105420000E948829019719F4898190E0F3CF8FEFCA
:105430009FEFF0CF0F931F93CF93DF931F92CDB7C2
:10544000DEB78C01FC018485958597FF0BC0CE01EA
:1054500001960E948829019771F4898190E0F801F2
:1054600095878487F801848595850F90DF91CF918A
:105470001F910F9108958FEF9FEFF1CFFC0184856D
:10548000958597FD0BC09FB7F89482E08093E90063
:105490008091F2009FBF90E0019608959FB7F89425
:1054A00082E08093E9008091F2009FBF90E0089530
:1054B0004091F3015091F4012091F1013091F201FA
:1054C00042175307B4F49091E8009570E1F390917E
:1054D000E80092FD19C08093F1008091F301909152
:1054E000F40101968F739927892B19F48EEF80931D
:1054F000E8008091F3019091F40101969093F401FA
:105500008093F30181E0089580E00895EF92FF9287
:105510000F931F93CF93DF93F82E192FE62E042FAE
:1055200081E0860F880F0E94582A83E00E94582A43
:10553000CF2DD12FEC0EFD2EF11CCE15DF05B9F0CD
:1055400007FF13C0FE0184910E94582A182F80E0A3
:105550000E94582A812321968111EFCFDF91CF91AC
:105560001F910F91FF90EF9008958881EDCF81E01A
:10557000F5CFDF92EF92FF920F931F93CF93DF93BC
:10558000D82E8A01EB017B01E40EF51ECE15DF0556
:1055900059F0D7FE12C0FE0184910E94582A21962C
:1055A0008111F4CF0FEF1FEFC801DF91CF911F9151
:1055B0000F91FF90EF90DF9008958881EECF0F93C9
:1055C0001F93CF93DF931F92CDB7DEB782E089831D
:1055D00042E450E06EE471E580E80E94B92A0E943E
:1055E000C329DC0112960D911C910115110589F05A
:1055F000D801ED91FC910280F381E02DBE016F5F37
:105600007F4FC801099597FD04C0F80100851185F9
:10561000ECCF89810F90DF91CF911F910F91089569
:10562000615030F02091F100FC0120830196F8CF09
:10563000289884E68093050208953FB7F8948091F6
:10564000E9019091EA01A091EB01B091EC0126B53E
:10565000A89B05C02F3F19F00196A11DB11D3FBFAA
:10566000BA2FA92F982F8827BC01CD01620F711D79
:10567000811D911D42E0660F771F881F991F4A9573
:10568000D1F708958F929F92AF92BF92CF92DF92FF
:10569000EF92FF926B017C010E941D2B4B015C017C
:1056A000C114D104E104F104B9F00E941D2B681962
:1056B00079098A099B09683E73408105910580F349
:1056C00021E0C21AD108E108F10888EE880E83E0D3
:1056D000981EA11CB11CE4CFFF90EF90DF90CF90FB
:1056E000BF90AF909F908F90089565E070E080E04C
:1056F00090E00C94422B8F929F92AF92BF92CF92E8
:10570000DF92EF92FF920F931F93CF93DF936C0181
:105710007B018A0180910B01882309F45CC0809190
:105720000602882309F457C08091F80180FF05C064
:105730008091E00082608093E000E801B12C8AEF64
:10574000A82E93E0892E2AE3922E209711F4BB20F5
:10575000D9F10E94B22981110AC0AA94AA20D9F1D4
:1057600061E070E080E090E00E94422BEECF8C1769
:105770001D0611F00CF08C2F9FB7F8948092E90071
:105780002091E80025FD02C09FBFDFCF282F30E029
:10579000C21BD30BF701815020F041914093F100DF
:1057A000FACFE20EF31EBB2021F09092E800B12C5C
:1057B000EBCF8091E80085FDE7CF9092E800BB2415
:1057C000B394209709F3F3CF5D9884E68093F701B3
:1057D000101611063CF081E090E0F601938382837D
:1057E00010E000E0C801DF91CF911F910F91FF9071
:1057F000EF90DF90CF90BF90AF909F908F900895E3
:105800000895CF93DF9326E0CAE0D0E0E22FF0E0E6
:10581000E052FE4FBE010E945F37805D8083CB0166
:105820002150009799F7822F90E08F519E4FDF9182
:10583000CF910895FF920F931F93CF93DF93162F6D
:10584000F42EE9010B5F4991442371F04F7185E01B
:105850004802A001112446545F4A25E06F2D812F94
:105860000E940D29100FEFCFDF91CF911F910F9163
:10587000FF9008950F931F93CF93DF93C62FD42FDC
:105880008901F80141918F01442371F04052F3E006
:105890004F02A0011124475F5F4A23E06D2F8C2F38
:1058A0000E940D29CC5FEDCFDF91CF911F910F9119
:1058B0000895FF920F931F93CF93DF93EC0160E263
:1058C000F62E06E0E091A807F0E0EE0FFF1FE35D83
:1058D000FE4F0190F081E02DEC0FFD1F149190918F
:1058E000A907E92FF0E0ED56F84F812F85958595B2
:1058F000805C808310FF24C08091A307813009F071
:105900006CC09530E9F48091A4079091A507A0910F
:10591000A607B091A7070197A109B1098093A40731
:105920009093A507A093A607B093A707892B8A2B6E
:105930008B2B31F463E977E08BE997E00E948237A3
:10594000A091A807B0E0AA0FBB1FA95DBE4FCE0172
:105950009695879596958795089FF001099FF00D7C
:1059600011248D919C918E0F9F1FFE01E370FF27E4
:10597000E330F10509F048C0FC01319624913296DC
:1059800034910596FC018491E22FE295EF70307F0F
:10599000E32BF0E18F9FC001112488279F708E2B8D
:1059A000009761F02091A9072F5F2093A9070E941B
:1059B000592C8091A90781508093A907219611FF46
:1059C00081CFE091A907F0E0ED56F84F1082DF910A
:1059D000CF911F910F91FF9008956BE977E087E0D9
:1059E00096E00E948237A3E9B7E09D919923A1F048
:1059F000E7E0F6E09F018191882309F4A1CF981395
:105A0000F9CFF901F082F1CFEE0FFF1FE80FF91F78
:105A1000859194919F70C4CF8091920791E0980FE7
:105A20009093920728E0829FC001112463E977E0F8
:105A30008E56994F83CF8093A307E3E9F7E088E080
:105A4000DF011D928A95E9F7109292078091AA07CB
:105A5000882391F10E946E3628EB33E040E050E05D
:105A60000E94DC366F5F7F4F8F4F9F4F6093A4077C
:105A70007093A5078093A6079093A7071092A80795
:105A80001092A90786E094E00E94592C8091AA0701
:105A9000811119C081E08093A8071092A90782E6BE
:105AA00094E00E94592C82E08093A8071092A907E5
:105AB0008DEC95E00C94592C0E946E362AE637E066
:105AC00040E050E0CDCF0895CF92DF92EF92FF9269
:105AD000CF93DF93D0E1C0E086E0C82ED12CE12C3B
