:100000000C9430260C9458260C9458260C945826A0
:100010000C9458260C9458260C9458260C94582668
:100020000C9458260C9458260C94812C0C94F02C8B
:100030000C9458260C9458260C9458260C94582648
:100040000C9458260C9458260C9458260C94582638
:100050000C9458260C9458260C9458260C94222F55
:100060000C9458260C9458260C9458260C94582618
:100070000C9458260C9458260C9458260C94582608
:100080000C9458260C9458260C9458260C945826F8
:100090000C9458260C9458260C9458260C945826E8
:1000A0000C9458260C9458260C94582600000000F6
:1000B00017000300031F0A1F161F0A1904130A154D
:1000C000120003000E1B11111B0E0A040A040E0479
:1000D0000018000404040010001804031F111F126C
:1000E0001F1019151215150A03041F17150D1E15DB
:1000F0001D0119071F151F07150F000A00001A0020
:10010000040A110A0A0A110A040115021F1F1F1E00
:10011000051E1F151A0E11111F110E1F15111F0597
:10012000010E111D1F041F111F1109111F1F041B98
:100130001F10101F031F1F011E0E110E1F05020EA0
:1001400019161F051A16150D011F010F101F07188C
:10015000071F181F1B041B031C03191513000000A5
:1001600000007E0909097E7F494949363E414141E7
:10017000227F4141221C7F494949417F09090901E8
:100180003E4141493A7F0808087F00417F410030E5
:100190004041413F7F08041A617F404040407F0258
:1001A0000C027F7F0204087F3E4141413E7F0909E6
:1001B00009063E4151215E7F0919294626494949D0
:1001C0003201017F01013F4040403F0F3040300F7E
:1001D0003F4038403F63140814630304780403610C
:1001E0005149454300000200004D0E0B2C1B033A01
:1001F0000000150E0B3AEF051448080E6000049934
:10020000023EDF00054B041635021496053C140629
:100210005600004DC0033A92071C46030822060C04
:100220006F0810970D147805191E0A2C170730F85F
:1002300004341F0E385705407C0B4890004D720463
:1002400051B8005A82011800005100004F1E012CC5
:10025000E3050C00001100003B78051882012CD842
:100260000568B1073091050871080CAE09342609FC
:1002700048510D5000004D54091200000500001DAA
:1002800082073A590C1CEF0506580A509C053300AA
:100290000041410C1482070A00003D590C40000047
:1002A0004DE30512590C3B4B043D00004DA7050CD6
:1002B0003407323709146803568D0E04000065F9BF
:1002C00006544B04116B0D141B0430E30739070A65
:1002D0003C150148A9094C6F09524B04154B041FEA
:1002E00000000500002D070A4A000005E3052E1E48
:1002F000054D0000358D0E3EE20750660326DF00F7
:1003000038940014DF002E00004D35023A000065DD
:10031000DF0024660516EF05144B0456590C1B002C
:1003200000058D011500004D0A0E268C01164B04A8
:100330000D88063B0000153206461C0E5194000441
:100340000E081D7B0C3200003D370917780518F1A7
:10035000000D300011960D14880B1DD50231A50833
:1003600038520540FF01481A0B51590C5D510D6080
:100370008D0E2400004F00004192071C5F0118B948
:100380000610550B0CB10730AC0934E10B393700BE
:10039000489E054E240A507D0A4F60092E370954A5
:1003A0004B044A4B0415520538590C12000051C138
:1003B0000326C0034E00001D1E0550410C34760E6E
:1003C000400000697B0C30DF0012EF051468033E2B
:1003D000000051C003489609105205150A0D590036
:1003E000002500000D000043C00348EF0515EF0590
:1003F000245409118C07560A0E24590C42E4093082
:100400004B041F37091454092E0507269A013E0A8A
:10041000034E8D0E0400004D4B0411820C182D0567
:1004200020B30624BC0854C003365D0053370914BA
:1004300088063A3602044700146B0320FE0224D3D8
:100440000430900438300B3CF60D48E80954150B85
:100450005C8F0366DF00500B011448080C070D1079
:100460004B0419BD0B58320C054A031C480E3024AE
:100470000334DB0439C0083CAD0840470C4E5D0C2A
:10048000300000174B04140B004F0B003E000021FE
:1004900082012CDF0035130B4D210E0C8A0B100C42
:1004A0000D3175073885023C370140B600482C0BEA
:1004B00050BA0754B9085F00002138035200003DCC
:1004C0005D005219050DDF004805083C970654549D
:1004D000095CDF006A000065520534F60304E70595
:1004E0000CA501105C011435001C0C0431600639A8
:1004F00010064833064D08005051035A2D05543557
:10050000021A860A34000033810C1A4B043D0000A5
:100510004D590C5631030A0000395409118D0E3D16
:100520001E0553A10D36110E18DF00349D0248EF51
:1005300005154B04091C0138C0032EE3053CDF0000
:100540002681064AC003303B0D144506085F060CA1
:10055000530E10ED051879041C1E052CB705345DEB
:100560000038DB0A40AC084C770A52000015A7059A
:100570002E510E1A000051DF000E00001900004D30
:10058000C00330000051EF0517720B3C9C0742007E
:100590000021590C5200003900002F820C1B1E054F
:1005A000063F0026DF005800001900004B82015C66
:1005B000C90C0C850A104208140B091982011C256C
:1005C000002482012C7A0531AF0934AB023888024D
:1005D000409E084851054CF007500B0154820158C9
:1005E0005B0C0A0B013C0000050000170000391EDF
:1005F000055278023CB103360E0B400B00585409EB
:1006000068590C1A350238DF002CF90C08D60D1089
:100610005F0118E20630E80335F10D40DE0448942E
:10062000024CFE08520000152E0D32000011240766
:10063000083D0118570A1C720A303B0034860738FF
:1006400068053C9F0740440448260E4D870150D062
:10065000085482015CE30564BD0826890C14B103CB
:1006600034DF006900004F2E02400A0E26C0033E10
:10067000780524E3056A82072F0000510B0116005C
:1006800000318D0E1E37093E0000490000110000A8
:100690004FE30A300A0E24410C12000025000037F7
:1006A000370914000031A00D3400000D00002F00A8
:1006B000002D4B045200004D4B04560000254B0406
:1006C000054B043BDF000554090C590025F00A389E
:1006D000000063000055EF0504590C120000152FAF
:1006E0000D36590C40590C0A4B045EE0090C4B04C2
:1006F0001DBD0B38DF00484B074D2A0D3E4B044013
:100700004B04590000695005444A040D3703107B1F
:100710000B140D011D200A25BE0731AF08349500CA
:1007200039FA06491E054C210052820A2608063B6A
:100730000000511C053AEF0515590C6A690B087841
:100740000E0C7D01100D0C147805181F041CE1011E
:1007500004750320390324B60C28DB0A2C27073044
:100760004A0234190738430840960448B9004C340B
:100770000250DA02549209587C0C5C5B01608400E0
:1007800066210D306605164B04314B042100004FE5
:100790000000354B0421EF053C48080C0B01044BCD
:1007A00004108B0714B00730C50139DF00491D0C58
:1007B0004D120D514B045500006700002DE3056AF2
:1007C0000000215D00500E0B2E7C01303D0E3A05DD
:1007D000080C84023A00003100004D0B01060000B5
:1007E00065DF003AE10742000021DF001600001536
:1007F000DF0037AC0C424B041582015C0000614DF8
:10080000031D110930BE06480E0452B10334590CC1
:100810001EEF05142D062400003D00004F00003D92
:10082000410C324B04158D0E0400005D52051C4B2B
:10083000043C2D0568520510540935430608D50AB5
:100840000C77052472022C3C0A39970148DF0059C5
:10085000000021520532BF0827EF05146803560B2C
:100860000114590C107D0A1E8D0E048D0E24F607FE
:10087000164C0D04EB0B14340D24F4043CF9015612
:100880009802340000530B013C1E050C1F0908AAF6
:100890000911620415480B1CE90C30AC07356E05D4
:1008A00039B100409A0949DE0851E40454C107589F
:1008B000280A5C820168130B4E0000510000359B32
:1008C000051E4B0455E20B055409141A06250B01AD
:1008D0006600004DDF0008DF0040070D10410E1CD0
:1008E000770C50460334F00539520A4A4B0415DFA1
:1008F000004E370914000067000504080A0CB30114
:1009000014EB0C20AF0A24C3072CDE0A30B10C34E0
:10091000460438F3093CB503409F0A446D03480C74
:10092000005035075483075CA20B660000053909A7
:100930003C00004D7B0C26C0030452051A00000940
:100940009D02482408344C081000001578051A0050
:1009500000150A0E2626084205080C99013A0A0ECF
:10096000249B050C4107534B043100003D0A0E2621
:10097000C0032F0000110000390A0E240000215985
:100980000C424B042535021763043F1E050CC003BF
:100990003A000065000055DF002C540958410C3224
:1009A0007D0A4C4B042F00004D990B108D0E070053
:1009B000003948083E000015000035C0034A8D0E7E
:1009C0002400002D0000413F0038E200485205128B
:1009D000E20804C30414280924CE09307D0B3CBF6F
:1009E0000654800A5E0A0E24540938000051370963
:1009F000160B004C1E011066001A580A24E3051C51
:100A0000F3033A540934590C12EF0514580A0AEC4E
:100A10000D3E00003500001900006525001400009F
:100A20005197063A24064854093254095C0F0B04C6
:100A3000090008710E0CD90910A00714200018E154
:100A4000091C2D03243F0128BA00307C0734D70D40
:100A500038AC0A404D0948CE0B4CED0350550560AB
:100A6000680A66E3050C0000050000152D053E41EF
:100A70000C481E051E00004D4D0D24350214BB050B
:100A8000530A0E24590C5200002500003DE50C16B7
:100A900000004DC003508D0E144B04098E0B0DF752
:100AA0000C1068001888061D79022C1E0331F90C01
:100AB00035A00138C0034B940605EB0A14760D24CB
:100AC000A7093E00000500003DDF0025A6052E0019
:100AD000004D590C404B042DE50C150C083200005C
:100AE0004D7204514B0411620415810A09B4061CAD
:100AF000F50730690334F20138EF04411101484B26
:100B0000041B1A0D0600004DE3054854092C590C2E
:100B100038C00330580A1C2F0B081C0C0C1C0A1080
:100B2000FC0318C50B246D0350D50A56EF05148D30
:100B30000E24DF0032D50716F00A48F90606000039
:100B40005137091400004D8B023000003D410C125A
:100B50000000650E0B34E50C170000050000510B7A
:100B60000164000055EF05155409324C031C95042F
:100B70002CDF00128D0E3C4B0406000005000051D6
:100B800000003900004DE3054ABD0B1CF906560074
:100B9000005100003900004D8201108201345F0EC7
:100BA0004A580A1BDF0014540930F9060600003DBC
:100BB000580A0A0B0114580A0AF90604D204241A26
:100BC00004420E0B1C39093C12042200004D0B009C
:100BD0005600004D9609127C0B16000049010A04CC
:100BE0000506144C0A2413023DD605565C0304A9DD
:100BF0000B14F5003C0E0E57DF002C0B01042009EE
:100C0000084C081C8D023AC0035EEF05141505243C
:100C100058003E0B002000000F88061C0000430017
:100C200000411E0136BD0B14700B044B042700005D
:100C300009050838DF0040FD08120000311E054E8E
:100C400018031A00004D0A0E24000005EF051600D7
:100C50000025EF051400000D770312000049480835
:100C600016000005B103340A0E260000110B0130F6
:100C70002F0539710441E40C4AEF051482073AEB61
:100C8000043CDF0024350216000065370914DF003C
:100C9000320000411E0138860A4A4B0421000065DB
:100CA00005080C050838C10036E305300B0114E3D4
:100CB0000550FF01241102095A0C3C1E0541720423
:100CC000494B044F9A012200003DF9065678051859
:100CD000BC0B0880090CF60C10EB0D140D081C79E8
:100CE0000A30FA043888063D210E4870004D7E0215
:100CF000505205368806248D0E06000005820A141F
:100D0000BA0626BD0B04470714BD0B568D0E3C00DA
:100D100000558D0115540430E10638060A48770C59
:100D2000521F0D1400006700001588063A000015D8
:100D3000E30522000061A70530FC0504EA0C09EC7C
:100D4000040DAC00103905154F041985061D490D19
:100D500025E30D28EE0B35DE0638230A3CDD054180
:100D6000500544B0034801024D720951A805582CA2
:100D7000025C0B006B0000250D0612590C38DF00D9
:100D800024E50C16AC0850A20468B20D39000242EA
:100D9000660C1E0000054B041500004F540934A5D5
:100DA0000B5454090ADF0024AA07165205386603BB
:100DB000245409230C0C4A0000210A0E2637091579
:100DC0000000050000270000319B050C590C341E63
:100DD0000138540948210057A4012452054A370913
:100DE00014C0033A00002530010600001100005134
:100DF00000004BBA0214110A248F023C87065607E2
:100E000006174B0415DF002600004DEF0A304D0D8C
:100E100026000035590C52880638C00352410C2672
:100E20000A0E248D0E3C6E06141804523709148DD8
:100E30000E3E4E0816000011000051D70C30EF0591
:100E400026550C0554091CF0013000004D520534A4
:100E500049073CE30548DF00543709148D0E260A84
:100E60000E248D0E3C8D0E050000558D0E480E0B88
:100E70002CD805683901502D010D700810400B1851
:100E8000E4031C810430050234BF0B380E0A40E332
:100E9000054F0000254B043D00006500000DE305F3
:100EA0004D7F0449DF00532F06420E0B1CE3054C17
:100EB0000000050000538F05040C0C14630B248301
:100EC0000C3E2F031400004F00000500003D3709C1
:100ED0001600005100004DC0034A8C034078023ECA
:100EE000590C33EA03084B044C4B0B1CBA050C4B52
:100EF0000E24BF032CBD0B302B0550BF075600003E
:100F00004D53053037090600003500001100003947
:100F100000004F00000500004D1E050C4B042F0A79
:100F20000E24000009F60714110E18DF00349D028C
:100F30004A000015A302061E014000001500004FE4
:100F4000520550520526DF005000001DC003165404
:100F5000091C0B0107EF05144B04260000390000A3
:100F60001B00004DEF05260000650A0E27DF002C50
:100F70004B04190A0E046D0C08B6000C8B0B1041C3
:100F80000114C70C307408384104413B0149130B6C
:100F90004DDF0252B60606000025590C100B010663
:100FA000EF05148D0E3EF90654000009CB0B140B0F
:100FB0000124540934280E48E2075800004DC003AC
:100FC000520A0E2495045054093A580A6B000051F5
:100FD0000000411E051CAF0C4B370914C00332C87A
:100FE0000104DC0C08290A0C490C10C202149F05EC
:100FF00018C5001C4A06207D0D245C0A282F0E2CE3
:10100000A40230530734D6083886083CB80C402A6E
:101010000E44350A485C024CF30850400554A60AB9
:10102000589F095C7B0460BF056449056A00006540
:101030001E050CDF0010000069D307050C05150E16
:10104000021C370920E8042DAD02400B004D610A57
:1010500050EF0555DA06590B0061E3053ADB04044D
:10106000D50C14A9052467033C7604563502245494
:1010700009580B0132C003121E012C54093A00001A
:10108000190A0E2435021454093035024C780458DC
:101090000000390000491E050E00004D000015003B
:1010A000005700004100005F4B042D3502540E092B
:1010B0005000004D8D0E3E000039770E4019050D91
:1010C000DA0256000005580A500B013F3709140E8A
:1010D0000B364B04152D0510350224590C3A00002F
:1010E0004D9504530000150000395B01604B040D61
:1010F000C0031C20064CE60309FB013110013477C4
:101100000948BC0755A0065A00005100004D590C73
:101110004A00003D590C0A1E050C8D0E39000015C1
:10112000DF00320B004C00001188063A0000150069
:10113000004D4B042E8D0E040B011600082C0000F0
:101140002300000500001D9B050C54092C590C3A86
:1011500000000537091400004B81063E9B050CEF8B
:101160000515730C200E0B52C0033D000027A20092
:101170003000004DDF000EDF005800004D4B041121
:101180006D021D5B07390B00487905683B0D1600A1
:10119000004D590C100E0B2C0E0B30BD0B5A0000DD
:1011A0004D8D0116DF002C650D1C8C02107405306E
:1011B000430C34340C383C0040730B48E503527B3D
:1011C00002049E0214E00324190A3C560A54560AEB
:1011D0006A2E022E820C563E0108000007460E16AB
:1011E000000065EF05140A0E26000051D70C42E2FC
:1011F0000B1700004D4603088201353709048201B0
:1012000014BB0B1CD90A2C1609305E0739590D3D49
:101210005805405400480000110000670A0E245988
:101220000C341E01081E012C9A014C0D06520000C0
:101230001531061E000005000025DF005000003FAC
:10124000000055AF030452055A52054800001B2800
:101250000D0600003DDF005800004D7805244B04CA
:101260002D640E328D0E0454091C0B0124540940C8
:101270004B040DC00908C80C30ED0B35820C387FCB
:10128000073D6A0C4CCD06504902541409581B0501
:101290005E48080C1E054E19030A590C34580A10F2
:1012A0001E010991091A0000514B04094B044E4BD1
:1012B00004057D0A4CC00322000065AA0716590CDC
:1012C000221D0B04E40114C905241F0C30A20D3C9F
:1012D000400A48650656680354350216D50A1600BA
:1012E0000005000035DF0012580A2C000015000030
:1012F0003F0B000E00001505080CDF00484C081CD1
:101300004B043880065FA50B5439093E43075293BE
:10131000040E78042E0000154B043C00004DDF0045
:1013200032E60D04FE0614820324890C3089063C43
:10133000950654290E5E0000654C081EE3053B3BF4
:101340000D04EA0308AC050C220311470B158207B4
:1013500018650431F20B38280D3CAE08405801489E
:1013600065034CA2046BDF003497063A580A6A0002
:10137000001519050D9A004C5C063E00003D8D0ECF
:1013800024E30548000041BD0856DF001500003F7A
:10139000000019DF003900000B95042F0000150034
:1013A000001900000F000015EB043E950C1BE3052F
:1013B00048000013DE032EF6010C250908F9043459
:1013C00088091C0F0624820A2C8B0E38D8064A770F
:1013D0000E4005080C710A3A52055054093454095C
:1013E00040540958540930EF0510F9064A0A0E24F2
:1013F00083010800001500003B96090600004D4BD4
:1014000004061E012CC003084B0419EF0514DF006D
:10141000268B013200001D00003500002F590C5CA6
:1014200035024A000051590C30BD0B5A00004D4B9B
:10143000044A000005000015DF000C52051CDF0007
:101440003B7D0A4D0B0022810C0A63002FA30A0684
:10145000EF0514EB043E0000393709140A0E241E70
:10146000050CB60730830A401E01520000058806AD
:101470003A660A16A40116C00330DF00561D0E1688
:101480004B0415DF0008370904820168630E0D5B09
:101490000110600D1836081DF20D30970C35B0089C
:1014A000388A0C49C6094D7F0A6096026600004DD5
:1014B0006D063C000015590C0A000025000005527D
:1014C000054AA10604680714010924F906345A05DF
:1014D0003C860054160A66000031480C4E8D0E14EE
:1014E000590C40720B3E000015000065590C1CDFC2
:1014F000002600003D4B04534B0412CF09065D004B
:1015000050580A2F00001500004D590C108A02385F
:10151000E305524B041D420C0CF30D11B7023401CC
:101520000038C00248DA0A4CC601684B040B0000C0
:1015300049C00332000015000049EF053B000015CB
:101540001E0108DF0038550E3600002DEF051597F7
:1015500006389A004E000025C0031F3006500000D8
:101560001900004F00004D4B043AF4030C52052CB7
:101570001E054F00004D4B04169D044C00001F003B
:101580000035EF05391E051C48080C4B04544B046C
:10159000091E0511DF005D590C2F00003100005FAE
:1015A000C1003700002DDF00301E050E0000194B72
:1015B00004518201687C0130510E211E014A000055
:1015C0004900000F93003E00003D4B042100005DE8
:1015D000DF002C370904820168410E1C20064C27CD
:1015E0000A0C610415DE00306F0434950238F10DE9
:1015F000411C0348BE0254530958820164820712F9
:1016000000000545071E3709498D0E5E4B0414582E
:101610000A12370914DF000C9706511D0A4A3006DA
:10162000524B0414540948B107300E021C820108C1
:10163000D30A0C680D11090318400735440E390010
:10164000005BBD080400003F940452000025DF0049
:101650005000003118063F00003DAF0B245D0C4ADE
:10166000DB0A1B37091454091C780458000031594F
:101670000C4A00003D00000500004D000067DF003F
:101680005000003D8D0E24A7053A000035350214A8
:101690009D0732590C5C060D046F0C09880A0C2258
:1016A000081400041938031C89012482072C320114
:1016B00031570D34B00B38DA07419B02486D034CAB
:1016C000710950520559510D614B046700004100EA
:1016D000003700004DC00348370915820A1E00007C
:1016E00049EB043C0000411E050C9B083000002122
:1016F0004B040795020E4B0422C00308F00B110E99
:10170000021D210E0CD40618A30824B4072C2703AD
:1017100030FE01380F043CCC0C403A0449E40D4C37
:10172000F80C50CC0656590C10D70C326F00264BD3
:101730000405610015FB0C1C0A0125650D2C5205E2
:10174000388D0E3C52054C4706520A0E2445071EA2
:1017500000003D5F090A590C1300004D7006055248
:1017600005090A0B10E80514520518820C1C320DED
:10177000244E0730560134EB043C4B0451F9065615
:1017800036003EEF05108F0B092D0E14650D1CE27F
:10179000012DE50934400038E603414B0445820938
:1017A000483E054F00000500004D8D0E1600000557
:1017B000E50C16EF0514DF00325C063A590C2C00DC
:1017C000003900001F000051E3050E0B0036DF005A
:1017D00014EF053E590C34590C40660A06E3052007
:1017E000F90634340604500814E402243A093CFA99
:1017F0000B54E9076600000500003D52050E0A0E75
:1018000024C4030C2D051DE0012EC0031A4B041542
:101810000B004E4B04510000414B04134B04213587
:101820000238DF00341E0551F00D045E060C230E55
:1018300010B10714510624BA08309F07411E08480A
:10184000A8075A00001500004D590C10950450C30C
:10185000030CBE091E3502324B043DFD0C159E06DD
:101860002400004D5409360F0A40EF0517F0030419
:10187000A00014BD062600006500001D0A0E24DF2E
:10188000000C8B023ADF006800000B00004D0000E6
:101890002D580A1E000065BD0B240E0B1E000051C2
:1018A00000004D00004182015C4B041D460308FE10
:1018B0000439460A3CB5024ADF00300204163709F3
:1018C0001454094200005D00002DEB041413044A77
:1018D00000000500004D0B016401082452051600AC
:1018E00000510000490000670000058D0E245205DC
:1018F00009950436FF0124590C32EF051400002F1E
:101900000A0E24370917DF0024000065C0033200E7
:10191000005D31013A48082600003131033A0000E9
:101920004DBD0B32DE0342000015FD0806DF00143A
:101930004B0D0472033E8D0E0400004D000061004B
:101940000069FC010D900110A0031C6B0031B40074
:10195000385204408102486208508D0E6600004DE6
:10196000C00358000049000033000041200908125C
:10197000045200004DBD0856000005590C105409D2
:101980002CDF0034070A0BE50C144B043F3502141E
:10199000A900249D02505205574B0415950452523C
:1019A0000538070A3C4B040F000015000065DF00F6
:1019B00024820C0A0000159B050E00003D590C10F6
:1019C000A103520D063000001100005310045041D5
:1019D0000C04AE0B1452051D830930BB09384204B8
:1019E00048600E6203041600000DF9065435024EDD
:1019F0000000414B042E0000259B050E4B04111ED8
:101A000005401C054C200952A907161E011C350271
:101A1000224B045500004D00000D00005D370924E5
:101A20002D051C0000597A0C307A0B342B0D3882AE
:101A300007409B014B27022E0A0E24510E52000034
:101A400039000031C003488F0B374B0451990B28E4
:101A50004B04420000050E0B42000021E305304814
:101A6000080CD40D09910410B4001CD50724D6022B
:101A7000358B0A38DC043D92014882014D420E50FC
:101A800035025E8D0E2437081C35023EDF00500BF8
:101A90000124130B047E0A10240C31320A389E09EB
:101AA0003CDF00416C0A4891004C7A040E00003D76
:101AB0007D0314000041BD0B4EF90C3000002F00D7
:101AC0000025DF000C54092CC0031E000049000053
:101AD0001100003300002100001D4B0435400C04B0
:101AE000F00B110B0C145C0931F20738740E3C94A6
:101AF000014899054D080B50970D5F370914DF0019
:101B000008B10335320644EB054A3709141E050CAB
:101B1000DF00488D035252052C3502482B05503703
:101B20000924790C042902105A0E141607302607CE
:101B30003A000065AD0C12520522000065DF001668
:101B4000000005000015410C1C00003D590C2E82C0
:101B5000012C2B0550B6000C7008110C0118400E1A
:101B60001CF90231540E341F0538D50649E0004EE9
:101B70008C07048C07264B0414D00C0803070CA414
:101B8000071071021840031C0F0220470824590552
:101B90002CF20C30610D3441003898063C6900404D
:101BA000CD0D48670C4C5C00500808545E0D5898E9
:101BB000005C500D6200001100002D0E0B32B103CD
:101BC000340000310000094B042DC0033B000051DC
:101BD000DF00328D0E3C590C103502141E050C54DA
:101BE0000950DF001C76003A54092278023C580A5A
:101BF0004272041700003D52051C52053897090433
:101C0000480652950450550134AC0840C2004EF0CD
:101C10000A5E00003D540932620014DF00520B01DD
:101C2000490B013252052A0000218D0E240E021CA0
:101C3000480704F4010DB80610B20914530C2C75B2
:101C40000C30B20238F30040A40048E2074DE00D2A
:101C500050DB0A5E1204388D0E48DF004C950452AA
:101C600000004900004F1E05501502047A0E14CFE3
:101C7000081C8B0D2427083C270054B30C660A0E61
:101C8000241E050C0706162D05360000211C0A042B
:101C9000660324DF00108201689D0A0DDF0935C14B
:101CA0000A38B50C4963074D3E0E518207595A0157
:101CB000665409404C081C9706547B0C5EB40D0416
:101CC000780014990D20C6072407073C050448C472
:101CD0000D54B2035CE50A669F0D38DF001EB7079E
:101CE00014A70530580A52590C108D0115110D0D0D
:101CF000C102304B04340F0039C007409F0B4CAC7D
:101D0000085052056600001900004DB10352370912
:101D10003F00003DF90657000015DF0050BD085692
:101D20000A0E2494001600003D0A0E240000414CC7
:101D3000043200003900000F540964D7051406006E
:101D400026000065C0030A000025810604A30216D0
:101D5000000055590C0A0000314B041300004D1EC1
:101D6000050C82012C4B04090A0E048B0B10400158
:101D700014B1031C5A06307D0934B30B39660D408B
:101D8000630C48E704528D0E1C00004B0B005837C3
:101D900009564B0405120B4DDF002C82015C25090E
:101DA00008E305681B080D2D05110E021D390920D9
:101DB0000B0125560E31A80134080D391C083C8151
:101DC0000140320349DB0251E707560000150000CD
:101DD0004D4B041D720439220A3C5E0C568B0124C3
:101DE000370916DF0050C4030CE2051C6E00250EF7
:101DF0000B3BDF0014540936590C10660324F00A1B
:101E0000338D0E24DF0030E50C16000021320C0467
:101E1000450308620E0C0D02103F03180D021C3E14
:101E20000B314B04357903385D0848120B4D09041A
:101E3000520000055409520308160000159A023E8C
:101E4000100D14BF0824B2013E00002500002D4BE8
:101E500004114B043E52052C590C3A540934910993
:101E600008410C4200001554092E370914000005E2
:101E700000001300001D410C34A7055A3709140E49
:101E80000B1F78043A8201641D0304530A14850968
:101E9000241B0D3E68033C4B04560000054B043DDB
:101EA00000001709012400005700005152053A8C28
:101EB000073600004D2D053895044A00004D0B01F2
:101EC0004A560B04660814F10220120E2493073CB4
:101ED0001C094846025411056600000590053CE3C4
:101EE000054E000025DF002A590C340E0B40410C32
:101EF0000A0000257504081E01360E0B400B005821
:101F0000590C2C0E0B30D70C4A0000050000151A96
:101F10000924270532590C10DF0005590C52000026
:101F20003DDF001627040A9A014C8D0E4A8D0E04DF
:101F30003502209C0B1E4B04053206444B0414C092
:101F4000032056014E000065DF000C0E0B32D20458
:101F500006EF054B00000500001100001D000031D8
:101F6000350214370809DF002D5205445C0C4A4B3A
:101F7000042100004DE30510AF0314580A245F0C40
:101F800056000005410C164B04244E08043B0D146A
:101F900060041E000025590C344B0443660A04D823
:101FA00005684B0459BD0B10EE05245E0431F9049D
:101FB00034FC0838FD084820064CB805524B042173
:101FC00000004DDF002C48083C0000618F0B3552AB
:101FD00005088B0B1057000D9609283E0031410C67
:101FE000389D0148D902570000150000651E050CF8
:101FF00054095854095F590C2CEF0526AF0B14BF38
:1020000008049504241F013C720848650756590CC2
:102010004000006535021600001D7B0C30770E4035
:10202000A7055A54091BDF00500A0E24820243669A
:1020300003249106388C0E3C2D054AAF0C320A0E53
:1020400024660516DF00384B0419DF004F88064868
:102050000B0126000065650A16480814590C2E432A
:102060000104380814950B20AD01242F0230F10A29
:102070003C580348600154B50866DF004CBD083C7D
:102080000F0952D30B04C50314600C20D000248028
:10209000053C2001544C0E6600000500003D000088
:1020A0004D0B0B0EDF0004AF0B14720024B0053C87
:1020B0008806545F0D663709140A0E245409181E49
:1020C000054C0D0610A7043200003900003D000049
:1020D0004D1C0E5300004D88063A7C0A26EF05156C
:1020E00068033C54096400006B45071CDF003200A4
:1020F000004D590C2C54093AF10504B80314220D73
:102100002455043C4F0256680354DF00220000515E
:1021100000006500001100003900004BDF00389F0F
:102120000304390D140A044A00005100003D8D01DA
:10213000170000151E050C4B041E000005000015BD
:1021400000003D000031370D12000021D70C520075
:10215000002D8903325A023235024C8D011637099F
:10216000140A0E272D0516180408370917EF051451
:102170000000531E0110000025000017590C2C7D93
:1021800004042F033F000005DF000C4B042535023B
:1021900016580A08540940540937000049EF05153C
:1021A0004B043B0000156009520000158D0E3CEFFA
:1021B0000526000039DF00500E081E00004D5D00AE
:1021C000528408560000254B04150D062E00002DE4
:1021D000AF034A0B001E0F0804F8071431052480D2
:1021E0000A3006023CB30056BD0B14300D204B04E0
:1021F0003E000035820110EF0530540958D80568BB
:102200000B004D8C070918050D3809146F021DBD10
:102210000B2C1E0538820140FD0348F103503805A0
:102220006205080C24083600001D00002D54093AF0
:1022300000002582012C4B041C210608A00A0C1565
:102240000A18CB0930AA0135590A39E1083C8D0337
:1022500041920A4810044E000051C8053F00001585
:102260000D062CDF004A0000210000158D0E0666C9
:1022700005177D0A4CDF0016000025F00A327C02AB
:1022800004AC0114F9052452003C730256000065A9
:102290000204168D0E24370915DF0038AD054A00FB
:1022A000001D84063F0000519D02483101388D0E0B
:1022B000174B0414EB043EEF0514DF00503D0118EA
:1022C0003C0E04570C0877080C030D1095041CE312
:1022D000052036092454052CE40B31390034550906
:1022E0003826063C5306407D0649E20B4D6B0C54E4
:1022F000180758F90C5C0A0061C2016B00002158F4
:102300000A500B013E4B0415000067DF0004E50C8A
:1023100016000055590C48590C5A3206440B004E11
:10232000750014FF012600000500003D00004D6609
:10233000032600004D540921F4034A8D0E240000A9
:102340004D00006500000982012C74040CB90514CD
:1023500035081DDD0A30040038D10648100450C38A
:102360000154820162DF0030450752000015EF057D
:1023700024C2093E00004D0000614B04658B0B0533
:10238000430308A70510540918410E1CFB052484BB
:102390000138AF023CBB0740680349A50A5600005C
:1023A0002D950432580A1A00003DDF000A00004D46
:1023B0000D06501E0110590C3231014A0000050A69
:1023C0000E24E50C1560091E0000110000395409A7
:1023D000582009089A004E000019580A080E0B34BC
:1023E000590C42BD052F0000150000413F03188223
:1023F000012C82015882016086010CDB0310220748
:102400001C660A246B01309F04390B015D000051EA
:1024100000000BF4043C820164740D24BF0A568250
:102420000605BD0B08EF0514750E284B043DDF00B3
:102430006500004F0000512D056835025654091CF7
:1024400052054C0000096603244B04544B041152FE
:102450000514590C43590C404B04335404300F05F8
:1024600008F5020C980514B00D1C0A063C810740C3
:10247000A60B49700550A3045403065E00001D52CC
:102480000557380324590C12DF0014EB043EE90B06
:102490002D00000500004F4B04517B0C3035024CE1
:1024A0008E023A130614DC0D24F1043CD90C54C0FE
:1024B0000306590C0C370D1EE50C14000065730C57
:1024C000320000394B04510B004E000039E305087F
:1024D000BD0B0C2D05320000650B010493041600A2
:1024E0000011590C5CC003400408149A004E4B04C0
:1024F0004152053A0000254B0415590C5200004D7D
:10250000000065C0032CDB061D00003DC003160063
:102510000009770E42590C1F5409094B04170B018F
:1025200033000065C003140E0B38E3051C090E24AC
:10253000B70B2C0000058D0E3E00000500002DEFAE
:102540000515AE0C4BDF005000001DDF00064B04EC
:10255000514B041454092CDF004CBD0B3ADF003002
:10256000540958B1035054095C4B0411D705547BEE
:10257000061C8F0B250000295A09344908389E078C
:1025800040580C48A2046854092C00002100004F58
:10259000EF051400004D000065410C103E0C3200A8
:1025A0000065DF00324808144D0D06E305148D0E5A
:1025B0000400004F00004D580A1200003D00002D9D
:1025C000590C3852050C500A264B0415E3051C54CF
:1025D00009668D0E3CD8056892000CB40C1074038B
:1025E0001889091C410C20DF01308F0A3406083994
:1025F000C70B4811024D140453000005DF0026519B
:102600000E1D960932A7042C4B0413CA064AF9067C
:102610002454095300000500001948080CFD081057
:102620001506143709240E0C30680334C401392D03
:102630000541E40548F5045288063E32060C6E0A50
:102640004FDA0C04390E146F0D24D9053C160156CF
:10265000000051590C30F9063E00002100002D0009
:102660000041250908E30510E3051D5007349A0BC6
:1026700039B50048B2075CD8056800004D0000334A
:1026800000004D4B0425DF0010A705342D0B082C4E
:10269000050CB902182E0230A10D40E20D4A0000CF
:1026A0006568033E1E0138C0033254092F00004DF7
:1026B0001C0508590C35500E439400142D05222793
:1026C0000C04E50614230620110024820C289A0C21
:1026D0003C150D48C40A54140B5C5E0066000015DE
:1026E0008D0E26DF0050DF005A8D030A110424EFFF
:1026F00005161E012F250206000065EB043F4B0462
:102700005935020E4B04543803144D07660000057A
:102710000000250000170506264B041552054C370E
:10272000090454092606071CDF00420000151305A2
:102730000A00004D88060437095600004D000015B8
:10274000000067000019A70534000015590C52005D
:102750000031590C5A4B04320000050A0E24DF00E8
:10276000140B013C82013BE50C148D0E2600001D6C
:1027700048083C20090812045200004DBE0B64F9C1
:10278000061600000500000D32064495044AC300F9
:102790002600003D0000650A0E2454092CF00A387A
:1027A0000E0B0EDF0030EF051700004DDF00243068
:1027B000033600002135024CEC0708280A0DB90643
:1027C0001059011456061C2E05318201353200388D
:1027D00092053C520D49390150470254DD035DA179
:1027E0000D648E0C682E0E26EF0514730C32C00398
:1027F0001500004D0000673502247B073E240206C9
:102800008D0312000039000025DF00163C0D04C1C5
:102810000814080118D10A20290424650B30E300AC
:102820003C8B0948790854B70966770204630B1496
:102830009A0A2461033C69045600003D1E013200DF
:1028400000050B0020580A2E00003D4507400000FF
:1028500025EF05174B04150B013C4B0405350225EC
:10286000A7052A00001DDF0011EF05140000674BCB
:10287000041C05080C05083A620904FB0014A303B4
:1028800024C20C306D013C520348FC0D549D096676
:102890001E055000001100004B0000054B0426905F
:1028A000093068033E0000219203050B0E14910BC2
:1028B00024E90A3D260248050756720C10160B152E
:1028C000E30524070C320A0E25A10D1254095037D6
:1028D00009140A0E26000005E30532370914EF0536
:1028E0003888064A7B0D04D7073C3B0D56580A1022
:1028F0001A0914620726DF0058540912DF0050E35A
:10290000051C00003D000067EF051400004D590C48
:10291000304B0467680316EB032E000015EF052407
:102920008D0352C60504770614B90B24D8043C6EF7
:1029300003544B046600001900001D0000095409EF
:102940005A0000654B044A630A16820158E30504E5
:10295000550D084B0B1C8D07388A0950EF054ADFCF
:1029600000484B043B00001D5409387A0412EA0465
:102970003C4B0407000005EF053E00005100001B22
:10298000000051DF00346F0A3AEF0514C003320033
:1029900000390A0E244B044B0000210000350000D2
:1029A0000D00002D82011C0B0130870338240548DF
:1029B00058024D820750D705540B015C5304660042
:1029C0000019480C4D48083A48080CDF005A00002E
:1029D00015820C32D4081454095200001500004925
:1029E0005409365409093709176100158C073E1E32
:1029F000050C590C501D01100E0B1845002E580ADD
:102A00005494001675041A4B040537091400004F3E
:102A1000620D2D4B04238D0E24250A400000150065
:102A2000003D00004F00001100004D590C2C5409CE
:102A30006B000051770E4019050D4B0449700A3A9E
:102A40000000150E081E00005100004900001D770F
:102A50000E40FE033B00004905080E95042CAC080F
:102A600050990904640D0C870C107E0618090C1C83
:102A70007B0A304703340B0338F7013C620348ED0F
:102A80000D4C5D066A780518460308280A0CCE0C22
:102A900010AF0514B30D1C2508402D054C970A50A6
:102AA000DF00601D036A590C340A0E240000330055
:102AB000003DB90714BE08249509489E0954E10851
:102AC000664D08168D0E048D0E160000218D0E2405
:102AD0000000552509084B04658201602D050C078F
:102AE0000D1090071C7804304F0339430B3DDC0771
:102AF000484B044E8D0E0400006500001554091E5D
:102B000052052C00003500003D8D0E2400005DF1C3
:102B10000D404B044D000029240908D60A0C0B0176
:102B200015DC0A307B0938050648950A517F036297
:102B30004B04510000414B042592071C8806390DB7
:102B40000B084F050C130530B605374B04515409DB
:102B500034DF00304B041D1605051C0524E70C4826
:102B600000004DC0030A9D0B1200004D00001D9295
:102B7000063C0A0B487805560000517B0C30770E56
:102B80004048084A370914E10252BF083C8806262B
:102B90000000510B004E00002178051800004D8800
:102BA00006383E0E1D000049EF0532000035520583
:102BB00008800A4E0E0B58590C428C0B3200004D07
:102BC000590C1C580A120000494C0B04F70B149BBB
:102BD0000024EF083C030256410B09F6010CF40DEA
:102BE000102F011892071CD50720280A30510B34EA
:102BF000230038D009491F064C2B0B50C7016A8DA2
:102C00000E3C88063A4B04059D02484B045F350292
:102C1000149706389A014F4B041A070D10000069EB
:102C20008201401D050CC3091C8F0130F10D348F4A
:102C30000C3821004D28055200002100004D4B04A6
:102C400053000051590C1C00003D00002F3709149F
:102C5000580A106D001E00002D3206466200044B1B
:102C600004264B0424540104870E560000494B04EB
:102C700053670E04100C14210920830424B700307C
:102C8000000D3897033C7409487306544E0D6600D6
:102C9000006548080CFD08100B0062EB07260000D9
:102CA0002500004F000021580A1E000005F90656B5
:102CB0003502142D051C0000510000670A0E24C0C7
:102CC00003147204332E0E4E4B04554B040535028B
:102CD0003CEF053A000021EF051400004F8D03136F
:102CE000590C401C053600004D0B01054B04651EB8
:102CF000013300004900004D0000315409400E0B23
:102D0000100000390000510A0E260000212502564D
:102D100000004DEB043C4B040700001500004DDFA4
:102D200000348D0E485B0C090C09197D04245601F2
:102D3000389609405205534B043D35012096094809
:102D40004B04575F0C16000065C003421C0A045276
:102D5000055252053400001DF6010C780524DF00F1
:102D6000380A0B484B0409F80614E1004C0F0C50CC
:102D7000110654860A581E015ED50A05AB0C08C11F
:102D80000914290D26410C1E590C3400003BA904DE
:102D900002000000023A08380000177102241400F3
:102DA0001700004D00003900005DA90504E405305E
:102DB00057025300005100001100005D0000411453
:102DC0000067090815000051F7021E64060800009C
:102DD0004F000065030A0ACD062F00004D00005188
:102DE00014001114003300004D00001D14004100B8
:102DF0000009770318F7022C5D030C040A30B101B7
:102E0000349F0939780348A10051AE026A0603389D
:102E100000003389041600004D14002FA100390072
:102E2000004D00004B3A083800003300001D000040
:102E300049E40837310915F7024800004114004CF5
:102E40001400652A00242009186B005D37081CCD8A
:102E500009305D0035E104397A013DCE0751820029
:102E600056000015F7025214002DCA042114004127
:102E7000AE084F5E083B710224000005A1003EDF52
:102E8000001469053C00004D000067420804050578
:102E900014F10020E00024B0043CAE054848075679
:102EA00000004D1400162D063100004D000017489B
:102EB000091400001148093A07083840065200007A
:102EC0005100001100004900004D0000394809166A
:102ED000C0033100003B1204141E09260305320012
:102EE0000015D00650F7020CDF0030C80826DF00BE
:102EF0002DB90217F702342A001427066808070CB8
:102F0000770410C004309102390907498A024CFD48
:102F1000065200004D670952000049000051A90502
:102F20001E00004D71022483021700001D14003D95
:102F30000000212A0030140009D8032CD80340CD0A
:102F4000030CE908111809159F0134DA0638CD037E
:102F50004E000041A9050CA9051C94023A0F00047B
:102F600014001614002DA9050E00001500004D00D8
:102F7000002F3A083C0000530000410000150000FB
:102F80003B0000510908041E0218D0064A3A0838CE
:102F900095091CA1004C5D0053640630F7024A00FD
:102FA000004D000065770410910404810514D008D9
:102FB00024FF0730E40835BB033912074967005F77
:102FC000000031000041480914A9050E000051001D
:102FD000006500005DD80530F7020C0000618B072A
:102FE000116B061857021C86052411072CC10434E6
:102FF000D80239330441D303487E014C2A005600DD
:1030000000512E09245D0031BD033E14005DC8054A
:10301000041C070847060CAF0215A00018EE083084
:10302000D60234DD08394E0040030A526B0004001A
:10303000006700001D8B010CD80340E50534CA0968
:1030400010C709149C07306E07399E06489D034C33
:10305000D2055105016A000051D008148D044ACEF2
:10306000062F67091200006500003DCD0814030813
:1030700026000051DF004A000051000011140041F9
:103080008E040C14006500006114005D4B0554E9CA
:10309000081D1D0930DF05349D0038B4094CE102DC
:1030A0005A4E0106DF003000004D09081600006589
:1030B0000000092A0024B3051DD00534F70241C5DC
:1030C0000148CE055A09081514002D14003B0000D4
:1030D000656709141E07245E083C440648720956B9
:1030E0000000510000658E040CBB08041707099FFF
:1030F000061135081814001D030724F7022C650675
:10310000302402349D0939BB043D9E06411101481B
:1031100095005408065F210911C2041442093C3885
:103120000848060752000041EC0415000011000099
:103130003700000906030CD803411604046E06107C
:103140007E05304C08355F083864003DD503483DA6
:10315000084C850250F80754F602585F075F1400C8
:1031600004180709150A11B4071D06062C180430A7
:103170002F0939510848E40253B4051C48094A0094
:103180000011F70258D306091A070CF70218DF00DE
:103190001CD8032C720230F70235880239D803415B
:1031A0005D004993054C070851B6055467095D1148
:1031B0000A6700001DF7022C14005D370837DF0096
:1031C0003BD8036A00006500001D680314CF063871
:1031D000A1004200001D6B00246B0004F702404C6C
:1031E000035F6B0024FF0930F7023BC2044A310938
:1031F00015030A65770904FA0724C8093C6B0056D1
:1032000000003100002D0000391400530000219A05
:10321000004F140014A1002467090814005700008F
:103220004900003500003948091400000914005114
:10323000A1004D67092FC003116A011400003F006F
:1032400000312A0016E20806000041A9050C5100D1
:10325000331400152A0004000061480938B2051D26
:103260003A023019003C310549D908542A005C0063
:10327000004100000B000039DF004ABE074A860704
:10328000042707144E0624FC083E00006500001DBC
:1032900000000914005192020C5100154B00200649
:1032A00009242E082E00000514004300001D140000
:1032B00011A20804390515CF0030920838CE06480F
:1032C0001E094C52065300003D090816140065A95A
:1032D000054C4807149201300603390000510000E4
:1032E00037000065D2004A000051000011D0061CD2
:1032F000140025E5053435070CC30114A4052C2D55
:1033000005304F0538BA003D5D0041BB054827092F
:103310004CA100568A071400001100005F00005DF8
:10332000000061B90815000011000007000051E11C
:103330000208D3050D37081514001964061CDC01BA
:103340002414002DE10235D2004A00001D00005D6A
:103350002C000D00005100000B140031140051141A
:103360000009000061A9051CFF050CBB0314140033
:10337000352E0838DF064300005D14004C06030CB0
:1033800006033CF7023A2A00305905054E08151786
:10339000023492083997044086054891034CA100F5
:1033A00062BD033C600605D601142B09240F0456A8
:1033B000BE0004C1031461072435013CB406541B4C
:1033C0000966B90304660114110820450524ED04BB
:1033D00030A9023857023ED505430000517102243E
:1033E00000002D670911F7020C830217530816001D
:1033F000001D00005D14004C83020600003900002F
:103400001500000B710224000015A1004FAB09400C
:10341000710226000051000061EB0805FE04154B07
:10342000031C3C0330BD07387603487F0958B303BB
:103430005F1400055A0027AF0812710224D0081645
:1034400014002DD20030B3031300004D0000090911
:103450000815DD03580000510000332A0261020AFA
:1034600009160914FB061D520230DA0539260249F5
:10347000AC074C800053700804A60214D3082490B3
:10348000083C1B0354120467710224000015140049
:1034900031A905527301040000273A083B0000518E
:1034A00000002D00001DA9050E0000650000416B05
:1034B00000160908040000416B003C95091C14002B
:1034C00011DF00305D030C900108A703155F05189C
:1034D00087002C7D0234CB033836094CB70351D01A
:1034E000055A8E040C3A083A0000350000311400E9
:1034F0001B00001560082E00001D2A00302A004A1B
:10350000000051D2004809081700006500003D0086
:10351000001500004114000B00004D0000110000D8
:103520004BD006502A0015640626030A0C5E0638A6
:1035300031091500004F000035000015000039006A
:10354000004D140013000011DF002F000011DF00F8
:1035500053000015000019140053D00650890508C7
:10356000CF040C5D0810D006184E001C5E062D0717
:10357000013B00003DB5031477022600004900001E
:103580000914003B00001500002DA10006A1002435
:10359000670304BC0314EB013E940222B9036A00E2
:1035A0000049140011B3033500004D030A43A90478
:1035B00024F702166B003C090817DF0048000011D1
:1035C000000067000015030A3100001100002F0001
:1035D0000031000041F702580000110000490000CE
:1035E00037590404EC0014B50724A8013CC0065662
:1035F00000005100001D2A0030000009B10834D835
:10360000032C140039B2061034084A14005DF70286
:1036100009B5094E00003D090856000065D0061C9A
:10362000DF0030140005030A3800004D00001509C2
:10363000083E2A002409083EDF0048510033A9054E
:103640000C030A5000004D090817000011F702345E
:103650001400411400511400098E040C140065D0AC
:103660000804BD08305908397C013C7A0248DB085F
:10367000546B005F01002400001700004D0000158E
:10368000000043000005A9050CC304204509561499
:1036900000152A000400000914000DDE001C030AB6
:1036A00012B9031C00002F00004D00001D06030C82
:1036B000F802373A083800001DF7025000000914DC
:1036C0000065D803411604245C0031DD0634B108DE
:1036D00048D1064D77045406035E000051070838B0
:1036E0008A0717480915F7020CA1004E00004DF794
:1036F000020C00001514001F00006500001D0000F2
:1037000005D903088B010C3405119F062CD8053010
:10371000D90739230249E8084C670953D8031CFB31
:10372000012414003B00001D00005D14005106033D
:103730000CA1003AF7024C00003500002DD2000821
:10374000030A109A005814003100001B030A65ECAC
:1037500004045D0214880724B8043D44095600009F
:103760005D14004C060304BD0214F7024200004D34
:103770006B0026F7025600004D0000330000650084
:10378000005D14002D00000906030C9E003906039D
:103790004E8E060449091460022407093C16085499
:1037A000EF0666000065CE052400001514002F0307
:1037B0000A0E6B002414004C000009140065F70287
:1037C000585E083A00003906030E030A4100003132
:1037D00000003B2A051CA1002600004DA100260088
:1037E000005131091571022600004D0000650000EE
:1037F0003D00001774035800001B000049F7021C2D
:10380000F702170000513109150000217703181441
:103810000009A10048E6021D5B05303809359B0010
:10382000388E084E000065090806460704E10814B2
:103830007002244C053CE1055695091CA9050CBBFA
:103840000338140049670953000015FD073E4F0176
:1038500004FE0814E809206200248803301A013CA1
:103860007B06488309541008669A0021140017004B
:10387000004D00001500000700001100004D480930
:1038800014000019DF003300004D00003900001162
:1038900000005700005100003500004106030C00F5
:1038A00000113A083AB3032F14005100004D4809A3
:1038B0001692081600004DB90352F70248F702327B
:1038C00000001DF7020ECD091500005F000041EF5A
:1038D0000830830216BD033CD80351CA05041B06F9
:1038E00010CD0314930230740334A903392407481C
:1038F000D3054ED0061C00001500005100002F55C6
:103900000604050014A5053C550956000051030A9C
:103910002D000015D2004AFF06504809179A0024CE
:10392000000065140017D200300000650000174544
:1039300009042E00152A0026A30204FB0114A50485
:103940003C6E00566B003C9904048102086B031026
:10395000E202142A0918EC061CB60524B2072C361C
:1039600003308001342C0138C304400D0A487A0624
:103970004CFB0250DF03589E035C980460B107665D
:1039800000005D14004C06030C48093C060A430085
:1039900000512A0004030A113A0826F702481400CD
:1039A00065F70268590239D8032C14005D6E04587B
:1039B000E6021DF702415B030CCA05245E0235F7DF
:1039C0000253B108342A0014A1004E00004D00003B
:1039D0004166092D00005100003B000015670933C6
:1039E00000001100004D7102240000310000410070
:1039F000004900003900002DF7025ADF0030BF02F5
:103A000004430608150711280614D10818310424A8
:103A1000910134FF033890014079014806085014A1
:103A20000059D0040E0000396B001E670942F702EE
:103A30004C000065F7021C00000B090104ED09149D
:103A4000ED0124BD053CCA025600004D000015B62C
:103A5000025379080476050894030CE40610E60383
:103A60001495071870061CE60520C00824C5022816
:103A700010022C5503300A0234380438B6093CA130
:103A80000740F20644E40448A5064C780450A20915
:103A900054C7065853005CCF0364A4016A00006554
:103AA00000001D000049000035F702102A0024160E
:103AB0000009EF000E00005100001100001D8E04EF
:103AC0000C1400656D04580908242F0530AC053529
:103AD000390838310148A9054F7102246B001700DD
:103AE0000065140024A10004C908152C063CB4028A
:103AF000483A085600003DF7021E590904FC01141B
:103B00006F0420F0082436003C4C0248070A54A0F9
:103B1000025C290266600004A30014B00824D302EA
:103B20003C6C0756000011F7021E000019000051FE
:103B300014004B1E0228F7023E60084C14002F149C
:103B4000005414002F0000490000310000416709B3
:103B5000116E045A090814480926FD0516A9050C1A
:103B6000F70258690349DA034C030A53480915D28E
:103B7000003300001100003900002D000019F70289
:103B8000586B004A00004DF7021E0908042A003253
:103B900000005DA100304B031CBE07246C033406FB
:103BA000065200001500005D770330A2033DAD0909
:103BB0004A1400392A0024190923F70208030A418C
:103BC000F7025A00005100004D0000414809145C02
:103BD000072D030A33140005370836C804260000F1
:103BE0004D0000390000412A003000000FC003439F
:103BF00000006514001600004DEC0414E1060E00F0
:103C0000002109085671022409081600001100005D
:103C100041140009F7022C75000C3009156D031DC5
:103C2000EF0830440735140A391000484C005A0098
:103C3000002500001700004D00001D0000179E0326
:103C400064030404230414BF072081062496053C62
:103C5000E00756D006480000378E042614000414EE
:103C600000153204244F003101003C000041D00611
:103C7000520000150000511400334E0304D9011402
:103C8000B20824FA033C2409552A026700004D00BB
:103C90000049000039140011B30335000041000051
:103CA0002F000051F70248000009070839A6041147
:103CB0001F04040106154D01241900322A0030B9F1
:103CC0000308000061B1090CF70211CF08245A085B
:103CD00039D803514B05543B0958F7024B48091595
:103CE000A30104140033000065000041030A1C0313
:103CF0000A39000049DF0032000015640626000082
:103D00001D0000350000098E040CF7023A030A205A
:103D100082021700001D090817000015E505640060
:103D2000003D00003300001114002D030A3500008F
:103D300015F7021E000051140015CA044F00004D73
:103D400000004100001914005100004900003B0030
:103D5000001551005100002100002F0000650908E6
:103D60001600001114004CB1030C6A0030710739C1
:103D7000D7035337083A0000510000418E040C006D
:103D8000001100006500001F000051090804000038
:103D9000350000310603155D0538EC044A0000517A
:103DA00000004900003100002FF70248F70224000C
:103DB0000051000017710224B10804D70114E80172
:103DC0003C000756E50506000041000009000051CF
:103DD00000005F00005100000914001D4C035D8FBE
:103DE000040C830215DC033074003833093C9F0651
:103DF00041430956220304B30114440124610530F0
:103E000076073C050248D30954F70266000015679F
:103E10000911140053000031140013C304520000B0
:103E20001100001900003500003BB9030ABC083E30
:103E3000000051BB033A00005100001100003B1488
:103E400000156B003C00002D140026140015000026
:103E50002114002F140015D805308E040CF70240F1
:103E6000F70211DD034CC20204AA0509F6063CDD87
:103E700002518300542A055822095F90013809082D
:103E800017F7022C2A005CD00857FF0650000023C9
:103E90000000156B002600004D43053600006566E6
:103EA0000314A9002614002E00004DDF001EA100FF
:103EB0002300002D95091E00002D000009CE0633B9
:103EC000F7021D00001500002F0000492A001414FD
:103ED000001DF70238F7024014005DF70211DF0001
:103EE0004C12013C2205516B00560000490000199C
:103EF00000001100003100003B1400142A0006FFEE
:103F00000610710224000017A9050C00004D0000E6
:103F100023F7023000003F00000D000015000033C1
:103F200000001100004D480915A9050C780826006D
:103F3000001537080A48091500000906030ED200CB
:103F400031000043610404AF0014F509246B053C03
:103F50007B0354120866BE07321E094C14001DA1D3
:103F60000018EF0830F90704340734B30739E302C7
:103F7000486D045A000011000039000019B90350BF
:103F8000D0060A14001507011300004DA1004A00D5
:103F9000002D20051700004114001145072F0000D7
:103FA0004DDD031C71022409081700006500003173
:103FB000E1090AD00650A1002466050CBC01106777
:103FC0000918FD064E2A0004920838000061040911
:103FD00015690324340448D006536B00142A0004E6
:103FE000670951AD082600001132042400005D0F5E
:103FF0000704CD050C1800155B0630480938A101EF
:1040000048370850BE075400006B00001100003113
:1040100014002D00001B84005700004D6B003E0073
:10402000005100004D000065000015F7021E000061
:104030006500005D8C05166001041F0214BE032498
:10404000BA043CF3065438026700005114002D14E2
:104050000033000065710224000017090804A10064
:1040600056000025EC041600002DF9071600006527
:10407000540914C003240B003C0703563A083814B3
:10408000004100005100001F030A5000004D0000D5
:104090000700006500005D00004114003595090C23
:1040A0008D054A000051D2003164013E0000654890
:1040B000091600001D070839F7025A1709146B008A
:1040C0003E00005100001100001509083C000007E7
:1040D000CE003E3708260000150000232A00159464
:1040E00008260B03045205146A0620ED05248104FA
:1040F000301F093868093CF30748BE0154EB0466D9
:1041000099004F2405044403149C0624F7013C1035
:104110000454D10467F70230000035A1003C2706A3
:10412000501300096C060C040611950218D0071DE7
:10413000710738AE07412E084C2B005A000065006D
:10414000004114001DF7022C14005D5D030CDF001C
:10415000113D0524AF093848094819094C4500505C
:10416000370858D80368F7023400000B0000657167
:104170000224480917180314A80424D6063D030A8C
:1041800067F70004E2030C2B0214740120C2072419
:1041900035022C0A0830990938E8023C2F084014EF
:1041A00001508D075461085E140015F7021E0000CF
:1041B0001D140011D80530770318E4083541050CAB
:1041C0005B0238D8034C5F055200004D7102244851
:1041D0000916140051D8032C14001DA1004C14081A
:1041E00010C9043405033A70010411061451072460
:1041F000AA043E330854460004F70230A10016D04A
:10420000061000003F140014DF004E00004D2A008D
:1042100004DF000A00001D00003506030C6B005E81
:1042200000001D14001514002F7102246B060A00F3
:10423000004DB90342DF002300005195091E3607E7
:1042400004D30014D304241E083C370648880054C5
:1042500063085C2D0866CE0648B3031D14003FF7C3
:1042600002487102240000176C005600001D000077
:104270003506033A000035000019140051A1004C26
:104280005D072F00004DA10020AE0056A100246B59
:10429000001600004900001577031A0000310000E5
:1042A0001914003B090814DF004A67092E00006555
:1042B000000031DF004809083E00004D00002D00DD
:1042C000005100004B0808170000110000152706D8
:1042D0005000004D00003F000009F7023000004F81
:1042E000F702205702520000515006563A08380093
:1042F00000492A0030DF0036000051CE051B0000C7
:1043000015DF0048A4051E00001100003914001537
:104310002A0004200908EE064A0000515702043121
:104320000915D70720AF0324B20738F70248F70270
:1043300036CE062EF70230000011000065F702505D
:10434000000009F7020CF70268A10018A20035BAB4
:10435000033875084814005F60084860085800007A
:1043600015DF003200003500005D14004E000051E2
:104370000000110000412A0030A10018770314DF6B
:10438000003548093BF702300000351400150000E5
:1043900005F70208F70238030A409E034CE0021CAE
:1043A0002A022CFF066248091400004DF70226007D
:1043B0000039090816000011F702502A0261D803DB
:1043C0003475020CAD021CBB0230180238D8034809
:1043D00094024E860331000051480917F7020C037E
:1043E0000A38B8021500001100001D00002FB105A9
:1043F0000C20091A14004C2F00051400098E040C1F
:104400009F0710310024920830B1083473083884B3
:10441000013D800948B603518A05548F015D2A0287
:104420006114006500001D000043090814A405354F
:10443000F7026A000015EC0406A100249E00398EE4
:10444000080C140010E6081506033015073542075E
:104450004A0E05041C0614430224F8043095013C5E
:10446000A106487600560000111400515C08310086
:104470000065480917950804640814560220EA07E5
:1044800024490630C7013C3E034857024C1C0054E7
:10449000AD00663109140000510000233D051503ED
:1044A0000A4200003D71022431091700004D030A41
:1044B0001E00001D00003900000B00005100004DDF
:1044C00000001D140015030A3A9E034C140013004B
:1044D000003D370814340766000041140051F7020C
:1044E0006806030CB20710A10018BA0414B5041C26
:1044F0003D06301E0339E908499A006300004D3338
:10450000011700004D09083CA1002048092671024E
:1045100024DF002C30033C31091500006700001136
:104520000000154B0504C0033800004D00001D00BD
:10453000002F31091500001D140051150009A405B4
:1045400010580224870030E30835B807393F054E7C
:104550008B010C14001DF7022CDF00518302159E05
:104560000430E50534B60839850043600304340699
:10457000144907246B013CB10856F7024CA1003ADC
:10458000F70248DF00392F00140000352A003200FE
:104590000011670941D00631CE0637000041DD0326
:1045A00038DD0352D00648A9050EE5055400004B3E
:1045B000000065D70114310304AB032467053C33C5
:1045C0000056B9030C6B00066B0034A40542B20719
:1045D0001EEF0816F702502A0030750848D8030865
:1045E000D2080C150A1D050A34BA053A00001D153B
:1045F0000A51F7025806030C7604106B0730D803F3
:1046000034750239EC043CD80340EC0448D8034D1F
:104610008400546B005CCB09687102242F001700E2
:1046200000656B00241400055F0016000051F702BE
:104630004EB5021AD80814000007A9043E670911F4
:1046400000001F5306149F073200004D450753001A
:10465000002DA9050CDF004B00004D000065150A78
:1046600011D8032C000061EF0830D80358D8031D7F
:10467000CC03388C024B00004DF9071600004D00AA
:104680000035000039000011A90552A1000E0000FC
:1046900011000039000041140019F7024FC804242A
:1046A00000004D00001FBD033CF70226DF003A600A
:1046B000082DDF0016A5043C770824A90416000085
:1046C0001D00005D6B003C14001106030C0D070576
:1046D0001A0415A100308F0239AF0741CF09496C88
:1046E00003530000650000355E083A670911D006E3
:1046F0001C48091500002F2A0048A9054E2D070C5B
:104700008C0110A50018B0071C450620A90824CB71
:104710000608AB052CEE0430E209348D09386F032E
:1047200040DE014847004C920350B50554960458AA
:1047300019055C0300609E03662A00040000211432
:10474000002F2A0030F70258000051000013DF004C
:104750001A0000510000316B002400005D030A4183
:10476000F70249D8030CF00011D8031CE204397F8A
:10477000014CD8035837026700005100004900007F
:104780003500003900002DA9050C6709130000351C
:10479000D8031100003151004BEC0456140014DF13
:1047A0000006A1003800000B3A083895091C0000EB
:1047B0004106030E48091514001DDF002D000051AD
:1047C00000004F00003100006300001100003D14A4
:1047D0000017D4070C3B08103E06304609349802F7
:1047E000388F0548B9034CCC045030033EF70248DB
:1047F000000015F7023509082400006500003B00A1
:10480000003114004B58053E51002F00003DF702C7
:10481000502A0030F70208F70243A1004B95091C0B
:10482000480938000049000033000051000065ECE1
:104830000424F7024F00001906034AD0083C000088
:104840004D00004300004DF7021300002100004D11
:1048500014001700004D1400311400370000251417
:104860000033F70248000041770318830215EF0078
:104870000CD00534DD031094091CDF042CF5043042
:104880002F06391807539F0638EC043F1400152AE9
:104890000030340804B20710480634A1003A000082
:1048A0004D14004BB2033B6B002414004114005123
:1048B000F70258F70210840504150A098D080C49FF
:1048C000031D2B053813043DAE094836054C470936
:1048D0005406015F00001948093A00003100004DFC
:1048E000140053A9055083054E1400151400536994
:1048F0000504000057BD033C00004D830216000074
:104900004D77031806033AF7024C000065140017B0
:104910001E021BF7020806030C95091D770317D02A
:10492000061D00005100001100004F67092D6709A6
:1049300011000019000051000043000041B90308B4
:10494000030A34120A3E3A08382A000600005D00C5
:10495000001906031407074A57022E45074BF702B2
:1049600038F70212450743DD034C00001300001D19
:1049700014004C920838A10018A004043F08141435
:104980000025D00434DD005115085848095C77042F
:104990001300003500004106030C1E094A000011F7
:1049A00000001D000009030A5006030CD80341F75C
:1049B000022C2A0024D70530DD0739F50049E2062C
:1049C00055570263E505544809167102246B005CD3
:1049D000A9054CCC09042F001420033854083D319C
:1049E0000648A8055111005400001100000B0000FA
:1049F0001D0000096B004800003506030C06033A51
:104A0000F7024C000011000051000049000043185B
:104A10000516000039D2004809081731091571023E
:104A200024140041140011770318D80309410230FF
:104A30003D0249E4084CE502530000110000652ADC
:104A40000004BD031407071C150A511400566B001F
:104A50003CA10022480915510031BD063B740704F2
:104A6000E5052468053C67035600004D480915001C
:104A7000006500002DA9050EDD0050040310450758
:104A80001C5F03301600340B06386306402E0348C3
:104A900029054E7102240000430000350000390052
:104AA00000110000170000519208153C0926000073
:104AB00021DF004F8804048B040830040CFB051030
:104AC000220718B8031CEC0420290024FE06346FCA
:104AD000003865013C180640FF0248DD00508D0398
:104AE0005436085896095C48093200005D8E040E61
:104AF000CE061C3D051700005100001100003300D8
:104B0000003500002DA9050C2A00260000650000D4
:104B10001D77031888050817000CA60411EC05245E
:104B2000B70530B202355902391C0548AB074D3D77
:104B30000451270668DF003E4807046B0014EE06A8
:104B40003471023C6709413408567A09043E09145D
:104B5000C40425B4083C74095600005100005D6B84
:104B6000003C06030C4809487C09043C02158400FB
:104B70002600003514005106062C06030C060A41D7
:104B8000CF0511F6043086043803004814004F00A6
:104B90000015F70258600832F7024809081667093D
:104BA00031140043DF004200001D06030C9F03097F
:104BB000E10234A30538F6054A000005D0061CB30F
:104BC00003496A0156110836000049090856720364
:104BD0001D00004D48091740040200D5F08D14A1B6
:104BE000C881CFD9F1AF2000080B000202020000FB
:104BF0000904000001020200000524001001052440
:104C000001010104240206052406000107058103B1
:104C100010004009040100020A000000070502021A
:104C2000400000070583024000000403090412014C
:104C30000002EF020140412336800001010203011E
:104C400041726475696E6F204C4C4300417264750B
:104C5000696E6F204C656F6E6172646F00006C2F1F
:104C600011241FBECFEFDAE0DEBFCDBF11E0A0E020
:104C7000B1E0ECE8FEE602C005900D92A23FB1075C
:104C8000D9F727E0A2EFB1E001C01D92A03BB20727
:104C9000E1F716E2C0E3D6E204C02197FE010E94CC
:104CA0002E37CF32D107C9F70E94C52F0C94443755
:104CB0000C940000EF92FF920F931F93CF93DF931A
:104CC000DB0173E0B595A7957A95E1F7B695BA2F14
:104CD000AA27B795A795A80FB91F6770FC01E00F29
:104CE000F11DE038F10514F000E8081B862F02C022
:104CF000220F331F6A95E2F7722FF22EF094632F82
:104D0000E32EE094AF5EBD4F30E010E0E32F032EC2
:104D1000000CFF0BE017F107DCF4E40FF51FE49142
:104D2000F0E0082E02C0EE0FFF1F0A94E2F72D916B
:104D3000ED0121972F21E7232E2B2883C058DF4F29
:104D400028812E21E62FEF232E2B28833F5FDECFF5
:104D5000DF91CF911F910F91FF90EF90089580E028
:104D6000E1E1F2E081118FEF00248193819381933F
:104D700081930394D1F708959091AB07982329F478
:104D80009091AA07982381E009F480E00895FC013E
:104D900080911002882311F13FB7F89482E080934C
:104DA000E9002091F200822F90E01816190614F401
:104DB00081E090E0882339F0289844E640930F0280
:104DC0004091F1004083222339F02091F20021111B
:104DD00003C02BE62093E8003FBF08958FEF9FEFBD
:104DE00008952FB7F89483E08093E9009091E8004C
:104DF000892F807295FF04C09091F20080E4891B96
:104E00002FBF08958091070281110DC082E0809329
:104E1000030284E0809304021092060210920502BD
:104E200081E08093070283E092E00895CF93DF93BF
:104E30001F92CDB7DEB76983DC01ED91FC91028052
:104E4000F381E02D41E050E0BE016F5F7F4F099597
:104E50000F90DF91CF91089583E08093E9008091D6
:104E6000F200882319F08AE38093E80008950E94F5
:104E7000F12690E00895CF93DF931F92CDB7DEB770
:104E8000FC018485958597FD08C02FEF3FEF35879E
:104E900024870F90DF91CF910895CE0101960E9453
:104EA000C726019719F4898190E0F3CF8FEF9FEF28
:104EB000F0CF0F931F93CF93DF931F92CDB7DEB741
:104EC0008C01FC018485958597FF0BC0CE0101966E
:104ED0000E94C726019771F4898190E0F8019587B7
:104EE0008487F801848595850F90DF91CF911F917C
:104EF0000F9108958FEF9FEFF1CFFC018485958589
:104F000097FD0BC09FB7F89482E08093E9008091F1
:104F1000F2009FBF90E0019608959FB7F89482E059
:104F20008093E9008091F2009FBF90E00895409146
:104F3000FD015091FE012091FB013091FC014217CF
:104F40005307B4F49091E8009570E1F39091E80074
:104F500092FD19C08093F1008091FD019091FE01B6
:104F600001968F739927892B19F48EEF8093E800AF
:104F70008091FD019091FE0101969093FE01809336
:104F8000FD0181E0089580E00895EF92FF920F9374
:104F90001F93CF93DF93F82E192FE62E042F81E075
:104FA000860F880F0E94972783E00E949727CF2DB6
:104FB000D12FEC0EFD2EF11CCE15DF05B9F007FF49
:104FC00013C0FE0184910E949727182F80E00E9451
:104FD0009727812321968111EFCFDF91CF911F91E8
:104FE0000F91FF90EF9008958881EDCF81E0F5CF8C
:104FF000DF92EF92FF920F931F93CF93DF93D82E00
:105000008A01EB017B01E40EF51ECE15DF0559F098
:10501000D7FE12C0FE0184910E949727219681112C
:10502000F4CF0FEF1FEFC801DF91CF911F910F91C8
:10503000FF90EF90DF9008958881EECF0F931F933C
:10504000CF93DF931F92CDB7DEB782E0898342E42E
:1050500050E068EE7BE480E80E94F8270E94022777
:10506000DC0112960D911C910115110589F0D801F2
:10507000ED91FC910280F381E02DBE016F5F7F4FC7
:10508000C801099597FD04C0F80100851185ECCF92
:1050900089810F90DF91CF911F910F9108956150F9
:1050A00030F02091F100FC0120830196F8CF289880
:1050B00084E680930F0208953FB7F8948091F3013E
:1050C0009091F401A091F501B091F60126B5A89B4D
:1050D00005C02F3F19F00196A11DB11D3FBFBA2F8A
:1050E000A92F982F8827BC01CD01620F711D811D4A
:1050F000911D42E0660F771F881F991F4A95D1F7CF
:1051000008958F929F92AF92BF92CF92DF92EF92CB
:10511000FF926B017C010E945C284B015C01C11471
:10512000D104E104F104B9F00E945C2868197909FE
:105130008A099B09683E73408105910580F321E04F
:10514000C21AD108E108F10888EE880E83E0981EA3
:10515000A11CB11CE4CFFF90EF90DF90CF90BF90E7
:10516000AF909F908F90089565E070E080E090E0B0
:105170000C9481288F929F92AF92BF92CF92DF9230
:10518000EF92FF920F931F93CF93DF936C017B01FC
:105190008A0180910B01882309F45CC08091100280
:1051A000882309F457C08091020280FF05C08091D6
:1051B000E00082608093E000E801B12C8AEFA82E25
:1051C00093E0892E2AE3922E209711F4BB20D9F187
:1051D0000E94F12681110AC0AA94AA20D9F161E0A7
:1051E00070E080E090E00E948128EECF8C171D06D1
:1051F00011F00CF08C2F9FB7F8948092E900209169
:10520000E80025FD02C09FBFDFCF282F30E0C21B82
:10521000D30BF701815020F041914093F100FACF78
:10522000E20EF31EBB2021F09092E800B12CEBCFF0
:105230008091E80085FDE7CF9092E800BB24B3940D
:10524000209709F3F3CF5D9884E68093010210164E
:1052500011063CF081E090E0F6019383828310E038
:1052600000E0C801DF91CF911F910F91FF90EF9067
:10527000DF90CF90BF90AF909F908F90089580382F
:105280009105B8F460347105A0F420E191E061FD6E
:1052900094E060FD990F62FD9295687F269FD00192
:1052A0001124A80FAF5EBD4F8C91442319F0892BB8
:1052B0008C93089590958923FBCF0895EF92FF92E8
:1052C0000F931F93CF93DF93FC01CB0177FF06C0B1
:1052D0009195819591092DE22083319620E00AE095
:1052E00010E0422F50E0EF01C40FD51F0097E9F402
:1052F0008A011595079580E0282F30E020173107A7
:10530000E4F4BF01620F731FDB019C91DA01A21B61
:10531000B30B11977D01EE0EFF1ED7012C91DB011F
:105320002C93D7019C938F5FE7CFB8010E941A3767
:10533000805D88832F5FCB01D4CF1882CF01DF91AE
:10534000CF911F910F91FF90EF900895AF92BF9270
:10535000CF92DF92EF92FF920F931F93CF93DF9341
:105360007B015A016801E90115E085E0C80ED11CF6
:105370004991442381F04F714102A0011124435A05
:105380005E4F05E02FEF30E0B501C7010E945A26BD
:10539000EC0CFD1CEDCFDF91CF911F910F91FF9091
:1053A000EF90DF90CF90BF90AF900895CF92DF92B3
:1053B000EF92FF920F931F93CF93DF93EB016A015C
:1053C000790113E0F70141917F01442379F04052C4
:1053D0004102A001112444555F4F03E02FE330E068
:1053E000B601CE010E945A262496ECCFDF91CF91D0
:1053F0001F910F91FF90EF90DF90CF9008952F9223
:105400003F924F925F926F927F928F929F92AF9254
:10541000BF92CF92DF92EF92FF920F931F93CF93A1
:10542000DF9300D000D000D0CDB7DEB78C017E83F3
:105430006D8349015A01CB018E56994F1C01DC0145
:10544000AE5FBE4FBA83A983CB0101969C838B8349
:10545000E091A307F091A407E00FF11F459055904C
:1054600065907490E62DE595E595E05CA981BA819B
:10547000EC93F0E0E851FF4FA081B0E0A50194016A
:105480000E94C2366B017C0160FE28C080919C079F
:1054900090919D07019709F050C08D819E810597DD
:1054A000E9F480919E0790919F07A091A007B09189
:1054B000A1070197A109B10980939E0790939F07C7
:1054C000A093A007B093A107892B8A2B8B2B31F4D3
:1054D00064E977E082E996E00E943D37C2010097D7
:1054E00059F0F201EE0FFF1FA70196016B817C813D
:1054F0008E0F9F1F0E94FF290D5F1F4F61FEA8CFD7
:10550000F101EE5FFE4F108226960FB6F894DEBFD3
:105510000FBECDBFDF91CF911F910F91FF90EF9004
:10552000DF90CF90BF90AF909F908F907F906F90C3
:105530005F904F903F902F90089560919E077091DB
:105540009F078091A0079091A107A70196010E9453
:10555000D536672B682B692B09F6809192079091BD
:1055600093079C012F5F3F4F30939307209392073F
:1055700033E0880F991F3A95E1F764E977E08E569A
:10558000994FAACF8F929F92AF92BF92CF92DF9204
:10559000EF92FF92CF93DF93CBE0D0E086E0C82E6E
:1055A000D12CE12CF12C0E943536A70196010E94E6
:1055B000A3364B010E943536A70196010E94A336FF
:1055C000D401A358B94F2C91FB01E358F94F8081C6
:1055D0008C932083219739F7DF91CF91FF90EF9043
:1055E000DF90CF90BF90AF909F908F900895CF9213
:1055F000DF92EF92FF920F931F93CF93DF938091EF
:1056000064008E7F8093640080917A008064809330
:105610007A0080917A0086FDFCCFC0917800D0910D
:1056200079000E945C28AB01BC01CE01B0E0A0E093
:10563000DC01992788278C019D01040F151F261F67
:10564000371FC901B80120916400216020936400D4
:10565000611571058105910511F00E94843681E084
:1056600090E090939D0780939C071092940710926E
:10567000950710929607109297071092980710922C
:10568000990710929A0710929B0710929307109215
:1056900092078091A207882309F44FC00E943536F3
:1056A0002BEE30E040E050E00E94A3366F5F7F4F6A
:1056B0008F4F9F4F60939E0770939F078093A00723
:1056C0009093A10782E99DE29093A4078093A3079A
:1056D00021E030E040E050E070E060E080EC9CE0F1
:1056E0000E94FF298091A207811110C084EE91E0F1
:1056F0009093A4078093A30721E030E040E050E0BE
:1057000070E060E08BEF9DE00E94FF29C2E9D6E0E7
:10571000C12CD12C7601C394E991EE23A9F00E2E71
:10572000000CFF0BE851FF4FA081B0E0A7019601EC
:105730000E94C2366B017C01EFCF0E94353624E314
:1057400035E040E050E0B0CF62E976E08DE796E0EA
:105750000E943D3710928F0610928E0610928D0691
:10576000109285060E94C22A82E090E090939D07E5
:1057700080939C07109294071092950710929607B9
:1057800010929707109298071092990710929A0713
:1057900010929B071092930710929207C0929E0757
:1057A000D0929F07E092A007F092A10782E99DE2C4
:1057B0009093A4078093A30721E030E040E050E0FD
:1057C00070E060E080EC9CE00E94FF298091A207DD
:1057D000811110C084EE91E09093A4078093A307F9
:1057E00021E030E040E050E070E060E08BEF9DE0D1
:1057F0000E94FF29F0909207FA941FEFF11671F1C1
:10580000C2E9D6E0E12CEF14BCF78E01085F1F4F10
:10581000FE0101900020E9F731978E2F8C1BF801D3
:1058200001900020E9F73197E01BE8175CF4DE01F6
:105830005096F801CE17DF0771F082919E91908308
:105840008C93F8CF8E1307C0B801CE010E94343775
:105850001816190664F3E394E801D5CF1092720686
:1058600010927106109274061092730610927506CB
:10587000109276068FE097E29093780680937706F1
:10588000DF91CF911F910F91FF90EF90DF90CF901C
:105890000895FF920F931F93CF93DF93EC018B0139
:1058A000FB01F0800E948D36F81621F06F2DCE019D
:1058B0000E949536F801F1802196CE010E948D3626
:1058C000F81621F06F2DCE010E949536C801DF91A8
:1058D000CF911F910F91FF9008950F931F93CF9336
:1058E000DF938C01EB010E948D368883C8010196FD
:1058F0000E948D368983CE01DF91CF911F910F9148
:1059000008951F920F920FB60F9211248F939F93B9
:105910008091E1009091E100937F9093E10083FFFB
:105920000FC01092E90091E09093EB001092EC0010
:1059300092E39093ED001092100298E09093F000A3
:1059400082FF22C093E09093E9009091F2009923A6
:1059500019F09AE39093E80090910102992341F0A5
:1059600090910102915090930102911101C05D9AB2
:1059700090910F02992341F090910F0291509093D2
:105980000F02911101C0289A84FF18C08091E20093
:105990008E7E81608093E2008091E1008F7E809313
:1059A000E100809102028E7E8061809302029F91CD
:1059B0008F910F900FBE0F901F90189580FFF7CF1B
:1059C0008091E2008E7E80618093E2008091E10010
:1059D0008E7E8093E100809102028E7E8160E5CF11
:1059E0001F920F920FB60F921124CF92DF92EF9277
:1059F000FF920F931F932F933F934F935F936F9358
:105A00007F938F939F93AF93BF93EF93FF93CF9326
:105A1000DF93CDB7DEB76C97DEBFCDBF1092E90044
:105A20008091E80083FF25C068E0CE0145960E9482
:105A30004F2882EF8093E8008D8987FF39C09091CD
:105A4000E80090FFFCCF982F907609F034C19E8932
:105A50004F89588D2F89F88C911131C0803861F5AC
:105A6000809100028093F1001092F1008EEF8093FC
:105A7000E8006C960FB6F894DEBF0FBECDBFDF9185
:105A8000CF91FF91EF91BF91AF919F918F917F91B6
:105A90006F915F914F913F912F911F910F91FF90C7
:105AA000EF90DF90CF900F900FBE0F901F90189542
:105AB0009EEF9093E800C7CF1092F100D5CF9130C0
:105AC00059F48111D3CF4130510581F68091000204
:105AD0008D7F80930002CACF933049F48111C6CFE5
